{
  "contractName": "BeraPoolStandardRisk",
  "abi": [
    {
      "inputs": [
        {
          "internalType": "contract ISwapRouter",
          "name": "_swapRouter",
          "type": "address"
        },
        {
          "internalType": "contract BeraWrapper",
          "name": "_beraWrapper",
          "type": "address"
        }
      ],
      "stateMutability": "nonpayable",
      "type": "constructor"
    },
    {
      "stateMutability": "payable",
      "type": "fallback",
      "payable": true
    },
    {
      "inputs": [],
      "name": "beraWrapper",
      "outputs": [
        {
          "internalType": "contract BeraWrapper",
          "name": "",
          "type": "address"
        }
      ],
      "stateMutability": "view",
      "type": "function",
      "constant": true
    },
    {
      "inputs": [
        {
          "internalType": "address",
          "name": "",
          "type": "address"
        },
        {
          "internalType": "uint256",
          "name": "",
          "type": "uint256"
        }
      ],
      "name": "entryPrices",
      "outputs": [
        {
          "internalType": "uint256",
          "name": "",
          "type": "uint256"
        }
      ],
      "stateMutability": "view",
      "type": "function",
      "constant": true
    },
    {
      "inputs": [
        {
          "internalType": "address",
          "name": "",
          "type": "address"
        },
        {
          "internalType": "address",
          "name": "",
          "type": "address"
        },
        {
          "internalType": "uint256[]",
          "name": "",
          "type": "uint256[]"
        },
        {
          "internalType": "uint256[]",
          "name": "",
          "type": "uint256[]"
        },
        {
          "internalType": "bytes",
          "name": "",
          "type": "bytes"
        }
      ],
      "name": "onERC1155BatchReceived",
      "outputs": [
        {
          "internalType": "bytes4",
          "name": "",
          "type": "bytes4"
        }
      ],
      "stateMutability": "nonpayable",
      "type": "function"
    },
    {
      "inputs": [
        {
          "internalType": "address",
          "name": "",
          "type": "address"
        },
        {
          "internalType": "address",
          "name": "",
          "type": "address"
        },
        {
          "internalType": "uint256",
          "name": "",
          "type": "uint256"
        },
        {
          "internalType": "uint256",
          "name": "",
          "type": "uint256"
        },
        {
          "internalType": "bytes",
          "name": "",
          "type": "bytes"
        }
      ],
      "name": "onERC1155Received",
      "outputs": [
        {
          "internalType": "bytes4",
          "name": "",
          "type": "bytes4"
        }
      ],
      "stateMutability": "nonpayable",
      "type": "function"
    },
    {
      "inputs": [],
      "name": "owner",
      "outputs": [
        {
          "internalType": "address",
          "name": "",
          "type": "address"
        }
      ],
      "stateMutability": "view",
      "type": "function",
      "constant": true
    },
    {
      "inputs": [
        {
          "internalType": "uint256",
          "name": "",
          "type": "uint256"
        }
      ],
      "name": "standardPoolList",
      "outputs": [
        {
          "internalType": "address",
          "name": "",
          "type": "address"
        }
      ],
      "stateMutability": "view",
      "type": "function",
      "constant": true
    },
    {
      "inputs": [
        {
          "internalType": "bytes4",
          "name": "interfaceId",
          "type": "bytes4"
        }
      ],
      "name": "supportsInterface",
      "outputs": [
        {
          "internalType": "bool",
          "name": "",
          "type": "bool"
        }
      ],
      "stateMutability": "view",
      "type": "function",
      "constant": true
    },
    {
      "inputs": [],
      "name": "swapRouter",
      "outputs": [
        {
          "internalType": "contract ISwapRouter",
          "name": "",
          "type": "address"
        }
      ],
      "stateMutability": "view",
      "type": "function",
      "constant": true
    },
    {
      "inputs": [],
      "name": "testNumber",
      "outputs": [
        {
          "internalType": "uint256",
          "name": "",
          "type": "uint256"
        }
      ],
      "stateMutability": "view",
      "type": "function",
      "constant": true
    },
    {
      "inputs": [],
      "name": "testPNL",
      "outputs": [
        {
          "internalType": "uint256",
          "name": "",
          "type": "uint256"
        }
      ],
      "stateMutability": "view",
      "type": "function",
      "constant": true
    },
    {
      "inputs": [
        {
          "internalType": "address",
          "name": "",
          "type": "address"
        }
      ],
      "name": "userDepositBalance",
      "outputs": [
        {
          "internalType": "uint256",
          "name": "",
          "type": "uint256"
        }
      ],
      "stateMutability": "view",
      "type": "function",
      "constant": true
    },
    {
      "inputs": [
        {
          "internalType": "address",
          "name": "",
          "type": "address"
        },
        {
          "internalType": "uint256",
          "name": "",
          "type": "uint256"
        }
      ],
      "name": "userShortBalance",
      "outputs": [
        {
          "internalType": "uint256",
          "name": "",
          "type": "uint256"
        }
      ],
      "stateMutability": "view",
      "type": "function",
      "constant": true
    },
    {
      "stateMutability": "payable",
      "type": "receive",
      "payable": true
    },
    {
      "inputs": [
        {
          "internalType": "uint256",
          "name": "amount",
          "type": "uint256"
        },
        {
          "internalType": "address",
          "name": "collateral",
          "type": "address"
        }
      ],
      "name": "depositCollateral",
      "outputs": [],
      "stateMutability": "nonpayable",
      "type": "function"
    },
    {
      "inputs": [
        {
          "internalType": "uint256",
          "name": "amount",
          "type": "uint256"
        },
        {
          "internalType": "uint256",
          "name": "_userShortID",
          "type": "uint256"
        }
      ],
      "name": "withdrawFromPool",
      "outputs": [],
      "stateMutability": "nonpayable",
      "type": "function"
    },
    {
      "inputs": [
        {
          "internalType": "uint256",
          "name": "amount",
          "type": "uint256"
        },
        {
          "internalType": "address",
          "name": "tokenToShort",
          "type": "address"
        },
        {
          "internalType": "uint24",
          "name": "poolFee",
          "type": "uint24"
        },
        {
          "internalType": "uint256",
          "name": "amountOutMin",
          "type": "uint256"
        }
      ],
      "name": "swapAndShortStandard",
      "outputs": [
        {
          "internalType": "uint256",
          "name": "amountOut",
          "type": "uint256"
        }
      ],
      "stateMutability": "nonpayable",
      "type": "function"
    },
    {
      "inputs": [
        {
          "internalType": "address",
          "name": "user",
          "type": "address"
        },
        {
          "internalType": "uint256",
          "name": "_userShortID",
          "type": "uint256"
        },
        {
          "internalType": "uint256",
          "name": "priceAtClose",
          "type": "uint256"
        }
      ],
      "name": "closeShortStandardPool",
      "outputs": [],
      "stateMutability": "nonpayable",
      "type": "function"
    }
  ],
  "bytecode": "0x60a06040523480156200001157600080fd5b5060405162002a4638038062002a468339818101604052810190620000379190620001b7565b336000806101000a81548173ffffffffffffffffffffffffffffffffffffffff021916908373ffffffffffffffffffffffffffffffffffffffff1602179055508173ffffffffffffffffffffffffffffffffffffffff1660808173ffffffffffffffffffffffffffffffffffffffff168152505080600a60006101000a81548173ffffffffffffffffffffffffffffffffffffffff021916908373ffffffffffffffffffffffffffffffffffffffff1602179055505050620001fe565b600080fd5b600073ffffffffffffffffffffffffffffffffffffffff82169050919050565b60006200012682620000f9565b9050919050565b60006200013a8262000119565b9050919050565b6200014c816200012d565b81146200015857600080fd5b50565b6000815190506200016c8162000141565b92915050565b60006200017f8262000119565b9050919050565b620001918162000172565b81146200019d57600080fd5b50565b600081519050620001b18162000186565b92915050565b60008060408385031215620001d157620001d0620000f4565b5b6000620001e1858286016200015b565b9250506020620001f485828601620001a0565b9150509250929050565b6080516128106200023660003960008181610bb401528181610c8b01528181610e9b015281816114a5015261157c01526128106000f3fe6080604052600436106100f75760003560e01c80638a7d6ac61161008a578063bc197c8111610059578063bc197c811461036c578063c31c9c07146103a9578063ef1b3166146103d4578063f23a6e61146103fd576100fe565b80638a7d6ac61461029c5780638da5cb5b146102d9578063a29aa11414610304578063aac28b541461032f576100fe565b806337d45bce116100c657806337d45bce146101e2578063481fef8a1461020d5780637b1609b1146102365780637c802ff21461025f576100fe565b806301ffc9a714610100578063099d29581461013d5780630bf7f3451461017a5780630d1972f3146101b7576100fe565b366100fe57005b005b34801561010c57600080fd5b50610127600480360381019061012291906117b8565b61043a565b6040516101349190611800565b60405180910390f35b34801561014957600080fd5b50610164600480360381019061015f91906118af565b6104b4565b60405161017191906118fe565b60405180910390f35b34801561018657600080fd5b506101a1600480360381019061019c9190611919565b6104d9565b6040516101ae9190611955565b60405180910390f35b3480156101c357600080fd5b506101cc610518565b6040516101d991906118fe565b60405180910390f35b3480156101ee57600080fd5b506101f761051e565b60405161020491906118fe565b60405180910390f35b34801561021957600080fd5b50610234600480360381019061022f9190611970565b610524565b005b34801561024257600080fd5b5061025d600480360381019061025891906119b0565b610785565b005b34801561026b57600080fd5b5061028660048036038101906102819190611a03565b6109fb565b60405161029391906118fe565b60405180910390f35b3480156102a857600080fd5b506102c360048036038101906102be91906118af565b610a13565b6040516102d091906118fe565b60405180910390f35b3480156102e557600080fd5b506102ee610a38565b6040516102fb9190611955565b60405180910390f35b34801561031057600080fd5b50610319610a5c565b6040516103269190611a8f565b60405180910390f35b34801561033b57600080fd5b5061035660048036038101906103519190611ae5565b610a82565b60405161036391906118fe565b60405180910390f35b34801561037857600080fd5b50610393600480360381019061038e9190611d5a565b610e84565b6040516103a09190611e38565b60405180910390f35b3480156103b557600080fd5b506103be610e99565b6040516103cb9190611e74565b60405180910390f35b3480156103e057600080fd5b506103fb60048036038101906103f69190611e8f565b610ebd565b005b34801561040957600080fd5b50610424600480360381019061041f9190611ecf565b611171565b6040516104319190611e38565b60405180910390f35b60007f4e2312e0000000000000000000000000000000000000000000000000000000007bffffffffffffffffffffffffffffffffffffffffffffffffffffffff1916827bffffffffffffffffffffffffffffffffffffffffffffffffffffffff191614806104ad57506104ac82611186565b5b9050919050565b6004602052816000526040600020602052806000526040600020600091509150505481565b600981815481106104e957600080fd5b906000526020600020016000915054906101000a900473ffffffffffffffffffffffffffffffffffffffff1681565b60015481565b60025481565b736b175474e89094c44da98b954eedeac495271d0f73ffffffffffffffffffffffffffffffffffffffff168173ffffffffffffffffffffffffffffffffffffffff16146105a6576040517f08c379a000000000000000000000000000000000000000000000000000000000815260040161059d90611fc3565b60405180910390fd5b6000600360003373ffffffffffffffffffffffffffffffffffffffff1673ffffffffffffffffffffffffffffffffffffffff1681526020019081526020016000205411156106aa576009339080600181540180825580915050600190039060005260206000200160009091909190916101000a81548173ffffffffffffffffffffffffffffffffffffffff021916908373ffffffffffffffffffffffffffffffffffffffff1602179055506001600660003373ffffffffffffffffffffffffffffffffffffffff1673ffffffffffffffffffffffffffffffffffffffff16815260200190815260200160002060006101000a81548160ff0219169083151502179055505b81600360003373ffffffffffffffffffffffffffffffffffffffff1673ffffffffffffffffffffffffffffffffffffffff16815260200190815260200160002060008282546106f99190612012565b925050819055508073ffffffffffffffffffffffffffffffffffffffff166323b872dd3330856040518463ffffffff1660e01b815260040161073d93929190612068565b6020604051808303816000875af115801561075c573d6000803e3d6000fd5b505050506040513d601f19601f8201168201806040525081019061078091906120cb565b505050565b3373ffffffffffffffffffffffffffffffffffffffff168373ffffffffffffffffffffffffffffffffffffffff16146107f3576040517f08c379a00000000000000000000000000000000000000000000000000000000081526004016107ea90612144565b60405180910390fd5b60008073__PnLCalculator_________________________63896b198a600760003373ffffffffffffffffffffffffffffffffffffffff1673ffffffffffffffffffffffffffffffffffffffff168152602001908152602001600020600087815260200190815260200160002054856040518363ffffffff1660e01b815260040161087f929190612173565b6040805180830381865af415801561089b573d6000803e3d6000fd5b505050506040513d601f19601f820116820180604052508101906108bf91906121ea565b60ff1691509150600081141561092a5781600360003373ffffffffffffffffffffffffffffffffffffffff1673ffffffffffffffffffffffffffffffffffffffff168152602001908152602001600020600082825461091e9190612012565b9250508190555061098b565b600181141561098a5781600360003373ffffffffffffffffffffffffffffffffffffffff1673ffffffffffffffffffffffffffffffffffffffff1681526020019081526020016000206000828254610982919061222a565b925050819055505b5b6000600860003373ffffffffffffffffffffffffffffffffffffffff1673ffffffffffffffffffffffffffffffffffffffff168152602001908152602001600020600086815260200190815260200160002060006101000a81548160ff0219169083151502179055505050505050565b60036020528060005260406000206000915090505481565b6007602052816000526040600020602052806000526040600020600091509150505481565b60008054906101000a900473ffffffffffffffffffffffffffffffffffffffff1681565b600a60009054906101000a900473ffffffffffffffffffffffffffffffffffffffff1681565b6000600360003373ffffffffffffffffffffffffffffffffffffffff1673ffffffffffffffffffffffffffffffffffffffff16815260200190815260200160002054851115610b06576040517f08c379a0000000000000000000000000000000000000000000000000000000008152600401610afd906122aa565b60405180910390fd5b6001600560003373ffffffffffffffffffffffffffffffffffffffff1673ffffffffffffffffffffffffffffffffffffffff1681526020019081526020016000206000828254610b569190612012565b9250508190555060006064605f87610b6e91906122ca565b610b789190612353565b9050610b9a736b175474e89094c44da98b954eedeac495271d0f3330896111f0565b610bd9736b175474e89094c44da98b954eedeac495271d0f7f000000000000000000000000000000000000000000000000000000000000000088611348565b6000604051806101000160405280736b175474e89094c44da98b954eedeac495271d0f73ffffffffffffffffffffffffffffffffffffffff1681526020018773ffffffffffffffffffffffffffffffffffffffff1681526020018662ffffff1681526020013073ffffffffffffffffffffffffffffffffffffffff168152602001428152602001838152602001858152602001600073ffffffffffffffffffffffffffffffffffffffff1681525090507f000000000000000000000000000000000000000000000000000000000000000073ffffffffffffffffffffffffffffffffffffffff1663414bf389826040518263ffffffff1660e01b8152600401610ce29190612462565b6020604051808303816000875af1158015610d01573d6000803e3d6000fd5b505050506040513d601f19601f82011682018060405250810190610d25919061247e565b92506000610bb89050610d3c33888389888a61149d565b5080600760003373ffffffffffffffffffffffffffffffffffffffff1673ffffffffffffffffffffffffffffffffffffffff1681526020019081526020016000206000600560003373ffffffffffffffffffffffffffffffffffffffff1673ffffffffffffffffffffffffffffffffffffffff168152602001908152602001600020548152602001908152602001600020819055506001600860003373ffffffffffffffffffffffffffffffffffffffff1673ffffffffffffffffffffffffffffffffffffffff1681526020019081526020016000206000600560003373ffffffffffffffffffffffffffffffffffffffff1673ffffffffffffffffffffffffffffffffffffffff16815260200190815260200160002054815260200190815260200160002060006101000a81548160ff021916908315150217905550505050949350505050565b600063bc197c8160e01b905095945050505050565b7f000000000000000000000000000000000000000000000000000000000000000081565b600360003373ffffffffffffffffffffffffffffffffffffffff1673ffffffffffffffffffffffffffffffffffffffff16815260200190815260200160002054821115610f3f576040517f08c379a0000000000000000000000000000000000000000000000000000000008152600401610f369061251d565b60405180910390fd5b60001515600860003373ffffffffffffffffffffffffffffffffffffffff1673ffffffffffffffffffffffffffffffffffffffff168152602001908152602001600020600083815260200190815260200160002060009054906101000a900460ff16151514610fe3576040517f08c379a0000000000000000000000000000000000000000000000000000000008152600401610fda906125d5565b60405180910390fd5b81600360003373ffffffffffffffffffffffffffffffffffffffff1673ffffffffffffffffffffffffffffffffffffffff1681526020019081526020016000206000828254611032919061222a565b925050819055506000600360003373ffffffffffffffffffffffffffffffffffffffff1673ffffffffffffffffffffffffffffffffffffffff1681526020019081526020016000205414156110da576000600660003373ffffffffffffffffffffffffffffffffffffffff1673ffffffffffffffffffffffffffffffffffffffff16815260200190815260200160002060006101000a81548160ff0219169083151502179055505b736b175474e89094c44da98b954eedeac495271d0f73ffffffffffffffffffffffffffffffffffffffff1663a9059cbb33846040518363ffffffff1660e01b81526004016111299291906125f5565b6020604051808303816000875af1158015611148573d6000803e3d6000fd5b505050506040513d601f19601f8201168201806040525081019061116c91906120cb565b505050565b600063f23a6e6160e01b905095945050505050565b60007f01ffc9a7000000000000000000000000000000000000000000000000000000007bffffffffffffffffffffffffffffffffffffffffffffffffffffffff1916827bffffffffffffffffffffffffffffffffffffffffffffffffffffffff1916149050919050565b6000808573ffffffffffffffffffffffffffffffffffffffff166323b872dd60e01b86868660405160240161122793929190612068565b604051602081830303815290604052907bffffffffffffffffffffffffffffffffffffffffffffffffffffffff19166020820180517bffffffffffffffffffffffffffffffffffffffffffffffffffffffff83818316178352505050506040516112919190612698565b6000604051808303816000865af19150503d80600081146112ce576040519150601f19603f3d011682016040523d82523d6000602084013e6112d3565b606091505b509150915081801561130157506000815114806113005750808060200190518101906112ff91906120cb565b5b5b611340576040517f08c379a0000000000000000000000000000000000000000000000000000000008152600401611337906126fb565b60405180910390fd5b505050505050565b6000808473ffffffffffffffffffffffffffffffffffffffff1663095ea7b360e01b858560405160240161137d9291906125f5565b604051602081830303815290604052907bffffffffffffffffffffffffffffffffffffffffffffffffffffffff19166020820180517bffffffffffffffffffffffffffffffffffffffffffffffffffffffff83818316178352505050506040516113e79190612698565b6000604051808303816000865af19150503d8060008114611424576040519150601f19603f3d011682016040523d82523d6000602084013e611429565b606091505b5091509150818015611457575060008151148061145657508080602001905181019061145591906120cb565b5b5b611496576040517f08c379a000000000000000000000000000000000000000000000000000000000815260040161148d90612767565b60405180910390fd5b5050505050565b60006114ca867f000000000000000000000000000000000000000000000000000000000000000085611348565b60006040518061010001604052808873ffffffffffffffffffffffffffffffffffffffff168152602001736b175474e89094c44da98b954eedeac495271d0f73ffffffffffffffffffffffffffffffffffffffff1681526020018662ffffff1681526020013073ffffffffffffffffffffffffffffffffffffffff168152602001428152602001858152602001848152602001600073ffffffffffffffffffffffffffffffffffffffff1681525090507f000000000000000000000000000000000000000000000000000000000000000073ffffffffffffffffffffffffffffffffffffffff1663414bf389826040518263ffffffff1660e01b81526004016115d39190612462565b6020604051808303816000875af11580156115f2573d6000803e3d6000fd5b505050506040513d601f19601f82011682018060405250810190611616919061247e565b915081600460003373ffffffffffffffffffffffffffffffffffffffff1673ffffffffffffffffffffffffffffffffffffffff1681526020019081526020016000206000600560003373ffffffffffffffffffffffffffffffffffffffff1673ffffffffffffffffffffffffffffffffffffffff16815260200190815260200160002054815260200190815260200160002081905550600a60009054906101000a900473ffffffffffffffffffffffffffffffffffffffff1673ffffffffffffffffffffffffffffffffffffffff1663c25df92d8930878b8b6040518663ffffffff1660e01b815260040161170f959493929190612787565b600060405180830381600087803b15801561172957600080fd5b505af115801561173d573d6000803e3d6000fd5b50505050509695505050505050565b6000604051905090565b600080fd5b600080fd5b60007fffffffff0000000000000000000000000000000000000000000000000000000082169050919050565b61179581611760565b81146117a057600080fd5b50565b6000813590506117b28161178c565b92915050565b6000602082840312156117ce576117cd611756565b5b60006117dc848285016117a3565b91505092915050565b60008115159050919050565b6117fa816117e5565b82525050565b600060208201905061181560008301846117f1565b92915050565b600073ffffffffffffffffffffffffffffffffffffffff82169050919050565b60006118468261181b565b9050919050565b6118568161183b565b811461186157600080fd5b50565b6000813590506118738161184d565b92915050565b6000819050919050565b61188c81611879565b811461189757600080fd5b50565b6000813590506118a981611883565b92915050565b600080604083850312156118c6576118c5611756565b5b60006118d485828601611864565b92505060206118e58582860161189a565b9150509250929050565b6118f881611879565b82525050565b600060208201905061191360008301846118ef565b92915050565b60006020828403121561192f5761192e611756565b5b600061193d8482850161189a565b91505092915050565b61194f8161183b565b82525050565b600060208201905061196a6000830184611946565b92915050565b6000806040838503121561198757611986611756565b5b60006119958582860161189a565b92505060206119a685828601611864565b9150509250929050565b6000806000606084860312156119c9576119c8611756565b5b60006119d786828701611864565b93505060206119e88682870161189a565b92505060406119f98682870161189a565b9150509250925092565b600060208284031215611a1957611a18611756565b5b6000611a2784828501611864565b91505092915050565b6000819050919050565b6000611a55611a50611a4b8461181b565b611a30565b61181b565b9050919050565b6000611a6782611a3a565b9050919050565b6000611a7982611a5c565b9050919050565b611a8981611a6e565b82525050565b6000602082019050611aa46000830184611a80565b92915050565b600062ffffff82169050919050565b611ac281611aaa565b8114611acd57600080fd5b50565b600081359050611adf81611ab9565b92915050565b60008060008060808587031215611aff57611afe611756565b5b6000611b0d8782880161189a565b9450506020611b1e87828801611864565b9350506040611b2f87828801611ad0565b9250506060611b408782880161189a565b91505092959194509250565b600080fd5b6000601f19601f8301169050919050565b7f4e487b7100000000000000000000000000000000000000000000000000000000600052604160045260246000fd5b611b9a82611b51565b810181811067ffffffffffffffff82111715611bb957611bb8611b62565b5b80604052505050565b6000611bcc61174c565b9050611bd88282611b91565b919050565b600067ffffffffffffffff821115611bf857611bf7611b62565b5b602082029050602081019050919050565b600080fd5b6000611c21611c1c84611bdd565b611bc2565b90508083825260208201905060208402830185811115611c4457611c43611c09565b5b835b81811015611c6d5780611c59888261189a565b845260208401935050602081019050611c46565b5050509392505050565b600082601f830112611c8c57611c8b611b4c565b5b8135611c9c848260208601611c0e565b91505092915050565b600080fd5b600067ffffffffffffffff821115611cc557611cc4611b62565b5b611cce82611b51565b9050602081019050919050565b82818337600083830152505050565b6000611cfd611cf884611caa565b611bc2565b905082815260208101848484011115611d1957611d18611ca5565b5b611d24848285611cdb565b509392505050565b600082601f830112611d4157611d40611b4c565b5b8135611d51848260208601611cea565b91505092915050565b600080600080600060a08688031215611d7657611d75611756565b5b6000611d8488828901611864565b9550506020611d9588828901611864565b945050604086013567ffffffffffffffff811115611db657611db561175b565b5b611dc288828901611c77565b935050606086013567ffffffffffffffff811115611de357611de261175b565b5b611def88828901611c77565b925050608086013567ffffffffffffffff811115611e1057611e0f61175b565b5b611e1c88828901611d2c565b9150509295509295909350565b611e3281611760565b82525050565b6000602082019050611e4d6000830184611e29565b92915050565b6000611e5e82611a5c565b9050919050565b611e6e81611e53565b82525050565b6000602082019050611e896000830184611e65565b92915050565b60008060408385031215611ea657611ea5611756565b5b6000611eb48582860161189a565b9250506020611ec58582860161189a565b9150509250929050565b600080600080600060a08688031215611eeb57611eea611756565b5b6000611ef988828901611864565b9550506020611f0a88828901611864565b9450506040611f1b8882890161189a565b9350506060611f2c8882890161189a565b925050608086013567ffffffffffffffff811115611f4d57611f4c61175b565b5b611f5988828901611d2c565b9150509295509295909350565b600082825260208201905092915050565b7f5354414e4441524420504f4f4c3a204e6f742044414900000000000000000000600082015250565b6000611fad601683611f66565b9150611fb882611f77565b602082019050919050565b60006020820190508181036000830152611fdc81611fa0565b9050919050565b7f4e487b7100000000000000000000000000000000000000000000000000000000600052601160045260246000fd5b600061201d82611879565b915061202883611879565b9250827fffffffffffffffffffffffffffffffffffffffffffffffffffffffffffffffff0382111561205d5761205c611fe3565b5b828201905092915050565b600060608201905061207d6000830186611946565b61208a6020830185611946565b61209760408301846118ef565b949350505050565b6120a8816117e5565b81146120b357600080fd5b50565b6000815190506120c58161209f565b92915050565b6000602082840312156120e1576120e0611756565b5b60006120ef848285016120b6565b91505092915050565b7f434c4f53453a204e6f7420796f757220706f736974696f6e0000000000000000600082015250565b600061212e601883611f66565b9150612139826120f8565b602082019050919050565b6000602082019050818103600083015261215d81612121565b9050919050565b61216d81611879565b82525050565b60006040820190506121886000830185612164565b6121956020830184612164565b9392505050565b6000815190506121ab81611883565b92915050565b600060ff82169050919050565b6121c7816121b1565b81146121d257600080fd5b50565b6000815190506121e4816121be565b92915050565b6000806040838503121561220157612200611756565b5b600061220f8582860161219c565b9250506020612220858286016121d5565b9150509250929050565b600061223582611879565b915061224083611879565b92508282101561225357612252611fe3565b5b828203905092915050565b7f535741503a206e6f7420656e6f75676820636f6c6c61746572616c0000000000600082015250565b6000612294601b83611f66565b915061229f8261225e565b602082019050919050565b600060208201905081810360008301526122c381612287565b9050919050565b60006122d582611879565b91506122e083611879565b9250817fffffffffffffffffffffffffffffffffffffffffffffffffffffffffffffffff048311821515161561231957612318611fe3565b5b828202905092915050565b7f4e487b7100000000000000000000000000000000000000000000000000000000600052601260045260246000fd5b600061235e82611879565b915061236983611879565b92508261237957612378612324565b5b828204905092915050565b61238d8161183b565b82525050565b61239c81611aaa565b82525050565b6123ab81611879565b82525050565b6123ba8161181b565b82525050565b610100820160008201516123d76000850182612384565b5060208201516123ea6020850182612384565b5060408201516123fd6040850182612393565b5060608201516124106060850182612384565b50608082015161242360808501826123a2565b5060a082015161243660a08501826123a2565b5060c082015161244960c08501826123a2565b5060e082015161245c60e08501826123b1565b50505050565b60006101008201905061247860008301846123c0565b92915050565b60006020828403121561249457612493611756565b5b60006124a28482850161219c565b91505092915050565b7f434f4c4c41544552414c3a20747279696e6720746f207769746864726177206d60008201527f6f726520636f6c6c61746572616c207468616e206465706f7369746564000000602082015250565b6000612507603d83611f66565b9150612512826124ab565b604082019050919050565b60006020820190508181036000830152612536816124fa565b9050919050565b7f434f4c4c41544552414c3a20636c6f736520796f75722063757272656e74207060008201527f6f736974696f6e206265666f726520747279696e6720746f207769746864726160208201527f7700000000000000000000000000000000000000000000000000000000000000604082015250565b60006125bf604183611f66565b91506125ca8261253d565b606082019050919050565b600060208201905081810360008301526125ee816125b2565b9050919050565b600060408201905061260a6000830185611946565b61261760208301846118ef565b9392505050565b600081519050919050565b600081905092915050565b60005b83811015612652578082015181840152602081019050612637565b83811115612661576000848401525b50505050565b60006126728261261e565b61267c8185612629565b935061268c818560208601612634565b80840191505092915050565b60006126a48284612667565b915081905092915050565b7f5354460000000000000000000000000000000000000000000000000000000000600082015250565b60006126e5600383611f66565b91506126f0826126af565b602082019050919050565b60006020820190508181036000830152612714816126d8565b9050919050565b7f5341000000000000000000000000000000000000000000000000000000000000600082015250565b6000612751600283611f66565b915061275c8261271b565b602082019050919050565b6000602082019050818103600083015261278081612744565b9050919050565b600060a08201905061279c6000830188611946565b6127a96020830187611946565b6127b660408301866118ef565b6127c36060830185611946565b6127d060808301846118ef565b969550505050505056fea26469706673582212202053d5ecffb89925d9b83dd1f80aed6392474337777e9a55902069563ea5e61b64736f6c634300080a0033",
  "immutableReferences": {
    "2118": [
      {
        "length": 32,
        "start": 2996
      },
      {
        "length": 32,
        "start": 3211
      },
      {
        "length": 32,
        "start": 3739
      },
      {
        "length": 32,
        "start": 5285
      },
      {
        "length": 32,
        "start": 5500
      }
    ]
  },
  "source": "// SPDX-License-Identifier: MIT\npragma solidity ^0.8.0; //solhint-disable compiler-fixed\npragma abicoder v2;\n\n\nimport \"@openzeppelin/contracts/token/ERC1155/IERC1155.sol\";\nimport \"@openzeppelin/contracts/token/ERC1155/utils/ERC1155Holder.sol\";\nimport \"@uniswap/v3-periphery/contracts/interfaces/ISwapRouter.sol\";\nimport \"@uniswap/v3-periphery/contracts/libraries/TransferHelper.sol\";\nimport \"@openzeppelin/contracts/token/ERC20/IERC20.sol\";\nimport \"./BeraWrapper.sol\";\nimport \"./ancillary/PnLCalculator.sol\";\n\n\ncontract BeraPoolStandardRisk is ERC1155Holder {\n\n    address public owner;\n\n    uint public testNumber;\n    uint public testPNL;\n\n    mapping(address => uint) public userDepositBalance;\n    mapping(address => mapping(uint => uint)) public userShortBalance;\n    mapping(address => uint) internal userShortID;\n    mapping(address => bool) internal hasCollateral;\n    //nested mapping so multiple positions can be opened by the same user\n    mapping(address => mapping(uint => uint)) public entryPrices;\n    //stores which position is in a short for withdraw purposes later\n    mapping(address => mapping(uint => bool)) internal inShort; //stores whether user is currently in a position\n    address[] public standardPoolList;\n\n    address private constant DAI_ADDRESS = 0x6B175474E89094C44Da98b954EedeAC495271d0F;\n\n    ISwapRouter public immutable swapRouter;\n    BeraWrapper public beraWrapper;\n\n    constructor(ISwapRouter _swapRouter,\n        BeraWrapper _beraWrapper) { //solhint-disable func-visibility\n        owner = msg.sender;\n        swapRouter = _swapRouter;\n        beraWrapper = _beraWrapper;\n    }\n\n    function depositCollateral(uint amount, address collateral) external {\n        require(IERC20(collateral) == IERC20(DAI_ADDRESS), \"STANDARD POOL: Not DAI\");\n\n        //we use the hasCollateral mapping to avoid having to loop through the array when removing\n        //the user from the users who receive the distribution of funds for yield\n        if (userDepositBalance[msg.sender] > 0) {\n            standardPoolList.push(msg.sender);\n            hasCollateral[msg.sender] = true;\n        }\n\n        //used for withdrawl later\n        userDepositBalance[msg.sender] += amount;\n\n        //transfer to seperate pools based on user defined risk\n        //high risk pool will keep 5% of the native token to try and maximize returns\n        IERC20(collateral).transferFrom(msg.sender, address(this), amount);\n    }\n\n    function withdrawFromPool(uint amount, uint _userShortID) external {\n        require(amount <= userDepositBalance[msg.sender],\n            \"COLLATERAL: trying to withdraw more collateral than deposited\");\n\n        //checking if the funds locked in the position have been released before allowing them to be withdrawn\n        require(inShort[msg.sender][_userShortID] == false,\n            \"COLLATERAL: close your current position before trying to withdraw\");\n\n        //reset balance of user on withdraw\n        userDepositBalance[msg.sender] -= amount;\n\n        if (userDepositBalance[msg.sender] == 0) {\n            hasCollateral[msg.sender] = false;\n        }\n\n        IERC20(DAI_ADDRESS).transfer(msg.sender, amount);\n    }\n\n    // deposit collateral into user account before being allowed to short\n    function swapAndShortStandard(\n            uint amount,\n            address tokenToShort,\n            uint24 poolFee, //needed for uniswap pool\n            uint amountOutMin)\n            external returns(uint amountOut) { //solhint-disable function-max-lines\n                require(amount <= userDepositBalance[msg.sender], \"SWAP: not enough collateral\");\n\n                //TODO\n                //update userDepositBalance -= amount;\n\n                //by default uints are initialized at 0 so this should work???\n                userShortID[msg.sender] += 1;\n\n                //keeping 5% of dai in contract to be distributed to liq providers on loss of pool\n                uint amountToSend = amount * 95 / 100;\n\n                TransferHelper.safeTransferFrom(DAI_ADDRESS, msg.sender, address(this), amount);\n                TransferHelper.safeApprove(DAI_ADDRESS, address(swapRouter), amount);\n\n                ISwapRouter.ExactInputSingleParams memory params =\n                ISwapRouter.ExactInputSingleParams({\n                    tokenIn: DAI_ADDRESS,\n                    tokenOut: tokenToShort,\n                    fee: poolFee,\n                    recipient: address(this),\n                    deadline: block.timestamp, //solhint-disable not-rely-on-time\n                    amountIn: amountToSend,\n                    amountOutMinimum: amountOutMin,\n                    sqrtPriceLimitX96: 0\n                });\n\n                //execute the frist swap\n                amountOut = swapRouter.exactInputSingle(params);\n\n                //Call twapPriceOracle here or find a better way to capture price\n                //TODO: Price wrapping\n                //TEST ONLY\n                uint priceAtWrap = 3000;\n\n                //execute the second swap and transfer funds to pool for holding\n                _shortForUser(\n                    msg.sender,\n                    tokenToShort,\n                    priceAtWrap,\n                    poolFee,\n                    amountOut,\n                    amountOutMin\n                );\n\n                //update entry price mapping\n                //this refers to the entry price of msg.sender for the current shortID of msg.sender\n                //nested mappings look cringe but are efficient\n                entryPrices[msg.sender][userShortID[msg.sender]] = priceAtWrap;\n\n                //update userPositionNumber current short status\n                inShort[msg.sender][userShortID[msg.sender]] = true;\n            }\n\n    //TODO\n    //contract already has the DAI needed to close the trade, can just check the price and\n    //calculate the difference between the opening and closing prices, no need for expensive swaps\n    //in the standardPool contract anyways\n    function closeShortStandardPool(\n        address user,\n        uint _userShortID,\n        uint priceAtClose)\n        external {\n            require(user == msg.sender, \"CLOSE: Not your position\");\n\n            //TODO\n            //require priceAtClose == twapPriceOracle();\n\n            //calculate position balance using entryPrices vs current price\n            //returnValue of 0 indicates a winning trade, while 1 indicates a loss\n            (uint amountPNL, uint returnValue) =\n            PnLCalculator.calculatePNL(entryPrices[msg.sender][_userShortID], priceAtClose);\n\n            // //check if user has enough collateral and does not carry a negative balance\n            // if (amountToSend <= userDepositBalance[msg.sender] && returnValue == 1) {\n            //     //TODO\n            //     //liquidateUser();\n            //     //include distribution of funds\n            // }\n\n            //if user has made money, we update their balance directly\n            if (returnValue == 0) {\n                userDepositBalance[msg.sender] += amountPNL;\n            } else if (returnValue == 1) {\n                //distribute user loss amongst pool if losing short\n                userDepositBalance[msg.sender] -= amountPNL;\n                //distributeProfits(amountPNL);\n            }\n\n            //update current userPositionNumber to free withdraws\n            inShort[msg.sender][_userShortID] = false;\n\n        }\n\n    function _shortForUser(\n        address user,\n        address tokenToShort,\n        uint priceAtWrap,\n        uint24 poolFee,\n        uint amount,\n        uint amountOutMin) internal returns(uint amountOut) {\n        //funds are currently in the contract, so no need to swap back and forth anymore\n        //should just be able to call the second swap\n\n        TransferHelper.safeApprove(tokenToShort, address(swapRouter), amount);\n\n        //now that this contract has the desired token to short, we sell @ market back for DAI\n        ISwapRouter.ExactInputSingleParams memory tokenParams =\n        ISwapRouter.ExactInputSingleParams({\n            tokenIn: tokenToShort,\n            tokenOut: DAI_ADDRESS,\n            fee: poolFee,\n            recipient: address(this), //the pool contract will store both DAI from deposits and tokenOut\n            deadline: block.timestamp, //solhint-disable not-rely-on-time\n            amountIn: amount,\n            amountOutMinimum: amountOutMin,\n            sqrtPriceLimitX96: 0\n        });\n\n        // execute the short, amountOut is wETH in this test case\n        amountOut = swapRouter.exactInputSingle(tokenParams);\n\n        //update user balance of the user current positionID\n        userShortBalance[msg.sender][userShortID[msg.sender]] = amountOut;\n\n        //wrap position in ERC1155\n        //use amountToShort to reference position size being wrapped\n        beraWrapper.wrapPosition(user, address(this), amount, tokenToShort, priceAtWrap);\n    }\n\n    function distributeProfits(uint amountToDistribute) internal {\n        uint properDecimalsX18 = amountToDistribute * 1e18;\n        for (uint i = 0; i < standardPoolList.length; i++) {\n            //get each user's percentage of the pool they own\n            //dai related to current positions are not counted*******\n            uint userPercent =\n                (userDepositBalance[standardPoolList[i]] / IERC20(DAI_ADDRESS).balanceOf(address(this))) * 1e18;\n            uint percentToSendToUsers = userPercent * properDecimalsX18;\n            //update each users deposit balance to increase the amount they can withdraw\n            //(rather than sending funds directly which would be quite expensive)\n            //balances are stored\n            userDepositBalance[standardPoolList[i]] += percentToSendToUsers;\n        }\n    }\n\n    receive() external payable { //solhint-disable state-visibility\n\n}\n\n    fallback() external payable { //solhint-disable\n\n}\n\n}\n\n\n//needs:\n//\n//total borrowed from pool/ token0\n//total supplied to pool as collateral/ token1(USDC)\n//total available to borrow for shorting\n//how much it will cost to borrow/ how much to be paid to supplier\n//when does the borrower threaten to be liquited?\n    //(when losses are equal to 90% of supplied collateral)\n    //thus, we need a way to measure the current borrowers PnL or loan health (maybe look at AAVE or COMP)\n//need interface when done with all functions\n\n//ON HOLD\n",
  "sourcePath": "/home/kevin/Code/solidity_projects/beraMarket/contracts/BeraPoolStandardRisk.sol",
  "compiler": {
    "name": "solc",
    "version": "0.8.10+commit.fc410830.Emscripten.clang"
  },
  "schemaVersion": "3.4.3",
  "updatedAt": "2021-12-08T20:45:52.140Z",
  "networkType": "ethereum",
  "devdoc": {
    "kind": "dev",
    "methods": {
      "supportsInterface(bytes4)": {
        "details": "See {IERC165-supportsInterface}."
      }
    },
    "version": 1
  },
  "userdoc": {
    "kind": "user",
    "methods": {},
    "version": 1
  }
}