{
  "contractName": "BeraPoolStandardRisk",
  "abi": [
    {
      "inputs": [
        {
          "internalType": "contract ISwapRouter",
          "name": "_swapRouter",
          "type": "address"
        },
        {
          "internalType": "contract BeraWrapper",
          "name": "_beraWrapper",
          "type": "address"
        }
      ],
      "stateMutability": "nonpayable",
      "type": "constructor"
    },
    {
      "inputs": [],
      "name": "beraWrapper",
      "outputs": [
        {
          "internalType": "contract BeraWrapper",
          "name": "",
          "type": "address"
        }
      ],
      "stateMutability": "view",
      "type": "function",
      "constant": true
    },
    {
      "inputs": [
        {
          "internalType": "address",
          "name": "",
          "type": "address"
        },
        {
          "internalType": "address",
          "name": "",
          "type": "address"
        },
        {
          "internalType": "uint256[]",
          "name": "",
          "type": "uint256[]"
        },
        {
          "internalType": "uint256[]",
          "name": "",
          "type": "uint256[]"
        },
        {
          "internalType": "bytes",
          "name": "",
          "type": "bytes"
        }
      ],
      "name": "onERC1155BatchReceived",
      "outputs": [
        {
          "internalType": "bytes4",
          "name": "",
          "type": "bytes4"
        }
      ],
      "stateMutability": "nonpayable",
      "type": "function"
    },
    {
      "inputs": [
        {
          "internalType": "address",
          "name": "",
          "type": "address"
        },
        {
          "internalType": "address",
          "name": "",
          "type": "address"
        },
        {
          "internalType": "uint256",
          "name": "",
          "type": "uint256"
        },
        {
          "internalType": "uint256",
          "name": "",
          "type": "uint256"
        },
        {
          "internalType": "bytes",
          "name": "",
          "type": "bytes"
        }
      ],
      "name": "onERC1155Received",
      "outputs": [
        {
          "internalType": "bytes4",
          "name": "",
          "type": "bytes4"
        }
      ],
      "stateMutability": "nonpayable",
      "type": "function"
    },
    {
      "inputs": [],
      "name": "owner",
      "outputs": [
        {
          "internalType": "address",
          "name": "",
          "type": "address"
        }
      ],
      "stateMutability": "view",
      "type": "function",
      "constant": true
    },
    {
      "inputs": [
        {
          "internalType": "bytes4",
          "name": "interfaceId",
          "type": "bytes4"
        }
      ],
      "name": "supportsInterface",
      "outputs": [
        {
          "internalType": "bool",
          "name": "",
          "type": "bool"
        }
      ],
      "stateMutability": "view",
      "type": "function",
      "constant": true
    },
    {
      "inputs": [],
      "name": "swapRouter",
      "outputs": [
        {
          "internalType": "contract ISwapRouter",
          "name": "",
          "type": "address"
        }
      ],
      "stateMutability": "view",
      "type": "function",
      "constant": true
    },
    {
      "inputs": [
        {
          "internalType": "address",
          "name": "",
          "type": "address"
        }
      ],
      "name": "userRemainingBalance",
      "outputs": [
        {
          "internalType": "uint256",
          "name": "",
          "type": "uint256"
        }
      ],
      "stateMutability": "view",
      "type": "function",
      "constant": true
    },
    {
      "inputs": [
        {
          "internalType": "address",
          "name": "",
          "type": "address"
        }
      ],
      "name": "userShortBalance",
      "outputs": [
        {
          "internalType": "uint256",
          "name": "",
          "type": "uint256"
        }
      ],
      "stateMutability": "view",
      "type": "function",
      "constant": true
    },
    {
      "inputs": [
        {
          "internalType": "address",
          "name": "user",
          "type": "address"
        },
        {
          "internalType": "address",
          "name": "tokenToShort",
          "type": "address"
        },
        {
          "internalType": "uint256",
          "name": "priceAtWrap",
          "type": "uint256"
        },
        {
          "internalType": "uint24",
          "name": "poolFee",
          "type": "uint24"
        },
        {
          "internalType": "uint256",
          "name": "amount",
          "type": "uint256"
        },
        {
          "internalType": "uint256",
          "name": "amountOutMin",
          "type": "uint256"
        }
      ],
      "name": "shortForUser",
      "outputs": [
        {
          "internalType": "uint256",
          "name": "amountOut",
          "type": "uint256"
        }
      ],
      "stateMutability": "nonpayable",
      "type": "function"
    },
    {
      "inputs": [
        {
          "internalType": "address",
          "name": "user",
          "type": "address"
        },
        {
          "internalType": "address",
          "name": "tokenToClose",
          "type": "address"
        },
        {
          "internalType": "uint256",
          "name": "amount",
          "type": "uint256"
        },
        {
          "internalType": "uint256",
          "name": "priceAtClose",
          "type": "uint256"
        },
        {
          "internalType": "uint24",
          "name": "poolFee",
          "type": "uint24"
        },
        {
          "internalType": "uint256",
          "name": "amountOutMin",
          "type": "uint256"
        }
      ],
      "name": "closeShortForUser",
      "outputs": [
        {
          "internalType": "uint256",
          "name": "amountOut",
          "type": "uint256"
        }
      ],
      "stateMutability": "nonpayable",
      "type": "function"
    },
    {
      "inputs": [
        {
          "internalType": "address",
          "name": "user",
          "type": "address"
        },
        {
          "internalType": "uint256",
          "name": "amount",
          "type": "uint256"
        }
      ],
      "name": "withdrawFromPool",
      "outputs": [],
      "stateMutability": "nonpayable",
      "type": "function"
    }
  ],
  "bytecode": "0x60a06040523480156200001157600080fd5b5060405162001aec38038062001aec8339818101604052810190620000379190620001b7565b336000806101000a81548173ffffffffffffffffffffffffffffffffffffffff021916908373ffffffffffffffffffffffffffffffffffffffff1602179055508173ffffffffffffffffffffffffffffffffffffffff1660808173ffffffffffffffffffffffffffffffffffffffff168152505080600360006101000a81548173ffffffffffffffffffffffffffffffffffffffff021916908373ffffffffffffffffffffffffffffffffffffffff1602179055505050620001fe565b600080fd5b600073ffffffffffffffffffffffffffffffffffffffff82169050919050565b60006200012682620000f9565b9050919050565b60006200013a8262000119565b9050919050565b6200014c816200012d565b81146200015857600080fd5b50565b6000815190506200016c8162000141565b92915050565b60006200017f8262000119565b9050919050565b620001918162000172565b81146200019d57600080fd5b50565b600081519050620001b18162000186565b92915050565b60008060408385031215620001d157620001d0620000f4565b5b6000620001e1858286016200015b565b9250506020620001f485828601620001a0565b9150509250929050565b6080516118b6620002366000396000818161031a0152818161041e015281816106dc0152818161071201526107e901526118b66000f3fe608060405234801561001057600080fd5b50600436106100a95760003560e01c8063bc197c8111610071578063bc197c811461017a578063c1bf9e58146101aa578063c31c9c07146101c6578063db8a027d146101e4578063e23c957914610214578063f23a6e6114610244576100a9565b806301ffc9a7146100ae57806321c905ee146100de5780634c9925061461010e5780638da5cb5b1461013e578063a29aa1141461015c575b600080fd5b6100c860048036038101906100c39190610c40565b610274565b6040516100d59190610c88565b60405180910390f35b6100f860048036038101906100f39190610d01565b6102ee565b6040516101059190610d47565b60405180910390f35b61012860048036038101906101239190610dc9565b610306565b6040516101359190610d47565b60405180910390f35b6101466105e4565b6040516101539190610e65565b60405180910390f35b610164610608565b6040516101719190610edf565b60405180910390f35b610194600480360381019061018f9190611108565b61062e565b6040516101a191906111e6565b60405180910390f35b6101c460048036038101906101bf9190611201565b610643565b005b6101ce6106da565b6040516101db9190611262565b60405180910390f35b6101fe60048036038101906101f9919061127d565b6106fe565b60405161020b9190610d47565b60405180910390f35b61022e60048036038101906102299190610d01565b610890565b60405161023b9190610d47565b60405180910390f35b61025e6004803603810190610259919061130a565b6108a8565b60405161026b91906111e6565b60405180910390f35b60007f4e2312e0000000000000000000000000000000000000000000000000000000007bffffffffffffffffffffffffffffffffffffffffffffffffffffffff1916827bffffffffffffffffffffffffffffffffffffffffffffffffffffffff191614806102e757506102e6826108bd565b5b9050919050565b60026020528060005260406000206000915090505481565b600061031486883086610927565b61033f867f000000000000000000000000000000000000000000000000000000000000000085610a7f565b60006064605f8561035091906113d0565b61035a9190611459565b90506000818561036a919061148a565b905060006040518061010001604052808a73ffffffffffffffffffffffffffffffffffffffff168152602001736b175474e89094c44da98b954eedeac495271d0f73ffffffffffffffffffffffffffffffffffffffff1681526020018862ffffff1681526020013073ffffffffffffffffffffffffffffffffffffffff168152602001428152602001848152602001868152602001600073ffffffffffffffffffffffffffffffffffffffff1681525090507f000000000000000000000000000000000000000000000000000000000000000073ffffffffffffffffffffffffffffffffffffffff1663414bf389826040518263ffffffff1660e01b8152600401610475919061159c565b6020604051808303816000875af1158015610494573d6000803e3d6000fd5b505050506040513d601f19601f820116820180604052508101906104b891906115cd565b935083600160003373ffffffffffffffffffffffffffffffffffffffff1673ffffffffffffffffffffffffffffffffffffffff1681526020019081526020016000208190555081600260003373ffffffffffffffffffffffffffffffffffffffff1673ffffffffffffffffffffffffffffffffffffffff16815260200190815260200160002081905550600360009054906101000a900473ffffffffffffffffffffffffffffffffffffffff1673ffffffffffffffffffffffffffffffffffffffff1663c25df92d8b30868d8d6040518663ffffffff1660e01b81526004016105a59594939291906115fa565b600060405180830381600087803b1580156105bf57600080fd5b505af11580156105d3573d6000803e3d6000fd5b505050505050509695505050505050565b60008054906101000a900473ffffffffffffffffffffffffffffffffffffffff1681565b600360009054906101000a900473ffffffffffffffffffffffffffffffffffffffff1681565b600063bc197c8160e01b905095945050505050565b736b175474e89094c44da98b954eedeac495271d0f73ffffffffffffffffffffffffffffffffffffffff1663a9059cbb83836040518363ffffffff1660e01b815260040161069292919061164d565b6020604051808303816000875af11580156106b1573d6000803e3d6000fd5b505050506040513d601f19601f820116820180604052508101906106d591906116a2565b505050565b7f000000000000000000000000000000000000000000000000000000000000000081565b600061070c86883088610927565b610737867f000000000000000000000000000000000000000000000000000000000000000087610a7f565b60006040518061010001604052808873ffffffffffffffffffffffffffffffffffffffff168152602001736b175474e89094c44da98b954eedeac495271d0f73ffffffffffffffffffffffffffffffffffffffff1681526020018562ffffff1681526020013373ffffffffffffffffffffffffffffffffffffffff168152602001428152602001878152602001848152602001600073ffffffffffffffffffffffffffffffffffffffff1681525090507f000000000000000000000000000000000000000000000000000000000000000073ffffffffffffffffffffffffffffffffffffffff1663414bf389826040518263ffffffff1660e01b8152600401610840919061159c565b6020604051808303816000875af115801561085f573d6000803e3d6000fd5b505050506040513d601f19601f8201168201806040525081019061088391906115cd565b9150509695505050505050565b60016020528060005260406000206000915090505481565b600063f23a6e6160e01b905095945050505050565b60007f01ffc9a7000000000000000000000000000000000000000000000000000000007bffffffffffffffffffffffffffffffffffffffffffffffffffffffff1916827bffffffffffffffffffffffffffffffffffffffffffffffffffffffff1916149050919050565b6000808573ffffffffffffffffffffffffffffffffffffffff166323b872dd60e01b86868660405160240161095e939291906116cf565b604051602081830303815290604052907bffffffffffffffffffffffffffffffffffffffffffffffffffffffff19166020820180517bffffffffffffffffffffffffffffffffffffffffffffffffffffffff83818316178352505050506040516109c89190611780565b6000604051808303816000865af19150503d8060008114610a05576040519150601f19603f3d011682016040523d82523d6000602084013e610a0a565b606091505b5091509150818015610a385750600081511480610a37575080806020019051810190610a3691906116a2565b5b5b610a77576040517f08c379a0000000000000000000000000000000000000000000000000000000008152600401610a6e906117f4565b60405180910390fd5b505050505050565b6000808473ffffffffffffffffffffffffffffffffffffffff1663095ea7b360e01b8585604051602401610ab492919061164d565b604051602081830303815290604052907bffffffffffffffffffffffffffffffffffffffffffffffffffffffff19166020820180517bffffffffffffffffffffffffffffffffffffffffffffffffffffffff8381831617835250505050604051610b1e9190611780565b6000604051808303816000865af19150503d8060008114610b5b576040519150601f19603f3d011682016040523d82523d6000602084013e610b60565b606091505b5091509150818015610b8e5750600081511480610b8d575080806020019051810190610b8c91906116a2565b5b5b610bcd576040517f08c379a0000000000000000000000000000000000000000000000000000000008152600401610bc490611860565b60405180910390fd5b5050505050565b6000604051905090565b600080fd5b600080fd5b60007fffffffff0000000000000000000000000000000000000000000000000000000082169050919050565b610c1d81610be8565b8114610c2857600080fd5b50565b600081359050610c3a81610c14565b92915050565b600060208284031215610c5657610c55610bde565b5b6000610c6484828501610c2b565b91505092915050565b60008115159050919050565b610c8281610c6d565b82525050565b6000602082019050610c9d6000830184610c79565b92915050565b600073ffffffffffffffffffffffffffffffffffffffff82169050919050565b6000610cce82610ca3565b9050919050565b610cde81610cc3565b8114610ce957600080fd5b50565b600081359050610cfb81610cd5565b92915050565b600060208284031215610d1757610d16610bde565b5b6000610d2584828501610cec565b91505092915050565b6000819050919050565b610d4181610d2e565b82525050565b6000602082019050610d5c6000830184610d38565b92915050565b610d6b81610d2e565b8114610d7657600080fd5b50565b600081359050610d8881610d62565b92915050565b600062ffffff82169050919050565b610da681610d8e565b8114610db157600080fd5b50565b600081359050610dc381610d9d565b92915050565b60008060008060008060c08789031215610de657610de5610bde565b5b6000610df489828a01610cec565b9650506020610e0589828a01610cec565b9550506040610e1689828a01610d79565b9450506060610e2789828a01610db4565b9350506080610e3889828a01610d79565b92505060a0610e4989828a01610d79565b9150509295509295509295565b610e5f81610cc3565b82525050565b6000602082019050610e7a6000830184610e56565b92915050565b6000819050919050565b6000610ea5610ea0610e9b84610ca3565b610e80565b610ca3565b9050919050565b6000610eb782610e8a565b9050919050565b6000610ec982610eac565b9050919050565b610ed981610ebe565b82525050565b6000602082019050610ef46000830184610ed0565b92915050565b600080fd5b6000601f19601f8301169050919050565b7f4e487b7100000000000000000000000000000000000000000000000000000000600052604160045260246000fd5b610f4882610eff565b810181811067ffffffffffffffff82111715610f6757610f66610f10565b5b80604052505050565b6000610f7a610bd4565b9050610f868282610f3f565b919050565b600067ffffffffffffffff821115610fa657610fa5610f10565b5b602082029050602081019050919050565b600080fd5b6000610fcf610fca84610f8b565b610f70565b90508083825260208201905060208402830185811115610ff257610ff1610fb7565b5b835b8181101561101b57806110078882610d79565b845260208401935050602081019050610ff4565b5050509392505050565b600082601f83011261103a57611039610efa565b5b813561104a848260208601610fbc565b91505092915050565b600080fd5b600067ffffffffffffffff82111561107357611072610f10565b5b61107c82610eff565b9050602081019050919050565b82818337600083830152505050565b60006110ab6110a684611058565b610f70565b9050828152602081018484840111156110c7576110c6611053565b5b6110d2848285611089565b509392505050565b600082601f8301126110ef576110ee610efa565b5b81356110ff848260208601611098565b91505092915050565b600080600080600060a0868803121561112457611123610bde565b5b600061113288828901610cec565b955050602061114388828901610cec565b945050604086013567ffffffffffffffff81111561116457611163610be3565b5b61117088828901611025565b935050606086013567ffffffffffffffff81111561119157611190610be3565b5b61119d88828901611025565b925050608086013567ffffffffffffffff8111156111be576111bd610be3565b5b6111ca888289016110da565b9150509295509295909350565b6111e081610be8565b82525050565b60006020820190506111fb60008301846111d7565b92915050565b6000806040838503121561121857611217610bde565b5b600061122685828601610cec565b925050602061123785828601610d79565b9150509250929050565b600061124c82610eac565b9050919050565b61125c81611241565b82525050565b60006020820190506112776000830184611253565b92915050565b60008060008060008060c0878903121561129a57611299610bde565b5b60006112a889828a01610cec565b96505060206112b989828a01610cec565b95505060406112ca89828a01610d79565b94505060606112db89828a01610d79565b93505060806112ec89828a01610db4565b92505060a06112fd89828a01610d79565b9150509295509295509295565b600080600080600060a0868803121561132657611325610bde565b5b600061133488828901610cec565b955050602061134588828901610cec565b945050604061135688828901610d79565b935050606061136788828901610d79565b925050608086013567ffffffffffffffff81111561138857611387610be3565b5b611394888289016110da565b9150509295509295909350565b7f4e487b7100000000000000000000000000000000000000000000000000000000600052601160045260246000fd5b60006113db82610d2e565b91506113e683610d2e565b9250817fffffffffffffffffffffffffffffffffffffffffffffffffffffffffffffffff048311821515161561141f5761141e6113a1565b5b828202905092915050565b7f4e487b7100000000000000000000000000000000000000000000000000000000600052601260045260246000fd5b600061146482610d2e565b915061146f83610d2e565b92508261147f5761147e61142a565b5b828204905092915050565b600061149582610d2e565b91506114a083610d2e565b9250828210156114b3576114b26113a1565b5b828203905092915050565b6114c781610cc3565b82525050565b6114d681610d8e565b82525050565b6114e581610d2e565b82525050565b6114f481610ca3565b82525050565b6101008201600082015161151160008501826114be565b50602082015161152460208501826114be565b50604082015161153760408501826114cd565b50606082015161154a60608501826114be565b50608082015161155d60808501826114dc565b5060a082015161157060a08501826114dc565b5060c082015161158360c08501826114dc565b5060e082015161159660e08501826114eb565b50505050565b6000610100820190506115b260008301846114fa565b92915050565b6000815190506115c781610d62565b92915050565b6000602082840312156115e3576115e2610bde565b5b60006115f1848285016115b8565b91505092915050565b600060a08201905061160f6000830188610e56565b61161c6020830187610e56565b6116296040830186610d38565b6116366060830185610e56565b6116436080830184610d38565b9695505050505050565b60006040820190506116626000830185610e56565b61166f6020830184610d38565b9392505050565b61167f81610c6d565b811461168a57600080fd5b50565b60008151905061169c81611676565b92915050565b6000602082840312156116b8576116b7610bde565b5b60006116c68482850161168d565b91505092915050565b60006060820190506116e46000830186610e56565b6116f16020830185610e56565b6116fe6040830184610d38565b949350505050565b600081519050919050565b600081905092915050565b60005b8381101561173a57808201518184015260208101905061171f565b83811115611749576000848401525b50505050565b600061175a82611706565b6117648185611711565b935061177481856020860161171c565b80840191505092915050565b600061178c828461174f565b915081905092915050565b600082825260208201905092915050565b7f5354460000000000000000000000000000000000000000000000000000000000600082015250565b60006117de600383611797565b91506117e9826117a8565b602082019050919050565b6000602082019050818103600083015261180d816117d1565b9050919050565b7f5341000000000000000000000000000000000000000000000000000000000000600082015250565b600061184a600283611797565b915061185582611814565b602082019050919050565b600060208201905081810360008301526118798161183d565b905091905056fea2646970667358221220cef219cdda900ddce49621fb3995eee70b91a3d76e33bea5404a80e3f6cf650364736f6c634300080a0033",
  "immutableReferences": {
    "2809": [
      {
        "length": 32,
        "start": 794
      },
      {
        "length": 32,
        "start": 1054
      },
      {
        "length": 32,
        "start": 1756
      },
      {
        "length": 32,
        "start": 1810
      },
      {
        "length": 32,
        "start": 2025
      }
    ]
  },
  "source": "// SPDX-License-Identifier: MIT\npragma solidity ^0.8.0; //solhint-disable compiler-fixed\npragma abicoder v2;\n\n\nimport \"@openzeppelin/contracts/token/ERC1155/IERC1155.sol\";\nimport \"@openzeppelin/contracts/token/ERC1155/utils/ERC1155Holder.sol\";\nimport \"@uniswap/v3-periphery/contracts/interfaces/ISwapRouter.sol\";\nimport \"@uniswap/v3-periphery/contracts/libraries/TransferHelper.sol\";\nimport \"@openzeppelin/contracts/token/ERC20/IERC20.sol\";\nimport \"./BeraWrapper.sol\";\n\n\ncontract BeraPoolStandardRisk is ERC1155Holder {\n\n    address public owner;\n\n    mapping(address => uint) public userShortBalance;\n    mapping(address => uint) public userRemainingBalance;\n\n    address private constant DAI_ADDRESS = 0x6B175474E89094C44Da98b954EedeAC495271d0F;\n\n    ISwapRouter public immutable swapRouter;\n    BeraWrapper public beraWrapper;\n\n    constructor(ISwapRouter _swapRouter,\n        BeraWrapper _beraWrapper) { //solhint-disable func-visibility\n        owner = msg.sender;\n        swapRouter = _swapRouter;\n        beraWrapper = _beraWrapper;\n    }\n\n    function shortForUser(\n        address user,\n        address tokenToShort,\n        uint priceAtWrap,\n        uint24 poolFee,\n        uint amount,\n        uint amountOutMin) external returns(uint amountOut) {\n        //require(msg.sender == beraRouter, \"not in ecosystem\");\n\n\n        TransferHelper.safeTransferFrom(tokenToShort, user, address(this), amount);\n        TransferHelper.safeApprove(tokenToShort, address(swapRouter), amount);\n\n        //keep 5% of weth in pool contract for holders to profit/ reduce losses\n        //amountToShort is amount of weth to short\n        //TOKEN IN IN THIS CASE IS ALREADY TOKEN TO BE SHORTED, SO POOL IS KEEPING 5% OF TRADE\n        //KEEP IN FOR NOW TO TEST HIGH RISK POOL\n        //WILL HAVE TO CHANGE TO SWAP AND THEN KEEP 5% FOR STANDARD RISK POOL\n        uint amountToShort = (amount * 95) / 100;\n        uint remaining = amount - amountToShort;\n\n        //now that contract has the desired token to short, we sell @ market back for DAI\n        ISwapRouter.ExactInputSingleParams memory tokenParams =\n        ISwapRouter.ExactInputSingleParams({\n            tokenIn: tokenToShort,\n            tokenOut: DAI_ADDRESS,\n            fee: poolFee,\n            recipient: address(this), //the pool contract will store both DAI from users and\n            deadline: block.timestamp, //solhint-disable not-rely-on-time\n            amountIn: amountToShort,\n            amountOutMinimum: amountOutMin,\n            sqrtPriceLimitX96: 0\n        });\n\n        // execute the short, amountOut is DAI in this case\n        amountOut = swapRouter.exactInputSingle(tokenParams);\n\n        //update user balances\n        userShortBalance[msg.sender] = amountOut;\n        userRemainingBalance[msg.sender] = remaining;\n\n        //wrap position in ERC1155\n        //use amountToShort to reference position size being wrapped\n        beraWrapper.wrapPosition(user, address(this), amountToShort, tokenToShort, priceAtWrap);\n\n    }\n\n    function closeShortForUser(\n        address user,\n        address tokenToClose,\n        uint amount,\n        uint priceAtClose,\n        uint24 poolFee,\n        uint amountOutMin)\n        external returns(uint amountOut) {\n\n            //transfer weth to contract to sell back to dai and send profits to user\n            TransferHelper.safeTransferFrom(tokenToClose, user, address(this), amount);\n            TransferHelper.safeApprove(tokenToClose, address(swapRouter), amount);\n\n            ISwapRouter.ExactInputSingleParams memory tokenParams =\n            ISwapRouter.ExactInputSingleParams({\n                tokenIn: tokenToClose,\n                tokenOut: DAI_ADDRESS,\n                fee: poolFee,\n                recipient: msg.sender, //refers to router in this case\n                deadline: block.timestamp, //solhint-disable not-rely-on-time\n                amountIn: amount,\n                amountOutMinimum: amountOutMin,\n                sqrtPriceLimitX96: 0\n            });\n\n            //execute the sell order\n            amountOut = swapRouter.exactInputSingle(tokenParams);\n\n        }\n\n    function withdrawFromPool(address user, uint amount) external {\n        IERC20(DAI_ADDRESS).transfer(user, amount);\n    }\n}\n\n//needs:\n//\n//total borrowed from pool/ token0\n//total supplied to pool as collateral/ token1(USDC)\n//total available to borrow for shorting\n//how much it will cost to borrow/ how much to be paid to supplier\n//when does the borrower threaten to be liquited?\n    //(when losses are equal to 90% of supplied collateral)\n    //thus, we need a way to measure the current borrowers PnL or loan health (maybe look at AAVE or COMP)\n//need interface when done with all functions\n\n//ON HOLD\n",
  "sourcePath": "/home/kevin/Code/solidity_projects/beraMarket/contracts/BeraPoolStandardRisk.sol",
  "compiler": {
    "name": "solc",
    "version": "0.8.10+commit.fc410830.Emscripten.clang"
  },
  "schemaVersion": "3.4.3",
  "updatedAt": "2021-11-24T00:15:22.514Z",
  "networkType": "ethereum",
  "devdoc": {
    "kind": "dev",
    "methods": {
      "supportsInterface(bytes4)": {
        "details": "See {IERC165-supportsInterface}."
      }
    },
    "version": 1
  },
  "userdoc": {
    "kind": "user",
    "methods": {},
    "version": 1
  }
}