{
  "contractName": "BeraPool",
  "abi": [
    {
      "inputs": [
        {
          "internalType": "contract GoblinTownToken",
          "name": "_goblinTownToken",
          "type": "address"
        }
      ],
      "stateMutability": "nonpayable",
      "type": "constructor"
    },
    {
      "inputs": [],
      "name": "goblinTownToken",
      "outputs": [
        {
          "internalType": "contract GoblinTownToken",
          "name": "",
          "type": "address"
        }
      ],
      "stateMutability": "view",
      "type": "function",
      "constant": true
    },
    {
      "inputs": [
        {
          "internalType": "uint256",
          "name": "",
          "type": "uint256"
        }
      ],
      "name": "gttPoolList",
      "outputs": [
        {
          "internalType": "address",
          "name": "",
          "type": "address"
        }
      ],
      "stateMutability": "view",
      "type": "function",
      "constant": true
    },
    {
      "inputs": [
        {
          "internalType": "address",
          "name": "",
          "type": "address"
        }
      ],
      "name": "userPercentOfGTTPool",
      "outputs": [
        {
          "internalType": "uint256",
          "name": "",
          "type": "uint256"
        }
      ],
      "stateMutability": "view",
      "type": "function",
      "constant": true
    },
    {
      "inputs": [
        {
          "internalType": "uint256",
          "name": "amount",
          "type": "uint256"
        }
      ],
      "name": "depositGTT",
      "outputs": [],
      "stateMutability": "nonpayable",
      "type": "function"
    },
    {
      "inputs": [
        {
          "internalType": "uint256",
          "name": "amount",
          "type": "uint256"
        }
      ],
      "name": "withdawGTT",
      "outputs": [],
      "stateMutability": "nonpayable",
      "type": "function"
    },
    {
      "inputs": [
        {
          "internalType": "address",
          "name": "user",
          "type": "address"
        }
      ],
      "name": "getUserPercentage",
      "outputs": [
        {
          "internalType": "uint256",
          "name": "",
          "type": "uint256"
        }
      ],
      "stateMutability": "view",
      "type": "function",
      "constant": true
    }
  ],
  "bytecode": "0x608060405234801561001057600080fd5b50604051610cc2380380610cc2833981810160405281019061003291906100ed565b806000806101000a81548173ffffffffffffffffffffffffffffffffffffffff021916908373ffffffffffffffffffffffffffffffffffffffff1602179055505061011a565b600080fd5b600073ffffffffffffffffffffffffffffffffffffffff82169050919050565b60006100a88261007d565b9050919050565b60006100ba8261009d565b9050919050565b6100ca816100af565b81146100d557600080fd5b50565b6000815190506100e7816100c1565b92915050565b60006020828403121561010357610102610078565b5b6000610111848285016100d8565b91505092915050565b610b99806101296000396000f3fe608060405234801561001057600080fd5b50600436106100625760003560e01c80635184118414610067578063a466450a14610097578063be5bd984146100b3578063e67a0397146100d1578063ebbb357c146100ed578063f8ccdd581461011d575b600080fd5b610081600480360381019061007c9190610742565b61014d565b60405161008e9190610788565b60405180910390f35b6100b160048036038101906100ac91906107cf565b610165565b005b6100bb61037f565b6040516100c8919061085b565b60405180910390f35b6100eb60048036038101906100e691906107cf565b6103a3565b005b610107600480360381019061010291906107cf565b6105b2565b6040516101149190610885565b60405180910390f35b61013760048036038101906101329190610742565b6105f1565b6040516101449190610788565b60405180910390f35b60016020528060005260406000206000915090505481565b600160003373ffffffffffffffffffffffffffffffffffffffff1673ffffffffffffffffffffffffffffffffffffffff168152602001908152602001600020548111156101e7576040517f08c379a00000000000000000000000000000000000000000000000000000000081526004016101de90610923565b60405180910390fd5b80600160003373ffffffffffffffffffffffffffffffffffffffff1673ffffffffffffffffffffffffffffffffffffffff16815260200190815260200160002060008282546102369190610972565b925050819055506000600160003373ffffffffffffffffffffffffffffffffffffffff1673ffffffffffffffffffffffffffffffffffffffff16815260200190815260200160002054116102dd576000600260003373ffffffffffffffffffffffffffffffffffffffff1673ffffffffffffffffffffffffffffffffffffffff16815260200190815260200160002060006101000a81548160ff0219169083151502179055505b60008054906101000a900473ffffffffffffffffffffffffffffffffffffffff1673ffffffffffffffffffffffffffffffffffffffff1663a9059cbb33836040518363ffffffff1660e01b81526004016103389291906109a6565b6020604051808303816000875af1158015610357573d6000803e3d6000fd5b505050506040513d601f19601f8201168201806040525081019061037b9190610a07565b5050565b60008054906101000a900473ffffffffffffffffffffffffffffffffffffffff1681565b60008054906101000a900473ffffffffffffffffffffffffffffffffffffffff1673ffffffffffffffffffffffffffffffffffffffff166323b872dd3330846040518463ffffffff1660e01b815260040161040093929190610a34565b6020604051808303816000875af115801561041f573d6000803e3d6000fd5b505050506040513d601f19601f820116820180604052508101906104439190610a07565b5080600160003373ffffffffffffffffffffffffffffffffffffffff1673ffffffffffffffffffffffffffffffffffffffff16815260200190815260200160002060008282546104939190610a6b565b9250508190555060001515600260003373ffffffffffffffffffffffffffffffffffffffff1673ffffffffffffffffffffffffffffffffffffffff16815260200190815260200160002060009054906101000a900460ff16151514156105af576003339080600181540180825580915050600190039060005260206000200160009091909190916101000a81548173ffffffffffffffffffffffffffffffffffffffff021916908373ffffffffffffffffffffffffffffffffffffffff1602179055506001600260003373ffffffffffffffffffffffffffffffffffffffff1673ffffffffffffffffffffffffffffffffffffffff16815260200190815260200160002060006101000a81548160ff0219169083151502179055505b50565b600381815481106105c257600080fd5b906000526020600020016000915054906101000a900473ffffffffffffffffffffffffffffffffffffffff1681565b60008060009054906101000a900473ffffffffffffffffffffffffffffffffffffffff1673ffffffffffffffffffffffffffffffffffffffff166370a08231306040518263ffffffff1660e01b815260040161064d9190610885565b602060405180830381865afa15801561066a573d6000803e3d6000fd5b505050506040513d601f19601f8201168201806040525081019061068e9190610ad6565b600160008473ffffffffffffffffffffffffffffffffffffffff1673ffffffffffffffffffffffffffffffffffffffff168152602001908152602001600020546106d89190610b32565b9050919050565b600080fd5b600073ffffffffffffffffffffffffffffffffffffffff82169050919050565b600061070f826106e4565b9050919050565b61071f81610704565b811461072a57600080fd5b50565b60008135905061073c81610716565b92915050565b600060208284031215610758576107576106df565b5b60006107668482850161072d565b91505092915050565b6000819050919050565b6107828161076f565b82525050565b600060208201905061079d6000830184610779565b92915050565b6107ac8161076f565b81146107b757600080fd5b50565b6000813590506107c9816107a3565b92915050565b6000602082840312156107e5576107e46106df565b5b60006107f3848285016107ba565b91505092915050565b6000819050919050565b600061082161081c610817846106e4565b6107fc565b6106e4565b9050919050565b600061083382610806565b9050919050565b600061084582610828565b9050919050565b6108558161083a565b82525050565b6000602082019050610870600083018461084c565b92915050565b61087f81610704565b82525050565b600060208201905061089a6000830184610876565b92915050565b600082825260208201905092915050565b7f4754543a20796f752063616e6e6f74207769746864726177206d6f726520746f60008201527f6b656e73207468616e20796f752068617665206465706f736974656421000000602082015250565b600061090d603d836108a0565b9150610918826108b1565b604082019050919050565b6000602082019050818103600083015261093c81610900565b9050919050565b7f4e487b7100000000000000000000000000000000000000000000000000000000600052601160045260246000fd5b600061097d8261076f565b91506109888361076f565b92508282101561099b5761099a610943565b5b828203905092915050565b60006040820190506109bb6000830185610876565b6109c86020830184610779565b9392505050565b60008115159050919050565b6109e4816109cf565b81146109ef57600080fd5b50565b600081519050610a01816109db565b92915050565b600060208284031215610a1d57610a1c6106df565b5b6000610a2b848285016109f2565b91505092915050565b6000606082019050610a496000830186610876565b610a566020830185610876565b610a636040830184610779565b949350505050565b6000610a768261076f565b9150610a818361076f565b9250827fffffffffffffffffffffffffffffffffffffffffffffffffffffffffffffffff03821115610ab657610ab5610943565b5b828201905092915050565b600081519050610ad0816107a3565b92915050565b600060208284031215610aec57610aeb6106df565b5b6000610afa84828501610ac1565b91505092915050565b7f4e487b7100000000000000000000000000000000000000000000000000000000600052601260045260246000fd5b6000610b3d8261076f565b9150610b488361076f565b925082610b5857610b57610b03565b5b82820490509291505056fea2646970667358221220e2ec93a19c220bd66fc663829c04a3ac522111d3e34024c402503a9dc6518ba264736f6c634300080a0033",
  "immutableReferences": {},
  "source": "// SPDX-License-Identifier: MIT\npragma solidity ^0.8.0; //solhint-disable compiler-fixed\n\nimport \"./GoblinTownToken.sol\";\nimport \"@openzeppelin/contracts/token/ERC20/IERC20.sol\";\n\n\ncontract BeraPool {\n\n    GoblinTownToken public goblinTownToken;\n\n    mapping(address => uint) public userPercentOfGTTPool;\n    mapping(address => bool) internal hasDeposited;\n\n\n    address[] public gttPoolList;\n\n    address private constant DAI_ADDRESS = 0x6B175474E89094C44Da98b954EedeAC495271d0F;\n\n    constructor(GoblinTownToken _goblinTownToken) { //solhint-disable func-visibility\n        goblinTownToken = _goblinTownToken;\n    }\n\n    function depositGTT(uint amount) external {\n        IERC20(goblinTownToken).transferFrom(msg.sender, address(this), amount);\n        userPercentOfGTTPool[msg.sender] += amount;\n\n        if (hasDeposited[msg.sender] == false) {\n            gttPoolList.push(msg.sender);\n            hasDeposited[msg.sender] = true;\n        }\n    }\n\n    function withdawGTT(uint amount) external {\n        require(amount <= userPercentOfGTTPool[msg.sender],\n        \"GTT: you cannot withdraw more tokens than you have deposited!\");\n\n        userPercentOfGTTPool[msg.sender] -= amount;\n\n        if (userPercentOfGTTPool[msg.sender] <= 0) {\n            hasDeposited[msg.sender] = false;\n        }\n\n        IERC20(goblinTownToken).transfer(msg.sender, amount);\n    }\n\n    function getUserPercentage(address user) external view returns(uint) {\n        //get the individual percentage of the pool owned by a holder\n        return userPercentOfGTTPool[user] / IERC20(goblinTownToken).balanceOf(address(this));\n    }\n\n\n}\n",
  "sourcePath": "/home/kevin/Code/solidity_projects/beraMarket/contracts/BeraPool.sol",
  "compiler": {
    "name": "solc",
    "version": "0.8.10+commit.fc410830.Emscripten.clang"
  },
  "schemaVersion": "3.4.3",
  "updatedAt": "2021-11-16T00:00:49.748Z",
  "networkType": "ethereum",
  "devdoc": {
    "kind": "dev",
    "methods": {},
    "version": 1
  },
  "userdoc": {
    "kind": "user",
    "methods": {},
    "version": 1
  }
}