{
  "contractName": "BeraPool",
  "abi": [
    {
      "inputs": [
        {
          "internalType": "contract IERC20",
          "name": "_goblinTownToken",
          "type": "address"
        }
      ],
      "stateMutability": "nonpayable",
      "type": "constructor"
    },
    {
      "inputs": [],
      "name": "goblinTownToken",
      "outputs": [
        {
          "internalType": "contract IERC20",
          "name": "",
          "type": "address"
        }
      ],
      "stateMutability": "view",
      "type": "function"
    },
    {
      "inputs": [],
      "name": "totalPoolSize",
      "outputs": [
        {
          "internalType": "uint256",
          "name": "",
          "type": "uint256"
        }
      ],
      "stateMutability": "view",
      "type": "function"
    },
    {
      "inputs": [
        {
          "internalType": "address",
          "name": "",
          "type": "address"
        }
      ],
      "name": "userPercentOfPool",
      "outputs": [
        {
          "internalType": "uint256",
          "name": "",
          "type": "uint256"
        }
      ],
      "stateMutability": "view",
      "type": "function"
    },
    {
      "inputs": [
        {
          "internalType": "uint256",
          "name": "amount",
          "type": "uint256"
        }
      ],
      "name": "depositGTT",
      "outputs": [
        {
          "internalType": "bool",
          "name": "",
          "type": "bool"
        }
      ],
      "stateMutability": "nonpayable",
      "type": "function"
    },
    {
      "inputs": [
        {
          "internalType": "uint256",
          "name": "amount",
          "type": "uint256"
        }
      ],
      "name": "withdawGTT",
      "outputs": [
        {
          "internalType": "bool",
          "name": "",
          "type": "bool"
        }
      ],
      "stateMutability": "nonpayable",
      "type": "function"
    },
    {
      "inputs": [
        {
          "internalType": "address",
          "name": "user",
          "type": "address"
        }
      ],
      "name": "getUserPercentage",
      "outputs": [
        {
          "internalType": "uint256",
          "name": "",
          "type": "uint256"
        }
      ],
      "stateMutability": "view",
      "type": "function"
    }
  ],
  "bytecode": "0x608060405234801561001057600080fd5b506040516109c43803806109c4833981810160405281019061003291906100ed565b806000806101000a81548173ffffffffffffffffffffffffffffffffffffffff021916908373ffffffffffffffffffffffffffffffffffffffff1602179055505061011a565b600080fd5b600073ffffffffffffffffffffffffffffffffffffffff82169050919050565b60006100a88261007d565b9050919050565b60006100ba8261009d565b9050919050565b6100ca816100af565b81146100d557600080fd5b50565b6000815190506100e7816100c1565b92915050565b60006020828403121561010357610102610078565b5b6000610111848285016100d8565b91505092915050565b61089b806101296000396000f3fe608060405234801561001057600080fd5b50600436106100625760003560e01c80631818bc6b14610067578063a466450a14610097578063be5bd984146100c7578063c4353d8d146100e5578063e67a039714610103578063f8ccdd5814610133575b600080fd5b610081600480360381019061007c91906104ab565b610163565b60405161008e91906104f1565b60405180910390f35b6100b160048036038101906100ac9190610538565b61017b565b6040516100be9190610580565b60405180910390f35b6100cf6102b6565b6040516100dc91906105fa565b60405180910390f35b6100ed6102da565b6040516100fa91906104f1565b60405180910390f35b61011d60048036038101906101189190610538565b6102e0565b60405161012a9190610580565b60405180910390f35b61014d600480360381019061014891906104ab565b6103f2565b60405161015a91906104f1565b60405180910390f35b60016020528060005260406000206000915090505481565b6000600160003373ffffffffffffffffffffffffffffffffffffffff1673ffffffffffffffffffffffffffffffffffffffff168152602001908152602001600020548211156101ff576040517f08c379a00000000000000000000000000000000000000000000000000000000081526004016101f690610698565b60405180910390fd5b60008054906101000a900473ffffffffffffffffffffffffffffffffffffffff1673ffffffffffffffffffffffffffffffffffffffff1663a9059cbb33846040518363ffffffff1660e01b815260040161025a9291906106c7565b602060405180830381600087803b15801561027457600080fd5b505af1158015610288573d6000803e3d6000fd5b505050506040513d601f19601f820116820180604052508101906102ac919061071c565b5060019050919050565b60008054906101000a900473ffffffffffffffffffffffffffffffffffffffff1681565b60025481565b60008060009054906101000a900473ffffffffffffffffffffffffffffffffffffffff1673ffffffffffffffffffffffffffffffffffffffff166323b872dd3330856040518463ffffffff1660e01b815260040161034093929190610749565b602060405180830381600087803b15801561035a57600080fd5b505af115801561036e573d6000803e3d6000fd5b505050506040513d601f19601f82011682018060405250810190610392919061071c565b5081600160003373ffffffffffffffffffffffffffffffffffffffff1673ffffffffffffffffffffffffffffffffffffffff16815260200190815260200160002060008282546103e291906107af565b9250508190555060019050919050565b6000600254600160008473ffffffffffffffffffffffffffffffffffffffff1673ffffffffffffffffffffffffffffffffffffffff168152602001908152602001600020546104419190610834565b9050919050565b600080fd5b600073ffffffffffffffffffffffffffffffffffffffff82169050919050565b60006104788261044d565b9050919050565b6104888161046d565b811461049357600080fd5b50565b6000813590506104a58161047f565b92915050565b6000602082840312156104c1576104c0610448565b5b60006104cf84828501610496565b91505092915050565b6000819050919050565b6104eb816104d8565b82525050565b600060208201905061050660008301846104e2565b92915050565b610515816104d8565b811461052057600080fd5b50565b6000813590506105328161050c565b92915050565b60006020828403121561054e5761054d610448565b5b600061055c84828501610523565b91505092915050565b60008115159050919050565b61057a81610565565b82525050565b60006020820190506105956000830184610571565b92915050565b6000819050919050565b60006105c06105bb6105b68461044d565b61059b565b61044d565b9050919050565b60006105d2826105a5565b9050919050565b60006105e4826105c7565b9050919050565b6105f4816105d9565b82525050565b600060208201905061060f60008301846105eb565b92915050565b600082825260208201905092915050565b7f4754543a20796f752063616e6e6f74207769746864726177206d6f726520746f60008201527f6b656e73207468616e20796f752068617665206465706f736974656421000000602082015250565b6000610682603d83610615565b915061068d82610626565b604082019050919050565b600060208201905081810360008301526106b181610675565b9050919050565b6106c18161046d565b82525050565b60006040820190506106dc60008301856106b8565b6106e960208301846104e2565b9392505050565b6106f981610565565b811461070457600080fd5b50565b600081519050610716816106f0565b92915050565b60006020828403121561073257610731610448565b5b600061074084828501610707565b91505092915050565b600060608201905061075e60008301866106b8565b61076b60208301856106b8565b61077860408301846104e2565b949350505050565b7f4e487b7100000000000000000000000000000000000000000000000000000000600052601160045260246000fd5b60006107ba826104d8565b91506107c5836104d8565b9250827fffffffffffffffffffffffffffffffffffffffffffffffffffffffffffffffff038211156107fa576107f9610780565b5b828201905092915050565b7f4e487b7100000000000000000000000000000000000000000000000000000000600052601260045260246000fd5b600061083f826104d8565b915061084a836104d8565b92508261085a57610859610805565b5b82820490509291505056fea26469706673582212204168f39d0084bef539dce31654f11b901afc85fc281cb9e4f2ad689167ba963d64736f6c63430008090033",
  "immutableReferences": {},
  "source": "// SPDX-License-Identifier: MIT\npragma solidity ^0.8.0; //solhint-disable compiler-fixed\n\nimport \"./GoblinTownToken.sol\";\nimport \"@openzeppelin/contracts/token/ERC20/IERC20.sol\";\n\n\ncontract BeraPool {\n\n    IERC20 public goblinTownToken;\n\n    mapping(address => uint) public userPercentOfPool;\n    uint public totalPoolSize;\n\n    constructor(IERC20 _goblinTownToken) { //solhint-disable func-visibility\n        goblinTownToken = _goblinTownToken;\n    }\n\n    function depositGTT(uint amount) external returns(bool) {\n        IERC20(goblinTownToken).transferFrom(msg.sender, address(this), amount);\n        userPercentOfPool[msg.sender] += amount;\n\n        return true;\n    }\n\n    function withdawGTT(uint amount) external returns(bool) {\n        require(amount <= userPercentOfPool[msg.sender],\n        \"GTT: you cannot withdraw more tokens than you have deposited!\");\n\n        IERC20(goblinTownToken).transfer(msg.sender, amount);\n\n        return true;\n    }\n\n    function getUserPercentage(address user) external view returns(uint) {\n        return userPercentOfPool[user] / totalPoolSize;\n    }\n\n\n}\n",
  "sourcePath": "/home/kevin/Code/solidity_projects/beraMarket/contracts/BeraPool.sol",
  "compiler": {
    "name": "solc",
    "version": "0.8.9+commit.e5eed63a.Emscripten.clang"
  },
  "schemaVersion": "3.4.3",
  "updatedAt": "2021-10-18T14:29:28.324Z",
  "networkType": "ethereum",
  "devdoc": {
    "kind": "dev",
    "methods": {},
    "version": 1
  },
  "userdoc": {
    "kind": "user",
    "methods": {},
    "version": 1
  }
}