{
  "contractName": "BeraPoolStandardRisk",
  "abi": [
    {
      "inputs": [
        {
          "internalType": "contract ISwapRouter",
          "name": "_swapRouter",
          "type": "address"
        },
        {
          "internalType": "contract BeraWrapper",
          "name": "_beraWrapper",
          "type": "address"
        },
        {
          "internalType": "contract TWAPOracle",
          "name": "_twapOracle",
          "type": "address"
        },
        {
          "internalType": "contract SwapOracle",
          "name": "_swapOracle",
          "type": "address"
        }
      ],
      "stateMutability": "nonpayable",
      "type": "constructor"
    },
    {
      "stateMutability": "payable",
      "type": "fallback",
      "payable": true
    },
    {
      "inputs": [],
      "name": "beraWrapper",
      "outputs": [
        {
          "internalType": "contract BeraWrapper",
          "name": "",
          "type": "address"
        }
      ],
      "stateMutability": "view",
      "type": "function",
      "constant": true
    },
    {
      "inputs": [],
      "name": "globalRewards",
      "outputs": [
        {
          "internalType": "uint256",
          "name": "",
          "type": "uint256"
        }
      ],
      "stateMutability": "view",
      "type": "function",
      "constant": true
    },
    {
      "inputs": [
        {
          "internalType": "address",
          "name": "",
          "type": "address"
        },
        {
          "internalType": "address",
          "name": "",
          "type": "address"
        },
        {
          "internalType": "uint256[]",
          "name": "",
          "type": "uint256[]"
        },
        {
          "internalType": "uint256[]",
          "name": "",
          "type": "uint256[]"
        },
        {
          "internalType": "bytes",
          "name": "",
          "type": "bytes"
        }
      ],
      "name": "onERC1155BatchReceived",
      "outputs": [
        {
          "internalType": "bytes4",
          "name": "",
          "type": "bytes4"
        }
      ],
      "stateMutability": "nonpayable",
      "type": "function"
    },
    {
      "inputs": [
        {
          "internalType": "address",
          "name": "",
          "type": "address"
        },
        {
          "internalType": "address",
          "name": "",
          "type": "address"
        },
        {
          "internalType": "uint256",
          "name": "",
          "type": "uint256"
        },
        {
          "internalType": "uint256",
          "name": "",
          "type": "uint256"
        },
        {
          "internalType": "bytes",
          "name": "",
          "type": "bytes"
        }
      ],
      "name": "onERC1155Received",
      "outputs": [
        {
          "internalType": "bytes4",
          "name": "",
          "type": "bytes4"
        }
      ],
      "stateMutability": "nonpayable",
      "type": "function"
    },
    {
      "inputs": [],
      "name": "owner",
      "outputs": [
        {
          "internalType": "address",
          "name": "",
          "type": "address"
        }
      ],
      "stateMutability": "view",
      "type": "function",
      "constant": true
    },
    {
      "inputs": [
        {
          "internalType": "bytes4",
          "name": "interfaceId",
          "type": "bytes4"
        }
      ],
      "name": "supportsInterface",
      "outputs": [
        {
          "internalType": "bool",
          "name": "",
          "type": "bool"
        }
      ],
      "stateMutability": "view",
      "type": "function",
      "constant": true
    },
    {
      "inputs": [],
      "name": "swapOracle",
      "outputs": [
        {
          "internalType": "contract SwapOracle",
          "name": "",
          "type": "address"
        }
      ],
      "stateMutability": "view",
      "type": "function",
      "constant": true
    },
    {
      "inputs": [],
      "name": "swapRouter",
      "outputs": [
        {
          "internalType": "contract ISwapRouter",
          "name": "",
          "type": "address"
        }
      ],
      "stateMutability": "view",
      "type": "function",
      "constant": true
    },
    {
      "inputs": [],
      "name": "twapOracle",
      "outputs": [
        {
          "internalType": "contract TWAPOracle",
          "name": "",
          "type": "address"
        }
      ],
      "stateMutability": "view",
      "type": "function",
      "constant": true
    },
    {
      "inputs": [
        {
          "internalType": "address",
          "name": "",
          "type": "address"
        }
      ],
      "name": "users",
      "outputs": [
        {
          "internalType": "uint256",
          "name": "userDepositBalance",
          "type": "uint256"
        },
        {
          "internalType": "uint256",
          "name": "lastClaimedRewards",
          "type": "uint256"
        },
        {
          "internalType": "uint256",
          "name": "userShortID",
          "type": "uint256"
        }
      ],
      "stateMutability": "view",
      "type": "function",
      "constant": true
    },
    {
      "stateMutability": "payable",
      "type": "receive",
      "payable": true
    },
    {
      "inputs": [
        {
          "internalType": "uint256",
          "name": "amount",
          "type": "uint256"
        },
        {
          "internalType": "address",
          "name": "collateral",
          "type": "address"
        }
      ],
      "name": "depositCollateral",
      "outputs": [],
      "stateMutability": "nonpayable",
      "type": "function"
    },
    {
      "inputs": [
        {
          "internalType": "uint256",
          "name": "amount",
          "type": "uint256"
        },
        {
          "internalType": "uint256",
          "name": "userShortID",
          "type": "uint256"
        }
      ],
      "name": "withdrawFromPool",
      "outputs": [],
      "stateMutability": "nonpayable",
      "type": "function"
    },
    {
      "inputs": [],
      "name": "claimRewards",
      "outputs": [],
      "stateMutability": "nonpayable",
      "type": "function"
    },
    {
      "inputs": [
        {
          "internalType": "uint256",
          "name": "amount",
          "type": "uint256"
        },
        {
          "internalType": "address",
          "name": "tokenToShort",
          "type": "address"
        },
        {
          "internalType": "uint24",
          "name": "poolFee",
          "type": "uint24"
        },
        {
          "internalType": "uint256",
          "name": "amountOutMin",
          "type": "uint256"
        }
      ],
      "name": "swapAndShortStandard",
      "outputs": [
        {
          "internalType": "uint256",
          "name": "amountOut",
          "type": "uint256"
        }
      ],
      "stateMutability": "nonpayable",
      "type": "function"
    },
    {
      "inputs": [
        {
          "internalType": "address",
          "name": "userUnderwater",
          "type": "address"
        },
        {
          "internalType": "address",
          "name": "liquidator",
          "type": "address"
        },
        {
          "internalType": "uint256",
          "name": "shortID",
          "type": "uint256"
        }
      ],
      "name": "liquidateUser",
      "outputs": [],
      "stateMutability": "nonpayable",
      "type": "function"
    },
    {
      "inputs": [
        {
          "internalType": "address",
          "name": "user",
          "type": "address"
        },
        {
          "internalType": "uint256",
          "name": "shortID",
          "type": "uint256"
        }
      ],
      "name": "getLiquidator",
      "outputs": [
        {
          "internalType": "address",
          "name": "liquidator",
          "type": "address"
        }
      ],
      "stateMutability": "view",
      "type": "function",
      "constant": true
    },
    {
      "inputs": [
        {
          "internalType": "address",
          "name": "user",
          "type": "address"
        }
      ],
      "name": "getTotalCollateral",
      "outputs": [
        {
          "internalType": "uint256",
          "name": "totalCollateral",
          "type": "uint256"
        }
      ],
      "stateMutability": "view",
      "type": "function",
      "constant": true
    },
    {
      "inputs": [
        {
          "internalType": "address",
          "name": "user",
          "type": "address"
        }
      ],
      "name": "checkRewards",
      "outputs": [
        {
          "internalType": "uint256",
          "name": "profits",
          "type": "uint256"
        }
      ],
      "stateMutability": "view",
      "type": "function",
      "constant": true
    },
    {
      "inputs": [],
      "name": "getGlobalRewards",
      "outputs": [
        {
          "internalType": "uint256",
          "name": "globals",
          "type": "uint256"
        }
      ],
      "stateMutability": "view",
      "type": "function",
      "constant": true
    },
    {
      "inputs": [
        {
          "internalType": "address",
          "name": "user",
          "type": "address"
        },
        {
          "internalType": "uint256",
          "name": "shortID",
          "type": "uint256"
        }
      ],
      "name": "getUserShortBalance",
      "outputs": [
        {
          "internalType": "uint256",
          "name": "bal",
          "type": "uint256"
        }
      ],
      "stateMutability": "view",
      "type": "function",
      "constant": true
    },
    {
      "inputs": [
        {
          "internalType": "address",
          "name": "user",
          "type": "address"
        },
        {
          "internalType": "uint256",
          "name": "shortID",
          "type": "uint256"
        }
      ],
      "name": "getUserEntryPrice",
      "outputs": [
        {
          "internalType": "uint256",
          "name": "entry",
          "type": "uint256"
        }
      ],
      "stateMutability": "view",
      "type": "function",
      "constant": true
    },
    {
      "inputs": [
        {
          "internalType": "address",
          "name": "user",
          "type": "address"
        },
        {
          "internalType": "uint256",
          "name": "shortID",
          "type": "uint256"
        }
      ],
      "name": "getUserShortBool",
      "outputs": [
        {
          "internalType": "bool",
          "name": "isShort",
          "type": "bool"
        }
      ],
      "stateMutability": "view",
      "type": "function",
      "constant": true
    },
    {
      "inputs": [
        {
          "internalType": "address",
          "name": "user",
          "type": "address"
        },
        {
          "internalType": "uint256",
          "name": "shortID",
          "type": "uint256"
        }
      ],
      "name": "getTokenAndFeeShortedByUser",
      "outputs": [
        {
          "internalType": "address",
          "name": "token",
          "type": "address"
        },
        {
          "internalType": "uint24",
          "name": "fee",
          "type": "uint24"
        }
      ],
      "stateMutability": "view",
      "type": "function",
      "constant": true
    },
    {
      "inputs": [
        {
          "internalType": "address",
          "name": "user",
          "type": "address"
        },
        {
          "internalType": "uint256",
          "name": "userShortID",
          "type": "uint256"
        }
      ],
      "name": "closeShortStandardPool",
      "outputs": [],
      "stateMutability": "nonpayable",
      "type": "function"
    }
  ],
  "bytecode": "0x60a06040523480156200001157600080fd5b5060405162003aca38038062003aca8339818101604052810190620000379190620002c5565b336000806101000a81548173ffffffffffffffffffffffffffffffffffffffff021916908373ffffffffffffffffffffffffffffffffffffffff1602179055508373ffffffffffffffffffffffffffffffffffffffff1660808173ffffffffffffffffffffffffffffffffffffffff168152505082600360006101000a81548173ffffffffffffffffffffffffffffffffffffffff021916908373ffffffffffffffffffffffffffffffffffffffff16021790555081600460006101000a81548173ffffffffffffffffffffffffffffffffffffffff021916908373ffffffffffffffffffffffffffffffffffffffff16021790555080600560006101000a81548173ffffffffffffffffffffffffffffffffffffffff021916908373ffffffffffffffffffffffffffffffffffffffff1602179055505050505062000337565b600080fd5b600073ffffffffffffffffffffffffffffffffffffffff82169050919050565b6000620001aa826200017d565b9050919050565b6000620001be826200019d565b9050919050565b620001d081620001b1565b8114620001dc57600080fd5b50565b600081519050620001f081620001c5565b92915050565b600062000203826200019d565b9050919050565b6200021581620001f6565b81146200022157600080fd5b50565b60008151905062000235816200020a565b92915050565b600062000248826200019d565b9050919050565b6200025a816200023b565b81146200026657600080fd5b50565b6000815190506200027a816200024f565b92915050565b60006200028d826200019d565b9050919050565b6200029f8162000280565b8114620002ab57600080fd5b50565b600081519050620002bf8162000294565b92915050565b60008060008060808587031215620002e257620002e162000178565b5b6000620002f287828801620001df565b9450506020620003058782880162000224565b9350506040620003188782880162000269565b92505060606200032b87828801620002ae565b91505092959194509250565b60805161375b6200036f600039600081816115ae0152818161168501528181611aa9015281816122a90152612380015261375b6000f3fe60806040526004361061014f5760003560e01c80637423031e116100b6578063aac28b541161006f578063aac28b54146104d6578063bc197c8114610513578063c31c9c0714610550578063db6623e11461057b578063ef1b3166146105b9578063f23a6e61146105e257610156565b80637423031e146103c057806380a0b0fc146103eb5780638da5cb5b146104165780639043292a14610441578063a29aa1141461046c578063a87430ba1461049757610156565b80630ea99f40116101085780630ea99f40146102a0578063372500ab146102c95780633762e995146102e0578063481fef8a1461031d5780635e1691361461034657806360a98b801461038357610156565b806301ee16321461015857806301ffc9a714610181578063028bdf7c146101be578063046ff0d3146101fb5780630775d9421461023857806309d3e9c31461026357610156565b3661015657005b005b34801561016457600080fd5b5061017f600480360381019061017a9190612564565b61061f565b005b34801561018d57600080fd5b506101a860048036038101906101a391906125fc565b610b7d565b6040516101b59190612644565b60405180910390f35b3480156101ca57600080fd5b506101e560048036038101906101e09190612564565b610bf7565b6040516101f29190612644565b60405180910390f35b34801561020757600080fd5b50610222600480360381019061021d919061265f565b610c62565b60405161022f919061269b565b60405180910390f35b34801561024457600080fd5b5061024d610c74565b60405161025a9190612715565b60405180910390f35b34801561026f57600080fd5b5061028a60048036038101906102859190612564565b610c9a565b604051610297919061269b565b60405180910390f35b3480156102ac57600080fd5b506102c760048036038101906102c29190612730565b610cf8565b005b3480156102d557600080fd5b506102de611019565b005b3480156102ec57600080fd5b5061030760048036038101906103029190612564565b611024565b6040516103149190612792565b60405180910390f35b34801561032957600080fd5b50610344600480360381019061033f91906127ad565b6110a5565b005b34801561035257600080fd5b5061036d60048036038101906103689190612564565b611205565b60405161037a919061269b565b60405180910390f35b34801561038f57600080fd5b506103aa60048036038101906103a5919061265f565b611263565b6040516103b7919061269b565b60405180910390f35b3480156103cc57600080fd5b506103d561132e565b6040516103e2919061269b565b60405180910390f35b3480156103f757600080fd5b50610400611334565b60405161040d919061269b565b60405180910390f35b34801561042257600080fd5b5061042b61133e565b6040516104389190612792565b60405180910390f35b34801561044d57600080fd5b50610456611362565b604051610463919061280e565b60405180910390f35b34801561047857600080fd5b50610481611388565b60405161048e919061284a565b60405180910390f35b3480156104a357600080fd5b506104be60048036038101906104b9919061265f565b6113ae565b6040516104cd93929190612865565b60405180910390f35b3480156104e257600080fd5b506104fd60048036038101906104f891906128d7565b6113d8565b60405161050a919061269b565b60405180910390f35b34801561051f57600080fd5b5061053a60048036038101906105359190612b4c565b611a92565b6040516105479190612c2a565b60405180910390f35b34801561055c57600080fd5b50610565611aa7565b6040516105729190612c66565b60405180910390f35b34801561058757600080fd5b506105a2600480360381019061059d9190612564565b611acb565b6040516105b0929190612c90565b60405180910390f35b3480156105c557600080fd5b506105e060048036038101906105db9190612cb9565b611bb0565b005b3480156105ee57600080fd5b5061060960048036038101906106049190612cf9565b611d75565b6040516106169190612c2a565b60405180910390f35b3373ffffffffffffffffffffffffffffffffffffffff168273ffffffffffffffffffffffffffffffffffffffff161461068d576040517f08c379a000000000000000000000000000000000000000000000000000000000815260040161068490612ded565b60405180910390fd5b60008061069a8484611acb565b915091506000600560009054906101000a900473ffffffffffffffffffffffffffffffffffffffff1673ffffffffffffffffffffffffffffffffffffffff1663ec3eb22384846040518363ffffffff1660e01b81526004016106fd929190612c90565b602060405180830381865afa15801561071a573d6000803e3d6000fd5b505050506040513d601f19601f8201168201806040525081019061073e9190612e22565b9050600360009054906101000a900473ffffffffffffffffffffffffffffffffffffffff1673ffffffffffffffffffffffffffffffffffffffff1663b9e17b7686866040518363ffffffff1660e01b815260040161079d929190612e4f565b600060405180830381600087803b1580156107b757600080fd5b505af11580156107cb573d6000803e3d6000fd5b5050505060008073__PnLCalculator_________________________63896b198a600160003373ffffffffffffffffffffffffffffffffffffffff1673ffffffffffffffffffffffffffffffffffffffff168152602001908152602001600020600301600089815260200190815260200160002054856040518363ffffffff1660e01b815260040161085e929190612e87565b6040805180830381865af415801561087a573d6000803e3d6000fd5b505050506040513d601f19601f8201168201806040525081019061089e9190612ee9565b60ff1691509150600081141561090c5781600160003373ffffffffffffffffffffffffffffffffffffffff1673ffffffffffffffffffffffffffffffffffffffff16815260200190815260200160002060000160008282546109009190612f58565b92505081905550610aaf565b6001811415610aae5781600160003373ffffffffffffffffffffffffffffffffffffffff1673ffffffffffffffffffffffffffffffffffffffff16815260200190815260200160002060000160008282546109679190612fae565b9250508190555060011515600160008973ffffffffffffffffffffffffffffffffffffffff1673ffffffffffffffffffffffffffffffffffffffff168152602001908152602001600020600801600088815260200190815260200160002060000160009054906101000a900460ff1615151415610a9357600060646032846109ef9190612fe2565b6109f9919061306b565b905060008184610a099190612fae565b90506000610a178a8a611024565b905081600160008373ffffffffffffffffffffffffffffffffffffffff1673ffffffffffffffffffffffffffffffffffffffff1681526020019081526020016000206000016000828254610a6b9190612f58565b925050819055508260026000828254610a849190612f58565b92505081905550505050610aad565b8160026000828254610aa59190612f58565b925050819055505b5b5b6000600160003373ffffffffffffffffffffffffffffffffffffffff1673ffffffffffffffffffffffffffffffffffffffff168152602001908152602001600020600701600088815260200190815260200160002060006101000a81548160ff0219169083151502179055506000600160003373ffffffffffffffffffffffffffffffffffffffff1673ffffffffffffffffffffffffffffffffffffffff16815260200190815260200160002060040160008881526020019081526020016000208190555050505050505050565b60007f4e2312e0000000000000000000000000000000000000000000000000000000007bffffffffffffffffffffffffffffffffffffffffffffffffffffffff1916827bffffffffffffffffffffffffffffffffffffffffffffffffffffffff19161480610bf05750610bef82611d8a565b5b9050919050565b6000600160008473ffffffffffffffffffffffffffffffffffffffff1673ffffffffffffffffffffffffffffffffffffffff168152602001908152602001600020600701600083815260200190815260200160002060009054906101000a900460ff16905092915050565b6000610c6d82611df4565b9050919050565b600560009054906101000a900473ffffffffffffffffffffffffffffffffffffffff1681565b6000600160008473ffffffffffffffffffffffffffffffffffffffff1673ffffffffffffffffffffffffffffffffffffffff168152602001908152602001600020600401600083815260200190815260200160002054905092915050565b600080610d058584611acb565b915091506000600560009054906101000a900473ffffffffffffffffffffffffffffffffffffffff1673ffffffffffffffffffffffffffffffffffffffff1663ec3eb22384846040518363ffffffff1660e01b8152600401610d68929190612c90565b602060405180830381865afa158015610d85573d6000803e3d6000fd5b505050506040513d601f19601f82011682018060405250810190610da99190612e22565b9050600081610db88887611205565b610dc29190612fae565b9050600060646005600160008b73ffffffffffffffffffffffffffffffffffffffff1673ffffffffffffffffffffffffffffffffffffffff16815260200190815260200160002060000154610e179190612fe2565b610e21919061306b565b9050600160008973ffffffffffffffffffffffffffffffffffffffff1673ffffffffffffffffffffffffffffffffffffffff168152602001908152602001600020600001548183610e729190612f58565b11610eb2576040517f08c379a0000000000000000000000000000000000000000000000000000000008152600401610ea9906130e8565b60405180910390fd5b60011515610ec08988610bf7565b151514610f02576040517f08c379a0000000000000000000000000000000000000000000000000000000008152600401610ef990613154565b60405180910390fd5b60018060008a73ffffffffffffffffffffffffffffffffffffffff1673ffffffffffffffffffffffffffffffffffffffff168152602001908152602001600020600801600088815260200190815260200160002060000160006101000a81548160ff02191690831515021790555086600160008a73ffffffffffffffffffffffffffffffffffffffff1673ffffffffffffffffffffffffffffffffffffffff168152602001908152602001600020600801600088815260200190815260200160002060000160016101000a81548173ffffffffffffffffffffffffffffffffffffffff021916908373ffffffffffffffffffffffffffffffffffffffff16021790555061100f888761061f565b5050505050505050565b61102233611f37565b565b6000600160008473ffffffffffffffffffffffffffffffffffffffff1673ffffffffffffffffffffffffffffffffffffffff168152602001908152602001600020600801600083815260200190815260200160002060000160019054906101000a900473ffffffffffffffffffffffffffffffffffffffff16905092915050565b736b175474e89094c44da98b954eedeac495271d0f73ffffffffffffffffffffffffffffffffffffffff168173ffffffffffffffffffffffffffffffffffffffff1614611127576040517f08c379a000000000000000000000000000000000000000000000000000000000815260040161111e906131c0565b60405180910390fd5b81600160003373ffffffffffffffffffffffffffffffffffffffff1673ffffffffffffffffffffffffffffffffffffffff16815260200190815260200160002060000160008282546111799190612f58565b925050819055508073ffffffffffffffffffffffffffffffffffffffff166323b872dd3330856040518463ffffffff1660e01b81526004016111bd939291906131e0565b6020604051808303816000875af11580156111dc573d6000803e3d6000fd5b505050506040513d601f19601f820116820180604052508101906112009190613243565b505050565b6000600160008473ffffffffffffffffffffffffffffffffffffffff1673ffffffffffffffffffffffffffffffffffffffff168152602001908152602001600020600301600083815260200190815260200160002054905092915050565b600080600090505b600160008473ffffffffffffffffffffffffffffffffffffffff1673ffffffffffffffffffffffffffffffffffffffff16815260200190815260200160002060020154811161132857600160008473ffffffffffffffffffffffffffffffffffffffff1673ffffffffffffffffffffffffffffffffffffffff168152602001908152602001600020600401600082815260200190815260200160002054826113139190612f58565b9150808061132090613270565b91505061126b565b50919050565b60025481565b6000600254905090565b60008054906101000a900473ffffffffffffffffffffffffffffffffffffffff1681565b600460009054906101000a900473ffffffffffffffffffffffffffffffffffffffff1681565b600360009054906101000a900473ffffffffffffffffffffffffffffffffffffffff1681565b60016020528060005260406000206000915090508060000154908060010154908060020154905083565b6000600160003373ffffffffffffffffffffffffffffffffffffffff1673ffffffffffffffffffffffffffffffffffffffff1681526020019081526020016000206000015485111561145f576040517f08c379a000000000000000000000000000000000000000000000000000000000815260040161145690613305565b60405180910390fd5b60018060003373ffffffffffffffffffffffffffffffffffffffff1673ffffffffffffffffffffffffffffffffffffffff16815260200190815260200160002060020160008282546114b19190612f58565b9250508190555060006114c333611263565b111561155757600160003373ffffffffffffffffffffffffffffffffffffffff1673ffffffffffffffffffffffffffffffffffffffff1681526020019081526020016000206000015461151533611263565b1115611556576040517f08c379a000000000000000000000000000000000000000000000000000000000815260040161154d90613305565b60405180910390fd5b5b60006064605f876115689190612fe2565b611572919061306b565b9050611594736b175474e89094c44da98b954eedeac495271d0f333089611ff4565b6115d3736b175474e89094c44da98b954eedeac495271d0f7f00000000000000000000000000000000000000000000000000000000000000008861214c565b6000604051806101000160405280736b175474e89094c44da98b954eedeac495271d0f73ffffffffffffffffffffffffffffffffffffffff1681526020018773ffffffffffffffffffffffffffffffffffffffff1681526020018662ffffff1681526020013073ffffffffffffffffffffffffffffffffffffffff168152602001428152602001838152602001858152602001600073ffffffffffffffffffffffffffffffffffffffff1681525090507f000000000000000000000000000000000000000000000000000000000000000073ffffffffffffffffffffffffffffffffffffffff1663414bf389826040518263ffffffff1660e01b81526004016116dc9190613403565b6020604051808303816000875af11580156116fb573d6000803e3d6000fd5b505050506040513d601f19601f8201168201806040525081019061171f9190612e22565b92506000600560009054906101000a900473ffffffffffffffffffffffffffffffffffffffff1673ffffffffffffffffffffffffffffffffffffffff1663ec3eb22388886040518363ffffffff1660e01b8152600401611780929190612c90565b602060405180830381865afa15801561179d573d6000803e3d6000fd5b505050506040513d601f19601f820116820180604052508101906117c19190612e22565b90506117d133888389888a6122a1565b5080600160003373ffffffffffffffffffffffffffffffffffffffff1673ffffffffffffffffffffffffffffffffffffffff1681526020019081526020016000206003016000600160003373ffffffffffffffffffffffffffffffffffffffff1673ffffffffffffffffffffffffffffffffffffffff1681526020019081526020016000206002015481526020019081526020016000208190555083600160003373ffffffffffffffffffffffffffffffffffffffff1673ffffffffffffffffffffffffffffffffffffffff1681526020019081526020016000206004016000600160003373ffffffffffffffffffffffffffffffffffffffff1673ffffffffffffffffffffffffffffffffffffffff1681526020019081526020016000206002015481526020019081526020016000208190555060018060003373ffffffffffffffffffffffffffffffffffffffff1673ffffffffffffffffffffffffffffffffffffffff1681526020019081526020016000206007016000600160003373ffffffffffffffffffffffffffffffffffffffff1673ffffffffffffffffffffffffffffffffffffffff16815260200190815260200160002060020154815260200190815260200160002060006101000a81548160ff02191690831515021790555086600160003373ffffffffffffffffffffffffffffffffffffffff1673ffffffffffffffffffffffffffffffffffffffff1681526020019081526020016000206005016000600160003373ffffffffffffffffffffffffffffffffffffffff1673ffffffffffffffffffffffffffffffffffffffff16815260200190815260200160002060020154815260200190815260200160002060006101000a81548173ffffffffffffffffffffffffffffffffffffffff021916908373ffffffffffffffffffffffffffffffffffffffff160217905550505050949350505050565b600063bc197c8160e01b905095945050505050565b7f000000000000000000000000000000000000000000000000000000000000000081565b600080600160008573ffffffffffffffffffffffffffffffffffffffff1673ffffffffffffffffffffffffffffffffffffffff168152602001908152602001600020600501600084815260200190815260200160002060009054906101000a900473ffffffffffffffffffffffffffffffffffffffff169150600160008573ffffffffffffffffffffffffffffffffffffffff1673ffffffffffffffffffffffffffffffffffffffff168152602001908152602001600020600601600084815260200190815260200160002060009054906101000a900462ffffff1690509250929050565b600160003373ffffffffffffffffffffffffffffffffffffffff1673ffffffffffffffffffffffffffffffffffffffff16815260200190815260200160002060000154821115611c35576040517f08c379a0000000000000000000000000000000000000000000000000000000008152600401611c2c90613491565b60405180910390fd5b60001515611c433383610bf7565b151514611c85576040517f08c379a0000000000000000000000000000000000000000000000000000000008152600401611c7c90613549565b60405180910390fd5b81600160003373ffffffffffffffffffffffffffffffffffffffff1673ffffffffffffffffffffffffffffffffffffffff1681526020019081526020016000206000016000828254611cd79190612fae565b92505081905550736b175474e89094c44da98b954eedeac495271d0f73ffffffffffffffffffffffffffffffffffffffff1663a9059cbb33846040518363ffffffff1660e01b8152600401611d2d929190612e4f565b6020604051808303816000875af1158015611d4c573d6000803e3d6000fd5b505050506040513d601f19601f82011682018060405250810190611d709190613243565b505050565b600063f23a6e6160e01b905095945050505050565b60007f01ffc9a7000000000000000000000000000000000000000000000000000000007bffffffffffffffffffffffffffffffffffffffffffffffffffffffff1916827bffffffffffffffffffffffffffffffffffffffffffffffffffffffff1916149050919050565b600080600160008473ffffffffffffffffffffffffffffffffffffffff1673ffffffffffffffffffffffffffffffffffffffff16815260200190815260200160002060010154600254611e479190612fae565b9050736b175474e89094c44da98b954eedeac495271d0f73ffffffffffffffffffffffffffffffffffffffff166370a08231306040518263ffffffff1660e01b8152600401611e969190612792565b602060405180830381865afa158015611eb3573d6000803e3d6000fd5b505050506040513d601f19601f82011682018060405250810190611ed79190612e22565b81600160008673ffffffffffffffffffffffffffffffffffffffff1673ffffffffffffffffffffffffffffffffffffffff16815260200190815260200160002060000154611f259190612fe2565b611f2f919061306b565b915050919050565b6000611f4282611df4565b90506000811115611ff05780600160008473ffffffffffffffffffffffffffffffffffffffff1673ffffffffffffffffffffffffffffffffffffffff1681526020019081526020016000206000016000828254611f9f9190612f58565b92505081905550600254600160008473ffffffffffffffffffffffffffffffffffffffff1673ffffffffffffffffffffffffffffffffffffffff168152602001908152602001600020600101819055505b5050565b6000808573ffffffffffffffffffffffffffffffffffffffff166323b872dd60e01b86868660405160240161202b939291906131e0565b604051602081830303815290604052907bffffffffffffffffffffffffffffffffffffffffffffffffffffffff19166020820180517bffffffffffffffffffffffffffffffffffffffffffffffffffffffff838183161783525050505060405161209591906135e3565b6000604051808303816000865af19150503d80600081146120d2576040519150601f19603f3d011682016040523d82523d6000602084013e6120d7565b606091505b509150915081801561210557506000815114806121045750808060200190518101906121039190613243565b5b5b612144576040517f08c379a000000000000000000000000000000000000000000000000000000000815260040161213b90613646565b60405180910390fd5b505050505050565b6000808473ffffffffffffffffffffffffffffffffffffffff1663095ea7b360e01b8585604051602401612181929190612e4f565b604051602081830303815290604052907bffffffffffffffffffffffffffffffffffffffffffffffffffffffff19166020820180517bffffffffffffffffffffffffffffffffffffffffffffffffffffffff83818316178352505050506040516121eb91906135e3565b6000604051808303816000865af19150503d8060008114612228576040519150601f19603f3d011682016040523d82523d6000602084013e61222d565b606091505b509150915081801561225b575060008151148061225a5750808060200190518101906122599190613243565b5b5b61229a576040517f08c379a0000000000000000000000000000000000000000000000000000000008152600401612291906136b2565b60405180910390fd5b5050505050565b60006122ce867f00000000000000000000000000000000000000000000000000000000000000008561214c565b60006040518061010001604052808873ffffffffffffffffffffffffffffffffffffffff168152602001736b175474e89094c44da98b954eedeac495271d0f73ffffffffffffffffffffffffffffffffffffffff1681526020018662ffffff1681526020013073ffffffffffffffffffffffffffffffffffffffff168152602001428152602001858152602001848152602001600073ffffffffffffffffffffffffffffffffffffffff1681525090507f000000000000000000000000000000000000000000000000000000000000000073ffffffffffffffffffffffffffffffffffffffff1663414bf389826040518263ffffffff1660e01b81526004016123d79190613403565b6020604051808303816000875af11580156123f6573d6000803e3d6000fd5b505050506040513d601f19601f8201168201806040525081019061241a9190612e22565b9150600360009054906101000a900473ffffffffffffffffffffffffffffffffffffffff1673ffffffffffffffffffffffffffffffffffffffff1663c25df92d8930878b8b6040518663ffffffff1660e01b815260040161247f9594939291906136d2565b600060405180830381600087803b15801561249957600080fd5b505af11580156124ad573d6000803e3d6000fd5b50505050509695505050505050565b6000604051905090565b600080fd5b600080fd5b600073ffffffffffffffffffffffffffffffffffffffff82169050919050565b60006124fb826124d0565b9050919050565b61250b816124f0565b811461251657600080fd5b50565b60008135905061252881612502565b92915050565b6000819050919050565b6125418161252e565b811461254c57600080fd5b50565b60008135905061255e81612538565b92915050565b6000806040838503121561257b5761257a6124c6565b5b600061258985828601612519565b925050602061259a8582860161254f565b9150509250929050565b60007fffffffff0000000000000000000000000000000000000000000000000000000082169050919050565b6125d9816125a4565b81146125e457600080fd5b50565b6000813590506125f6816125d0565b92915050565b600060208284031215612612576126116124c6565b5b6000612620848285016125e7565b91505092915050565b60008115159050919050565b61263e81612629565b82525050565b60006020820190506126596000830184612635565b92915050565b600060208284031215612675576126746124c6565b5b600061268384828501612519565b91505092915050565b6126958161252e565b82525050565b60006020820190506126b0600083018461268c565b92915050565b6000819050919050565b60006126db6126d66126d1846124d0565b6126b6565b6124d0565b9050919050565b60006126ed826126c0565b9050919050565b60006126ff826126e2565b9050919050565b61270f816126f4565b82525050565b600060208201905061272a6000830184612706565b92915050565b600080600060608486031215612749576127486124c6565b5b600061275786828701612519565b935050602061276886828701612519565b92505060406127798682870161254f565b9150509250925092565b61278c816124f0565b82525050565b60006020820190506127a76000830184612783565b92915050565b600080604083850312156127c4576127c36124c6565b5b60006127d28582860161254f565b92505060206127e385828601612519565b9150509250929050565b60006127f8826126e2565b9050919050565b612808816127ed565b82525050565b600060208201905061282360008301846127ff565b92915050565b6000612834826126e2565b9050919050565b61284481612829565b82525050565b600060208201905061285f600083018461283b565b92915050565b600060608201905061287a600083018661268c565b612887602083018561268c565b612894604083018461268c565b949350505050565b600062ffffff82169050919050565b6128b48161289c565b81146128bf57600080fd5b50565b6000813590506128d1816128ab565b92915050565b600080600080608085870312156128f1576128f06124c6565b5b60006128ff8782880161254f565b945050602061291087828801612519565b9350506040612921878288016128c2565b92505060606129328782880161254f565b91505092959194509250565b600080fd5b6000601f19601f8301169050919050565b7f4e487b7100000000000000000000000000000000000000000000000000000000600052604160045260246000fd5b61298c82612943565b810181811067ffffffffffffffff821117156129ab576129aa612954565b5b80604052505050565b60006129be6124bc565b90506129ca8282612983565b919050565b600067ffffffffffffffff8211156129ea576129e9612954565b5b602082029050602081019050919050565b600080fd5b6000612a13612a0e846129cf565b6129b4565b90508083825260208201905060208402830185811115612a3657612a356129fb565b5b835b81811015612a5f5780612a4b888261254f565b845260208401935050602081019050612a38565b5050509392505050565b600082601f830112612a7e57612a7d61293e565b5b8135612a8e848260208601612a00565b91505092915050565b600080fd5b600067ffffffffffffffff821115612ab757612ab6612954565b5b612ac082612943565b9050602081019050919050565b82818337600083830152505050565b6000612aef612aea84612a9c565b6129b4565b905082815260208101848484011115612b0b57612b0a612a97565b5b612b16848285612acd565b509392505050565b600082601f830112612b3357612b3261293e565b5b8135612b43848260208601612adc565b91505092915050565b600080600080600060a08688031215612b6857612b676124c6565b5b6000612b7688828901612519565b9550506020612b8788828901612519565b945050604086013567ffffffffffffffff811115612ba857612ba76124cb565b5b612bb488828901612a69565b935050606086013567ffffffffffffffff811115612bd557612bd46124cb565b5b612be188828901612a69565b925050608086013567ffffffffffffffff811115612c0257612c016124cb565b5b612c0e88828901612b1e565b9150509295509295909350565b612c24816125a4565b82525050565b6000602082019050612c3f6000830184612c1b565b92915050565b6000612c50826126e2565b9050919050565b612c6081612c45565b82525050565b6000602082019050612c7b6000830184612c57565b92915050565b612c8a8161289c565b82525050565b6000604082019050612ca56000830185612783565b612cb26020830184612c81565b9392505050565b60008060408385031215612cd057612ccf6124c6565b5b6000612cde8582860161254f565b9250506020612cef8582860161254f565b9150509250929050565b600080600080600060a08688031215612d1557612d146124c6565b5b6000612d2388828901612519565b9550506020612d3488828901612519565b9450506040612d458882890161254f565b9350506060612d568882890161254f565b925050608086013567ffffffffffffffff811115612d7757612d766124cb565b5b612d8388828901612b1e565b9150509295509295909350565b600082825260208201905092915050565b7f434c4f53453a204e6f7420796f757220706f736974696f6e0000000000000000600082015250565b6000612dd7601883612d90565b9150612de282612da1565b602082019050919050565b60006020820190508181036000830152612e0681612dca565b9050919050565b600081519050612e1c81612538565b92915050565b600060208284031215612e3857612e376124c6565b5b6000612e4684828501612e0d565b91505092915050565b6000604082019050612e646000830185612783565b612e71602083018461268c565b9392505050565b612e818161252e565b82525050565b6000604082019050612e9c6000830185612e78565b612ea96020830184612e78565b9392505050565b600060ff82169050919050565b612ec681612eb0565b8114612ed157600080fd5b50565b600081519050612ee381612ebd565b92915050565b60008060408385031215612f0057612eff6124c6565b5b6000612f0e85828601612e0d565b9250506020612f1f85828601612ed4565b9150509250929050565b7f4e487b7100000000000000000000000000000000000000000000000000000000600052601160045260246000fd5b6000612f638261252e565b9150612f6e8361252e565b9250827fffffffffffffffffffffffffffffffffffffffffffffffffffffffffffffffff03821115612fa357612fa2612f29565b5b828201905092915050565b6000612fb98261252e565b9150612fc48361252e565b925082821015612fd757612fd6612f29565b5b828203905092915050565b6000612fed8261252e565b9150612ff88361252e565b9250817fffffffffffffffffffffffffffffffffffffffffffffffffffffffffffffffff048311821515161561303157613030612f29565b5b828202905092915050565b7f4e487b7100000000000000000000000000000000000000000000000000000000600052601260045260246000fd5b60006130768261252e565b91506130818361252e565b9250826130915761309061303c565b5b828204905092915050565b7f4c49513a204163636f756e74206e6f7420696e2064726177646f776e00000000600082015250565b60006130d2601c83612d90565b91506130dd8261309c565b602082019050919050565b60006020820190508181036000830152613101816130c5565b9050919050565b7f4c49513a20506f736974696f6e206e6f74206163746976650000000000000000600082015250565b600061313e601883612d90565b915061314982613108565b602082019050919050565b6000602082019050818103600083015261316d81613131565b9050919050565b7f5354414e4441524420504f4f4c3a204e6f742044414900000000000000000000600082015250565b60006131aa601683612d90565b91506131b582613174565b602082019050919050565b600060208201905081810360008301526131d98161319d565b9050919050565b60006060820190506131f56000830186612783565b6132026020830185612783565b61320f604083018461268c565b949350505050565b61322081612629565b811461322b57600080fd5b50565b60008151905061323d81613217565b92915050565b600060208284031215613259576132586124c6565b5b60006132678482850161322e565b91505092915050565b600061327b8261252e565b91507fffffffffffffffffffffffffffffffffffffffffffffffffffffffffffffffff8214156132ae576132ad612f29565b5b600182019050919050565b7f535741503a206e6f7420656e6f75676820636f6c6c61746572616c0000000000600082015250565b60006132ef601b83612d90565b91506132fa826132b9565b602082019050919050565b6000602082019050818103600083015261331e816132e2565b9050919050565b61332e816124f0565b82525050565b61333d8161289c565b82525050565b61334c8161252e565b82525050565b61335b816124d0565b82525050565b610100820160008201516133786000850182613325565b50602082015161338b6020850182613325565b50604082015161339e6040850182613334565b5060608201516133b16060850182613325565b5060808201516133c46080850182613343565b5060a08201516133d760a0850182613343565b5060c08201516133ea60c0850182613343565b5060e08201516133fd60e0850182613352565b50505050565b6000610100820190506134196000830184613361565b92915050565b7f434f4c4c41544552414c3a20747279696e6720746f207769746864726177206d60008201527f6f726520636f6c6c61746572616c207468616e206465706f7369746564000000602082015250565b600061347b603d83612d90565b91506134868261341f565b604082019050919050565b600060208201905081810360008301526134aa8161346e565b9050919050565b7f434f4c4c41544552414c3a20636c6f736520796f75722063757272656e74207060008201527f6f736974696f6e206265666f726520747279696e6720746f207769746864726160208201527f7700000000000000000000000000000000000000000000000000000000000000604082015250565b6000613533604183612d90565b915061353e826134b1565b606082019050919050565b6000602082019050818103600083015261356281613526565b9050919050565b600081519050919050565b600081905092915050565b60005b8381101561359d578082015181840152602081019050613582565b838111156135ac576000848401525b50505050565b60006135bd82613569565b6135c78185613574565b93506135d781856020860161357f565b80840191505092915050565b60006135ef82846135b2565b915081905092915050565b7f5354460000000000000000000000000000000000000000000000000000000000600082015250565b6000613630600383612d90565b915061363b826135fa565b602082019050919050565b6000602082019050818103600083015261365f81613623565b9050919050565b7f5341000000000000000000000000000000000000000000000000000000000000600082015250565b600061369c600283612d90565b91506136a782613666565b602082019050919050565b600060208201905081810360008301526136cb8161368f565b9050919050565b600060a0820190506136e76000830188612783565b6136f46020830187612783565b613701604083018661268c565b61370e6060830185612783565b61371b608083018461268c565b969550505050505056fea26469706673582212203adaea864e2d5e7c45013cba64bb43e6d3efc9a65970b6f69fad841e1abe6b9d64736f6c634300080b0033",
  "immutableReferences": {
    "3369": [
      {
        "length": 32,
        "start": 5550
      },
      {
        "length": 32,
        "start": 5765
      },
      {
        "length": 32,
        "start": 6825
      },
      {
        "length": 32,
        "start": 8873
      },
      {
        "length": 32,
        "start": 9088
      }
    ]
  },
  "source": "// SPDX-License-Identifier: MIT\npragma solidity ^0.8.0; //solhint-disable compiler-fixed\npragma abicoder v2;\n\n\nimport \"@openzeppelin/contracts/token/ERC1155/IERC1155.sol\";\nimport \"@openzeppelin/contracts/token/ERC1155/utils/ERC1155Holder.sol\";\nimport \"@uniswap/v3-periphery/contracts/interfaces/ISwapRouter.sol\";\nimport \"@uniswap/v3-periphery/contracts/libraries/TransferHelper.sol\";\nimport \"@openzeppelin/contracts/token/ERC20/IERC20.sol\";\nimport \"@uniswap/v3-core/contracts/interfaces/IUniswapV3Pool.sol\";\nimport \"./BeraWrapper.sol\";\nimport \"./ancillary/PnLCalculator.sol\";\nimport \"./ancillary/TWAPoracle.sol\";\nimport \"./ancillary/SwapOracle.sol\";\n\n\ncontract BeraPoolStandardRisk is ERC1155Holder {\n\n    address public owner;\n\n    mapping(address => Account) public users;\n\n    struct Liquidation {\n        bool wasLiquidated;\n        address liquidator;\n    }\n\n    struct Account {\n        uint userDepositBalance;\n        uint lastClaimedRewards;\n        uint userShortID;\n        mapping(uint => uint) entryPrice;\n        mapping(uint => uint) userShortBalanceByID;\n        mapping(uint => address) tokenShortedByPositionID;\n        mapping(uint => uint24) poolFeeByPositionID;\n        mapping(uint => bool) isPositionInShort;\n        mapping(uint => Liquidation) liqData;\n    }\n\n    uint public globalRewards;\n\n    address private constant DAI_ADDRESS = 0x6B175474E89094C44Da98b954EedeAC495271d0F;\n\n    ISwapRouter public immutable swapRouter;\n    BeraWrapper public beraWrapper;\n    TWAPOracle public twapOracle;\n    SwapOracle public swapOracle;\n\n    constructor(ISwapRouter _swapRouter,\n        BeraWrapper _beraWrapper,\n        TWAPOracle _twapOracle,\n        SwapOracle _swapOracle) { //solhint-disable func-visibility\n        owner = msg.sender;\n        swapRouter = _swapRouter;\n        beraWrapper = _beraWrapper;\n        twapOracle = _twapOracle;\n        swapOracle = _swapOracle;\n    }\n\n    function depositCollateral(uint amount, address collateral) external {\n        require(IERC20(collateral) == IERC20(DAI_ADDRESS), \"STANDARD POOL: Not DAI\");\n\n        //used for withdrawl later\n        users[msg.sender].userDepositBalance += amount;\n\n        //transfer DAI to this contract\n        IERC20(collateral).transferFrom(msg.sender, address(this), amount);\n    }\n\n    function withdrawFromPool(uint amount, uint userShortID) external {\n        require(amount <= users[msg.sender].userDepositBalance,\n            \"COLLATERAL: trying to withdraw more collateral than deposited\");\n\n        //checking if the funds locked in the position have been released before allowing them to be withdrawn\n        require(getUserShortBool(msg.sender, userShortID) == false,\n            \"COLLATERAL: close your current position before trying to withdraw\");\n\n        //reset balance of user on withdraw\n        users[msg.sender].userDepositBalance -= amount;\n\n        IERC20(DAI_ADDRESS).transfer(msg.sender, amount);\n    }\n\n    //used to claim the profit rewards from collecting trader losses in this pool\n    function claimRewards() external {\n        sendOwedProfits(msg.sender);\n    }\n\n    // deposit collateral into user account before being allowed to short\n    // amount refers to how much dai to swap for amountOut of the token the user\n    // wants to short\n    //\n    // will likely have to split the logic for the function up, she's getting pretty chonky\n    function swapAndShortStandard(\n            uint amount,\n            address tokenToShort,\n            uint24 poolFee, //needed for uniswap pool\n            uint amountOutMin)\n            external returns(uint amountOut) { //solhint-disable function-max-lines\n                require(amount <= users[msg.sender].userDepositBalance, \"SWAP: not enough collateral\");\n\n                //by default uints are initialized at 0 so this should work???\n                users[msg.sender].userShortID += 1;\n\n                //get total amount of collateral in shorts if user has opened a position before\n                if (getTotalCollateral(msg.sender) > 0) {\n                    require(getTotalCollateral(msg.sender) <= users[msg.sender].userDepositBalance,\n                        \"SWAP: not enough collateral\");\n                }\n\n                //5% is kept as fee to protocol to assist in paying out users\n                uint amountToSend = amount * 95 / 100;\n\n                TransferHelper.safeTransferFrom(DAI_ADDRESS, msg.sender, address(this), amount);\n                TransferHelper.safeApprove(DAI_ADDRESS, address(swapRouter), amount);\n\n                ISwapRouter.ExactInputSingleParams memory params =\n                ISwapRouter.ExactInputSingleParams({\n                    tokenIn: DAI_ADDRESS,\n                    tokenOut: tokenToShort,\n                    fee: poolFee,\n                    recipient: address(this),\n                    deadline: block.timestamp, //solhint-disable not-rely-on-time\n                    amountIn: amountToSend,\n                    amountOutMinimum: amountOutMin,\n                    sqrtPriceLimitX96: 0\n                });\n\n                //execute the frist swap\n                amountOut = swapRouter.exactInputSingle(params);\n\n                //get TWAP price (3 min)\n                //destructure pool request\n                uint priceAtWrap =\n                    swapOracle.getSwapPrice(\n                        tokenToShort,\n                        poolFee\n                    );\n\n                //execute the second swap and transfer funds to pool for holding\n                //this is the swap that creates the actual 'short' position for the user on-chain\n                _shortForUser(\n                    msg.sender,\n                    tokenToShort,\n                    priceAtWrap,\n                    poolFee,\n                    amountOut,\n                    amountOutMin\n                );\n\n                //TODO REFACTOR: can update user data in one internal function // maybe //\n\n                //update entry price mapping\n                //this stores the entry price of msg.sender for this specific shortID of the sender\n                //nested mappings look cringe but are efficient\n                users[msg.sender].entryPrice[users[msg.sender].userShortID] = priceAtWrap;\n\n                //update user balance of the user current positionID\n                //this is used to keep track of how much of the users deposit is currently being used\n                users[msg.sender].userShortBalanceByID[users[msg.sender].userShortID] = amountOut;\n\n                //update userPositionNumber current short status\n                // inShort[msg.sender][userShortID[msg.sender]] = true;\n                users[msg.sender].isPositionInShort[users[msg.sender].userShortID] = true;\n\n                users[msg.sender].tokenShortedByPositionID[users[msg.sender].userShortID]\n                    = tokenToShort;\n            }\n\n    // if you are reading this comment, this is a way for you to make some money\n    // and keep the protocol alive and kicking\n    // keep in mind that you need to have deposited collateral to receive rewards\n    function liquidateUser(address userUnderwater, address liquidator, uint shortID) external {\n        //get entry price by shortID and subtract by current price\n        (address token, uint24 fee) = getTokenAndFeeShortedByUser(userUnderwater, shortID);\n        uint currentPrice = swapOracle.getSwapPrice(\n                token,\n                fee\n            );\n        uint drawdown = getUserEntryPrice(userUnderwater, shortID) - currentPrice;\n        //give the users a 5% buffer on their deposit amount before they can be liquidated\n        uint buffer = users[userUnderwater].userDepositBalance * 5 / 100;\n        require(drawdown + buffer > users[userUnderwater].userDepositBalance, \"LIQ: Account not in drawdown\");\n        require(getUserShortBool(userUnderwater, shortID) == true, \"LIQ: Position not active\");\n\n        users[userUnderwater].liqData[shortID].wasLiquidated = true;\n        users[userUnderwater].liqData[shortID].liquidator = liquidator;\n\n        closeShortStandardPool(userUnderwater, shortID);\n    }\n\n    function getLiquidator(address user, uint shortID) public view returns(address liquidator) {\n        return users[user].liqData[shortID].liquidator;\n    }\n\n    function getTotalCollateral(address user) public view returns(uint totalCollateral) {\n        for (uint i = 0; i <= users[user].userShortID; i++) {\n            totalCollateral += users[user].userShortBalanceByID[i];\n        }\n        return (totalCollateral);\n    }\n\n    function checkRewards(address user) public view returns(uint profits) {\n        return profits = checkOwedProfits(user);\n    }\n\n    function getGlobalRewards() public view returns(uint globals) {\n        return globals = globalRewards;\n    }\n\n    function getUserShortBalance(address user, uint shortID) public view returns(uint bal) {\n        return bal = users[user].userShortBalanceByID[shortID];\n    }\n\n    function getUserEntryPrice(address user, uint shortID) public view returns(uint entry) {\n        return entry = users[user].entryPrice[shortID];\n    }\n\n    function getUserShortBool(address user, uint shortID) public view returns(bool isShort) {\n        return isShort = users[user].isPositionInShort[shortID];\n    }\n\n    function getTokenAndFeeShortedByUser(address user, uint shortID) public view returns(address token, uint24 fee) {\n        token = users[user].tokenShortedByPositionID[shortID];\n        fee = uint24(users[user].poolFeeByPositionID[shortID]);\n        return (token, fee);\n    }\n\n    //TODO\n    //contract already has the DAI needed to close the trade, can just check the price and\n    //calculate the difference between the opening and closing prices, no need for expensive swaps\n    //in the standardPool contract\n    function closeShortStandardPool(\n        address user,\n        uint userShortID)\n        public {\n            require(user == msg.sender, \"CLOSE: Not your position\");\n\n            //get price at pool for shortBal of positionID\n            (address token, uint24 fee) = getTokenAndFeeShortedByUser(user, userShortID);\n            uint priceAtClose = swapOracle.getSwapPrice(\n                    token,\n                    fee\n                );\n\n            beraWrapper.unwrapPosition(user, userShortID);\n\n            //calculate position balance using entryPrice - current price\n            //returnValue of 0 indicates a winning trade, while 1 indicates a loss\n            (uint amountPNL, uint returnValue) =\n            PnLCalculator.calculatePNL(users[msg.sender].entryPrice[userShortID], priceAtClose);\n\n            //if user has made money, we update their balance directly\n            //keeping in mind that dai is always stored in this contract and will only be transfered\n            //out on withdrawl\n            if (returnValue == 0) {\n                users[msg.sender].userDepositBalance += amountPNL;\n            } else if (returnValue == 1) {\n                users[msg.sender].userDepositBalance -= amountPNL;\n                //experimental liquidation logic //kinda dogshit ngl\n                if (users[user].liqData[userShortID].wasLiquidated == true) {\n                    uint newPNL = amountPNL * 50 / 100;\n                    uint toLiquidator = amountPNL - newPNL;\n                    address liquidator = getLiquidator(user, userShortID);\n                    users[liquidator].userDepositBalance += toLiquidator;\n                    globalRewards += newPNL;\n                } else {\n                    //distribute loss amongst users in pool\n                    globalRewards += amountPNL;\n                }\n            }\n\n            //update current userPositionNumber to free withdraws of these specific funds\n            //v0.5 does not support anything other than full position closing\n            users[msg.sender].isPositionInShort[userShortID] = false;\n            users[msg.sender].userShortBalanceByID[userShortID] = 0;\n        }\n\n    // amount here refers to how much of the token shorted is passed back into the swapRouter\n    function _shortForUser(\n        address user,\n        address tokenToShort,\n        uint priceAtWrap,\n        uint24 poolFee,\n        uint amount,\n        uint amountOutMin) internal returns(uint amountOut) {\n\n        TransferHelper.safeApprove(tokenToShort, address(swapRouter), amount);\n\n        //now that this contract has the desired token to short, we sell @ market back for DAI\n        ISwapRouter.ExactInputSingleParams memory tokenParams =\n        ISwapRouter.ExactInputSingleParams({\n            tokenIn: tokenToShort,\n            tokenOut: DAI_ADDRESS,\n            fee: poolFee,\n            recipient: address(this), //the pool contract will store both DAI from deposits and tokenOut\n            deadline: block.timestamp, //solhint-disable not-rely-on-time\n            amountIn: amount,\n            amountOutMinimum: amountOutMin,\n            sqrtPriceLimitX96: 0\n        });\n\n        // execute the short, amountOut is now back to dai\n        amountOut = swapRouter.exactInputSingle(tokenParams);\n\n        //wrap position in ERC1155\n        beraWrapper.wrapPosition(user, address(this), amount, tokenToShort, priceAtWrap);\n    }\n\n    //the percentage reward is based on the last time they claimed vs the total reward calculated\n    //this will allow us to avoid using a loop for reward distribution\n    //and allow users to pull their own rewards when they want\n    function checkOwedProfits(address user) internal view returns (uint) {\n        uint percentageReward = globalRewards - users[user].lastClaimedRewards;\n        return users[user].userDepositBalance * percentageReward / IERC20(DAI_ADDRESS).balanceOf(address(this));\n    }\n\n    function sendOwedProfits(address user) internal {\n        uint owed = checkOwedProfits(user);\n        if (owed > 0) {\n            users[user].userDepositBalance += owed;\n            users[user].lastClaimedRewards = globalRewards;\n        }\n    }\n\n    receive() external payable { //solhint-disable state-visibility\n\n}\n\n    fallback() external payable { //solhint-disable\n\n}\n\n}\n",
  "sourcePath": "/home/kevin/Code/solidity_projects/beraMarket/contracts/BeraPoolStandardRisk.sol",
  "compiler": {
    "name": "solc",
    "version": "0.8.11+commit.d7f03943.Emscripten.clang"
  },
  "schemaVersion": "3.4.3",
  "updatedAt": "2022-01-03T00:45:43.389Z",
  "networkType": "ethereum",
  "devdoc": {
    "kind": "dev",
    "methods": {
      "supportsInterface(bytes4)": {
        "details": "See {IERC165-supportsInterface}."
      }
    },
    "version": 1
  },
  "userdoc": {
    "kind": "user",
    "methods": {},
    "version": 1
  }
}