{
  "contractName": "BeraPoolStandardRisk",
  "abi": [
    {
      "inputs": [
        {
          "internalType": "contract ISwapRouter",
          "name": "_swapRouter",
          "type": "address"
        },
        {
          "internalType": "contract BeraWrapper",
          "name": "_beraWrapper",
          "type": "address"
        }
      ],
      "stateMutability": "nonpayable",
      "type": "constructor"
    },
    {
      "inputs": [],
      "name": "beraWrapper",
      "outputs": [
        {
          "internalType": "contract BeraWrapper",
          "name": "",
          "type": "address"
        }
      ],
      "stateMutability": "view",
      "type": "function",
      "constant": true
    },
    {
      "inputs": [
        {
          "internalType": "address",
          "name": "",
          "type": "address"
        },
        {
          "internalType": "address",
          "name": "",
          "type": "address"
        },
        {
          "internalType": "uint256[]",
          "name": "",
          "type": "uint256[]"
        },
        {
          "internalType": "uint256[]",
          "name": "",
          "type": "uint256[]"
        },
        {
          "internalType": "bytes",
          "name": "",
          "type": "bytes"
        }
      ],
      "name": "onERC1155BatchReceived",
      "outputs": [
        {
          "internalType": "bytes4",
          "name": "",
          "type": "bytes4"
        }
      ],
      "stateMutability": "nonpayable",
      "type": "function"
    },
    {
      "inputs": [
        {
          "internalType": "address",
          "name": "",
          "type": "address"
        },
        {
          "internalType": "address",
          "name": "",
          "type": "address"
        },
        {
          "internalType": "uint256",
          "name": "",
          "type": "uint256"
        },
        {
          "internalType": "uint256",
          "name": "",
          "type": "uint256"
        },
        {
          "internalType": "bytes",
          "name": "",
          "type": "bytes"
        }
      ],
      "name": "onERC1155Received",
      "outputs": [
        {
          "internalType": "bytes4",
          "name": "",
          "type": "bytes4"
        }
      ],
      "stateMutability": "nonpayable",
      "type": "function"
    },
    {
      "inputs": [],
      "name": "owner",
      "outputs": [
        {
          "internalType": "address",
          "name": "",
          "type": "address"
        }
      ],
      "stateMutability": "view",
      "type": "function",
      "constant": true
    },
    {
      "inputs": [
        {
          "internalType": "bytes4",
          "name": "interfaceId",
          "type": "bytes4"
        }
      ],
      "name": "supportsInterface",
      "outputs": [
        {
          "internalType": "bool",
          "name": "",
          "type": "bool"
        }
      ],
      "stateMutability": "view",
      "type": "function",
      "constant": true
    },
    {
      "inputs": [],
      "name": "swapRouter",
      "outputs": [
        {
          "internalType": "contract ISwapRouter",
          "name": "",
          "type": "address"
        }
      ],
      "stateMutability": "view",
      "type": "function",
      "constant": true
    },
    {
      "inputs": [
        {
          "internalType": "address",
          "name": "",
          "type": "address"
        }
      ],
      "name": "userRemainingBalance",
      "outputs": [
        {
          "internalType": "uint256",
          "name": "",
          "type": "uint256"
        }
      ],
      "stateMutability": "view",
      "type": "function",
      "constant": true
    },
    {
      "inputs": [
        {
          "internalType": "address",
          "name": "",
          "type": "address"
        }
      ],
      "name": "userShortBalance",
      "outputs": [
        {
          "internalType": "uint256",
          "name": "",
          "type": "uint256"
        }
      ],
      "stateMutability": "view",
      "type": "function",
      "constant": true
    },
    {
      "inputs": [
        {
          "internalType": "address",
          "name": "user",
          "type": "address"
        },
        {
          "internalType": "address",
          "name": "tokenToShort",
          "type": "address"
        },
        {
          "internalType": "uint256",
          "name": "priceAtWrap",
          "type": "uint256"
        },
        {
          "internalType": "uint24",
          "name": "poolFee",
          "type": "uint24"
        },
        {
          "internalType": "uint256",
          "name": "amount",
          "type": "uint256"
        },
        {
          "internalType": "uint256",
          "name": "amountOutMin",
          "type": "uint256"
        }
      ],
      "name": "shortForUser",
      "outputs": [
        {
          "internalType": "uint256",
          "name": "amountOut",
          "type": "uint256"
        }
      ],
      "stateMutability": "nonpayable",
      "type": "function"
    },
    {
      "inputs": [
        {
          "internalType": "address",
          "name": "user",
          "type": "address"
        },
        {
          "internalType": "address",
          "name": "tokenToClose",
          "type": "address"
        },
        {
          "internalType": "uint256",
          "name": "amount",
          "type": "uint256"
        },
        {
          "internalType": "uint256",
          "name": "priceAtClose",
          "type": "uint256"
        },
        {
          "internalType": "uint24",
          "name": "poolFee",
          "type": "uint24"
        },
        {
          "internalType": "uint256",
          "name": "amountOutMin",
          "type": "uint256"
        }
      ],
      "name": "closeShortForUser",
      "outputs": [
        {
          "internalType": "uint256",
          "name": "amountOut",
          "type": "uint256"
        }
      ],
      "stateMutability": "nonpayable",
      "type": "function"
    }
  ],
  "bytecode": "0x60a06040523480156200001157600080fd5b5060405162001a0c38038062001a0c8339818101604052810190620000379190620001b7565b336000806101000a81548173ffffffffffffffffffffffffffffffffffffffff021916908373ffffffffffffffffffffffffffffffffffffffff1602179055508173ffffffffffffffffffffffffffffffffffffffff1660808173ffffffffffffffffffffffffffffffffffffffff168152505080600360006101000a81548173ffffffffffffffffffffffffffffffffffffffff021916908373ffffffffffffffffffffffffffffffffffffffff1602179055505050620001fe565b600080fd5b600073ffffffffffffffffffffffffffffffffffffffff82169050919050565b60006200012682620000f9565b9050919050565b60006200013a8262000119565b9050919050565b6200014c816200012d565b81146200015857600080fd5b50565b6000815190506200016c8162000141565b92915050565b60006200017f8262000119565b9050919050565b620001918162000172565b81146200019d57600080fd5b50565b600081519050620001b18162000186565b92915050565b60008060408385031215620001d157620001d0620000f4565b5b6000620001e1858286016200015b565b9250506020620001f485828601620001a0565b9150509250929050565b6080516117d662000236600039600081816102f3015281816103f70152818161062d01528181610663015261073a01526117d66000f3fe608060405234801561001057600080fd5b506004361061009e5760003560e01c8063bc197c8111610066578063bc197c811461016f578063c31c9c071461019f578063db8a027d146101bd578063e23c9579146101ed578063f23a6e611461021d5761009e565b806301ffc9a7146100a357806321c905ee146100d35780634c992506146101035780638da5cb5b14610133578063a29aa11414610151575b600080fd5b6100bd60048036038101906100b89190610ba0565b61024d565b6040516100ca9190610be8565b60405180910390f35b6100ed60048036038101906100e89190610c61565b6102c7565b6040516100fa9190610ca7565b60405180910390f35b61011d60048036038101906101189190610d29565b6102df565b60405161012a9190610ca7565b60405180910390f35b61013b6105cc565b6040516101489190610dc5565b60405180910390f35b6101596105f0565b6040516101669190610e3f565b60405180910390f35b61018960048036038101906101849190611068565b610616565b6040516101969190611146565b60405180910390f35b6101a761062b565b6040516101b49190611182565b60405180910390f35b6101d760048036038101906101d2919061119d565b61064f565b6040516101e49190610ca7565b60405180910390f35b61020760048036038101906102029190610c61565b6107f0565b6040516102149190610ca7565b60405180910390f35b6102376004803603810190610232919061122a565b610808565b6040516102449190611146565b60405180910390f35b60007f4e2312e0000000000000000000000000000000000000000000000000000000007bffffffffffffffffffffffffffffffffffffffffffffffffffffffff1916827bffffffffffffffffffffffffffffffffffffffffffffffffffffffff191614806102c057506102bf8261081d565b5b9050919050565b60026020528060005260406000206000915090505481565b60006102ed86883086610887565b610318867f0000000000000000000000000000000000000000000000000000000000000000856109df565b60006064605f8561032991906112f0565b6103339190611379565b90506000818561034391906113aa565b905060006040518061010001604052808a73ffffffffffffffffffffffffffffffffffffffff168152602001736b175474e89094c44da98b954eedeac495271d0f73ffffffffffffffffffffffffffffffffffffffff1681526020018862ffffff1681526020013073ffffffffffffffffffffffffffffffffffffffff168152602001428152602001848152602001868152602001600073ffffffffffffffffffffffffffffffffffffffff1681525090507f000000000000000000000000000000000000000000000000000000000000000073ffffffffffffffffffffffffffffffffffffffff1663414bf389826040518263ffffffff1660e01b815260040161044e91906114bc565b602060405180830381600087803b15801561046857600080fd5b505af115801561047c573d6000803e3d6000fd5b505050506040513d601f19601f820116820180604052508101906104a091906114ed565b935083600160003373ffffffffffffffffffffffffffffffffffffffff1673ffffffffffffffffffffffffffffffffffffffff1681526020019081526020016000208190555081600260003373ffffffffffffffffffffffffffffffffffffffff1673ffffffffffffffffffffffffffffffffffffffff16815260200190815260200160002081905550600360009054906101000a900473ffffffffffffffffffffffffffffffffffffffff1673ffffffffffffffffffffffffffffffffffffffff1663c25df92d8b30868d8d6040518663ffffffff1660e01b815260040161058d95949392919061151a565b600060405180830381600087803b1580156105a757600080fd5b505af11580156105bb573d6000803e3d6000fd5b505050505050509695505050505050565b60008054906101000a900473ffffffffffffffffffffffffffffffffffffffff1681565b600360009054906101000a900473ffffffffffffffffffffffffffffffffffffffff1681565b600063bc197c8160e01b905095945050505050565b7f000000000000000000000000000000000000000000000000000000000000000081565b600061065d86883088610887565b610688867f0000000000000000000000000000000000000000000000000000000000000000876109df565b60006040518061010001604052808873ffffffffffffffffffffffffffffffffffffffff168152602001736b175474e89094c44da98b954eedeac495271d0f73ffffffffffffffffffffffffffffffffffffffff1681526020018562ffffff1681526020013373ffffffffffffffffffffffffffffffffffffffff168152602001428152602001878152602001848152602001600073ffffffffffffffffffffffffffffffffffffffff1681525090507f000000000000000000000000000000000000000000000000000000000000000073ffffffffffffffffffffffffffffffffffffffff1663414bf389826040518263ffffffff1660e01b815260040161079191906114bc565b602060405180830381600087803b1580156107ab57600080fd5b505af11580156107bf573d6000803e3d6000fd5b505050506040513d601f19601f820116820180604052508101906107e391906114ed565b9150509695505050505050565b60016020528060005260406000206000915090505481565b600063f23a6e6160e01b905095945050505050565b60007f01ffc9a7000000000000000000000000000000000000000000000000000000007bffffffffffffffffffffffffffffffffffffffffffffffffffffffff1916827bffffffffffffffffffffffffffffffffffffffffffffffffffffffff1916149050919050565b6000808573ffffffffffffffffffffffffffffffffffffffff166323b872dd60e01b8686866040516024016108be9392919061156d565b604051602081830303815290604052907bffffffffffffffffffffffffffffffffffffffffffffffffffffffff19166020820180517bffffffffffffffffffffffffffffffffffffffffffffffffffffffff8381831617835250505050604051610928919061161e565b6000604051808303816000865af19150503d8060008114610965576040519150601f19603f3d011682016040523d82523d6000602084013e61096a565b606091505b509150915081801561099857506000815114806109975750808060200190518101906109969190611661565b5b5b6109d7576040517f08c379a00000000000000000000000000000000000000000000000000000000081526004016109ce906116eb565b60405180910390fd5b505050505050565b6000808473ffffffffffffffffffffffffffffffffffffffff1663095ea7b360e01b8585604051602401610a1492919061170b565b604051602081830303815290604052907bffffffffffffffffffffffffffffffffffffffffffffffffffffffff19166020820180517bffffffffffffffffffffffffffffffffffffffffffffffffffffffff8381831617835250505050604051610a7e919061161e565b6000604051808303816000865af19150503d8060008114610abb576040519150601f19603f3d011682016040523d82523d6000602084013e610ac0565b606091505b5091509150818015610aee5750600081511480610aed575080806020019051810190610aec9190611661565b5b5b610b2d576040517f08c379a0000000000000000000000000000000000000000000000000000000008152600401610b2490611780565b60405180910390fd5b5050505050565b6000604051905090565b600080fd5b600080fd5b60007fffffffff0000000000000000000000000000000000000000000000000000000082169050919050565b610b7d81610b48565b8114610b8857600080fd5b50565b600081359050610b9a81610b74565b92915050565b600060208284031215610bb657610bb5610b3e565b5b6000610bc484828501610b8b565b91505092915050565b60008115159050919050565b610be281610bcd565b82525050565b6000602082019050610bfd6000830184610bd9565b92915050565b600073ffffffffffffffffffffffffffffffffffffffff82169050919050565b6000610c2e82610c03565b9050919050565b610c3e81610c23565b8114610c4957600080fd5b50565b600081359050610c5b81610c35565b92915050565b600060208284031215610c7757610c76610b3e565b5b6000610c8584828501610c4c565b91505092915050565b6000819050919050565b610ca181610c8e565b82525050565b6000602082019050610cbc6000830184610c98565b92915050565b610ccb81610c8e565b8114610cd657600080fd5b50565b600081359050610ce881610cc2565b92915050565b600062ffffff82169050919050565b610d0681610cee565b8114610d1157600080fd5b50565b600081359050610d2381610cfd565b92915050565b60008060008060008060c08789031215610d4657610d45610b3e565b5b6000610d5489828a01610c4c565b9650506020610d6589828a01610c4c565b9550506040610d7689828a01610cd9565b9450506060610d8789828a01610d14565b9350506080610d9889828a01610cd9565b92505060a0610da989828a01610cd9565b9150509295509295509295565b610dbf81610c23565b82525050565b6000602082019050610dda6000830184610db6565b92915050565b6000819050919050565b6000610e05610e00610dfb84610c03565b610de0565b610c03565b9050919050565b6000610e1782610dea565b9050919050565b6000610e2982610e0c565b9050919050565b610e3981610e1e565b82525050565b6000602082019050610e546000830184610e30565b92915050565b600080fd5b6000601f19601f8301169050919050565b7f4e487b7100000000000000000000000000000000000000000000000000000000600052604160045260246000fd5b610ea882610e5f565b810181811067ffffffffffffffff82111715610ec757610ec6610e70565b5b80604052505050565b6000610eda610b34565b9050610ee68282610e9f565b919050565b600067ffffffffffffffff821115610f0657610f05610e70565b5b602082029050602081019050919050565b600080fd5b6000610f2f610f2a84610eeb565b610ed0565b90508083825260208201905060208402830185811115610f5257610f51610f17565b5b835b81811015610f7b5780610f678882610cd9565b845260208401935050602081019050610f54565b5050509392505050565b600082601f830112610f9a57610f99610e5a565b5b8135610faa848260208601610f1c565b91505092915050565b600080fd5b600067ffffffffffffffff821115610fd357610fd2610e70565b5b610fdc82610e5f565b9050602081019050919050565b82818337600083830152505050565b600061100b61100684610fb8565b610ed0565b90508281526020810184848401111561102757611026610fb3565b5b611032848285610fe9565b509392505050565b600082601f83011261104f5761104e610e5a565b5b813561105f848260208601610ff8565b91505092915050565b600080600080600060a0868803121561108457611083610b3e565b5b600061109288828901610c4c565b95505060206110a388828901610c4c565b945050604086013567ffffffffffffffff8111156110c4576110c3610b43565b5b6110d088828901610f85565b935050606086013567ffffffffffffffff8111156110f1576110f0610b43565b5b6110fd88828901610f85565b925050608086013567ffffffffffffffff81111561111e5761111d610b43565b5b61112a8882890161103a565b9150509295509295909350565b61114081610b48565b82525050565b600060208201905061115b6000830184611137565b92915050565b600061116c82610e0c565b9050919050565b61117c81611161565b82525050565b60006020820190506111976000830184611173565b92915050565b60008060008060008060c087890312156111ba576111b9610b3e565b5b60006111c889828a01610c4c565b96505060206111d989828a01610c4c565b95505060406111ea89828a01610cd9565b94505060606111fb89828a01610cd9565b935050608061120c89828a01610d14565b92505060a061121d89828a01610cd9565b9150509295509295509295565b600080600080600060a0868803121561124657611245610b3e565b5b600061125488828901610c4c565b955050602061126588828901610c4c565b945050604061127688828901610cd9565b935050606061128788828901610cd9565b925050608086013567ffffffffffffffff8111156112a8576112a7610b43565b5b6112b48882890161103a565b9150509295509295909350565b7f4e487b7100000000000000000000000000000000000000000000000000000000600052601160045260246000fd5b60006112fb82610c8e565b915061130683610c8e565b9250817fffffffffffffffffffffffffffffffffffffffffffffffffffffffffffffffff048311821515161561133f5761133e6112c1565b5b828202905092915050565b7f4e487b7100000000000000000000000000000000000000000000000000000000600052601260045260246000fd5b600061138482610c8e565b915061138f83610c8e565b92508261139f5761139e61134a565b5b828204905092915050565b60006113b582610c8e565b91506113c083610c8e565b9250828210156113d3576113d26112c1565b5b828203905092915050565b6113e781610c23565b82525050565b6113f681610cee565b82525050565b61140581610c8e565b82525050565b61141481610c03565b82525050565b6101008201600082015161143160008501826113de565b50602082015161144460208501826113de565b50604082015161145760408501826113ed565b50606082015161146a60608501826113de565b50608082015161147d60808501826113fc565b5060a082015161149060a08501826113fc565b5060c08201516114a360c08501826113fc565b5060e08201516114b660e085018261140b565b50505050565b6000610100820190506114d2600083018461141a565b92915050565b6000815190506114e781610cc2565b92915050565b60006020828403121561150357611502610b3e565b5b6000611511848285016114d8565b91505092915050565b600060a08201905061152f6000830188610db6565b61153c6020830187610db6565b6115496040830186610c98565b6115566060830185610db6565b6115636080830184610c98565b9695505050505050565b60006060820190506115826000830186610db6565b61158f6020830185610db6565b61159c6040830184610c98565b949350505050565b600081519050919050565b600081905092915050565b60005b838110156115d85780820151818401526020810190506115bd565b838111156115e7576000848401525b50505050565b60006115f8826115a4565b61160281856115af565b93506116128185602086016115ba565b80840191505092915050565b600061162a82846115ed565b915081905092915050565b61163e81610bcd565b811461164957600080fd5b50565b60008151905061165b81611635565b92915050565b60006020828403121561167757611676610b3e565b5b60006116858482850161164c565b91505092915050565b600082825260208201905092915050565b7f5354460000000000000000000000000000000000000000000000000000000000600082015250565b60006116d560038361168e565b91506116e08261169f565b602082019050919050565b60006020820190508181036000830152611704816116c8565b9050919050565b60006040820190506117206000830185610db6565b61172d6020830184610c98565b9392505050565b7f5341000000000000000000000000000000000000000000000000000000000000600082015250565b600061176a60028361168e565b915061177582611734565b602082019050919050565b600060208201905081810360008301526117998161175d565b905091905056fea2646970667358221220578df9b47357311773132f6e86efd4d828e6ee5f1d8b1855b139252026aabfe964736f6c63430008090033",
  "immutableReferences": {
    "2809": [
      {
        "length": 32,
        "start": 755
      },
      {
        "length": 32,
        "start": 1015
      },
      {
        "length": 32,
        "start": 1581
      },
      {
        "length": 32,
        "start": 1635
      },
      {
        "length": 32,
        "start": 1850
      }
    ]
  },
  "source": "// SPDX-License-Identifier: MIT\npragma solidity ^0.8.0; //solhint-disable compiler-fixed\npragma abicoder v2;\n\nimport \"@openzeppelin/contracts/token/ERC1155/IERC1155.sol\";\nimport \"@openzeppelin/contracts/token/ERC1155/utils/ERC1155Holder.sol\";\nimport \"@uniswap/v3-periphery/contracts/interfaces/ISwapRouter.sol\";\nimport \"@uniswap/v3-periphery/contracts/libraries/TransferHelper.sol\";\nimport \"@openzeppelin/contracts/token/ERC20/IERC20.sol\";\nimport \"./BeraWrapper.sol\";\n\n\ncontract BeraPoolStandardRisk is ERC1155Holder {\n\n    address public owner;\n\n    mapping(address => uint) public userShortBalance;\n    mapping(address => uint) public userRemainingBalance;\n\n    address private constant DAI_ADDRESS = 0x6B175474E89094C44Da98b954EedeAC495271d0F;\n\n    ISwapRouter public immutable swapRouter;\n    BeraWrapper public beraWrapper;\n\n    constructor(ISwapRouter _swapRouter,\n        BeraWrapper _beraWrapper) { //solhint-disable func-visibility\n        owner = msg.sender;\n        swapRouter = _swapRouter;\n        beraWrapper = _beraWrapper;\n    }\n\n    function shortForUser(\n        address user,\n        address tokenToShort,\n        uint priceAtWrap,\n        uint24 poolFee,\n        uint amount,\n        uint amountOutMin) external returns(uint amountOut) {\n        //require(msg.sender == beraRouter, \"not in ecosystem\");\n\n\n        TransferHelper.safeTransferFrom(tokenToShort, user, address(this), amount);\n        TransferHelper.safeApprove(tokenToShort, address(swapRouter), amount);\n\n        //keep 5% of weth in pool contract for holders to profit/ reduce losses\n        //amountToShort is amount of weth to short\n        //TOKEN IN IN THIS CASE IS ALREADY TOKEN TO BE SHORTED, SO POOL IS KEEPING 5% OF TRADE\n        //KEEP IN FOR NOW TO TEST HIGH RISK POOL\n        //WILL HAVE TO CHANGE TO SWAP AND THEN KEEP 5% FOR STANDARD RISK POOL\n        uint amountToShort = (amount * 95) / 100;\n        uint remaining = amount - amountToShort;\n\n        //now that contract has the desired token to short, we sell @ market back for DAI\n        ISwapRouter.ExactInputSingleParams memory tokenParams =\n        ISwapRouter.ExactInputSingleParams({\n            tokenIn: tokenToShort,\n            tokenOut: DAI_ADDRESS,\n            fee: poolFee,\n            recipient: address(this),\n            deadline: block.timestamp, //solhint-disable not-rely-on-time\n            amountIn: amountToShort,\n            amountOutMinimum: amountOutMin,\n            sqrtPriceLimitX96: 0\n        });\n\n        // execute the short, amountOut is DAI in this case\n        amountOut = swapRouter.exactInputSingle(tokenParams);\n\n        //update user balances\n        userShortBalance[msg.sender] = amountOut;\n        userRemainingBalance[msg.sender] = remaining;\n\n        //wrap position in ERC1155\n        //use amountToShort to reference how much is being shorted in this position\n        beraWrapper.wrapPosition(user, address(this), amountToShort, tokenToShort, priceAtWrap);\n\n    }\n\n    function closeShortForUser(\n        address user,\n        address tokenToClose,\n        uint amount,\n        uint priceAtClose,\n        uint24 poolFee,\n        uint amountOutMin)\n        external returns(uint amountOut) {\n\n            //transfer weth to contract to sell back to dai and send profits to user\n            TransferHelper.safeTransferFrom(tokenToClose, user, address(this), amount);\n            TransferHelper.safeApprove(tokenToClose, address(swapRouter), amount);\n\n            ISwapRouter.ExactInputSingleParams memory tokenParams =\n            ISwapRouter.ExactInputSingleParams({\n                tokenIn: tokenToClose,\n                tokenOut: DAI_ADDRESS,\n                fee: poolFee,\n                recipient: msg.sender, //refers to router in this case\n                deadline: block.timestamp, //solhint-disable not-rely-on-time\n                amountIn: amount,\n                amountOutMinimum: amountOutMin,\n                sqrtPriceLimitX96: 0\n            });\n\n            //execute the sell order\n            amountOut = swapRouter.exactInputSingle(tokenParams);\n\n        }\n}\n\n//needs:\n//\n//total borrowed from pool/ token0\n//total supplied to pool as collateral/ token1(USDC)\n//total available to borrow for shorting\n//how much it will cost to borrow/ how much to be paid to supplier\n//when does the borrower threaten to be liquited?\n    //(when losses are equal to 90% of supplied collateral)\n    //thus, we need a way to measure the current borrowers PnL or loan health (maybe look at AAVE or COMP)\n//need interface when done with all functions\n\n//ON HOLD\n",
  "sourcePath": "/home/kevin/Code/solidity_projects/beraMarket/contracts/BeraPoolStandardRisk.sol",
  "compiler": {
    "name": "solc",
    "version": "0.8.9+commit.e5eed63a.Emscripten.clang"
  },
  "schemaVersion": "3.4.3",
  "updatedAt": "2021-11-16T00:00:49.714Z",
  "networkType": "ethereum",
  "devdoc": {
    "kind": "dev",
    "methods": {
      "supportsInterface(bytes4)": {
        "details": "See {IERC165-supportsInterface}."
      }
    },
    "version": 1
  },
  "userdoc": {
    "kind": "user",
    "methods": {},
    "version": 1
  }
}