{
  "contractName": "BeraPoolStandardRisk",
  "abi": [
    {
      "inputs": [
        {
          "internalType": "contract ISwapRouter",
          "name": "_swapRouter",
          "type": "address"
        },
        {
          "internalType": "contract BeraWrapper",
          "name": "_beraWrapper",
          "type": "address"
        }
      ],
      "stateMutability": "nonpayable",
      "type": "constructor"
    },
    {
      "stateMutability": "payable",
      "type": "fallback",
      "payable": true
    },
    {
      "inputs": [],
      "name": "beraWrapper",
      "outputs": [
        {
          "internalType": "contract BeraWrapper",
          "name": "",
          "type": "address"
        }
      ],
      "stateMutability": "view",
      "type": "function",
      "constant": true
    },
    {
      "inputs": [],
      "name": "globalRewards",
      "outputs": [
        {
          "internalType": "uint256",
          "name": "",
          "type": "uint256"
        }
      ],
      "stateMutability": "view",
      "type": "function",
      "constant": true
    },
    {
      "inputs": [
        {
          "internalType": "address",
          "name": "",
          "type": "address"
        },
        {
          "internalType": "address",
          "name": "",
          "type": "address"
        },
        {
          "internalType": "uint256[]",
          "name": "",
          "type": "uint256[]"
        },
        {
          "internalType": "uint256[]",
          "name": "",
          "type": "uint256[]"
        },
        {
          "internalType": "bytes",
          "name": "",
          "type": "bytes"
        }
      ],
      "name": "onERC1155BatchReceived",
      "outputs": [
        {
          "internalType": "bytes4",
          "name": "",
          "type": "bytes4"
        }
      ],
      "stateMutability": "nonpayable",
      "type": "function"
    },
    {
      "inputs": [
        {
          "internalType": "address",
          "name": "",
          "type": "address"
        },
        {
          "internalType": "address",
          "name": "",
          "type": "address"
        },
        {
          "internalType": "uint256",
          "name": "",
          "type": "uint256"
        },
        {
          "internalType": "uint256",
          "name": "",
          "type": "uint256"
        },
        {
          "internalType": "bytes",
          "name": "",
          "type": "bytes"
        }
      ],
      "name": "onERC1155Received",
      "outputs": [
        {
          "internalType": "bytes4",
          "name": "",
          "type": "bytes4"
        }
      ],
      "stateMutability": "nonpayable",
      "type": "function"
    },
    {
      "inputs": [],
      "name": "owner",
      "outputs": [
        {
          "internalType": "address",
          "name": "",
          "type": "address"
        }
      ],
      "stateMutability": "view",
      "type": "function",
      "constant": true
    },
    {
      "inputs": [
        {
          "internalType": "bytes4",
          "name": "interfaceId",
          "type": "bytes4"
        }
      ],
      "name": "supportsInterface",
      "outputs": [
        {
          "internalType": "bool",
          "name": "",
          "type": "bool"
        }
      ],
      "stateMutability": "view",
      "type": "function",
      "constant": true
    },
    {
      "inputs": [],
      "name": "swapRouter",
      "outputs": [
        {
          "internalType": "contract ISwapRouter",
          "name": "",
          "type": "address"
        }
      ],
      "stateMutability": "view",
      "type": "function",
      "constant": true
    },
    {
      "inputs": [
        {
          "internalType": "address",
          "name": "",
          "type": "address"
        }
      ],
      "name": "users",
      "outputs": [
        {
          "internalType": "uint256",
          "name": "userDepositBalance",
          "type": "uint256"
        },
        {
          "internalType": "uint256",
          "name": "lastClaimedRewards",
          "type": "uint256"
        },
        {
          "internalType": "uint256",
          "name": "userShortID",
          "type": "uint256"
        }
      ],
      "stateMutability": "view",
      "type": "function",
      "constant": true
    },
    {
      "stateMutability": "payable",
      "type": "receive",
      "payable": true
    },
    {
      "inputs": [
        {
          "internalType": "uint256",
          "name": "amount",
          "type": "uint256"
        },
        {
          "internalType": "address",
          "name": "collateral",
          "type": "address"
        }
      ],
      "name": "depositCollateral",
      "outputs": [],
      "stateMutability": "nonpayable",
      "type": "function"
    },
    {
      "inputs": [
        {
          "internalType": "uint256",
          "name": "amount",
          "type": "uint256"
        },
        {
          "internalType": "uint256",
          "name": "_userShortID",
          "type": "uint256"
        }
      ],
      "name": "withdrawFromPool",
      "outputs": [],
      "stateMutability": "nonpayable",
      "type": "function"
    },
    {
      "inputs": [],
      "name": "claimRewards",
      "outputs": [],
      "stateMutability": "nonpayable",
      "type": "function"
    },
    {
      "inputs": [
        {
          "internalType": "uint256",
          "name": "amount",
          "type": "uint256"
        },
        {
          "internalType": "address",
          "name": "tokenToShort",
          "type": "address"
        },
        {
          "internalType": "uint24",
          "name": "poolFee",
          "type": "uint24"
        },
        {
          "internalType": "uint256",
          "name": "amountOutMin",
          "type": "uint256"
        }
      ],
      "name": "swapAndShortStandard",
      "outputs": [
        {
          "internalType": "uint256",
          "name": "amountOut",
          "type": "uint256"
        }
      ],
      "stateMutability": "nonpayable",
      "type": "function"
    },
    {
      "inputs": [
        {
          "internalType": "address",
          "name": "user",
          "type": "address"
        },
        {
          "internalType": "address",
          "name": "to",
          "type": "address"
        },
        {
          "internalType": "uint256",
          "name": "shortID",
          "type": "uint256"
        }
      ],
      "name": "liquidateUser",
      "outputs": [],
      "stateMutability": "nonpayable",
      "type": "function"
    },
    {
      "inputs": [
        {
          "internalType": "address",
          "name": "user",
          "type": "address"
        },
        {
          "internalType": "uint256",
          "name": "shortID",
          "type": "uint256"
        }
      ],
      "name": "getLiquidator",
      "outputs": [
        {
          "internalType": "address",
          "name": "liquidator",
          "type": "address"
        }
      ],
      "stateMutability": "view",
      "type": "function",
      "constant": true
    },
    {
      "inputs": [
        {
          "internalType": "address",
          "name": "user",
          "type": "address"
        }
      ],
      "name": "getTotalCollateral",
      "outputs": [
        {
          "internalType": "uint256",
          "name": "totalCollateral",
          "type": "uint256"
        }
      ],
      "stateMutability": "view",
      "type": "function",
      "constant": true
    },
    {
      "inputs": [
        {
          "internalType": "address",
          "name": "user",
          "type": "address"
        }
      ],
      "name": "checkRewards",
      "outputs": [
        {
          "internalType": "uint256",
          "name": "profits",
          "type": "uint256"
        }
      ],
      "stateMutability": "view",
      "type": "function",
      "constant": true
    },
    {
      "inputs": [],
      "name": "getGlobalRewards",
      "outputs": [
        {
          "internalType": "uint256",
          "name": "globals",
          "type": "uint256"
        }
      ],
      "stateMutability": "view",
      "type": "function",
      "constant": true
    },
    {
      "inputs": [
        {
          "internalType": "address",
          "name": "user",
          "type": "address"
        },
        {
          "internalType": "uint256",
          "name": "shortID",
          "type": "uint256"
        }
      ],
      "name": "getUserShortBalance",
      "outputs": [
        {
          "internalType": "uint256",
          "name": "bal",
          "type": "uint256"
        }
      ],
      "stateMutability": "view",
      "type": "function",
      "constant": true
    },
    {
      "inputs": [
        {
          "internalType": "address",
          "name": "user",
          "type": "address"
        },
        {
          "internalType": "uint256",
          "name": "shortID",
          "type": "uint256"
        }
      ],
      "name": "getUserEntryPrice",
      "outputs": [
        {
          "internalType": "uint256",
          "name": "entry",
          "type": "uint256"
        }
      ],
      "stateMutability": "view",
      "type": "function",
      "constant": true
    },
    {
      "inputs": [
        {
          "internalType": "address",
          "name": "user",
          "type": "address"
        },
        {
          "internalType": "uint256",
          "name": "shortID",
          "type": "uint256"
        }
      ],
      "name": "getUserShortBool",
      "outputs": [
        {
          "internalType": "bool",
          "name": "isShort",
          "type": "bool"
        }
      ],
      "stateMutability": "view",
      "type": "function",
      "constant": true
    },
    {
      "inputs": [
        {
          "internalType": "address",
          "name": "user",
          "type": "address"
        },
        {
          "internalType": "uint256",
          "name": "_userShortID",
          "type": "uint256"
        },
        {
          "internalType": "uint256",
          "name": "priceAtClose",
          "type": "uint256"
        }
      ],
      "name": "closeShortStandardPool",
      "outputs": [],
      "stateMutability": "nonpayable",
      "type": "function"
    }
  ],
  "bytecode": "0x60a06040523480156200001157600080fd5b50604051620034bc380380620034bc8339818101604052810190620000379190620001b7565b336000806101000a81548173ffffffffffffffffffffffffffffffffffffffff021916908373ffffffffffffffffffffffffffffffffffffffff1602179055508173ffffffffffffffffffffffffffffffffffffffff1660808173ffffffffffffffffffffffffffffffffffffffff168152505080600360006101000a81548173ffffffffffffffffffffffffffffffffffffffff021916908373ffffffffffffffffffffffffffffffffffffffff1602179055505050620001fe565b600080fd5b600073ffffffffffffffffffffffffffffffffffffffff82169050919050565b60006200012682620000f9565b9050919050565b60006200013a8262000119565b9050919050565b6200014c816200012d565b81146200015857600080fd5b50565b6000815190506200016c8162000141565b92915050565b60006200017f8262000119565b9050919050565b620001918162000172565b81146200019d57600080fd5b50565b600081519050620001b18162000186565b92915050565b60008060408385031215620001d157620001d0620000f4565b5b6000620001e1858286016200015b565b9250506020620001f485828601620001a0565b9150509250929050565b60805161328662000236600039600081816113330152818161140a0152818161162501528181611d970152611e6e01526132866000f3fe60806040526004361061012e5760003560e01c80637423031e116100ab578063a87430ba1161006f578063a87430ba14610420578063aac28b541461045f578063bc197c811461049c578063c31c9c07146104d9578063ef1b316614610504578063f23a6e611461052d57610135565b80637423031e1461034b5780637b1609b11461037657806380a0b0fc1461039f5780638da5cb5b146103ca578063a29aa114146103f557610135565b8063372500ab116100f2578063372500ab146102545780633762e9951461026b578063481fef8a146102a85780635e169136146102d157806360a98b801461030e57610135565b806301ffc9a714610137578063028bdf7c14610174578063046ff0d3146101b157806309d3e9c3146101ee5780630ea99f401461022b57610135565b3661013557005b005b34801561014357600080fd5b5061015e600480360381019061015991906120b0565b61056a565b60405161016b91906120f8565b60405180910390f35b34801561018057600080fd5b5061019b600480360381019061019691906121a7565b6105e4565b6040516101a891906120f8565b60405180910390f35b3480156101bd57600080fd5b506101d860048036038101906101d391906121e7565b61064f565b6040516101e59190612223565b60405180910390f35b3480156101fa57600080fd5b50610215600480360381019061021091906121a7565b610661565b6040516102229190612223565b60405180910390f35b34801561023757600080fd5b50610252600480360381019061024d919061223e565b6106bf565b005b34801561026057600080fd5b5061026961091b565b005b34801561027757600080fd5b50610292600480360381019061028d91906121a7565b610926565b60405161029f91906122a0565b60405180910390f35b3480156102b457600080fd5b506102cf60048036038101906102ca91906122bb565b6109a7565b005b3480156102dd57600080fd5b506102f860048036038101906102f391906121a7565b610b07565b6040516103059190612223565b60405180910390f35b34801561031a57600080fd5b50610335600480360381019061033091906121e7565b610b65565b6040516103429190612223565b60405180910390f35b34801561035757600080fd5b50610360610c30565b60405161036d9190612223565b60405180910390f35b34801561038257600080fd5b5061039d600480360381019061039891906122fb565b610c36565b005b3480156103ab57600080fd5b506103b46110df565b6040516103c19190612223565b60405180910390f35b3480156103d657600080fd5b506103df6110e9565b6040516103ec91906122a0565b60405180910390f35b34801561040157600080fd5b5061040a61110d565b60405161041791906123ad565b60405180910390f35b34801561042c57600080fd5b50610447600480360381019061044291906121e7565b611133565b604051610456939291906123c8565b60405180910390f35b34801561046b57600080fd5b506104866004803603810190610481919061243a565b61115d565b6040516104939190612223565b60405180910390f35b3480156104a857600080fd5b506104c360048036038101906104be91906126af565b61160e565b6040516104d0919061278d565b60405180910390f35b3480156104e557600080fd5b506104ee611623565b6040516104fb91906127c9565b60405180910390f35b34801561051057600080fd5b5061052b600480360381019061052691906127e4565b611647565b005b34801561053957600080fd5b50610554600480360381019061054f9190612824565b611863565b604051610561919061278d565b60405180910390f35b60007f4e2312e0000000000000000000000000000000000000000000000000000000007bffffffffffffffffffffffffffffffffffffffffffffffffffffffff1916827bffffffffffffffffffffffffffffffffffffffffffffffffffffffff191614806105dd57506105dc82611878565b5b9050919050565b6000600160008473ffffffffffffffffffffffffffffffffffffffff1673ffffffffffffffffffffffffffffffffffffffff168152602001908152602001600020600501600083815260200190815260200160002060009054906101000a900460ff16905092915050565b600061065a826118e2565b9050919050565b6000600160008473ffffffffffffffffffffffffffffffffffffffff1673ffffffffffffffffffffffffffffffffffffffff168152602001908152602001600020600301600083815260200190815260200160002054905092915050565b6000610bb86106ce8584610b07565b6106d891906128ea565b9050600160008573ffffffffffffffffffffffffffffffffffffffff1673ffffffffffffffffffffffffffffffffffffffff16815260200190815260200160002060000154811161075e576040517f08c379a00000000000000000000000000000000000000000000000000000000081526004016107559061297b565b60405180910390fd5b60011515600160008673ffffffffffffffffffffffffffffffffffffffff1673ffffffffffffffffffffffffffffffffffffffff168152602001908152602001600020600501600084815260200190815260200160002060009054906101000a900460ff16151514610805576040517f08c379a00000000000000000000000000000000000000000000000000000000081526004016107fc906129e7565b60405180910390fd5b60018060008673ffffffffffffffffffffffffffffffffffffffff1673ffffffffffffffffffffffffffffffffffffffff168152602001908152602001600020600601600084815260200190815260200160002060000160006101000a81548160ff02191690831515021790555082600160008673ffffffffffffffffffffffffffffffffffffffff1673ffffffffffffffffffffffffffffffffffffffff168152602001908152602001600020600601600084815260200190815260200160002060000160016101000a81548173ffffffffffffffffffffffffffffffffffffffff021916908373ffffffffffffffffffffffffffffffffffffffff1602179055506109158483610bb8610c36565b50505050565b61092433611a25565b565b6000600160008473ffffffffffffffffffffffffffffffffffffffff1673ffffffffffffffffffffffffffffffffffffffff168152602001908152602001600020600601600083815260200190815260200160002060000160019054906101000a900473ffffffffffffffffffffffffffffffffffffffff16905092915050565b736b175474e89094c44da98b954eedeac495271d0f73ffffffffffffffffffffffffffffffffffffffff168173ffffffffffffffffffffffffffffffffffffffff1614610a29576040517f08c379a0000000000000000000000000000000000000000000000000000000008152600401610a2090612a53565b60405180910390fd5b81600160003373ffffffffffffffffffffffffffffffffffffffff1673ffffffffffffffffffffffffffffffffffffffff1681526020019081526020016000206000016000828254610a7b9190612a73565b925050819055508073ffffffffffffffffffffffffffffffffffffffff166323b872dd3330856040518463ffffffff1660e01b8152600401610abf93929190612ac9565b6020604051808303816000875af1158015610ade573d6000803e3d6000fd5b505050506040513d601f19601f82011682018060405250810190610b029190612b2c565b505050565b6000600160008473ffffffffffffffffffffffffffffffffffffffff1673ffffffffffffffffffffffffffffffffffffffff168152602001908152602001600020600401600083815260200190815260200160002054905092915050565b600080600090505b600160008473ffffffffffffffffffffffffffffffffffffffff1673ffffffffffffffffffffffffffffffffffffffff168152602001908152602001600020600201548111610c2a57600160008473ffffffffffffffffffffffffffffffffffffffff1673ffffffffffffffffffffffffffffffffffffffff16815260200190815260200160002060030160008281526020019081526020016000205482610c159190612a73565b91508080610c2290612b59565b915050610b6d565b50919050565b60025481565b3373ffffffffffffffffffffffffffffffffffffffff168373ffffffffffffffffffffffffffffffffffffffff1614610ca4576040517f08c379a0000000000000000000000000000000000000000000000000000000008152600401610c9b90612bee565b60405180910390fd5b600360009054906101000a900473ffffffffffffffffffffffffffffffffffffffff1673ffffffffffffffffffffffffffffffffffffffff1663b9e17b7684846040518363ffffffff1660e01b8152600401610d01929190612c0e565b600060405180830381600087803b158015610d1b57600080fd5b505af1158015610d2f573d6000803e3d6000fd5b5050505060008073__PnLCalculator_________________________63896b198a600160003373ffffffffffffffffffffffffffffffffffffffff1673ffffffffffffffffffffffffffffffffffffffff168152602001908152602001600020600401600087815260200190815260200160002054856040518363ffffffff1660e01b8152600401610dc2929190612c46565b6040805180830381865af4158015610dde573d6000803e3d6000fd5b505050506040513d601f19601f82011682018060405250810190610e029190612cbd565b60ff16915091506000811415610e705781600160003373ffffffffffffffffffffffffffffffffffffffff1673ffffffffffffffffffffffffffffffffffffffff1681526020019081526020016000206000016000828254610e649190612a73565b92505081905550611013565b60018114156110125781600160003373ffffffffffffffffffffffffffffffffffffffff1673ffffffffffffffffffffffffffffffffffffffff1681526020019081526020016000206000016000828254610ecb91906128ea565b9250508190555060011515600160008773ffffffffffffffffffffffffffffffffffffffff1673ffffffffffffffffffffffffffffffffffffffff168152602001908152602001600020600601600086815260200190815260200160002060000160009054906101000a900460ff1615151415610ff75760006064603284610f539190612cfd565b610f5d9190612d86565b905060008184610f6d91906128ea565b90506000610f7b8888610926565b905081600160008373ffffffffffffffffffffffffffffffffffffffff1673ffffffffffffffffffffffffffffffffffffffff1681526020019081526020016000206000016000828254610fcf9190612a73565b925050819055508260026000828254610fe89190612a73565b92505081905550505050611011565b81600260008282546110099190612a73565b925050819055505b5b5b6000600160003373ffffffffffffffffffffffffffffffffffffffff1673ffffffffffffffffffffffffffffffffffffffff168152602001908152602001600020600501600086815260200190815260200160002060006101000a81548160ff0219169083151502179055506000600160003373ffffffffffffffffffffffffffffffffffffffff1673ffffffffffffffffffffffffffffffffffffffff1681526020019081526020016000206003016000868152602001908152602001600020819055505050505050565b6000600254905090565b60008054906101000a900473ffffffffffffffffffffffffffffffffffffffff1681565b600360009054906101000a900473ffffffffffffffffffffffffffffffffffffffff1681565b60016020528060005260406000206000915090508060000154908060010154908060020154905083565b6000600160003373ffffffffffffffffffffffffffffffffffffffff1673ffffffffffffffffffffffffffffffffffffffff168152602001908152602001600020600001548511156111e4576040517f08c379a00000000000000000000000000000000000000000000000000000000081526004016111db90612e03565b60405180910390fd5b60018060003373ffffffffffffffffffffffffffffffffffffffff1673ffffffffffffffffffffffffffffffffffffffff16815260200190815260200160002060020160008282546112369190612a73565b92505081905550600061124833610b65565b11156112dc57600160003373ffffffffffffffffffffffffffffffffffffffff1673ffffffffffffffffffffffffffffffffffffffff1681526020019081526020016000206000015461129a33610b65565b11156112db576040517f08c379a00000000000000000000000000000000000000000000000000000000081526004016112d290612e03565b60405180910390fd5b5b60006064605f876112ed9190612cfd565b6112f79190612d86565b9050611319736b175474e89094c44da98b954eedeac495271d0f333089611ae2565b611358736b175474e89094c44da98b954eedeac495271d0f7f000000000000000000000000000000000000000000000000000000000000000088611c3a565b6000604051806101000160405280736b175474e89094c44da98b954eedeac495271d0f73ffffffffffffffffffffffffffffffffffffffff1681526020018773ffffffffffffffffffffffffffffffffffffffff1681526020018662ffffff1681526020013073ffffffffffffffffffffffffffffffffffffffff168152602001428152602001838152602001858152602001600073ffffffffffffffffffffffffffffffffffffffff1681525090507f000000000000000000000000000000000000000000000000000000000000000073ffffffffffffffffffffffffffffffffffffffff1663414bf389826040518263ffffffff1660e01b81526004016114619190612f01565b6020604051808303816000875af1158015611480573d6000803e3d6000fd5b505050506040513d601f19601f820116820180604052508101906114a49190612f1d565b92506000610bb890506114bb33888389888a611d8f565b5080600160003373ffffffffffffffffffffffffffffffffffffffff1673ffffffffffffffffffffffffffffffffffffffff1681526020019081526020016000206004016000600160003373ffffffffffffffffffffffffffffffffffffffff1673ffffffffffffffffffffffffffffffffffffffff1681526020019081526020016000206002015481526020019081526020016000208190555060018060003373ffffffffffffffffffffffffffffffffffffffff1673ffffffffffffffffffffffffffffffffffffffff1681526020019081526020016000206005016000600160003373ffffffffffffffffffffffffffffffffffffffff1673ffffffffffffffffffffffffffffffffffffffff16815260200190815260200160002060020154815260200190815260200160002060006101000a81548160ff021916908315150217905550505050949350505050565b600063bc197c8160e01b905095945050505050565b7f000000000000000000000000000000000000000000000000000000000000000081565b600160003373ffffffffffffffffffffffffffffffffffffffff1673ffffffffffffffffffffffffffffffffffffffff168152602001908152602001600020600001548211156116cc576040517f08c379a00000000000000000000000000000000000000000000000000000000081526004016116c390612fbc565b60405180910390fd5b60001515600160003373ffffffffffffffffffffffffffffffffffffffff1673ffffffffffffffffffffffffffffffffffffffff168152602001908152602001600020600501600083815260200190815260200160002060009054906101000a900460ff16151514611773576040517f08c379a000000000000000000000000000000000000000000000000000000000815260040161176a90613074565b60405180910390fd5b81600160003373ffffffffffffffffffffffffffffffffffffffff1673ffffffffffffffffffffffffffffffffffffffff16815260200190815260200160002060000160008282546117c591906128ea565b92505081905550736b175474e89094c44da98b954eedeac495271d0f73ffffffffffffffffffffffffffffffffffffffff1663a9059cbb33846040518363ffffffff1660e01b815260040161181b929190612c0e565b6020604051808303816000875af115801561183a573d6000803e3d6000fd5b505050506040513d601f19601f8201168201806040525081019061185e9190612b2c565b505050565b600063f23a6e6160e01b905095945050505050565b60007f01ffc9a7000000000000000000000000000000000000000000000000000000007bffffffffffffffffffffffffffffffffffffffffffffffffffffffff1916827bffffffffffffffffffffffffffffffffffffffffffffffffffffffff1916149050919050565b600080600160008473ffffffffffffffffffffffffffffffffffffffff1673ffffffffffffffffffffffffffffffffffffffff1681526020019081526020016000206001015460025461193591906128ea565b9050736b175474e89094c44da98b954eedeac495271d0f73ffffffffffffffffffffffffffffffffffffffff166370a08231306040518263ffffffff1660e01b815260040161198491906122a0565b602060405180830381865afa1580156119a1573d6000803e3d6000fd5b505050506040513d601f19601f820116820180604052508101906119c59190612f1d565b81600160008673ffffffffffffffffffffffffffffffffffffffff1673ffffffffffffffffffffffffffffffffffffffff16815260200190815260200160002060000154611a139190612cfd565b611a1d9190612d86565b915050919050565b6000611a30826118e2565b90506000811115611ade5780600160008473ffffffffffffffffffffffffffffffffffffffff1673ffffffffffffffffffffffffffffffffffffffff1681526020019081526020016000206000016000828254611a8d9190612a73565b92505081905550600254600160008473ffffffffffffffffffffffffffffffffffffffff1673ffffffffffffffffffffffffffffffffffffffff168152602001908152602001600020600101819055505b5050565b6000808573ffffffffffffffffffffffffffffffffffffffff166323b872dd60e01b868686604051602401611b1993929190612ac9565b604051602081830303815290604052907bffffffffffffffffffffffffffffffffffffffffffffffffffffffff19166020820180517bffffffffffffffffffffffffffffffffffffffffffffffffffffffff8381831617835250505050604051611b83919061310e565b6000604051808303816000865af19150503d8060008114611bc0576040519150601f19603f3d011682016040523d82523d6000602084013e611bc5565b606091505b5091509150818015611bf35750600081511480611bf2575080806020019051810190611bf19190612b2c565b5b5b611c32576040517f08c379a0000000000000000000000000000000000000000000000000000000008152600401611c2990613171565b60405180910390fd5b505050505050565b6000808473ffffffffffffffffffffffffffffffffffffffff1663095ea7b360e01b8585604051602401611c6f929190612c0e565b604051602081830303815290604052907bffffffffffffffffffffffffffffffffffffffffffffffffffffffff19166020820180517bffffffffffffffffffffffffffffffffffffffffffffffffffffffff8381831617835250505050604051611cd9919061310e565b6000604051808303816000865af19150503d8060008114611d16576040519150601f19603f3d011682016040523d82523d6000602084013e611d1b565b606091505b5091509150818015611d495750600081511480611d48575080806020019051810190611d479190612b2c565b5b5b611d88576040517f08c379a0000000000000000000000000000000000000000000000000000000008152600401611d7f906131dd565b60405180910390fd5b5050505050565b6000611dbc867f000000000000000000000000000000000000000000000000000000000000000085611c3a565b60006040518061010001604052808873ffffffffffffffffffffffffffffffffffffffff168152602001736b175474e89094c44da98b954eedeac495271d0f73ffffffffffffffffffffffffffffffffffffffff1681526020018662ffffff1681526020013073ffffffffffffffffffffffffffffffffffffffff168152602001428152602001858152602001848152602001600073ffffffffffffffffffffffffffffffffffffffff1681525090507f000000000000000000000000000000000000000000000000000000000000000073ffffffffffffffffffffffffffffffffffffffff1663414bf389826040518263ffffffff1660e01b8152600401611ec59190612f01565b6020604051808303816000875af1158015611ee4573d6000803e3d6000fd5b505050506040513d601f19601f82011682018060405250810190611f089190612f1d565b915081600160003373ffffffffffffffffffffffffffffffffffffffff1673ffffffffffffffffffffffffffffffffffffffff1681526020019081526020016000206003016000600160003373ffffffffffffffffffffffffffffffffffffffff1673ffffffffffffffffffffffffffffffffffffffff16815260200190815260200160002060020154815260200190815260200160002081905550600360009054906101000a900473ffffffffffffffffffffffffffffffffffffffff1673ffffffffffffffffffffffffffffffffffffffff1663c25df92d8930878b8b6040518663ffffffff1660e01b81526004016120079594939291906131fd565b600060405180830381600087803b15801561202157600080fd5b505af1158015612035573d6000803e3d6000fd5b50505050509695505050505050565b6000604051905090565b600080fd5b600080fd5b60007fffffffff0000000000000000000000000000000000000000000000000000000082169050919050565b61208d81612058565b811461209857600080fd5b50565b6000813590506120aa81612084565b92915050565b6000602082840312156120c6576120c561204e565b5b60006120d48482850161209b565b91505092915050565b60008115159050919050565b6120f2816120dd565b82525050565b600060208201905061210d60008301846120e9565b92915050565b600073ffffffffffffffffffffffffffffffffffffffff82169050919050565b600061213e82612113565b9050919050565b61214e81612133565b811461215957600080fd5b50565b60008135905061216b81612145565b92915050565b6000819050919050565b61218481612171565b811461218f57600080fd5b50565b6000813590506121a18161217b565b92915050565b600080604083850312156121be576121bd61204e565b5b60006121cc8582860161215c565b92505060206121dd85828601612192565b9150509250929050565b6000602082840312156121fd576121fc61204e565b5b600061220b8482850161215c565b91505092915050565b61221d81612171565b82525050565b60006020820190506122386000830184612214565b92915050565b6000806000606084860312156122575761225661204e565b5b60006122658682870161215c565b93505060206122768682870161215c565b925050604061228786828701612192565b9150509250925092565b61229a81612133565b82525050565b60006020820190506122b56000830184612291565b92915050565b600080604083850312156122d2576122d161204e565b5b60006122e085828601612192565b92505060206122f18582860161215c565b9150509250929050565b6000806000606084860312156123145761231361204e565b5b60006123228682870161215c565b935050602061233386828701612192565b925050604061234486828701612192565b9150509250925092565b6000819050919050565b600061237361236e61236984612113565b61234e565b612113565b9050919050565b600061238582612358565b9050919050565b60006123978261237a565b9050919050565b6123a78161238c565b82525050565b60006020820190506123c2600083018461239e565b92915050565b60006060820190506123dd6000830186612214565b6123ea6020830185612214565b6123f76040830184612214565b949350505050565b600062ffffff82169050919050565b612417816123ff565b811461242257600080fd5b50565b6000813590506124348161240e565b92915050565b600080600080608085870312156124545761245361204e565b5b600061246287828801612192565b94505060206124738782880161215c565b935050604061248487828801612425565b925050606061249587828801612192565b91505092959194509250565b600080fd5b6000601f19601f8301169050919050565b7f4e487b7100000000000000000000000000000000000000000000000000000000600052604160045260246000fd5b6124ef826124a6565b810181811067ffffffffffffffff8211171561250e5761250d6124b7565b5b80604052505050565b6000612521612044565b905061252d82826124e6565b919050565b600067ffffffffffffffff82111561254d5761254c6124b7565b5b602082029050602081019050919050565b600080fd5b600061257661257184612532565b612517565b905080838252602082019050602084028301858111156125995761259861255e565b5b835b818110156125c257806125ae8882612192565b84526020840193505060208101905061259b565b5050509392505050565b600082601f8301126125e1576125e06124a1565b5b81356125f1848260208601612563565b91505092915050565b600080fd5b600067ffffffffffffffff82111561261a576126196124b7565b5b612623826124a6565b9050602081019050919050565b82818337600083830152505050565b600061265261264d846125ff565b612517565b90508281526020810184848401111561266e5761266d6125fa565b5b612679848285612630565b509392505050565b600082601f830112612696576126956124a1565b5b81356126a684826020860161263f565b91505092915050565b600080600080600060a086880312156126cb576126ca61204e565b5b60006126d98882890161215c565b95505060206126ea8882890161215c565b945050604086013567ffffffffffffffff81111561270b5761270a612053565b5b612717888289016125cc565b935050606086013567ffffffffffffffff81111561273857612737612053565b5b612744888289016125cc565b925050608086013567ffffffffffffffff81111561276557612764612053565b5b61277188828901612681565b9150509295509295909350565b61278781612058565b82525050565b60006020820190506127a2600083018461277e565b92915050565b60006127b38261237a565b9050919050565b6127c3816127a8565b82525050565b60006020820190506127de60008301846127ba565b92915050565b600080604083850312156127fb576127fa61204e565b5b600061280985828601612192565b925050602061281a85828601612192565b9150509250929050565b600080600080600060a086880312156128405761283f61204e565b5b600061284e8882890161215c565b955050602061285f8882890161215c565b945050604061287088828901612192565b935050606061288188828901612192565b925050608086013567ffffffffffffffff8111156128a2576128a1612053565b5b6128ae88828901612681565b9150509295509295909350565b7f4e487b7100000000000000000000000000000000000000000000000000000000600052601160045260246000fd5b60006128f582612171565b915061290083612171565b925082821015612913576129126128bb565b5b828203905092915050565b600082825260208201905092915050565b7f4c49513a204163636f756e74206e6f7420696e2064726177646f776e00000000600082015250565b6000612965601c8361291e565b91506129708261292f565b602082019050919050565b6000602082019050818103600083015261299481612958565b9050919050565b7f4c49513a20506f736974696f6e206e6f74206163746976650000000000000000600082015250565b60006129d160188361291e565b91506129dc8261299b565b602082019050919050565b60006020820190508181036000830152612a00816129c4565b9050919050565b7f5354414e4441524420504f4f4c3a204e6f742044414900000000000000000000600082015250565b6000612a3d60168361291e565b9150612a4882612a07565b602082019050919050565b60006020820190508181036000830152612a6c81612a30565b9050919050565b6000612a7e82612171565b9150612a8983612171565b9250827fffffffffffffffffffffffffffffffffffffffffffffffffffffffffffffffff03821115612abe57612abd6128bb565b5b828201905092915050565b6000606082019050612ade6000830186612291565b612aeb6020830185612291565b612af86040830184612214565b949350505050565b612b09816120dd565b8114612b1457600080fd5b50565b600081519050612b2681612b00565b92915050565b600060208284031215612b4257612b4161204e565b5b6000612b5084828501612b17565b91505092915050565b6000612b6482612171565b91507fffffffffffffffffffffffffffffffffffffffffffffffffffffffffffffffff821415612b9757612b966128bb565b5b600182019050919050565b7f434c4f53453a204e6f7420796f757220706f736974696f6e0000000000000000600082015250565b6000612bd860188361291e565b9150612be382612ba2565b602082019050919050565b60006020820190508181036000830152612c0781612bcb565b9050919050565b6000604082019050612c236000830185612291565b612c306020830184612214565b9392505050565b612c4081612171565b82525050565b6000604082019050612c5b6000830185612c37565b612c686020830184612c37565b9392505050565b600081519050612c7e8161217b565b92915050565b600060ff82169050919050565b612c9a81612c84565b8114612ca557600080fd5b50565b600081519050612cb781612c91565b92915050565b60008060408385031215612cd457612cd361204e565b5b6000612ce285828601612c6f565b9250506020612cf385828601612ca8565b9150509250929050565b6000612d0882612171565b9150612d1383612171565b9250817fffffffffffffffffffffffffffffffffffffffffffffffffffffffffffffffff0483118215151615612d4c57612d4b6128bb565b5b828202905092915050565b7f4e487b7100000000000000000000000000000000000000000000000000000000600052601260045260246000fd5b6000612d9182612171565b9150612d9c83612171565b925082612dac57612dab612d57565b5b828204905092915050565b7f535741503a206e6f7420656e6f75676820636f6c6c61746572616c0000000000600082015250565b6000612ded601b8361291e565b9150612df882612db7565b602082019050919050565b60006020820190508181036000830152612e1c81612de0565b9050919050565b612e2c81612133565b82525050565b612e3b816123ff565b82525050565b612e4a81612171565b82525050565b612e5981612113565b82525050565b61010082016000820151612e766000850182612e23565b506020820151612e896020850182612e23565b506040820151612e9c6040850182612e32565b506060820151612eaf6060850182612e23565b506080820151612ec26080850182612e41565b5060a0820151612ed560a0850182612e41565b5060c0820151612ee860c0850182612e41565b5060e0820151612efb60e0850182612e50565b50505050565b600061010082019050612f176000830184612e5f565b92915050565b600060208284031215612f3357612f3261204e565b5b6000612f4184828501612c6f565b91505092915050565b7f434f4c4c41544552414c3a20747279696e6720746f207769746864726177206d60008201527f6f726520636f6c6c61746572616c207468616e206465706f7369746564000000602082015250565b6000612fa6603d8361291e565b9150612fb182612f4a565b604082019050919050565b60006020820190508181036000830152612fd581612f99565b9050919050565b7f434f4c4c41544552414c3a20636c6f736520796f75722063757272656e74207060008201527f6f736974696f6e206265666f726520747279696e6720746f207769746864726160208201527f7700000000000000000000000000000000000000000000000000000000000000604082015250565b600061305e60418361291e565b915061306982612fdc565b606082019050919050565b6000602082019050818103600083015261308d81613051565b9050919050565b600081519050919050565b600081905092915050565b60005b838110156130c85780820151818401526020810190506130ad565b838111156130d7576000848401525b50505050565b60006130e882613094565b6130f2818561309f565b93506131028185602086016130aa565b80840191505092915050565b600061311a82846130dd565b915081905092915050565b7f5354460000000000000000000000000000000000000000000000000000000000600082015250565b600061315b60038361291e565b915061316682613125565b602082019050919050565b6000602082019050818103600083015261318a8161314e565b9050919050565b7f5341000000000000000000000000000000000000000000000000000000000000600082015250565b60006131c760028361291e565b91506131d282613191565b602082019050919050565b600060208201905081810360008301526131f6816131ba565b9050919050565b600060a0820190506132126000830188612291565b61321f6020830187612291565b61322c6040830186612214565b6132396060830185612291565b6132466080830184612214565b969550505050505056fea26469706673582212206830e56aa6a972c35c3a0955afee39e957bffada7a04c2f4e19a0ef736c10d8c64736f6c634300080b0033",
  "immutableReferences": {
    "2132": [
      {
        "length": 32,
        "start": 4915
      },
      {
        "length": 32,
        "start": 5130
      },
      {
        "length": 32,
        "start": 5669
      },
      {
        "length": 32,
        "start": 7575
      },
      {
        "length": 32,
        "start": 7790
      }
    ]
  },
  "source": "// SPDX-License-Identifier: MIT\npragma solidity ^0.8.0; //solhint-disable compiler-fixed\npragma abicoder v2;\n\n\nimport \"@openzeppelin/contracts/token/ERC1155/IERC1155.sol\";\nimport \"@openzeppelin/contracts/token/ERC1155/utils/ERC1155Holder.sol\";\nimport \"@uniswap/v3-periphery/contracts/interfaces/ISwapRouter.sol\";\nimport \"@uniswap/v3-periphery/contracts/libraries/TransferHelper.sol\";\nimport \"@openzeppelin/contracts/token/ERC20/IERC20.sol\";\nimport \"./BeraWrapper.sol\";\nimport \"./ancillary/PnLCalculator.sol\";\n\n\ncontract BeraPoolStandardRisk is ERC1155Holder {\n\n    address public owner;\n\n    mapping(address => Account) public users;\n\n    struct Liquidation {\n        bool wasLiquidated;\n        address liquidator;\n    }\n\n    struct Account {\n        uint userDepositBalance;\n        uint lastClaimedRewards;\n        uint userShortID;\n        mapping(uint => uint) userShortBalanceByID;\n        mapping(uint => uint) entryPrices;\n        mapping(uint => bool) isPositionInShort;\n        mapping(uint => Liquidation) liqData;\n    }\n\n    uint public globalRewards;\n\n    address private constant DAI_ADDRESS = 0x6B175474E89094C44Da98b954EedeAC495271d0F;\n\n    ISwapRouter public immutable swapRouter;\n    BeraWrapper public beraWrapper;\n\n    constructor(ISwapRouter _swapRouter,\n        BeraWrapper _beraWrapper) { //solhint-disable func-visibility\n        owner = msg.sender;\n        swapRouter = _swapRouter;\n        beraWrapper = _beraWrapper;\n    }\n\n    function depositCollateral(uint amount, address collateral) external {\n        require(IERC20(collateral) == IERC20(DAI_ADDRESS), \"STANDARD POOL: Not DAI\");\n\n        //used for withdrawl later\n        users[msg.sender].userDepositBalance += amount;\n\n        //transfer DAI to this contract\n        IERC20(collateral).transferFrom(msg.sender, address(this), amount);\n    }\n\n    function withdrawFromPool(uint amount, uint _userShortID) external {\n        require(amount <= users[msg.sender].userDepositBalance,\n            \"COLLATERAL: trying to withdraw more collateral than deposited\");\n\n        //checking if the funds locked in the position have been released before allowing them to be withdrawn\n        require(users[msg.sender].isPositionInShort[_userShortID] == false,\n            \"COLLATERAL: close your current position before trying to withdraw\");\n\n        //reset balance of user on withdraw\n        users[msg.sender].userDepositBalance -= amount;\n\n        IERC20(DAI_ADDRESS).transfer(msg.sender, amount);\n    }\n\n    //used to claim the profit rewards from collecting trader losses\n    function claimRewards() external {\n        sendOwedProfits(msg.sender);\n    }\n\n    // deposit collateral into user account before being allowed to short\n    function swapAndShortStandard(\n            uint amount,\n            address tokenToShort,\n            uint24 poolFee, //needed for uniswap pool\n            uint amountOutMin)\n            external returns(uint amountOut) { //solhint-disable function-max-lines\n                require(amount <= users[msg.sender].userDepositBalance, \"SWAP: not enough collateral\");\n\n                //by default uints are initialized at 0 so this should work???\n                users[msg.sender].userShortID += 1;\n\n                //get total amount of collateral in shorts if user has opened a position before\n                if (getTotalCollateral(msg.sender) > 0) {\n                    require(getTotalCollateral(msg.sender) <= users[msg.sender].userDepositBalance,\n                        \"SWAP: not enough collateral\");\n                }\n\n                //5% is kept as fee to protocol to assist in paying out users\n                uint amountToSend = amount * 95 / 100;\n\n                TransferHelper.safeTransferFrom(DAI_ADDRESS, msg.sender, address(this), amount);\n                TransferHelper.safeApprove(DAI_ADDRESS, address(swapRouter), amount);\n\n                ISwapRouter.ExactInputSingleParams memory params =\n                ISwapRouter.ExactInputSingleParams({\n                    tokenIn: DAI_ADDRESS,\n                    tokenOut: tokenToShort,\n                    fee: poolFee,\n                    recipient: address(this),\n                    deadline: block.timestamp, //solhint-disable not-rely-on-time\n                    amountIn: amountToSend,\n                    amountOutMinimum: amountOutMin,\n                    sqrtPriceLimitX96: 0\n                });\n\n                //execute the frist swap\n                amountOut = swapRouter.exactInputSingle(params);\n\n                //Call twapPriceOracle here or find a better way to capture price\n                //TODO: Price wrapping\n                //TEST ONLY\n                uint priceAtWrap = 3000;\n\n                //execute the second swap and transfer funds to pool for holding\n                //this is the swap that creates the actual short position for the user on-chain\n                _shortForUser(\n                    msg.sender,\n                    tokenToShort,\n                    priceAtWrap,\n                    poolFee,\n                    amountOut,\n                    amountOutMin\n                );\n\n                //update entry price mapping\n                //this stores the entry price of msg.sender for this specific shortID of the sender\n                //nested mappings look cringe but are efficient\n                users[msg.sender].entryPrices[users[msg.sender].userShortID] = priceAtWrap;\n\n                //update userPositionNumber current short status\n                // inShort[msg.sender][userShortID[msg.sender]] = true;\n                users[msg.sender].isPositionInShort[users[msg.sender].userShortID] = true;\n\n            }\n\n    // if you are reading this comment, this is a way for you to make some money\n    // and keep the protocol alive and kicking\n    // keep in mind that you need to have deposited collateral to receive rewards\n    function liquidateUser(address user, address to, uint shortID) external {\n        uint drawdown = getUserEntryPrice(user, shortID) - 3000;\n        require(drawdown > users[user].userDepositBalance, \"LIQ: Account not in drawdown\");\n        require(users[user].isPositionInShort[shortID] == true, \"LIQ: Position not active\");\n\n        users[user].liqData[shortID].wasLiquidated = true;\n        users[user].liqData[shortID].liquidator = to;\n        closeShortStandardPool(user, shortID, 3000);\n    }\n\n    function getLiquidator(address user, uint shortID) public view returns(address liquidator) {\n        return users[user].liqData[shortID].liquidator;\n    }\n\n    function getTotalCollateral(address user) public view returns(uint totalCollateral) {\n        for (uint i = 0; i <= users[user].userShortID; i++) {\n            totalCollateral += users[user].userShortBalanceByID[i];\n        }\n        return (totalCollateral);\n    }\n\n    function checkRewards(address user) public view returns(uint profits) {\n        return profits = checkOwedProfits(user);\n    }\n\n    function getGlobalRewards() public view returns(uint globals) {\n        return globals = globalRewards;\n    }\n\n    function getUserShortBalance(address user, uint shortID) public view returns(uint bal) {\n        return bal = users[user].userShortBalanceByID[shortID];\n    }\n\n    function getUserEntryPrice(address user, uint shortID) public view returns(uint entry) {\n        return entry = users[user].entryPrices[shortID];\n    }\n\n    function getUserShortBool(address user, uint shortID) public view returns(bool isShort) {\n        return isShort = users[user].isPositionInShort[shortID];\n    }\n\n    //TODO\n    //contract already has the DAI needed to close the trade, can just check the price and\n    //calculate the difference between the opening and closing prices, no need for expensive swaps\n    //in the standardPool contract\n    function closeShortStandardPool(\n        address user,\n        uint _userShortID,\n        uint priceAtClose)\n        public {\n            require(user == msg.sender, \"CLOSE: Not your position\");\n\n            beraWrapper.unwrapPosition(user, _userShortID);\n            //TODO\n            //require priceAtClose == twapPriceOracle();\n\n            //calculate position balance using entryPrices - current price\n            //returnValue of 0 indicates a winning trade, while 1 indicates a loss\n            (uint amountPNL, uint returnValue) =\n            PnLCalculator.calculatePNL(users[msg.sender].entryPrices[_userShortID], priceAtClose);\n\n            //if user has made money, we update their balance directly\n            //keeping in mind that dai is always stored in this contract and will only be transfered\n            //out on withdrawing\n            if (returnValue == 0) {\n                users[msg.sender].userDepositBalance += amountPNL;\n            } else if (returnValue == 1) {\n                users[msg.sender].userDepositBalance -= amountPNL;\n                //experimental liquidation logic\n                //kinda dogshit ngl\n                if (users[user].liqData[_userShortID].wasLiquidated == true) {\n                    uint newPNL = amountPNL * 50 / 100;\n                    uint toLiquidator = amountPNL - newPNL;\n                    address liquidator = getLiquidator(user, _userShortID);\n                    users[liquidator].userDepositBalance += toLiquidator;\n                    globalRewards += newPNL;\n                } else {\n                    //distribute loss amongst users in pool\n                    globalRewards += amountPNL;\n                }\n            }\n\n            //update current userPositionNumber to free withdraws of these specific funds\n            users[msg.sender].isPositionInShort[_userShortID] = false;\n            users[msg.sender].userShortBalanceByID[_userShortID] = 0;\n\n        }\n\n    function _shortForUser(\n        address user,\n        address tokenToShort,\n        uint priceAtWrap,\n        uint24 poolFee,\n        uint amount,\n        uint amountOutMin) internal returns(uint amountOut) {\n\n        TransferHelper.safeApprove(tokenToShort, address(swapRouter), amount);\n\n        //now that this contract has the desired token to short, we sell @ market back for DAI\n        ISwapRouter.ExactInputSingleParams memory tokenParams =\n        ISwapRouter.ExactInputSingleParams({\n            tokenIn: tokenToShort,\n            tokenOut: DAI_ADDRESS,\n            fee: poolFee,\n            recipient: address(this), //the pool contract will store both DAI from deposits and tokenOut\n            deadline: block.timestamp, //solhint-disable not-rely-on-time\n            amountIn: amount,\n            amountOutMinimum: amountOutMin,\n            sqrtPriceLimitX96: 0\n        });\n\n        // execute the short, amountOut is wETH in this test case\n        amountOut = swapRouter.exactInputSingle(tokenParams);\n\n        //update user balance of the user current positionID\n        //this is used to keep track of how much of the users deposit is currently being used\n        //userShortBalance[msg.sender][userShortID[msg.sender]] = amountOut;\n        users[msg.sender].userShortBalanceByID[users[msg.sender].userShortID] = amountOut;\n\n        //wrap position in ERC1155\n        beraWrapper.wrapPosition(user, address(this), amount, tokenToShort, priceAtWrap);\n    }\n\n    //the percentage reward is based on the last time they claimed vs the total reward calculated\n    //this will allow us to avoid using a loop for reward distribution\n    //and allow users to pull their own rewards when they want\n    function checkOwedProfits(address user) internal view returns (uint) {\n        uint percentageReward = globalRewards - users[user].lastClaimedRewards;\n        return users[user].userDepositBalance * percentageReward / IERC20(DAI_ADDRESS).balanceOf(address(this));\n    }\n\n    function sendOwedProfits(address user) internal {\n        uint owed = checkOwedProfits(user);\n        if (owed > 0) {\n            users[user].userDepositBalance += owed;\n            users[user].lastClaimedRewards = globalRewards;\n        }\n    }\n\n    receive() external payable { //solhint-disable state-visibility\n\n}\n\n    fallback() external payable { //solhint-disable\n\n}\n\n}\n",
  "sourcePath": "/home/kevin/Code/solidity_projects/beraMarket/contracts/BeraPoolStandardRisk.sol",
  "compiler": {
    "name": "solc",
    "version": "0.8.11+commit.d7f03943.Emscripten.clang"
  },
  "schemaVersion": "3.4.3",
  "updatedAt": "2021-12-28T00:37:43.228Z",
  "networkType": "ethereum",
  "devdoc": {
    "kind": "dev",
    "methods": {
      "supportsInterface(bytes4)": {
        "details": "See {IERC165-supportsInterface}."
      }
    },
    "version": 1
  },
  "userdoc": {
    "kind": "user",
    "methods": {},
    "version": 1
  }
}