{
  "contractName": "BeraPoolStandardRisk",
  "abi": [
    {
      "inputs": [
        {
          "internalType": "contract ISwapRouter",
          "name": "_swapRouter",
          "type": "address"
        },
        {
          "internalType": "contract BeraWrapper",
          "name": "_beraWrapper",
          "type": "address"
        },
        {
          "internalType": "contract TWAPOracle",
          "name": "_twapOracle",
          "type": "address"
        }
      ],
      "stateMutability": "nonpayable",
      "type": "constructor"
    },
    {
      "stateMutability": "payable",
      "type": "fallback"
    },
    {
      "inputs": [],
      "name": "beraWrapper",
      "outputs": [
        {
          "internalType": "contract BeraWrapper",
          "name": "",
          "type": "address"
        }
      ],
      "stateMutability": "view",
      "type": "function"
    },
    {
      "inputs": [],
      "name": "globalRewards",
      "outputs": [
        {
          "internalType": "uint256",
          "name": "",
          "type": "uint256"
        }
      ],
      "stateMutability": "view",
      "type": "function"
    },
    {
      "inputs": [
        {
          "internalType": "address",
          "name": "",
          "type": "address"
        },
        {
          "internalType": "address",
          "name": "",
          "type": "address"
        },
        {
          "internalType": "uint256[]",
          "name": "",
          "type": "uint256[]"
        },
        {
          "internalType": "uint256[]",
          "name": "",
          "type": "uint256[]"
        },
        {
          "internalType": "bytes",
          "name": "",
          "type": "bytes"
        }
      ],
      "name": "onERC1155BatchReceived",
      "outputs": [
        {
          "internalType": "bytes4",
          "name": "",
          "type": "bytes4"
        }
      ],
      "stateMutability": "nonpayable",
      "type": "function"
    },
    {
      "inputs": [
        {
          "internalType": "address",
          "name": "",
          "type": "address"
        },
        {
          "internalType": "address",
          "name": "",
          "type": "address"
        },
        {
          "internalType": "uint256",
          "name": "",
          "type": "uint256"
        },
        {
          "internalType": "uint256",
          "name": "",
          "type": "uint256"
        },
        {
          "internalType": "bytes",
          "name": "",
          "type": "bytes"
        }
      ],
      "name": "onERC1155Received",
      "outputs": [
        {
          "internalType": "bytes4",
          "name": "",
          "type": "bytes4"
        }
      ],
      "stateMutability": "nonpayable",
      "type": "function"
    },
    {
      "inputs": [],
      "name": "owner",
      "outputs": [
        {
          "internalType": "address",
          "name": "",
          "type": "address"
        }
      ],
      "stateMutability": "view",
      "type": "function"
    },
    {
      "inputs": [
        {
          "internalType": "bytes4",
          "name": "interfaceId",
          "type": "bytes4"
        }
      ],
      "name": "supportsInterface",
      "outputs": [
        {
          "internalType": "bool",
          "name": "",
          "type": "bool"
        }
      ],
      "stateMutability": "view",
      "type": "function"
    },
    {
      "inputs": [],
      "name": "swapRouter",
      "outputs": [
        {
          "internalType": "contract ISwapRouter",
          "name": "",
          "type": "address"
        }
      ],
      "stateMutability": "view",
      "type": "function"
    },
    {
      "inputs": [],
      "name": "twapOracle",
      "outputs": [
        {
          "internalType": "contract TWAPOracle",
          "name": "",
          "type": "address"
        }
      ],
      "stateMutability": "view",
      "type": "function"
    },
    {
      "inputs": [
        {
          "internalType": "address",
          "name": "",
          "type": "address"
        }
      ],
      "name": "users",
      "outputs": [
        {
          "internalType": "uint256",
          "name": "userDepositBalance",
          "type": "uint256"
        },
        {
          "internalType": "uint256",
          "name": "lastClaimedRewards",
          "type": "uint256"
        },
        {
          "internalType": "uint256",
          "name": "userShortID",
          "type": "uint256"
        }
      ],
      "stateMutability": "view",
      "type": "function"
    },
    {
      "stateMutability": "payable",
      "type": "receive"
    },
    {
      "inputs": [
        {
          "internalType": "uint256",
          "name": "amount",
          "type": "uint256"
        },
        {
          "internalType": "address",
          "name": "collateral",
          "type": "address"
        }
      ],
      "name": "depositCollateral",
      "outputs": [],
      "stateMutability": "nonpayable",
      "type": "function"
    },
    {
      "inputs": [
        {
          "internalType": "uint256",
          "name": "amount",
          "type": "uint256"
        },
        {
          "internalType": "uint256",
          "name": "userShortID",
          "type": "uint256"
        }
      ],
      "name": "withdrawFromPool",
      "outputs": [],
      "stateMutability": "nonpayable",
      "type": "function"
    },
    {
      "inputs": [],
      "name": "claimRewards",
      "outputs": [],
      "stateMutability": "nonpayable",
      "type": "function"
    },
    {
      "inputs": [
        {
          "internalType": "uint256",
          "name": "amount",
          "type": "uint256"
        },
        {
          "internalType": "address",
          "name": "tokenToShort",
          "type": "address"
        },
        {
          "internalType": "uint24",
          "name": "poolFee",
          "type": "uint24"
        },
        {
          "internalType": "uint256",
          "name": "amountOutMin",
          "type": "uint256"
        }
      ],
      "name": "swapAndShortStandard",
      "outputs": [
        {
          "internalType": "uint256",
          "name": "amountOut",
          "type": "uint256"
        }
      ],
      "stateMutability": "nonpayable",
      "type": "function"
    },
    {
      "inputs": [
        {
          "internalType": "address",
          "name": "userUnderwater",
          "type": "address"
        },
        {
          "internalType": "address",
          "name": "liquidator",
          "type": "address"
        },
        {
          "internalType": "uint256",
          "name": "shortID",
          "type": "uint256"
        }
      ],
      "name": "liquidateUser",
      "outputs": [],
      "stateMutability": "nonpayable",
      "type": "function"
    },
    {
      "inputs": [
        {
          "internalType": "address",
          "name": "user",
          "type": "address"
        },
        {
          "internalType": "uint256",
          "name": "shortID",
          "type": "uint256"
        }
      ],
      "name": "getLiquidator",
      "outputs": [
        {
          "internalType": "address",
          "name": "liquidator",
          "type": "address"
        }
      ],
      "stateMutability": "view",
      "type": "function"
    },
    {
      "inputs": [
        {
          "internalType": "address",
          "name": "user",
          "type": "address"
        }
      ],
      "name": "getTotalCollateral",
      "outputs": [
        {
          "internalType": "uint256",
          "name": "totalCollateral",
          "type": "uint256"
        }
      ],
      "stateMutability": "view",
      "type": "function"
    },
    {
      "inputs": [
        {
          "internalType": "address",
          "name": "user",
          "type": "address"
        }
      ],
      "name": "checkRewards",
      "outputs": [
        {
          "internalType": "uint256",
          "name": "profits",
          "type": "uint256"
        }
      ],
      "stateMutability": "view",
      "type": "function"
    },
    {
      "inputs": [],
      "name": "getGlobalRewards",
      "outputs": [
        {
          "internalType": "uint256",
          "name": "globals",
          "type": "uint256"
        }
      ],
      "stateMutability": "view",
      "type": "function"
    },
    {
      "inputs": [
        {
          "internalType": "address",
          "name": "user",
          "type": "address"
        },
        {
          "internalType": "uint256",
          "name": "shortID",
          "type": "uint256"
        }
      ],
      "name": "getUserShortBalance",
      "outputs": [
        {
          "internalType": "uint256",
          "name": "bal",
          "type": "uint256"
        }
      ],
      "stateMutability": "view",
      "type": "function"
    },
    {
      "inputs": [
        {
          "internalType": "address",
          "name": "user",
          "type": "address"
        },
        {
          "internalType": "uint256",
          "name": "shortID",
          "type": "uint256"
        }
      ],
      "name": "getUserEntryPrice",
      "outputs": [
        {
          "internalType": "uint256",
          "name": "entry",
          "type": "uint256"
        }
      ],
      "stateMutability": "view",
      "type": "function"
    },
    {
      "inputs": [
        {
          "internalType": "address",
          "name": "user",
          "type": "address"
        },
        {
          "internalType": "uint256",
          "name": "shortID",
          "type": "uint256"
        }
      ],
      "name": "getUserShortBool",
      "outputs": [
        {
          "internalType": "bool",
          "name": "isShort",
          "type": "bool"
        }
      ],
      "stateMutability": "view",
      "type": "function"
    },
    {
      "inputs": [
        {
          "internalType": "address",
          "name": "user",
          "type": "address"
        },
        {
          "internalType": "uint256",
          "name": "shortID",
          "type": "uint256"
        }
      ],
      "name": "getTokenAndFeeShortedByUser",
      "outputs": [
        {
          "internalType": "address",
          "name": "token",
          "type": "address"
        },
        {
          "internalType": "uint24",
          "name": "fee",
          "type": "uint24"
        }
      ],
      "stateMutability": "view",
      "type": "function"
    },
    {
      "inputs": [
        {
          "internalType": "address",
          "name": "user",
          "type": "address"
        },
        {
          "internalType": "uint256",
          "name": "userShortID",
          "type": "uint256"
        }
      ],
      "name": "closeShortStandardPool",
      "outputs": [],
      "stateMutability": "nonpayable",
      "type": "function"
    }
  ],
  "bytecode": "0x60a06040523480156200001157600080fd5b5060405162003d4138038062003d4183398181016040528101906200003791906200023e565b336000806101000a81548173ffffffffffffffffffffffffffffffffffffffff021916908373ffffffffffffffffffffffffffffffffffffffff1602179055508273ffffffffffffffffffffffffffffffffffffffff1660808173ffffffffffffffffffffffffffffffffffffffff168152505081600360006101000a81548173ffffffffffffffffffffffffffffffffffffffff021916908373ffffffffffffffffffffffffffffffffffffffff16021790555080600460006101000a81548173ffffffffffffffffffffffffffffffffffffffff021916908373ffffffffffffffffffffffffffffffffffffffff1602179055505050506200029a565b600080fd5b600073ffffffffffffffffffffffffffffffffffffffff82169050919050565b600062000168826200013b565b9050919050565b60006200017c826200015b565b9050919050565b6200018e816200016f565b81146200019a57600080fd5b50565b600081519050620001ae8162000183565b92915050565b6000620001c1826200015b565b9050919050565b620001d381620001b4565b8114620001df57600080fd5b50565b600081519050620001f381620001c8565b92915050565b600062000206826200015b565b9050919050565b6200021881620001f9565b81146200022457600080fd5b50565b60008151905062000238816200020d565b92915050565b6000806000606084860312156200025a576200025962000136565b5b60006200026a868287016200019d565b93505060206200027d86828701620001e2565b9250506040620002908682870162000227565b9150509250925092565b608051613a6f620002d2600039600081816117aa0152818161188101528181611d420152818161254201526126190152613a6f6000f3fe6080604052600436106101445760003560e01c80637423031e116100b6578063aac28b541161006f578063aac28b54146104a0578063bc197c81146104dd578063c31c9c071461051a578063db6623e114610545578063ef1b316614610583578063f23a6e61146105ac5761014b565b80637423031e1461038a57806380a0b0fc146103b55780638da5cb5b146103e05780639043292a1461040b578063a29aa11414610436578063a87430ba146104615761014b565b80630ea99f40116101085780630ea99f401461026a578063372500ab146102935780633762e995146102aa578063481fef8a146102e75780635e1691361461031057806360a98b801461034d5761014b565b806301ee16321461014d57806301ffc9a714610176578063028bdf7c146101b3578063046ff0d3146101f057806309d3e9c31461022d5761014b565b3661014b57005b005b34801561015957600080fd5b50610174600480360381019061016f91906127fd565b6105e9565b005b34801561018257600080fd5b5061019d60048036038101906101989190612895565b610cf9565b6040516101aa91906128dd565b60405180910390f35b3480156101bf57600080fd5b506101da60048036038101906101d591906127fd565b610d73565b6040516101e791906128dd565b60405180910390f35b3480156101fc57600080fd5b50610217600480360381019061021291906128f8565b610dde565b6040516102249190612934565b60405180910390f35b34801561023957600080fd5b50610254600480360381019061024f91906127fd565b610df0565b6040516102619190612934565b60405180910390f35b34801561027657600080fd5b50610291600480360381019061028c919061294f565b610e4e565b005b34801561029f57600080fd5b506102a8611215565b005b3480156102b657600080fd5b506102d160048036038101906102cc91906127fd565b611220565b6040516102de91906129b1565b60405180910390f35b3480156102f357600080fd5b5061030e600480360381019061030991906129cc565b6112a1565b005b34801561031c57600080fd5b50610337600480360381019061033291906127fd565b611401565b6040516103449190612934565b60405180910390f35b34801561035957600080fd5b50610374600480360381019061036f91906128f8565b61145f565b6040516103819190612934565b60405180910390f35b34801561039657600080fd5b5061039f61152a565b6040516103ac9190612934565b60405180910390f35b3480156103c157600080fd5b506103ca611530565b6040516103d79190612934565b60405180910390f35b3480156103ec57600080fd5b506103f561153a565b60405161040291906129b1565b60405180910390f35b34801561041757600080fd5b5061042061155e565b60405161042d9190612a6b565b60405180910390f35b34801561044257600080fd5b5061044b611584565b6040516104589190612aa7565b60405180910390f35b34801561046d57600080fd5b50610488600480360381019061048391906128f8565b6115aa565b60405161049793929190612ac2565b60405180910390f35b3480156104ac57600080fd5b506104c760048036038101906104c29190612b34565b6115d4565b6040516104d49190612934565b60405180910390f35b3480156104e957600080fd5b5061050460048036038101906104ff9190612da9565b611d2b565b6040516105119190612e87565b60405180910390f35b34801561052657600080fd5b5061052f611d40565b60405161053c9190612ec3565b60405180910390f35b34801561055157600080fd5b5061056c600480360381019061056791906127fd565b611d64565b60405161057a929190612eed565b60405180910390f35b34801561058f57600080fd5b506105aa60048036038101906105a59190612f16565b611e49565b005b3480156105b857600080fd5b506105d360048036038101906105ce9190612f56565b61200e565b6040516105e09190612e87565b60405180910390f35b3373ffffffffffffffffffffffffffffffffffffffff168273ffffffffffffffffffffffffffffffffffffffff1614610657576040517f08c379a000000000000000000000000000000000000000000000000000000000815260040161064e9061304a565b60405180910390fd5b6000600460009054906101000a900473ffffffffffffffffffffffffffffffffffffffff1673ffffffffffffffffffffffffffffffffffffffff16633d3c18a4600460009054906101000a900473ffffffffffffffffffffffffffffffffffffffff1673ffffffffffffffffffffffffffffffffffffffff166358de3500600160008873ffffffffffffffffffffffffffffffffffffffff1673ffffffffffffffffffffffffffffffffffffffff168152602001908152602001600020600501600087815260200190815260200160002060009054906101000a900473ffffffffffffffffffffffffffffffffffffffff16600160008973ffffffffffffffffffffffffffffffffffffffff1673ffffffffffffffffffffffffffffffffffffffff168152602001908152602001600020600601600088815260200190815260200160002060009054906101000a900462ffffff166040518363ffffffff1660e01b81526004016107c9929190612eed565b602060405180830381865afa1580156107e6573d6000803e3d6000fd5b505050506040513d601f19601f8201168201806040525081019061080a919061307f565b600160008773ffffffffffffffffffffffffffffffffffffffff1673ffffffffffffffffffffffffffffffffffffffff1681526020019081526020016000206004016000868152602001908152602001600020546040518363ffffffff1660e01b815260040161087b9291906130f8565b602060405180830381865afa158015610898573d6000803e3d6000fd5b505050506040513d601f19601f820116820180604052508101906108bc9190613136565b9050600360009054906101000a900473ffffffffffffffffffffffffffffffffffffffff1673ffffffffffffffffffffffffffffffffffffffff1663b9e17b7684846040518363ffffffff1660e01b815260040161091b929190613163565b600060405180830381600087803b15801561093557600080fd5b505af1158015610949573d6000803e3d6000fd5b5050505060008073__PnLCalculator_________________________63896b198a600160003373ffffffffffffffffffffffffffffffffffffffff1673ffffffffffffffffffffffffffffffffffffffff168152602001908152602001600020600301600087815260200190815260200160002054856040518363ffffffff1660e01b81526004016109dc92919061319b565b6040805180830381865af41580156109f8573d6000803e3d6000fd5b505050506040513d601f19601f82011682018060405250810190610a1c91906131fd565b60ff16915091506000811415610a8a5781600160003373ffffffffffffffffffffffffffffffffffffffff1673ffffffffffffffffffffffffffffffffffffffff1681526020019081526020016000206000016000828254610a7e919061326c565b92505081905550610c2d565b6001811415610c2c5781600160003373ffffffffffffffffffffffffffffffffffffffff1673ffffffffffffffffffffffffffffffffffffffff1681526020019081526020016000206000016000828254610ae591906132c2565b9250508190555060011515600160008773ffffffffffffffffffffffffffffffffffffffff1673ffffffffffffffffffffffffffffffffffffffff168152602001908152602001600020600801600086815260200190815260200160002060000160009054906101000a900460ff1615151415610c115760006064603284610b6d91906132f6565b610b77919061337f565b905060008184610b8791906132c2565b90506000610b958888611220565b905081600160008373ffffffffffffffffffffffffffffffffffffffff1673ffffffffffffffffffffffffffffffffffffffff1681526020019081526020016000206000016000828254610be9919061326c565b925050819055508260026000828254610c02919061326c565b92505081905550505050610c2b565b8160026000828254610c23919061326c565b925050819055505b5b5b6000600160003373ffffffffffffffffffffffffffffffffffffffff1673ffffffffffffffffffffffffffffffffffffffff168152602001908152602001600020600701600086815260200190815260200160002060006101000a81548160ff0219169083151502179055506000600160003373ffffffffffffffffffffffffffffffffffffffff1673ffffffffffffffffffffffffffffffffffffffff1681526020019081526020016000206004016000868152602001908152602001600020819055505050505050565b60007f4e2312e0000000000000000000000000000000000000000000000000000000007bffffffffffffffffffffffffffffffffffffffffffffffffffffffff1916827bffffffffffffffffffffffffffffffffffffffffffffffffffffffff19161480610d6c5750610d6b82612023565b5b9050919050565b6000600160008473ffffffffffffffffffffffffffffffffffffffff1673ffffffffffffffffffffffffffffffffffffffff168152602001908152602001600020600701600083815260200190815260200160002060009054906101000a900460ff16905092915050565b6000610de98261208d565b9050919050565b6000600160008473ffffffffffffffffffffffffffffffffffffffff1673ffffffffffffffffffffffffffffffffffffffff168152602001908152602001600020600401600083815260200190815260200160002054905092915050565b600080610e5b8584611d64565b915091506000600460009054906101000a900473ffffffffffffffffffffffffffffffffffffffff1673ffffffffffffffffffffffffffffffffffffffff16633d3c18a4600460009054906101000a900473ffffffffffffffffffffffffffffffffffffffff1673ffffffffffffffffffffffffffffffffffffffff166358de350086866040518363ffffffff1660e01b8152600401610efc929190612eed565b602060405180830381865afa158015610f19573d6000803e3d6000fd5b505050506040513d601f19601f82011682018060405250810190610f3d919061307f565b610f478988610df0565b6040518363ffffffff1660e01b8152600401610f649291906130f8565b602060405180830381865afa158015610f81573d6000803e3d6000fd5b505050506040513d601f19601f82011682018060405250810190610fa59190613136565b9050600081610fb48887611401565b610fbe91906132c2565b9050600060646005600160008b73ffffffffffffffffffffffffffffffffffffffff1673ffffffffffffffffffffffffffffffffffffffff1681526020019081526020016000206000015461101391906132f6565b61101d919061337f565b9050600160008973ffffffffffffffffffffffffffffffffffffffff1673ffffffffffffffffffffffffffffffffffffffff16815260200190815260200160002060000154818361106e919061326c565b116110ae576040517f08c379a00000000000000000000000000000000000000000000000000000000081526004016110a5906133fc565b60405180910390fd5b600115156110bc8988610d73565b1515146110fe576040517f08c379a00000000000000000000000000000000000000000000000000000000081526004016110f590613468565b60405180910390fd5b60018060008a73ffffffffffffffffffffffffffffffffffffffff1673ffffffffffffffffffffffffffffffffffffffff168152602001908152602001600020600801600088815260200190815260200160002060000160006101000a81548160ff02191690831515021790555086600160008a73ffffffffffffffffffffffffffffffffffffffff1673ffffffffffffffffffffffffffffffffffffffff168152602001908152602001600020600801600088815260200190815260200160002060000160016101000a81548173ffffffffffffffffffffffffffffffffffffffff021916908373ffffffffffffffffffffffffffffffffffffffff16021790555061120b88876105e9565b5050505050505050565b61121e336121d0565b565b6000600160008473ffffffffffffffffffffffffffffffffffffffff1673ffffffffffffffffffffffffffffffffffffffff168152602001908152602001600020600801600083815260200190815260200160002060000160019054906101000a900473ffffffffffffffffffffffffffffffffffffffff16905092915050565b736b175474e89094c44da98b954eedeac495271d0f73ffffffffffffffffffffffffffffffffffffffff168173ffffffffffffffffffffffffffffffffffffffff1614611323576040517f08c379a000000000000000000000000000000000000000000000000000000000815260040161131a906134d4565b60405180910390fd5b81600160003373ffffffffffffffffffffffffffffffffffffffff1673ffffffffffffffffffffffffffffffffffffffff1681526020019081526020016000206000016000828254611375919061326c565b925050819055508073ffffffffffffffffffffffffffffffffffffffff166323b872dd3330856040518463ffffffff1660e01b81526004016113b9939291906134f4565b6020604051808303816000875af11580156113d8573d6000803e3d6000fd5b505050506040513d601f19601f820116820180604052508101906113fc9190613557565b505050565b6000600160008473ffffffffffffffffffffffffffffffffffffffff1673ffffffffffffffffffffffffffffffffffffffff168152602001908152602001600020600301600083815260200190815260200160002054905092915050565b600080600090505b600160008473ffffffffffffffffffffffffffffffffffffffff1673ffffffffffffffffffffffffffffffffffffffff16815260200190815260200160002060020154811161152457600160008473ffffffffffffffffffffffffffffffffffffffff1673ffffffffffffffffffffffffffffffffffffffff1681526020019081526020016000206004016000828152602001908152602001600020548261150f919061326c565b9150808061151c90613584565b915050611467565b50919050565b60025481565b6000600254905090565b60008054906101000a900473ffffffffffffffffffffffffffffffffffffffff1681565b600460009054906101000a900473ffffffffffffffffffffffffffffffffffffffff1681565b600360009054906101000a900473ffffffffffffffffffffffffffffffffffffffff1681565b60016020528060005260406000206000915090508060000154908060010154908060020154905083565b6000600160003373ffffffffffffffffffffffffffffffffffffffff1673ffffffffffffffffffffffffffffffffffffffff1681526020019081526020016000206000015485111561165b576040517f08c379a000000000000000000000000000000000000000000000000000000000815260040161165290613619565b60405180910390fd5b60018060003373ffffffffffffffffffffffffffffffffffffffff1673ffffffffffffffffffffffffffffffffffffffff16815260200190815260200160002060020160008282546116ad919061326c565b9250508190555060006116bf3361145f565b111561175357600160003373ffffffffffffffffffffffffffffffffffffffff1673ffffffffffffffffffffffffffffffffffffffff168152602001908152602001600020600001546117113361145f565b1115611752576040517f08c379a000000000000000000000000000000000000000000000000000000000815260040161174990613619565b60405180910390fd5b5b60006064605f8761176491906132f6565b61176e919061337f565b9050611790736b175474e89094c44da98b954eedeac495271d0f33308961228d565b6117cf736b175474e89094c44da98b954eedeac495271d0f7f0000000000000000000000000000000000000000000000000000000000000000886123e5565b6000604051806101000160405280736b175474e89094c44da98b954eedeac495271d0f73ffffffffffffffffffffffffffffffffffffffff1681526020018773ffffffffffffffffffffffffffffffffffffffff1681526020018662ffffff1681526020013073ffffffffffffffffffffffffffffffffffffffff168152602001428152602001838152602001858152602001600073ffffffffffffffffffffffffffffffffffffffff1681525090507f000000000000000000000000000000000000000000000000000000000000000073ffffffffffffffffffffffffffffffffffffffff1663414bf389826040518263ffffffff1660e01b81526004016118d89190613717565b6020604051808303816000875af11580156118f7573d6000803e3d6000fd5b505050506040513d601f19601f8201168201806040525081019061191b9190613136565b92506000600460009054906101000a900473ffffffffffffffffffffffffffffffffffffffff1673ffffffffffffffffffffffffffffffffffffffff16633d3c18a4600460009054906101000a900473ffffffffffffffffffffffffffffffffffffffff1673ffffffffffffffffffffffffffffffffffffffff166358de35008a8a6040518363ffffffff1660e01b81526004016119ba929190612eed565b602060405180830381865afa1580156119d7573d6000803e3d6000fd5b505050506040513d601f19601f820116820180604052508101906119fb919061307f565b8a6040518363ffffffff1660e01b8152600401611a199291906130f8565b602060405180830381865afa158015611a36573d6000803e3d6000fd5b505050506040513d601f19601f82011682018060405250810190611a5a9190613136565b9050611a6a33888389888a61253a565b5080600160003373ffffffffffffffffffffffffffffffffffffffff1673ffffffffffffffffffffffffffffffffffffffff1681526020019081526020016000206003016000600160003373ffffffffffffffffffffffffffffffffffffffff1673ffffffffffffffffffffffffffffffffffffffff1681526020019081526020016000206002015481526020019081526020016000208190555083600160003373ffffffffffffffffffffffffffffffffffffffff1673ffffffffffffffffffffffffffffffffffffffff1681526020019081526020016000206004016000600160003373ffffffffffffffffffffffffffffffffffffffff1673ffffffffffffffffffffffffffffffffffffffff1681526020019081526020016000206002015481526020019081526020016000208190555060018060003373ffffffffffffffffffffffffffffffffffffffff1673ffffffffffffffffffffffffffffffffffffffff1681526020019081526020016000206007016000600160003373ffffffffffffffffffffffffffffffffffffffff1673ffffffffffffffffffffffffffffffffffffffff16815260200190815260200160002060020154815260200190815260200160002060006101000a81548160ff02191690831515021790555086600160003373ffffffffffffffffffffffffffffffffffffffff1673ffffffffffffffffffffffffffffffffffffffff1681526020019081526020016000206005016000600160003373ffffffffffffffffffffffffffffffffffffffff1673ffffffffffffffffffffffffffffffffffffffff16815260200190815260200160002060020154815260200190815260200160002060006101000a81548173ffffffffffffffffffffffffffffffffffffffff021916908373ffffffffffffffffffffffffffffffffffffffff160217905550505050949350505050565b600063bc197c8160e01b905095945050505050565b7f000000000000000000000000000000000000000000000000000000000000000081565b600080600160008573ffffffffffffffffffffffffffffffffffffffff1673ffffffffffffffffffffffffffffffffffffffff168152602001908152602001600020600501600084815260200190815260200160002060009054906101000a900473ffffffffffffffffffffffffffffffffffffffff169150600160008573ffffffffffffffffffffffffffffffffffffffff1673ffffffffffffffffffffffffffffffffffffffff168152602001908152602001600020600601600084815260200190815260200160002060009054906101000a900462ffffff1690509250929050565b600160003373ffffffffffffffffffffffffffffffffffffffff1673ffffffffffffffffffffffffffffffffffffffff16815260200190815260200160002060000154821115611ece576040517f08c379a0000000000000000000000000000000000000000000000000000000008152600401611ec5906137a5565b60405180910390fd5b60001515611edc3383610d73565b151514611f1e576040517f08c379a0000000000000000000000000000000000000000000000000000000008152600401611f159061385d565b60405180910390fd5b81600160003373ffffffffffffffffffffffffffffffffffffffff1673ffffffffffffffffffffffffffffffffffffffff1681526020019081526020016000206000016000828254611f7091906132c2565b92505081905550736b175474e89094c44da98b954eedeac495271d0f73ffffffffffffffffffffffffffffffffffffffff1663a9059cbb33846040518363ffffffff1660e01b8152600401611fc6929190613163565b6020604051808303816000875af1158015611fe5573d6000803e3d6000fd5b505050506040513d601f19601f820116820180604052508101906120099190613557565b505050565b600063f23a6e6160e01b905095945050505050565b60007f01ffc9a7000000000000000000000000000000000000000000000000000000007bffffffffffffffffffffffffffffffffffffffffffffffffffffffff1916827bffffffffffffffffffffffffffffffffffffffffffffffffffffffff1916149050919050565b600080600160008473ffffffffffffffffffffffffffffffffffffffff1673ffffffffffffffffffffffffffffffffffffffff168152602001908152602001600020600101546002546120e091906132c2565b9050736b175474e89094c44da98b954eedeac495271d0f73ffffffffffffffffffffffffffffffffffffffff166370a08231306040518263ffffffff1660e01b815260040161212f91906129b1565b602060405180830381865afa15801561214c573d6000803e3d6000fd5b505050506040513d601f19601f820116820180604052508101906121709190613136565b81600160008673ffffffffffffffffffffffffffffffffffffffff1673ffffffffffffffffffffffffffffffffffffffff168152602001908152602001600020600001546121be91906132f6565b6121c8919061337f565b915050919050565b60006121db8261208d565b905060008111156122895780600160008473ffffffffffffffffffffffffffffffffffffffff1673ffffffffffffffffffffffffffffffffffffffff1681526020019081526020016000206000016000828254612238919061326c565b92505081905550600254600160008473ffffffffffffffffffffffffffffffffffffffff1673ffffffffffffffffffffffffffffffffffffffff168152602001908152602001600020600101819055505b5050565b6000808573ffffffffffffffffffffffffffffffffffffffff166323b872dd60e01b8686866040516024016122c4939291906134f4565b604051602081830303815290604052907bffffffffffffffffffffffffffffffffffffffffffffffffffffffff19166020820180517bffffffffffffffffffffffffffffffffffffffffffffffffffffffff838183161783525050505060405161232e91906138f7565b6000604051808303816000865af19150503d806000811461236b576040519150601f19603f3d011682016040523d82523d6000602084013e612370565b606091505b509150915081801561239e575060008151148061239d57508080602001905181019061239c9190613557565b5b5b6123dd576040517f08c379a00000000000000000000000000000000000000000000000000000000081526004016123d49061395a565b60405180910390fd5b505050505050565b6000808473ffffffffffffffffffffffffffffffffffffffff1663095ea7b360e01b858560405160240161241a929190613163565b604051602081830303815290604052907bffffffffffffffffffffffffffffffffffffffffffffffffffffffff19166020820180517bffffffffffffffffffffffffffffffffffffffffffffffffffffffff838183161783525050505060405161248491906138f7565b6000604051808303816000865af19150503d80600081146124c1576040519150601f19603f3d011682016040523d82523d6000602084013e6124c6565b606091505b50915091508180156124f457506000815114806124f35750808060200190518101906124f29190613557565b5b5b612533576040517f08c379a000000000000000000000000000000000000000000000000000000000815260040161252a906139c6565b60405180910390fd5b5050505050565b6000612567867f0000000000000000000000000000000000000000000000000000000000000000856123e5565b60006040518061010001604052808873ffffffffffffffffffffffffffffffffffffffff168152602001736b175474e89094c44da98b954eedeac495271d0f73ffffffffffffffffffffffffffffffffffffffff1681526020018662ffffff1681526020013073ffffffffffffffffffffffffffffffffffffffff168152602001428152602001858152602001848152602001600073ffffffffffffffffffffffffffffffffffffffff1681525090507f000000000000000000000000000000000000000000000000000000000000000073ffffffffffffffffffffffffffffffffffffffff1663414bf389826040518263ffffffff1660e01b81526004016126709190613717565b6020604051808303816000875af115801561268f573d6000803e3d6000fd5b505050506040513d601f19601f820116820180604052508101906126b39190613136565b9150600360009054906101000a900473ffffffffffffffffffffffffffffffffffffffff1673ffffffffffffffffffffffffffffffffffffffff1663c25df92d8930878b8b6040518663ffffffff1660e01b81526004016127189594939291906139e6565b600060405180830381600087803b15801561273257600080fd5b505af1158015612746573d6000803e3d6000fd5b50505050509695505050505050565b6000604051905090565b600080fd5b600080fd5b600073ffffffffffffffffffffffffffffffffffffffff82169050919050565b600061279482612769565b9050919050565b6127a481612789565b81146127af57600080fd5b50565b6000813590506127c18161279b565b92915050565b6000819050919050565b6127da816127c7565b81146127e557600080fd5b50565b6000813590506127f7816127d1565b92915050565b600080604083850312156128145761281361275f565b5b6000612822858286016127b2565b9250506020612833858286016127e8565b9150509250929050565b60007fffffffff0000000000000000000000000000000000000000000000000000000082169050919050565b6128728161283d565b811461287d57600080fd5b50565b60008135905061288f81612869565b92915050565b6000602082840312156128ab576128aa61275f565b5b60006128b984828501612880565b91505092915050565b60008115159050919050565b6128d7816128c2565b82525050565b60006020820190506128f260008301846128ce565b92915050565b60006020828403121561290e5761290d61275f565b5b600061291c848285016127b2565b91505092915050565b61292e816127c7565b82525050565b60006020820190506129496000830184612925565b92915050565b6000806000606084860312156129685761296761275f565b5b6000612976868287016127b2565b9350506020612987868287016127b2565b9250506040612998868287016127e8565b9150509250925092565b6129ab81612789565b82525050565b60006020820190506129c660008301846129a2565b92915050565b600080604083850312156129e3576129e261275f565b5b60006129f1858286016127e8565b9250506020612a02858286016127b2565b9150509250929050565b6000819050919050565b6000612a31612a2c612a2784612769565b612a0c565b612769565b9050919050565b6000612a4382612a16565b9050919050565b6000612a5582612a38565b9050919050565b612a6581612a4a565b82525050565b6000602082019050612a806000830184612a5c565b92915050565b6000612a9182612a38565b9050919050565b612aa181612a86565b82525050565b6000602082019050612abc6000830184612a98565b92915050565b6000606082019050612ad76000830186612925565b612ae46020830185612925565b612af16040830184612925565b949350505050565b600062ffffff82169050919050565b612b1181612af9565b8114612b1c57600080fd5b50565b600081359050612b2e81612b08565b92915050565b60008060008060808587031215612b4e57612b4d61275f565b5b6000612b5c878288016127e8565b9450506020612b6d878288016127b2565b9350506040612b7e87828801612b1f565b9250506060612b8f878288016127e8565b91505092959194509250565b600080fd5b6000601f19601f8301169050919050565b7f4e487b7100000000000000000000000000000000000000000000000000000000600052604160045260246000fd5b612be982612ba0565b810181811067ffffffffffffffff82111715612c0857612c07612bb1565b5b80604052505050565b6000612c1b612755565b9050612c278282612be0565b919050565b600067ffffffffffffffff821115612c4757612c46612bb1565b5b602082029050602081019050919050565b600080fd5b6000612c70612c6b84612c2c565b612c11565b90508083825260208201905060208402830185811115612c9357612c92612c58565b5b835b81811015612cbc5780612ca888826127e8565b845260208401935050602081019050612c95565b5050509392505050565b600082601f830112612cdb57612cda612b9b565b5b8135612ceb848260208601612c5d565b91505092915050565b600080fd5b600067ffffffffffffffff821115612d1457612d13612bb1565b5b612d1d82612ba0565b9050602081019050919050565b82818337600083830152505050565b6000612d4c612d4784612cf9565b612c11565b905082815260208101848484011115612d6857612d67612cf4565b5b612d73848285612d2a565b509392505050565b600082601f830112612d9057612d8f612b9b565b5b8135612da0848260208601612d39565b91505092915050565b600080600080600060a08688031215612dc557612dc461275f565b5b6000612dd3888289016127b2565b9550506020612de4888289016127b2565b945050604086013567ffffffffffffffff811115612e0557612e04612764565b5b612e1188828901612cc6565b935050606086013567ffffffffffffffff811115612e3257612e31612764565b5b612e3e88828901612cc6565b925050608086013567ffffffffffffffff811115612e5f57612e5e612764565b5b612e6b88828901612d7b565b9150509295509295909350565b612e818161283d565b82525050565b6000602082019050612e9c6000830184612e78565b92915050565b6000612ead82612a38565b9050919050565b612ebd81612ea2565b82525050565b6000602082019050612ed86000830184612eb4565b92915050565b612ee781612af9565b82525050565b6000604082019050612f0260008301856129a2565b612f0f6020830184612ede565b9392505050565b60008060408385031215612f2d57612f2c61275f565b5b6000612f3b858286016127e8565b9250506020612f4c858286016127e8565b9150509250929050565b600080600080600060a08688031215612f7257612f7161275f565b5b6000612f80888289016127b2565b9550506020612f91888289016127b2565b9450506040612fa2888289016127e8565b9350506060612fb3888289016127e8565b925050608086013567ffffffffffffffff811115612fd457612fd3612764565b5b612fe088828901612d7b565b9150509295509295909350565b600082825260208201905092915050565b7f434c4f53453a204e6f7420796f757220706f736974696f6e0000000000000000600082015250565b6000613034601883612fed565b915061303f82612ffe565b602082019050919050565b6000602082019050818103600083015261306381613027565b9050919050565b6000815190506130798161279b565b92915050565b6000602082840312156130955761309461275f565b5b60006130a38482850161306a565b91505092915050565b60006130b782612a38565b9050919050565b6130c7816130ac565b82525050565b60006fffffffffffffffffffffffffffffffff82169050919050565b6130f2816130cd565b82525050565b600060408201905061310d60008301856130be565b61311a60208301846130e9565b9392505050565b600081519050613130816127d1565b92915050565b60006020828403121561314c5761314b61275f565b5b600061315a84828501613121565b91505092915050565b600060408201905061317860008301856129a2565b6131856020830184612925565b9392505050565b613195816127c7565b82525050565b60006040820190506131b0600083018561318c565b6131bd602083018461318c565b9392505050565b600060ff82169050919050565b6131da816131c4565b81146131e557600080fd5b50565b6000815190506131f7816131d1565b92915050565b600080604083850312156132145761321361275f565b5b600061322285828601613121565b9250506020613233858286016131e8565b9150509250929050565b7f4e487b7100000000000000000000000000000000000000000000000000000000600052601160045260246000fd5b6000613277826127c7565b9150613282836127c7565b9250827fffffffffffffffffffffffffffffffffffffffffffffffffffffffffffffffff038211156132b7576132b661323d565b5b828201905092915050565b60006132cd826127c7565b91506132d8836127c7565b9250828210156132eb576132ea61323d565b5b828203905092915050565b6000613301826127c7565b915061330c836127c7565b9250817fffffffffffffffffffffffffffffffffffffffffffffffffffffffffffffffff04831182151516156133455761334461323d565b5b828202905092915050565b7f4e487b7100000000000000000000000000000000000000000000000000000000600052601260045260246000fd5b600061338a826127c7565b9150613395836127c7565b9250826133a5576133a4613350565b5b828204905092915050565b7f4c49513a204163636f756e74206e6f7420696e2064726177646f776e00000000600082015250565b60006133e6601c83612fed565b91506133f1826133b0565b602082019050919050565b60006020820190508181036000830152613415816133d9565b9050919050565b7f4c49513a20506f736974696f6e206e6f74206163746976650000000000000000600082015250565b6000613452601883612fed565b915061345d8261341c565b602082019050919050565b6000602082019050818103600083015261348181613445565b9050919050565b7f5354414e4441524420504f4f4c3a204e6f742044414900000000000000000000600082015250565b60006134be601683612fed565b91506134c982613488565b602082019050919050565b600060208201905081810360008301526134ed816134b1565b9050919050565b600060608201905061350960008301866129a2565b61351660208301856129a2565b6135236040830184612925565b949350505050565b613534816128c2565b811461353f57600080fd5b50565b6000815190506135518161352b565b92915050565b60006020828403121561356d5761356c61275f565b5b600061357b84828501613542565b91505092915050565b600061358f826127c7565b91507fffffffffffffffffffffffffffffffffffffffffffffffffffffffffffffffff8214156135c2576135c161323d565b5b600182019050919050565b7f535741503a206e6f7420656e6f75676820636f6c6c61746572616c0000000000600082015250565b6000613603601b83612fed565b915061360e826135cd565b602082019050919050565b60006020820190508181036000830152613632816135f6565b9050919050565b61364281612789565b82525050565b61365181612af9565b82525050565b613660816127c7565b82525050565b61366f81612769565b82525050565b6101008201600082015161368c6000850182613639565b50602082015161369f6020850182613639565b5060408201516136b26040850182613648565b5060608201516136c56060850182613639565b5060808201516136d86080850182613657565b5060a08201516136eb60a0850182613657565b5060c08201516136fe60c0850182613657565b5060e082015161371160e0850182613666565b50505050565b60006101008201905061372d6000830184613675565b92915050565b7f434f4c4c41544552414c3a20747279696e6720746f207769746864726177206d60008201527f6f726520636f6c6c61746572616c207468616e206465706f7369746564000000602082015250565b600061378f603d83612fed565b915061379a82613733565b604082019050919050565b600060208201905081810360008301526137be81613782565b9050919050565b7f434f4c4c41544552414c3a20636c6f736520796f75722063757272656e74207060008201527f6f736974696f6e206265666f726520747279696e6720746f207769746864726160208201527f7700000000000000000000000000000000000000000000000000000000000000604082015250565b6000613847604183612fed565b9150613852826137c5565b606082019050919050565b600060208201905081810360008301526138768161383a565b9050919050565b600081519050919050565b600081905092915050565b60005b838110156138b1578082015181840152602081019050613896565b838111156138c0576000848401525b50505050565b60006138d18261387d565b6138db8185613888565b93506138eb818560208601613893565b80840191505092915050565b600061390382846138c6565b915081905092915050565b7f5354460000000000000000000000000000000000000000000000000000000000600082015250565b6000613944600383612fed565b915061394f8261390e565b602082019050919050565b6000602082019050818103600083015261397381613937565b9050919050565b7f5341000000000000000000000000000000000000000000000000000000000000600082015250565b60006139b0600283612fed565b91506139bb8261397a565b602082019050919050565b600060208201905081810360008301526139df816139a3565b9050919050565b600060a0820190506139fb60008301886129a2565b613a0860208301876129a2565b613a156040830186612925565b613a2260608301856129a2565b613a2f6080830184612925565b969550505050505056fea2646970667358221220568ca61b596fa0f76bbfca0dd49b3736d18804927bd0323afeb9ee155ed39b3c64736f6c634300080b0033",
  "immutableReferences": {
    "2797": [
      {
        "length": 32,
        "start": 6058
      },
      {
        "length": 32,
        "start": 6273
      },
      {
        "length": 32,
        "start": 7490
      },
      {
        "length": 32,
        "start": 9538
      },
      {
        "length": 32,
        "start": 9753
      }
    ]
  },
  "source": "// SPDX-License-Identifier: MIT\npragma solidity ^0.8.0; //solhint-disable compiler-fixed\npragma abicoder v2;\n\n\nimport \"@openzeppelin/contracts/token/ERC1155/IERC1155.sol\";\nimport \"@openzeppelin/contracts/token/ERC1155/utils/ERC1155Holder.sol\";\nimport \"@uniswap/v3-periphery/contracts/interfaces/ISwapRouter.sol\";\nimport \"@uniswap/v3-periphery/contracts/libraries/TransferHelper.sol\";\nimport \"@openzeppelin/contracts/token/ERC20/IERC20.sol\";\nimport \"@uniswap/v3-core/contracts/interfaces/IUniswapV3Pool.sol\";\nimport \"./BeraWrapper.sol\";\nimport \"./ancillary/PnLCalculator.sol\";\nimport \"./ancillary/TWAPoracle.sol\";\n\n\ncontract BeraPoolStandardRisk is ERC1155Holder {\n\n    address public owner;\n\n    mapping(address => Account) public users;\n\n    struct Liquidation {\n        bool wasLiquidated;\n        address liquidator;\n    }\n\n    struct Account {\n        uint userDepositBalance;\n        uint lastClaimedRewards;\n        uint userShortID;\n        mapping(uint => uint) entryPrice;\n        mapping(uint => uint) userShortBalanceByID;\n        mapping(uint => address) tokenShortedByPositionID;\n        mapping(uint => uint24) poolFeeByPositionID;\n        mapping(uint => bool) isPositionInShort;\n        mapping(uint => Liquidation) liqData;\n    }\n\n    uint public globalRewards;\n\n    address private constant DAI_ADDRESS = 0x6B175474E89094C44Da98b954EedeAC495271d0F;\n\n    ISwapRouter public immutable swapRouter;\n    BeraWrapper public beraWrapper;\n    TWAPOracle public twapOracle;\n\n    constructor(ISwapRouter _swapRouter,\n        BeraWrapper _beraWrapper,\n        TWAPOracle _twapOracle) { //solhint-disable func-visibility\n        owner = msg.sender;\n        swapRouter = _swapRouter;\n        beraWrapper = _beraWrapper;\n        twapOracle = _twapOracle;\n    }\n\n    function depositCollateral(uint amount, address collateral) external {\n        require(IERC20(collateral) == IERC20(DAI_ADDRESS), \"STANDARD POOL: Not DAI\");\n\n        //used for withdrawl later\n        users[msg.sender].userDepositBalance += amount;\n\n        //transfer DAI to this contract\n        IERC20(collateral).transferFrom(msg.sender, address(this), amount);\n    }\n\n    function withdrawFromPool(uint amount, uint userShortID) external {\n        require(amount <= users[msg.sender].userDepositBalance,\n            \"COLLATERAL: trying to withdraw more collateral than deposited\");\n\n        //checking if the funds locked in the position have been released before allowing them to be withdrawn\n        require(getUserShortBool(msg.sender, userShortID) == false,\n            \"COLLATERAL: close your current position before trying to withdraw\");\n\n        //reset balance of user on withdraw\n        users[msg.sender].userDepositBalance -= amount;\n\n        IERC20(DAI_ADDRESS).transfer(msg.sender, amount);\n    }\n\n    //used to claim the profit rewards from collecting trader losses\n    function claimRewards() external {\n        sendOwedProfits(msg.sender);\n    }\n\n    // deposit collateral into user account before being allowed to short\n    // amount refers to how much dai to swap for amountOut of the token the user\n    // wants to short\n    //\n    // will likely have to split the logic for the function up, he's getting pretty chonky\n    function swapAndShortStandard(\n            uint amount,\n            address tokenToShort,\n            uint24 poolFee, //needed for uniswap pool\n            uint amountOutMin)\n            external returns(uint amountOut) { //solhint-disable function-max-lines\n                require(amount <= users[msg.sender].userDepositBalance, \"SWAP: not enough collateral\");\n\n                //by default uints are initialized at 0 so this should work???\n                users[msg.sender].userShortID += 1;\n\n                //get total amount of collateral in shorts if user has opened a position before\n                if (getTotalCollateral(msg.sender) > 0) {\n                    require(getTotalCollateral(msg.sender) <= users[msg.sender].userDepositBalance,\n                        \"SWAP: not enough collateral\");\n                }\n\n                //5% is kept as fee to protocol to assist in paying out users\n                uint amountToSend = amount * 95 / 100;\n\n                TransferHelper.safeTransferFrom(DAI_ADDRESS, msg.sender, address(this), amount);\n                TransferHelper.safeApprove(DAI_ADDRESS, address(swapRouter), amount);\n\n                ISwapRouter.ExactInputSingleParams memory params =\n                ISwapRouter.ExactInputSingleParams({\n                    tokenIn: DAI_ADDRESS,\n                    tokenOut: tokenToShort,\n                    fee: poolFee,\n                    recipient: address(this),\n                    deadline: block.timestamp, //solhint-disable not-rely-on-time\n                    amountIn: amountToSend,\n                    amountOutMinimum: amountOutMin,\n                    sqrtPriceLimitX96: 0\n                });\n\n                //execute the frist swap\n                amountOut = swapRouter.exactInputSingle(params);\n\n                //Call twapPriceOracle here or find a better way to capture price\n                //TODO: Price wrapping\n                //TEST ONLY\n                uint priceAtWrap =\n                    twapOracle.latestPrice(\n                        IUniswapV3Pool(twapOracle.getPoolForTWAP(tokenToShort, poolFee)),\n                        uint128(amount)\n                    );\n\n                //execute the second swap and transfer funds to pool for holding\n                //this is the swap that creates the actual 'short' position for the user on-chain\n                _shortForUser(\n                    msg.sender,\n                    tokenToShort,\n                    priceAtWrap,\n                    poolFee,\n                    amountOut,\n                    amountOutMin\n                );\n\n                //TODO REFACTOR: can update user data in one internal function // maybe //\n\n                //update entry price mapping\n                //this stores the entry price of msg.sender for this specific shortID of the sender\n                //nested mappings look cringe but are efficient\n                users[msg.sender].entryPrice[users[msg.sender].userShortID] = priceAtWrap;\n\n                //update user balance of the user current positionID\n                //this is used to keep track of how much of the users deposit is currently being used\n                users[msg.sender].userShortBalanceByID[users[msg.sender].userShortID] = amountOut;\n\n                //update userPositionNumber current short status\n                // inShort[msg.sender][userShortID[msg.sender]] = true;\n                users[msg.sender].isPositionInShort[users[msg.sender].userShortID] = true;\n\n                users[msg.sender].tokenShortedByPositionID[users[msg.sender].userShortID]\n                    = tokenToShort;\n            }\n\n    // if you are reading this comment, this is a way for you to make some money\n    // and keep the protocol alive and kicking\n    // keep in mind that you need to have deposited collateral to receive rewards\n    function liquidateUser(address userUnderwater, address liquidator, uint shortID) external {\n        //get entry price by shortID and subtract by current price\n        (address token, uint24 fee) = getTokenAndFeeShortedByUser(userUnderwater, shortID);\n        uint currentPrice = twapOracle.latestPrice(\n                IUniswapV3Pool(twapOracle.getPoolForTWAP(token, fee)),\n                uint128(getUserShortBalance(userUnderwater, shortID))\n            );\n        uint drawdown = getUserEntryPrice(userUnderwater, shortID) - currentPrice;\n        //give the users a 5% buffer on their deposit amount before they can be liquidated\n        uint buffer = users[userUnderwater].userDepositBalance * 5 / 100;\n        require(drawdown + buffer > users[userUnderwater].userDepositBalance, \"LIQ: Account not in drawdown\");\n        require(getUserShortBool(userUnderwater, shortID) == true, \"LIQ: Position not active\");\n\n        users[userUnderwater].liqData[shortID].wasLiquidated = true;\n        users[userUnderwater].liqData[shortID].liquidator = liquidator;\n\n        closeShortStandardPool(userUnderwater, shortID);\n    }\n\n    function getLiquidator(address user, uint shortID) public view returns(address liquidator) {\n        return users[user].liqData[shortID].liquidator;\n    }\n\n    function getTotalCollateral(address user) public view returns(uint totalCollateral) {\n        for (uint i = 0; i <= users[user].userShortID; i++) {\n            totalCollateral += users[user].userShortBalanceByID[i];\n        }\n        return (totalCollateral);\n    }\n\n    function checkRewards(address user) public view returns(uint profits) {\n        return profits = checkOwedProfits(user);\n    }\n\n    function getGlobalRewards() public view returns(uint globals) {\n        return globals = globalRewards;\n    }\n\n    function getUserShortBalance(address user, uint shortID) public view returns(uint bal) {\n        return bal = users[user].userShortBalanceByID[shortID];\n    }\n\n    function getUserEntryPrice(address user, uint shortID) public view returns(uint entry) {\n        return entry = users[user].entryPrice[shortID];\n    }\n\n    function getUserShortBool(address user, uint shortID) public view returns(bool isShort) {\n        return isShort = users[user].isPositionInShort[shortID];\n    }\n\n    function getTokenAndFeeShortedByUser(address user, uint shortID) public view returns(address token, uint24 fee) {\n        token = users[user].tokenShortedByPositionID[shortID];\n        fee = uint24(users[user].poolFeeByPositionID[shortID]);\n        return (token, fee);\n    }\n\n    //TODO\n    //contract already has the DAI needed to close the trade, can just check the price and\n    //calculate the difference between the opening and closing prices, no need for expensive swaps\n    //in the standardPool contract\n    function closeShortStandardPool(\n        address user,\n        uint userShortID)\n        public {\n            require(user == msg.sender, \"CLOSE: Not your position\");\n            //get price at pool for shortBal of positionID\n            uint priceAtClose = twapOracle.latestPrice(\n                IUniswapV3Pool(twapOracle.getPoolForTWAP(\n                    users[user].tokenShortedByPositionID[userShortID],\n                    users[user].poolFeeByPositionID[userShortID])\n                ), uint128(users[user].userShortBalanceByID[userShortID])\n            );\n            beraWrapper.unwrapPosition(user, userShortID);\n\n            //calculate position balance using entryPrice - current price\n            //returnValue of 0 indicates a winning trade, while 1 indicates a loss\n            (uint amountPNL, uint returnValue) =\n            PnLCalculator.calculatePNL(users[msg.sender].entryPrice[userShortID], priceAtClose);\n\n            //if user has made money, we update their balance directly\n            //keeping in mind that dai is always stored in this contract and will only be transfered\n            //out on withdrawl\n            if (returnValue == 0) {\n                users[msg.sender].userDepositBalance += amountPNL;\n            } else if (returnValue == 1) {\n                users[msg.sender].userDepositBalance -= amountPNL;\n                //experimental liquidation logic //kinda dogshit ngl\n                if (users[user].liqData[userShortID].wasLiquidated == true) {\n                    uint newPNL = amountPNL * 50 / 100;\n                    uint toLiquidator = amountPNL - newPNL;\n                    address liquidator = getLiquidator(user, userShortID);\n                    users[liquidator].userDepositBalance += toLiquidator;\n                    globalRewards += newPNL;\n                } else {\n                    //distribute loss amongst users in pool\n                    globalRewards += amountPNL;\n                }\n            }\n\n            //update current userPositionNumber to free withdraws of these specific funds\n            //v0.5 does not support anything other than full position closing\n            users[msg.sender].isPositionInShort[userShortID] = false;\n            users[msg.sender].userShortBalanceByID[userShortID] = 0;\n        }\n\n    // amount here refers to how much of the token shorted is passed back into the swapRouter\n    function _shortForUser(\n        address user,\n        address tokenToShort,\n        uint priceAtWrap,\n        uint24 poolFee,\n        uint amount,\n        uint amountOutMin) internal returns(uint amountOut) {\n\n        TransferHelper.safeApprove(tokenToShort, address(swapRouter), amount);\n\n        //now that this contract has the desired token to short, we sell @ market back for DAI\n        ISwapRouter.ExactInputSingleParams memory tokenParams =\n        ISwapRouter.ExactInputSingleParams({\n            tokenIn: tokenToShort,\n            tokenOut: DAI_ADDRESS,\n            fee: poolFee,\n            recipient: address(this), //the pool contract will store both DAI from deposits and tokenOut\n            deadline: block.timestamp, //solhint-disable not-rely-on-time\n            amountIn: amount,\n            amountOutMinimum: amountOutMin,\n            sqrtPriceLimitX96: 0\n        });\n\n        // execute the short, amountOut is now back to dai\n        amountOut = swapRouter.exactInputSingle(tokenParams);\n\n        //wrap position in ERC1155\n        beraWrapper.wrapPosition(user, address(this), amount, tokenToShort, priceAtWrap);\n    }\n\n    //the percentage reward is based on the last time they claimed vs the total reward calculated\n    //this will allow us to avoid using a loop for reward distribution\n    //and allow users to pull their own rewards when they want\n    function checkOwedProfits(address user) internal view returns (uint) {\n        uint percentageReward = globalRewards - users[user].lastClaimedRewards;\n        return users[user].userDepositBalance * percentageReward / IERC20(DAI_ADDRESS).balanceOf(address(this));\n    }\n\n    function sendOwedProfits(address user) internal {\n        uint owed = checkOwedProfits(user);\n        if (owed > 0) {\n            users[user].userDepositBalance += owed;\n            users[user].lastClaimedRewards = globalRewards;\n        }\n    }\n\n    receive() external payable { //solhint-disable state-visibility\n\n}\n\n    fallback() external payable { //solhint-disable\n\n}\n\n}\n",
  "sourcePath": "/home/kevin/Code/solidity_projects/beraMarket/contracts/BeraPoolStandardRisk.sol",
  "compiler": {
    "name": "solc",
    "version": "0.8.11+commit.d7f03943.Emscripten.clang"
  },
  "schemaVersion": "3.4.3",
  "updatedAt": "2021-12-30T18:11:27.827Z",
  "devdoc": {
    "kind": "dev",
    "methods": {
      "supportsInterface(bytes4)": {
        "details": "See {IERC165-supportsInterface}."
      }
    },
    "version": 1
  },
  "userdoc": {
    "kind": "user",
    "methods": {},
    "version": 1
  }
}