{
  "contractName": "BeraPoolStandardRisk",
  "abi": [
    {
      "inputs": [
        {
          "internalType": "contract ISwapRouter",
          "name": "_swapRouter",
          "type": "address"
        },
        {
          "internalType": "contract BeraWrapper",
          "name": "_beraWrapper",
          "type": "address"
        }
      ],
      "stateMutability": "nonpayable",
      "type": "constructor"
    },
    {
      "stateMutability": "payable",
      "type": "fallback"
    },
    {
      "inputs": [],
      "name": "beraWrapper",
      "outputs": [
        {
          "internalType": "contract BeraWrapper",
          "name": "",
          "type": "address"
        }
      ],
      "stateMutability": "view",
      "type": "function"
    },
    {
      "inputs": [
        {
          "internalType": "address",
          "name": "",
          "type": "address"
        },
        {
          "internalType": "uint256",
          "name": "",
          "type": "uint256"
        }
      ],
      "name": "entryPrices",
      "outputs": [
        {
          "internalType": "uint256",
          "name": "",
          "type": "uint256"
        }
      ],
      "stateMutability": "view",
      "type": "function"
    },
    {
      "inputs": [
        {
          "internalType": "address",
          "name": "",
          "type": "address"
        },
        {
          "internalType": "address",
          "name": "",
          "type": "address"
        },
        {
          "internalType": "uint256[]",
          "name": "",
          "type": "uint256[]"
        },
        {
          "internalType": "uint256[]",
          "name": "",
          "type": "uint256[]"
        },
        {
          "internalType": "bytes",
          "name": "",
          "type": "bytes"
        }
      ],
      "name": "onERC1155BatchReceived",
      "outputs": [
        {
          "internalType": "bytes4",
          "name": "",
          "type": "bytes4"
        }
      ],
      "stateMutability": "nonpayable",
      "type": "function"
    },
    {
      "inputs": [
        {
          "internalType": "address",
          "name": "",
          "type": "address"
        },
        {
          "internalType": "address",
          "name": "",
          "type": "address"
        },
        {
          "internalType": "uint256",
          "name": "",
          "type": "uint256"
        },
        {
          "internalType": "uint256",
          "name": "",
          "type": "uint256"
        },
        {
          "internalType": "bytes",
          "name": "",
          "type": "bytes"
        }
      ],
      "name": "onERC1155Received",
      "outputs": [
        {
          "internalType": "bytes4",
          "name": "",
          "type": "bytes4"
        }
      ],
      "stateMutability": "nonpayable",
      "type": "function"
    },
    {
      "inputs": [],
      "name": "owner",
      "outputs": [
        {
          "internalType": "address",
          "name": "",
          "type": "address"
        }
      ],
      "stateMutability": "view",
      "type": "function"
    },
    {
      "inputs": [
        {
          "internalType": "uint256",
          "name": "",
          "type": "uint256"
        }
      ],
      "name": "standardPoolList",
      "outputs": [
        {
          "internalType": "address",
          "name": "",
          "type": "address"
        }
      ],
      "stateMutability": "view",
      "type": "function"
    },
    {
      "inputs": [
        {
          "internalType": "bytes4",
          "name": "interfaceId",
          "type": "bytes4"
        }
      ],
      "name": "supportsInterface",
      "outputs": [
        {
          "internalType": "bool",
          "name": "",
          "type": "bool"
        }
      ],
      "stateMutability": "view",
      "type": "function"
    },
    {
      "inputs": [],
      "name": "swapRouter",
      "outputs": [
        {
          "internalType": "contract ISwapRouter",
          "name": "",
          "type": "address"
        }
      ],
      "stateMutability": "view",
      "type": "function"
    },
    {
      "inputs": [
        {
          "internalType": "address",
          "name": "",
          "type": "address"
        }
      ],
      "name": "userDepositBalance",
      "outputs": [
        {
          "internalType": "uint256",
          "name": "",
          "type": "uint256"
        }
      ],
      "stateMutability": "view",
      "type": "function"
    },
    {
      "inputs": [
        {
          "internalType": "address",
          "name": "",
          "type": "address"
        },
        {
          "internalType": "uint256",
          "name": "",
          "type": "uint256"
        }
      ],
      "name": "userShortBalance",
      "outputs": [
        {
          "internalType": "uint256",
          "name": "",
          "type": "uint256"
        }
      ],
      "stateMutability": "view",
      "type": "function"
    },
    {
      "stateMutability": "payable",
      "type": "receive"
    },
    {
      "inputs": [
        {
          "internalType": "uint256",
          "name": "amount",
          "type": "uint256"
        },
        {
          "internalType": "address",
          "name": "collateral",
          "type": "address"
        }
      ],
      "name": "depositCollateral",
      "outputs": [],
      "stateMutability": "nonpayable",
      "type": "function"
    },
    {
      "inputs": [
        {
          "internalType": "uint256",
          "name": "amount",
          "type": "uint256"
        },
        {
          "internalType": "uint256",
          "name": "_userShortID",
          "type": "uint256"
        }
      ],
      "name": "withdrawFromPool",
      "outputs": [],
      "stateMutability": "nonpayable",
      "type": "function"
    },
    {
      "inputs": [
        {
          "internalType": "uint256",
          "name": "amount",
          "type": "uint256"
        },
        {
          "internalType": "address",
          "name": "tokenToShort",
          "type": "address"
        },
        {
          "internalType": "uint24",
          "name": "poolFee",
          "type": "uint24"
        },
        {
          "internalType": "uint256",
          "name": "amountOutMin",
          "type": "uint256"
        }
      ],
      "name": "swapAndShortStandard",
      "outputs": [
        {
          "internalType": "uint256",
          "name": "amountOut",
          "type": "uint256"
        }
      ],
      "stateMutability": "nonpayable",
      "type": "function"
    },
    {
      "inputs": [
        {
          "internalType": "address",
          "name": "user",
          "type": "address"
        },
        {
          "internalType": "uint256",
          "name": "_userShortID",
          "type": "uint256"
        },
        {
          "internalType": "uint256",
          "name": "priceAtClose",
          "type": "uint256"
        }
      ],
      "name": "closeShortStandardPool",
      "outputs": [],
      "stateMutability": "nonpayable",
      "type": "function"
    }
  ],
  "bytecode": "0x60a06040523480156200001157600080fd5b5060405162002cae38038062002cae8339818101604052810190620000379190620001b7565b336000806101000a81548173ffffffffffffffffffffffffffffffffffffffff021916908373ffffffffffffffffffffffffffffffffffffffff1602179055508173ffffffffffffffffffffffffffffffffffffffff1660808173ffffffffffffffffffffffffffffffffffffffff168152505080600860006101000a81548173ffffffffffffffffffffffffffffffffffffffff021916908373ffffffffffffffffffffffffffffffffffffffff1602179055505050620001fe565b600080fd5b600073ffffffffffffffffffffffffffffffffffffffff82169050919050565b60006200012682620000f9565b9050919050565b60006200013a8262000119565b9050919050565b6200014c816200012d565b81146200015857600080fd5b50565b6000815190506200016c8162000141565b92915050565b60006200017f8262000119565b9050919050565b620001918162000172565b81146200019d57600080fd5b50565b600081519050620001b18162000186565b92915050565b60008060408385031215620001d157620001d0620000f4565b5b6000620001e1858286016200015b565b9250506020620001f485828601620001a0565b9150509250929050565b608051612a786200023660003960008181610b7401528181610c4b01528181610e5b01528181611678015261174f0152612a786000f3fe6080604052600436106100e15760003560e01c80638da5cb5b1161007f578063bc197c8111610059578063bc197c8114610300578063c31c9c071461033d578063ef1b316614610368578063f23a6e6114610391576100e8565b80638da5cb5b1461026d578063a29aa11414610298578063aac28b54146102c3576100e8565b8063481fef8a116100bb578063481fef8a146101a15780637b1609b1146101ca5780637c802ff2146101f35780638a7d6ac614610230576100e8565b806301ffc9a7146100ea578063099d2958146101275780630bf7f34514610164576100e8565b366100e857005b005b3480156100f657600080fd5b50610111600480360381019061010c919061198b565b6103ce565b60405161011e91906119d3565b60405180910390f35b34801561013357600080fd5b5061014e60048036038101906101499190611a82565b610448565b60405161015b9190611ad1565b60405180910390f35b34801561017057600080fd5b5061018b60048036038101906101869190611aec565b61046d565b6040516101989190611b28565b60405180910390f35b3480156101ad57600080fd5b506101c860048036038101906101c39190611b43565b6104ac565b005b3480156101d657600080fd5b506101f160048036038101906101ec9190611b83565b61070d565b005b3480156101ff57600080fd5b5061021a60048036038101906102159190611bd6565b6109bb565b6040516102279190611ad1565b60405180910390f35b34801561023c57600080fd5b5061025760048036038101906102529190611a82565b6109d3565b6040516102649190611ad1565b60405180910390f35b34801561027957600080fd5b506102826109f8565b60405161028f9190611b28565b60405180910390f35b3480156102a457600080fd5b506102ad610a1c565b6040516102ba9190611c62565b60405180910390f35b3480156102cf57600080fd5b506102ea60048036038101906102e59190611cb8565b610a42565b6040516102f79190611ad1565b60405180910390f35b34801561030c57600080fd5b5061032760048036038101906103229190611f2d565b610e44565b604051610334919061200b565b60405180910390f35b34801561034957600080fd5b50610352610e59565b60405161035f9190612047565b60405180910390f35b34801561037457600080fd5b5061038f600480360381019061038a9190612062565b610e7d565b005b34801561039d57600080fd5b506103b860048036038101906103b391906120a2565b611131565b6040516103c5919061200b565b60405180910390f35b60007f4e2312e0000000000000000000000000000000000000000000000000000000007bffffffffffffffffffffffffffffffffffffffffffffffffffffffff1916827bffffffffffffffffffffffffffffffffffffffffffffffffffffffff19161480610441575061044082611146565b5b9050919050565b6002602052816000526040600020602052806000526040600020600091509150505481565b6007818154811061047d57600080fd5b906000526020600020016000915054906101000a900473ffffffffffffffffffffffffffffffffffffffff1681565b736b175474e89094c44da98b954eedeac495271d0f73ffffffffffffffffffffffffffffffffffffffff168173ffffffffffffffffffffffffffffffffffffffff161461052e576040517f08c379a000000000000000000000000000000000000000000000000000000000815260040161052590612196565b60405180910390fd5b6000600160003373ffffffffffffffffffffffffffffffffffffffff1673ffffffffffffffffffffffffffffffffffffffff168152602001908152602001600020541115610632576007339080600181540180825580915050600190039060005260206000200160009091909190916101000a81548173ffffffffffffffffffffffffffffffffffffffff021916908373ffffffffffffffffffffffffffffffffffffffff1602179055506001600460003373ffffffffffffffffffffffffffffffffffffffff1673ffffffffffffffffffffffffffffffffffffffff16815260200190815260200160002060006101000a81548160ff0219169083151502179055505b81600160003373ffffffffffffffffffffffffffffffffffffffff1673ffffffffffffffffffffffffffffffffffffffff168152602001908152602001600020600082825461068191906121e5565b925050819055508073ffffffffffffffffffffffffffffffffffffffff166323b872dd3330856040518463ffffffff1660e01b81526004016106c59392919061223b565b6020604051808303816000875af11580156106e4573d6000803e3d6000fd5b505050506040513d601f19601f82011682018060405250810190610708919061229e565b505050565b3373ffffffffffffffffffffffffffffffffffffffff168373ffffffffffffffffffffffffffffffffffffffff161461077b576040517f08c379a000000000000000000000000000000000000000000000000000000000815260040161077290612317565b60405180910390fd5b60008073__PnLCalculator_________________________63cf64eb0a33600560003373ffffffffffffffffffffffffffffffffffffffff1673ffffffffffffffffffffffffffffffffffffffff168152602001908152602001600020600088815260200190815260200160002054866040518463ffffffff1660e01b815260040161080993929190612355565b6040805180830381865af4158015610825573d6000803e3d6000fd5b505050506040513d601f19601f8201168201806040525081019061084991906123da565b60ff1691509150600160003373ffffffffffffffffffffffffffffffffffffffff1673ffffffffffffffffffffffffffffffffffffffff16815260200190815260200160002054821115801561089f5750600181145b506000600660003373ffffffffffffffffffffffffffffffffffffffff1673ffffffffffffffffffffffffffffffffffffffff168152602001908152602001600020600086815260200190815260200160002060006101000a81548160ff02191690831515021790555060008114156109aa57736b175474e89094c44da98b954eedeac495271d0f73ffffffffffffffffffffffffffffffffffffffff1663a9059cbb33846040518363ffffffff1660e01b815260040161096192919061241a565b6020604051808303816000875af1158015610980573d6000803e3d6000fd5b505050506040513d601f19601f820116820180604052508101906109a4919061229e565b506109b4565b6109b3826111b0565b5b5050505050565b60016020528060005260406000206000915090505481565b6005602052816000526040600020602052806000526040600020600091509150505481565b60008054906101000a900473ffffffffffffffffffffffffffffffffffffffff1681565b600860009054906101000a900473ffffffffffffffffffffffffffffffffffffffff1681565b6000600160003373ffffffffffffffffffffffffffffffffffffffff1673ffffffffffffffffffffffffffffffffffffffff16815260200190815260200160002054851115610ac6576040517f08c379a0000000000000000000000000000000000000000000000000000000008152600401610abd9061248f565b60405180910390fd5b6001600360003373ffffffffffffffffffffffffffffffffffffffff1673ffffffffffffffffffffffffffffffffffffffff1681526020019081526020016000206000828254610b1691906121e5565b9250508190555060006064605f87610b2e91906124af565b610b389190612538565b9050610b5a736b175474e89094c44da98b954eedeac495271d0f3330896113c3565b610b99736b175474e89094c44da98b954eedeac495271d0f7f00000000000000000000000000000000000000000000000000000000000000008861151b565b6000604051806101000160405280736b175474e89094c44da98b954eedeac495271d0f73ffffffffffffffffffffffffffffffffffffffff1681526020018773ffffffffffffffffffffffffffffffffffffffff1681526020018662ffffff1681526020013073ffffffffffffffffffffffffffffffffffffffff168152602001428152602001838152602001858152602001600073ffffffffffffffffffffffffffffffffffffffff1681525090507f000000000000000000000000000000000000000000000000000000000000000073ffffffffffffffffffffffffffffffffffffffff1663414bf389826040518263ffffffff1660e01b8152600401610ca29190612647565b6020604051808303816000875af1158015610cc1573d6000803e3d6000fd5b505050506040513d601f19601f82011682018060405250810190610ce59190612663565b92506000610bb89050610cfc33888389888a611670565b5080600560003373ffffffffffffffffffffffffffffffffffffffff1673ffffffffffffffffffffffffffffffffffffffff1681526020019081526020016000206000600360003373ffffffffffffffffffffffffffffffffffffffff1673ffffffffffffffffffffffffffffffffffffffff168152602001908152602001600020548152602001908152602001600020819055506001600660003373ffffffffffffffffffffffffffffffffffffffff1673ffffffffffffffffffffffffffffffffffffffff1681526020019081526020016000206000600360003373ffffffffffffffffffffffffffffffffffffffff1673ffffffffffffffffffffffffffffffffffffffff16815260200190815260200160002054815260200190815260200160002060006101000a81548160ff021916908315150217905550505050949350505050565b600063bc197c8160e01b905095945050505050565b7f000000000000000000000000000000000000000000000000000000000000000081565b600160003373ffffffffffffffffffffffffffffffffffffffff1673ffffffffffffffffffffffffffffffffffffffff16815260200190815260200160002054821115610eff576040517f08c379a0000000000000000000000000000000000000000000000000000000008152600401610ef690612702565b60405180910390fd5b60001515600660003373ffffffffffffffffffffffffffffffffffffffff1673ffffffffffffffffffffffffffffffffffffffff168152602001908152602001600020600083815260200190815260200160002060009054906101000a900460ff16151514610fa3576040517f08c379a0000000000000000000000000000000000000000000000000000000008152600401610f9a906127ba565b60405180910390fd5b81600160003373ffffffffffffffffffffffffffffffffffffffff1673ffffffffffffffffffffffffffffffffffffffff1681526020019081526020016000206000828254610ff291906127da565b925050819055506000600160003373ffffffffffffffffffffffffffffffffffffffff1673ffffffffffffffffffffffffffffffffffffffff16815260200190815260200160002054141561109a576000600460003373ffffffffffffffffffffffffffffffffffffffff1673ffffffffffffffffffffffffffffffffffffffff16815260200190815260200160002060006101000a81548160ff0219169083151502179055505b736b175474e89094c44da98b954eedeac495271d0f73ffffffffffffffffffffffffffffffffffffffff1663a9059cbb33846040518363ffffffff1660e01b81526004016110e992919061241a565b6020604051808303816000875af1158015611108573d6000803e3d6000fd5b505050506040513d601f19601f8201168201806040525081019061112c919061229e565b505050565b600063f23a6e6160e01b905095945050505050565b60007f01ffc9a7000000000000000000000000000000000000000000000000000000007bffffffffffffffffffffffffffffffffffffffffffffffffffffffff1916827bffffffffffffffffffffffffffffffffffffffffffffffffffffffff1916149050919050565b6000670de0b6b3a7640000826111c691906124af565b905060005b6007805490508110156113be576000670de0b6b3a7640000736b175474e89094c44da98b954eedeac495271d0f73ffffffffffffffffffffffffffffffffffffffff166370a08231306040518263ffffffff1660e01b81526004016112309190611b28565b602060405180830381865afa15801561124d573d6000803e3d6000fd5b505050506040513d601f19601f820116820180604052508101906112719190612663565b60016000600786815481106112895761128861280e565b5b9060005260206000200160009054906101000a900473ffffffffffffffffffffffffffffffffffffffff1673ffffffffffffffffffffffffffffffffffffffff1673ffffffffffffffffffffffffffffffffffffffff168152602001908152602001600020546112f99190612538565b61130391906124af565b90506000838261131391906124af565b905080600160006007868154811061132e5761132d61280e565b5b9060005260206000200160009054906101000a900473ffffffffffffffffffffffffffffffffffffffff1673ffffffffffffffffffffffffffffffffffffffff1673ffffffffffffffffffffffffffffffffffffffff16815260200190815260200160002060008282546113a291906121e5565b92505081905550505080806113b69061283d565b9150506111cb565b505050565b6000808573ffffffffffffffffffffffffffffffffffffffff166323b872dd60e01b8686866040516024016113fa9392919061223b565b604051602081830303815290604052907bffffffffffffffffffffffffffffffffffffffffffffffffffffffff19166020820180517bffffffffffffffffffffffffffffffffffffffffffffffffffffffff83818316178352505050506040516114649190612900565b6000604051808303816000865af19150503d80600081146114a1576040519150601f19603f3d011682016040523d82523d6000602084013e6114a6565b606091505b50915091508180156114d457506000815114806114d35750808060200190518101906114d2919061229e565b5b5b611513576040517f08c379a000000000000000000000000000000000000000000000000000000000815260040161150a90612963565b60405180910390fd5b505050505050565b6000808473ffffffffffffffffffffffffffffffffffffffff1663095ea7b360e01b858560405160240161155092919061241a565b604051602081830303815290604052907bffffffffffffffffffffffffffffffffffffffffffffffffffffffff19166020820180517bffffffffffffffffffffffffffffffffffffffffffffffffffffffff83818316178352505050506040516115ba9190612900565b6000604051808303816000865af19150503d80600081146115f7576040519150601f19603f3d011682016040523d82523d6000602084013e6115fc565b606091505b509150915081801561162a5750600081511480611629575080806020019051810190611628919061229e565b5b5b611669576040517f08c379a0000000000000000000000000000000000000000000000000000000008152600401611660906129cf565b60405180910390fd5b5050505050565b600061169d867f00000000000000000000000000000000000000000000000000000000000000008561151b565b60006040518061010001604052808873ffffffffffffffffffffffffffffffffffffffff168152602001736b175474e89094c44da98b954eedeac495271d0f73ffffffffffffffffffffffffffffffffffffffff1681526020018662ffffff1681526020013073ffffffffffffffffffffffffffffffffffffffff168152602001428152602001858152602001848152602001600073ffffffffffffffffffffffffffffffffffffffff1681525090507f000000000000000000000000000000000000000000000000000000000000000073ffffffffffffffffffffffffffffffffffffffff1663414bf389826040518263ffffffff1660e01b81526004016117a69190612647565b6020604051808303816000875af11580156117c5573d6000803e3d6000fd5b505050506040513d601f19601f820116820180604052508101906117e99190612663565b915081600260003373ffffffffffffffffffffffffffffffffffffffff1673ffffffffffffffffffffffffffffffffffffffff1681526020019081526020016000206000600360003373ffffffffffffffffffffffffffffffffffffffff1673ffffffffffffffffffffffffffffffffffffffff16815260200190815260200160002054815260200190815260200160002081905550600860009054906101000a900473ffffffffffffffffffffffffffffffffffffffff1673ffffffffffffffffffffffffffffffffffffffff1663c25df92d8930878b8b6040518663ffffffff1660e01b81526004016118e29594939291906129ef565b600060405180830381600087803b1580156118fc57600080fd5b505af1158015611910573d6000803e3d6000fd5b50505050509695505050505050565b6000604051905090565b600080fd5b600080fd5b60007fffffffff0000000000000000000000000000000000000000000000000000000082169050919050565b61196881611933565b811461197357600080fd5b50565b6000813590506119858161195f565b92915050565b6000602082840312156119a1576119a0611929565b5b60006119af84828501611976565b91505092915050565b60008115159050919050565b6119cd816119b8565b82525050565b60006020820190506119e860008301846119c4565b92915050565b600073ffffffffffffffffffffffffffffffffffffffff82169050919050565b6000611a19826119ee565b9050919050565b611a2981611a0e565b8114611a3457600080fd5b50565b600081359050611a4681611a20565b92915050565b6000819050919050565b611a5f81611a4c565b8114611a6a57600080fd5b50565b600081359050611a7c81611a56565b92915050565b60008060408385031215611a9957611a98611929565b5b6000611aa785828601611a37565b9250506020611ab885828601611a6d565b9150509250929050565b611acb81611a4c565b82525050565b6000602082019050611ae66000830184611ac2565b92915050565b600060208284031215611b0257611b01611929565b5b6000611b1084828501611a6d565b91505092915050565b611b2281611a0e565b82525050565b6000602082019050611b3d6000830184611b19565b92915050565b60008060408385031215611b5a57611b59611929565b5b6000611b6885828601611a6d565b9250506020611b7985828601611a37565b9150509250929050565b600080600060608486031215611b9c57611b9b611929565b5b6000611baa86828701611a37565b9350506020611bbb86828701611a6d565b9250506040611bcc86828701611a6d565b9150509250925092565b600060208284031215611bec57611beb611929565b5b6000611bfa84828501611a37565b91505092915050565b6000819050919050565b6000611c28611c23611c1e846119ee565b611c03565b6119ee565b9050919050565b6000611c3a82611c0d565b9050919050565b6000611c4c82611c2f565b9050919050565b611c5c81611c41565b82525050565b6000602082019050611c776000830184611c53565b92915050565b600062ffffff82169050919050565b611c9581611c7d565b8114611ca057600080fd5b50565b600081359050611cb281611c8c565b92915050565b60008060008060808587031215611cd257611cd1611929565b5b6000611ce087828801611a6d565b9450506020611cf187828801611a37565b9350506040611d0287828801611ca3565b9250506060611d1387828801611a6d565b91505092959194509250565b600080fd5b6000601f19601f8301169050919050565b7f4e487b7100000000000000000000000000000000000000000000000000000000600052604160045260246000fd5b611d6d82611d24565b810181811067ffffffffffffffff82111715611d8c57611d8b611d35565b5b80604052505050565b6000611d9f61191f565b9050611dab8282611d64565b919050565b600067ffffffffffffffff821115611dcb57611dca611d35565b5b602082029050602081019050919050565b600080fd5b6000611df4611def84611db0565b611d95565b90508083825260208201905060208402830185811115611e1757611e16611ddc565b5b835b81811015611e405780611e2c8882611a6d565b845260208401935050602081019050611e19565b5050509392505050565b600082601f830112611e5f57611e5e611d1f565b5b8135611e6f848260208601611de1565b91505092915050565b600080fd5b600067ffffffffffffffff821115611e9857611e97611d35565b5b611ea182611d24565b9050602081019050919050565b82818337600083830152505050565b6000611ed0611ecb84611e7d565b611d95565b905082815260208101848484011115611eec57611eeb611e78565b5b611ef7848285611eae565b509392505050565b600082601f830112611f1457611f13611d1f565b5b8135611f24848260208601611ebd565b91505092915050565b600080600080600060a08688031215611f4957611f48611929565b5b6000611f5788828901611a37565b9550506020611f6888828901611a37565b945050604086013567ffffffffffffffff811115611f8957611f8861192e565b5b611f9588828901611e4a565b935050606086013567ffffffffffffffff811115611fb657611fb561192e565b5b611fc288828901611e4a565b925050608086013567ffffffffffffffff811115611fe357611fe261192e565b5b611fef88828901611eff565b9150509295509295909350565b61200581611933565b82525050565b60006020820190506120206000830184611ffc565b92915050565b600061203182611c2f565b9050919050565b61204181612026565b82525050565b600060208201905061205c6000830184612038565b92915050565b6000806040838503121561207957612078611929565b5b600061208785828601611a6d565b925050602061209885828601611a6d565b9150509250929050565b600080600080600060a086880312156120be576120bd611929565b5b60006120cc88828901611a37565b95505060206120dd88828901611a37565b94505060406120ee88828901611a6d565b93505060606120ff88828901611a6d565b925050608086013567ffffffffffffffff8111156121205761211f61192e565b5b61212c88828901611eff565b9150509295509295909350565b600082825260208201905092915050565b7f5354414e4441524420504f4f4c3a204e6f742044414900000000000000000000600082015250565b6000612180601683612139565b915061218b8261214a565b602082019050919050565b600060208201905081810360008301526121af81612173565b9050919050565b7f4e487b7100000000000000000000000000000000000000000000000000000000600052601160045260246000fd5b60006121f082611a4c565b91506121fb83611a4c565b9250827fffffffffffffffffffffffffffffffffffffffffffffffffffffffffffffffff038211156122305761222f6121b6565b5b828201905092915050565b60006060820190506122506000830186611b19565b61225d6020830185611b19565b61226a6040830184611ac2565b949350505050565b61227b816119b8565b811461228657600080fd5b50565b60008151905061229881612272565b92915050565b6000602082840312156122b4576122b3611929565b5b60006122c284828501612289565b91505092915050565b7f434c4f53453a204e6f7420796f757220706f736974696f6e0000000000000000600082015250565b6000612301601883612139565b915061230c826122cb565b602082019050919050565b60006020820190508181036000830152612330816122f4565b9050919050565b61234081611a0e565b82525050565b61234f81611a4c565b82525050565b600060608201905061236a6000830186612337565b6123776020830185612346565b6123846040830184612346565b949350505050565b60008151905061239b81611a56565b92915050565b600060ff82169050919050565b6123b7816123a1565b81146123c257600080fd5b50565b6000815190506123d4816123ae565b92915050565b600080604083850312156123f1576123f0611929565b5b60006123ff8582860161238c565b9250506020612410858286016123c5565b9150509250929050565b600060408201905061242f6000830185611b19565b61243c6020830184611ac2565b9392505050565b7f535741503a206e6f7420656e6f75676820636f6c6c61746572616c0000000000600082015250565b6000612479601b83612139565b915061248482612443565b602082019050919050565b600060208201905081810360008301526124a88161246c565b9050919050565b60006124ba82611a4c565b91506124c583611a4c565b9250817fffffffffffffffffffffffffffffffffffffffffffffffffffffffffffffffff04831182151516156124fe576124fd6121b6565b5b828202905092915050565b7f4e487b7100000000000000000000000000000000000000000000000000000000600052601260045260246000fd5b600061254382611a4c565b915061254e83611a4c565b92508261255e5761255d612509565b5b828204905092915050565b61257281611a0e565b82525050565b61258181611c7d565b82525050565b61259081611a4c565b82525050565b61259f816119ee565b82525050565b610100820160008201516125bc6000850182612569565b5060208201516125cf6020850182612569565b5060408201516125e26040850182612578565b5060608201516125f56060850182612569565b5060808201516126086080850182612587565b5060a082015161261b60a0850182612587565b5060c082015161262e60c0850182612587565b5060e082015161264160e0850182612596565b50505050565b60006101008201905061265d60008301846125a5565b92915050565b60006020828403121561267957612678611929565b5b60006126878482850161238c565b91505092915050565b7f434f4c4c41544552414c3a20747279696e6720746f207769746864726177206d60008201527f6f726520636f6c6c61746572616c207468616e206465706f7369746564000000602082015250565b60006126ec603d83612139565b91506126f782612690565b604082019050919050565b6000602082019050818103600083015261271b816126df565b9050919050565b7f434f4c4c41544552414c3a20636c6f736520796f75722063757272656e74207060008201527f6f736974696f6e206265666f726520747279696e6720746f207769746864726160208201527f7700000000000000000000000000000000000000000000000000000000000000604082015250565b60006127a4604183612139565b91506127af82612722565b606082019050919050565b600060208201905081810360008301526127d381612797565b9050919050565b60006127e582611a4c565b91506127f083611a4c565b925082821015612803576128026121b6565b5b828203905092915050565b7f4e487b7100000000000000000000000000000000000000000000000000000000600052603260045260246000fd5b600061284882611a4c565b91507fffffffffffffffffffffffffffffffffffffffffffffffffffffffffffffffff82141561287b5761287a6121b6565b5b600182019050919050565b600081519050919050565b600081905092915050565b60005b838110156128ba57808201518184015260208101905061289f565b838111156128c9576000848401525b50505050565b60006128da82612886565b6128e48185612891565b93506128f481856020860161289c565b80840191505092915050565b600061290c82846128cf565b915081905092915050565b7f5354460000000000000000000000000000000000000000000000000000000000600082015250565b600061294d600383612139565b915061295882612917565b602082019050919050565b6000602082019050818103600083015261297c81612940565b9050919050565b7f5341000000000000000000000000000000000000000000000000000000000000600082015250565b60006129b9600283612139565b91506129c482612983565b602082019050919050565b600060208201905081810360008301526129e8816129ac565b9050919050565b600060a082019050612a046000830188611b19565b612a116020830187611b19565b612a1e6040830186611ac2565b612a2b6060830185611b19565b612a386080830184611ac2565b969550505050505056fea26469706673582212209dbd15481b74b0e66a62880bd38febe5e04e386007e8c2dd5e22876b56c91a5064736f6c634300080a0033",
  "immutableReferences": {
    "2114": [
      {
        "length": 32,
        "start": 2932
      },
      {
        "length": 32,
        "start": 3147
      },
      {
        "length": 32,
        "start": 3675
      },
      {
        "length": 32,
        "start": 5752
      },
      {
        "length": 32,
        "start": 5967
      }
    ]
  },
  "source": "// SPDX-License-Identifier: MIT\npragma solidity ^0.8.0; //solhint-disable compiler-fixed\npragma abicoder v2;\n\n\nimport \"@openzeppelin/contracts/token/ERC1155/IERC1155.sol\";\nimport \"@openzeppelin/contracts/token/ERC1155/utils/ERC1155Holder.sol\";\nimport \"@uniswap/v3-periphery/contracts/interfaces/ISwapRouter.sol\";\nimport \"@uniswap/v3-periphery/contracts/libraries/TransferHelper.sol\";\nimport \"@openzeppelin/contracts/token/ERC20/IERC20.sol\";\nimport \"./BeraWrapper.sol\";\nimport \"./ancillary/PnLCalculator.sol\";\n\n\ncontract BeraPoolStandardRisk is ERC1155Holder {\n\n    address public owner;\n\n    mapping(address => uint) public userDepositBalance;\n    mapping(address => mapping(uint => uint)) public userShortBalance;\n    mapping(address => uint) internal userShortID;\n    mapping(address => bool) internal hasCollateral;\n    //nested mapping so multiple positions can be opened by the same user\n    mapping(address => mapping(uint => uint)) public entryPrices;\n    //stores which position is in a short for withdraw purposes later\n    mapping(address => mapping(uint => bool)) internal inShort; //stores whether user is currently in a position\n    address[] public standardPoolList;\n\n    address private constant DAI_ADDRESS = 0x6B175474E89094C44Da98b954EedeAC495271d0F;\n\n    ISwapRouter public immutable swapRouter;\n    BeraWrapper public beraWrapper;\n\n    constructor(ISwapRouter _swapRouter,\n        BeraWrapper _beraWrapper) { //solhint-disable func-visibility\n        owner = msg.sender;\n        swapRouter = _swapRouter;\n        beraWrapper = _beraWrapper;\n    }\n\n    function depositCollateral(uint amount, address collateral) external {\n        require(IERC20(collateral) == IERC20(DAI_ADDRESS), \"STANDARD POOL: Not DAI\");\n\n        //we use the hasCollateral mapping to avoid having to loop through the array when removing\n        //the user from the users who receive the distribution of funds for yield\n        if (userDepositBalance[msg.sender] > 0) {\n            standardPoolList.push(msg.sender);\n            hasCollateral[msg.sender] = true;\n        }\n\n        //used for withdrawl later\n        userDepositBalance[msg.sender] += amount;\n\n        //transfer to seperate pools based on user defined risk\n        //high risk pool will keep 5% of the native token to try and maximize returns\n        IERC20(collateral).transferFrom(msg.sender, address(this), amount);\n    }\n\n    function withdrawFromPool(uint amount, uint _userShortID) external {\n        require(amount <= userDepositBalance[msg.sender],\n            \"COLLATERAL: trying to withdraw more collateral than deposited\");\n\n        //checking if the funds locked in the position have been released before allowing them to be withdrawn\n        require(inShort[msg.sender][_userShortID] == false,\n            \"COLLATERAL: close your current position before trying to withdraw\");\n\n        //reset balance of user on withdraw\n        userDepositBalance[msg.sender] -= amount;\n\n        if (userDepositBalance[msg.sender] == 0) {\n            hasCollateral[msg.sender] = false;\n        }\n\n        IERC20(DAI_ADDRESS).transfer(msg.sender, amount);\n    }\n\n    // deposit collateral into user account before being allowed to short\n    function swapAndShortStandard(\n            uint amount,\n            address tokenToShort,\n            uint24 poolFee, //needed for uniswap pool\n            uint amountOutMin)\n            external returns(uint amountOut) { //solhint-disable function-max-lines\n                require(amount <= userDepositBalance[msg.sender], \"SWAP: not enough collateral\");\n\n                //TODO\n                //update userDepositBalance -= amount;\n\n                //by default uints are initialized at 0 so this should work???\n                userShortID[msg.sender] += 1;\n\n                //keeping 5% of dai in contract to be distributed to liq providers on loss of pool\n                uint amountToSend = amount * 95 / 100;\n\n                TransferHelper.safeTransferFrom(DAI_ADDRESS, msg.sender, address(this), amount);\n                TransferHelper.safeApprove(DAI_ADDRESS, address(swapRouter), amount);\n\n                ISwapRouter.ExactInputSingleParams memory params =\n                ISwapRouter.ExactInputSingleParams({\n                    tokenIn: DAI_ADDRESS,\n                    tokenOut: tokenToShort,\n                    fee: poolFee,\n                    recipient: address(this),\n                    deadline: block.timestamp, //solhint-disable not-rely-on-time\n                    amountIn: amountToSend,\n                    amountOutMinimum: amountOutMin,\n                    sqrtPriceLimitX96: 0\n                });\n\n                //execute the frist swap\n                amountOut = swapRouter.exactInputSingle(params);\n\n                //Call twapPriceOracle here or find a better way to capture price\n                //TODO: Price wrapping\n                //TEST ONLY\n                uint priceAtWrap = 3000;\n\n                //execute the second swap and transfer funds to pool for holding\n                //have to update priceAtWrap, users can set this amount manually and drain funds lmfao\n                //will likely use TWAPOracle feature of uniV3 pools\n                _shortForUser(\n                    msg.sender,\n                    tokenToShort,\n                    priceAtWrap,\n                    poolFee,\n                    amountOut,\n                    amountOutMin\n                );\n\n                //update entry price mapping\n                //this refers to the entry price of msg.sender for the current shortID of msg.sender\n                //nested mappings look cringe but are efficient\n                entryPrices[msg.sender][userShortID[msg.sender]] = priceAtWrap;\n\n                //update userPositionNumber current short status\n                inShort[msg.sender][userShortID[msg.sender]] = true;\n            }\n\n    //TODO\n    //contract already has the DAI needed to close the trade, can just check the price and\n    //calculate the difference between the opening and closing prices, no need for expensive swaps\n    //in the standardPool contract anyways\n    function closeShortStandardPool(\n        address user,\n        uint _userShortID,\n        uint priceAtClose)\n        external {\n            require(user == msg.sender, \"CLOSE: Not your position\");\n\n            //TODO\n            //require priceAtClose == twapPriceOracle();\n\n            //calculate position balance using entryPrices vs current price\n            //returnValue of 0 indicates a winning trade, while 1 indicates a loss\n            (uint amountToSend, uint returnValue) =\n            PnLCalculator.calculatePNL(msg.sender, entryPrices[msg.sender][_userShortID], priceAtClose);\n\n            //check if user has enough collateral and does not carry a negative balance\n            if (amountToSend <= userDepositBalance[msg.sender] && returnValue == 1) {\n                //TODO\n                //liquidateUser();\n                //include distribution of funds\n            }\n\n            //update current userPositionNumber to free withdraws\n            inShort[msg.sender][_userShortID] = false;\n\n            if (returnValue == 0) {\n                IERC20(DAI_ADDRESS).transfer(msg.sender, amountToSend);\n            } else {\n                //distribute user loss amongst pool if losing short\n                distributeProfits(amountToSend);\n            }\n\n\n        }\n\n    function _shortForUser(\n        address user,\n        address tokenToShort,\n        uint priceAtWrap,\n        uint24 poolFee,\n        uint amount,\n        uint amountOutMin) internal returns(uint amountOut) {\n        //funds are currently in the contract, so no need to swap back and forth anymore\n        //should just be able to call the second swap\n\n        TransferHelper.safeApprove(tokenToShort, address(swapRouter), amount);\n\n        //now that this contract has the desired token to short, we sell @ market back for DAI\n        ISwapRouter.ExactInputSingleParams memory tokenParams =\n        ISwapRouter.ExactInputSingleParams({\n            tokenIn: tokenToShort,\n            tokenOut: DAI_ADDRESS,\n            fee: poolFee,\n            recipient: address(this), //the pool contract will store both DAI from deposits and tokenOut\n            deadline: block.timestamp, //solhint-disable not-rely-on-time\n            amountIn: amount,\n            amountOutMinimum: amountOutMin,\n            sqrtPriceLimitX96: 0\n        });\n\n        // execute the short, amountOut is wETH in this test case\n        amountOut = swapRouter.exactInputSingle(tokenParams);\n\n        //update user balance of the user current positionID\n        userShortBalance[msg.sender][userShortID[msg.sender]] = amountOut;\n\n        //wrap position in ERC1155\n        //use amountToShort to reference position size being wrapped\n        beraWrapper.wrapPosition(user, address(this), amount, tokenToShort, priceAtWrap);\n    }\n\n    function distributeProfits(uint amountToDistribute) internal {\n        uint properDecimalsX18 = amountToDistribute * 1e18;\n        for (uint i = 0; i < standardPoolList.length; i++) {\n            //get each user's percentage of the pool they own\n            //dai related to current positions are not counted*******\n            uint userPercent =\n                (userDepositBalance[standardPoolList[i]] / IERC20(DAI_ADDRESS).balanceOf(address(this))) * 1e18;\n            uint percentToSendToUsers = userPercent * properDecimalsX18;\n            //update each users deposit balance to increase the amount they can withdraw\n            //(rather than sending funds directly which would be quite expensive)\n            //balances are stored\n            userDepositBalance[standardPoolList[i]] += percentToSendToUsers;\n        }\n    }\n\n    receive() external payable { //solhint-disable state-visibility\n\n}\n\n    fallback() external payable { //solhint-disable\n\n}\n\n}\n\n\n//needs:\n//\n//total borrowed from pool/ token0\n//total supplied to pool as collateral/ token1(USDC)\n//total available to borrow for shorting\n//how much it will cost to borrow/ how much to be paid to supplier\n//when does the borrower threaten to be liquited?\n    //(when losses are equal to 90% of supplied collateral)\n    //thus, we need a way to measure the current borrowers PnL or loan health (maybe look at AAVE or COMP)\n//need interface when done with all functions\n\n//ON HOLD\n",
  "sourcePath": "/home/kevin/Code/solidity_projects/beraMarket/contracts/BeraPoolStandardRisk.sol",
  "compiler": {
    "name": "solc",
    "version": "0.8.10+commit.fc410830.Emscripten.clang"
  },
  "schemaVersion": "3.4.3",
  "updatedAt": "2021-12-03T18:17:02.109Z",
  "devdoc": {
    "kind": "dev",
    "methods": {
      "supportsInterface(bytes4)": {
        "details": "See {IERC165-supportsInterface}."
      }
    },
    "version": 1
  },
  "userdoc": {
    "kind": "user",
    "methods": {},
    "version": 1
  }
}