{
  "contractName": "BeraPoolStandardRisk",
  "abi": [
    {
      "inputs": [
        {
          "internalType": "contract ISwapRouter",
          "name": "_swapRouter",
          "type": "address"
        },
        {
          "internalType": "contract BeraWrapper",
          "name": "_beraWrapper",
          "type": "address"
        },
        {
          "internalType": "contract TWAPOracle",
          "name": "_twapOracle",
          "type": "address"
        },
        {
          "internalType": "contract SwapOracle",
          "name": "_swapOracle",
          "type": "address"
        }
      ],
      "stateMutability": "nonpayable",
      "type": "constructor"
    },
    {
      "stateMutability": "payable",
      "type": "fallback"
    },
    {
      "inputs": [],
      "name": "beraWrapper",
      "outputs": [
        {
          "internalType": "contract BeraWrapper",
          "name": "",
          "type": "address"
        }
      ],
      "stateMutability": "view",
      "type": "function"
    },
    {
      "inputs": [],
      "name": "globalRewards",
      "outputs": [
        {
          "internalType": "uint256",
          "name": "",
          "type": "uint256"
        }
      ],
      "stateMutability": "view",
      "type": "function"
    },
    {
      "inputs": [
        {
          "internalType": "address",
          "name": "",
          "type": "address"
        },
        {
          "internalType": "address",
          "name": "",
          "type": "address"
        },
        {
          "internalType": "uint256[]",
          "name": "",
          "type": "uint256[]"
        },
        {
          "internalType": "uint256[]",
          "name": "",
          "type": "uint256[]"
        },
        {
          "internalType": "bytes",
          "name": "",
          "type": "bytes"
        }
      ],
      "name": "onERC1155BatchReceived",
      "outputs": [
        {
          "internalType": "bytes4",
          "name": "",
          "type": "bytes4"
        }
      ],
      "stateMutability": "nonpayable",
      "type": "function"
    },
    {
      "inputs": [
        {
          "internalType": "address",
          "name": "",
          "type": "address"
        },
        {
          "internalType": "address",
          "name": "",
          "type": "address"
        },
        {
          "internalType": "uint256",
          "name": "",
          "type": "uint256"
        },
        {
          "internalType": "uint256",
          "name": "",
          "type": "uint256"
        },
        {
          "internalType": "bytes",
          "name": "",
          "type": "bytes"
        }
      ],
      "name": "onERC1155Received",
      "outputs": [
        {
          "internalType": "bytes4",
          "name": "",
          "type": "bytes4"
        }
      ],
      "stateMutability": "nonpayable",
      "type": "function"
    },
    {
      "inputs": [],
      "name": "owner",
      "outputs": [
        {
          "internalType": "address",
          "name": "",
          "type": "address"
        }
      ],
      "stateMutability": "view",
      "type": "function"
    },
    {
      "inputs": [
        {
          "internalType": "bytes4",
          "name": "interfaceId",
          "type": "bytes4"
        }
      ],
      "name": "supportsInterface",
      "outputs": [
        {
          "internalType": "bool",
          "name": "",
          "type": "bool"
        }
      ],
      "stateMutability": "view",
      "type": "function"
    },
    {
      "inputs": [],
      "name": "swapOracle",
      "outputs": [
        {
          "internalType": "contract SwapOracle",
          "name": "",
          "type": "address"
        }
      ],
      "stateMutability": "view",
      "type": "function"
    },
    {
      "inputs": [],
      "name": "swapRouter",
      "outputs": [
        {
          "internalType": "contract ISwapRouter",
          "name": "",
          "type": "address"
        }
      ],
      "stateMutability": "view",
      "type": "function"
    },
    {
      "inputs": [],
      "name": "twapOracle",
      "outputs": [
        {
          "internalType": "contract TWAPOracle",
          "name": "",
          "type": "address"
        }
      ],
      "stateMutability": "view",
      "type": "function"
    },
    {
      "inputs": [
        {
          "internalType": "address",
          "name": "",
          "type": "address"
        }
      ],
      "name": "users",
      "outputs": [
        {
          "internalType": "uint256",
          "name": "userDepositBalance",
          "type": "uint256"
        },
        {
          "internalType": "uint256",
          "name": "lastClaimedRewards",
          "type": "uint256"
        },
        {
          "internalType": "uint256",
          "name": "userShortID",
          "type": "uint256"
        }
      ],
      "stateMutability": "view",
      "type": "function"
    },
    {
      "stateMutability": "payable",
      "type": "receive"
    },
    {
      "inputs": [
        {
          "internalType": "uint256",
          "name": "amount",
          "type": "uint256"
        },
        {
          "internalType": "address",
          "name": "collateral",
          "type": "address"
        }
      ],
      "name": "depositCollateral",
      "outputs": [],
      "stateMutability": "nonpayable",
      "type": "function"
    },
    {
      "inputs": [
        {
          "internalType": "uint256",
          "name": "amount",
          "type": "uint256"
        },
        {
          "internalType": "uint256",
          "name": "userShortID",
          "type": "uint256"
        }
      ],
      "name": "withdrawFromPool",
      "outputs": [],
      "stateMutability": "nonpayable",
      "type": "function"
    },
    {
      "inputs": [],
      "name": "claimRewards",
      "outputs": [],
      "stateMutability": "nonpayable",
      "type": "function"
    },
    {
      "inputs": [
        {
          "internalType": "uint256",
          "name": "amount",
          "type": "uint256"
        },
        {
          "internalType": "address",
          "name": "tokenToShort",
          "type": "address"
        },
        {
          "internalType": "uint24",
          "name": "poolFee",
          "type": "uint24"
        },
        {
          "internalType": "uint256",
          "name": "amountOutMin",
          "type": "uint256"
        }
      ],
      "name": "swapAndShortStandard",
      "outputs": [
        {
          "internalType": "uint256",
          "name": "amountOut",
          "type": "uint256"
        }
      ],
      "stateMutability": "nonpayable",
      "type": "function"
    },
    {
      "inputs": [
        {
          "internalType": "address",
          "name": "userUnderwater",
          "type": "address"
        },
        {
          "internalType": "address",
          "name": "liquidator",
          "type": "address"
        },
        {
          "internalType": "uint256",
          "name": "shortID",
          "type": "uint256"
        }
      ],
      "name": "liquidateUser",
      "outputs": [],
      "stateMutability": "nonpayable",
      "type": "function"
    },
    {
      "inputs": [
        {
          "internalType": "address",
          "name": "user",
          "type": "address"
        },
        {
          "internalType": "uint256",
          "name": "shortID",
          "type": "uint256"
        }
      ],
      "name": "getLiquidator",
      "outputs": [
        {
          "internalType": "address",
          "name": "liquidator",
          "type": "address"
        }
      ],
      "stateMutability": "view",
      "type": "function"
    },
    {
      "inputs": [
        {
          "internalType": "address",
          "name": "user",
          "type": "address"
        }
      ],
      "name": "getTotalCollateral",
      "outputs": [
        {
          "internalType": "uint256",
          "name": "totalCollateral",
          "type": "uint256"
        }
      ],
      "stateMutability": "view",
      "type": "function"
    },
    {
      "inputs": [
        {
          "internalType": "address",
          "name": "user",
          "type": "address"
        }
      ],
      "name": "checkRewards",
      "outputs": [
        {
          "internalType": "uint256",
          "name": "profits",
          "type": "uint256"
        }
      ],
      "stateMutability": "view",
      "type": "function"
    },
    {
      "inputs": [],
      "name": "getGlobalRewards",
      "outputs": [
        {
          "internalType": "uint256",
          "name": "globals",
          "type": "uint256"
        }
      ],
      "stateMutability": "view",
      "type": "function"
    },
    {
      "inputs": [
        {
          "internalType": "address",
          "name": "user",
          "type": "address"
        },
        {
          "internalType": "uint256",
          "name": "shortID",
          "type": "uint256"
        }
      ],
      "name": "getUserShortBalance",
      "outputs": [
        {
          "internalType": "uint256",
          "name": "bal",
          "type": "uint256"
        }
      ],
      "stateMutability": "view",
      "type": "function"
    },
    {
      "inputs": [
        {
          "internalType": "address",
          "name": "user",
          "type": "address"
        },
        {
          "internalType": "uint256",
          "name": "shortID",
          "type": "uint256"
        }
      ],
      "name": "getUserEntryPrice",
      "outputs": [
        {
          "internalType": "uint256",
          "name": "entry",
          "type": "uint256"
        }
      ],
      "stateMutability": "view",
      "type": "function"
    },
    {
      "inputs": [
        {
          "internalType": "address",
          "name": "user",
          "type": "address"
        },
        {
          "internalType": "uint256",
          "name": "shortID",
          "type": "uint256"
        }
      ],
      "name": "getUserShortBool",
      "outputs": [
        {
          "internalType": "bool",
          "name": "isShort",
          "type": "bool"
        }
      ],
      "stateMutability": "view",
      "type": "function"
    },
    {
      "inputs": [
        {
          "internalType": "address",
          "name": "user",
          "type": "address"
        },
        {
          "internalType": "uint256",
          "name": "shortID",
          "type": "uint256"
        }
      ],
      "name": "getTokenAndFeeShortedByUser",
      "outputs": [
        {
          "internalType": "address",
          "name": "token",
          "type": "address"
        },
        {
          "internalType": "uint24",
          "name": "fee",
          "type": "uint24"
        }
      ],
      "stateMutability": "view",
      "type": "function"
    },
    {
      "inputs": [
        {
          "internalType": "address",
          "name": "user",
          "type": "address"
        },
        {
          "internalType": "uint256",
          "name": "userShortID",
          "type": "uint256"
        }
      ],
      "name": "closeShortStandardPool",
      "outputs": [],
      "stateMutability": "nonpayable",
      "type": "function"
    }
  ],
  "bytecode": "0x60a06040523480156200001157600080fd5b5060405162003b4638038062003b468339818101604052810190620000379190620002c5565b336000806101000a81548173ffffffffffffffffffffffffffffffffffffffff021916908373ffffffffffffffffffffffffffffffffffffffff1602179055508373ffffffffffffffffffffffffffffffffffffffff1660808173ffffffffffffffffffffffffffffffffffffffff168152505082600360006101000a81548173ffffffffffffffffffffffffffffffffffffffff021916908373ffffffffffffffffffffffffffffffffffffffff16021790555081600460006101000a81548173ffffffffffffffffffffffffffffffffffffffff021916908373ffffffffffffffffffffffffffffffffffffffff16021790555080600560006101000a81548173ffffffffffffffffffffffffffffffffffffffff021916908373ffffffffffffffffffffffffffffffffffffffff1602179055505050505062000337565b600080fd5b600073ffffffffffffffffffffffffffffffffffffffff82169050919050565b6000620001aa826200017d565b9050919050565b6000620001be826200019d565b9050919050565b620001d081620001b1565b8114620001dc57600080fd5b50565b600081519050620001f081620001c5565b92915050565b600062000203826200019d565b9050919050565b6200021581620001f6565b81146200022157600080fd5b50565b60008151905062000235816200020a565b92915050565b600062000248826200019d565b9050919050565b6200025a816200023b565b81146200026657600080fd5b50565b6000815190506200027a816200024f565b92915050565b60006200028d826200019d565b9050919050565b6200029f8162000280565b8114620002ab57600080fd5b50565b600081519050620002bf8162000294565b92915050565b60008060008060808587031215620002e257620002e162000178565b5b6000620002f287828801620001df565b9450506020620003058782880162000224565b9350506040620003188782880162000269565b92505060606200032b87828801620002ae565b91505092959194509250565b6080516137d76200036f60003960008181611603015281816116da01528181611afe015281816122fe01526123d501526137d76000f3fe60806040526004361061014f5760003560e01c80637423031e116100b6578063aac28b541161006f578063aac28b54146104d6578063bc197c8114610513578063c31c9c0714610550578063db6623e11461057b578063ef1b3166146105b9578063f23a6e61146105e257610156565b80637423031e146103c057806380a0b0fc146103eb5780638da5cb5b146104165780639043292a14610441578063a29aa1141461046c578063a87430ba1461049757610156565b80630ea99f40116101085780630ea99f40146102a0578063372500ab146102c95780633762e995146102e0578063481fef8a1461031d5780635e1691361461034657806360a98b801461038357610156565b806301ee16321461015857806301ffc9a714610181578063028bdf7c146101be578063046ff0d3146101fb5780630775d9421461023857806309d3e9c31461026357610156565b3661015657005b005b34801561016457600080fd5b5061017f600480360381019061017a91906125b9565b61061f565b005b34801561018d57600080fd5b506101a860048036038101906101a39190612651565b610bd2565b6040516101b59190612699565b60405180910390f35b3480156101ca57600080fd5b506101e560048036038101906101e091906125b9565b610c4c565b6040516101f29190612699565b60405180910390f35b34801561020757600080fd5b50610222600480360381019061021d91906126b4565b610cb7565b60405161022f91906126f0565b60405180910390f35b34801561024457600080fd5b5061024d610cc9565b60405161025a919061276a565b60405180910390f35b34801561026f57600080fd5b5061028a600480360381019061028591906125b9565b610cef565b60405161029791906126f0565b60405180910390f35b3480156102ac57600080fd5b506102c760048036038101906102c29190612785565b610d4d565b005b3480156102d557600080fd5b506102de61106e565b005b3480156102ec57600080fd5b50610307600480360381019061030291906125b9565b611079565b60405161031491906127e7565b60405180910390f35b34801561032957600080fd5b50610344600480360381019061033f9190612802565b6110fa565b005b34801561035257600080fd5b5061036d600480360381019061036891906125b9565b61125a565b60405161037a91906126f0565b60405180910390f35b34801561038f57600080fd5b506103aa60048036038101906103a591906126b4565b6112b8565b6040516103b791906126f0565b60405180910390f35b3480156103cc57600080fd5b506103d5611383565b6040516103e291906126f0565b60405180910390f35b3480156103f757600080fd5b50610400611389565b60405161040d91906126f0565b60405180910390f35b34801561042257600080fd5b5061042b611393565b60405161043891906127e7565b60405180910390f35b34801561044d57600080fd5b506104566113b7565b6040516104639190612863565b60405180910390f35b34801561047857600080fd5b506104816113dd565b60405161048e919061289f565b60405180910390f35b3480156104a357600080fd5b506104be60048036038101906104b991906126b4565b611403565b6040516104cd939291906128ba565b60405180910390f35b3480156104e257600080fd5b506104fd60048036038101906104f8919061292c565b61142d565b60405161050a91906126f0565b60405180910390f35b34801561051f57600080fd5b5061053a60048036038101906105359190612ba1565b611ae7565b6040516105479190612c7f565b60405180910390f35b34801561055c57600080fd5b50610565611afc565b6040516105729190612cbb565b60405180910390f35b34801561058757600080fd5b506105a2600480360381019061059d91906125b9565b611b20565b6040516105b0929190612ce5565b60405180910390f35b3480156105c557600080fd5b506105e060048036038101906105db9190612d0e565b611c05565b005b3480156105ee57600080fd5b5061060960048036038101906106049190612d4e565b611dca565b6040516106169190612c7f565b60405180910390f35b3373ffffffffffffffffffffffffffffffffffffffff168273ffffffffffffffffffffffffffffffffffffffff161461068d576040517f08c379a000000000000000000000000000000000000000000000000000000000815260040161068490612e42565b60405180910390fd5b60008061069a8484611b20565b915091506000600560009054906101000a900473ffffffffffffffffffffffffffffffffffffffff1673ffffffffffffffffffffffffffffffffffffffff1663ec3eb22384846040518363ffffffff1660e01b81526004016106fd929190612ce5565b602060405180830381865afa15801561071a573d6000803e3d6000fd5b505050506040513d601f19601f8201168201806040525081019061073e9190612e77565b9050600360009054906101000a900473ffffffffffffffffffffffffffffffffffffffff1673ffffffffffffffffffffffffffffffffffffffff1663b9e17b7686866040518363ffffffff1660e01b815260040161079d929190612ea4565b600060405180830381600087803b1580156107b757600080fd5b505af11580156107cb573d6000803e3d6000fd5b5050505060008073__PnLCalculator_________________________63a51e4ab3600160003373ffffffffffffffffffffffffffffffffffffffff1673ffffffffffffffffffffffffffffffffffffffff16815260200190815260200160002060030160008981526020019081526020016000205485600160008c73ffffffffffffffffffffffffffffffffffffffff1673ffffffffffffffffffffffffffffffffffffffff16815260200190815260200160002060040160008b8152602001908152602001600020546040518463ffffffff1660e01b81526004016108b393929190612ef5565b6040805180830381865af41580156108cf573d6000803e3d6000fd5b505050506040513d601f19601f820116820180604052508101906108f39190612f65565b60ff169150915060008114156109615781600160003373ffffffffffffffffffffffffffffffffffffffff1673ffffffffffffffffffffffffffffffffffffffff16815260200190815260200160002060000160008282546109559190612fd4565b92505081905550610b04565b6001811415610b035781600160003373ffffffffffffffffffffffffffffffffffffffff1673ffffffffffffffffffffffffffffffffffffffff16815260200190815260200160002060000160008282546109bc919061302a565b9250508190555060011515600160008973ffffffffffffffffffffffffffffffffffffffff1673ffffffffffffffffffffffffffffffffffffffff168152602001908152602001600020600801600088815260200190815260200160002060000160009054906101000a900460ff1615151415610ae85760006064603284610a44919061305e565b610a4e91906130e7565b905060008184610a5e919061302a565b90506000610a6c8a8a611079565b905081600160008373ffffffffffffffffffffffffffffffffffffffff1673ffffffffffffffffffffffffffffffffffffffff1681526020019081526020016000206000016000828254610ac09190612fd4565b925050819055508260026000828254610ad99190612fd4565b92505081905550505050610b02565b8160026000828254610afa9190612fd4565b925050819055505b5b5b6000600160003373ffffffffffffffffffffffffffffffffffffffff1673ffffffffffffffffffffffffffffffffffffffff168152602001908152602001600020600701600088815260200190815260200160002060006101000a81548160ff0219169083151502179055506000600160003373ffffffffffffffffffffffffffffffffffffffff1673ffffffffffffffffffffffffffffffffffffffff16815260200190815260200160002060040160008881526020019081526020016000208190555050505050505050565b60007f4e2312e0000000000000000000000000000000000000000000000000000000007bffffffffffffffffffffffffffffffffffffffffffffffffffffffff1916827bffffffffffffffffffffffffffffffffffffffffffffffffffffffff19161480610c455750610c4482611ddf565b5b9050919050565b6000600160008473ffffffffffffffffffffffffffffffffffffffff1673ffffffffffffffffffffffffffffffffffffffff168152602001908152602001600020600701600083815260200190815260200160002060009054906101000a900460ff16905092915050565b6000610cc282611e49565b9050919050565b600560009054906101000a900473ffffffffffffffffffffffffffffffffffffffff1681565b6000600160008473ffffffffffffffffffffffffffffffffffffffff1673ffffffffffffffffffffffffffffffffffffffff168152602001908152602001600020600401600083815260200190815260200160002054905092915050565b600080610d5a8584611b20565b915091506000600560009054906101000a900473ffffffffffffffffffffffffffffffffffffffff1673ffffffffffffffffffffffffffffffffffffffff1663ec3eb22384846040518363ffffffff1660e01b8152600401610dbd929190612ce5565b602060405180830381865afa158015610dda573d6000803e3d6000fd5b505050506040513d601f19601f82011682018060405250810190610dfe9190612e77565b9050600081610e0d888761125a565b610e17919061302a565b9050600060646005600160008b73ffffffffffffffffffffffffffffffffffffffff1673ffffffffffffffffffffffffffffffffffffffff16815260200190815260200160002060000154610e6c919061305e565b610e7691906130e7565b9050600160008973ffffffffffffffffffffffffffffffffffffffff1673ffffffffffffffffffffffffffffffffffffffff168152602001908152602001600020600001548183610ec79190612fd4565b11610f07576040517f08c379a0000000000000000000000000000000000000000000000000000000008152600401610efe90613164565b60405180910390fd5b60011515610f158988610c4c565b151514610f57576040517f08c379a0000000000000000000000000000000000000000000000000000000008152600401610f4e906131d0565b60405180910390fd5b60018060008a73ffffffffffffffffffffffffffffffffffffffff1673ffffffffffffffffffffffffffffffffffffffff168152602001908152602001600020600801600088815260200190815260200160002060000160006101000a81548160ff02191690831515021790555086600160008a73ffffffffffffffffffffffffffffffffffffffff1673ffffffffffffffffffffffffffffffffffffffff168152602001908152602001600020600801600088815260200190815260200160002060000160016101000a81548173ffffffffffffffffffffffffffffffffffffffff021916908373ffffffffffffffffffffffffffffffffffffffff160217905550611064888761061f565b5050505050505050565b61107733611f8c565b565b6000600160008473ffffffffffffffffffffffffffffffffffffffff1673ffffffffffffffffffffffffffffffffffffffff168152602001908152602001600020600801600083815260200190815260200160002060000160019054906101000a900473ffffffffffffffffffffffffffffffffffffffff16905092915050565b736b175474e89094c44da98b954eedeac495271d0f73ffffffffffffffffffffffffffffffffffffffff168173ffffffffffffffffffffffffffffffffffffffff161461117c576040517f08c379a00000000000000000000000000000000000000000000000000000000081526004016111739061323c565b60405180910390fd5b81600160003373ffffffffffffffffffffffffffffffffffffffff1673ffffffffffffffffffffffffffffffffffffffff16815260200190815260200160002060000160008282546111ce9190612fd4565b925050819055508073ffffffffffffffffffffffffffffffffffffffff166323b872dd3330856040518463ffffffff1660e01b81526004016112129392919061325c565b6020604051808303816000875af1158015611231573d6000803e3d6000fd5b505050506040513d601f19601f8201168201806040525081019061125591906132bf565b505050565b6000600160008473ffffffffffffffffffffffffffffffffffffffff1673ffffffffffffffffffffffffffffffffffffffff168152602001908152602001600020600301600083815260200190815260200160002054905092915050565b600080600090505b600160008473ffffffffffffffffffffffffffffffffffffffff1673ffffffffffffffffffffffffffffffffffffffff16815260200190815260200160002060020154811161137d57600160008473ffffffffffffffffffffffffffffffffffffffff1673ffffffffffffffffffffffffffffffffffffffff168152602001908152602001600020600401600082815260200190815260200160002054826113689190612fd4565b91508080611375906132ec565b9150506112c0565b50919050565b60025481565b6000600254905090565b60008054906101000a900473ffffffffffffffffffffffffffffffffffffffff1681565b600460009054906101000a900473ffffffffffffffffffffffffffffffffffffffff1681565b600360009054906101000a900473ffffffffffffffffffffffffffffffffffffffff1681565b60016020528060005260406000206000915090508060000154908060010154908060020154905083565b6000600160003373ffffffffffffffffffffffffffffffffffffffff1673ffffffffffffffffffffffffffffffffffffffff168152602001908152602001600020600001548511156114b4576040517f08c379a00000000000000000000000000000000000000000000000000000000081526004016114ab90613381565b60405180910390fd5b60018060003373ffffffffffffffffffffffffffffffffffffffff1673ffffffffffffffffffffffffffffffffffffffff16815260200190815260200160002060020160008282546115069190612fd4565b925050819055506000611518336112b8565b11156115ac57600160003373ffffffffffffffffffffffffffffffffffffffff1673ffffffffffffffffffffffffffffffffffffffff1681526020019081526020016000206000015461156a336112b8565b11156115ab576040517f08c379a00000000000000000000000000000000000000000000000000000000081526004016115a290613381565b60405180910390fd5b5b60006064605f876115bd919061305e565b6115c791906130e7565b90506115e9736b175474e89094c44da98b954eedeac495271d0f333089612049565b611628736b175474e89094c44da98b954eedeac495271d0f7f0000000000000000000000000000000000000000000000000000000000000000886121a1565b6000604051806101000160405280736b175474e89094c44da98b954eedeac495271d0f73ffffffffffffffffffffffffffffffffffffffff1681526020018773ffffffffffffffffffffffffffffffffffffffff1681526020018662ffffff1681526020013073ffffffffffffffffffffffffffffffffffffffff168152602001428152602001838152602001858152602001600073ffffffffffffffffffffffffffffffffffffffff1681525090507f000000000000000000000000000000000000000000000000000000000000000073ffffffffffffffffffffffffffffffffffffffff1663414bf389826040518263ffffffff1660e01b8152600401611731919061347f565b6020604051808303816000875af1158015611750573d6000803e3d6000fd5b505050506040513d601f19601f820116820180604052508101906117749190612e77565b92506000600560009054906101000a900473ffffffffffffffffffffffffffffffffffffffff1673ffffffffffffffffffffffffffffffffffffffff1663ec3eb22388886040518363ffffffff1660e01b81526004016117d5929190612ce5565b602060405180830381865afa1580156117f2573d6000803e3d6000fd5b505050506040513d601f19601f820116820180604052508101906118169190612e77565b905061182633888389888a6122f6565b5080600160003373ffffffffffffffffffffffffffffffffffffffff1673ffffffffffffffffffffffffffffffffffffffff1681526020019081526020016000206003016000600160003373ffffffffffffffffffffffffffffffffffffffff1673ffffffffffffffffffffffffffffffffffffffff1681526020019081526020016000206002015481526020019081526020016000208190555083600160003373ffffffffffffffffffffffffffffffffffffffff1673ffffffffffffffffffffffffffffffffffffffff1681526020019081526020016000206004016000600160003373ffffffffffffffffffffffffffffffffffffffff1673ffffffffffffffffffffffffffffffffffffffff1681526020019081526020016000206002015481526020019081526020016000208190555060018060003373ffffffffffffffffffffffffffffffffffffffff1673ffffffffffffffffffffffffffffffffffffffff1681526020019081526020016000206007016000600160003373ffffffffffffffffffffffffffffffffffffffff1673ffffffffffffffffffffffffffffffffffffffff16815260200190815260200160002060020154815260200190815260200160002060006101000a81548160ff02191690831515021790555086600160003373ffffffffffffffffffffffffffffffffffffffff1673ffffffffffffffffffffffffffffffffffffffff1681526020019081526020016000206005016000600160003373ffffffffffffffffffffffffffffffffffffffff1673ffffffffffffffffffffffffffffffffffffffff16815260200190815260200160002060020154815260200190815260200160002060006101000a81548173ffffffffffffffffffffffffffffffffffffffff021916908373ffffffffffffffffffffffffffffffffffffffff160217905550505050949350505050565b600063bc197c8160e01b905095945050505050565b7f000000000000000000000000000000000000000000000000000000000000000081565b600080600160008573ffffffffffffffffffffffffffffffffffffffff1673ffffffffffffffffffffffffffffffffffffffff168152602001908152602001600020600501600084815260200190815260200160002060009054906101000a900473ffffffffffffffffffffffffffffffffffffffff169150600160008573ffffffffffffffffffffffffffffffffffffffff1673ffffffffffffffffffffffffffffffffffffffff168152602001908152602001600020600601600084815260200190815260200160002060009054906101000a900462ffffff1690509250929050565b600160003373ffffffffffffffffffffffffffffffffffffffff1673ffffffffffffffffffffffffffffffffffffffff16815260200190815260200160002060000154821115611c8a576040517f08c379a0000000000000000000000000000000000000000000000000000000008152600401611c819061350d565b60405180910390fd5b60001515611c983383610c4c565b151514611cda576040517f08c379a0000000000000000000000000000000000000000000000000000000008152600401611cd1906135c5565b60405180910390fd5b81600160003373ffffffffffffffffffffffffffffffffffffffff1673ffffffffffffffffffffffffffffffffffffffff1681526020019081526020016000206000016000828254611d2c919061302a565b92505081905550736b175474e89094c44da98b954eedeac495271d0f73ffffffffffffffffffffffffffffffffffffffff1663a9059cbb33846040518363ffffffff1660e01b8152600401611d82929190612ea4565b6020604051808303816000875af1158015611da1573d6000803e3d6000fd5b505050506040513d601f19601f82011682018060405250810190611dc591906132bf565b505050565b600063f23a6e6160e01b905095945050505050565b60007f01ffc9a7000000000000000000000000000000000000000000000000000000007bffffffffffffffffffffffffffffffffffffffffffffffffffffffff1916827bffffffffffffffffffffffffffffffffffffffffffffffffffffffff1916149050919050565b600080600160008473ffffffffffffffffffffffffffffffffffffffff1673ffffffffffffffffffffffffffffffffffffffff16815260200190815260200160002060010154600254611e9c919061302a565b9050736b175474e89094c44da98b954eedeac495271d0f73ffffffffffffffffffffffffffffffffffffffff166370a08231306040518263ffffffff1660e01b8152600401611eeb91906127e7565b602060405180830381865afa158015611f08573d6000803e3d6000fd5b505050506040513d601f19601f82011682018060405250810190611f2c9190612e77565b81600160008673ffffffffffffffffffffffffffffffffffffffff1673ffffffffffffffffffffffffffffffffffffffff16815260200190815260200160002060000154611f7a919061305e565b611f8491906130e7565b915050919050565b6000611f9782611e49565b905060008111156120455780600160008473ffffffffffffffffffffffffffffffffffffffff1673ffffffffffffffffffffffffffffffffffffffff1681526020019081526020016000206000016000828254611ff49190612fd4565b92505081905550600254600160008473ffffffffffffffffffffffffffffffffffffffff1673ffffffffffffffffffffffffffffffffffffffff168152602001908152602001600020600101819055505b5050565b6000808573ffffffffffffffffffffffffffffffffffffffff166323b872dd60e01b8686866040516024016120809392919061325c565b604051602081830303815290604052907bffffffffffffffffffffffffffffffffffffffffffffffffffffffff19166020820180517bffffffffffffffffffffffffffffffffffffffffffffffffffffffff83818316178352505050506040516120ea919061365f565b6000604051808303816000865af19150503d8060008114612127576040519150601f19603f3d011682016040523d82523d6000602084013e61212c565b606091505b509150915081801561215a575060008151148061215957508080602001905181019061215891906132bf565b5b5b612199576040517f08c379a0000000000000000000000000000000000000000000000000000000008152600401612190906136c2565b60405180910390fd5b505050505050565b6000808473ffffffffffffffffffffffffffffffffffffffff1663095ea7b360e01b85856040516024016121d6929190612ea4565b604051602081830303815290604052907bffffffffffffffffffffffffffffffffffffffffffffffffffffffff19166020820180517bffffffffffffffffffffffffffffffffffffffffffffffffffffffff8381831617835250505050604051612240919061365f565b6000604051808303816000865af19150503d806000811461227d576040519150601f19603f3d011682016040523d82523d6000602084013e612282565b606091505b50915091508180156122b057506000815114806122af5750808060200190518101906122ae91906132bf565b5b5b6122ef576040517f08c379a00000000000000000000000000000000000000000000000000000000081526004016122e69061372e565b60405180910390fd5b5050505050565b6000612323867f0000000000000000000000000000000000000000000000000000000000000000856121a1565b60006040518061010001604052808873ffffffffffffffffffffffffffffffffffffffff168152602001736b175474e89094c44da98b954eedeac495271d0f73ffffffffffffffffffffffffffffffffffffffff1681526020018662ffffff1681526020013073ffffffffffffffffffffffffffffffffffffffff168152602001428152602001858152602001848152602001600073ffffffffffffffffffffffffffffffffffffffff1681525090507f000000000000000000000000000000000000000000000000000000000000000073ffffffffffffffffffffffffffffffffffffffff1663414bf389826040518263ffffffff1660e01b815260040161242c919061347f565b6020604051808303816000875af115801561244b573d6000803e3d6000fd5b505050506040513d601f19601f8201168201806040525081019061246f9190612e77565b9150600360009054906101000a900473ffffffffffffffffffffffffffffffffffffffff1673ffffffffffffffffffffffffffffffffffffffff1663c25df92d8930878b8b6040518663ffffffff1660e01b81526004016124d495949392919061374e565b600060405180830381600087803b1580156124ee57600080fd5b505af1158015612502573d6000803e3d6000fd5b50505050509695505050505050565b6000604051905090565b600080fd5b600080fd5b600073ffffffffffffffffffffffffffffffffffffffff82169050919050565b600061255082612525565b9050919050565b61256081612545565b811461256b57600080fd5b50565b60008135905061257d81612557565b92915050565b6000819050919050565b61259681612583565b81146125a157600080fd5b50565b6000813590506125b38161258d565b92915050565b600080604083850312156125d0576125cf61251b565b5b60006125de8582860161256e565b92505060206125ef858286016125a4565b9150509250929050565b60007fffffffff0000000000000000000000000000000000000000000000000000000082169050919050565b61262e816125f9565b811461263957600080fd5b50565b60008135905061264b81612625565b92915050565b6000602082840312156126675761266661251b565b5b60006126758482850161263c565b91505092915050565b60008115159050919050565b6126938161267e565b82525050565b60006020820190506126ae600083018461268a565b92915050565b6000602082840312156126ca576126c961251b565b5b60006126d88482850161256e565b91505092915050565b6126ea81612583565b82525050565b600060208201905061270560008301846126e1565b92915050565b6000819050919050565b600061273061272b61272684612525565b61270b565b612525565b9050919050565b600061274282612715565b9050919050565b600061275482612737565b9050919050565b61276481612749565b82525050565b600060208201905061277f600083018461275b565b92915050565b60008060006060848603121561279e5761279d61251b565b5b60006127ac8682870161256e565b93505060206127bd8682870161256e565b92505060406127ce868287016125a4565b9150509250925092565b6127e181612545565b82525050565b60006020820190506127fc60008301846127d8565b92915050565b600080604083850312156128195761281861251b565b5b6000612827858286016125a4565b92505060206128388582860161256e565b9150509250929050565b600061284d82612737565b9050919050565b61285d81612842565b82525050565b60006020820190506128786000830184612854565b92915050565b600061288982612737565b9050919050565b6128998161287e565b82525050565b60006020820190506128b46000830184612890565b92915050565b60006060820190506128cf60008301866126e1565b6128dc60208301856126e1565b6128e960408301846126e1565b949350505050565b600062ffffff82169050919050565b612909816128f1565b811461291457600080fd5b50565b60008135905061292681612900565b92915050565b600080600080608085870312156129465761294561251b565b5b6000612954878288016125a4565b94505060206129658782880161256e565b935050604061297687828801612917565b9250506060612987878288016125a4565b91505092959194509250565b600080fd5b6000601f19601f8301169050919050565b7f4e487b7100000000000000000000000000000000000000000000000000000000600052604160045260246000fd5b6129e182612998565b810181811067ffffffffffffffff82111715612a00576129ff6129a9565b5b80604052505050565b6000612a13612511565b9050612a1f82826129d8565b919050565b600067ffffffffffffffff821115612a3f57612a3e6129a9565b5b602082029050602081019050919050565b600080fd5b6000612a68612a6384612a24565b612a09565b90508083825260208201905060208402830185811115612a8b57612a8a612a50565b5b835b81811015612ab45780612aa088826125a4565b845260208401935050602081019050612a8d565b5050509392505050565b600082601f830112612ad357612ad2612993565b5b8135612ae3848260208601612a55565b91505092915050565b600080fd5b600067ffffffffffffffff821115612b0c57612b0b6129a9565b5b612b1582612998565b9050602081019050919050565b82818337600083830152505050565b6000612b44612b3f84612af1565b612a09565b905082815260208101848484011115612b6057612b5f612aec565b5b612b6b848285612b22565b509392505050565b600082601f830112612b8857612b87612993565b5b8135612b98848260208601612b31565b91505092915050565b600080600080600060a08688031215612bbd57612bbc61251b565b5b6000612bcb8882890161256e565b9550506020612bdc8882890161256e565b945050604086013567ffffffffffffffff811115612bfd57612bfc612520565b5b612c0988828901612abe565b935050606086013567ffffffffffffffff811115612c2a57612c29612520565b5b612c3688828901612abe565b925050608086013567ffffffffffffffff811115612c5757612c56612520565b5b612c6388828901612b73565b9150509295509295909350565b612c79816125f9565b82525050565b6000602082019050612c946000830184612c70565b92915050565b6000612ca582612737565b9050919050565b612cb581612c9a565b82525050565b6000602082019050612cd06000830184612cac565b92915050565b612cdf816128f1565b82525050565b6000604082019050612cfa60008301856127d8565b612d076020830184612cd6565b9392505050565b60008060408385031215612d2557612d2461251b565b5b6000612d33858286016125a4565b9250506020612d44858286016125a4565b9150509250929050565b600080600080600060a08688031215612d6a57612d6961251b565b5b6000612d788882890161256e565b9550506020612d898882890161256e565b9450506040612d9a888289016125a4565b9350506060612dab888289016125a4565b925050608086013567ffffffffffffffff811115612dcc57612dcb612520565b5b612dd888828901612b73565b9150509295509295909350565b600082825260208201905092915050565b7f434c4f53453a204e6f7420796f757220706f736974696f6e0000000000000000600082015250565b6000612e2c601883612de5565b9150612e3782612df6565b602082019050919050565b60006020820190508181036000830152612e5b81612e1f565b9050919050565b600081519050612e718161258d565b92915050565b600060208284031215612e8d57612e8c61251b565b5b6000612e9b84828501612e62565b91505092915050565b6000604082019050612eb960008301856127d8565b612ec660208301846126e1565b9392505050565b612ed681612583565b82525050565b6000819050919050565b612eef81612edc565b82525050565b6000606082019050612f0a6000830186612ecd565b612f176020830185612ecd565b612f246040830184612ee6565b949350505050565b600060ff82169050919050565b612f4281612f2c565b8114612f4d57600080fd5b50565b600081519050612f5f81612f39565b92915050565b60008060408385031215612f7c57612f7b61251b565b5b6000612f8a85828601612e62565b9250506020612f9b85828601612f50565b9150509250929050565b7f4e487b7100000000000000000000000000000000000000000000000000000000600052601160045260246000fd5b6000612fdf82612583565b9150612fea83612583565b9250827fffffffffffffffffffffffffffffffffffffffffffffffffffffffffffffffff0382111561301f5761301e612fa5565b5b828201905092915050565b600061303582612583565b915061304083612583565b92508282101561305357613052612fa5565b5b828203905092915050565b600061306982612583565b915061307483612583565b9250817fffffffffffffffffffffffffffffffffffffffffffffffffffffffffffffffff04831182151516156130ad576130ac612fa5565b5b828202905092915050565b7f4e487b7100000000000000000000000000000000000000000000000000000000600052601260045260246000fd5b60006130f282612583565b91506130fd83612583565b92508261310d5761310c6130b8565b5b828204905092915050565b7f4c49513a204163636f756e74206e6f7420696e2064726177646f776e00000000600082015250565b600061314e601c83612de5565b915061315982613118565b602082019050919050565b6000602082019050818103600083015261317d81613141565b9050919050565b7f4c49513a20506f736974696f6e206e6f74206163746976650000000000000000600082015250565b60006131ba601883612de5565b91506131c582613184565b602082019050919050565b600060208201905081810360008301526131e9816131ad565b9050919050565b7f5354414e4441524420504f4f4c3a204e6f742044414900000000000000000000600082015250565b6000613226601683612de5565b9150613231826131f0565b602082019050919050565b6000602082019050818103600083015261325581613219565b9050919050565b600060608201905061327160008301866127d8565b61327e60208301856127d8565b61328b60408301846126e1565b949350505050565b61329c8161267e565b81146132a757600080fd5b50565b6000815190506132b981613293565b92915050565b6000602082840312156132d5576132d461251b565b5b60006132e3848285016132aa565b91505092915050565b60006132f782612583565b91507fffffffffffffffffffffffffffffffffffffffffffffffffffffffffffffffff82141561332a57613329612fa5565b5b600182019050919050565b7f535741503a206e6f7420656e6f75676820636f6c6c61746572616c0000000000600082015250565b600061336b601b83612de5565b915061337682613335565b602082019050919050565b6000602082019050818103600083015261339a8161335e565b9050919050565b6133aa81612545565b82525050565b6133b9816128f1565b82525050565b6133c881612583565b82525050565b6133d781612525565b82525050565b610100820160008201516133f460008501826133a1565b50602082015161340760208501826133a1565b50604082015161341a60408501826133b0565b50606082015161342d60608501826133a1565b50608082015161344060808501826133bf565b5060a082015161345360a08501826133bf565b5060c082015161346660c08501826133bf565b5060e082015161347960e08501826133ce565b50505050565b60006101008201905061349560008301846133dd565b92915050565b7f434f4c4c41544552414c3a20747279696e6720746f207769746864726177206d60008201527f6f726520636f6c6c61746572616c207468616e206465706f7369746564000000602082015250565b60006134f7603d83612de5565b91506135028261349b565b604082019050919050565b60006020820190508181036000830152613526816134ea565b9050919050565b7f434f4c4c41544552414c3a20636c6f736520796f75722063757272656e74207060008201527f6f736974696f6e206265666f726520747279696e6720746f207769746864726160208201527f7700000000000000000000000000000000000000000000000000000000000000604082015250565b60006135af604183612de5565b91506135ba8261352d565b606082019050919050565b600060208201905081810360008301526135de816135a2565b9050919050565b600081519050919050565b600081905092915050565b60005b838110156136195780820151818401526020810190506135fe565b83811115613628576000848401525b50505050565b6000613639826135e5565b61364381856135f0565b93506136538185602086016135fb565b80840191505092915050565b600061366b828461362e565b915081905092915050565b7f5354460000000000000000000000000000000000000000000000000000000000600082015250565b60006136ac600383612de5565b91506136b782613676565b602082019050919050565b600060208201905081810360008301526136db8161369f565b9050919050565b7f5341000000000000000000000000000000000000000000000000000000000000600082015250565b6000613718600283612de5565b9150613723826136e2565b602082019050919050565b600060208201905081810360008301526137478161370b565b9050919050565b600060a08201905061376360008301886127d8565b61377060208301876127d8565b61377d60408301866126e1565b61378a60608301856127d8565b61379760808301846126e1565b969550505050505056fea2646970667358221220c89cdb25933d44aec9593df529a222e77d94894d466a8db89f4b86f3f23850ad64736f6c634300080b0033",
  "immutableReferences": {
    "3369": [
      {
        "length": 32,
        "start": 5635
      },
      {
        "length": 32,
        "start": 5850
      },
      {
        "length": 32,
        "start": 6910
      },
      {
        "length": 32,
        "start": 8958
      },
      {
        "length": 32,
        "start": 9173
      }
    ]
  },
  "source": "// SPDX-License-Identifier: MIT\npragma solidity ^0.8.0; //solhint-disable compiler-fixed\npragma abicoder v2;\n\n\nimport \"@openzeppelin/contracts/token/ERC1155/IERC1155.sol\";\nimport \"@openzeppelin/contracts/token/ERC1155/utils/ERC1155Holder.sol\";\nimport \"@uniswap/v3-periphery/contracts/interfaces/ISwapRouter.sol\";\nimport \"@uniswap/v3-periphery/contracts/libraries/TransferHelper.sol\";\nimport \"@openzeppelin/contracts/token/ERC20/IERC20.sol\";\nimport \"@uniswap/v3-core/contracts/interfaces/IUniswapV3Pool.sol\";\nimport \"./BeraWrapper.sol\";\nimport \"./ancillary/PnLCalculator.sol\";\nimport \"./ancillary/TWAPoracle.sol\";\nimport \"./ancillary/SwapOracle.sol\";\n\n\ncontract BeraPoolStandardRisk is ERC1155Holder {\n\n    address public owner;\n\n    mapping(address => Account) public users;\n\n    struct Liquidation {\n        bool wasLiquidated;\n        address liquidator;\n    }\n\n    struct Account {\n        uint userDepositBalance;\n        uint lastClaimedRewards;\n        uint userShortID;\n        mapping(uint => uint) entryPrice;\n        mapping(uint => uint) userShortBalanceByID;\n        mapping(uint => address) tokenShortedByPositionID;\n        mapping(uint => uint24) poolFeeByPositionID;\n        mapping(uint => bool) isPositionInShort;\n        mapping(uint => Liquidation) liqData;\n    }\n\n    uint public globalRewards;\n\n    address private constant DAI_ADDRESS = 0x6B175474E89094C44Da98b954EedeAC495271d0F;\n\n    ISwapRouter public immutable swapRouter;\n    BeraWrapper public beraWrapper;\n    TWAPOracle public twapOracle;\n    SwapOracle public swapOracle;\n\n    constructor(ISwapRouter _swapRouter,\n        BeraWrapper _beraWrapper,\n        TWAPOracle _twapOracle,\n        SwapOracle _swapOracle) { //solhint-disable func-visibility\n        owner = msg.sender;\n        swapRouter = _swapRouter;\n        beraWrapper = _beraWrapper;\n        twapOracle = _twapOracle;\n        swapOracle = _swapOracle;\n    }\n\n    function depositCollateral(uint amount, address collateral) external {\n        require(IERC20(collateral) == IERC20(DAI_ADDRESS), \"STANDARD POOL: Not DAI\");\n\n        //used for withdrawl later\n        users[msg.sender].userDepositBalance += amount;\n\n        //transfer DAI to this contract\n        IERC20(collateral).transferFrom(msg.sender, address(this), amount);\n    }\n\n    function withdrawFromPool(uint amount, uint userShortID) external {\n        require(amount <= users[msg.sender].userDepositBalance,\n            \"COLLATERAL: trying to withdraw more collateral than deposited\");\n\n        //checking if the funds locked in the position have been released before allowing them to be withdrawn\n        require(getUserShortBool(msg.sender, userShortID) == false,\n            \"COLLATERAL: close your current position before trying to withdraw\");\n\n        //reset balance of user on withdraw\n        users[msg.sender].userDepositBalance -= amount;\n\n        IERC20(DAI_ADDRESS).transfer(msg.sender, amount);\n    }\n\n    //used to claim the profit rewards from collecting trader losses in this pool\n    function claimRewards() external {\n        sendOwedProfits(msg.sender);\n    }\n\n    // deposit collateral into user account before being allowed to short\n    // amount refers to how much dai to swap for amountOut of the token the user\n    // wants to short\n    //\n    // will likely have to split the logic for the function up, she's getting pretty chonky\n    function swapAndShortStandard(\n            uint amount,\n            address tokenToShort,\n            uint24 poolFee, //needed for uniswap pool\n            uint amountOutMin)\n            external returns(uint amountOut) { //solhint-disable function-max-lines\n                require(amount <= users[msg.sender].userDepositBalance, \"SWAP: not enough collateral\");\n\n                //by default uints are initialized at 0 so this should work???\n                users[msg.sender].userShortID += 1;\n\n                //get total amount of collateral in shorts if user has opened a position before\n                if (getTotalCollateral(msg.sender) > 0) {\n                    require(getTotalCollateral(msg.sender) <= users[msg.sender].userDepositBalance,\n                        \"SWAP: not enough collateral\");\n                }\n\n                //5% is kept as fee to protocol to assist in paying out users\n                uint amountToSend = amount * 95 / 100;\n\n                TransferHelper.safeTransferFrom(DAI_ADDRESS, msg.sender, address(this), amount);\n                TransferHelper.safeApprove(DAI_ADDRESS, address(swapRouter), amount);\n\n                ISwapRouter.ExactInputSingleParams memory params =\n                ISwapRouter.ExactInputSingleParams({\n                    tokenIn: DAI_ADDRESS,\n                    tokenOut: tokenToShort,\n                    fee: poolFee,\n                    recipient: address(this),\n                    deadline: block.timestamp, //solhint-disable not-rely-on-time\n                    amountIn: amountToSend,\n                    amountOutMinimum: amountOutMin,\n                    sqrtPriceLimitX96: 0\n                });\n\n                //execute the frist swap\n                amountOut = swapRouter.exactInputSingle(params);\n\n                //get TWAP price (3 min)\n                //destructure pool request\n                uint priceAtWrap =\n                    swapOracle.getSwapPrice(\n                        tokenToShort,\n                        poolFee\n                    );\n\n                //execute the second swap and transfer funds to pool for holding\n                //this is the swap that creates the actual 'short' position for the user on-chain\n                _shortForUser(\n                    msg.sender,\n                    tokenToShort,\n                    priceAtWrap,\n                    poolFee,\n                    amountOut,\n                    amountOutMin\n                );\n\n                //TODO REFACTOR: can update user data in one internal function // maybe //\n\n                //update entry price mapping\n                //this stores the entry price of msg.sender for this specific shortID of the sender\n                //nested mappings look cringe but are efficient\n                users[msg.sender].entryPrice[users[msg.sender].userShortID] = priceAtWrap;\n\n                //update user balance of the user current positionID\n                //this is used to keep track of how much of the users deposit is currently being used\n                users[msg.sender].userShortBalanceByID[users[msg.sender].userShortID] = amountOut;\n\n                //update userPositionNumber current short status\n                // inShort[msg.sender][userShortID[msg.sender]] = true;\n                users[msg.sender].isPositionInShort[users[msg.sender].userShortID] = true;\n\n                users[msg.sender].tokenShortedByPositionID[users[msg.sender].userShortID] = tokenToShort;\n            }\n\n    // if you are reading this comment, this is a way for you to make some money\n    // and keep the protocol alive and kicking\n    // keep in mind that you need to have deposited collateral to receive rewards\n    function liquidateUser(address userUnderwater, address liquidator, uint shortID) external {\n        //get entry price by shortID and subtract by current price\n        (address token, uint24 fee) = getTokenAndFeeShortedByUser(userUnderwater, shortID);\n        uint currentPrice = swapOracle.getSwapPrice(\n                token,\n                fee\n            );\n        uint drawdown = getUserEntryPrice(userUnderwater, shortID) - currentPrice;\n        //give the users a 5% buffer on their deposit amount before they can be liquidated\n        uint buffer = users[userUnderwater].userDepositBalance * 5 / 100;\n        require(drawdown + buffer > users[userUnderwater].userDepositBalance, \"LIQ: Account not in drawdown\");\n        require(getUserShortBool(userUnderwater, shortID) == true, \"LIQ: Position not active\");\n\n        users[userUnderwater].liqData[shortID].wasLiquidated = true;\n        users[userUnderwater].liqData[shortID].liquidator = liquidator;\n\n        closeShortStandardPool(userUnderwater, shortID);\n    }\n\n    function getLiquidator(address user, uint shortID) public view returns(address liquidator) {\n        return users[user].liqData[shortID].liquidator;\n    }\n\n    function getTotalCollateral(address user) public view returns(uint totalCollateral) {\n        for (uint i = 0; i <= users[user].userShortID; i++) {\n            totalCollateral += users[user].userShortBalanceByID[i];\n        }\n        return (totalCollateral);\n    }\n\n    function checkRewards(address user) public view returns(uint profits) {\n        return profits = checkOwedProfits(user);\n    }\n\n    function getGlobalRewards() public view returns(uint globals) {\n        return globals = globalRewards;\n    }\n\n    function getUserShortBalance(address user, uint shortID) public view returns(uint bal) {\n        return bal = users[user].userShortBalanceByID[shortID];\n    }\n\n    function getUserEntryPrice(address user, uint shortID) public view returns(uint entry) {\n        return entry = users[user].entryPrice[shortID];\n    }\n\n    function getUserShortBool(address user, uint shortID) public view returns(bool isShort) {\n        return isShort = users[user].isPositionInShort[shortID];\n    }\n\n    function getTokenAndFeeShortedByUser(address user, uint shortID) public view returns(address token, uint24 fee) {\n        token = users[user].tokenShortedByPositionID[shortID];\n        fee = uint24(users[user].poolFeeByPositionID[shortID]);\n        return (token, fee);\n    }\n\n    //TODO\n    //contract already has the DAI needed to close the trade, can just check the price and\n    //calculate the difference between the opening and closing prices, no need for expensive swaps\n    //in the standardPool contract\n    function closeShortStandardPool(\n        address user,\n        uint userShortID)\n        public {\n            require(user == msg.sender, \"CLOSE: Not your position\");\n\n            //get price at pool for shortBal of positionID\n            (address token, uint24 fee) = getTokenAndFeeShortedByUser(user, userShortID);\n            uint priceAtClose = swapOracle.getSwapPrice(\n                    token,\n                    fee\n                );\n\n            beraWrapper.unwrapPosition(user, userShortID);\n\n            //calculate position balance using entryPrice - current price * tradeSize\n            //returnValue of 0 indicates a winning trade, while 1 indicates a loss\n            (uint amountPNL, uint returnValue) =\n            PnLCalculator.calculatePNL(users[msg.sender].entryPrice[userShortID],\n                priceAtClose,\n                int(users[user].userShortBalanceByID[userShortID]));\n\n            //if user has made money, we update their balance directly\n            //keeping in mind that dai is always stored in this contract and will only be transfered\n            //out on withdrawl\n            if (returnValue == 0) {\n                users[msg.sender].userDepositBalance += amountPNL;\n            } else if (returnValue == 1) {\n                users[msg.sender].userDepositBalance -= amountPNL;\n                //experimental liquidation logic //kinda dogshit ngl\n                if (users[user].liqData[userShortID].wasLiquidated == true) {\n                    uint newPNL = amountPNL * 50 / 100;\n                    uint toLiquidator = amountPNL - newPNL;\n                    address liquidator = getLiquidator(user, userShortID);\n                    users[liquidator].userDepositBalance += toLiquidator;\n                    globalRewards += newPNL;\n                } else {\n                    //distribute loss amongst users in pool\n                    globalRewards += amountPNL;\n                }\n            }\n\n            //update current userPositionNumber to free withdraws of these specific funds\n            //v0.5 does not support anything other than full position closing\n            users[msg.sender].isPositionInShort[userShortID] = false;\n            users[msg.sender].userShortBalanceByID[userShortID] = 0;\n        }\n\n    // amount here refers to how much of the token shorted is passed back into the swapRouter\n    function _shortForUser(\n        address user,\n        address tokenToShort,\n        uint priceAtWrap,\n        uint24 poolFee,\n        uint amount,\n        uint amountOutMin) internal returns(uint amountOut) {\n\n        TransferHelper.safeApprove(tokenToShort, address(swapRouter), amount);\n\n        //now that this contract has the desired token to short, we sell @ market back for DAI\n        ISwapRouter.ExactInputSingleParams memory tokenParams =\n        ISwapRouter.ExactInputSingleParams({\n            tokenIn: tokenToShort,\n            tokenOut: DAI_ADDRESS,\n            fee: poolFee,\n            recipient: address(this), //the pool contract will store both DAI from deposits and tokenOut\n            deadline: block.timestamp, //solhint-disable not-rely-on-time\n            amountIn: amount,\n            amountOutMinimum: amountOutMin,\n            sqrtPriceLimitX96: 0\n        });\n\n        // execute the short, amountOut is now back to dai\n        amountOut = swapRouter.exactInputSingle(tokenParams);\n\n        //wrap position in ERC1155\n        beraWrapper.wrapPosition(user, address(this), amount, tokenToShort, priceAtWrap);\n    }\n\n    //the percentage reward is based on the last time they claimed vs the total reward calculated\n    //this will allow us to avoid using a loop for reward distribution\n    //and allow users to pull their own rewards when they want\n    function checkOwedProfits(address user) internal view returns (uint) {\n        uint percentageReward = globalRewards - users[user].lastClaimedRewards;\n        return users[user].userDepositBalance * percentageReward / IERC20(DAI_ADDRESS).balanceOf(address(this));\n    }\n\n    function sendOwedProfits(address user) internal {\n        uint owed = checkOwedProfits(user);\n        if (owed > 0) {\n            users[user].userDepositBalance += owed;\n            users[user].lastClaimedRewards = globalRewards;\n        }\n    }\n\n    receive() external payable { //solhint-disable state-visibility\n\n}\n\n    fallback() external payable { //solhint-disable\n\n}\n\n}\n",
  "sourcePath": "/home/kevin/Code/solidity_projects/beraMarket/contracts/BeraPoolStandardRisk.sol",
  "compiler": {
    "name": "solc",
    "version": "0.8.11+commit.d7f03943.Emscripten.clang"
  },
  "schemaVersion": "3.4.3",
  "updatedAt": "2022-01-05T01:25:09.263Z",
  "devdoc": {
    "kind": "dev",
    "methods": {
      "supportsInterface(bytes4)": {
        "details": "See {IERC165-supportsInterface}."
      }
    },
    "version": 1
  },
  "userdoc": {
    "kind": "user",
    "methods": {},
    "version": 1
  }
}