{
  "contractName": "BeraPoolStandardRisk",
  "abi": [
    {
      "inputs": [
        {
          "internalType": "contract ISwapRouter",
          "name": "_swapRouter",
          "type": "address"
        },
        {
          "internalType": "contract BeraWrapper",
          "name": "_beraWrapper",
          "type": "address"
        },
        {
          "internalType": "contract TWAPOracle",
          "name": "_twapOracle",
          "type": "address"
        }
      ],
      "stateMutability": "nonpayable",
      "type": "constructor"
    },
    {
      "stateMutability": "payable",
      "type": "fallback"
    },
    {
      "inputs": [],
      "name": "beraWrapper",
      "outputs": [
        {
          "internalType": "contract BeraWrapper",
          "name": "",
          "type": "address"
        }
      ],
      "stateMutability": "view",
      "type": "function"
    },
    {
      "inputs": [],
      "name": "globalRewards",
      "outputs": [
        {
          "internalType": "uint256",
          "name": "",
          "type": "uint256"
        }
      ],
      "stateMutability": "view",
      "type": "function"
    },
    {
      "inputs": [
        {
          "internalType": "address",
          "name": "",
          "type": "address"
        },
        {
          "internalType": "address",
          "name": "",
          "type": "address"
        },
        {
          "internalType": "uint256[]",
          "name": "",
          "type": "uint256[]"
        },
        {
          "internalType": "uint256[]",
          "name": "",
          "type": "uint256[]"
        },
        {
          "internalType": "bytes",
          "name": "",
          "type": "bytes"
        }
      ],
      "name": "onERC1155BatchReceived",
      "outputs": [
        {
          "internalType": "bytes4",
          "name": "",
          "type": "bytes4"
        }
      ],
      "stateMutability": "nonpayable",
      "type": "function"
    },
    {
      "inputs": [
        {
          "internalType": "address",
          "name": "",
          "type": "address"
        },
        {
          "internalType": "address",
          "name": "",
          "type": "address"
        },
        {
          "internalType": "uint256",
          "name": "",
          "type": "uint256"
        },
        {
          "internalType": "uint256",
          "name": "",
          "type": "uint256"
        },
        {
          "internalType": "bytes",
          "name": "",
          "type": "bytes"
        }
      ],
      "name": "onERC1155Received",
      "outputs": [
        {
          "internalType": "bytes4",
          "name": "",
          "type": "bytes4"
        }
      ],
      "stateMutability": "nonpayable",
      "type": "function"
    },
    {
      "inputs": [],
      "name": "owner",
      "outputs": [
        {
          "internalType": "address",
          "name": "",
          "type": "address"
        }
      ],
      "stateMutability": "view",
      "type": "function"
    },
    {
      "inputs": [
        {
          "internalType": "bytes4",
          "name": "interfaceId",
          "type": "bytes4"
        }
      ],
      "name": "supportsInterface",
      "outputs": [
        {
          "internalType": "bool",
          "name": "",
          "type": "bool"
        }
      ],
      "stateMutability": "view",
      "type": "function"
    },
    {
      "inputs": [],
      "name": "swapRouter",
      "outputs": [
        {
          "internalType": "contract ISwapRouter",
          "name": "",
          "type": "address"
        }
      ],
      "stateMutability": "view",
      "type": "function"
    },
    {
      "inputs": [],
      "name": "twapOracle",
      "outputs": [
        {
          "internalType": "contract TWAPOracle",
          "name": "",
          "type": "address"
        }
      ],
      "stateMutability": "view",
      "type": "function"
    },
    {
      "inputs": [
        {
          "internalType": "address",
          "name": "",
          "type": "address"
        }
      ],
      "name": "users",
      "outputs": [
        {
          "internalType": "uint256",
          "name": "userDepositBalance",
          "type": "uint256"
        },
        {
          "internalType": "uint256",
          "name": "lastClaimedRewards",
          "type": "uint256"
        },
        {
          "internalType": "uint256",
          "name": "userShortID",
          "type": "uint256"
        }
      ],
      "stateMutability": "view",
      "type": "function"
    },
    {
      "stateMutability": "payable",
      "type": "receive"
    },
    {
      "inputs": [
        {
          "internalType": "uint256",
          "name": "amount",
          "type": "uint256"
        },
        {
          "internalType": "address",
          "name": "collateral",
          "type": "address"
        }
      ],
      "name": "depositCollateral",
      "outputs": [],
      "stateMutability": "nonpayable",
      "type": "function"
    },
    {
      "inputs": [
        {
          "internalType": "uint256",
          "name": "amount",
          "type": "uint256"
        },
        {
          "internalType": "uint256",
          "name": "userShortID",
          "type": "uint256"
        }
      ],
      "name": "withdrawFromPool",
      "outputs": [],
      "stateMutability": "nonpayable",
      "type": "function"
    },
    {
      "inputs": [],
      "name": "claimRewards",
      "outputs": [],
      "stateMutability": "nonpayable",
      "type": "function"
    },
    {
      "inputs": [
        {
          "internalType": "uint256",
          "name": "amount",
          "type": "uint256"
        },
        {
          "internalType": "address",
          "name": "tokenToShort",
          "type": "address"
        },
        {
          "internalType": "uint24",
          "name": "poolFee",
          "type": "uint24"
        },
        {
          "internalType": "uint256",
          "name": "amountOutMin",
          "type": "uint256"
        }
      ],
      "name": "swapAndShortStandard",
      "outputs": [
        {
          "internalType": "uint256",
          "name": "amountOut",
          "type": "uint256"
        }
      ],
      "stateMutability": "nonpayable",
      "type": "function"
    },
    {
      "inputs": [
        {
          "internalType": "address",
          "name": "userUnderwater",
          "type": "address"
        },
        {
          "internalType": "address",
          "name": "liquidator",
          "type": "address"
        },
        {
          "internalType": "uint256",
          "name": "shortID",
          "type": "uint256"
        }
      ],
      "name": "liquidateUser",
      "outputs": [],
      "stateMutability": "nonpayable",
      "type": "function"
    },
    {
      "inputs": [
        {
          "internalType": "address",
          "name": "user",
          "type": "address"
        },
        {
          "internalType": "uint256",
          "name": "shortID",
          "type": "uint256"
        }
      ],
      "name": "getLiquidator",
      "outputs": [
        {
          "internalType": "address",
          "name": "liquidator",
          "type": "address"
        }
      ],
      "stateMutability": "view",
      "type": "function"
    },
    {
      "inputs": [
        {
          "internalType": "address",
          "name": "user",
          "type": "address"
        }
      ],
      "name": "getTotalCollateral",
      "outputs": [
        {
          "internalType": "uint256",
          "name": "totalCollateral",
          "type": "uint256"
        }
      ],
      "stateMutability": "view",
      "type": "function"
    },
    {
      "inputs": [
        {
          "internalType": "address",
          "name": "user",
          "type": "address"
        }
      ],
      "name": "checkRewards",
      "outputs": [
        {
          "internalType": "uint256",
          "name": "profits",
          "type": "uint256"
        }
      ],
      "stateMutability": "view",
      "type": "function"
    },
    {
      "inputs": [],
      "name": "getGlobalRewards",
      "outputs": [
        {
          "internalType": "uint256",
          "name": "globals",
          "type": "uint256"
        }
      ],
      "stateMutability": "view",
      "type": "function"
    },
    {
      "inputs": [
        {
          "internalType": "address",
          "name": "user",
          "type": "address"
        },
        {
          "internalType": "uint256",
          "name": "shortID",
          "type": "uint256"
        }
      ],
      "name": "getUserShortBalance",
      "outputs": [
        {
          "internalType": "uint256",
          "name": "bal",
          "type": "uint256"
        }
      ],
      "stateMutability": "view",
      "type": "function"
    },
    {
      "inputs": [
        {
          "internalType": "address",
          "name": "user",
          "type": "address"
        },
        {
          "internalType": "uint256",
          "name": "shortID",
          "type": "uint256"
        }
      ],
      "name": "getUserEntryPrice",
      "outputs": [
        {
          "internalType": "uint256",
          "name": "entry",
          "type": "uint256"
        }
      ],
      "stateMutability": "view",
      "type": "function"
    },
    {
      "inputs": [
        {
          "internalType": "address",
          "name": "user",
          "type": "address"
        },
        {
          "internalType": "uint256",
          "name": "shortID",
          "type": "uint256"
        }
      ],
      "name": "getUserShortBool",
      "outputs": [
        {
          "internalType": "bool",
          "name": "isShort",
          "type": "bool"
        }
      ],
      "stateMutability": "view",
      "type": "function"
    },
    {
      "inputs": [
        {
          "internalType": "address",
          "name": "user",
          "type": "address"
        },
        {
          "internalType": "uint256",
          "name": "shortID",
          "type": "uint256"
        }
      ],
      "name": "getTokenAndFeeShortedByUser",
      "outputs": [
        {
          "internalType": "address",
          "name": "token",
          "type": "address"
        },
        {
          "internalType": "uint24",
          "name": "fee",
          "type": "uint24"
        }
      ],
      "stateMutability": "view",
      "type": "function"
    },
    {
      "inputs": [
        {
          "internalType": "address",
          "name": "user",
          "type": "address"
        },
        {
          "internalType": "uint256",
          "name": "userShortID",
          "type": "uint256"
        }
      ],
      "name": "closeShortStandardPool",
      "outputs": [],
      "stateMutability": "nonpayable",
      "type": "function"
    }
  ],
  "bytecode": "0x60a06040523480156200001157600080fd5b5060405162003bd738038062003bd783398181016040528101906200003791906200023e565b336000806101000a81548173ffffffffffffffffffffffffffffffffffffffff021916908373ffffffffffffffffffffffffffffffffffffffff1602179055508273ffffffffffffffffffffffffffffffffffffffff1660808173ffffffffffffffffffffffffffffffffffffffff168152505081600360006101000a81548173ffffffffffffffffffffffffffffffffffffffff021916908373ffffffffffffffffffffffffffffffffffffffff16021790555080600460006101000a81548173ffffffffffffffffffffffffffffffffffffffff021916908373ffffffffffffffffffffffffffffffffffffffff1602179055505050506200029a565b600080fd5b600073ffffffffffffffffffffffffffffffffffffffff82169050919050565b600062000168826200013b565b9050919050565b60006200017c826200015b565b9050919050565b6200018e816200016f565b81146200019a57600080fd5b50565b600081519050620001ae8162000183565b92915050565b6000620001c1826200015b565b9050919050565b620001d381620001b4565b8114620001df57600080fd5b50565b600081519050620001f381620001c8565b92915050565b600062000206826200015b565b9050919050565b6200021881620001f9565b81146200022457600080fd5b50565b60008151905062000238816200020d565b92915050565b6000806000606084860312156200025a576200025962000136565b5b60006200026a868287016200019d565b93505060206200027d86828701620001e2565b9250506040620002908682870162000227565b9150509250925092565b608051613905620002d26000396000818161168c0152818161176301528181611c240152818161242401526124fb01526139056000f3fe6080604052600436106101445760003560e01c80637423031e116100b6578063aac28b541161006f578063aac28b54146104a0578063bc197c81146104dd578063c31c9c071461051a578063db6623e114610545578063ef1b316614610583578063f23a6e61146105ac5761014b565b80637423031e1461038a57806380a0b0fc146103b55780638da5cb5b146103e05780639043292a1461040b578063a29aa11414610436578063a87430ba146104615761014b565b80630ea99f40116101085780630ea99f401461026a578063372500ab146102935780633762e995146102aa578063481fef8a146102e75780635e1691361461031057806360a98b801461034d5761014b565b806301ee16321461014d57806301ffc9a714610176578063028bdf7c146101b3578063046ff0d3146101f057806309d3e9c31461022d5761014b565b3661014b57005b005b34801561015957600080fd5b50610174600480360381019061016f91906126df565b6105e9565b005b34801561018257600080fd5b5061019d60048036038101906101989190612777565b610be4565b6040516101aa91906127bf565b60405180910390f35b3480156101bf57600080fd5b506101da60048036038101906101d591906126df565b610c5e565b6040516101e791906127bf565b60405180910390f35b3480156101fc57600080fd5b50610217600480360381019061021291906127da565b610cc9565b6040516102249190612816565b60405180910390f35b34801561023957600080fd5b50610254600480360381019061024f91906126df565b610cdb565b6040516102619190612816565b60405180910390f35b34801561027657600080fd5b50610291600480360381019061028c9190612831565b610d39565b005b34801561029f57600080fd5b506102a86110f7565b005b3480156102b657600080fd5b506102d160048036038101906102cc91906126df565b611102565b6040516102de9190612893565b60405180910390f35b3480156102f357600080fd5b5061030e600480360381019061030991906128ae565b611183565b005b34801561031c57600080fd5b50610337600480360381019061033291906126df565b6112e3565b6040516103449190612816565b60405180910390f35b34801561035957600080fd5b50610374600480360381019061036f91906127da565b611341565b6040516103819190612816565b60405180910390f35b34801561039657600080fd5b5061039f61140c565b6040516103ac9190612816565b60405180910390f35b3480156103c157600080fd5b506103ca611412565b6040516103d79190612816565b60405180910390f35b3480156103ec57600080fd5b506103f561141c565b6040516104029190612893565b60405180910390f35b34801561041757600080fd5b50610420611440565b60405161042d919061294d565b60405180910390f35b34801561044257600080fd5b5061044b611466565b6040516104589190612989565b60405180910390f35b34801561046d57600080fd5b50610488600480360381019061048391906127da565b61148c565b604051610497939291906129a4565b60405180910390f35b3480156104ac57600080fd5b506104c760048036038101906104c29190612a16565b6114b6565b6040516104d49190612816565b60405180910390f35b3480156104e957600080fd5b5061050460048036038101906104ff9190612c8b565b611c0d565b6040516105119190612d69565b60405180910390f35b34801561052657600080fd5b5061052f611c22565b60405161053c9190612da5565b60405180910390f35b34801561055157600080fd5b5061056c600480360381019061056791906126df565b611c46565b60405161057a929190612dcf565b60405180910390f35b34801561058f57600080fd5b506105aa60048036038101906105a59190612df8565b611d2b565b005b3480156105b857600080fd5b506105d360048036038101906105ce9190612e38565b611ef0565b6040516105e09190612d69565b60405180910390f35b3373ffffffffffffffffffffffffffffffffffffffff168273ffffffffffffffffffffffffffffffffffffffff1614610657576040517f08c379a000000000000000000000000000000000000000000000000000000000815260040161064e90612f2c565b60405180910390fd5b6000806106648484611c46565b915091506000600460009054906101000a900473ffffffffffffffffffffffffffffffffffffffff1673ffffffffffffffffffffffffffffffffffffffff16637c2d656b600460009054906101000a900473ffffffffffffffffffffffffffffffffffffffff1673ffffffffffffffffffffffffffffffffffffffff166358de350086866040518363ffffffff1660e01b8152600401610705929190612dcf565b602060405180830381865afa158015610722573d6000803e3d6000fd5b505050506040513d601f19601f820116820180604052508101906107469190612f61565b856040518363ffffffff1660e01b8152600401610764929190612f8e565b602060405180830381865afa158015610781573d6000803e3d6000fd5b505050506040513d601f19601f820116820180604052508101906107a59190612fcc565b9050600360009054906101000a900473ffffffffffffffffffffffffffffffffffffffff1673ffffffffffffffffffffffffffffffffffffffff1663b9e17b7686866040518363ffffffff1660e01b8152600401610804929190612ff9565b600060405180830381600087803b15801561081e57600080fd5b505af1158015610832573d6000803e3d6000fd5b5050505060008073__PnLCalculator_________________________63896b198a600160003373ffffffffffffffffffffffffffffffffffffffff1673ffffffffffffffffffffffffffffffffffffffff168152602001908152602001600020600301600089815260200190815260200160002054856040518363ffffffff1660e01b81526004016108c5929190613031565b6040805180830381865af41580156108e1573d6000803e3d6000fd5b505050506040513d601f19601f820116820180604052508101906109059190613093565b60ff169150915060008114156109735781600160003373ffffffffffffffffffffffffffffffffffffffff1673ffffffffffffffffffffffffffffffffffffffff16815260200190815260200160002060000160008282546109679190613102565b92505081905550610b16565b6001811415610b155781600160003373ffffffffffffffffffffffffffffffffffffffff1673ffffffffffffffffffffffffffffffffffffffff16815260200190815260200160002060000160008282546109ce9190613158565b9250508190555060011515600160008973ffffffffffffffffffffffffffffffffffffffff1673ffffffffffffffffffffffffffffffffffffffff168152602001908152602001600020600801600088815260200190815260200160002060000160009054906101000a900460ff1615151415610afa5760006064603284610a56919061318c565b610a609190613215565b905060008184610a709190613158565b90506000610a7e8a8a611102565b905081600160008373ffffffffffffffffffffffffffffffffffffffff1673ffffffffffffffffffffffffffffffffffffffff1681526020019081526020016000206000016000828254610ad29190613102565b925050819055508260026000828254610aeb9190613102565b92505081905550505050610b14565b8160026000828254610b0c9190613102565b925050819055505b5b5b6000600160003373ffffffffffffffffffffffffffffffffffffffff1673ffffffffffffffffffffffffffffffffffffffff168152602001908152602001600020600701600088815260200190815260200160002060006101000a81548160ff0219169083151502179055506000600160003373ffffffffffffffffffffffffffffffffffffffff1673ffffffffffffffffffffffffffffffffffffffff16815260200190815260200160002060040160008881526020019081526020016000208190555050505050505050565b60007f4e2312e0000000000000000000000000000000000000000000000000000000007bffffffffffffffffffffffffffffffffffffffffffffffffffffffff1916827bffffffffffffffffffffffffffffffffffffffffffffffffffffffff19161480610c575750610c5682611f05565b5b9050919050565b6000600160008473ffffffffffffffffffffffffffffffffffffffff1673ffffffffffffffffffffffffffffffffffffffff168152602001908152602001600020600701600083815260200190815260200160002060009054906101000a900460ff16905092915050565b6000610cd482611f6f565b9050919050565b6000600160008473ffffffffffffffffffffffffffffffffffffffff1673ffffffffffffffffffffffffffffffffffffffff168152602001908152602001600020600401600083815260200190815260200160002054905092915050565b600080610d468584611c46565b915091506000600460009054906101000a900473ffffffffffffffffffffffffffffffffffffffff1673ffffffffffffffffffffffffffffffffffffffff16637c2d656b600460009054906101000a900473ffffffffffffffffffffffffffffffffffffffff1673ffffffffffffffffffffffffffffffffffffffff166358de350086866040518363ffffffff1660e01b8152600401610de7929190612dcf565b602060405180830381865afa158015610e04573d6000803e3d6000fd5b505050506040513d601f19601f82011682018060405250810190610e289190612f61565b856040518363ffffffff1660e01b8152600401610e46929190612f8e565b602060405180830381865afa158015610e63573d6000803e3d6000fd5b505050506040513d601f19601f82011682018060405250810190610e879190612fcc565b9050600081610e9688876112e3565b610ea09190613158565b9050600060646005600160008b73ffffffffffffffffffffffffffffffffffffffff1673ffffffffffffffffffffffffffffffffffffffff16815260200190815260200160002060000154610ef5919061318c565b610eff9190613215565b9050600160008973ffffffffffffffffffffffffffffffffffffffff1673ffffffffffffffffffffffffffffffffffffffff168152602001908152602001600020600001548183610f509190613102565b11610f90576040517f08c379a0000000000000000000000000000000000000000000000000000000008152600401610f8790613292565b60405180910390fd5b60011515610f9e8988610c5e565b151514610fe0576040517f08c379a0000000000000000000000000000000000000000000000000000000008152600401610fd7906132fe565b60405180910390fd5b60018060008a73ffffffffffffffffffffffffffffffffffffffff1673ffffffffffffffffffffffffffffffffffffffff168152602001908152602001600020600801600088815260200190815260200160002060000160006101000a81548160ff02191690831515021790555086600160008a73ffffffffffffffffffffffffffffffffffffffff1673ffffffffffffffffffffffffffffffffffffffff168152602001908152602001600020600801600088815260200190815260200160002060000160016101000a81548173ffffffffffffffffffffffffffffffffffffffff021916908373ffffffffffffffffffffffffffffffffffffffff1602179055506110ed88876105e9565b5050505050505050565b611100336120b2565b565b6000600160008473ffffffffffffffffffffffffffffffffffffffff1673ffffffffffffffffffffffffffffffffffffffff168152602001908152602001600020600801600083815260200190815260200160002060000160019054906101000a900473ffffffffffffffffffffffffffffffffffffffff16905092915050565b736b175474e89094c44da98b954eedeac495271d0f73ffffffffffffffffffffffffffffffffffffffff168173ffffffffffffffffffffffffffffffffffffffff1614611205576040517f08c379a00000000000000000000000000000000000000000000000000000000081526004016111fc9061336a565b60405180910390fd5b81600160003373ffffffffffffffffffffffffffffffffffffffff1673ffffffffffffffffffffffffffffffffffffffff16815260200190815260200160002060000160008282546112579190613102565b925050819055508073ffffffffffffffffffffffffffffffffffffffff166323b872dd3330856040518463ffffffff1660e01b815260040161129b9392919061338a565b6020604051808303816000875af11580156112ba573d6000803e3d6000fd5b505050506040513d601f19601f820116820180604052508101906112de91906133ed565b505050565b6000600160008473ffffffffffffffffffffffffffffffffffffffff1673ffffffffffffffffffffffffffffffffffffffff168152602001908152602001600020600301600083815260200190815260200160002054905092915050565b600080600090505b600160008473ffffffffffffffffffffffffffffffffffffffff1673ffffffffffffffffffffffffffffffffffffffff16815260200190815260200160002060020154811161140657600160008473ffffffffffffffffffffffffffffffffffffffff1673ffffffffffffffffffffffffffffffffffffffff168152602001908152602001600020600401600082815260200190815260200160002054826113f19190613102565b915080806113fe9061341a565b915050611349565b50919050565b60025481565b6000600254905090565b60008054906101000a900473ffffffffffffffffffffffffffffffffffffffff1681565b600460009054906101000a900473ffffffffffffffffffffffffffffffffffffffff1681565b600360009054906101000a900473ffffffffffffffffffffffffffffffffffffffff1681565b60016020528060005260406000206000915090508060000154908060010154908060020154905083565b6000600160003373ffffffffffffffffffffffffffffffffffffffff1673ffffffffffffffffffffffffffffffffffffffff1681526020019081526020016000206000015485111561153d576040517f08c379a0000000000000000000000000000000000000000000000000000000008152600401611534906134af565b60405180910390fd5b60018060003373ffffffffffffffffffffffffffffffffffffffff1673ffffffffffffffffffffffffffffffffffffffff168152602001908152602001600020600201600082825461158f9190613102565b9250508190555060006115a133611341565b111561163557600160003373ffffffffffffffffffffffffffffffffffffffff1673ffffffffffffffffffffffffffffffffffffffff168152602001908152602001600020600001546115f333611341565b1115611634576040517f08c379a000000000000000000000000000000000000000000000000000000000815260040161162b906134af565b60405180910390fd5b5b60006064605f87611646919061318c565b6116509190613215565b9050611672736b175474e89094c44da98b954eedeac495271d0f33308961216f565b6116b1736b175474e89094c44da98b954eedeac495271d0f7f0000000000000000000000000000000000000000000000000000000000000000886122c7565b6000604051806101000160405280736b175474e89094c44da98b954eedeac495271d0f73ffffffffffffffffffffffffffffffffffffffff1681526020018773ffffffffffffffffffffffffffffffffffffffff1681526020018662ffffff1681526020013073ffffffffffffffffffffffffffffffffffffffff168152602001428152602001838152602001858152602001600073ffffffffffffffffffffffffffffffffffffffff1681525090507f000000000000000000000000000000000000000000000000000000000000000073ffffffffffffffffffffffffffffffffffffffff1663414bf389826040518263ffffffff1660e01b81526004016117ba91906135ad565b6020604051808303816000875af11580156117d9573d6000803e3d6000fd5b505050506040513d601f19601f820116820180604052508101906117fd9190612fcc565b92506000600460009054906101000a900473ffffffffffffffffffffffffffffffffffffffff1673ffffffffffffffffffffffffffffffffffffffff16637c2d656b600460009054906101000a900473ffffffffffffffffffffffffffffffffffffffff1673ffffffffffffffffffffffffffffffffffffffff166358de35008a8a6040518363ffffffff1660e01b815260040161189c929190612dcf565b602060405180830381865afa1580156118b9573d6000803e3d6000fd5b505050506040513d601f19601f820116820180604052508101906118dd9190612f61565b896040518363ffffffff1660e01b81526004016118fb929190612f8e565b602060405180830381865afa158015611918573d6000803e3d6000fd5b505050506040513d601f19601f8201168201806040525081019061193c9190612fcc565b905061194c33888389888a61241c565b5080600160003373ffffffffffffffffffffffffffffffffffffffff1673ffffffffffffffffffffffffffffffffffffffff1681526020019081526020016000206003016000600160003373ffffffffffffffffffffffffffffffffffffffff1673ffffffffffffffffffffffffffffffffffffffff1681526020019081526020016000206002015481526020019081526020016000208190555083600160003373ffffffffffffffffffffffffffffffffffffffff1673ffffffffffffffffffffffffffffffffffffffff1681526020019081526020016000206004016000600160003373ffffffffffffffffffffffffffffffffffffffff1673ffffffffffffffffffffffffffffffffffffffff1681526020019081526020016000206002015481526020019081526020016000208190555060018060003373ffffffffffffffffffffffffffffffffffffffff1673ffffffffffffffffffffffffffffffffffffffff1681526020019081526020016000206007016000600160003373ffffffffffffffffffffffffffffffffffffffff1673ffffffffffffffffffffffffffffffffffffffff16815260200190815260200160002060020154815260200190815260200160002060006101000a81548160ff02191690831515021790555086600160003373ffffffffffffffffffffffffffffffffffffffff1673ffffffffffffffffffffffffffffffffffffffff1681526020019081526020016000206005016000600160003373ffffffffffffffffffffffffffffffffffffffff1673ffffffffffffffffffffffffffffffffffffffff16815260200190815260200160002060020154815260200190815260200160002060006101000a81548173ffffffffffffffffffffffffffffffffffffffff021916908373ffffffffffffffffffffffffffffffffffffffff160217905550505050949350505050565b600063bc197c8160e01b905095945050505050565b7f000000000000000000000000000000000000000000000000000000000000000081565b600080600160008573ffffffffffffffffffffffffffffffffffffffff1673ffffffffffffffffffffffffffffffffffffffff168152602001908152602001600020600501600084815260200190815260200160002060009054906101000a900473ffffffffffffffffffffffffffffffffffffffff169150600160008573ffffffffffffffffffffffffffffffffffffffff1673ffffffffffffffffffffffffffffffffffffffff168152602001908152602001600020600601600084815260200190815260200160002060009054906101000a900462ffffff1690509250929050565b600160003373ffffffffffffffffffffffffffffffffffffffff1673ffffffffffffffffffffffffffffffffffffffff16815260200190815260200160002060000154821115611db0576040517f08c379a0000000000000000000000000000000000000000000000000000000008152600401611da79061363b565b60405180910390fd5b60001515611dbe3383610c5e565b151514611e00576040517f08c379a0000000000000000000000000000000000000000000000000000000008152600401611df7906136f3565b60405180910390fd5b81600160003373ffffffffffffffffffffffffffffffffffffffff1673ffffffffffffffffffffffffffffffffffffffff1681526020019081526020016000206000016000828254611e529190613158565b92505081905550736b175474e89094c44da98b954eedeac495271d0f73ffffffffffffffffffffffffffffffffffffffff1663a9059cbb33846040518363ffffffff1660e01b8152600401611ea8929190612ff9565b6020604051808303816000875af1158015611ec7573d6000803e3d6000fd5b505050506040513d601f19601f82011682018060405250810190611eeb91906133ed565b505050565b600063f23a6e6160e01b905095945050505050565b60007f01ffc9a7000000000000000000000000000000000000000000000000000000007bffffffffffffffffffffffffffffffffffffffffffffffffffffffff1916827bffffffffffffffffffffffffffffffffffffffffffffffffffffffff1916149050919050565b600080600160008473ffffffffffffffffffffffffffffffffffffffff1673ffffffffffffffffffffffffffffffffffffffff16815260200190815260200160002060010154600254611fc29190613158565b9050736b175474e89094c44da98b954eedeac495271d0f73ffffffffffffffffffffffffffffffffffffffff166370a08231306040518263ffffffff1660e01b81526004016120119190612893565b602060405180830381865afa15801561202e573d6000803e3d6000fd5b505050506040513d601f19601f820116820180604052508101906120529190612fcc565b81600160008673ffffffffffffffffffffffffffffffffffffffff1673ffffffffffffffffffffffffffffffffffffffff168152602001908152602001600020600001546120a0919061318c565b6120aa9190613215565b915050919050565b60006120bd82611f6f565b9050600081111561216b5780600160008473ffffffffffffffffffffffffffffffffffffffff1673ffffffffffffffffffffffffffffffffffffffff168152602001908152602001600020600001600082825461211a9190613102565b92505081905550600254600160008473ffffffffffffffffffffffffffffffffffffffff1673ffffffffffffffffffffffffffffffffffffffff168152602001908152602001600020600101819055505b5050565b6000808573ffffffffffffffffffffffffffffffffffffffff166323b872dd60e01b8686866040516024016121a69392919061338a565b604051602081830303815290604052907bffffffffffffffffffffffffffffffffffffffffffffffffffffffff19166020820180517bffffffffffffffffffffffffffffffffffffffffffffffffffffffff8381831617835250505050604051612210919061378d565b6000604051808303816000865af19150503d806000811461224d576040519150601f19603f3d011682016040523d82523d6000602084013e612252565b606091505b5091509150818015612280575060008151148061227f57508080602001905181019061227e91906133ed565b5b5b6122bf576040517f08c379a00000000000000000000000000000000000000000000000000000000081526004016122b6906137f0565b60405180910390fd5b505050505050565b6000808473ffffffffffffffffffffffffffffffffffffffff1663095ea7b360e01b85856040516024016122fc929190612ff9565b604051602081830303815290604052907bffffffffffffffffffffffffffffffffffffffffffffffffffffffff19166020820180517bffffffffffffffffffffffffffffffffffffffffffffffffffffffff8381831617835250505050604051612366919061378d565b6000604051808303816000865af19150503d80600081146123a3576040519150601f19603f3d011682016040523d82523d6000602084013e6123a8565b606091505b50915091508180156123d657506000815114806123d55750808060200190518101906123d491906133ed565b5b5b612415576040517f08c379a000000000000000000000000000000000000000000000000000000000815260040161240c9061385c565b60405180910390fd5b5050505050565b6000612449867f0000000000000000000000000000000000000000000000000000000000000000856122c7565b60006040518061010001604052808873ffffffffffffffffffffffffffffffffffffffff168152602001736b175474e89094c44da98b954eedeac495271d0f73ffffffffffffffffffffffffffffffffffffffff1681526020018662ffffff1681526020013073ffffffffffffffffffffffffffffffffffffffff168152602001428152602001858152602001848152602001600073ffffffffffffffffffffffffffffffffffffffff1681525090507f000000000000000000000000000000000000000000000000000000000000000073ffffffffffffffffffffffffffffffffffffffff1663414bf389826040518263ffffffff1660e01b815260040161255291906135ad565b6020604051808303816000875af1158015612571573d6000803e3d6000fd5b505050506040513d601f19601f820116820180604052508101906125959190612fcc565b9150600360009054906101000a900473ffffffffffffffffffffffffffffffffffffffff1673ffffffffffffffffffffffffffffffffffffffff1663c25df92d8930878b8b6040518663ffffffff1660e01b81526004016125fa95949392919061387c565b600060405180830381600087803b15801561261457600080fd5b505af1158015612628573d6000803e3d6000fd5b50505050509695505050505050565b6000604051905090565b600080fd5b600080fd5b600073ffffffffffffffffffffffffffffffffffffffff82169050919050565b60006126768261264b565b9050919050565b6126868161266b565b811461269157600080fd5b50565b6000813590506126a38161267d565b92915050565b6000819050919050565b6126bc816126a9565b81146126c757600080fd5b50565b6000813590506126d9816126b3565b92915050565b600080604083850312156126f6576126f5612641565b5b600061270485828601612694565b9250506020612715858286016126ca565b9150509250929050565b60007fffffffff0000000000000000000000000000000000000000000000000000000082169050919050565b6127548161271f565b811461275f57600080fd5b50565b6000813590506127718161274b565b92915050565b60006020828403121561278d5761278c612641565b5b600061279b84828501612762565b91505092915050565b60008115159050919050565b6127b9816127a4565b82525050565b60006020820190506127d460008301846127b0565b92915050565b6000602082840312156127f0576127ef612641565b5b60006127fe84828501612694565b91505092915050565b612810816126a9565b82525050565b600060208201905061282b6000830184612807565b92915050565b60008060006060848603121561284a57612849612641565b5b600061285886828701612694565b935050602061286986828701612694565b925050604061287a868287016126ca565b9150509250925092565b61288d8161266b565b82525050565b60006020820190506128a86000830184612884565b92915050565b600080604083850312156128c5576128c4612641565b5b60006128d3858286016126ca565b92505060206128e485828601612694565b9150509250929050565b6000819050919050565b600061291361290e6129098461264b565b6128ee565b61264b565b9050919050565b6000612925826128f8565b9050919050565b60006129378261291a565b9050919050565b6129478161292c565b82525050565b6000602082019050612962600083018461293e565b92915050565b60006129738261291a565b9050919050565b61298381612968565b82525050565b600060208201905061299e600083018461297a565b92915050565b60006060820190506129b96000830186612807565b6129c66020830185612807565b6129d36040830184612807565b949350505050565b600062ffffff82169050919050565b6129f3816129db565b81146129fe57600080fd5b50565b600081359050612a10816129ea565b92915050565b60008060008060808587031215612a3057612a2f612641565b5b6000612a3e878288016126ca565b9450506020612a4f87828801612694565b9350506040612a6087828801612a01565b9250506060612a71878288016126ca565b91505092959194509250565b600080fd5b6000601f19601f8301169050919050565b7f4e487b7100000000000000000000000000000000000000000000000000000000600052604160045260246000fd5b612acb82612a82565b810181811067ffffffffffffffff82111715612aea57612ae9612a93565b5b80604052505050565b6000612afd612637565b9050612b098282612ac2565b919050565b600067ffffffffffffffff821115612b2957612b28612a93565b5b602082029050602081019050919050565b600080fd5b6000612b52612b4d84612b0e565b612af3565b90508083825260208201905060208402830185811115612b7557612b74612b3a565b5b835b81811015612b9e5780612b8a88826126ca565b845260208401935050602081019050612b77565b5050509392505050565b600082601f830112612bbd57612bbc612a7d565b5b8135612bcd848260208601612b3f565b91505092915050565b600080fd5b600067ffffffffffffffff821115612bf657612bf5612a93565b5b612bff82612a82565b9050602081019050919050565b82818337600083830152505050565b6000612c2e612c2984612bdb565b612af3565b905082815260208101848484011115612c4a57612c49612bd6565b5b612c55848285612c0c565b509392505050565b600082601f830112612c7257612c71612a7d565b5b8135612c82848260208601612c1b565b91505092915050565b600080600080600060a08688031215612ca757612ca6612641565b5b6000612cb588828901612694565b9550506020612cc688828901612694565b945050604086013567ffffffffffffffff811115612ce757612ce6612646565b5b612cf388828901612ba8565b935050606086013567ffffffffffffffff811115612d1457612d13612646565b5b612d2088828901612ba8565b925050608086013567ffffffffffffffff811115612d4157612d40612646565b5b612d4d88828901612c5d565b9150509295509295909350565b612d638161271f565b82525050565b6000602082019050612d7e6000830184612d5a565b92915050565b6000612d8f8261291a565b9050919050565b612d9f81612d84565b82525050565b6000602082019050612dba6000830184612d96565b92915050565b612dc9816129db565b82525050565b6000604082019050612de46000830185612884565b612df16020830184612dc0565b9392505050565b60008060408385031215612e0f57612e0e612641565b5b6000612e1d858286016126ca565b9250506020612e2e858286016126ca565b9150509250929050565b600080600080600060a08688031215612e5457612e53612641565b5b6000612e6288828901612694565b9550506020612e7388828901612694565b9450506040612e84888289016126ca565b9350506060612e95888289016126ca565b925050608086013567ffffffffffffffff811115612eb657612eb5612646565b5b612ec288828901612c5d565b9150509295509295909350565b600082825260208201905092915050565b7f434c4f53453a204e6f7420796f757220706f736974696f6e0000000000000000600082015250565b6000612f16601883612ecf565b9150612f2182612ee0565b602082019050919050565b60006020820190508181036000830152612f4581612f09565b9050919050565b600081519050612f5b8161267d565b92915050565b600060208284031215612f7757612f76612641565b5b6000612f8584828501612f4c565b91505092915050565b6000604082019050612fa36000830185612884565b612fb06020830184612884565b9392505050565b600081519050612fc6816126b3565b92915050565b600060208284031215612fe257612fe1612641565b5b6000612ff084828501612fb7565b91505092915050565b600060408201905061300e6000830185612884565b61301b6020830184612807565b9392505050565b61302b816126a9565b82525050565b60006040820190506130466000830185613022565b6130536020830184613022565b9392505050565b600060ff82169050919050565b6130708161305a565b811461307b57600080fd5b50565b60008151905061308d81613067565b92915050565b600080604083850312156130aa576130a9612641565b5b60006130b885828601612fb7565b92505060206130c98582860161307e565b9150509250929050565b7f4e487b7100000000000000000000000000000000000000000000000000000000600052601160045260246000fd5b600061310d826126a9565b9150613118836126a9565b9250827fffffffffffffffffffffffffffffffffffffffffffffffffffffffffffffffff0382111561314d5761314c6130d3565b5b828201905092915050565b6000613163826126a9565b915061316e836126a9565b925082821015613181576131806130d3565b5b828203905092915050565b6000613197826126a9565b91506131a2836126a9565b9250817fffffffffffffffffffffffffffffffffffffffffffffffffffffffffffffffff04831182151516156131db576131da6130d3565b5b828202905092915050565b7f4e487b7100000000000000000000000000000000000000000000000000000000600052601260045260246000fd5b6000613220826126a9565b915061322b836126a9565b92508261323b5761323a6131e6565b5b828204905092915050565b7f4c49513a204163636f756e74206e6f7420696e2064726177646f776e00000000600082015250565b600061327c601c83612ecf565b915061328782613246565b602082019050919050565b600060208201905081810360008301526132ab8161326f565b9050919050565b7f4c49513a20506f736974696f6e206e6f74206163746976650000000000000000600082015250565b60006132e8601883612ecf565b91506132f3826132b2565b602082019050919050565b60006020820190508181036000830152613317816132db565b9050919050565b7f5354414e4441524420504f4f4c3a204e6f742044414900000000000000000000600082015250565b6000613354601683612ecf565b915061335f8261331e565b602082019050919050565b6000602082019050818103600083015261338381613347565b9050919050565b600060608201905061339f6000830186612884565b6133ac6020830185612884565b6133b96040830184612807565b949350505050565b6133ca816127a4565b81146133d557600080fd5b50565b6000815190506133e7816133c1565b92915050565b60006020828403121561340357613402612641565b5b6000613411848285016133d8565b91505092915050565b6000613425826126a9565b91507fffffffffffffffffffffffffffffffffffffffffffffffffffffffffffffffff821415613458576134576130d3565b5b600182019050919050565b7f535741503a206e6f7420656e6f75676820636f6c6c61746572616c0000000000600082015250565b6000613499601b83612ecf565b91506134a482613463565b602082019050919050565b600060208201905081810360008301526134c88161348c565b9050919050565b6134d88161266b565b82525050565b6134e7816129db565b82525050565b6134f6816126a9565b82525050565b6135058161264b565b82525050565b6101008201600082015161352260008501826134cf565b50602082015161353560208501826134cf565b50604082015161354860408501826134de565b50606082015161355b60608501826134cf565b50608082015161356e60808501826134ed565b5060a082015161358160a08501826134ed565b5060c082015161359460c08501826134ed565b5060e08201516135a760e08501826134fc565b50505050565b6000610100820190506135c3600083018461350b565b92915050565b7f434f4c4c41544552414c3a20747279696e6720746f207769746864726177206d60008201527f6f726520636f6c6c61746572616c207468616e206465706f7369746564000000602082015250565b6000613625603d83612ecf565b9150613630826135c9565b604082019050919050565b6000602082019050818103600083015261365481613618565b9050919050565b7f434f4c4c41544552414c3a20636c6f736520796f75722063757272656e74207060008201527f6f736974696f6e206265666f726520747279696e6720746f207769746864726160208201527f7700000000000000000000000000000000000000000000000000000000000000604082015250565b60006136dd604183612ecf565b91506136e88261365b565b606082019050919050565b6000602082019050818103600083015261370c816136d0565b9050919050565b600081519050919050565b600081905092915050565b60005b8381101561374757808201518184015260208101905061372c565b83811115613756576000848401525b50505050565b600061376782613713565b613771818561371e565b9350613781818560208601613729565b80840191505092915050565b6000613799828461375c565b915081905092915050565b7f5354460000000000000000000000000000000000000000000000000000000000600082015250565b60006137da600383612ecf565b91506137e5826137a4565b602082019050919050565b60006020820190508181036000830152613809816137cd565b9050919050565b7f5341000000000000000000000000000000000000000000000000000000000000600082015250565b6000613846600283612ecf565b915061385182613810565b602082019050919050565b6000602082019050818103600083015261387581613839565b9050919050565b600060a0820190506138916000830188612884565b61389e6020830187612884565b6138ab6040830186612807565b6138b86060830185612884565b6138c56080830184612807565b969550505050505056fea26469706673582212203e0604afe412b6972990867177a03a832fbf08c8f9f023506000d01a2d072efc64736f6c634300080b0033",
  "immutableReferences": {
    "3461": [
      {
        "length": 32,
        "start": 5772
      },
      {
        "length": 32,
        "start": 5987
      },
      {
        "length": 32,
        "start": 7204
      },
      {
        "length": 32,
        "start": 9252
      },
      {
        "length": 32,
        "start": 9467
      }
    ]
  },
  "source": "// SPDX-License-Identifier: MIT\npragma solidity ^0.8.0; //solhint-disable compiler-fixed\npragma abicoder v2;\n\n\nimport \"@openzeppelin/contracts/token/ERC1155/IERC1155.sol\";\nimport \"@openzeppelin/contracts/token/ERC1155/utils/ERC1155Holder.sol\";\nimport \"@uniswap/v3-periphery/contracts/interfaces/ISwapRouter.sol\";\nimport \"@uniswap/v3-periphery/contracts/libraries/TransferHelper.sol\";\nimport \"@openzeppelin/contracts/token/ERC20/IERC20.sol\";\nimport \"@uniswap/v3-core/contracts/interfaces/IUniswapV3Pool.sol\";\nimport \"./BeraWrapper.sol\";\nimport \"./ancillary/PnLCalculator.sol\";\nimport \"./ancillary/TWAPoracle.sol\";\n\n\ncontract BeraPoolStandardRisk is ERC1155Holder {\n\n    address public owner;\n\n    mapping(address => Account) public users;\n\n    struct Liquidation {\n        bool wasLiquidated;\n        address liquidator;\n    }\n\n    struct Account {\n        uint userDepositBalance;\n        uint lastClaimedRewards;\n        uint userShortID;\n        mapping(uint => uint) entryPrice;\n        mapping(uint => uint) userShortBalanceByID;\n        mapping(uint => address) tokenShortedByPositionID;\n        mapping(uint => uint24) poolFeeByPositionID;\n        mapping(uint => bool) isPositionInShort;\n        mapping(uint => Liquidation) liqData;\n    }\n\n    uint public globalRewards;\n\n    address private constant DAI_ADDRESS = 0x6B175474E89094C44Da98b954EedeAC495271d0F;\n\n    ISwapRouter public immutable swapRouter;\n    BeraWrapper public beraWrapper;\n    TWAPOracle public twapOracle;\n\n    constructor(ISwapRouter _swapRouter,\n        BeraWrapper _beraWrapper,\n        TWAPOracle _twapOracle) { //solhint-disable func-visibility\n        owner = msg.sender;\n        swapRouter = _swapRouter;\n        beraWrapper = _beraWrapper;\n        twapOracle = _twapOracle;\n    }\n\n    function depositCollateral(uint amount, address collateral) external {\n        require(IERC20(collateral) == IERC20(DAI_ADDRESS), \"STANDARD POOL: Not DAI\");\n\n        //used for withdrawl later\n        users[msg.sender].userDepositBalance += amount;\n\n        //transfer DAI to this contract\n        IERC20(collateral).transferFrom(msg.sender, address(this), amount);\n    }\n\n    function withdrawFromPool(uint amount, uint userShortID) external {\n        require(amount <= users[msg.sender].userDepositBalance,\n            \"COLLATERAL: trying to withdraw more collateral than deposited\");\n\n        //checking if the funds locked in the position have been released before allowing them to be withdrawn\n        require(getUserShortBool(msg.sender, userShortID) == false,\n            \"COLLATERAL: close your current position before trying to withdraw\");\n\n        //reset balance of user on withdraw\n        users[msg.sender].userDepositBalance -= amount;\n\n        IERC20(DAI_ADDRESS).transfer(msg.sender, amount);\n    }\n\n    //used to claim the profit rewards from collecting trader losses\n    function claimRewards() external {\n        sendOwedProfits(msg.sender);\n    }\n\n    // deposit collateral into user account before being allowed to short\n    // amount refers to how much dai to swap for amountOut of the token the user\n    // wants to short\n    //\n    // will likely have to split the logic for the function up, he's getting pretty chonky\n    function swapAndShortStandard(\n            uint amount,\n            address tokenToShort,\n            uint24 poolFee, //needed for uniswap pool\n            uint amountOutMin)\n            external returns(uint amountOut) { //solhint-disable function-max-lines\n                require(amount <= users[msg.sender].userDepositBalance, \"SWAP: not enough collateral\");\n\n                //by default uints are initialized at 0 so this should work???\n                users[msg.sender].userShortID += 1;\n\n                //get total amount of collateral in shorts if user has opened a position before\n                if (getTotalCollateral(msg.sender) > 0) {\n                    require(getTotalCollateral(msg.sender) <= users[msg.sender].userDepositBalance,\n                        \"SWAP: not enough collateral\");\n                }\n\n                //5% is kept as fee to protocol to assist in paying out users\n                uint amountToSend = amount * 95 / 100;\n\n                TransferHelper.safeTransferFrom(DAI_ADDRESS, msg.sender, address(this), amount);\n                TransferHelper.safeApprove(DAI_ADDRESS, address(swapRouter), amount);\n\n                ISwapRouter.ExactInputSingleParams memory params =\n                ISwapRouter.ExactInputSingleParams({\n                    tokenIn: DAI_ADDRESS,\n                    tokenOut: tokenToShort,\n                    fee: poolFee,\n                    recipient: address(this),\n                    deadline: block.timestamp, //solhint-disable not-rely-on-time\n                    amountIn: amountToSend,\n                    amountOutMinimum: amountOutMin,\n                    sqrtPriceLimitX96: 0\n                });\n\n                //execute the frist swap\n                amountOut = swapRouter.exactInputSingle(params);\n\n                //Call twapPriceOracle here or find a better way to capture price\n                //TODO: Price wrapping\n                //TEST ONLY\n                uint priceAtWrap =\n                    twapOracle.latestPrice(\n                        twapOracle.getPoolForTWAP(tokenToShort, poolFee),\n                        tokenToShort\n                    );\n\n                //execute the second swap and transfer funds to pool for holding\n                //this is the swap that creates the actual 'short' position for the user on-chain\n                _shortForUser(\n                    msg.sender,\n                    tokenToShort,\n                    priceAtWrap,\n                    poolFee,\n                    amountOut,\n                    amountOutMin\n                );\n\n                //TODO REFACTOR: can update user data in one internal function // maybe //\n\n                //update entry price mapping\n                //this stores the entry price of msg.sender for this specific shortID of the sender\n                //nested mappings look cringe but are efficient\n                users[msg.sender].entryPrice[users[msg.sender].userShortID] = priceAtWrap;\n\n                //update user balance of the user current positionID\n                //this is used to keep track of how much of the users deposit is currently being used\n                users[msg.sender].userShortBalanceByID[users[msg.sender].userShortID] = amountOut;\n\n                //update userPositionNumber current short status\n                // inShort[msg.sender][userShortID[msg.sender]] = true;\n                users[msg.sender].isPositionInShort[users[msg.sender].userShortID] = true;\n\n                users[msg.sender].tokenShortedByPositionID[users[msg.sender].userShortID]\n                    = tokenToShort;\n            }\n\n    // if you are reading this comment, this is a way for you to make some money\n    // and keep the protocol alive and kicking\n    // keep in mind that you need to have deposited collateral to receive rewards\n    function liquidateUser(address userUnderwater, address liquidator, uint shortID) external {\n        //get entry price by shortID and subtract by current price\n        (address token, uint24 fee) = getTokenAndFeeShortedByUser(userUnderwater, shortID);\n        uint currentPrice = twapOracle.latestPrice(\n                twapOracle.getPoolForTWAP(token, fee),\n                token\n            );\n        uint drawdown = getUserEntryPrice(userUnderwater, shortID) - currentPrice;\n        //give the users a 5% buffer on their deposit amount before they can be liquidated\n        uint buffer = users[userUnderwater].userDepositBalance * 5 / 100;\n        require(drawdown + buffer > users[userUnderwater].userDepositBalance, \"LIQ: Account not in drawdown\");\n        require(getUserShortBool(userUnderwater, shortID) == true, \"LIQ: Position not active\");\n\n        users[userUnderwater].liqData[shortID].wasLiquidated = true;\n        users[userUnderwater].liqData[shortID].liquidator = liquidator;\n\n        closeShortStandardPool(userUnderwater, shortID);\n    }\n\n    function getLiquidator(address user, uint shortID) public view returns(address liquidator) {\n        return users[user].liqData[shortID].liquidator;\n    }\n\n    function getTotalCollateral(address user) public view returns(uint totalCollateral) {\n        for (uint i = 0; i <= users[user].userShortID; i++) {\n            totalCollateral += users[user].userShortBalanceByID[i];\n        }\n        return (totalCollateral);\n    }\n\n    function checkRewards(address user) public view returns(uint profits) {\n        return profits = checkOwedProfits(user);\n    }\n\n    function getGlobalRewards() public view returns(uint globals) {\n        return globals = globalRewards;\n    }\n\n    function getUserShortBalance(address user, uint shortID) public view returns(uint bal) {\n        return bal = users[user].userShortBalanceByID[shortID];\n    }\n\n    function getUserEntryPrice(address user, uint shortID) public view returns(uint entry) {\n        return entry = users[user].entryPrice[shortID];\n    }\n\n    function getUserShortBool(address user, uint shortID) public view returns(bool isShort) {\n        return isShort = users[user].isPositionInShort[shortID];\n    }\n\n    function getTokenAndFeeShortedByUser(address user, uint shortID) public view returns(address token, uint24 fee) {\n        token = users[user].tokenShortedByPositionID[shortID];\n        fee = uint24(users[user].poolFeeByPositionID[shortID]);\n        return (token, fee);\n    }\n\n    //TODO\n    //contract already has the DAI needed to close the trade, can just check the price and\n    //calculate the difference between the opening and closing prices, no need for expensive swaps\n    //in the standardPool contract\n    function closeShortStandardPool(\n        address user,\n        uint userShortID)\n        public {\n            require(user == msg.sender, \"CLOSE: Not your position\");\n            //get price at pool for shortBal of positionID\n            (address token, uint24 fee) = getTokenAndFeeShortedByUser(user, userShortID);\n            uint priceAtClose = twapOracle.latestPrice(\n                    twapOracle.getPoolForTWAP(token, fee),\n                    token\n                );\n            beraWrapper.unwrapPosition(user, userShortID);\n\n            //calculate position balance using entryPrice - current price\n            //returnValue of 0 indicates a winning trade, while 1 indicates a loss\n            (uint amountPNL, uint returnValue) =\n            PnLCalculator.calculatePNL(users[msg.sender].entryPrice[userShortID], priceAtClose);\n\n            //if user has made money, we update their balance directly\n            //keeping in mind that dai is always stored in this contract and will only be transfered\n            //out on withdrawl\n            if (returnValue == 0) {\n                users[msg.sender].userDepositBalance += amountPNL;\n            } else if (returnValue == 1) {\n                users[msg.sender].userDepositBalance -= amountPNL;\n                //experimental liquidation logic //kinda dogshit ngl\n                if (users[user].liqData[userShortID].wasLiquidated == true) {\n                    uint newPNL = amountPNL * 50 / 100;\n                    uint toLiquidator = amountPNL - newPNL;\n                    address liquidator = getLiquidator(user, userShortID);\n                    users[liquidator].userDepositBalance += toLiquidator;\n                    globalRewards += newPNL;\n                } else {\n                    //distribute loss amongst users in pool\n                    globalRewards += amountPNL;\n                }\n            }\n\n            //update current userPositionNumber to free withdraws of these specific funds\n            //v0.5 does not support anything other than full position closing\n            users[msg.sender].isPositionInShort[userShortID] = false;\n            users[msg.sender].userShortBalanceByID[userShortID] = 0;\n        }\n\n    // amount here refers to how much of the token shorted is passed back into the swapRouter\n    function _shortForUser(\n        address user,\n        address tokenToShort,\n        uint priceAtWrap,\n        uint24 poolFee,\n        uint amount,\n        uint amountOutMin) internal returns(uint amountOut) {\n\n        TransferHelper.safeApprove(tokenToShort, address(swapRouter), amount);\n\n        //now that this contract has the desired token to short, we sell @ market back for DAI\n        ISwapRouter.ExactInputSingleParams memory tokenParams =\n        ISwapRouter.ExactInputSingleParams({\n            tokenIn: tokenToShort,\n            tokenOut: DAI_ADDRESS,\n            fee: poolFee,\n            recipient: address(this), //the pool contract will store both DAI from deposits and tokenOut\n            deadline: block.timestamp, //solhint-disable not-rely-on-time\n            amountIn: amount,\n            amountOutMinimum: amountOutMin,\n            sqrtPriceLimitX96: 0\n        });\n\n        // execute the short, amountOut is now back to dai\n        amountOut = swapRouter.exactInputSingle(tokenParams);\n\n        //wrap position in ERC1155\n        beraWrapper.wrapPosition(user, address(this), amount, tokenToShort, priceAtWrap);\n    }\n\n    //the percentage reward is based on the last time they claimed vs the total reward calculated\n    //this will allow us to avoid using a loop for reward distribution\n    //and allow users to pull their own rewards when they want\n    function checkOwedProfits(address user) internal view returns (uint) {\n        uint percentageReward = globalRewards - users[user].lastClaimedRewards;\n        return users[user].userDepositBalance * percentageReward / IERC20(DAI_ADDRESS).balanceOf(address(this));\n    }\n\n    function sendOwedProfits(address user) internal {\n        uint owed = checkOwedProfits(user);\n        if (owed > 0) {\n            users[user].userDepositBalance += owed;\n            users[user].lastClaimedRewards = globalRewards;\n        }\n    }\n\n    receive() external payable { //solhint-disable state-visibility\n\n}\n\n    fallback() external payable { //solhint-disable\n\n}\n\n}\n",
  "sourcePath": "/home/kevin/Code/solidity_projects/beraMarket/contracts/BeraPoolStandardRisk.sol",
  "compiler": {
    "name": "solc",
    "version": "0.8.11+commit.d7f03943.Emscripten.clang"
  },
  "schemaVersion": "3.4.3",
  "updatedAt": "2021-12-31T20:00:21.725Z",
  "devdoc": {
    "kind": "dev",
    "methods": {
      "supportsInterface(bytes4)": {
        "details": "See {IERC165-supportsInterface}."
      }
    },
    "version": 1
  },
  "userdoc": {
    "kind": "user",
    "methods": {},
    "version": 1
  }
}