{
  "contractName": "BeraPoolStandardRisk",
  "abi": [
    {
      "inputs": [
        {
          "internalType": "contract BeraWrapper",
          "name": "_beraWrapper",
          "type": "address"
        },
        {
          "internalType": "contract SwapOracle",
          "name": "_swapOracle",
          "type": "address"
        },
        {
          "internalType": "contract BeraSwapper",
          "name": "_beraSwapper",
          "type": "address"
        }
      ],
      "stateMutability": "nonpayable",
      "type": "constructor"
    },
    {
      "inputs": [],
      "name": "globalRewards",
      "outputs": [
        {
          "internalType": "uint256",
          "name": "",
          "type": "uint256"
        }
      ],
      "stateMutability": "view",
      "type": "function",
      "constant": true
    },
    {
      "inputs": [
        {
          "internalType": "address",
          "name": "",
          "type": "address"
        },
        {
          "internalType": "address",
          "name": "",
          "type": "address"
        },
        {
          "internalType": "uint256[]",
          "name": "",
          "type": "uint256[]"
        },
        {
          "internalType": "uint256[]",
          "name": "",
          "type": "uint256[]"
        },
        {
          "internalType": "bytes",
          "name": "",
          "type": "bytes"
        }
      ],
      "name": "onERC1155BatchReceived",
      "outputs": [
        {
          "internalType": "bytes4",
          "name": "",
          "type": "bytes4"
        }
      ],
      "stateMutability": "nonpayable",
      "type": "function"
    },
    {
      "inputs": [
        {
          "internalType": "address",
          "name": "",
          "type": "address"
        },
        {
          "internalType": "address",
          "name": "",
          "type": "address"
        },
        {
          "internalType": "uint256",
          "name": "",
          "type": "uint256"
        },
        {
          "internalType": "uint256",
          "name": "",
          "type": "uint256"
        },
        {
          "internalType": "bytes",
          "name": "",
          "type": "bytes"
        }
      ],
      "name": "onERC1155Received",
      "outputs": [
        {
          "internalType": "bytes4",
          "name": "",
          "type": "bytes4"
        }
      ],
      "stateMutability": "nonpayable",
      "type": "function"
    },
    {
      "inputs": [],
      "name": "owner",
      "outputs": [
        {
          "internalType": "address",
          "name": "",
          "type": "address"
        }
      ],
      "stateMutability": "view",
      "type": "function",
      "constant": true
    },
    {
      "inputs": [],
      "name": "protocolOwnedLiquidity",
      "outputs": [
        {
          "internalType": "uint256",
          "name": "",
          "type": "uint256"
        }
      ],
      "stateMutability": "view",
      "type": "function",
      "constant": true
    },
    {
      "inputs": [
        {
          "internalType": "bytes4",
          "name": "interfaceId",
          "type": "bytes4"
        }
      ],
      "name": "supportsInterface",
      "outputs": [
        {
          "internalType": "bool",
          "name": "",
          "type": "bool"
        }
      ],
      "stateMutability": "view",
      "type": "function",
      "constant": true
    },
    {
      "inputs": [
        {
          "internalType": "address",
          "name": "",
          "type": "address"
        }
      ],
      "name": "users",
      "outputs": [
        {
          "internalType": "uint256",
          "name": "lastClaimedRewards",
          "type": "uint256"
        },
        {
          "internalType": "uint128",
          "name": "userDepositBalance",
          "type": "uint128"
        },
        {
          "internalType": "uint128",
          "name": "userShortID",
          "type": "uint128"
        }
      ],
      "stateMutability": "view",
      "type": "function",
      "constant": true
    },
    {
      "inputs": [
        {
          "internalType": "uint128",
          "name": "amount",
          "type": "uint128"
        }
      ],
      "name": "depositCollateral",
      "outputs": [],
      "stateMutability": "nonpayable",
      "type": "function"
    },
    {
      "inputs": [
        {
          "internalType": "uint128",
          "name": "amount",
          "type": "uint128"
        },
        {
          "internalType": "uint256",
          "name": "userShortID",
          "type": "uint256"
        }
      ],
      "name": "withdrawFromPool",
      "outputs": [],
      "stateMutability": "nonpayable",
      "type": "function"
    },
    {
      "inputs": [],
      "name": "claimRewards",
      "outputs": [],
      "stateMutability": "nonpayable",
      "type": "function"
    },
    {
      "inputs": [
        {
          "internalType": "uint256",
          "name": "amount",
          "type": "uint256"
        },
        {
          "internalType": "address",
          "name": "tokenToShort",
          "type": "address"
        },
        {
          "internalType": "uint24",
          "name": "poolFee",
          "type": "uint24"
        },
        {
          "internalType": "uint256",
          "name": "amountOutMin",
          "type": "uint256"
        }
      ],
      "name": "swapShort",
      "outputs": [],
      "stateMutability": "nonpayable",
      "type": "function"
    },
    {
      "inputs": [
        {
          "internalType": "address",
          "name": "tokenToShort",
          "type": "address"
        },
        {
          "internalType": "uint24",
          "name": "poolFee",
          "type": "uint24"
        },
        {
          "internalType": "uint256",
          "name": "amount",
          "type": "uint256"
        }
      ],
      "name": "supplyShort",
      "outputs": [
        {
          "internalType": "uint256",
          "name": "amountOut",
          "type": "uint256"
        }
      ],
      "stateMutability": "nonpayable",
      "type": "function"
    },
    {
      "inputs": [
        {
          "internalType": "address",
          "name": "userUnderwater",
          "type": "address"
        },
        {
          "internalType": "address",
          "name": "liquidator",
          "type": "address"
        },
        {
          "internalType": "uint128",
          "name": "shortID",
          "type": "uint128"
        }
      ],
      "name": "liquidateUser",
      "outputs": [],
      "stateMutability": "nonpayable",
      "type": "function"
    },
    {
      "inputs": [
        {
          "internalType": "address",
          "name": "user",
          "type": "address"
        },
        {
          "internalType": "uint128",
          "name": "shortID",
          "type": "uint128"
        }
      ],
      "name": "getLiquidator",
      "outputs": [
        {
          "internalType": "address",
          "name": "liquidator",
          "type": "address"
        }
      ],
      "stateMutability": "view",
      "type": "function",
      "constant": true
    },
    {
      "inputs": [
        {
          "internalType": "address",
          "name": "user",
          "type": "address"
        }
      ],
      "name": "getTotalCollateral",
      "outputs": [
        {
          "internalType": "uint256",
          "name": "totalCollateral",
          "type": "uint256"
        }
      ],
      "stateMutability": "view",
      "type": "function",
      "constant": true
    },
    {
      "inputs": [
        {
          "internalType": "address",
          "name": "user",
          "type": "address"
        }
      ],
      "name": "checkRewards",
      "outputs": [
        {
          "internalType": "uint256",
          "name": "profits",
          "type": "uint256"
        }
      ],
      "stateMutability": "view",
      "type": "function",
      "constant": true
    },
    {
      "inputs": [],
      "name": "getGlobalRewards",
      "outputs": [
        {
          "internalType": "uint256",
          "name": "globals",
          "type": "uint256"
        }
      ],
      "stateMutability": "view",
      "type": "function",
      "constant": true
    },
    {
      "inputs": [
        {
          "internalType": "address",
          "name": "user",
          "type": "address"
        },
        {
          "internalType": "uint128",
          "name": "shortID",
          "type": "uint128"
        }
      ],
      "name": "getUserShortBalance",
      "outputs": [
        {
          "internalType": "uint256",
          "name": "bal",
          "type": "uint256"
        }
      ],
      "stateMutability": "view",
      "type": "function",
      "constant": true
    },
    {
      "inputs": [
        {
          "internalType": "address",
          "name": "user",
          "type": "address"
        },
        {
          "internalType": "uint128",
          "name": "shortID",
          "type": "uint128"
        }
      ],
      "name": "getUserEntryPrice",
      "outputs": [
        {
          "internalType": "uint256",
          "name": "entry",
          "type": "uint256"
        }
      ],
      "stateMutability": "view",
      "type": "function",
      "constant": true
    },
    {
      "inputs": [
        {
          "internalType": "address",
          "name": "user",
          "type": "address"
        },
        {
          "internalType": "uint128",
          "name": "shortID",
          "type": "uint128"
        }
      ],
      "name": "getTokenAndFeeShortedByUser",
      "outputs": [
        {
          "internalType": "address",
          "name": "token",
          "type": "address"
        },
        {
          "internalType": "uint24",
          "name": "fee",
          "type": "uint24"
        }
      ],
      "stateMutability": "view",
      "type": "function",
      "constant": true
    },
    {
      "inputs": [
        {
          "internalType": "address",
          "name": "user",
          "type": "address"
        },
        {
          "internalType": "uint128",
          "name": "userShortID",
          "type": "uint128"
        },
        {
          "internalType": "uint256",
          "name": "amountOutMin",
          "type": "uint256"
        }
      ],
      "name": "closeShort",
      "outputs": [],
      "stateMutability": "nonpayable",
      "type": "function"
    }
  ],
  "bytecode": "0x60806040523480156200001157600080fd5b5060405162003ad638038062003ad683398181016040528101906200003791906200024c565b33600160006101000a81548173ffffffffffffffffffffffffffffffffffffffff021916908373ffffffffffffffffffffffffffffffffffffffff16021790555082600460006101000a81548173ffffffffffffffffffffffffffffffffffffffff021916908373ffffffffffffffffffffffffffffffffffffffff16021790555081600660006101000a81548173ffffffffffffffffffffffffffffffffffffffff021916908373ffffffffffffffffffffffffffffffffffffffff16021790555080600560006101000a81548173ffffffffffffffffffffffffffffffffffffffff021916908373ffffffffffffffffffffffffffffffffffffffff160217905550505050620002a8565b600080fd5b600073ffffffffffffffffffffffffffffffffffffffff82169050919050565b6000620001768262000149565b9050919050565b60006200018a8262000169565b9050919050565b6200019c816200017d565b8114620001a857600080fd5b50565b600081519050620001bc8162000191565b92915050565b6000620001cf8262000169565b9050919050565b620001e181620001c2565b8114620001ed57600080fd5b50565b6000815190506200020181620001d6565b92915050565b6000620002148262000169565b9050919050565b620002268162000207565b81146200023257600080fd5b50565b60008151905062000246816200021b565b92915050565b60008060006060848603121562000268576200026762000144565b5b60006200027886828701620001ab565b93505060206200028b86828701620001f0565b92505060406200029e8682870162000235565b9150509250925092565b61381e80620002b86000396000f3fe608060405234801561001057600080fd5b50600436106101375760003560e01c806360a98b80116100b8578063bc197c811161007c578063bc197c8114610377578063be9405f3146103a7578063c5802f88146103c5578063d8ea45c0146103f5578063ecc5310214610411578063f23a6e611461042d57610137565b806360a98b80146102bb5780637423031e146102eb57806380a0b0fc146103095780638da5cb5b14610327578063a87430ba1461034557610137565b806324b1e1c6116100ff57806324b1e1c61461022d578063344f277114610249578063372500ab146102655780633a3752961461026f57806350bfe3551461029f57610137565b806301ffc9a71461013c578063046ff0d31461016c5780631bdbc3bf1461019c5780631c115c2f146101cc5780631c8722f9146101fd575b600080fd5b610156600480360381019061015191906125ea565b61045d565b6040516101639190612632565b60405180910390f35b610186600480360381019061018191906126ab565b6104d7565b60405161019391906126f1565b60405180910390f35b6101b660048036038101906101b19190612754565b6104fb565b6040516101c391906127a3565b60405180910390f35b6101e660048036038101906101e19190612754565b61059f565b6040516101f49291906127dc565b60405180910390f35b61021760048036038101906102129190612754565b6106d0565b60405161022491906126f1565b60405180910390f35b61024760048036038101906102429190612831565b610782565b005b610263600480360381019061025e9190612871565b610a5e565b005b61026d610b35565b005b610289600480360381019061028491906128ca565b610b40565b60405161029691906126f1565b60405180910390f35b6102b960048036038101906102b4919061291d565b610d86565b005b6102d560048036038101906102d091906126ab565b610d9e565b6040516102e291906126f1565b60405180910390f35b6102f3610efc565b60405161030091906126f1565b60405180910390f35b610311610f02565b60405161031e91906126f1565b60405180910390f35b61032f610f0c565b60405161033c91906127a3565b60405180910390f35b61035f600480360381019061035a91906126ab565b610f32565b60405161036e9392919061297f565b60405180910390f35b610391600480360381019061038c9190612bc4565b610f94565b60405161039e9190612ca2565b60405180910390f35b6103af610fa9565b6040516103bc91906126f1565b60405180910390f35b6103df60048036038101906103da9190612754565b610faf565b6040516103ec91906126f1565b60405180910390f35b61040f600480360381019061040a9190612cbd565b611033565b005b61042b60048036038101906104269190612d24565b6113d1565b005b61044760048036038101906104429190612d77565b611adf565b6040516104549190612ca2565b60405180910390f35b60007f4e2312e0000000000000000000000000000000000000000000000000000000007bffffffffffffffffffffffffffffffffffffffffffffffffffffffff1916827bffffffffffffffffffffffffffffffffffffffffffffffffffffffff191614806104d057506104cf82611af4565b5b9050919050565b60006104e282611b5e565b6fffffffffffffffffffffffffffffffff169050919050565b60008060008473ffffffffffffffffffffffffffffffffffffffff1673ffffffffffffffffffffffffffffffffffffffff1681526020019081526020016000206003016000836fffffffffffffffffffffffffffffffff166fffffffffffffffffffffffffffffffff16815260200190815260200160002060000160029054906101000a900473ffffffffffffffffffffffffffffffffffffffff16905092915050565b6000806000808573ffffffffffffffffffffffffffffffffffffffff1673ffffffffffffffffffffffffffffffffffffffff1681526020019081526020016000206002016000846fffffffffffffffffffffffffffffffff166fffffffffffffffffffffffffffffffff168152602001908152602001600020600201600b9054906101000a900473ffffffffffffffffffffffffffffffffffffffff1691506000808573ffffffffffffffffffffffffffffffffffffffff1673ffffffffffffffffffffffffffffffffffffffff1681526020019081526020016000206002016000846fffffffffffffffffffffffffffffffff166fffffffffffffffffffffffffffffffff16815260200190815260200160002060020160089054906101000a900462ffffff1690509250929050565b60008060008473ffffffffffffffffffffffffffffffffffffffff1673ffffffffffffffffffffffffffffffffffffffff1681526020019081526020016000206002016000836fffffffffffffffffffffffffffffffff166fffffffffffffffffffffffffffffffff16815260200190815260200160002060010160009054906101000a90046fffffffffffffffffffffffffffffffff166fffffffffffffffffffffffffffffffff16905092915050565b6000803373ffffffffffffffffffffffffffffffffffffffff1673ffffffffffffffffffffffffffffffffffffffff16815260200190815260200160002060010160009054906101000a90046fffffffffffffffffffffffffffffffff166fffffffffffffffffffffffffffffffff16826fffffffffffffffffffffffffffffffff161115610846576040517f08c379a000000000000000000000000000000000000000000000000000000000815260040161083d90612e6b565b60405180910390fd5b6000600460009054906101000a900473ffffffffffffffffffffffffffffffffffffffff1673ffffffffffffffffffffffffffffffffffffffff1662fdd58e33846040518363ffffffff1660e01b81526004016108a4929190612e8b565b602060405180830381865afa1580156108c1573d6000803e3d6000fd5b505050506040513d601f19601f820116820180604052508101906108e59190612ec9565b14610925576040517f08c379a000000000000000000000000000000000000000000000000000000000815260040161091c90612f42565b60405180910390fd5b816000803373ffffffffffffffffffffffffffffffffffffffff1673ffffffffffffffffffffffffffffffffffffffff16815260200190815260200160002060010160008282829054906101000a90046fffffffffffffffffffffffffffffffff166109919190612f91565b92506101000a8154816fffffffffffffffffffffffffffffffff02191690836fffffffffffffffffffffffffffffffff160217905550736b175474e89094c44da98b954eedeac495271d0f73ffffffffffffffffffffffffffffffffffffffff1663a9059cbb33846040518363ffffffff1660e01b8152600401610a16929190613000565b6020604051808303816000875af1158015610a35573d6000803e3d6000fd5b505050506040513d601f19601f82011682018060405250810190610a599190613055565b505050565b806000803373ffffffffffffffffffffffffffffffffffffffff1673ffffffffffffffffffffffffffffffffffffffff16815260200190815260200160002060010160008282829054906101000a90046fffffffffffffffffffffffffffffffff16610aca9190613082565b92506101000a8154816fffffffffffffffffffffffffffffffff02191690836fffffffffffffffffffffffffffffffff160217905550610b32736b175474e89094c44da98b954eedeac495271d0f3330846fffffffffffffffffffffffffffffffff16611cbb565b50565b610b3e33611e13565b565b6000610bb88362ffffff161480610b5d57506101f48362ffffff16145b610b9c576040517f08c379a0000000000000000000000000000000000000000000000000000000008152600401610b9390613114565b60405180910390fd5b600560009054906101000a900473ffffffffffffffffffffffffffffffffffffffff1673ffffffffffffffffffffffffffffffffffffffff1663bbe9247f33868686306040518663ffffffff1660e01b8152600401610bff959493929190613134565b6020604051808303816000875af1158015610c1e573d6000803e3d6000fd5b505050506040513d601f19601f82011682018060405250810190610c429190612ec9565b9050600080610c5333848888611f2a565b91509150600460009054906101000a900473ffffffffffffffffffffffffffffffffffffffff1673ffffffffffffffffffffffffffffffffffffffff166391b3f9b1308689866040518563ffffffff1660e01b8152600401610cb89493929190613187565b600060405180830381600087803b158015610cd257600080fd5b505af1158015610ce6573d6000803e3d6000fd5b50505050736b175474e89094c44da98b954eedeac495271d0f73ffffffffffffffffffffffffffffffffffffffff1663a9059cbb33836040518363ffffffff1660e01b8152600401610d39929190612e8b565b6020604051808303816000875af1158015610d58573d6000803e3d6000fd5b505050506040513d601f19601f82011682018060405250810190610d7c9190613055565b5050509392505050565b600080610d93858461059f565b915091505050505050565b600080600090505b6000808473ffffffffffffffffffffffffffffffffffffffff1673ffffffffffffffffffffffffffffffffffffffff16815260200190815260200160002060010160109054906101000a90046fffffffffffffffffffffffffffffffff166fffffffffffffffffffffffffffffffff16816fffffffffffffffffffffffffffffffff1611610ef6576000808473ffffffffffffffffffffffffffffffffffffffff1673ffffffffffffffffffffffffffffffffffffffff1681526020019081526020016000206002016000826fffffffffffffffffffffffffffffffff166fffffffffffffffffffffffffffffffff16815260200190815260200160002060010160009054906101000a90046fffffffffffffffffffffffffffffffff166fffffffffffffffffffffffffffffffff1682610ee191906131cc565b91508080610eee90613222565b915050610da6565b50919050565b60035481565b6000600354905090565b600160009054906101000a900473ffffffffffffffffffffffffffffffffffffffff1681565b60006020528060005260406000206000915090508060000154908060010160009054906101000a90046fffffffffffffffffffffffffffffffff16908060010160109054906101000a90046fffffffffffffffffffffffffffffffff16905083565b600063bc197c8160e01b905095945050505050565b60025481565b60008060008473ffffffffffffffffffffffffffffffffffffffff1673ffffffffffffffffffffffffffffffffffffffff1681526020019081526020016000206002016000836fffffffffffffffffffffffffffffffff166fffffffffffffffffffffffffffffffff16815260200190815260200160002060000154905092915050565b6000803373ffffffffffffffffffffffffffffffffffffffff1673ffffffffffffffffffffffffffffffffffffffff16815260200190815260200160002060010160009054906101000a90046fffffffffffffffffffffffffffffffff166fffffffffffffffffffffffffffffffff168411156110e5576040517f08c379a00000000000000000000000000000000000000000000000000000000081526004016110dc906132a7565b60405180910390fd5b610bb88262ffffff16148061110057506101f48262ffffff16145b61113f576040517f08c379a000000000000000000000000000000000000000000000000000000000815260040161113690613114565b60405180910390fd5b60008061114e33878787611f2a565b915091506000600560009054906101000a900473ffffffffffffffffffffffffffffffffffffffff1673ffffffffffffffffffffffffffffffffffffffff1663f2e6c8cc3388736b175474e89094c44da98b954eedeac495271d0f89878a6040518763ffffffff1660e01b81526004016111cd969594939291906132c7565b6020604051808303816000875af11580156111ec573d6000803e3d6000fd5b505050506040513d601f19601f820116820180604052508101906112109190612ec9565b9050600460009054906101000a900473ffffffffffffffffffffffffffffffffffffffff1673ffffffffffffffffffffffffffffffffffffffff166391b3f9b1308389876040518563ffffffff1660e01b81526004016112739493929190613187565b600060405180830381600087803b15801561128d57600080fd5b505af11580156112a1573d6000803e3d6000fd5b50505050611311336000803373ffffffffffffffffffffffffffffffffffffffff1673ffffffffffffffffffffffffffffffffffffffff16815260200190815260200160002060010160109054906101000a90046fffffffffffffffffffffffffffffffff1685858a868b612249565b6000670de0b6b3a764000084836113289190613328565b61133291906133b1565b9050736b175474e89094c44da98b954eedeac495271d0f73ffffffffffffffffffffffffffffffffffffffff1663a9059cbb33836040518363ffffffff1660e01b8152600401611383929190612e8b565b6020604051808303816000875af11580156113a2573d6000803e3d6000fd5b505050506040513d601f19601f820116820180604052508101906113c69190613055565b505050505050505050565b6000600460009054906101000a900473ffffffffffffffffffffffffffffffffffffffff1673ffffffffffffffffffffffffffffffffffffffff1662fdd58e856000808873ffffffffffffffffffffffffffffffffffffffff1673ffffffffffffffffffffffffffffffffffffffff1681526020019081526020016000206002016000876fffffffffffffffffffffffffffffffff166fffffffffffffffffffffffffffffffff16815260200190815260200160002060020160009054906101000a900467ffffffffffffffff166040518363ffffffff1660e01b81526004016114bc929190613427565b602060405180830381865afa1580156114d9573d6000803e3d6000fd5b505050506040513d601f19601f820116820180604052508101906114fd9190612ec9565b11806115935750600115156000808573ffffffffffffffffffffffffffffffffffffffff1673ffffffffffffffffffffffffffffffffffffffff1681526020019081526020016000206003016000846fffffffffffffffffffffffffffffffff166fffffffffffffffffffffffffffffffff16815260200190815260200160002060000160009054906101000a900460ff161515145b6115d2576040517f08c379a00000000000000000000000000000000000000000000000000000000081526004016115c9906134c2565b60405180910390fd5b6000806115df858561059f565b915091506000600660009054906101000a900473ffffffffffffffffffffffffffffffffffffffff1673ffffffffffffffffffffffffffffffffffffffff1663ec3eb22384846040518363ffffffff1660e01b81526004016116429291906127dc565b602060405180830381865afa15801561165f573d6000803e3d6000fd5b505050506040513d601f19601f820116820180604052508101906116839190612ec9565b90506000600460009054906101000a900473ffffffffffffffffffffffffffffffffffffffff1673ffffffffffffffffffffffffffffffffffffffff1663070fb8f060e01b876040516024016116d991906134e2565b604051602081830303815290604052907bffffffffffffffffffffffffffffffffffffffffffffffffffffffff19166020820180517bffffffffffffffffffffffffffffffffffffffffffffffffffffffff83818316178352505050506040516117439190613577565b600060405180830381855af49150503d806000811461177e576040519150601f19603f3d011682016040523d82523d6000602084013e611783565b606091505b5050905060008060008973ffffffffffffffffffffffffffffffffffffffff1673ffffffffffffffffffffffffffffffffffffffff1681526020019081526020016000206002016000886fffffffffffffffffffffffffffffffff166fffffffffffffffffffffffffffffffff16815260200190815260200160002060010160006101000a8154816fffffffffffffffffffffffffffffffff02191690836fffffffffffffffffffffffffffffffff1602179055506000600560009054906101000a900473ffffffffffffffffffffffffffffffffffffffff1673ffffffffffffffffffffffffffffffffffffffff1663f2e6c8cc33736b175474e89094c44da98b954eedeac495271d0f88886000808f73ffffffffffffffffffffffffffffffffffffffff1673ffffffffffffffffffffffffffffffffffffffff16815260200190815260200160002060020160008e6fffffffffffffffffffffffffffffffff166fffffffffffffffffffffffffffffffff16815260200190815260200160002060010160109054906101000a90046fffffffffffffffffffffffffffffffff168c6040518763ffffffff1660e01b81526004016119489695949392919061358e565b6020604051808303816000875af1158015611967573d6000803e3d6000fd5b505050506040513d601f19601f8201168201806040525081019061198b9190612ec9565b905060008073__PnLCalculator_________________________63a51e4ab36119b48c8c610faf565b87866040518463ffffffff1660e01b81526004016119d493929190613617565b6040805180830381865af41580156119f0573d6000803e3d6000fd5b505050506040513d601f19601f82011682018060405250810190611a149190613687565b9150915060018160ff161415611a3e578160036000828254611a3691906131cc565b925050819055505b736b175474e89094c44da98b954eedeac495271d0f73ffffffffffffffffffffffffffffffffffffffff166323b872dd8b30866040518463ffffffff1660e01b8152600401611a8f939291906136c7565b6020604051808303816000875af1158015611aae573d6000803e3d6000fd5b505050506040513d601f19601f82011682018060405250810190611ad29190613055565b5050505050505050505050565b600063f23a6e6160e01b905095945050505050565b60007f01ffc9a7000000000000000000000000000000000000000000000000000000007bffffffffffffffffffffffffffffffffffffffffffffffffffffffff1916827bffffffffffffffffffffffffffffffffffffffffffffffffffffffff1916149050919050565b6000806000808473ffffffffffffffffffffffffffffffffffffffff1673ffffffffffffffffffffffffffffffffffffffff16815260200190815260200160002060000154600354611bb091906136fe565b9050736b175474e89094c44da98b954eedeac495271d0f73ffffffffffffffffffffffffffffffffffffffff166370a08231306040518263ffffffff1660e01b8152600401611bff91906127a3565b602060405180830381865afa158015611c1c573d6000803e3d6000fd5b505050506040513d601f19601f82011682018060405250810190611c409190612ec9565b81611c4b91906133b1565b6000808573ffffffffffffffffffffffffffffffffffffffff1673ffffffffffffffffffffffffffffffffffffffff16815260200190815260200160002060010160009054906101000a90046fffffffffffffffffffffffffffffffff16611cb39190613732565b915050919050565b6000808573ffffffffffffffffffffffffffffffffffffffff166323b872dd60e01b868686604051602401611cf2939291906136c7565b604051602081830303815290604052907bffffffffffffffffffffffffffffffffffffffffffffffffffffffff19166020820180517bffffffffffffffffffffffffffffffffffffffffffffffffffffffff8381831617835250505050604051611d5c9190613577565b6000604051808303816000865af19150503d8060008114611d99576040519150601f19603f3d011682016040523d82523d6000602084013e611d9e565b606091505b5091509150818015611dcc5750600081511480611dcb575080806020019051810190611dca9190613055565b5b5b611e0b576040517f08c379a0000000000000000000000000000000000000000000000000000000008152600401611e02906137c8565b60405180910390fd5b505050505050565b6000611e1e82611b5e565b90506000816fffffffffffffffffffffffffffffffff161115611f2657806000808473ffffffffffffffffffffffffffffffffffffffff1673ffffffffffffffffffffffffffffffffffffffff16815260200190815260200160002060010160008282829054906101000a90046fffffffffffffffffffffffffffffffff16611ea79190613082565b92506101000a8154816fffffffffffffffffffffffffffffffff02191690836fffffffffffffffffffffffffffffffff1602179055506003546000808473ffffffffffffffffffffffffffffffffffffffff1673ffffffffffffffffffffffffffffffffffffffff168152602001908152602001600020600001819055505b5050565b600080600660009054906101000a900473ffffffffffffffffffffffffffffffffffffffff1673ffffffffffffffffffffffffffffffffffffffff1663ec3eb22385856040518363ffffffff1660e01b8152600401611f8a9291906127dc565b602060405180830381865afa158015611fa7573d6000803e3d6000fd5b505050506040513d601f19601f82011682018060405250810190611fcb9190612ec9565b915060016000808873ffffffffffffffffffffffffffffffffffffffff1673ffffffffffffffffffffffffffffffffffffffff16815260200190815260200160002060010160108282829054906101000a90046fffffffffffffffffffffffffffffffff1661203a9190613082565b92506101000a8154816fffffffffffffffffffffffffffffffff02191690836fffffffffffffffffffffffffffffffff160217905550600061207b87610d9e565b1115612201576000808773ffffffffffffffffffffffffffffffffffffffff1673ffffffffffffffffffffffffffffffffffffffff16815260200190815260200160002060010160009054906101000a90046fffffffffffffffffffffffffffffffff166fffffffffffffffffffffffffffffffff166120fa87610d9e565b111561213b576040517f08c379a0000000000000000000000000000000000000000000000000000000008152600401612132906132a7565b60405180910390fd5b6000808773ffffffffffffffffffffffffffffffffffffffff1673ffffffffffffffffffffffffffffffffffffffff16815260200190815260200160002060010160009054906101000a90046fffffffffffffffffffffffffffffffff166fffffffffffffffffffffffffffffffff166121b487610d9e565b866121bf91906131cc565b1115612200576040517f08c379a00000000000000000000000000000000000000000000000000000000081526004016121f7906132a7565b60405180910390fd5b5b60646063866122109190613328565b61221a91906133b1565b9050808561222891906136fe565b6002600082825461223991906131cc565b9250508190555094509492505050565b846000808973ffffffffffffffffffffffffffffffffffffffff1673ffffffffffffffffffffffffffffffffffffffff1681526020019081526020016000206002016000886fffffffffffffffffffffffffffffffff166fffffffffffffffffffffffffffffffff16815260200190815260200160002060000181905550836000808973ffffffffffffffffffffffffffffffffffffffff1673ffffffffffffffffffffffffffffffffffffffff1681526020019081526020016000206002016000886fffffffffffffffffffffffffffffffff166fffffffffffffffffffffffffffffffff16815260200190815260200160002060010160006101000a8154816fffffffffffffffffffffffffffffffff02191690836fffffffffffffffffffffffffffffffff160217905550826000808973ffffffffffffffffffffffffffffffffffffffff1673ffffffffffffffffffffffffffffffffffffffff1681526020019081526020016000206002016000886fffffffffffffffffffffffffffffffff166fffffffffffffffffffffffffffffffff168152602001908152602001600020600201600b6101000a81548173ffffffffffffffffffffffffffffffffffffffff021916908373ffffffffffffffffffffffffffffffffffffffff160217905550816000808973ffffffffffffffffffffffffffffffffffffffff1673ffffffffffffffffffffffffffffffffffffffff1681526020019081526020016000206002016000886fffffffffffffffffffffffffffffffff166fffffffffffffffffffffffffffffffff16815260200190815260200160002060010160106101000a8154816fffffffffffffffffffffffffffffffff02191690836fffffffffffffffffffffffffffffffff160217905550806000808973ffffffffffffffffffffffffffffffffffffffff1673ffffffffffffffffffffffffffffffffffffffff1681526020019081526020016000206002016000886fffffffffffffffffffffffffffffffff166fffffffffffffffffffffffffffffffff16815260200190815260200160002060020160086101000a81548162ffffff021916908362ffffff16021790555050505050505050565b6000604051905090565b600080fd5b600080fd5b60007fffffffff0000000000000000000000000000000000000000000000000000000082169050919050565b6125c781612592565b81146125d257600080fd5b50565b6000813590506125e4816125be565b92915050565b600060208284031215612600576125ff612588565b5b600061260e848285016125d5565b91505092915050565b60008115159050919050565b61262c81612617565b82525050565b60006020820190506126476000830184612623565b92915050565b600073ffffffffffffffffffffffffffffffffffffffff82169050919050565b60006126788261264d565b9050919050565b6126888161266d565b811461269357600080fd5b50565b6000813590506126a58161267f565b92915050565b6000602082840312156126c1576126c0612588565b5b60006126cf84828501612696565b91505092915050565b6000819050919050565b6126eb816126d8565b82525050565b600060208201905061270660008301846126e2565b92915050565b60006fffffffffffffffffffffffffffffffff82169050919050565b6127318161270c565b811461273c57600080fd5b50565b60008135905061274e81612728565b92915050565b6000806040838503121561276b5761276a612588565b5b600061277985828601612696565b925050602061278a8582860161273f565b9150509250929050565b61279d8161266d565b82525050565b60006020820190506127b86000830184612794565b92915050565b600062ffffff82169050919050565b6127d6816127be565b82525050565b60006040820190506127f16000830185612794565b6127fe60208301846127cd565b9392505050565b61280e816126d8565b811461281957600080fd5b50565b60008135905061282b81612805565b92915050565b6000806040838503121561284857612847612588565b5b60006128568582860161273f565b92505060206128678582860161281c565b9150509250929050565b60006020828403121561288757612886612588565b5b60006128958482850161273f565b91505092915050565b6128a7816127be565b81146128b257600080fd5b50565b6000813590506128c48161289e565b92915050565b6000806000606084860312156128e3576128e2612588565b5b60006128f186828701612696565b9350506020612902868287016128b5565b92505060406129138682870161281c565b9150509250925092565b60008060006060848603121561293657612935612588565b5b600061294486828701612696565b935050602061295586828701612696565b92505060406129668682870161273f565b9150509250925092565b6129798161270c565b82525050565b600060608201905061299460008301866126e2565b6129a16020830185612970565b6129ae6040830184612970565b949350505050565b600080fd5b6000601f19601f8301169050919050565b7f4e487b7100000000000000000000000000000000000000000000000000000000600052604160045260246000fd5b612a04826129bb565b810181811067ffffffffffffffff82111715612a2357612a226129cc565b5b80604052505050565b6000612a3661257e565b9050612a4282826129fb565b919050565b600067ffffffffffffffff821115612a6257612a616129cc565b5b602082029050602081019050919050565b600080fd5b6000612a8b612a8684612a47565b612a2c565b90508083825260208201905060208402830185811115612aae57612aad612a73565b5b835b81811015612ad75780612ac3888261281c565b845260208401935050602081019050612ab0565b5050509392505050565b600082601f830112612af657612af56129b6565b5b8135612b06848260208601612a78565b91505092915050565b600080fd5b600067ffffffffffffffff821115612b2f57612b2e6129cc565b5b612b38826129bb565b9050602081019050919050565b82818337600083830152505050565b6000612b67612b6284612b14565b612a2c565b905082815260208101848484011115612b8357612b82612b0f565b5b612b8e848285612b45565b509392505050565b600082601f830112612bab57612baa6129b6565b5b8135612bbb848260208601612b54565b91505092915050565b600080600080600060a08688031215612be057612bdf612588565b5b6000612bee88828901612696565b9550506020612bff88828901612696565b945050604086013567ffffffffffffffff811115612c2057612c1f61258d565b5b612c2c88828901612ae1565b935050606086013567ffffffffffffffff811115612c4d57612c4c61258d565b5b612c5988828901612ae1565b925050608086013567ffffffffffffffff811115612c7a57612c7961258d565b5b612c8688828901612b96565b9150509295509295909350565b612c9c81612592565b82525050565b6000602082019050612cb76000830184612c93565b92915050565b60008060008060808587031215612cd757612cd6612588565b5b6000612ce58782880161281c565b9450506020612cf687828801612696565b9350506040612d07878288016128b5565b9250506060612d188782880161281c565b91505092959194509250565b600080600060608486031215612d3d57612d3c612588565b5b6000612d4b86828701612696565b9350506020612d5c8682870161273f565b9250506040612d6d8682870161281c565b9150509250925092565b600080600080600060a08688031215612d9357612d92612588565b5b6000612da188828901612696565b9550506020612db288828901612696565b9450506040612dc38882890161281c565b9350506060612dd48882890161281c565b925050608086013567ffffffffffffffff811115612df557612df461258d565b5b612e0188828901612b96565b9150509295509295909350565b600082825260208201905092915050565b7f57495448445241573a20746f6f206d7563680000000000000000000000000000600082015250565b6000612e55601283612e0e565b9150612e6082612e1f565b602082019050919050565b60006020820190508181036000830152612e8481612e48565b9050919050565b6000604082019050612ea06000830185612794565b612ead60208301846126e2565b9392505050565b600081519050612ec381612805565b92915050565b600060208284031215612edf57612ede612588565b5b6000612eed84828501612eb4565b91505092915050565b7f57495448445241573a20506f736974696f6e2061637469766500000000000000600082015250565b6000612f2c601983612e0e565b9150612f3782612ef6565b602082019050919050565b60006020820190508181036000830152612f5b81612f1f565b9050919050565b7f4e487b7100000000000000000000000000000000000000000000000000000000600052601160045260246000fd5b6000612f9c8261270c565b9150612fa78361270c565b925082821015612fba57612fb9612f62565b5b828203905092915050565b6000819050919050565b6000612fea612fe5612fe08461270c565b612fc5565b6126d8565b9050919050565b612ffa81612fcf565b82525050565b60006040820190506130156000830185612794565b6130226020830184612ff1565b9392505050565b61303281612617565b811461303d57600080fd5b50565b60008151905061304f81613029565b92915050565b60006020828403121561306b5761306a612588565b5b600061307984828501613040565b91505092915050565b600061308d8261270c565b91506130988361270c565b9250826fffffffffffffffffffffffffffffffff038211156130bd576130bc612f62565b5b828201905092915050565b7f535741503a204e6f742068696768207269736b20706f6f6c0000000000000000600082015250565b60006130fe601883612e0e565b9150613109826130c8565b602082019050919050565b6000602082019050818103600083015261312d816130f1565b9050919050565b600060a0820190506131496000830188612794565b6131566020830187612794565b61316360408301866127cd565b61317060608301856126e2565b61317d6080830184612794565b9695505050505050565b600060808201905061319c6000830187612794565b6131a960208301866126e2565b6131b66040830185612794565b6131c360608301846126e2565b95945050505050565b60006131d7826126d8565b91506131e2836126d8565b9250827fffffffffffffffffffffffffffffffffffffffffffffffffffffffffffffffff0382111561321757613216612f62565b5b828201905092915050565b600061322d8261270c565b91506fffffffffffffffffffffffffffffffff8214156132505761324f612f62565b5b600182019050919050565b7f535741503a206e6f7420656e6f75676820636f6c6c61746572616c0000000000600082015250565b6000613291601b83612e0e565b915061329c8261325b565b602082019050919050565b600060208201905081810360008301526132c081613284565b9050919050565b600060c0820190506132dc6000830189612794565b6132e96020830188612794565b6132f66040830187612794565b61330360608301866127cd565b61331060808301856126e2565b61331d60a08301846126e2565b979650505050505050565b6000613333826126d8565b915061333e836126d8565b9250817fffffffffffffffffffffffffffffffffffffffffffffffffffffffffffffffff048311821515161561337757613376612f62565b5b828202905092915050565b7f4e487b7100000000000000000000000000000000000000000000000000000000600052601260045260246000fd5b60006133bc826126d8565b91506133c7836126d8565b9250826133d7576133d6613382565b5b828204905092915050565b600067ffffffffffffffff82169050919050565b600061341161340c613407846133e2565b612fc5565b6126d8565b9050919050565b613421816133f6565b82525050565b600060408201905061343c6000830185612794565b6134496020830184613418565b9392505050565b7f434c4f53453a204e6f7420796f757220706f736974696f6e204f52206e6f742060008201527f756e6465727761746572204f5220696e61637469766500000000000000000000602082015250565b60006134ac603683612e0e565b91506134b782613450565b604082019050919050565b600060208201905081810360008301526134db8161349f565b9050919050565b60006020820190506134f76000830184612970565b92915050565b600081519050919050565b600081905092915050565b60005b83811015613531578082015181840152602081019050613516565b83811115613540576000848401525b50505050565b6000613551826134fd565b61355b8185613508565b935061356b818560208601613513565b80840191505092915050565b60006135838284613546565b915081905092915050565b600060c0820190506135a36000830189612794565b6135b06020830188612794565b6135bd6040830187612794565b6135ca60608301866127cd565b6135d76080830185612ff1565b6135e460a08301846126e2565b979650505050505050565b6135f8816126d8565b82525050565b6000819050919050565b613611816135fe565b82525050565b600060608201905061362c60008301866135ef565b61363960208301856135ef565b6136466040830184613608565b949350505050565b600060ff82169050919050565b6136648161364e565b811461366f57600080fd5b50565b6000815190506136818161365b565b92915050565b6000806040838503121561369e5761369d612588565b5b60006136ac85828601612eb4565b92505060206136bd85828601613672565b9150509250929050565b60006060820190506136dc6000830186612794565b6136e96020830185612794565b6136f660408301846126e2565b949350505050565b6000613709826126d8565b9150613714836126d8565b92508282101561372757613726612f62565b5b828203905092915050565b600061373d8261270c565b91506137488361270c565b9250816fffffffffffffffffffffffffffffffff048311821515161561377157613770612f62565b5b828202905092915050565b7f5354460000000000000000000000000000000000000000000000000000000000600082015250565b60006137b2600383612e0e565b91506137bd8261377c565b602082019050919050565b600060208201905081810360008301526137e1816137a5565b905091905056fea26469706673582212200823d809c01d89cdb70ab01efbbcf74b93220d5504aebe4a37d21d423cb1456b64736f6c634300080b0033",
  "immutableReferences": {},
  "source": "// SPDX-License-Identifier: MIT\npragma solidity ^0.8.0; //solhint-disable compiler-fixed\npragma abicoder v2;\n\n\nimport \"@openzeppelin/contracts/token/ERC1155/IERC1155.sol\";\nimport \"@openzeppelin/contracts/token/ERC1155/utils/ERC1155Holder.sol\";\nimport \"@openzeppelin/contracts/token/ERC20/IERC20.sol\";\nimport \"./BeraWrapper.sol\";\nimport \"./BeraSwapper.sol\";\nimport \"./ancillary/PnLCalculator.sol\";\nimport \"./ancillary/SwapOracle.sol\";\n\n\ncontract BeraPoolStandardRisk is ERC1155Holder {\n\n    struct Liquidation {\n        bool isUnderwater;\n        bool wasLiquidated;\n        address liquidator;\n    }\n\n    struct UserPositionData {\n        uint256 entryPrice; //32 bytes\n        uint128 userShortBalanceByID; //16 bytes\n        uint128 tokenAmountByPositionID; //16 bytes\n        uint64 globalPositionID; //8 bytes\n        uint24 poolFeeByPositionID; //4 bytes\n        address tokenShortedByPositionID; //20 bytes\n    }\n\n    //removed position bool >> if the position is active there will be a token\n    //if it has been closed the token is burned\n    struct Account {\n        uint lastClaimedRewards;\n        uint128 userDepositBalance;\n        uint128 userShortID; //maps to positionDetails and liqData\n        mapping(uint128 => UserPositionData) userPositionData;\n        mapping(uint128 => Liquidation) liqData;\n    }\n\n    mapping(address => Account) public users;\n    address public owner;\n\n    uint public protocolOwnedLiquidity;\n    uint public globalRewards;\n    address private constant DAI_ADDRESS = 0x6B175474E89094C44Da98b954EedeAC495271d0F;\n\n    BeraWrapper private beraWrapper;\n    BeraSwapper private beraSwapper;\n    SwapOracle private swapOracle;\n\n    constructor(BeraWrapper _beraWrapper,\n        SwapOracle _swapOracle,\n        BeraSwapper _beraSwapper) { //solhint-disable func-visibility\n        owner = msg.sender;\n        beraWrapper = _beraWrapper;\n        swapOracle = _swapOracle;\n        beraSwapper = _beraSwapper;\n    }\n\n    function depositCollateral(uint128 amount) external {\n        //used for withdrawl later\n        users[msg.sender].userDepositBalance += amount;\n        //transfer DAI to this contract\n        TransferHelper.safeTransferFrom(DAI_ADDRESS, msg.sender, address(this), amount);\n    }\n\n    function withdrawFromPool(uint128 amount, uint userShortID) external {\n        require(amount <= users[msg.sender].userDepositBalance,\n            \"WITHDRAW: too much\");\n        //checking if the funds locked in the position have been released before allowing them to be withdrawn\n        require(beraWrapper.balanceOf(msg.sender, userShortID) == 0, \"WITHDRAW: Position active\");\n        //reset balance of user on withdraw\n        users[msg.sender].userDepositBalance -= amount;\n        IERC20(DAI_ADDRESS).transfer(msg.sender, amount);\n    }\n\n    //used to claim the profit rewards from collecting trader losses in this pool\n    function claimRewards() external {\n        sendOwedProfits(msg.sender);\n    }\n\n    // deposit collateral into user account before being allowed to short\n    // amount refers to how much dai to swap for amountOut of the token the user wants to short\n    function swapShort(\n            uint amount,\n            address tokenToShort,\n            uint24 poolFee, //needed for uniswap pool\n            uint amountOutMin)\n            external { //solhint-disable function-max-lines\n                require(amount <= users[msg.sender].userDepositBalance, \"SWAP: not enough collateral\");\n                require(poolFee == 3000 || poolFee == 500, \"SWAP: Not high risk pool\");\n                //gets TWAP price, updates globals and user short ID) &&\n                //reverts here if total collateral is > total deposit amount\n                (uint priceAtWrap, uint amountToSend) =\n                    updateGlobalsAndCheckCollateral(msg.sender, amount, tokenToShort, poolFee);\n\n                //execute swapShort via swapper contract\n                uint amountOut = beraSwapper._swapShort(\n                    msg.sender,\n                    tokenToShort,\n                    DAI_ADDRESS, //this contract receives dai back\n                    poolFee,\n                    amountToSend, //amount being sent to swapper\n                    amountOutMin\n                );\n\n                beraWrapper.wrapPosition(\n                    address(this), // the associated pool\n                    amountOut,  // the amount of token shorted\n                    tokenToShort, // what token was shorted\n                    priceAtWrap // the price of 1 tokenToShort in dai\n                );\n\n                //update Account details\n                updateUserMappings(\n                    msg.sender, // the user\n                    users[msg.sender].userShortID, //the position ID\n                    priceAtWrap, // the entry price\n                    uint128(amountToSend), // how much of the users collateral has been used in this position\n                    tokenToShort,\n                    uint128(amountOut), // amount of token the contract is storing AKA size of short in token\n                    poolFee\n                );\n\n                // now we transfer dai to user and hold their tokens for them\n                uint amountToReturn = amountOut * priceAtWrap / 1e18;\n                IERC20(DAI_ADDRESS).transfer(msg.sender, amountToReturn);\n            }\n\n    function supplyShort(\n        address tokenToShort,\n        uint24 poolFee,\n        uint amount) external returns(uint amountOut) {\n        require(poolFee == 3000 || poolFee == 500, \"SWAP: Not high risk pool\");\n\n        amountOut = beraSwapper._supplyShort(\n            msg.sender, //transfer token from msg.sender\n            tokenToShort, // what token the user wants us to hold -- must be in their wallet\n            poolFee, //used to get price\n            amount, //how much they are sending\n            address(this) // sends tokent to this contract\n        );\n\n        //check that dai amount is lte deposit balance &&\n        //update globals with dai value && update user position ID\n        (uint priceAtWrap, uint amountToSend) =\n            updateGlobalsAndCheckCollateral(msg.sender, amountOut, tokenToShort, poolFee);\n\n        beraWrapper.wrapPosition(\n            address(this), //the associated pool\n            amount,  //the amount of token shorted\n            tokenToShort, //what token was shorted\n            priceAtWrap //the price of 1 tokenToShort in dai\n        );\n\n        //send dai back at market price minus fee\n        IERC20(DAI_ADDRESS).transfer(msg.sender, amountToSend);\n    }\n\n    // if you are reading this comment, this is a way for you to make some money\n    // and keep the protocol alive and kicking\n    // keep in mind that you need to have deposited collateral to receive rewards\n    function liquidateUser(address userUnderwater, address liquidator, uint128 shortID) external {\n        //get entry price by shortID and subtract by current price\n        (address token, uint24 fee) = getTokenAndFeeShortedByUser(userUnderwater, shortID);\n\n    }\n\n    function getLiquidator(address user, uint128 shortID) public view returns(address liquidator) {\n        return users[user].liqData[shortID].liquidator;\n    }\n\n    function getTotalCollateral(address user) public view returns(uint totalCollateral) {\n        for (uint128 i = 0; i <= users[user].userShortID; i++) {\n            totalCollateral += users[user].userPositionData[i].userShortBalanceByID;\n        }\n        return (totalCollateral);\n    }\n\n    function checkRewards(address user) public view returns(uint profits) {\n        return profits = checkOwedProfits(user);\n    }\n\n    function getGlobalRewards() public view returns(uint globals) {\n        return globals = globalRewards;\n    }\n\n    function getUserShortBalance(address user, uint128 shortID) public view returns(uint bal) {\n        return bal = users[user].userPositionData[shortID].userShortBalanceByID;\n    }\n\n    function getUserEntryPrice(address user, uint128 shortID) public view returns(uint entry) {\n        return entry = users[user].userPositionData[shortID].entryPrice;\n    }\n\n    function getTokenAndFeeShortedByUser(address user, uint128 shortID) public view returns(address token, uint24 fee) {\n        token = users[user].userPositionData[shortID].tokenShortedByPositionID;\n        fee = users[user].userPositionData[shortID].poolFeeByPositionID;\n        return (token, fee);\n    }\n\n    //TODO\n    // if you are liquidating an underwater position make sure to first update the user's liqData\n    function closeShort(\n        address user, //we pass in a user instead of msg.sender to accounts for liquidations\n        uint128 userShortID,\n        uint amountOutMin)\n        public {\n            require(beraWrapper.balanceOf(user, users[user].userPositionData[userShortID].globalPositionID) > 0 ||\n                users[user].liqData[userShortID].isUnderwater == true,\n                    \"CLOSE: Not your position OR not underwater OR inactive\");\n\n            //get price at pool for shortBal of positionID\n            (address token, uint24 fee) = getTokenAndFeeShortedByUser(user, userShortID);\n            uint priceAtClose = swapOracle.getSwapPrice(token, fee);\n\n            //unwrwap and free funds\n            //delegatecall so msg.sender is user and not contract\n            (bool success, ) =\n                address(beraWrapper).delegatecall( //solhint-disable avoid-low-level-calls\n                abi.encodeWithSelector(BeraWrapper.unwrapPosition.selector, userShortID));\n\n            users[user].userPositionData[userShortID].userShortBalanceByID = 0;\n\n            //swap back to DAI\n            uint amountOut = beraSwapper._swapShort(\n                msg.sender,\n                DAI_ADDRESS, //in token\n                token, // out token\n                fee,\n                users[user].userPositionData[userShortID].tokenAmountByPositionID, //amount to send\n                amountOutMin\n            );\n\n            // where returnValue of 0 = profit\n            (uint amountPNL, uint8 returnValue) = PnLCalculator.calculatePNL(\n                getUserEntryPrice(user, userShortID), //entry\n                priceAtClose, //closing price\n                int(amountOut) //trade size\n            );\n            // if the trade is a loss we update the rewards by the difference\n            if (returnValue == 1) {\n                globalRewards += amountPNL;\n            }\n            // transfer funds back from user, they are keeping the difference on a win and paying more for a loss\n            // amountOut will be used for the current market rate\n            // regardless of win/loss so we can use it in both situations\n            IERC20(DAI_ADDRESS).transferFrom(user, address(this), amountOut);\n        }\n\n    function updateUserMappings(\n        address user,\n        uint128 shortID,\n        uint entryPrice,\n        uint128 shortBalanceByID,\n        address tokenToShort,\n        uint128 tokenTradeSize,\n        uint24 poolFee\n    ) internal {\n        users[user].userPositionData[shortID].entryPrice = entryPrice;\n        //this is used to keep track of how much of the users deposit is currently being used by which positionID\n        users[user].userPositionData[shortID].userShortBalanceByID = shortBalanceByID;\n        //update token and fee by ID\n        users[user].userPositionData[shortID].tokenShortedByPositionID = tokenToShort;\n        users[user].userPositionData[shortID].tokenAmountByPositionID = tokenTradeSize;\n        users[user].userPositionData[shortID].poolFeeByPositionID = poolFee;\n    }\n\n    function updateGlobalsAndCheckCollateral(\n        address user,\n        uint amount,\n        address tokenToShort,\n        uint24 poolFee)\n        internal returns(uint priceAtWrap, uint amountToSend) {\n            priceAtWrap = swapOracle.getSwapPrice(tokenToShort, poolFee);\n\n            users[user].userShortID += 1;\n            //get total amount of collateral in shorts if user has opened a position before\n            //also check that current amount + total < deposit balance\n            if (getTotalCollateral(user) > 0) {\n                require(getTotalCollateral(user) <= users[user].userDepositBalance,\n                    \"SWAP: not enough collateral\");\n                require(amount + getTotalCollateral(user) <= users[user].userDepositBalance,\n                    \"SWAP: not enough collateral\");\n            }\n\n            //1% is kept as fee to protocol to assist in paying out users\n            amountToSend = amount * 99 / 100;\n            //update global so we know how much of deposited amount belongs to users vs protocol\n            protocolOwnedLiquidity += amount - amountToSend;\n        }\n\n    //the percentage reward is based on the last time they claimed vs the total reward calculated\n    //this will allow us to avoid using a loop for reward distribution\n    //and allow users to pull their own rewards when they want\n    function checkOwedProfits(address user) internal view returns (uint128) {\n        uint percentageReward = globalRewards - users[user].lastClaimedRewards;\n        return users[user].userDepositBalance * uint128(percentageReward /\n                IERC20(DAI_ADDRESS).balanceOf(address(this)));\n    }\n\n    function sendOwedProfits(address user) internal {\n        uint128 owed = checkOwedProfits(user);\n        if (owed > 0) {\n            users[user].userDepositBalance += owed;\n            users[user].lastClaimedRewards = globalRewards;\n        }\n    }\n\n}\n",
  "sourcePath": "/home/kevin/Code/solidity_projects/beraMarket/contracts/BeraPoolStandardRisk.sol",
  "compiler": {
    "name": "solc",
    "version": "0.8.11+commit.d7f03943.Emscripten.clang"
  },
  "schemaVersion": "3.4.3",
  "updatedAt": "2022-01-15T15:37:29.405Z",
  "networkType": "ethereum",
  "devdoc": {
    "kind": "dev",
    "methods": {
      "supportsInterface(bytes4)": {
        "details": "See {IERC165-supportsInterface}."
      }
    },
    "version": 1
  },
  "userdoc": {
    "kind": "user",
    "methods": {},
    "version": 1
  }
}