{
  "contractName": "BeraPoolStandardRisk",
  "abi": [
    {
      "inputs": [
        {
          "internalType": "contract ISwapRouter",
          "name": "_swapRouter",
          "type": "address"
        },
        {
          "internalType": "contract BeraWrapper",
          "name": "_beraWrapper",
          "type": "address"
        }
      ],
      "stateMutability": "nonpayable",
      "type": "constructor"
    },
    {
      "stateMutability": "payable",
      "type": "fallback",
      "payable": true
    },
    {
      "inputs": [],
      "name": "beraWrapper",
      "outputs": [
        {
          "internalType": "contract BeraWrapper",
          "name": "",
          "type": "address"
        }
      ],
      "stateMutability": "view",
      "type": "function",
      "constant": true
    },
    {
      "inputs": [],
      "name": "globalRewards",
      "outputs": [
        {
          "internalType": "uint256",
          "name": "",
          "type": "uint256"
        }
      ],
      "stateMutability": "view",
      "type": "function",
      "constant": true
    },
    {
      "inputs": [
        {
          "internalType": "address",
          "name": "",
          "type": "address"
        },
        {
          "internalType": "address",
          "name": "",
          "type": "address"
        },
        {
          "internalType": "uint256[]",
          "name": "",
          "type": "uint256[]"
        },
        {
          "internalType": "uint256[]",
          "name": "",
          "type": "uint256[]"
        },
        {
          "internalType": "bytes",
          "name": "",
          "type": "bytes"
        }
      ],
      "name": "onERC1155BatchReceived",
      "outputs": [
        {
          "internalType": "bytes4",
          "name": "",
          "type": "bytes4"
        }
      ],
      "stateMutability": "nonpayable",
      "type": "function"
    },
    {
      "inputs": [
        {
          "internalType": "address",
          "name": "",
          "type": "address"
        },
        {
          "internalType": "address",
          "name": "",
          "type": "address"
        },
        {
          "internalType": "uint256",
          "name": "",
          "type": "uint256"
        },
        {
          "internalType": "uint256",
          "name": "",
          "type": "uint256"
        },
        {
          "internalType": "bytes",
          "name": "",
          "type": "bytes"
        }
      ],
      "name": "onERC1155Received",
      "outputs": [
        {
          "internalType": "bytes4",
          "name": "",
          "type": "bytes4"
        }
      ],
      "stateMutability": "nonpayable",
      "type": "function"
    },
    {
      "inputs": [],
      "name": "owner",
      "outputs": [
        {
          "internalType": "address",
          "name": "",
          "type": "address"
        }
      ],
      "stateMutability": "view",
      "type": "function",
      "constant": true
    },
    {
      "inputs": [
        {
          "internalType": "bytes4",
          "name": "interfaceId",
          "type": "bytes4"
        }
      ],
      "name": "supportsInterface",
      "outputs": [
        {
          "internalType": "bool",
          "name": "",
          "type": "bool"
        }
      ],
      "stateMutability": "view",
      "type": "function",
      "constant": true
    },
    {
      "inputs": [],
      "name": "swapRouter",
      "outputs": [
        {
          "internalType": "contract ISwapRouter",
          "name": "",
          "type": "address"
        }
      ],
      "stateMutability": "view",
      "type": "function",
      "constant": true
    },
    {
      "inputs": [
        {
          "internalType": "address",
          "name": "",
          "type": "address"
        }
      ],
      "name": "users",
      "outputs": [
        {
          "internalType": "uint256",
          "name": "userDepositBalance",
          "type": "uint256"
        },
        {
          "internalType": "uint256",
          "name": "lastClaimedRewards",
          "type": "uint256"
        },
        {
          "internalType": "uint256",
          "name": "userShortID",
          "type": "uint256"
        }
      ],
      "stateMutability": "view",
      "type": "function",
      "constant": true
    },
    {
      "stateMutability": "payable",
      "type": "receive",
      "payable": true
    },
    {
      "inputs": [
        {
          "internalType": "uint256",
          "name": "amount",
          "type": "uint256"
        },
        {
          "internalType": "address",
          "name": "collateral",
          "type": "address"
        }
      ],
      "name": "depositCollateral",
      "outputs": [],
      "stateMutability": "nonpayable",
      "type": "function"
    },
    {
      "inputs": [
        {
          "internalType": "uint256",
          "name": "amount",
          "type": "uint256"
        },
        {
          "internalType": "uint256",
          "name": "_userShortID",
          "type": "uint256"
        }
      ],
      "name": "withdrawFromPool",
      "outputs": [],
      "stateMutability": "nonpayable",
      "type": "function"
    },
    {
      "inputs": [],
      "name": "claimRewards",
      "outputs": [],
      "stateMutability": "nonpayable",
      "type": "function"
    },
    {
      "inputs": [
        {
          "internalType": "uint256",
          "name": "amount",
          "type": "uint256"
        },
        {
          "internalType": "address",
          "name": "tokenToShort",
          "type": "address"
        },
        {
          "internalType": "uint24",
          "name": "poolFee",
          "type": "uint24"
        },
        {
          "internalType": "uint256",
          "name": "amountOutMin",
          "type": "uint256"
        }
      ],
      "name": "swapAndShortStandard",
      "outputs": [
        {
          "internalType": "uint256",
          "name": "amountOut",
          "type": "uint256"
        }
      ],
      "stateMutability": "nonpayable",
      "type": "function"
    },
    {
      "inputs": [
        {
          "internalType": "address",
          "name": "user",
          "type": "address"
        },
        {
          "internalType": "uint256",
          "name": "_userShortID",
          "type": "uint256"
        },
        {
          "internalType": "uint256",
          "name": "priceAtClose",
          "type": "uint256"
        }
      ],
      "name": "closeShortStandardPool",
      "outputs": [],
      "stateMutability": "nonpayable",
      "type": "function"
    },
    {
      "inputs": [
        {
          "internalType": "address",
          "name": "user",
          "type": "address"
        }
      ],
      "name": "checkRewards",
      "outputs": [
        {
          "internalType": "uint256",
          "name": "profits",
          "type": "uint256"
        }
      ],
      "stateMutability": "view",
      "type": "function",
      "constant": true
    },
    {
      "inputs": [],
      "name": "getGlobalRewards",
      "outputs": [
        {
          "internalType": "uint256",
          "name": "globals",
          "type": "uint256"
        }
      ],
      "stateMutability": "view",
      "type": "function",
      "constant": true
    },
    {
      "inputs": [
        {
          "internalType": "address",
          "name": "user",
          "type": "address"
        },
        {
          "internalType": "uint256",
          "name": "shortID",
          "type": "uint256"
        }
      ],
      "name": "getUserShortBalance",
      "outputs": [
        {
          "internalType": "uint256",
          "name": "bal",
          "type": "uint256"
        }
      ],
      "stateMutability": "view",
      "type": "function",
      "constant": true
    },
    {
      "inputs": [
        {
          "internalType": "address",
          "name": "user",
          "type": "address"
        },
        {
          "internalType": "uint256",
          "name": "shortID",
          "type": "uint256"
        }
      ],
      "name": "getUserEntryPrice",
      "outputs": [
        {
          "internalType": "uint256",
          "name": "entry",
          "type": "uint256"
        }
      ],
      "stateMutability": "view",
      "type": "function",
      "constant": true
    },
    {
      "inputs": [
        {
          "internalType": "address",
          "name": "user",
          "type": "address"
        },
        {
          "internalType": "uint256",
          "name": "shortID",
          "type": "uint256"
        }
      ],
      "name": "getUserShortBool",
      "outputs": [
        {
          "internalType": "bool",
          "name": "isShort",
          "type": "bool"
        }
      ],
      "stateMutability": "view",
      "type": "function",
      "constant": true
    }
  ],
  "bytecode": "0x60a06040523480156200001157600080fd5b5060405162002c8838038062002c888339818101604052810190620000379190620001b7565b336000806101000a81548173ffffffffffffffffffffffffffffffffffffffff021916908373ffffffffffffffffffffffffffffffffffffffff1602179055508173ffffffffffffffffffffffffffffffffffffffff1660808173ffffffffffffffffffffffffffffffffffffffff168152505080600360006101000a81548173ffffffffffffffffffffffffffffffffffffffff021916908373ffffffffffffffffffffffffffffffffffffffff1602179055505050620001fe565b600080fd5b600073ffffffffffffffffffffffffffffffffffffffff82169050919050565b60006200012682620000f9565b9050919050565b60006200013a8262000119565b9050919050565b6200014c816200012d565b81146200015857600080fd5b50565b6000815190506200016c8162000141565b92915050565b60006200017f8262000119565b9050919050565b620001918162000172565b81146200019d57600080fd5b50565b600081519050620001b18162000186565b92915050565b60008060408385031215620001d157620001d0620000f4565b5b6000620001e1858286016200015b565b9250506020620001f485828601620001a0565b9150509250929050565b608051612a526200023660003960008181610c7301528181610d4a01528181610f65015281816116d701526117ae0152612a526000f3fe60806040526004361061010d5760003560e01c806380a0b0fc11610095578063aac28b5411610064578063aac28b541461039b578063bc197c81146103d8578063c31c9c0714610415578063ef1b316614610440578063f23a6e611461046957610114565b806380a0b0fc146102db5780638da5cb5b14610306578063a29aa11414610331578063a87430ba1461035c57610114565b8063372500ab116100dc578063372500ab1461020a578063481fef8a146102215780635e1691361461024a5780637423031e146102875780637b1609b1146102b257610114565b806301ffc9a714610116578063028bdf7c14610153578063046ff0d31461019057806309d3e9c3146101cd57610114565b3661011457005b005b34801561012257600080fd5b5061013d600480360381019061013891906119f0565b6104a6565b60405161014a9190611a38565b60405180910390f35b34801561015f57600080fd5b5061017a60048036038101906101759190611ae7565b610520565b6040516101879190611a38565b60405180910390f35b34801561019c57600080fd5b506101b760048036038101906101b29190611b27565b61058b565b6040516101c49190611b63565b60405180910390f35b3480156101d957600080fd5b506101f460048036038101906101ef9190611ae7565b61059d565b6040516102019190611b63565b60405180910390f35b34801561021657600080fd5b5061021f6105fb565b005b34801561022d57600080fd5b5061024860048036038101906102439190611b7e565b610606565b005b34801561025657600080fd5b50610271600480360381019061026c9190611ae7565b610766565b60405161027e9190611b63565b60405180910390f35b34801561029357600080fd5b5061029c6107c4565b6040516102a99190611b63565b60405180910390f35b3480156102be57600080fd5b506102d960048036038101906102d49190611bbe565b6107ca565b005b3480156102e757600080fd5b506102f0610abe565b6040516102fd9190611b63565b60405180910390f35b34801561031257600080fd5b5061031b610ac8565b6040516103289190611c20565b60405180910390f35b34801561033d57600080fd5b50610346610aec565b6040516103539190611c9a565b60405180910390f35b34801561036857600080fd5b50610383600480360381019061037e9190611b27565b610b12565b60405161039293929190611cb5565b60405180910390f35b3480156103a757600080fd5b506103c260048036038101906103bd9190611d27565b610b3c565b6040516103cf9190611b63565b60405180910390f35b3480156103e457600080fd5b506103ff60048036038101906103fa9190611f9c565b610f4e565b60405161040c919061207a565b60405180910390f35b34801561042157600080fd5b5061042a610f63565b60405161043791906120b6565b60405180910390f35b34801561044c57600080fd5b50610467600480360381019061046291906120d1565b610f87565b005b34801561047557600080fd5b50610490600480360381019061048b9190612111565b6111a3565b60405161049d919061207a565b60405180910390f35b60007f4e2312e0000000000000000000000000000000000000000000000000000000007bffffffffffffffffffffffffffffffffffffffffffffffffffffffff1916827bffffffffffffffffffffffffffffffffffffffffffffffffffffffff191614806105195750610518826111b8565b5b9050919050565b6000600160008473ffffffffffffffffffffffffffffffffffffffff1673ffffffffffffffffffffffffffffffffffffffff168152602001908152602001600020600501600083815260200190815260200160002060009054906101000a900460ff16905092915050565b600061059682611222565b9050919050565b6000600160008473ffffffffffffffffffffffffffffffffffffffff1673ffffffffffffffffffffffffffffffffffffffff168152602001908152602001600020600301600083815260200190815260200160002054905092915050565b61060433611365565b565b736b175474e89094c44da98b954eedeac495271d0f73ffffffffffffffffffffffffffffffffffffffff168173ffffffffffffffffffffffffffffffffffffffff1614610688576040517f08c379a000000000000000000000000000000000000000000000000000000000815260040161067f90612205565b60405180910390fd5b81600160003373ffffffffffffffffffffffffffffffffffffffff1673ffffffffffffffffffffffffffffffffffffffff16815260200190815260200160002060000160008282546106da9190612254565b925050819055508073ffffffffffffffffffffffffffffffffffffffff166323b872dd3330856040518463ffffffff1660e01b815260040161071e939291906122aa565b6020604051808303816000875af115801561073d573d6000803e3d6000fd5b505050506040513d601f19601f82011682018060405250810190610761919061230d565b505050565b6000600160008473ffffffffffffffffffffffffffffffffffffffff1673ffffffffffffffffffffffffffffffffffffffff168152602001908152602001600020600401600083815260200190815260200160002054905092915050565b60025481565b3373ffffffffffffffffffffffffffffffffffffffff168373ffffffffffffffffffffffffffffffffffffffff1614610838576040517f08c379a000000000000000000000000000000000000000000000000000000000815260040161082f90612386565b60405180910390fd5b60008073__PnLCalculator_________________________63896b198a600160003373ffffffffffffffffffffffffffffffffffffffff1673ffffffffffffffffffffffffffffffffffffffff168152602001908152602001600020600401600087815260200190815260200160002054856040518363ffffffff1660e01b81526004016108c79291906123b5565b6040805180830381865af41580156108e3573d6000803e3d6000fd5b505050506040513d601f19601f82011682018060405250810190610907919061242c565b60ff169150915060008114156109755781600160003373ffffffffffffffffffffffffffffffffffffffff1673ffffffffffffffffffffffffffffffffffffffff16815260200190815260200160002060000160008282546109699190612254565b925050819055506109f2565b60018114156109f15781600160003373ffffffffffffffffffffffffffffffffffffffff1673ffffffffffffffffffffffffffffffffffffffff16815260200190815260200160002060000160008282546109d0919061246c565b9250508190555081600260008282546109e99190612254565b925050819055505b5b6000600160003373ffffffffffffffffffffffffffffffffffffffff1673ffffffffffffffffffffffffffffffffffffffff168152602001908152602001600020600501600086815260200190815260200160002060006101000a81548160ff0219169083151502179055506000600160003373ffffffffffffffffffffffffffffffffffffffff1673ffffffffffffffffffffffffffffffffffffffff1681526020019081526020016000206003016000868152602001908152602001600020819055505050505050565b6000600254905090565b60008054906101000a900473ffffffffffffffffffffffffffffffffffffffff1681565b600360009054906101000a900473ffffffffffffffffffffffffffffffffffffffff1681565b60016020528060005260406000206000915090508060000154908060010154908060020154905083565b6000600160003373ffffffffffffffffffffffffffffffffffffffff1673ffffffffffffffffffffffffffffffffffffffff16815260200190815260200160002060000154851115610bc3576040517f08c379a0000000000000000000000000000000000000000000000000000000008152600401610bba906124ec565b60405180910390fd5b60018060003373ffffffffffffffffffffffffffffffffffffffff1673ffffffffffffffffffffffffffffffffffffffff1681526020019081526020016000206002016000828254610c159190612254565b9250508190555060006064605f87610c2d919061250c565b610c379190612595565b9050610c59736b175474e89094c44da98b954eedeac495271d0f333089611422565b610c98736b175474e89094c44da98b954eedeac495271d0f7f00000000000000000000000000000000000000000000000000000000000000008861157a565b6000604051806101000160405280736b175474e89094c44da98b954eedeac495271d0f73ffffffffffffffffffffffffffffffffffffffff1681526020018773ffffffffffffffffffffffffffffffffffffffff1681526020018662ffffff1681526020013073ffffffffffffffffffffffffffffffffffffffff168152602001428152602001838152602001858152602001600073ffffffffffffffffffffffffffffffffffffffff1681525090507f000000000000000000000000000000000000000000000000000000000000000073ffffffffffffffffffffffffffffffffffffffff1663414bf389826040518263ffffffff1660e01b8152600401610da191906126a4565b6020604051808303816000875af1158015610dc0573d6000803e3d6000fd5b505050506040513d601f19601f82011682018060405250810190610de491906126c0565b92506000610bb89050610dfb33888389888a6116cf565b5080600160003373ffffffffffffffffffffffffffffffffffffffff1673ffffffffffffffffffffffffffffffffffffffff1681526020019081526020016000206004016000600160003373ffffffffffffffffffffffffffffffffffffffff1673ffffffffffffffffffffffffffffffffffffffff1681526020019081526020016000206002015481526020019081526020016000208190555060018060003373ffffffffffffffffffffffffffffffffffffffff1673ffffffffffffffffffffffffffffffffffffffff1681526020019081526020016000206005016000600160003373ffffffffffffffffffffffffffffffffffffffff1673ffffffffffffffffffffffffffffffffffffffff16815260200190815260200160002060020154815260200190815260200160002060006101000a81548160ff021916908315150217905550505050949350505050565b600063bc197c8160e01b905095945050505050565b7f000000000000000000000000000000000000000000000000000000000000000081565b600160003373ffffffffffffffffffffffffffffffffffffffff1673ffffffffffffffffffffffffffffffffffffffff1681526020019081526020016000206000015482111561100c576040517f08c379a00000000000000000000000000000000000000000000000000000000081526004016110039061275f565b60405180910390fd5b60001515600160003373ffffffffffffffffffffffffffffffffffffffff1673ffffffffffffffffffffffffffffffffffffffff168152602001908152602001600020600501600083815260200190815260200160002060009054906101000a900460ff161515146110b3576040517f08c379a00000000000000000000000000000000000000000000000000000000081526004016110aa90612817565b60405180910390fd5b81600160003373ffffffffffffffffffffffffffffffffffffffff1673ffffffffffffffffffffffffffffffffffffffff1681526020019081526020016000206000016000828254611105919061246c565b92505081905550736b175474e89094c44da98b954eedeac495271d0f73ffffffffffffffffffffffffffffffffffffffff1663a9059cbb33846040518363ffffffff1660e01b815260040161115b929190612837565b6020604051808303816000875af115801561117a573d6000803e3d6000fd5b505050506040513d601f19601f8201168201806040525081019061119e919061230d565b505050565b600063f23a6e6160e01b905095945050505050565b60007f01ffc9a7000000000000000000000000000000000000000000000000000000007bffffffffffffffffffffffffffffffffffffffffffffffffffffffff1916827bffffffffffffffffffffffffffffffffffffffffffffffffffffffff1916149050919050565b600080600160008473ffffffffffffffffffffffffffffffffffffffff1673ffffffffffffffffffffffffffffffffffffffff16815260200190815260200160002060010154600254611275919061246c565b9050736b175474e89094c44da98b954eedeac495271d0f73ffffffffffffffffffffffffffffffffffffffff166370a08231306040518263ffffffff1660e01b81526004016112c49190611c20565b602060405180830381865afa1580156112e1573d6000803e3d6000fd5b505050506040513d601f19601f8201168201806040525081019061130591906126c0565b81600160008673ffffffffffffffffffffffffffffffffffffffff1673ffffffffffffffffffffffffffffffffffffffff16815260200190815260200160002060000154611353919061250c565b61135d9190612595565b915050919050565b600061137082611222565b9050600081111561141e5780600160008473ffffffffffffffffffffffffffffffffffffffff1673ffffffffffffffffffffffffffffffffffffffff16815260200190815260200160002060000160008282546113cd9190612254565b92505081905550600254600160008473ffffffffffffffffffffffffffffffffffffffff1673ffffffffffffffffffffffffffffffffffffffff168152602001908152602001600020600101819055505b5050565b6000808573ffffffffffffffffffffffffffffffffffffffff166323b872dd60e01b868686604051602401611459939291906122aa565b604051602081830303815290604052907bffffffffffffffffffffffffffffffffffffffffffffffffffffffff19166020820180517bffffffffffffffffffffffffffffffffffffffffffffffffffffffff83818316178352505050506040516114c391906128da565b6000604051808303816000865af19150503d8060008114611500576040519150601f19603f3d011682016040523d82523d6000602084013e611505565b606091505b50915091508180156115335750600081511480611532575080806020019051810190611531919061230d565b5b5b611572576040517f08c379a00000000000000000000000000000000000000000000000000000000081526004016115699061293d565b60405180910390fd5b505050505050565b6000808473ffffffffffffffffffffffffffffffffffffffff1663095ea7b360e01b85856040516024016115af929190612837565b604051602081830303815290604052907bffffffffffffffffffffffffffffffffffffffffffffffffffffffff19166020820180517bffffffffffffffffffffffffffffffffffffffffffffffffffffffff838183161783525050505060405161161991906128da565b6000604051808303816000865af19150503d8060008114611656576040519150601f19603f3d011682016040523d82523d6000602084013e61165b565b606091505b50915091508180156116895750600081511480611688575080806020019051810190611687919061230d565b5b5b6116c8576040517f08c379a00000000000000000000000000000000000000000000000000000000081526004016116bf906129a9565b60405180910390fd5b5050505050565b60006116fc867f00000000000000000000000000000000000000000000000000000000000000008561157a565b60006040518061010001604052808873ffffffffffffffffffffffffffffffffffffffff168152602001736b175474e89094c44da98b954eedeac495271d0f73ffffffffffffffffffffffffffffffffffffffff1681526020018662ffffff1681526020013073ffffffffffffffffffffffffffffffffffffffff168152602001428152602001858152602001848152602001600073ffffffffffffffffffffffffffffffffffffffff1681525090507f000000000000000000000000000000000000000000000000000000000000000073ffffffffffffffffffffffffffffffffffffffff1663414bf389826040518263ffffffff1660e01b815260040161180591906126a4565b6020604051808303816000875af1158015611824573d6000803e3d6000fd5b505050506040513d601f19601f8201168201806040525081019061184891906126c0565b915081600160003373ffffffffffffffffffffffffffffffffffffffff1673ffffffffffffffffffffffffffffffffffffffff1681526020019081526020016000206003016000600160003373ffffffffffffffffffffffffffffffffffffffff1673ffffffffffffffffffffffffffffffffffffffff16815260200190815260200160002060020154815260200190815260200160002081905550600360009054906101000a900473ffffffffffffffffffffffffffffffffffffffff1673ffffffffffffffffffffffffffffffffffffffff1663c25df92d8930878b8b6040518663ffffffff1660e01b81526004016119479594939291906129c9565b600060405180830381600087803b15801561196157600080fd5b505af1158015611975573d6000803e3d6000fd5b50505050509695505050505050565b6000604051905090565b600080fd5b600080fd5b60007fffffffff0000000000000000000000000000000000000000000000000000000082169050919050565b6119cd81611998565b81146119d857600080fd5b50565b6000813590506119ea816119c4565b92915050565b600060208284031215611a0657611a0561198e565b5b6000611a14848285016119db565b91505092915050565b60008115159050919050565b611a3281611a1d565b82525050565b6000602082019050611a4d6000830184611a29565b92915050565b600073ffffffffffffffffffffffffffffffffffffffff82169050919050565b6000611a7e82611a53565b9050919050565b611a8e81611a73565b8114611a9957600080fd5b50565b600081359050611aab81611a85565b92915050565b6000819050919050565b611ac481611ab1565b8114611acf57600080fd5b50565b600081359050611ae181611abb565b92915050565b60008060408385031215611afe57611afd61198e565b5b6000611b0c85828601611a9c565b9250506020611b1d85828601611ad2565b9150509250929050565b600060208284031215611b3d57611b3c61198e565b5b6000611b4b84828501611a9c565b91505092915050565b611b5d81611ab1565b82525050565b6000602082019050611b786000830184611b54565b92915050565b60008060408385031215611b9557611b9461198e565b5b6000611ba385828601611ad2565b9250506020611bb485828601611a9c565b9150509250929050565b600080600060608486031215611bd757611bd661198e565b5b6000611be586828701611a9c565b9350506020611bf686828701611ad2565b9250506040611c0786828701611ad2565b9150509250925092565b611c1a81611a73565b82525050565b6000602082019050611c356000830184611c11565b92915050565b6000819050919050565b6000611c60611c5b611c5684611a53565b611c3b565b611a53565b9050919050565b6000611c7282611c45565b9050919050565b6000611c8482611c67565b9050919050565b611c9481611c79565b82525050565b6000602082019050611caf6000830184611c8b565b92915050565b6000606082019050611cca6000830186611b54565b611cd76020830185611b54565b611ce46040830184611b54565b949350505050565b600062ffffff82169050919050565b611d0481611cec565b8114611d0f57600080fd5b50565b600081359050611d2181611cfb565b92915050565b60008060008060808587031215611d4157611d4061198e565b5b6000611d4f87828801611ad2565b9450506020611d6087828801611a9c565b9350506040611d7187828801611d12565b9250506060611d8287828801611ad2565b91505092959194509250565b600080fd5b6000601f19601f8301169050919050565b7f4e487b7100000000000000000000000000000000000000000000000000000000600052604160045260246000fd5b611ddc82611d93565b810181811067ffffffffffffffff82111715611dfb57611dfa611da4565b5b80604052505050565b6000611e0e611984565b9050611e1a8282611dd3565b919050565b600067ffffffffffffffff821115611e3a57611e39611da4565b5b602082029050602081019050919050565b600080fd5b6000611e63611e5e84611e1f565b611e04565b90508083825260208201905060208402830185811115611e8657611e85611e4b565b5b835b81811015611eaf5780611e9b8882611ad2565b845260208401935050602081019050611e88565b5050509392505050565b600082601f830112611ece57611ecd611d8e565b5b8135611ede848260208601611e50565b91505092915050565b600080fd5b600067ffffffffffffffff821115611f0757611f06611da4565b5b611f1082611d93565b9050602081019050919050565b82818337600083830152505050565b6000611f3f611f3a84611eec565b611e04565b905082815260208101848484011115611f5b57611f5a611ee7565b5b611f66848285611f1d565b509392505050565b600082601f830112611f8357611f82611d8e565b5b8135611f93848260208601611f2c565b91505092915050565b600080600080600060a08688031215611fb857611fb761198e565b5b6000611fc688828901611a9c565b9550506020611fd788828901611a9c565b945050604086013567ffffffffffffffff811115611ff857611ff7611993565b5b61200488828901611eb9565b935050606086013567ffffffffffffffff81111561202557612024611993565b5b61203188828901611eb9565b925050608086013567ffffffffffffffff81111561205257612051611993565b5b61205e88828901611f6e565b9150509295509295909350565b61207481611998565b82525050565b600060208201905061208f600083018461206b565b92915050565b60006120a082611c67565b9050919050565b6120b081612095565b82525050565b60006020820190506120cb60008301846120a7565b92915050565b600080604083850312156120e8576120e761198e565b5b60006120f685828601611ad2565b925050602061210785828601611ad2565b9150509250929050565b600080600080600060a0868803121561212d5761212c61198e565b5b600061213b88828901611a9c565b955050602061214c88828901611a9c565b945050604061215d88828901611ad2565b935050606061216e88828901611ad2565b925050608086013567ffffffffffffffff81111561218f5761218e611993565b5b61219b88828901611f6e565b9150509295509295909350565b600082825260208201905092915050565b7f5354414e4441524420504f4f4c3a204e6f742044414900000000000000000000600082015250565b60006121ef6016836121a8565b91506121fa826121b9565b602082019050919050565b6000602082019050818103600083015261221e816121e2565b9050919050565b7f4e487b7100000000000000000000000000000000000000000000000000000000600052601160045260246000fd5b600061225f82611ab1565b915061226a83611ab1565b9250827fffffffffffffffffffffffffffffffffffffffffffffffffffffffffffffffff0382111561229f5761229e612225565b5b828201905092915050565b60006060820190506122bf6000830186611c11565b6122cc6020830185611c11565b6122d96040830184611b54565b949350505050565b6122ea81611a1d565b81146122f557600080fd5b50565b600081519050612307816122e1565b92915050565b6000602082840312156123235761232261198e565b5b6000612331848285016122f8565b91505092915050565b7f434c4f53453a204e6f7420796f757220706f736974696f6e0000000000000000600082015250565b60006123706018836121a8565b915061237b8261233a565b602082019050919050565b6000602082019050818103600083015261239f81612363565b9050919050565b6123af81611ab1565b82525050565b60006040820190506123ca60008301856123a6565b6123d760208301846123a6565b9392505050565b6000815190506123ed81611abb565b92915050565b600060ff82169050919050565b612409816123f3565b811461241457600080fd5b50565b60008151905061242681612400565b92915050565b600080604083850312156124435761244261198e565b5b6000612451858286016123de565b925050602061246285828601612417565b9150509250929050565b600061247782611ab1565b915061248283611ab1565b92508282101561249557612494612225565b5b828203905092915050565b7f535741503a206e6f7420656e6f75676820636f6c6c61746572616c0000000000600082015250565b60006124d6601b836121a8565b91506124e1826124a0565b602082019050919050565b60006020820190508181036000830152612505816124c9565b9050919050565b600061251782611ab1565b915061252283611ab1565b9250817fffffffffffffffffffffffffffffffffffffffffffffffffffffffffffffffff048311821515161561255b5761255a612225565b5b828202905092915050565b7f4e487b7100000000000000000000000000000000000000000000000000000000600052601260045260246000fd5b60006125a082611ab1565b91506125ab83611ab1565b9250826125bb576125ba612566565b5b828204905092915050565b6125cf81611a73565b82525050565b6125de81611cec565b82525050565b6125ed81611ab1565b82525050565b6125fc81611a53565b82525050565b6101008201600082015161261960008501826125c6565b50602082015161262c60208501826125c6565b50604082015161263f60408501826125d5565b50606082015161265260608501826125c6565b50608082015161266560808501826125e4565b5060a082015161267860a08501826125e4565b5060c082015161268b60c08501826125e4565b5060e082015161269e60e08501826125f3565b50505050565b6000610100820190506126ba6000830184612602565b92915050565b6000602082840312156126d6576126d561198e565b5b60006126e4848285016123de565b91505092915050565b7f434f4c4c41544552414c3a20747279696e6720746f207769746864726177206d60008201527f6f726520636f6c6c61746572616c207468616e206465706f7369746564000000602082015250565b6000612749603d836121a8565b9150612754826126ed565b604082019050919050565b600060208201905081810360008301526127788161273c565b9050919050565b7f434f4c4c41544552414c3a20636c6f736520796f75722063757272656e74207060008201527f6f736974696f6e206265666f726520747279696e6720746f207769746864726160208201527f7700000000000000000000000000000000000000000000000000000000000000604082015250565b60006128016041836121a8565b915061280c8261277f565b606082019050919050565b60006020820190508181036000830152612830816127f4565b9050919050565b600060408201905061284c6000830185611c11565b6128596020830184611b54565b9392505050565b600081519050919050565b600081905092915050565b60005b83811015612894578082015181840152602081019050612879565b838111156128a3576000848401525b50505050565b60006128b482612860565b6128be818561286b565b93506128ce818560208601612876565b80840191505092915050565b60006128e682846128a9565b915081905092915050565b7f5354460000000000000000000000000000000000000000000000000000000000600082015250565b60006129276003836121a8565b9150612932826128f1565b602082019050919050565b600060208201905081810360008301526129568161291a565b9050919050565b7f5341000000000000000000000000000000000000000000000000000000000000600082015250565b60006129936002836121a8565b915061299e8261295d565b602082019050919050565b600060208201905081810360008301526129c281612986565b9050919050565b600060a0820190506129de6000830188611c11565b6129eb6020830187611c11565b6129f86040830186611b54565b612a056060830185611c11565b612a126080830184611b54565b969550505050505056fea2646970667358221220f145c034a79689bf59345dfd3c45b431e13aefe78d4650b7a69616321dda280464736f6c634300080b0033",
  "immutableReferences": {
    "2122": [
      {
        "length": 32,
        "start": 3187
      },
      {
        "length": 32,
        "start": 3402
      },
      {
        "length": 32,
        "start": 3941
      },
      {
        "length": 32,
        "start": 5847
      },
      {
        "length": 32,
        "start": 6062
      }
    ]
  },
  "source": "// SPDX-License-Identifier: MIT\npragma solidity ^0.8.0; //solhint-disable compiler-fixed\npragma abicoder v2;\n\n\nimport \"@openzeppelin/contracts/token/ERC1155/IERC1155.sol\";\nimport \"@openzeppelin/contracts/token/ERC1155/utils/ERC1155Holder.sol\";\nimport \"@uniswap/v3-periphery/contracts/interfaces/ISwapRouter.sol\";\nimport \"@uniswap/v3-periphery/contracts/libraries/TransferHelper.sol\";\nimport \"@openzeppelin/contracts/token/ERC20/IERC20.sol\";\nimport \"./BeraWrapper.sol\";\nimport \"./ancillary/PnLCalculator.sol\";\n\n\ncontract BeraPoolStandardRisk is ERC1155Holder {\n\n    address public owner;\n\n    struct Account {\n        uint userDepositBalance;\n        uint lastClaimedRewards;\n        uint userShortID;\n        mapping(uint => uint) userShortBalanceByID;\n        mapping(uint => uint) entryPrices;\n        mapping(uint => bool) isPositionInShort;\n    }\n\n    mapping(address => Account) public users;\n\n    uint public globalRewards;\n\n    address private constant DAI_ADDRESS = 0x6B175474E89094C44Da98b954EedeAC495271d0F;\n\n    ISwapRouter public immutable swapRouter;\n    BeraWrapper public beraWrapper;\n\n    constructor(ISwapRouter _swapRouter,\n        BeraWrapper _beraWrapper) { //solhint-disable func-visibility\n        owner = msg.sender;\n        swapRouter = _swapRouter;\n        beraWrapper = _beraWrapper;\n    }\n\n    function depositCollateral(uint amount, address collateral) external {\n        require(IERC20(collateral) == IERC20(DAI_ADDRESS), \"STANDARD POOL: Not DAI\");\n\n        //used for withdrawl later\n        users[msg.sender].userDepositBalance += amount;\n\n\n        //transfer DAI to this contract\n        IERC20(collateral).transferFrom(msg.sender, address(this), amount);\n    }\n\n    function withdrawFromPool(uint amount, uint _userShortID) external {\n        require(amount <= users[msg.sender].userDepositBalance,\n            \"COLLATERAL: trying to withdraw more collateral than deposited\");\n\n        //checking if the funds locked in the position have been released before allowing them to be withdrawn\n        require(users[msg.sender].isPositionInShort[_userShortID] == false,\n            \"COLLATERAL: close your current position before trying to withdraw\");\n\n        //reset balance of user on withdraw\n        users[msg.sender].userDepositBalance -= amount;\n\n        IERC20(DAI_ADDRESS).transfer(msg.sender, amount);\n    }\n\n    //used to claim the profit rewards from being in the pool\n    function claimRewards() external {\n        sendOwedProfits(msg.sender);\n    }\n\n    // deposit collateral into user account before being allowed to short\n    function swapAndShortStandard(\n            uint amount,\n            address tokenToShort,\n            uint24 poolFee, //needed for uniswap pool\n            uint amountOutMin)\n            external returns(uint amountOut) { //solhint-disable function-max-lines\n                require(amount <= users[msg.sender].userDepositBalance, \"SWAP: not enough collateral\");\n\n                //TODO\n                //update userDepositBalance -= amount;\n\n                //by default uints are initialized at 0 so this should work???\n                users[msg.sender].userShortID += 1;\n\n                //keeping 5% of dai in contract to be distributed to liq providers on loss of pool\n                uint amountToSend = amount * 95 / 100;\n\n                TransferHelper.safeTransferFrom(DAI_ADDRESS, msg.sender, address(this), amount);\n                TransferHelper.safeApprove(DAI_ADDRESS, address(swapRouter), amount);\n\n                ISwapRouter.ExactInputSingleParams memory params =\n                ISwapRouter.ExactInputSingleParams({\n                    tokenIn: DAI_ADDRESS,\n                    tokenOut: tokenToShort,\n                    fee: poolFee,\n                    recipient: address(this),\n                    deadline: block.timestamp, //solhint-disable not-rely-on-time\n                    amountIn: amountToSend,\n                    amountOutMinimum: amountOutMin,\n                    sqrtPriceLimitX96: 0\n                });\n\n                //execute the frist swap\n                amountOut = swapRouter.exactInputSingle(params);\n\n                //Call twapPriceOracle here or find a better way to capture price\n                //TODO: Price wrapping\n                //TEST ONLY\n                uint priceAtWrap = 3000;\n\n                //execute the second swap and transfer funds to pool for holding\n                _shortForUser(\n                    msg.sender,\n                    tokenToShort,\n                    priceAtWrap,\n                    poolFee,\n                    amountOut,\n                    amountOutMin\n                );\n\n                //update entry price mapping\n                //this stores the entry price of msg.sender for this specific shortID of msg.sender\n                //nested mappings look cringe but are efficient\n                users[msg.sender].entryPrices[users[msg.sender].userShortID] = priceAtWrap;\n\n                //update userPositionNumber current short status\n                // inShort[msg.sender][userShortID[msg.sender]] = true;\n                users[msg.sender].isPositionInShort[users[msg.sender].userShortID] = true;\n\n            }\n\n    //TODO\n    //contract already has the DAI needed to close the trade, can just check the price and\n    //calculate the difference between the opening and closing prices, no need for expensive swaps\n    //in the standardPool contract\n    function closeShortStandardPool(\n        address user,\n        uint _userShortID,\n        uint priceAtClose)\n        external {\n            require(user == msg.sender, \"CLOSE: Not your position\");\n\n            //TODO\n            //require priceAtClose == twapPriceOracle();\n\n            //calculate position balance using entryPrices vs current price\n            //returnValue of 0 indicates a winning trade, while 1 indicates a loss\n            (uint amountPNL, uint returnValue) =\n            PnLCalculator.calculatePNL(users[msg.sender].entryPrices[_userShortID], priceAtClose);\n\n            // //check if user has enough collateral and does not carry a negative balance\n            // if (amountToSend <= userDepositBalance[msg.sender] && returnValue == 1) {\n            //     //TODO\n            //     //liquidateUser();\n            //     //include distribution of funds\n            // }\n\n            //if user has made money, we update their balance directly\n            if (returnValue == 0) {\n                users[msg.sender].userDepositBalance += amountPNL;\n            } else if (returnValue == 1) {\n                //distribute user loss amongst pool if losing short\n                users[msg.sender].userDepositBalance -= amountPNL;\n                globalRewards += amountPNL;\n            }\n\n            //update current userPositionNumber to free withdraws of these specific funds\n            // inShort[msg.sender][_userShortID] = false;\n            users[msg.sender].isPositionInShort[_userShortID] = false;\n            users[msg.sender].userShortBalanceByID[_userShortID] = 0;\n\n        }\n\n    function checkRewards(address user) external view returns (uint profits) {\n        return profits = checkOwedProfits(user);\n    }\n\n    function getGlobalRewards() external view returns(uint globals) {\n        return globals = globalRewards; \n    }\n\n    function getUserShortBalance(address user, uint shortID) external view returns(uint bal) {\n        return bal = users[user].userShortBalanceByID[shortID];\n    }\n\n    function getUserEntryPrice(address user, uint shortID) external view returns(uint entry) {\n        return entry = users[user].entryPrices[shortID];\n    }\n\n    function getUserShortBool(address user, uint shortID) external view returns(bool isShort) {\n        return isShort = users[user].isPositionInShort[shortID];\n    }\n\n    function _shortForUser(\n        address user,\n        address tokenToShort,\n        uint priceAtWrap,\n        uint24 poolFee,\n        uint amount,\n        uint amountOutMin) internal returns(uint amountOut) {\n\n        TransferHelper.safeApprove(tokenToShort, address(swapRouter), amount);\n\n        //now that this contract has the desired token to short, we sell @ market back for DAI\n        ISwapRouter.ExactInputSingleParams memory tokenParams =\n        ISwapRouter.ExactInputSingleParams({\n            tokenIn: tokenToShort,\n            tokenOut: DAI_ADDRESS,\n            fee: poolFee,\n            recipient: address(this), //the pool contract will store both DAI from deposits and tokenOut\n            deadline: block.timestamp, //solhint-disable not-rely-on-time\n            amountIn: amount,\n            amountOutMinimum: amountOutMin,\n            sqrtPriceLimitX96: 0\n        });\n\n        // execute the short, amountOut is wETH in this test case\n        amountOut = swapRouter.exactInputSingle(tokenParams);\n\n        //update user balance of the user current positionID\n        //this is used to keep track of how much of the users deposit is currently being used\n        //userShortBalance[msg.sender][userShortID[msg.sender]] = amountOut;\n        users[msg.sender].userShortBalanceByID[users[msg.sender].userShortID] = amountOut;\n\n        //wrap position in ERC1155\n        beraWrapper.wrapPosition(user, address(this), amount, tokenToShort, priceAtWrap);\n    }\n\n    //the percentage reward is based on the last time they claimed vs the total reward calculated\n    //this will allow us to avoid using a loop for reward distribution\n    //and allow users to pull their own rewards when they want\n    function checkOwedProfits(address user) internal view returns (uint) {\n        uint percentageReward = globalRewards - users[user].lastClaimedRewards;\n        return users[user].userDepositBalance * percentageReward / IERC20(DAI_ADDRESS).balanceOf(address(this));\n    }\n\n    function sendOwedProfits(address user) internal {\n        uint owed = checkOwedProfits(user);\n        if (owed > 0) {\n            users[user].userDepositBalance += owed;\n            users[user].lastClaimedRewards = globalRewards;\n        }\n    }\n\n    receive() external payable { //solhint-disable state-visibility\n\n}\n\n    fallback() external payable { //solhint-disable\n\n}\n\n}\n",
  "sourcePath": "/home/kevin/Code/solidity_projects/beraMarket/contracts/BeraPoolStandardRisk.sol",
  "compiler": {
    "name": "solc",
    "version": "0.8.11+commit.d7f03943.Emscripten.clang"
  },
  "schemaVersion": "3.4.3",
  "updatedAt": "2021-12-22T19:23:23.997Z",
  "networkType": "ethereum",
  "devdoc": {
    "kind": "dev",
    "methods": {
      "supportsInterface(bytes4)": {
        "details": "See {IERC165-supportsInterface}."
      }
    },
    "version": 1
  },
  "userdoc": {
    "kind": "user",
    "methods": {},
    "version": 1
  }
}