{
  "contractName": "BeraPoolStandardRisk",
  "abi": [
    {
      "inputs": [
        {
          "internalType": "contract BeraWrapper",
          "name": "_beraWrapper",
          "type": "address"
        },
        {
          "internalType": "contract SwapOracle",
          "name": "_swapOracle",
          "type": "address"
        },
        {
          "internalType": "contract BeraSwapper",
          "name": "_beraSwapper",
          "type": "address"
        }
      ],
      "stateMutability": "nonpayable",
      "type": "constructor"
    },
    {
      "stateMutability": "payable",
      "type": "fallback",
      "payable": true
    },
    {
      "inputs": [],
      "name": "beraSwapper",
      "outputs": [
        {
          "internalType": "contract BeraSwapper",
          "name": "",
          "type": "address"
        }
      ],
      "stateMutability": "view",
      "type": "function",
      "constant": true
    },
    {
      "inputs": [],
      "name": "beraWrapper",
      "outputs": [
        {
          "internalType": "contract BeraWrapper",
          "name": "",
          "type": "address"
        }
      ],
      "stateMutability": "view",
      "type": "function",
      "constant": true
    },
    {
      "inputs": [],
      "name": "globalRewards",
      "outputs": [
        {
          "internalType": "uint256",
          "name": "",
          "type": "uint256"
        }
      ],
      "stateMutability": "view",
      "type": "function",
      "constant": true
    },
    {
      "inputs": [
        {
          "internalType": "address",
          "name": "",
          "type": "address"
        },
        {
          "internalType": "address",
          "name": "",
          "type": "address"
        },
        {
          "internalType": "uint256[]",
          "name": "",
          "type": "uint256[]"
        },
        {
          "internalType": "uint256[]",
          "name": "",
          "type": "uint256[]"
        },
        {
          "internalType": "bytes",
          "name": "",
          "type": "bytes"
        }
      ],
      "name": "onERC1155BatchReceived",
      "outputs": [
        {
          "internalType": "bytes4",
          "name": "",
          "type": "bytes4"
        }
      ],
      "stateMutability": "nonpayable",
      "type": "function"
    },
    {
      "inputs": [
        {
          "internalType": "address",
          "name": "",
          "type": "address"
        },
        {
          "internalType": "address",
          "name": "",
          "type": "address"
        },
        {
          "internalType": "uint256",
          "name": "",
          "type": "uint256"
        },
        {
          "internalType": "uint256",
          "name": "",
          "type": "uint256"
        },
        {
          "internalType": "bytes",
          "name": "",
          "type": "bytes"
        }
      ],
      "name": "onERC1155Received",
      "outputs": [
        {
          "internalType": "bytes4",
          "name": "",
          "type": "bytes4"
        }
      ],
      "stateMutability": "nonpayable",
      "type": "function"
    },
    {
      "inputs": [],
      "name": "owner",
      "outputs": [
        {
          "internalType": "address",
          "name": "",
          "type": "address"
        }
      ],
      "stateMutability": "view",
      "type": "function",
      "constant": true
    },
    {
      "inputs": [],
      "name": "protocolOwnedLiquidity",
      "outputs": [
        {
          "internalType": "uint256",
          "name": "",
          "type": "uint256"
        }
      ],
      "stateMutability": "view",
      "type": "function",
      "constant": true
    },
    {
      "inputs": [
        {
          "internalType": "bytes4",
          "name": "interfaceId",
          "type": "bytes4"
        }
      ],
      "name": "supportsInterface",
      "outputs": [
        {
          "internalType": "bool",
          "name": "",
          "type": "bool"
        }
      ],
      "stateMutability": "view",
      "type": "function",
      "constant": true
    },
    {
      "inputs": [],
      "name": "swapOracle",
      "outputs": [
        {
          "internalType": "contract SwapOracle",
          "name": "",
          "type": "address"
        }
      ],
      "stateMutability": "view",
      "type": "function",
      "constant": true
    },
    {
      "inputs": [
        {
          "internalType": "address",
          "name": "",
          "type": "address"
        }
      ],
      "name": "users",
      "outputs": [
        {
          "internalType": "uint256",
          "name": "userDepositBalance",
          "type": "uint256"
        },
        {
          "internalType": "uint256",
          "name": "lastClaimedRewards",
          "type": "uint256"
        },
        {
          "internalType": "uint256",
          "name": "userShortID",
          "type": "uint256"
        }
      ],
      "stateMutability": "view",
      "type": "function",
      "constant": true
    },
    {
      "stateMutability": "payable",
      "type": "receive",
      "payable": true
    },
    {
      "inputs": [
        {
          "internalType": "uint256",
          "name": "amount",
          "type": "uint256"
        }
      ],
      "name": "depositCollateral",
      "outputs": [],
      "stateMutability": "nonpayable",
      "type": "function"
    },
    {
      "inputs": [
        {
          "internalType": "uint256",
          "name": "amount",
          "type": "uint256"
        },
        {
          "internalType": "uint256",
          "name": "userShortID",
          "type": "uint256"
        }
      ],
      "name": "withdrawFromPool",
      "outputs": [],
      "stateMutability": "nonpayable",
      "type": "function"
    },
    {
      "inputs": [],
      "name": "claimRewards",
      "outputs": [],
      "stateMutability": "nonpayable",
      "type": "function"
    },
    {
      "inputs": [
        {
          "internalType": "uint256",
          "name": "amount",
          "type": "uint256"
        },
        {
          "internalType": "address",
          "name": "tokenToShort",
          "type": "address"
        },
        {
          "internalType": "uint24",
          "name": "poolFee",
          "type": "uint24"
        },
        {
          "internalType": "uint256",
          "name": "amountOutMin",
          "type": "uint256"
        }
      ],
      "name": "swapShort",
      "outputs": [],
      "stateMutability": "nonpayable",
      "type": "function"
    },
    {
      "inputs": [
        {
          "internalType": "address",
          "name": "userUnderwater",
          "type": "address"
        },
        {
          "internalType": "address",
          "name": "liquidator",
          "type": "address"
        },
        {
          "internalType": "uint256",
          "name": "shortID",
          "type": "uint256"
        }
      ],
      "name": "liquidateUser",
      "outputs": [],
      "stateMutability": "nonpayable",
      "type": "function"
    },
    {
      "inputs": [
        {
          "internalType": "address",
          "name": "user",
          "type": "address"
        },
        {
          "internalType": "uint256",
          "name": "shortID",
          "type": "uint256"
        }
      ],
      "name": "getLiquidator",
      "outputs": [
        {
          "internalType": "address",
          "name": "liquidator",
          "type": "address"
        }
      ],
      "stateMutability": "view",
      "type": "function",
      "constant": true
    },
    {
      "inputs": [
        {
          "internalType": "address",
          "name": "user",
          "type": "address"
        }
      ],
      "name": "getTotalCollateral",
      "outputs": [
        {
          "internalType": "uint256",
          "name": "totalCollateral",
          "type": "uint256"
        }
      ],
      "stateMutability": "view",
      "type": "function",
      "constant": true
    },
    {
      "inputs": [
        {
          "internalType": "address",
          "name": "user",
          "type": "address"
        }
      ],
      "name": "checkRewards",
      "outputs": [
        {
          "internalType": "uint256",
          "name": "profits",
          "type": "uint256"
        }
      ],
      "stateMutability": "view",
      "type": "function",
      "constant": true
    },
    {
      "inputs": [],
      "name": "getGlobalRewards",
      "outputs": [
        {
          "internalType": "uint256",
          "name": "globals",
          "type": "uint256"
        }
      ],
      "stateMutability": "view",
      "type": "function",
      "constant": true
    },
    {
      "inputs": [
        {
          "internalType": "address",
          "name": "user",
          "type": "address"
        },
        {
          "internalType": "uint256",
          "name": "shortID",
          "type": "uint256"
        }
      ],
      "name": "getUserShortBalance",
      "outputs": [
        {
          "internalType": "uint256",
          "name": "bal",
          "type": "uint256"
        }
      ],
      "stateMutability": "view",
      "type": "function",
      "constant": true
    },
    {
      "inputs": [
        {
          "internalType": "address",
          "name": "user",
          "type": "address"
        },
        {
          "internalType": "uint256",
          "name": "shortID",
          "type": "uint256"
        }
      ],
      "name": "getUserEntryPrice",
      "outputs": [
        {
          "internalType": "uint256",
          "name": "entry",
          "type": "uint256"
        }
      ],
      "stateMutability": "view",
      "type": "function",
      "constant": true
    },
    {
      "inputs": [
        {
          "internalType": "address",
          "name": "user",
          "type": "address"
        },
        {
          "internalType": "uint256",
          "name": "shortID",
          "type": "uint256"
        }
      ],
      "name": "getUserShortBool",
      "outputs": [
        {
          "internalType": "bool",
          "name": "isShort",
          "type": "bool"
        }
      ],
      "stateMutability": "view",
      "type": "function",
      "constant": true
    },
    {
      "inputs": [
        {
          "internalType": "address",
          "name": "user",
          "type": "address"
        },
        {
          "internalType": "uint256",
          "name": "shortID",
          "type": "uint256"
        }
      ],
      "name": "getTokenAndFeeShortedByUser",
      "outputs": [
        {
          "internalType": "address",
          "name": "token",
          "type": "address"
        },
        {
          "internalType": "uint24",
          "name": "fee",
          "type": "uint24"
        }
      ],
      "stateMutability": "view",
      "type": "function",
      "constant": true
    },
    {
      "inputs": [
        {
          "internalType": "address",
          "name": "user",
          "type": "address"
        },
        {
          "internalType": "uint256",
          "name": "userShortID",
          "type": "uint256"
        },
        {
          "internalType": "uint256",
          "name": "amountOutMin",
          "type": "uint256"
        }
      ],
      "name": "closeSwapShort",
      "outputs": [],
      "stateMutability": "nonpayable",
      "type": "function"
    }
  ],
  "bytecode": "0x60806040523480156200001157600080fd5b506040516200307f3803806200307f83398181016040528101906200003791906200024b565b336000806101000a81548173ffffffffffffffffffffffffffffffffffffffff021916908373ffffffffffffffffffffffffffffffffffffffff16021790555082600460006101000a81548173ffffffffffffffffffffffffffffffffffffffff021916908373ffffffffffffffffffffffffffffffffffffffff16021790555081600660006101000a81548173ffffffffffffffffffffffffffffffffffffffff021916908373ffffffffffffffffffffffffffffffffffffffff16021790555080600560006101000a81548173ffffffffffffffffffffffffffffffffffffffff021916908373ffffffffffffffffffffffffffffffffffffffff160217905550505050620002a7565b600080fd5b600073ffffffffffffffffffffffffffffffffffffffff82169050919050565b6000620001758262000148565b9050919050565b6000620001898262000168565b9050919050565b6200019b816200017c565b8114620001a757600080fd5b50565b600081519050620001bb8162000190565b92915050565b6000620001ce8262000168565b9050919050565b620001e081620001c1565b8114620001ec57600080fd5b50565b6000815190506200020081620001d5565b92915050565b6000620002138262000168565b9050919050565b620002258162000206565b81146200023157600080fd5b50565b60008151905062000245816200021a565b92915050565b60008060006060848603121562000267576200026662000143565b5b60006200027786828701620001aa565b93505060206200028a86828701620001ef565b92505060406200029d8682870162000234565b9150509250925092565b612dc880620002b76000396000f3fe60806040526004361061014f5760003560e01c80638da5cb5b116100b6578063be9405f31161006f578063be9405f3146104e8578063d8ea45c014610513578063db6623e11461053c578063ef1b31661461057a578063f23a6e61146105a3578063ffe28ca1146105e057610156565b80638da5cb5b146103c4578063a29aa114146103ef578063a87430ba1461041a578063ac0433dc14610459578063bad4a01f14610482578063bc197c81146104ab57610156565b8063372500ab11610108578063372500ab146102a05780633762e995146102b75780635e169136146102f457806360a98b80146103315780637423031e1461036e57806380a0b0fc1461039957610156565b806301ffc9a714610158578063028bdf7c14610195578063046ff0d3146101d25780630775d9421461020f57806309d3e9c31461023a5780630ea99f401461027757610156565b3661015657005b005b34801561016457600080fd5b5061017f600480360381019061017a9190611d0e565b61060b565b60405161018c9190611d56565b60405180910390f35b3480156101a157600080fd5b506101bc60048036038101906101b79190611e05565b610685565b6040516101c99190611d56565b60405180910390f35b3480156101de57600080fd5b506101f960048036038101906101f49190611e45565b6106f0565b6040516102069190611e81565b60405180910390f35b34801561021b57600080fd5b50610224610702565b6040516102319190611efb565b60405180910390f35b34801561024657600080fd5b50610261600480360381019061025c9190611e05565b610728565b60405161026e9190611e81565b60405180910390f35b34801561028357600080fd5b5061029e60048036038101906102999190611f16565b610786565b005b3480156102ac57600080fd5b506102b561079e565b005b3480156102c357600080fd5b506102de60048036038101906102d99190611e05565b6107a9565b6040516102eb9190611f78565b60405180910390f35b34801561030057600080fd5b5061031b60048036038101906103169190611e05565b61082a565b6040516103289190611e81565b60405180910390f35b34801561033d57600080fd5b5061035860048036038101906103539190611e45565b610888565b6040516103659190611e81565b60405180910390f35b34801561037a57600080fd5b50610383610953565b6040516103909190611e81565b60405180910390f35b3480156103a557600080fd5b506103ae610959565b6040516103bb9190611e81565b60405180910390f35b3480156103d057600080fd5b506103d9610963565b6040516103e69190611f78565b60405180910390f35b3480156103fb57600080fd5b50610404610987565b6040516104119190611fb4565b60405180910390f35b34801561042657600080fd5b50610441600480360381019061043c9190611e45565b6109ad565b60405161045093929190611fcf565b60405180910390f35b34801561046557600080fd5b50610480600480360381019061047b9190612006565b6109d7565b005b34801561048e57600080fd5b506104a960048036038101906104a49190612059565b61111f565b005b3480156104b757600080fd5b506104d260048036038101906104cd9190612294565b611210565b6040516104df9190612372565b60405180910390f35b3480156104f457600080fd5b506104fd611225565b60405161050a9190611e81565b60405180910390f35b34801561051f57600080fd5b5061053a600480360381019061053591906123c8565b61122b565b005b34801561054857600080fd5b50610563600480360381019061055e9190611e05565b611642565b60405161057192919061243e565b60405180910390f35b34801561058657600080fd5b506105a1600480360381019061059c9190612467565b611727565b005b3480156105af57600080fd5b506105ca60048036038101906105c591906124a7565b6119fd565b6040516105d79190612372565b60405180910390f35b3480156105ec57600080fd5b506105f5611a12565b604051610602919061255f565b60405180910390f35b60007f4e2312e0000000000000000000000000000000000000000000000000000000007bffffffffffffffffffffffffffffffffffffffffffffffffffffffff1916827bffffffffffffffffffffffffffffffffffffffffffffffffffffffff1916148061067e575061067d82611a38565b5b9050919050565b6000600260008473ffffffffffffffffffffffffffffffffffffffff1673ffffffffffffffffffffffffffffffffffffffff168152602001908152602001600020600801600083815260200190815260200160002060009054906101000a900460ff16905092915050565b60006106fb82611aa2565b9050919050565b600660009054906101000a900473ffffffffffffffffffffffffffffffffffffffff1681565b6000600260008473ffffffffffffffffffffffffffffffffffffffff1673ffffffffffffffffffffffffffffffffffffffff168152602001908152602001600020600401600083815260200190815260200160002054905092915050565b6000806107938584611642565b915091505050505050565b6107a733611be5565b565b6000600260008473ffffffffffffffffffffffffffffffffffffffff1673ffffffffffffffffffffffffffffffffffffffff168152602001908152602001600020600901600083815260200190815260200160002060000160019054906101000a900473ffffffffffffffffffffffffffffffffffffffff16905092915050565b6000600260008473ffffffffffffffffffffffffffffffffffffffff1673ffffffffffffffffffffffffffffffffffffffff168152602001908152602001600020600301600083815260200190815260200160002054905092915050565b600080600090505b600260008473ffffffffffffffffffffffffffffffffffffffff1673ffffffffffffffffffffffffffffffffffffffff16815260200190815260200160002060020154811161094d57600260008473ffffffffffffffffffffffffffffffffffffffff1673ffffffffffffffffffffffffffffffffffffffff1681526020019081526020016000206004016000828152602001908152602001600020548261093891906125a9565b91508080610945906125ff565b915050610890565b50919050565b60035481565b6000600354905090565b60008054906101000a900473ffffffffffffffffffffffffffffffffffffffff1681565b600460009054906101000a900473ffffffffffffffffffffffffffffffffffffffff1681565b60026020528060005260406000206000915090508060000154908060010154908060020154905083565b6000600460009054906101000a900473ffffffffffffffffffffffffffffffffffffffff1673ffffffffffffffffffffffffffffffffffffffff1662fdd58e33856040518363ffffffff1660e01b8152600401610a35929190612648565b602060405180830381865afa158015610a52573d6000803e3d6000fd5b505050506040513d601f19601f82011682018060405250810190610a769190612686565b11610ab6576040517f08c379a0000000000000000000000000000000000000000000000000000000008152600401610aad90612710565b60405180910390fd5b60011515600260003373ffffffffffffffffffffffffffffffffffffffff1673ffffffffffffffffffffffffffffffffffffffff168152602001908152602001600020600801600084815260200190815260200160002060009054906101000a900460ff16151514610b5d576040517f08c379a0000000000000000000000000000000000000000000000000000000008152600401610b549061277c565b60405180910390fd5b600080610b6a8585611642565b915091506000600660009054906101000a900473ffffffffffffffffffffffffffffffffffffffff1673ffffffffffffffffffffffffffffffffffffffff1663ec3eb22384846040518363ffffffff1660e01b8152600401610bcd92919061243e565b602060405180830381865afa158015610bea573d6000803e3d6000fd5b505050506040513d601f19601f82011682018060405250810190610c0e9190612686565b9050600460009054906101000a900473ffffffffffffffffffffffffffffffffffffffff1673ffffffffffffffffffffffffffffffffffffffff1663070fb8f0866040518263ffffffff1660e01b8152600401610c6b9190611e81565b600060405180830381600087803b158015610c8557600080fd5b505af1158015610c99573d6000803e3d6000fd5b505050506000600260003373ffffffffffffffffffffffffffffffffffffffff1673ffffffffffffffffffffffffffffffffffffffff168152602001908152602001600020600801600087815260200190815260200160002060006101000a81548160ff0219169083151502179055506000600260003373ffffffffffffffffffffffffffffffffffffffff1673ffffffffffffffffffffffffffffffffffffffff16815260200190815260200160002060040160008781526020019081526020016000208190555060001515600260003373ffffffffffffffffffffffffffffffffffffffff1673ffffffffffffffffffffffffffffffffffffffff168152602001908152602001600020600801600087815260200190815260200160002060009054906101000a900460ff16151514610e09576040517f08c379a0000000000000000000000000000000000000000000000000000000008152600401610e00906127e8565b60405180910390fd5b6000600560009054906101000a900473ffffffffffffffffffffffffffffffffffffffff1673ffffffffffffffffffffffffffffffffffffffff1663f2e6c8cc33736b175474e89094c44da98b954eedeac495271d0f8787600260008e73ffffffffffffffffffffffffffffffffffffffff1673ffffffffffffffffffffffffffffffffffffffff16815260200190815260200160002060060160008d8152602001908152602001600020548b6040518763ffffffff1660e01b8152600401610ed796959493929190612808565b6020604051808303816000875af1158015610ef6573d6000803e3d6000fd5b505050506040513d601f19601f82011682018060405250810190610f1a9190612686565b905060008073__PnLCalculator_________________________63a51e4ab3610f438b8b61082a565b86866040518463ffffffff1660e01b8152600401610f6393929190612891565b6040805180830381865af4158015610f7f573d6000803e3d6000fd5b505050506040513d601f19601f82011682018060405250810190610fa39190612901565b9150915060018160ff1614156110265781600260008b73ffffffffffffffffffffffffffffffffffffffff1673ffffffffffffffffffffffffffffffffffffffff16815260200190815260200160002060000160008282546110059190612941565b92505081905550816003600082825461101e91906125a9565b925050819055505b6000600260008b73ffffffffffffffffffffffffffffffffffffffff1673ffffffffffffffffffffffffffffffffffffffff16815260200190815260200160002060040160008a815260200190815260200160002081905550736b175474e89094c44da98b954eedeac495271d0f73ffffffffffffffffffffffffffffffffffffffff166323b872dd8a30866040518463ffffffff1660e01b81526004016110d093929190612975565b6020604051808303816000875af11580156110ef573d6000803e3d6000fd5b505050506040513d601f19601f8201168201806040525081019061111391906129d8565b50505050505050505050565b80600260003373ffffffffffffffffffffffffffffffffffffffff1673ffffffffffffffffffffffffffffffffffffffff168152602001908152602001600020600001600082825461117191906125a9565b92505081905550736b175474e89094c44da98b954eedeac495271d0f73ffffffffffffffffffffffffffffffffffffffff166323b872dd3330846040518463ffffffff1660e01b81526004016111c993929190612975565b6020604051808303816000875af11580156111e8573d6000803e3d6000fd5b505050506040513d601f19601f8201168201806040525081019061120c91906129d8565b5050565b600063bc197c8160e01b905095945050505050565b60015481565b600260003373ffffffffffffffffffffffffffffffffffffffff1673ffffffffffffffffffffffffffffffffffffffff168152602001908152602001600020600001548411156112b0576040517f08c379a00000000000000000000000000000000000000000000000000000000081526004016112a790612a51565b60405180910390fd5b610bb88262ffffff1614806112cb57506101f48262ffffff16145b61130a576040517f08c379a000000000000000000000000000000000000000000000000000000000815260040161130190612abd565b60405180910390fd5b6001600260003373ffffffffffffffffffffffffffffffffffffffff1673ffffffffffffffffffffffffffffffffffffffff168152602001908152602001600020600201600082825461135d91906125a9565b92505081905550600061136f33610888565b111561140357600260003373ffffffffffffffffffffffffffffffffffffffff1673ffffffffffffffffffffffffffffffffffffffff168152602001908152602001600020600001546113c133610888565b1115611402576040517f08c379a00000000000000000000000000000000000000000000000000000000081526004016113f990612a51565b60405180910390fd5b5b600060646063866114149190612add565b61141e9190612b66565b9050808561142c9190612941565b6001600082825461143d91906125a9565b925050819055506000600560009054906101000a900473ffffffffffffffffffffffffffffffffffffffff1673ffffffffffffffffffffffffffffffffffffffff1663f2e6c8cc3387736b175474e89094c44da98b954eedeac495271d0f8887896040518763ffffffff1660e01b81526004016114bf96959493929190612808565b6020604051808303816000875af11580156114de573d6000803e3d6000fd5b505050506040513d601f19601f820116820180604052508101906115029190612686565b90506000600660009054906101000a900473ffffffffffffffffffffffffffffffffffffffff1673ffffffffffffffffffffffffffffffffffffffff1663ec3eb22387876040518363ffffffff1660e01b815260040161156392919061243e565b602060405180830381865afa158015611580573d6000803e3d6000fd5b505050506040513d601f19601f820116820180604052508101906115a49190612686565b9050600460009054906101000a900473ffffffffffffffffffffffffffffffffffffffff1673ffffffffffffffffffffffffffffffffffffffff166391b3f9b1308489856040518563ffffffff1660e01b81526004016116079493929190612b97565b600060405180830381600087803b15801561162157600080fd5b505af1158015611635573d6000803e3d6000fd5b5050505050505050505050565b600080600260008573ffffffffffffffffffffffffffffffffffffffff1673ffffffffffffffffffffffffffffffffffffffff168152602001908152602001600020600501600084815260200190815260200160002060009054906101000a900473ffffffffffffffffffffffffffffffffffffffff169150600260008573ffffffffffffffffffffffffffffffffffffffff1673ffffffffffffffffffffffffffffffffffffffff168152602001908152602001600020600701600084815260200190815260200160002060009054906101000a900462ffffff1690509250929050565b600260003373ffffffffffffffffffffffffffffffffffffffff1673ffffffffffffffffffffffffffffffffffffffff168152602001908152602001600020600001548211156117ac576040517f08c379a00000000000000000000000000000000000000000000000000000000081526004016117a390612c4e565b60405180910390fd5b600015156117ba3383610685565b1515146117fc576040517f08c379a00000000000000000000000000000000000000000000000000000000081526004016117f390612d06565b60405180910390fd5b600260003373ffffffffffffffffffffffffffffffffffffffff1673ffffffffffffffffffffffffffffffffffffffff16815260200190815260200160002060000154736b175474e89094c44da98b954eedeac495271d0f73ffffffffffffffffffffffffffffffffffffffff166370a08231336040518263ffffffff1660e01b815260040161188c9190611f78565b602060405180830381865afa1580156118a9573d6000803e3d6000fd5b505050506040513d601f19601f820116820180604052508101906118cd9190612686565b1461190d576040517f08c379a000000000000000000000000000000000000000000000000000000000815260040161190490612d72565b60405180910390fd5b81600260003373ffffffffffffffffffffffffffffffffffffffff1673ffffffffffffffffffffffffffffffffffffffff168152602001908152602001600020600001600082825461195f9190612941565b92505081905550736b175474e89094c44da98b954eedeac495271d0f73ffffffffffffffffffffffffffffffffffffffff1663a9059cbb33846040518363ffffffff1660e01b81526004016119b5929190612648565b6020604051808303816000875af11580156119d4573d6000803e3d6000fd5b505050506040513d601f19601f820116820180604052508101906119f891906129d8565b505050565b600063f23a6e6160e01b905095945050505050565b600560009054906101000a900473ffffffffffffffffffffffffffffffffffffffff1681565b60007f01ffc9a7000000000000000000000000000000000000000000000000000000007bffffffffffffffffffffffffffffffffffffffffffffffffffffffff1916827bffffffffffffffffffffffffffffffffffffffffffffffffffffffff1916149050919050565b600080600260008473ffffffffffffffffffffffffffffffffffffffff1673ffffffffffffffffffffffffffffffffffffffff16815260200190815260200160002060010154600354611af59190612941565b9050736b175474e89094c44da98b954eedeac495271d0f73ffffffffffffffffffffffffffffffffffffffff166370a08231306040518263ffffffff1660e01b8152600401611b449190611f78565b602060405180830381865afa158015611b61573d6000803e3d6000fd5b505050506040513d601f19601f82011682018060405250810190611b859190612686565b81600260008673ffffffffffffffffffffffffffffffffffffffff1673ffffffffffffffffffffffffffffffffffffffff16815260200190815260200160002060000154611bd39190612add565b611bdd9190612b66565b915050919050565b6000611bf082611aa2565b90506000811115611c9e5780600260008473ffffffffffffffffffffffffffffffffffffffff1673ffffffffffffffffffffffffffffffffffffffff1681526020019081526020016000206000016000828254611c4d91906125a9565b92505081905550600354600260008473ffffffffffffffffffffffffffffffffffffffff1673ffffffffffffffffffffffffffffffffffffffff168152602001908152602001600020600101819055505b5050565b6000604051905090565b600080fd5b600080fd5b60007fffffffff0000000000000000000000000000000000000000000000000000000082169050919050565b611ceb81611cb6565b8114611cf657600080fd5b50565b600081359050611d0881611ce2565b92915050565b600060208284031215611d2457611d23611cac565b5b6000611d3284828501611cf9565b91505092915050565b60008115159050919050565b611d5081611d3b565b82525050565b6000602082019050611d6b6000830184611d47565b92915050565b600073ffffffffffffffffffffffffffffffffffffffff82169050919050565b6000611d9c82611d71565b9050919050565b611dac81611d91565b8114611db757600080fd5b50565b600081359050611dc981611da3565b92915050565b6000819050919050565b611de281611dcf565b8114611ded57600080fd5b50565b600081359050611dff81611dd9565b92915050565b60008060408385031215611e1c57611e1b611cac565b5b6000611e2a85828601611dba565b9250506020611e3b85828601611df0565b9150509250929050565b600060208284031215611e5b57611e5a611cac565b5b6000611e6984828501611dba565b91505092915050565b611e7b81611dcf565b82525050565b6000602082019050611e966000830184611e72565b92915050565b6000819050919050565b6000611ec1611ebc611eb784611d71565b611e9c565b611d71565b9050919050565b6000611ed382611ea6565b9050919050565b6000611ee582611ec8565b9050919050565b611ef581611eda565b82525050565b6000602082019050611f106000830184611eec565b92915050565b600080600060608486031215611f2f57611f2e611cac565b5b6000611f3d86828701611dba565b9350506020611f4e86828701611dba565b9250506040611f5f86828701611df0565b9150509250925092565b611f7281611d91565b82525050565b6000602082019050611f8d6000830184611f69565b92915050565b6000611f9e82611ec8565b9050919050565b611fae81611f93565b82525050565b6000602082019050611fc96000830184611fa5565b92915050565b6000606082019050611fe46000830186611e72565b611ff16020830185611e72565b611ffe6040830184611e72565b949350505050565b60008060006060848603121561201f5761201e611cac565b5b600061202d86828701611dba565b935050602061203e86828701611df0565b925050604061204f86828701611df0565b9150509250925092565b60006020828403121561206f5761206e611cac565b5b600061207d84828501611df0565b91505092915050565b600080fd5b6000601f19601f8301169050919050565b7f4e487b7100000000000000000000000000000000000000000000000000000000600052604160045260246000fd5b6120d48261208b565b810181811067ffffffffffffffff821117156120f3576120f261209c565b5b80604052505050565b6000612106611ca2565b905061211282826120cb565b919050565b600067ffffffffffffffff8211156121325761213161209c565b5b602082029050602081019050919050565b600080fd5b600061215b61215684612117565b6120fc565b9050808382526020820190506020840283018581111561217e5761217d612143565b5b835b818110156121a757806121938882611df0565b845260208401935050602081019050612180565b5050509392505050565b600082601f8301126121c6576121c5612086565b5b81356121d6848260208601612148565b91505092915050565b600080fd5b600067ffffffffffffffff8211156121ff576121fe61209c565b5b6122088261208b565b9050602081019050919050565b82818337600083830152505050565b6000612237612232846121e4565b6120fc565b905082815260208101848484011115612253576122526121df565b5b61225e848285612215565b509392505050565b600082601f83011261227b5761227a612086565b5b813561228b848260208601612224565b91505092915050565b600080600080600060a086880312156122b0576122af611cac565b5b60006122be88828901611dba565b95505060206122cf88828901611dba565b945050604086013567ffffffffffffffff8111156122f0576122ef611cb1565b5b6122fc888289016121b1565b935050606086013567ffffffffffffffff81111561231d5761231c611cb1565b5b612329888289016121b1565b925050608086013567ffffffffffffffff81111561234a57612349611cb1565b5b61235688828901612266565b9150509295509295909350565b61236c81611cb6565b82525050565b60006020820190506123876000830184612363565b92915050565b600062ffffff82169050919050565b6123a58161238d565b81146123b057600080fd5b50565b6000813590506123c28161239c565b92915050565b600080600080608085870312156123e2576123e1611cac565b5b60006123f087828801611df0565b945050602061240187828801611dba565b9350506040612412878288016123b3565b925050606061242387828801611df0565b91505092959194509250565b6124388161238d565b82525050565b60006040820190506124536000830185611f69565b612460602083018461242f565b9392505050565b6000806040838503121561247e5761247d611cac565b5b600061248c85828601611df0565b925050602061249d85828601611df0565b9150509250929050565b600080600080600060a086880312156124c3576124c2611cac565b5b60006124d188828901611dba565b95505060206124e288828901611dba565b94505060406124f388828901611df0565b935050606061250488828901611df0565b925050608086013567ffffffffffffffff81111561252557612524611cb1565b5b61253188828901612266565b9150509295509295909350565b600061254982611ec8565b9050919050565b6125598161253e565b82525050565b60006020820190506125746000830184612550565b92915050565b7f4e487b7100000000000000000000000000000000000000000000000000000000600052601160045260246000fd5b60006125b482611dcf565b91506125bf83611dcf565b9250827fffffffffffffffffffffffffffffffffffffffffffffffffffffffffffffffff038211156125f4576125f361257a565b5b828201905092915050565b600061260a82611dcf565b91507fffffffffffffffffffffffffffffffffffffffffffffffffffffffffffffffff82141561263d5761263c61257a565b5b600182019050919050565b600060408201905061265d6000830185611f69565b61266a6020830184611e72565b9392505050565b60008151905061268081611dd9565b92915050565b60006020828403121561269c5761269b611cac565b5b60006126aa84828501612671565b91505092915050565b600082825260208201905092915050565b7f434c4f53453a204e6f7420796f757220706f736974696f6e0000000000000000600082015250565b60006126fa6018836126b3565b9150612705826126c4565b602082019050919050565b60006020820190508181036000830152612729816126ed565b9050919050565b7f434c4f53453a20506f7369746f6e20696e616374697665000000000000000000600082015250565b60006127666017836126b3565b915061277182612730565b602082019050919050565b6000602082019050818103600083015261279581612759565b9050919050565b7f434c4f53453a20506f736974696f6e207374696c6c2061637469766500000000600082015250565b60006127d2601c836126b3565b91506127dd8261279c565b602082019050919050565b60006020820190508181036000830152612801816127c5565b9050919050565b600060c08201905061281d6000830189611f69565b61282a6020830188611f69565b6128376040830187611f69565b612844606083018661242f565b6128516080830185611e72565b61285e60a0830184611e72565b979650505050505050565b61287281611dcf565b82525050565b6000819050919050565b61288b81612878565b82525050565b60006060820190506128a66000830186612869565b6128b36020830185612869565b6128c06040830184612882565b949350505050565b600060ff82169050919050565b6128de816128c8565b81146128e957600080fd5b50565b6000815190506128fb816128d5565b92915050565b6000806040838503121561291857612917611cac565b5b600061292685828601612671565b9250506020612937858286016128ec565b9150509250929050565b600061294c82611dcf565b915061295783611dcf565b92508282101561296a5761296961257a565b5b828203905092915050565b600060608201905061298a6000830186611f69565b6129976020830185611f69565b6129a46040830184611e72565b949350505050565b6129b581611d3b565b81146129c057600080fd5b50565b6000815190506129d2816129ac565b92915050565b6000602082840312156129ee576129ed611cac565b5b60006129fc848285016129c3565b91505092915050565b7f535741503a206e6f7420656e6f75676820636f6c6c61746572616c0000000000600082015250565b6000612a3b601b836126b3565b9150612a4682612a05565b602082019050919050565b60006020820190508181036000830152612a6a81612a2e565b9050919050565b7f535741503a204e6f742068696768207269736b20706f6f6c0000000000000000600082015250565b6000612aa76018836126b3565b9150612ab282612a71565b602082019050919050565b60006020820190508181036000830152612ad681612a9a565b9050919050565b6000612ae882611dcf565b9150612af383611dcf565b9250817fffffffffffffffffffffffffffffffffffffffffffffffffffffffffffffffff0483118215151615612b2c57612b2b61257a565b5b828202905092915050565b7f4e487b7100000000000000000000000000000000000000000000000000000000600052601260045260246000fd5b6000612b7182611dcf565b9150612b7c83611dcf565b925082612b8c57612b8b612b37565b5b828204905092915050565b6000608082019050612bac6000830187611f69565b612bb96020830186611e72565b612bc66040830185611f69565b612bd36060830184611e72565b95945050505050565b7f434f4c4c41544552414c3a20747279696e6720746f207769746864726177206d60008201527f6f726520636f6c6c61746572616c207468616e206465706f7369746564000000602082015250565b6000612c38603d836126b3565b9150612c4382612bdc565b604082019050919050565b60006020820190508181036000830152612c6781612c2b565b9050919050565b7f434f4c4c41544552414c3a20636c6f736520796f75722063757272656e74207060008201527f6f736974696f6e206265666f726520747279696e6720746f207769746864726160208201527f7700000000000000000000000000000000000000000000000000000000000000604082015250565b6000612cf06041836126b3565b9150612cfb82612c6e565b606082019050919050565b60006020820190508181036000830152612d1f81612ce3565b9050919050565b7f434f4c4c41544552414c3a2062616c616e6365206d69736d6174636800000000600082015250565b6000612d5c601c836126b3565b9150612d6782612d26565b602082019050919050565b60006020820190508181036000830152612d8b81612d4f565b905091905056fea2646970667358221220cf7bb3adeb8fdc793f8be5feaaaa7277b34f536e389be94e82821d33d0c1f26f64736f6c634300080b0033",
  "immutableReferences": {},
  "source": "// SPDX-License-Identifier: MIT\npragma solidity ^0.8.0; //solhint-disable compiler-fixed\npragma abicoder v2;\n\n\nimport \"@openzeppelin/contracts/token/ERC1155/IERC1155.sol\";\nimport \"@openzeppelin/contracts/token/ERC1155/utils/ERC1155Holder.sol\";\nimport \"@openzeppelin/contracts/token/ERC20/IERC20.sol\";\nimport \"./BeraWrapper.sol\";\nimport \"./BeraSwapper.sol\";\nimport \"./ancillary/PnLCalculator.sol\";\nimport \"./ancillary/SwapOracle.sol\";\n\n\ncontract BeraPoolStandardRisk is ERC1155Holder {\n\n    address public owner;\n    uint public protocolOwnedLiquidity;\n\n    mapping(address => Account) public users;\n\n    struct Liquidation {\n        bool wasLiquidated;\n        address liquidator;\n    }\n\n    struct Account {\n        uint userDepositBalance;\n        uint lastClaimedRewards;\n        uint userShortID;\n        mapping(uint => uint) entryPrice;\n        mapping(uint => uint) userShortBalanceByID;\n        mapping(uint => address) tokenShortedByPositionID;\n        mapping(uint => uint) tokenAmountByPositionID;\n        mapping(uint => uint24) poolFeeByPositionID;\n        mapping(uint => bool) isPositionInShort;\n        mapping(uint => Liquidation) liqData;\n    }\n\n    uint public globalRewards;\n\n    address private constant DAI_ADDRESS = 0x6B175474E89094C44Da98b954EedeAC495271d0F;\n\n    BeraWrapper public beraWrapper;\n    BeraSwapper public beraSwapper;\n    SwapOracle public swapOracle;\n\n    constructor(BeraWrapper _beraWrapper,\n        SwapOracle _swapOracle,\n        BeraSwapper _beraSwapper) { //solhint-disable func-visibility\n        owner = msg.sender;\n        beraWrapper = _beraWrapper;\n        swapOracle = _swapOracle;\n        beraSwapper = _beraSwapper;\n    }\n\n    function depositCollateral(uint amount) external {\n        //used for withdrawl later\n        users[msg.sender].userDepositBalance += amount;\n        //transfer DAI to this contract\n        IERC20(DAI_ADDRESS).transferFrom(msg.sender, address(this), amount);\n    }\n\n    function withdrawFromPool(uint amount, uint userShortID) external {\n        require(amount <= users[msg.sender].userDepositBalance,\n            \"COLLATERAL: trying to withdraw more collateral than deposited\");\n        //checking if the funds locked in the position have been released before allowing them to be withdrawn\n        require(getUserShortBool(msg.sender, userShortID) == false,\n            \"COLLATERAL: close your current position before trying to withdraw\");\n        require(IERC20(DAI_ADDRESS).balanceOf(msg.sender) == users[msg.sender].userDepositBalance,\n            \"COLLATERAL: balance mismatch\");\n        //reset balance of user on withdraw\n        users[msg.sender].userDepositBalance -= amount;\n        IERC20(DAI_ADDRESS).transfer(msg.sender, amount);\n    }\n\n    //used to claim the profit rewards from collecting trader losses in this pool\n    function claimRewards() external {\n        sendOwedProfits(msg.sender);\n    }\n\n    // deposit collateral into user account before being allowed to short\n    // amount refers to how much dai to swap for amountOut of the token the user\n    // wants to short\n    //\n    // will likely have to split the logic for the function up, she's getting pretty chonky\n    function swapShort(\n            uint amount,\n            address tokenToShort,\n            uint24 poolFee, //needed for uniswap pool\n            uint amountOutMin)\n            external { //solhint-disable function-max-lines\n                require(amount <= users[msg.sender].userDepositBalance, \"SWAP: not enough collateral\");\n                require(poolFee == 3000 || poolFee == 500, \"SWAP: Not high risk pool\");\n\n                users[msg.sender].userShortID += 1;\n                //get total amount of collateral in shorts if user has opened a position before\n                if (getTotalCollateral(msg.sender) > 0) {\n                    require(getTotalCollateral(msg.sender) <= users[msg.sender].userDepositBalance,\n                        \"SWAP: not enough collateral\");\n                }\n\n                //1% is kept as fee to protocol to assist in paying out users\n                uint amountToSend = amount * 99 / 100;\n                //update global so we know how much of deposited amount belongs to users vs protocol\n                protocolOwnedLiquidity += amount - amountToSend;\n\n                //execute swapShort via swapper contract\n                uint amountOut = beraSwapper._swapShort(\n                    msg.sender,\n                    tokenToShort,\n                    DAI_ADDRESS,\n                    poolFee,\n                    amountToSend, //amount being sent to swapper\n                    amountOutMin\n                );\n\n                //get TWAP price (3 min) to wrap position\n                uint priceAtWrap = swapOracle.getSwapPrice(tokenToShort, poolFee);\n                beraWrapper.wrapPosition(\n                    address(this), // the associated pool\n                    amountOut,  // the amount of token shorted\n                    tokenToShort, // what token was shorted\n                    priceAtWrap // the price of 1 token0 in dai\n                );\n                //\n                // //update Account details\n                // updateUserMappings(\n                //     msg.sender, // the user\n                //     users[msg.sender].userShortID, //the position ID\n                //     priceAtWrap, // the entry price\n                //     amountToSend, // how much of the users collateral has been used in this position\n                //     tokenToShort,\n                //     amountOut, // amount of token the contract is storing for the user AKA size of short denom in token\n                //     poolFee\n                // );\n                //\n                // //now we transfer dai to user and hold their tokens for them\n                // uint amountToReturn = amountOut * priceAtWrap;\n                // IERC20(DAI_ADDRESS).transfer(msg.sender, amountToReturn);\n            }\n\n    // if you are reading this comment, this is a way for you to make some money\n    // and keep the protocol alive and kicking\n    // keep in mind that you need to have deposited collateral to receive rewards\n    function liquidateUser(address userUnderwater, address liquidator, uint shortID) external {\n        //get entry price by shortID and subtract by current price\n        (address token, uint24 fee) = getTokenAndFeeShortedByUser(userUnderwater, shortID);\n        //REDO\n    }\n\n    function getLiquidator(address user, uint shortID) public view returns(address liquidator) {\n        return users[user].liqData[shortID].liquidator;\n    }\n\n    function getTotalCollateral(address user) public view returns(uint totalCollateral) {\n        for (uint i = 0; i <= users[user].userShortID; i++) {\n            totalCollateral += users[user].userShortBalanceByID[i];\n        }\n        return (totalCollateral);\n    }\n\n    function checkRewards(address user) public view returns(uint profits) {\n        return profits = checkOwedProfits(user);\n    }\n\n    function getGlobalRewards() public view returns(uint globals) {\n        return globals = globalRewards;\n    }\n\n    function getUserShortBalance(address user, uint shortID) public view returns(uint bal) {\n        return bal = users[user].userShortBalanceByID[shortID];\n    }\n\n    function getUserEntryPrice(address user, uint shortID) public view returns(uint entry) {\n        return entry = users[user].entryPrice[shortID];\n    }\n\n    function getUserShortBool(address user, uint shortID) public view returns(bool isShort) {\n        return isShort = users[user].isPositionInShort[shortID];\n    }\n\n    function getTokenAndFeeShortedByUser(address user, uint shortID) public view returns(address token, uint24 fee) {\n        token = users[user].tokenShortedByPositionID[shortID];\n        fee = uint24(users[user].poolFeeByPositionID[shortID]);\n        return (token, fee);\n    }\n\n    //TODO\n    function closeSwapShort(\n        address user, //we pass in a user instead of msg.sender in the case of liquidation\n        uint userShortID,\n        uint amountOutMin)\n        public {\n            //check again how ERC1155 do balances\n            require(beraWrapper.balanceOf(msg.sender, userShortID) > 0, \"CLOSE: Not your position\");\n            require(users[msg.sender].isPositionInShort[userShortID] == true, \"CLOSE: Positon inactive\");\n            //get price at pool for shortBal of positionID\n            (address token, uint24 fee) = getTokenAndFeeShortedByUser(user, userShortID);\n            uint priceAtClose = swapOracle.getSwapPrice(\n                    token,\n                    fee\n                );\n            //unwrwap and free funds\n            beraWrapper.unwrapPosition(userShortID);\n            users[msg.sender].isPositionInShort[userShortID] = false;\n            users[msg.sender].userShortBalanceByID[userShortID] = 0;\n            require(users[msg.sender].isPositionInShort[userShortID] == false,\n                \"CLOSE: Position still active\");\n\n            //swap back to DAI\n            uint amountOut = beraSwapper._swapShort(\n                msg.sender,\n                DAI_ADDRESS, //in token\n                token, // out token\n                fee,\n                users[user].tokenAmountByPositionID[userShortID],\n                amountOutMin\n            );\n\n            // where returnValue of 0 = profit\n            (uint amountPNL, uint8 returnValue) = PnLCalculator.calculatePNL(\n                getUserEntryPrice(user, userShortID), //entry\n                priceAtClose, //closing price\n                int(amountOut) //trade size\n            );\n            // if the trade is a loss --\n            // they transfer back the dai they borrowed and we take from their deposited amount\n            if (returnValue == 1) {\n                users[user].userDepositBalance -= amountPNL;\n                globalRewards += amountPNL;\n            }\n\n            //can only close for full amount in v1\n            users[user].userShortBalanceByID[userShortID] = 0;\n            //transfer funds back from user -- they are keeping the difference\n            //amountOut will be used regardless of win/loss so we can use it in both situations\n            IERC20(DAI_ADDRESS).transferFrom(user, address(this), amountOut);\n        }\n\n    function updateUserMappings(\n        address user,\n        uint shortID,\n        uint entryPrice,\n        uint shortBalanceByID,\n        address tokenToShort,\n        uint tokenTradeSize,\n        uint24 poolFee\n    ) internal {\n        users[user].entryPrice[shortID] = entryPrice;\n        //update user balance of the user current positionID\n        //this is used to keep track of how much of the users deposit is currently being used\n        users[user].userShortBalanceByID[shortID] = shortBalanceByID;\n        //update userPositionNumber current short status\n        users[user].isPositionInShort[shortID] = true;\n        //update token and fee by ID\n        users[user].tokenShortedByPositionID[shortID] = tokenToShort;\n        users[user].tokenAmountByPositionID[shortID] = tokenTradeSize;\n        users[user].poolFeeByPositionID[shortID] = poolFee;\n    }\n\n    //the percentage reward is based on the last time they claimed vs the total reward calculated\n    //this will allow us to avoid using a loop for reward distribution\n    //and allow users to pull their own rewards when they want\n    function checkOwedProfits(address user) internal view returns (uint) {\n        uint percentageReward = globalRewards - users[user].lastClaimedRewards;\n        return users[user].userDepositBalance * percentageReward / IERC20(DAI_ADDRESS).balanceOf(address(this));\n    }\n\n    function sendOwedProfits(address user) internal {\n        uint owed = checkOwedProfits(user);\n        if (owed > 0) {\n            users[user].userDepositBalance += owed;\n            users[user].lastClaimedRewards = globalRewards;\n        }\n    }\n\n    receive() external payable { //solhint-disable state-visibility\n\n}\n\n    fallback() external payable { //solhint-disable\n\n}\n\n}\n",
  "sourcePath": "/home/kevin/Code/solidity_projects/beraMarket/contracts/BeraPoolStandardRisk.sol",
  "compiler": {
    "name": "solc",
    "version": "0.8.11+commit.d7f03943.Emscripten.clang"
  },
  "schemaVersion": "3.4.3",
  "updatedAt": "2022-01-10T00:53:22.335Z",
  "networkType": "ethereum",
  "devdoc": {
    "kind": "dev",
    "methods": {
      "supportsInterface(bytes4)": {
        "details": "See {IERC165-supportsInterface}."
      }
    },
    "version": 1
  },
  "userdoc": {
    "kind": "user",
    "methods": {},
    "version": 1
  }
}