{
  "contractName": "BeraRouter",
  "abi": [
    {
      "inputs": [
        {
          "internalType": "contract ISwapRouter",
          "name": "_swapRouter",
          "type": "address"
        },
        {
          "internalType": "contract BeraPoolStandardRisk",
          "name": "_beraPoolStandardRisk",
          "type": "address"
        },
        {
          "internalType": "contract BeraWrapper",
          "name": "_beraWrapper",
          "type": "address"
        }
      ],
      "stateMutability": "nonpayable",
      "type": "constructor"
    },
    {
      "inputs": [],
      "name": "beraPoolStandardRisk",
      "outputs": [
        {
          "internalType": "contract BeraPoolStandardRisk",
          "name": "",
          "type": "address"
        }
      ],
      "stateMutability": "view",
      "type": "function",
      "constant": true
    },
    {
      "inputs": [],
      "name": "beraWrapper",
      "outputs": [
        {
          "internalType": "contract BeraWrapper",
          "name": "",
          "type": "address"
        }
      ],
      "stateMutability": "view",
      "type": "function",
      "constant": true
    },
    {
      "inputs": [
        {
          "internalType": "address",
          "name": "",
          "type": "address"
        }
      ],
      "name": "entryPrice",
      "outputs": [
        {
          "internalType": "uint256",
          "name": "",
          "type": "uint256"
        }
      ],
      "stateMutability": "view",
      "type": "function",
      "constant": true
    },
    {
      "inputs": [
        {
          "internalType": "address",
          "name": "",
          "type": "address"
        }
      ],
      "name": "inShort",
      "outputs": [
        {
          "internalType": "bool",
          "name": "",
          "type": "bool"
        }
      ],
      "stateMutability": "view",
      "type": "function",
      "constant": true
    },
    {
      "inputs": [],
      "name": "owner",
      "outputs": [
        {
          "internalType": "address",
          "name": "",
          "type": "address"
        }
      ],
      "stateMutability": "view",
      "type": "function",
      "constant": true
    },
    {
      "inputs": [
        {
          "internalType": "uint256",
          "name": "",
          "type": "uint256"
        }
      ],
      "name": "poolList",
      "outputs": [
        {
          "internalType": "address",
          "name": "",
          "type": "address"
        }
      ],
      "stateMutability": "view",
      "type": "function",
      "constant": true
    },
    {
      "inputs": [],
      "name": "swapRouter",
      "outputs": [
        {
          "internalType": "contract ISwapRouter",
          "name": "",
          "type": "address"
        }
      ],
      "stateMutability": "view",
      "type": "function",
      "constant": true
    },
    {
      "inputs": [
        {
          "internalType": "address",
          "name": "",
          "type": "address"
        }
      ],
      "name": "userCollateralBalance",
      "outputs": [
        {
          "internalType": "uint256",
          "name": "",
          "type": "uint256"
        }
      ],
      "stateMutability": "view",
      "type": "function",
      "constant": true
    },
    {
      "inputs": [
        {
          "internalType": "uint256",
          "name": "amount",
          "type": "uint256"
        },
        {
          "internalType": "address",
          "name": "collateral",
          "type": "address"
        },
        {
          "internalType": "address",
          "name": "pool",
          "type": "address"
        }
      ],
      "name": "depositCollateral",
      "outputs": [],
      "stateMutability": "nonpayable",
      "type": "function"
    },
    {
      "inputs": [
        {
          "internalType": "uint256",
          "name": "amount",
          "type": "uint256"
        }
      ],
      "name": "withdrawCollateral",
      "outputs": [],
      "stateMutability": "nonpayable",
      "type": "function"
    },
    {
      "inputs": [
        {
          "internalType": "uint256",
          "name": "amount",
          "type": "uint256"
        },
        {
          "internalType": "address",
          "name": "tokenToShort",
          "type": "address"
        },
        {
          "internalType": "uint24",
          "name": "poolFee",
          "type": "uint24"
        },
        {
          "internalType": "uint256",
          "name": "amountOutMin",
          "type": "uint256"
        },
        {
          "internalType": "uint256",
          "name": "collateralPercentageOfAccount",
          "type": "uint256"
        },
        {
          "internalType": "uint256",
          "name": "priceAtWrap",
          "type": "uint256"
        }
      ],
      "name": "swapAndShortStandard",
      "outputs": [
        {
          "internalType": "uint256",
          "name": "amountOut",
          "type": "uint256"
        }
      ],
      "stateMutability": "nonpayable",
      "type": "function"
    },
    {
      "inputs": [
        {
          "internalType": "address",
          "name": "user",
          "type": "address"
        },
        {
          "internalType": "address",
          "name": "tokenToClose",
          "type": "address"
        },
        {
          "internalType": "uint256",
          "name": "amount",
          "type": "uint256"
        },
        {
          "internalType": "uint256",
          "name": "priceAtClose",
          "type": "uint256"
        },
        {
          "internalType": "uint24",
          "name": "poolFee",
          "type": "uint24"
        },
        {
          "internalType": "uint256",
          "name": "amountOutMin",
          "type": "uint256"
        },
        {
          "internalType": "uint256",
          "name": "_positionID",
          "type": "uint256"
        }
      ],
      "name": "swapAndCloseShort",
      "outputs": [
        {
          "internalType": "uint256",
          "name": "amountOut",
          "type": "uint256"
        }
      ],
      "stateMutability": "nonpayable",
      "type": "function"
    }
  ],
  "bytecode": "0x60806040523480156200001157600080fd5b5060405162002aad38038062002aad83398181016040528101906200003791906200024c565b33600860006101000a81548173ffffffffffffffffffffffffffffffffffffffff021916908373ffffffffffffffffffffffffffffffffffffffff16021790555082600560006101000a81548173ffffffffffffffffffffffffffffffffffffffff021916908373ffffffffffffffffffffffffffffffffffffffff16021790555081600660006101000a81548173ffffffffffffffffffffffffffffffffffffffff021916908373ffffffffffffffffffffffffffffffffffffffff16021790555080600760006101000a81548173ffffffffffffffffffffffffffffffffffffffff021916908373ffffffffffffffffffffffffffffffffffffffff160217905550505050620002a8565b600080fd5b600073ffffffffffffffffffffffffffffffffffffffff82169050919050565b6000620001768262000149565b9050919050565b60006200018a8262000169565b9050919050565b6200019c816200017d565b8114620001a857600080fd5b50565b600081519050620001bc8162000191565b92915050565b6000620001cf8262000169565b9050919050565b620001e181620001c2565b8114620001ed57600080fd5b50565b6000815190506200020181620001d6565b92915050565b6000620002148262000169565b9050919050565b620002268162000207565b81146200023257600080fd5b50565b60008151905062000246816200021b565b92915050565b60008060006060848603121562000268576200026762000144565b5b60006200027886828701620001ab565b93505060206200028b86828701620001f0565b92505060406200029e8682870162000235565b9150509250925092565b6127f580620002b86000396000f3fe608060405234801561001057600080fd5b50600436106100b45760003560e01c8063a29aa11411610071578063a29aa114146101a1578063b5af3062146101bf578063c31c9c07146101ef578063dec84e151461020d578063e5f7c60c14610229578063f855e5b514610259576100b4565b80632a48235b146100b95780632bcbeece146100e95780635b6a777e146101075780636112fe2e146101375780636c528a74146101535780638da5cb5b14610183575b600080fd5b6100d360048036038101906100ce9190611882565b610289565b6040516100e091906118f0565b60405180910390f35b6100f16102c8565b6040516100fe919061196a565b60405180910390f35b610121600480360381019061011c91906119b1565b6102ee565b60405161012e91906119f9565b60405180910390f35b610151600480360381019061014c9190611882565b61030e565b005b61016d600480360381019061016891906119b1565b6105a8565b60405161017a9190611a23565b60405180910390f35b61018b6105c0565b60405161019891906118f0565b60405180910390f35b6101a96105e6565b6040516101b69190611a5f565b60405180910390f35b6101d960048036038101906101d491906119b1565b61060c565b6040516101e69190611a23565b60405180910390f35b6101f7610624565b6040516102049190611a9b565b60405180910390f35b61022760048036038101906102229190611ab6565b61064a565b005b610243600480360381019061023e9190611b44565b6108bc565b6040516102509190611a23565b60405180910390f35b610273600480360381019061026e9190611bd1565b610d4f565b6040516102809190611a23565b60405180910390f35b6004818154811061029957600080fd5b906000526020600020016000915054906101000a900473ffffffffffffffffffffffffffffffffffffffff1681565b600660009054906101000a900473ffffffffffffffffffffffffffffffffffffffff1681565b60026020528060005260406000206000915054906101000a900460ff1681565b6000803373ffffffffffffffffffffffffffffffffffffffff1673ffffffffffffffffffffffffffffffffffffffff1681526020019081526020016000205481111561038f576040517f08c379a000000000000000000000000000000000000000000000000000000000815260040161038690611cf6565b60405180910390fd5b60001515600260003373ffffffffffffffffffffffffffffffffffffffff1673ffffffffffffffffffffffffffffffffffffffff16815260200190815260200160002060009054906101000a900460ff16151514610422576040517f08c379a000000000000000000000000000000000000000000000000000000000815260040161041990611dae565b60405180910390fd5b806000803373ffffffffffffffffffffffffffffffffffffffff1673ffffffffffffffffffffffffffffffffffffffff16815260200190815260200160002060008282546104709190611dfd565b9250508190555060008060003373ffffffffffffffffffffffffffffffffffffffff1673ffffffffffffffffffffffffffffffffffffffff1681526020019081526020016000205411610516576000600360003373ffffffffffffffffffffffffffffffffffffffff1673ffffffffffffffffffffffffffffffffffffffff16815260200190815260200160002060006101000a81548160ff0219169083151502179055505b600660009054906101000a900473ffffffffffffffffffffffffffffffffffffffff1673ffffffffffffffffffffffffffffffffffffffff1663c1bf9e5833836040518363ffffffff1660e01b8152600401610573929190611e31565b600060405180830381600087803b15801561058d57600080fd5b505af11580156105a1573d6000803e3d6000fd5b5050505050565b60016020528060005260406000206000915090505481565b600860009054906101000a900473ffffffffffffffffffffffffffffffffffffffff1681565b600760009054906101000a900473ffffffffffffffffffffffffffffffffffffffff1681565b60006020528060005260406000206000915090505481565b600560009054906101000a900473ffffffffffffffffffffffffffffffffffffffff1681565b736b175474e89094c44da98b954eedeac495271d0f73ffffffffffffffffffffffffffffffffffffffff168273ffffffffffffffffffffffffffffffffffffffff16146106cc576040517f08c379a00000000000000000000000000000000000000000000000000000000081526004016106c390611ea6565b60405180910390fd5b826000803373ffffffffffffffffffffffffffffffffffffffff1673ffffffffffffffffffffffffffffffffffffffff168152602001908152602001600020600082825461071a9190611ec6565b9250508190555060001515600360003373ffffffffffffffffffffffffffffffffffffffff1673ffffffffffffffffffffffffffffffffffffffff16815260200190815260200160002060009054906101000a900460ff1615151415610836576004339080600181540180825580915050600190039060005260206000200160009091909190916101000a81548173ffffffffffffffffffffffffffffffffffffffff021916908373ffffffffffffffffffffffffffffffffffffffff1602179055506001600360003373ffffffffffffffffffffffffffffffffffffffff1673ffffffffffffffffffffffffffffffffffffffff16815260200190815260200160002060006101000a81548160ff0219169083151502179055505b8173ffffffffffffffffffffffffffffffffffffffff166323b872dd3383866040518463ffffffff1660e01b815260040161087393929190611f1c565b6020604051808303816000875af1158015610892573d6000803e3d6000fd5b505050506040513d601f19601f820116820180604052508101906108b69190611f7f565b50505050565b60008060003373ffffffffffffffffffffffffffffffffffffffff1673ffffffffffffffffffffffffffffffffffffffff1681526020019081526020016000205487111561093f576040517f08c379a000000000000000000000000000000000000000000000000000000000815260040161093690611ff8565b60405180910390fd5b6064831115610983576040517f08c379a000000000000000000000000000000000000000000000000000000000815260040161097a9061208a565b60405180910390fd5b60006064848961099391906120aa565b61099d9190612133565b9050600081896109ad9190611dfd565b90506109cf736b175474e89094c44da98b954eedeac495271d0f33308c61113b565b610a10736b175474e89094c44da98b954eedeac495271d0f600560009054906101000a900473ffffffffffffffffffffffffffffffffffffffff168b611293565b6000604051806101000160405280736b175474e89094c44da98b954eedeac495271d0f73ffffffffffffffffffffffffffffffffffffffff1681526020018a73ffffffffffffffffffffffffffffffffffffffff1681526020018962ffffff1681526020013373ffffffffffffffffffffffffffffffffffffffff168152602001428152602001848152602001888152602001600073ffffffffffffffffffffffffffffffffffffffff168152509050600560009054906101000a900473ffffffffffffffffffffffffffffffffffffffff1673ffffffffffffffffffffffffffffffffffffffff1663414bf389826040518263ffffffff1660e01b8152600401610b1b9190612242565b6020604051808303816000875af1158015610b3a573d6000803e3d6000fd5b505050506040513d601f19601f82011682018060405250810190610b5e9190612273565b9350600660009054906101000a900473ffffffffffffffffffffffffffffffffffffffff1673ffffffffffffffffffffffffffffffffffffffff16634c992506338b888c898d6040518763ffffffff1660e01b8152600401610bc5969594939291906122af565b6020604051808303816000875af1158015610be4573d6000803e3d6000fd5b505050506040513d601f19601f82011682018060405250810190610c089190612273565b5084600160003373ffffffffffffffffffffffffffffffffffffffff1673ffffffffffffffffffffffffffffffffffffffff168152602001908152602001600020819055506001600260003373ffffffffffffffffffffffffffffffffffffffff1673ffffffffffffffffffffffffffffffffffffffff16815260200190815260200160002060006101000a81548160ff0219169083151502179055506000821115610d4257736b175474e89094c44da98b954eedeac495271d0f73ffffffffffffffffffffffffffffffffffffffff1663a9059cbb33846040518363ffffffff1660e01b8152600401610cfd929190611e31565b6020604051808303816000875af1158015610d1c573d6000803e3d6000fd5b505050506040513d601f19601f82011682018060405250810190610d409190611f7f565b505b5050509695505050505050565b6000600760009054906101000a900473ffffffffffffffffffffffffffffffffffffffff1673ffffffffffffffffffffffffffffffffffffffff1663b9e17b7689846040518363ffffffff1660e01b8152600401610dae929190611e31565b600060405180830381600087803b158015610dc857600080fd5b505af1158015610ddc573d6000803e3d6000fd5b50505050736b175474e89094c44da98b954eedeac495271d0f73ffffffffffffffffffffffffffffffffffffffff1663a9059cbb33886040518363ffffffff1660e01b8152600401610e2f929190611e31565b6020604051808303816000875af1158015610e4e573d6000803e3d6000fd5b505050506040513d601f19601f82011682018060405250810190610e729190611f7f565b50610e93736b175474e89094c44da98b954eedeac495271d0f33308961113b565b610ed4736b175474e89094c44da98b954eedeac495271d0f600560009054906101000a900473ffffffffffffffffffffffffffffffffffffffff1688611293565b6000604051806101000160405280736b175474e89094c44da98b954eedeac495271d0f73ffffffffffffffffffffffffffffffffffffffff1681526020018973ffffffffffffffffffffffffffffffffffffffff1681526020018662ffffff1681526020013373ffffffffffffffffffffffffffffffffffffffff168152602001428152602001888152602001858152602001600073ffffffffffffffffffffffffffffffffffffffff168152509050600560009054906101000a900473ffffffffffffffffffffffffffffffffffffffff1673ffffffffffffffffffffffffffffffffffffffff1663414bf389826040518263ffffffff1660e01b8152600401610fdf9190612242565b6020604051808303816000875af1158015610ffe573d6000803e3d6000fd5b505050506040513d601f19601f820116820180604052508101906110229190612273565b9150600660009054906101000a900473ffffffffffffffffffffffffffffffffffffffff1673ffffffffffffffffffffffffffffffffffffffff1663db8a027d338a858a8a8a6040518763ffffffff1660e01b815260040161108996959493929190612310565b6020604051808303816000875af11580156110a8573d6000803e3d6000fd5b505050506040513d601f19601f820116820180604052508101906110cc9190612273565b506110d733876113e8565b6000600260003373ffffffffffffffffffffffffffffffffffffffff1673ffffffffffffffffffffffffffffffffffffffff16815260200190815260200160002060006101000a81548160ff02191690831515021790555050979650505050505050565b6000808573ffffffffffffffffffffffffffffffffffffffff166323b872dd60e01b86868660405160240161117293929190611f1c565b604051602081830303815290604052907bffffffffffffffffffffffffffffffffffffffffffffffffffffffff19166020820180517bffffffffffffffffffffffffffffffffffffffffffffffffffffffff83818316178352505050506040516111dc91906123eb565b6000604051808303816000865af19150503d8060008114611219576040519150601f19603f3d011682016040523d82523d6000602084013e61121e565b606091505b509150915081801561124c575060008151148061124b57508080602001905181019061124a9190611f7f565b5b5b61128b576040517f08c379a00000000000000000000000000000000000000000000000000000000081526004016112829061244e565b60405180910390fd5b505050505050565b6000808473ffffffffffffffffffffffffffffffffffffffff1663095ea7b360e01b85856040516024016112c8929190611e31565b604051602081830303815290604052907bffffffffffffffffffffffffffffffffffffffffffffffffffffffff19166020820180517bffffffffffffffffffffffffffffffffffffffffffffffffffffffff838183161783525050505060405161133291906123eb565b6000604051808303816000865af19150503d806000811461136f576040519150601f19603f3d011682016040523d82523d6000602084013e611374565b606091505b50915091508180156113a257506000815114806113a15750808060200190518101906113a09190611f7f565b5b5b6113e1576040517f08c379a00000000000000000000000000000000000000000000000000000000081526004016113d8906124ba565b60405180910390fd5b5050505050565b600081600160008573ffffffffffffffffffffffffffffffffffffffff1673ffffffffffffffffffffffffffffffffffffffff1681526020019081526020016000205461143591906124e4565b905060008113156114ad57670de0b6b3a76400008161145491906120aa565b6000808573ffffffffffffffffffffffffffffffffffffffff1673ffffffffffffffffffffffffffffffffffffffff16815260200190815260200160002060008282546114a19190611ec6565b9250508190555061165d565b600082600160008673ffffffffffffffffffffffffffffffffffffffff1673ffffffffffffffffffffffffffffffffffffffff168152602001908152602001600020546114fa91906124e4565b905060007fffffffffffffffffffffffffffffffffffffffffffffffffffffffffffffffff8261152a9190612578565b90506000808673ffffffffffffffffffffffffffffffffffffffff1673ffffffffffffffffffffffffffffffffffffffff168152602001908152602001600020548111156115ad576040517f08c379a00000000000000000000000000000000000000000000000000000000081526004016115a490612727565b60405180910390fd5b60008060008773ffffffffffffffffffffffffffffffffffffffff1673ffffffffffffffffffffffffffffffffffffffff16815260200190815260200160002054826115f99190611dfd565b905061160481611662565b816000808873ffffffffffffffffffffffffffffffffffffffff1673ffffffffffffffffffffffffffffffffffffffff16815260200190815260200160002060008282546116529190611dfd565b925050819055505050505b505050565b60005b600480549050811015611843576000736b175474e89094c44da98b954eedeac495271d0f73ffffffffffffffffffffffffffffffffffffffff166370a08231306040518263ffffffff1660e01b81526004016116c191906118f0565b602060405180830381865afa1580156116de573d6000803e3d6000fd5b505050506040513d601f19601f820116820180604052508101906117029190612273565b6000806004858154811061171957611718612747565b5b9060005260206000200160009054906101000a900473ffffffffffffffffffffffffffffffffffffffff1673ffffffffffffffffffffffffffffffffffffffff1673ffffffffffffffffffffffffffffffffffffffff168152602001908152602001600020546117899190612133565b90506000838261179991906120aa565b905080600080600486815481106117b3576117b2612747565b5b9060005260206000200160009054906101000a900473ffffffffffffffffffffffffffffffffffffffff1673ffffffffffffffffffffffffffffffffffffffff1673ffffffffffffffffffffffffffffffffffffffff16815260200190815260200160002060008282546118279190611ec6565b925050819055505050808061183b90612776565b915050611665565b5050565b600080fd5b6000819050919050565b61185f8161184c565b811461186a57600080fd5b50565b60008135905061187c81611856565b92915050565b60006020828403121561189857611897611847565b5b60006118a68482850161186d565b91505092915050565b600073ffffffffffffffffffffffffffffffffffffffff82169050919050565b60006118da826118af565b9050919050565b6118ea816118cf565b82525050565b600060208201905061190560008301846118e1565b92915050565b6000819050919050565b600061193061192b611926846118af565b61190b565b6118af565b9050919050565b600061194282611915565b9050919050565b600061195482611937565b9050919050565b61196481611949565b82525050565b600060208201905061197f600083018461195b565b92915050565b61198e816118cf565b811461199957600080fd5b50565b6000813590506119ab81611985565b92915050565b6000602082840312156119c7576119c6611847565b5b60006119d58482850161199c565b91505092915050565b60008115159050919050565b6119f3816119de565b82525050565b6000602082019050611a0e60008301846119ea565b92915050565b611a1d8161184c565b82525050565b6000602082019050611a386000830184611a14565b92915050565b6000611a4982611937565b9050919050565b611a5981611a3e565b82525050565b6000602082019050611a746000830184611a50565b92915050565b6000611a8582611937565b9050919050565b611a9581611a7a565b82525050565b6000602082019050611ab06000830184611a8c565b92915050565b600080600060608486031215611acf57611ace611847565b5b6000611add8682870161186d565b9350506020611aee8682870161199c565b9250506040611aff8682870161199c565b9150509250925092565b600062ffffff82169050919050565b611b2181611b09565b8114611b2c57600080fd5b50565b600081359050611b3e81611b18565b92915050565b60008060008060008060c08789031215611b6157611b60611847565b5b6000611b6f89828a0161186d565b9650506020611b8089828a0161199c565b9550506040611b9189828a01611b2f565b9450506060611ba289828a0161186d565b9350506080611bb389828a0161186d565b92505060a0611bc489828a0161186d565b9150509295509295509295565b600080600080600080600060e0888a031215611bf057611bef611847565b5b6000611bfe8a828b0161199c565b9750506020611c0f8a828b0161199c565b9650506040611c208a828b0161186d565b9550506060611c318a828b0161186d565b9450506080611c428a828b01611b2f565b93505060a0611c538a828b0161186d565b92505060c0611c648a828b0161186d565b91505092959891949750929550565b600082825260208201905092915050565b7f434f4c4c41544552414c3a20747279696e6720746f207769746864726177206d60008201527f6f726520636f6c6c61746572616c207468616e206465706f7369746564000000602082015250565b6000611ce0603d83611c73565b9150611ceb82611c84565b604082019050919050565b60006020820190508181036000830152611d0f81611cd3565b9050919050565b7f434f4c4c41544552414c3a20636c6f736520796f75722063757272656e74207060008201527f6f736974696f6e206265666f726520747279696e6720746f207769746864726160208201527f7700000000000000000000000000000000000000000000000000000000000000604082015250565b6000611d98604183611c73565b9150611da382611d16565b606082019050919050565b60006020820190508181036000830152611dc781611d8b565b9050919050565b7f4e487b7100000000000000000000000000000000000000000000000000000000600052601160045260246000fd5b6000611e088261184c565b9150611e138361184c565b925082821015611e2657611e25611dce565b5b828203905092915050565b6000604082019050611e4660008301856118e1565b611e536020830184611a14565b9392505050565b7f504f4f4c3a204e6f742044414900000000000000000000000000000000000000600082015250565b6000611e90600d83611c73565b9150611e9b82611e5a565b602082019050919050565b60006020820190508181036000830152611ebf81611e83565b9050919050565b6000611ed18261184c565b9150611edc8361184c565b9250827fffffffffffffffffffffffffffffffffffffffffffffffffffffffffffffffff03821115611f1157611f10611dce565b5b828201905092915050565b6000606082019050611f3160008301866118e1565b611f3e60208301856118e1565b611f4b6040830184611a14565b949350505050565b611f5c816119de565b8114611f6757600080fd5b50565b600081519050611f7981611f53565b92915050565b600060208284031215611f9557611f94611847565b5b6000611fa384828501611f6a565b91505092915050565b7f535741503a206e6f7420656e6f75676820636f6c6c61746572616c0000000000600082015250565b6000611fe2601b83611c73565b9150611fed82611fac565b602082019050919050565b6000602082019050818103600083015261201181611fd5565b9050919050565b7f535741503a2063616e6e6f7420757365206d6f7265207468616e20313030252060008201527f6f66206163636f756e7420746f2073686f727400000000000000000000000000602082015250565b6000612074603383611c73565b915061207f82612018565b604082019050919050565b600060208201905081810360008301526120a381612067565b9050919050565b60006120b58261184c565b91506120c08361184c565b9250817fffffffffffffffffffffffffffffffffffffffffffffffffffffffffffffffff04831182151516156120f9576120f8611dce565b5b828202905092915050565b7f4e487b7100000000000000000000000000000000000000000000000000000000600052601260045260246000fd5b600061213e8261184c565b91506121498361184c565b92508261215957612158612104565b5b828204905092915050565b61216d816118cf565b82525050565b61217c81611b09565b82525050565b61218b8161184c565b82525050565b61219a816118af565b82525050565b610100820160008201516121b76000850182612164565b5060208201516121ca6020850182612164565b5060408201516121dd6040850182612173565b5060608201516121f06060850182612164565b5060808201516122036080850182612182565b5060a082015161221660a0850182612182565b5060c082015161222960c0850182612182565b5060e082015161223c60e0850182612191565b50505050565b60006101008201905061225860008301846121a0565b92915050565b60008151905061226d81611856565b92915050565b60006020828403121561228957612288611847565b5b60006122978482850161225e565b91505092915050565b6122a981611b09565b82525050565b600060c0820190506122c460008301896118e1565b6122d160208301886118e1565b6122de6040830187611a14565b6122eb60608301866122a0565b6122f86080830185611a14565b61230560a0830184611a14565b979650505050505050565b600060c08201905061232560008301896118e1565b61233260208301886118e1565b61233f6040830187611a14565b61234c6060830186611a14565b61235960808301856122a0565b61236660a0830184611a14565b979650505050505050565b600081519050919050565b600081905092915050565b60005b838110156123a557808201518184015260208101905061238a565b838111156123b4576000848401525b50505050565b60006123c582612371565b6123cf818561237c565b93506123df818560208601612387565b80840191505092915050565b60006123f782846123ba565b915081905092915050565b7f5354460000000000000000000000000000000000000000000000000000000000600082015250565b6000612438600383611c73565b915061244382612402565b602082019050919050565b600060208201905081810360008301526124678161242b565b9050919050565b7f5341000000000000000000000000000000000000000000000000000000000000600082015250565b60006124a4600283611c73565b91506124af8261246e565b602082019050919050565b600060208201905081810360008301526124d381612497565b9050919050565b6000819050919050565b60006124ef826124da565b91506124fa836124da565b9250827f80000000000000000000000000000000000000000000000000000000000000000182126000841215161561253557612534611dce565b5b827f7fffffffffffffffffffffffffffffffffffffffffffffffffffffffffffffff01821360008412161561256d5761256c611dce565b5b828203905092915050565b6000612583826124da565b915061258e836124da565b9250827f7fffffffffffffffffffffffffffffffffffffffffffffffffffffffffffffff04821160008413600084131616156125cd576125cc611dce565b5b817f8000000000000000000000000000000000000000000000000000000000000000058312600084126000841316161561260a57612609611dce565b5b827f8000000000000000000000000000000000000000000000000000000000000000058212600084136000841216161561264757612646611dce565b5b827f7fffffffffffffffffffffffffffffffffffffffffffffffffffffffffffffff058212600084126000841216161561268457612683611dce565b5b828202905092915050565b7f504e4c3a206c6f7373206578636565647320757365722062616c616e63652c2060008201527f6c69717569646174696f6e2066756e6374696f6e2077696c6c2062652063616c60208201527f6c65640000000000000000000000000000000000000000000000000000000000604082015250565b6000612711604383611c73565b915061271c8261268f565b606082019050919050565b6000602082019050818103600083015261274081612704565b9050919050565b7f4e487b7100000000000000000000000000000000000000000000000000000000600052603260045260246000fd5b60006127818261184c565b91507fffffffffffffffffffffffffffffffffffffffffffffffffffffffffffffffff8214156127b4576127b3611dce565b5b60018201905091905056fea2646970667358221220aee8f1612a938daccd5a8acd65ca7b8b0308b0c078395327b4091f769498e13a64736f6c634300080a0033",
  "immutableReferences": {},
  "source": "// SPDX-License-Identifier: MIT\npragma solidity ^0.8.0; //solhint-disable compiler-fixed\npragma abicoder v2;\n\n\nimport \"@openzeppelin/contracts/token/ERC20/IERC20.sol\";\nimport \"@uniswap/v3-periphery/contracts/interfaces/ISwapRouter.sol\";\nimport \"@uniswap/v3-periphery/contracts/libraries/TransferHelper.sol\";\nimport \"./BeraPoolStandardRisk.sol\";\nimport \"./BeraWrapper.sol\";\n\n\n//the public interface for the protocol\ncontract BeraRouter {\n\n    mapping(address => uint) public userCollateralBalance;\n    mapping(address => uint) public entryPrice;\n    mapping(address => bool) public inShort;\n    mapping(address => bool) internal hasCollateral;\n    address[] public poolList;\n\n    address private constant DAI_ADDRESS = 0x6B175474E89094C44Da98b954EedeAC495271d0F;\n\n    //uniswapV3 address router\n    //might have to change if implement 1inch api\n    ISwapRouter public  swapRouter;\n    BeraPoolStandardRisk public beraPoolStandardRisk;\n    BeraWrapper public beraWrapper;\n\n    address public owner;\n\n    constructor(ISwapRouter _swapRouter,\n        BeraPoolStandardRisk _beraPoolStandardRisk,\n        BeraWrapper _beraWrapper) { //solhint-disable func-visibility\n        owner = msg.sender;\n        swapRouter = _swapRouter;\n        beraPoolStandardRisk = _beraPoolStandardRisk;\n        beraWrapper = _beraWrapper;\n    }\n\n    function depositCollateral(uint amount, address collateral, address pool) external {\n        require(IERC20(collateral) == IERC20(DAI_ADDRESS), \"POOL: Not DAI\");\n\n        //used for withdrawl later\n        userCollateralBalance[msg.sender] += amount;\n\n        if (hasCollateral[msg.sender] == false) {\n            poolList.push(msg.sender);\n            hasCollateral[msg.sender] = true;\n        }\n\n        //transfer to seperate pools based on user defined risk\n        //high risk pool will keep 5% of the native token to try and maximize returns\n        IERC20(collateral).transferFrom(msg.sender, pool, amount);\n    }\n\n    function withdrawCollateral(uint amount) external {\n        require(amount <= userCollateralBalance[msg.sender],\n            \"COLLATERAL: trying to withdraw more collateral than deposited\");\n        require(inShort[msg.sender] == false,\n            \"COLLATERAL: close your current position before trying to withdraw\");\n\n        //reset balance of user on withdraw\n        userCollateralBalance[msg.sender] -= amount;\n\n        if (userCollateralBalance[msg.sender] <= 0) {\n            hasCollateral[msg.sender] = false;\n        }\n\n\n        beraPoolStandardRisk.withdrawFromPool(msg.sender, amount);\n\n    }\n\n    // deposit collateral into user account before being allowed to short\n    function swapAndShortStandard(\n            uint amount,\n            address tokenToShort,\n            uint24 poolFee, //needed for uniswap pool\n            uint amountOutMin,\n            uint collateralPercentageOfAccount,\n            uint priceAtWrap)\n            external returns(uint amountOut) { //solhint-disable function-max-lines\n                require(amount <= userCollateralBalance[msg.sender], \"SWAP: not enough collateral\");\n                require(collateralPercentageOfAccount <= 100, \"SWAP: cannot use more than 100% of account to short\");\n\n                //TODO for refactor\n                //could reuse this code to get rid of collat percentage idea and instead use it to keep 5% of dai\n                uint amountOfCollateral = amount * collateralPercentageOfAccount / 100;\n                uint leftover = amount - amountOfCollateral;\n\n                TransferHelper.safeTransferFrom(DAI_ADDRESS, msg.sender, address(this), amount);\n                TransferHelper.safeApprove(DAI_ADDRESS, address(swapRouter), amount);\n\n                ISwapRouter.ExactInputSingleParams memory params =\n                ISwapRouter.ExactInputSingleParams({\n                    tokenIn: DAI_ADDRESS,\n                    tokenOut: tokenToShort,\n                    fee: poolFee,\n                    recipient: msg.sender, //send back to user to execute next leg\n                    deadline: block.timestamp, //solhint-disable not-rely-on-time\n                    amountIn: amountOfCollateral,\n                    amountOutMinimum: amountOutMin,\n                    sqrtPriceLimitX96: 0\n                });\n\n                // execute the frist swap & sends to beraPoolSR based on params\n                amountOut = swapRouter.exactInputSingle(params);\n\n                //execute the second swap and transfer funds to pool for holding\n                //have to update priceAtWrap, users can set this amount manually and drain funds lmfao\n                //will likely use TWAPOracle feature of uniV3 pools\n                beraPoolStandardRisk.shortForUser(\n                    msg.sender,\n                    tokenToShort,\n                    priceAtWrap,\n                    poolFee,\n                    amountOut,\n                    amountOutMin\n                );\n\n                //update entry price mapping\n                entryPrice[msg.sender] = priceAtWrap;\n\n                //update whether address is in a position or not\n                inShort[msg.sender] = true;\n\n                //send remaining funds back to user\n                if (leftover > 0) {\n                    IERC20(DAI_ADDRESS).transfer(msg.sender, leftover);\n                }\n            }\n\n    function swapAndCloseShort(\n        address user,\n        address tokenToClose,\n        uint amount,\n        uint priceAtClose,\n        uint24 poolFee,\n        uint amountOutMin,\n        uint _positionID) external returns(uint amountOut) {\n        //unwrap and unlock position\n        beraWrapper.unwrapPosition(user, _positionID);\n\n        //send dai back to user\n        //needs check for amount\n        IERC20(DAI_ADDRESS).transfer(msg.sender, amount);\n\n        //we swap dai back to weth to close the trade\n        TransferHelper.safeTransferFrom(DAI_ADDRESS, msg.sender, address(this), amount);\n        TransferHelper.safeApprove(DAI_ADDRESS, address(swapRouter), amount);\n\n        ISwapRouter.ExactInputSingleParams memory params =\n        ISwapRouter.ExactInputSingleParams({\n            tokenIn: DAI_ADDRESS,\n            tokenOut: tokenToClose,\n            fee: poolFee,\n            recipient: msg.sender, //send tokens to user to execute next leg of trade\n            deadline: block.timestamp, //solhint-disable not-rely-on-time\n            amountIn: amount,\n            amountOutMinimum: amountOutMin,\n            sqrtPriceLimitX96: 0\n        });\n\n        //execute swap\n        amountOut = swapRouter.exactInputSingle(params);\n\n        //sell tokens back for DAI\n        beraPoolStandardRisk.closeShortForUser(\n            msg.sender,\n            tokenToClose,\n            amountOut, //how much tokenOut is being sent to swap back into dai (in this case weth)\n            priceAtClose,\n            poolFee,\n            amountOutMin\n        );\n\n        //calculate if the user made or lost money on the position\n        //also tranfers the profits to the user and distributes user losses amongst the pool\n        calculatePNL(msg.sender, priceAtClose);\n\n        //reset user short status\n        inShort[msg.sender] = false; //solhint-disable reentrancy\n    }\n\n    function distributeProfits(uint amountToDistribute) internal {\n        for (uint i = 0; i < poolList.length; i++) {\n            //update user collateral instead?\n            uint userPercent = (userCollateralBalance[poolList[i]] / IERC20(DAI_ADDRESS).balanceOf(address(this)));\n            //percentage will be out of 100 i.e 0.3% = 30 or < 30/100 >\n            uint percentToSendToUsers = userPercent * amountToDistribute;\n            userCollateralBalance[poolList[i]] += percentToSendToUsers;\n        }\n    }\n\n    function calculatePNL(address user, uint priceAtClose) internal {\n        int difference = int(entryPrice[user]) - int(priceAtClose);\n        if (difference > 0) {\n            //IERC20(DAI_ADDRESS).transfer(user, uint(difference)); //case where user makes money\n            userCollateralBalance[user] += (uint(difference) * 1e18);\n        } else {\n            int loss = int(entryPrice[user]) - int(priceAtClose); //case where user loses money\n            //make negative num postive\n            int userLoss = (loss * (-1));\n            require(uint(userLoss) <= userCollateralBalance[user],\n                \"PNL: loss exceeds user balance, liquidation function will be called\");\n            uint amountToDistribute = uint(userLoss) - userCollateralBalance[user];\n\n            //distribute remaining amongst pool holders\n            distributeProfits(amountToDistribute);\n\n            //update user collateral balance to reflect loss\n            //in this case it would be whoever is closing their short position\n            userCollateralBalance[user] -= uint(userLoss);\n        }\n    }\n\n\n\n\n\n\n}\n",
  "sourcePath": "/home/kevin/Code/solidity_projects/beraMarket/contracts/BeraRouter.sol",
  "compiler": {
    "name": "solc",
    "version": "0.8.10+commit.fc410830.Emscripten.clang"
  },
  "schemaVersion": "3.4.3",
  "updatedAt": "2021-11-24T00:15:21.639Z",
  "networkType": "ethereum",
  "devdoc": {
    "kind": "dev",
    "methods": {},
    "version": 1
  },
  "userdoc": {
    "kind": "user",
    "methods": {},
    "version": 1
  }
}