{
  "contractName": "BeraPoolStandardRisk",
  "abi": [
    {
      "inputs": [
        {
          "internalType": "contract ISwapRouter",
          "name": "_swapRouter",
          "type": "address"
        },
        {
          "internalType": "contract BeraWrapper",
          "name": "_beraWrapper",
          "type": "address"
        }
      ],
      "stateMutability": "nonpayable",
      "type": "constructor"
    },
    {
      "stateMutability": "payable",
      "type": "fallback",
      "payable": true
    },
    {
      "inputs": [],
      "name": "beraWrapper",
      "outputs": [
        {
          "internalType": "contract BeraWrapper",
          "name": "",
          "type": "address"
        }
      ],
      "stateMutability": "view",
      "type": "function",
      "constant": true
    },
    {
      "inputs": [
        {
          "internalType": "address",
          "name": "",
          "type": "address"
        },
        {
          "internalType": "uint256",
          "name": "",
          "type": "uint256"
        }
      ],
      "name": "entryPrices",
      "outputs": [
        {
          "internalType": "uint256",
          "name": "",
          "type": "uint256"
        }
      ],
      "stateMutability": "view",
      "type": "function",
      "constant": true
    },
    {
      "inputs": [
        {
          "internalType": "address",
          "name": "",
          "type": "address"
        },
        {
          "internalType": "address",
          "name": "",
          "type": "address"
        },
        {
          "internalType": "uint256[]",
          "name": "",
          "type": "uint256[]"
        },
        {
          "internalType": "uint256[]",
          "name": "",
          "type": "uint256[]"
        },
        {
          "internalType": "bytes",
          "name": "",
          "type": "bytes"
        }
      ],
      "name": "onERC1155BatchReceived",
      "outputs": [
        {
          "internalType": "bytes4",
          "name": "",
          "type": "bytes4"
        }
      ],
      "stateMutability": "nonpayable",
      "type": "function"
    },
    {
      "inputs": [
        {
          "internalType": "address",
          "name": "",
          "type": "address"
        },
        {
          "internalType": "address",
          "name": "",
          "type": "address"
        },
        {
          "internalType": "uint256",
          "name": "",
          "type": "uint256"
        },
        {
          "internalType": "uint256",
          "name": "",
          "type": "uint256"
        },
        {
          "internalType": "bytes",
          "name": "",
          "type": "bytes"
        }
      ],
      "name": "onERC1155Received",
      "outputs": [
        {
          "internalType": "bytes4",
          "name": "",
          "type": "bytes4"
        }
      ],
      "stateMutability": "nonpayable",
      "type": "function"
    },
    {
      "inputs": [],
      "name": "owner",
      "outputs": [
        {
          "internalType": "address",
          "name": "",
          "type": "address"
        }
      ],
      "stateMutability": "view",
      "type": "function",
      "constant": true
    },
    {
      "inputs": [
        {
          "internalType": "uint256",
          "name": "",
          "type": "uint256"
        }
      ],
      "name": "standardPoolList",
      "outputs": [
        {
          "internalType": "address",
          "name": "",
          "type": "address"
        }
      ],
      "stateMutability": "view",
      "type": "function",
      "constant": true
    },
    {
      "inputs": [
        {
          "internalType": "bytes4",
          "name": "interfaceId",
          "type": "bytes4"
        }
      ],
      "name": "supportsInterface",
      "outputs": [
        {
          "internalType": "bool",
          "name": "",
          "type": "bool"
        }
      ],
      "stateMutability": "view",
      "type": "function",
      "constant": true
    },
    {
      "inputs": [],
      "name": "swapRouter",
      "outputs": [
        {
          "internalType": "contract ISwapRouter",
          "name": "",
          "type": "address"
        }
      ],
      "stateMutability": "view",
      "type": "function",
      "constant": true
    },
    {
      "inputs": [],
      "name": "testNumber",
      "outputs": [
        {
          "internalType": "uint256",
          "name": "",
          "type": "uint256"
        }
      ],
      "stateMutability": "view",
      "type": "function",
      "constant": true
    },
    {
      "inputs": [],
      "name": "testPNL",
      "outputs": [
        {
          "internalType": "uint256",
          "name": "",
          "type": "uint256"
        }
      ],
      "stateMutability": "view",
      "type": "function",
      "constant": true
    },
    {
      "inputs": [
        {
          "internalType": "address",
          "name": "",
          "type": "address"
        }
      ],
      "name": "userDepositBalance",
      "outputs": [
        {
          "internalType": "uint256",
          "name": "",
          "type": "uint256"
        }
      ],
      "stateMutability": "view",
      "type": "function",
      "constant": true
    },
    {
      "inputs": [
        {
          "internalType": "address",
          "name": "",
          "type": "address"
        },
        {
          "internalType": "uint256",
          "name": "",
          "type": "uint256"
        }
      ],
      "name": "userShortBalance",
      "outputs": [
        {
          "internalType": "uint256",
          "name": "",
          "type": "uint256"
        }
      ],
      "stateMutability": "view",
      "type": "function",
      "constant": true
    },
    {
      "stateMutability": "payable",
      "type": "receive",
      "payable": true
    },
    {
      "inputs": [
        {
          "internalType": "uint256",
          "name": "amount",
          "type": "uint256"
        },
        {
          "internalType": "address",
          "name": "collateral",
          "type": "address"
        }
      ],
      "name": "depositCollateral",
      "outputs": [],
      "stateMutability": "nonpayable",
      "type": "function"
    },
    {
      "inputs": [
        {
          "internalType": "uint256",
          "name": "amount",
          "type": "uint256"
        },
        {
          "internalType": "uint256",
          "name": "_userShortID",
          "type": "uint256"
        }
      ],
      "name": "withdrawFromPool",
      "outputs": [],
      "stateMutability": "nonpayable",
      "type": "function"
    },
    {
      "inputs": [
        {
          "internalType": "uint256",
          "name": "amount",
          "type": "uint256"
        },
        {
          "internalType": "address",
          "name": "tokenToShort",
          "type": "address"
        },
        {
          "internalType": "uint24",
          "name": "poolFee",
          "type": "uint24"
        },
        {
          "internalType": "uint256",
          "name": "amountOutMin",
          "type": "uint256"
        }
      ],
      "name": "swapAndShortStandard",
      "outputs": [
        {
          "internalType": "uint256",
          "name": "amountOut",
          "type": "uint256"
        }
      ],
      "stateMutability": "nonpayable",
      "type": "function"
    },
    {
      "inputs": [
        {
          "internalType": "address",
          "name": "user",
          "type": "address"
        },
        {
          "internalType": "uint256",
          "name": "_userShortID",
          "type": "uint256"
        },
        {
          "internalType": "uint256",
          "name": "priceAtClose",
          "type": "uint256"
        }
      ],
      "name": "closeShortStandardPool",
      "outputs": [],
      "stateMutability": "nonpayable",
      "type": "function"
    }
  ],
  "bytecode": "0x60a06040523480156200001157600080fd5b5060405162002cc138038062002cc18339818101604052810190620000379190620001b7565b336000806101000a81548173ffffffffffffffffffffffffffffffffffffffff021916908373ffffffffffffffffffffffffffffffffffffffff1602179055508173ffffffffffffffffffffffffffffffffffffffff1660808173ffffffffffffffffffffffffffffffffffffffff168152505080600a60006101000a81548173ffffffffffffffffffffffffffffffffffffffff021916908373ffffffffffffffffffffffffffffffffffffffff1602179055505050620001fe565b600080fd5b600073ffffffffffffffffffffffffffffffffffffffff82169050919050565b60006200012682620000f9565b9050919050565b60006200013a8262000119565b9050919050565b6200014c816200012d565b81146200015857600080fd5b50565b6000815190506200016c8162000141565b92915050565b60006200017f8262000119565b9050919050565b620001918162000172565b81146200019d57600080fd5b50565b600081519050620001b18162000186565b92915050565b60008060408385031215620001d157620001d0620000f4565b5b6000620001e1858286016200015b565b9250506020620001f485828601620001a0565b9150509250929050565b608051612a8b6200023660003960008181610bbd01528181610c9401528181610ea4015281816116a8015261177f0152612a8b6000f3fe6080604052600436106100f75760003560e01c80638a7d6ac61161008a578063bc197c8111610059578063bc197c811461036c578063c31c9c07146103a9578063ef1b3166146103d4578063f23a6e61146103fd576100fe565b80638a7d6ac61461029c5780638da5cb5b146102d9578063a29aa11414610304578063aac28b541461032f576100fe565b806337d45bce116100c657806337d45bce146101e2578063481fef8a1461020d5780637b1609b1146102365780637c802ff21461025f576100fe565b806301ffc9a714610100578063099d29581461013d5780630bf7f3451461017a5780630d1972f3146101b7576100fe565b366100fe57005b005b34801561010c57600080fd5b50610127600480360381019061012291906119bb565b61043a565b6040516101349190611a03565b60405180910390f35b34801561014957600080fd5b50610164600480360381019061015f9190611ab2565b6104b4565b6040516101719190611b01565b60405180910390f35b34801561018657600080fd5b506101a1600480360381019061019c9190611b1c565b6104d9565b6040516101ae9190611b58565b60405180910390f35b3480156101c357600080fd5b506101cc610518565b6040516101d99190611b01565b60405180910390f35b3480156101ee57600080fd5b506101f761051e565b6040516102049190611b01565b60405180910390f35b34801561021957600080fd5b50610234600480360381019061022f9190611b73565b610524565b005b34801561024257600080fd5b5061025d60048036038101906102589190611bb3565b610785565b005b34801561026b57600080fd5b5061028660048036038101906102819190611c06565b610a04565b6040516102939190611b01565b60405180910390f35b3480156102a857600080fd5b506102c360048036038101906102be9190611ab2565b610a1c565b6040516102d09190611b01565b60405180910390f35b3480156102e557600080fd5b506102ee610a41565b6040516102fb9190611b58565b60405180910390f35b34801561031057600080fd5b50610319610a65565b6040516103269190611c92565b60405180910390f35b34801561033b57600080fd5b5061035660048036038101906103519190611ce8565b610a8b565b6040516103639190611b01565b60405180910390f35b34801561037857600080fd5b50610393600480360381019061038e9190611f5d565b610e8d565b6040516103a0919061203b565b60405180910390f35b3480156103b557600080fd5b506103be610ea2565b6040516103cb9190612077565b60405180910390f35b3480156103e057600080fd5b506103fb60048036038101906103f69190612092565b610ec6565b005b34801561040957600080fd5b50610424600480360381019061041f91906120d2565b61117a565b604051610431919061203b565b60405180910390f35b60007f4e2312e0000000000000000000000000000000000000000000000000000000007bffffffffffffffffffffffffffffffffffffffffffffffffffffffff1916827bffffffffffffffffffffffffffffffffffffffffffffffffffffffff191614806104ad57506104ac8261118f565b5b9050919050565b6004602052816000526040600020602052806000526040600020600091509150505481565b600981815481106104e957600080fd5b906000526020600020016000915054906101000a900473ffffffffffffffffffffffffffffffffffffffff1681565b60015481565b60025481565b736b175474e89094c44da98b954eedeac495271d0f73ffffffffffffffffffffffffffffffffffffffff168173ffffffffffffffffffffffffffffffffffffffff16146105a6576040517f08c379a000000000000000000000000000000000000000000000000000000000815260040161059d906121c6565b60405180910390fd5b6000600360003373ffffffffffffffffffffffffffffffffffffffff1673ffffffffffffffffffffffffffffffffffffffff1681526020019081526020016000205411156106aa576009339080600181540180825580915050600190039060005260206000200160009091909190916101000a81548173ffffffffffffffffffffffffffffffffffffffff021916908373ffffffffffffffffffffffffffffffffffffffff1602179055506001600660003373ffffffffffffffffffffffffffffffffffffffff1673ffffffffffffffffffffffffffffffffffffffff16815260200190815260200160002060006101000a81548160ff0219169083151502179055505b81600360003373ffffffffffffffffffffffffffffffffffffffff1673ffffffffffffffffffffffffffffffffffffffff16815260200190815260200160002060008282546106f99190612215565b925050819055508073ffffffffffffffffffffffffffffffffffffffff166323b872dd3330856040518463ffffffff1660e01b815260040161073d9392919061226b565b6020604051808303816000875af115801561075c573d6000803e3d6000fd5b505050506040513d601f19601f8201168201806040525081019061078091906122ce565b505050565b3373ffffffffffffffffffffffffffffffffffffffff168373ffffffffffffffffffffffffffffffffffffffff16146107f3576040517f08c379a00000000000000000000000000000000000000000000000000000000081526004016107ea90612347565b60405180910390fd5b60008073__PnLCalculator_________________________63896b198a600760003373ffffffffffffffffffffffffffffffffffffffff1673ffffffffffffffffffffffffffffffffffffffff168152602001908152602001600020600087815260200190815260200160002054856040518363ffffffff1660e01b815260040161087f929190612376565b6040805180830381865af415801561089b573d6000803e3d6000fd5b505050506040513d601f19601f820116820180604052508101906108bf91906123ed565b60ff1691509150600081141561092a5781600360003373ffffffffffffffffffffffffffffffffffffffff1673ffffffffffffffffffffffffffffffffffffffff168152602001908152602001600020600082825461091e9190612215565b92505081905550610994565b60018114156109935781600360003373ffffffffffffffffffffffffffffffffffffffff1673ffffffffffffffffffffffffffffffffffffffff1681526020019081526020016000206000828254610982919061242d565b92505081905550610992826111f9565b5b5b6000600860003373ffffffffffffffffffffffffffffffffffffffff1673ffffffffffffffffffffffffffffffffffffffff168152602001908152602001600020600086815260200190815260200160002060006101000a81548160ff0219169083151502179055505050505050565b60036020528060005260406000206000915090505481565b6007602052816000526040600020602052806000526040600020600091509150505481565b60008054906101000a900473ffffffffffffffffffffffffffffffffffffffff1681565b600a60009054906101000a900473ffffffffffffffffffffffffffffffffffffffff1681565b6000600360003373ffffffffffffffffffffffffffffffffffffffff1673ffffffffffffffffffffffffffffffffffffffff16815260200190815260200160002054851115610b0f576040517f08c379a0000000000000000000000000000000000000000000000000000000008152600401610b06906124ad565b60405180910390fd5b6001600560003373ffffffffffffffffffffffffffffffffffffffff1673ffffffffffffffffffffffffffffffffffffffff1681526020019081526020016000206000828254610b5f9190612215565b9250508190555060006064605f87610b7791906124cd565b610b819190612556565b9050610ba3736b175474e89094c44da98b954eedeac495271d0f3330896113f3565b610be2736b175474e89094c44da98b954eedeac495271d0f7f00000000000000000000000000000000000000000000000000000000000000008861154b565b6000604051806101000160405280736b175474e89094c44da98b954eedeac495271d0f73ffffffffffffffffffffffffffffffffffffffff1681526020018773ffffffffffffffffffffffffffffffffffffffff1681526020018662ffffff1681526020013073ffffffffffffffffffffffffffffffffffffffff168152602001428152602001838152602001858152602001600073ffffffffffffffffffffffffffffffffffffffff1681525090507f000000000000000000000000000000000000000000000000000000000000000073ffffffffffffffffffffffffffffffffffffffff1663414bf389826040518263ffffffff1660e01b8152600401610ceb9190612665565b6020604051808303816000875af1158015610d0a573d6000803e3d6000fd5b505050506040513d601f19601f82011682018060405250810190610d2e9190612681565b92506000610bb89050610d4533888389888a6116a0565b5080600760003373ffffffffffffffffffffffffffffffffffffffff1673ffffffffffffffffffffffffffffffffffffffff1681526020019081526020016000206000600560003373ffffffffffffffffffffffffffffffffffffffff1673ffffffffffffffffffffffffffffffffffffffff168152602001908152602001600020548152602001908152602001600020819055506001600860003373ffffffffffffffffffffffffffffffffffffffff1673ffffffffffffffffffffffffffffffffffffffff1681526020019081526020016000206000600560003373ffffffffffffffffffffffffffffffffffffffff1673ffffffffffffffffffffffffffffffffffffffff16815260200190815260200160002054815260200190815260200160002060006101000a81548160ff021916908315150217905550505050949350505050565b600063bc197c8160e01b905095945050505050565b7f000000000000000000000000000000000000000000000000000000000000000081565b600360003373ffffffffffffffffffffffffffffffffffffffff1673ffffffffffffffffffffffffffffffffffffffff16815260200190815260200160002054821115610f48576040517f08c379a0000000000000000000000000000000000000000000000000000000008152600401610f3f90612720565b60405180910390fd5b60001515600860003373ffffffffffffffffffffffffffffffffffffffff1673ffffffffffffffffffffffffffffffffffffffff168152602001908152602001600020600083815260200190815260200160002060009054906101000a900460ff16151514610fec576040517f08c379a0000000000000000000000000000000000000000000000000000000008152600401610fe3906127d8565b60405180910390fd5b81600360003373ffffffffffffffffffffffffffffffffffffffff1673ffffffffffffffffffffffffffffffffffffffff168152602001908152602001600020600082825461103b919061242d565b925050819055506000600360003373ffffffffffffffffffffffffffffffffffffffff1673ffffffffffffffffffffffffffffffffffffffff1681526020019081526020016000205414156110e3576000600660003373ffffffffffffffffffffffffffffffffffffffff1673ffffffffffffffffffffffffffffffffffffffff16815260200190815260200160002060006101000a81548160ff0219169083151502179055505b736b175474e89094c44da98b954eedeac495271d0f73ffffffffffffffffffffffffffffffffffffffff1663a9059cbb33846040518363ffffffff1660e01b81526004016111329291906127f8565b6020604051808303816000875af1158015611151573d6000803e3d6000fd5b505050506040513d601f19601f8201168201806040525081019061117591906122ce565b505050565b600063f23a6e6160e01b905095945050505050565b60007f01ffc9a7000000000000000000000000000000000000000000000000000000007bffffffffffffffffffffffffffffffffffffffffffffffffffffffff1916827bffffffffffffffffffffffffffffffffffffffffffffffffffffffff1916149050919050565b60005b6009805490508110156113ef576000736b175474e89094c44da98b954eedeac495271d0f73ffffffffffffffffffffffffffffffffffffffff166370a08231306040518263ffffffff1660e01b81526004016112589190611b58565b602060405180830381865afa158015611275573d6000803e3d6000fd5b505050506040513d601f19601f820116820180604052508101906112999190612681565b670de0b6b3a764000060036000600986815481106112ba576112b9612821565b5b9060005260206000200160009054906101000a900473ffffffffffffffffffffffffffffffffffffffff1673ffffffffffffffffffffffffffffffffffffffff1673ffffffffffffffffffffffffffffffffffffffff1681526020019081526020016000205461132a91906124cd565b6113349190612556565b90506000838261134491906124cd565b905080600360006009868154811061135f5761135e612821565b5b9060005260206000200160009054906101000a900473ffffffffffffffffffffffffffffffffffffffff1673ffffffffffffffffffffffffffffffffffffffff1673ffffffffffffffffffffffffffffffffffffffff16815260200190815260200160002060008282546113d39190612215565b92505081905550505080806113e790612850565b9150506111fc565b5050565b6000808573ffffffffffffffffffffffffffffffffffffffff166323b872dd60e01b86868660405160240161142a9392919061226b565b604051602081830303815290604052907bffffffffffffffffffffffffffffffffffffffffffffffffffffffff19166020820180517bffffffffffffffffffffffffffffffffffffffffffffffffffffffff83818316178352505050506040516114949190612913565b6000604051808303816000865af19150503d80600081146114d1576040519150601f19603f3d011682016040523d82523d6000602084013e6114d6565b606091505b5091509150818015611504575060008151148061150357508080602001905181019061150291906122ce565b5b5b611543576040517f08c379a000000000000000000000000000000000000000000000000000000000815260040161153a90612976565b60405180910390fd5b505050505050565b6000808473ffffffffffffffffffffffffffffffffffffffff1663095ea7b360e01b85856040516024016115809291906127f8565b604051602081830303815290604052907bffffffffffffffffffffffffffffffffffffffffffffffffffffffff19166020820180517bffffffffffffffffffffffffffffffffffffffffffffffffffffffff83818316178352505050506040516115ea9190612913565b6000604051808303816000865af19150503d8060008114611627576040519150601f19603f3d011682016040523d82523d6000602084013e61162c565b606091505b509150915081801561165a575060008151148061165957508080602001905181019061165891906122ce565b5b5b611699576040517f08c379a0000000000000000000000000000000000000000000000000000000008152600401611690906129e2565b60405180910390fd5b5050505050565b60006116cd867f00000000000000000000000000000000000000000000000000000000000000008561154b565b60006040518061010001604052808873ffffffffffffffffffffffffffffffffffffffff168152602001736b175474e89094c44da98b954eedeac495271d0f73ffffffffffffffffffffffffffffffffffffffff1681526020018662ffffff1681526020013073ffffffffffffffffffffffffffffffffffffffff168152602001428152602001858152602001848152602001600073ffffffffffffffffffffffffffffffffffffffff1681525090507f000000000000000000000000000000000000000000000000000000000000000073ffffffffffffffffffffffffffffffffffffffff1663414bf389826040518263ffffffff1660e01b81526004016117d69190612665565b6020604051808303816000875af11580156117f5573d6000803e3d6000fd5b505050506040513d601f19601f820116820180604052508101906118199190612681565b915081600460003373ffffffffffffffffffffffffffffffffffffffff1673ffffffffffffffffffffffffffffffffffffffff1681526020019081526020016000206000600560003373ffffffffffffffffffffffffffffffffffffffff1673ffffffffffffffffffffffffffffffffffffffff16815260200190815260200160002054815260200190815260200160002081905550600a60009054906101000a900473ffffffffffffffffffffffffffffffffffffffff1673ffffffffffffffffffffffffffffffffffffffff1663c25df92d8930878b8b6040518663ffffffff1660e01b8152600401611912959493929190612a02565b600060405180830381600087803b15801561192c57600080fd5b505af1158015611940573d6000803e3d6000fd5b50505050509695505050505050565b6000604051905090565b600080fd5b600080fd5b60007fffffffff0000000000000000000000000000000000000000000000000000000082169050919050565b61199881611963565b81146119a357600080fd5b50565b6000813590506119b58161198f565b92915050565b6000602082840312156119d1576119d0611959565b5b60006119df848285016119a6565b91505092915050565b60008115159050919050565b6119fd816119e8565b82525050565b6000602082019050611a1860008301846119f4565b92915050565b600073ffffffffffffffffffffffffffffffffffffffff82169050919050565b6000611a4982611a1e565b9050919050565b611a5981611a3e565b8114611a6457600080fd5b50565b600081359050611a7681611a50565b92915050565b6000819050919050565b611a8f81611a7c565b8114611a9a57600080fd5b50565b600081359050611aac81611a86565b92915050565b60008060408385031215611ac957611ac8611959565b5b6000611ad785828601611a67565b9250506020611ae885828601611a9d565b9150509250929050565b611afb81611a7c565b82525050565b6000602082019050611b166000830184611af2565b92915050565b600060208284031215611b3257611b31611959565b5b6000611b4084828501611a9d565b91505092915050565b611b5281611a3e565b82525050565b6000602082019050611b6d6000830184611b49565b92915050565b60008060408385031215611b8a57611b89611959565b5b6000611b9885828601611a9d565b9250506020611ba985828601611a67565b9150509250929050565b600080600060608486031215611bcc57611bcb611959565b5b6000611bda86828701611a67565b9350506020611beb86828701611a9d565b9250506040611bfc86828701611a9d565b9150509250925092565b600060208284031215611c1c57611c1b611959565b5b6000611c2a84828501611a67565b91505092915050565b6000819050919050565b6000611c58611c53611c4e84611a1e565b611c33565b611a1e565b9050919050565b6000611c6a82611c3d565b9050919050565b6000611c7c82611c5f565b9050919050565b611c8c81611c71565b82525050565b6000602082019050611ca76000830184611c83565b92915050565b600062ffffff82169050919050565b611cc581611cad565b8114611cd057600080fd5b50565b600081359050611ce281611cbc565b92915050565b60008060008060808587031215611d0257611d01611959565b5b6000611d1087828801611a9d565b9450506020611d2187828801611a67565b9350506040611d3287828801611cd3565b9250506060611d4387828801611a9d565b91505092959194509250565b600080fd5b6000601f19601f8301169050919050565b7f4e487b7100000000000000000000000000000000000000000000000000000000600052604160045260246000fd5b611d9d82611d54565b810181811067ffffffffffffffff82111715611dbc57611dbb611d65565b5b80604052505050565b6000611dcf61194f565b9050611ddb8282611d94565b919050565b600067ffffffffffffffff821115611dfb57611dfa611d65565b5b602082029050602081019050919050565b600080fd5b6000611e24611e1f84611de0565b611dc5565b90508083825260208201905060208402830185811115611e4757611e46611e0c565b5b835b81811015611e705780611e5c8882611a9d565b845260208401935050602081019050611e49565b5050509392505050565b600082601f830112611e8f57611e8e611d4f565b5b8135611e9f848260208601611e11565b91505092915050565b600080fd5b600067ffffffffffffffff821115611ec857611ec7611d65565b5b611ed182611d54565b9050602081019050919050565b82818337600083830152505050565b6000611f00611efb84611ead565b611dc5565b905082815260208101848484011115611f1c57611f1b611ea8565b5b611f27848285611ede565b509392505050565b600082601f830112611f4457611f43611d4f565b5b8135611f54848260208601611eed565b91505092915050565b600080600080600060a08688031215611f7957611f78611959565b5b6000611f8788828901611a67565b9550506020611f9888828901611a67565b945050604086013567ffffffffffffffff811115611fb957611fb861195e565b5b611fc588828901611e7a565b935050606086013567ffffffffffffffff811115611fe657611fe561195e565b5b611ff288828901611e7a565b925050608086013567ffffffffffffffff8111156120135761201261195e565b5b61201f88828901611f2f565b9150509295509295909350565b61203581611963565b82525050565b6000602082019050612050600083018461202c565b92915050565b600061206182611c5f565b9050919050565b61207181612056565b82525050565b600060208201905061208c6000830184612068565b92915050565b600080604083850312156120a9576120a8611959565b5b60006120b785828601611a9d565b92505060206120c885828601611a9d565b9150509250929050565b600080600080600060a086880312156120ee576120ed611959565b5b60006120fc88828901611a67565b955050602061210d88828901611a67565b945050604061211e88828901611a9d565b935050606061212f88828901611a9d565b925050608086013567ffffffffffffffff8111156121505761214f61195e565b5b61215c88828901611f2f565b9150509295509295909350565b600082825260208201905092915050565b7f5354414e4441524420504f4f4c3a204e6f742044414900000000000000000000600082015250565b60006121b0601683612169565b91506121bb8261217a565b602082019050919050565b600060208201905081810360008301526121df816121a3565b9050919050565b7f4e487b7100000000000000000000000000000000000000000000000000000000600052601160045260246000fd5b600061222082611a7c565b915061222b83611a7c565b9250827fffffffffffffffffffffffffffffffffffffffffffffffffffffffffffffffff038211156122605761225f6121e6565b5b828201905092915050565b60006060820190506122806000830186611b49565b61228d6020830185611b49565b61229a6040830184611af2565b949350505050565b6122ab816119e8565b81146122b657600080fd5b50565b6000815190506122c8816122a2565b92915050565b6000602082840312156122e4576122e3611959565b5b60006122f2848285016122b9565b91505092915050565b7f434c4f53453a204e6f7420796f757220706f736974696f6e0000000000000000600082015250565b6000612331601883612169565b915061233c826122fb565b602082019050919050565b6000602082019050818103600083015261236081612324565b9050919050565b61237081611a7c565b82525050565b600060408201905061238b6000830185612367565b6123986020830184612367565b9392505050565b6000815190506123ae81611a86565b92915050565b600060ff82169050919050565b6123ca816123b4565b81146123d557600080fd5b50565b6000815190506123e7816123c1565b92915050565b6000806040838503121561240457612403611959565b5b60006124128582860161239f565b9250506020612423858286016123d8565b9150509250929050565b600061243882611a7c565b915061244383611a7c565b925082821015612456576124556121e6565b5b828203905092915050565b7f535741503a206e6f7420656e6f75676820636f6c6c61746572616c0000000000600082015250565b6000612497601b83612169565b91506124a282612461565b602082019050919050565b600060208201905081810360008301526124c68161248a565b9050919050565b60006124d882611a7c565b91506124e383611a7c565b9250817fffffffffffffffffffffffffffffffffffffffffffffffffffffffffffffffff048311821515161561251c5761251b6121e6565b5b828202905092915050565b7f4e487b7100000000000000000000000000000000000000000000000000000000600052601260045260246000fd5b600061256182611a7c565b915061256c83611a7c565b92508261257c5761257b612527565b5b828204905092915050565b61259081611a3e565b82525050565b61259f81611cad565b82525050565b6125ae81611a7c565b82525050565b6125bd81611a1e565b82525050565b610100820160008201516125da6000850182612587565b5060208201516125ed6020850182612587565b5060408201516126006040850182612596565b5060608201516126136060850182612587565b50608082015161262660808501826125a5565b5060a082015161263960a08501826125a5565b5060c082015161264c60c08501826125a5565b5060e082015161265f60e08501826125b4565b50505050565b60006101008201905061267b60008301846125c3565b92915050565b60006020828403121561269757612696611959565b5b60006126a58482850161239f565b91505092915050565b7f434f4c4c41544552414c3a20747279696e6720746f207769746864726177206d60008201527f6f726520636f6c6c61746572616c207468616e206465706f7369746564000000602082015250565b600061270a603d83612169565b9150612715826126ae565b604082019050919050565b60006020820190508181036000830152612739816126fd565b9050919050565b7f434f4c4c41544552414c3a20636c6f736520796f75722063757272656e74207060008201527f6f736974696f6e206265666f726520747279696e6720746f207769746864726160208201527f7700000000000000000000000000000000000000000000000000000000000000604082015250565b60006127c2604183612169565b91506127cd82612740565b606082019050919050565b600060208201905081810360008301526127f1816127b5565b9050919050565b600060408201905061280d6000830185611b49565b61281a6020830184611af2565b9392505050565b7f4e487b7100000000000000000000000000000000000000000000000000000000600052603260045260246000fd5b600061285b82611a7c565b91507fffffffffffffffffffffffffffffffffffffffffffffffffffffffffffffffff82141561288e5761288d6121e6565b5b600182019050919050565b600081519050919050565b600081905092915050565b60005b838110156128cd5780820151818401526020810190506128b2565b838111156128dc576000848401525b50505050565b60006128ed82612899565b6128f781856128a4565b93506129078185602086016128af565b80840191505092915050565b600061291f82846128e2565b915081905092915050565b7f5354460000000000000000000000000000000000000000000000000000000000600082015250565b6000612960600383612169565b915061296b8261292a565b602082019050919050565b6000602082019050818103600083015261298f81612953565b9050919050565b7f5341000000000000000000000000000000000000000000000000000000000000600082015250565b60006129cc600283612169565b91506129d782612996565b602082019050919050565b600060208201905081810360008301526129fb816129bf565b9050919050565b600060a082019050612a176000830188611b49565b612a246020830187611b49565b612a316040830186611af2565b612a3e6060830185611b49565b612a4b6080830184611af2565b969550505050505056fea264697066735822122007c7f6d70e66a81ba54e4d31d31e710711f19667a0e68252b90779328321dcb964736f6c634300080a0033",
  "immutableReferences": {
    "2118": [
      {
        "length": 32,
        "start": 3005
      },
      {
        "length": 32,
        "start": 3220
      },
      {
        "length": 32,
        "start": 3748
      },
      {
        "length": 32,
        "start": 5800
      },
      {
        "length": 32,
        "start": 6015
      }
    ]
  },
  "source": "// SPDX-License-Identifier: MIT\npragma solidity ^0.8.0; //solhint-disable compiler-fixed\npragma abicoder v2;\n\n\nimport \"@openzeppelin/contracts/token/ERC1155/IERC1155.sol\";\nimport \"@openzeppelin/contracts/token/ERC1155/utils/ERC1155Holder.sol\";\nimport \"@uniswap/v3-periphery/contracts/interfaces/ISwapRouter.sol\";\nimport \"@uniswap/v3-periphery/contracts/libraries/TransferHelper.sol\";\nimport \"@openzeppelin/contracts/token/ERC20/IERC20.sol\";\nimport \"./BeraWrapper.sol\";\nimport \"./ancillary/PnLCalculator.sol\";\n\n\ncontract BeraPoolStandardRisk is ERC1155Holder {\n\n    address public owner;\n\n    uint public testNumber;\n    uint public testPNL;\n\n    mapping(address => uint) public userDepositBalance;\n    mapping(address => mapping(uint => uint)) public userShortBalance;\n    mapping(address => uint) internal userShortID;\n    mapping(address => bool) internal hasCollateral;\n    //nested mapping so multiple positions can be opened by the same user\n    mapping(address => mapping(uint => uint)) public entryPrices;\n    //stores which position is in a short for withdraw purposes later\n    mapping(address => mapping(uint => bool)) internal inShort; //stores whether user is currently in a position\n    address[] public standardPoolList;\n\n    address private constant DAI_ADDRESS = 0x6B175474E89094C44Da98b954EedeAC495271d0F;\n\n    ISwapRouter public immutable swapRouter;\n    BeraWrapper public beraWrapper;\n\n    constructor(ISwapRouter _swapRouter,\n        BeraWrapper _beraWrapper) { //solhint-disable func-visibility\n        owner = msg.sender;\n        swapRouter = _swapRouter;\n        beraWrapper = _beraWrapper;\n    }\n\n    function depositCollateral(uint amount, address collateral) external {\n        require(IERC20(collateral) == IERC20(DAI_ADDRESS), \"STANDARD POOL: Not DAI\");\n\n        //we use the hasCollateral mapping to avoid having to loop through the array when removing\n        //the user from the users who receive the distribution of funds for yield\n        if (userDepositBalance[msg.sender] > 0) {\n            standardPoolList.push(msg.sender);\n            hasCollateral[msg.sender] = true;\n        }\n\n        //used for withdrawl later\n        userDepositBalance[msg.sender] += amount;\n\n        //transfer DAI to this contract\n        IERC20(collateral).transferFrom(msg.sender, address(this), amount);\n    }\n\n    function withdrawFromPool(uint amount, uint _userShortID) external {\n        require(amount <= userDepositBalance[msg.sender],\n            \"COLLATERAL: trying to withdraw more collateral than deposited\");\n\n        //checking if the funds locked in the position have been released before allowing them to be withdrawn\n        require(inShort[msg.sender][_userShortID] == false,\n            \"COLLATERAL: close your current position before trying to withdraw\");\n\n        //reset balance of user on withdraw\n        userDepositBalance[msg.sender] -= amount;\n\n        if (userDepositBalance[msg.sender] == 0) {\n            hasCollateral[msg.sender] = false;\n        }\n\n        IERC20(DAI_ADDRESS).transfer(msg.sender, amount);\n    }\n\n    // deposit collateral into user account before being allowed to short\n    function swapAndShortStandard(\n            uint amount,\n            address tokenToShort,\n            uint24 poolFee, //needed for uniswap pool\n            uint amountOutMin)\n            external returns(uint amountOut) { //solhint-disable function-max-lines\n                require(amount <= userDepositBalance[msg.sender], \"SWAP: not enough collateral\");\n\n                //TODO\n                //update userDepositBalance -= amount;\n\n                //by default uints are initialized at 0 so this should work???\n                userShortID[msg.sender] += 1;\n\n                //keeping 5% of dai in contract to be distributed to liq providers on loss of pool\n                uint amountToSend = amount * 95 / 100;\n\n                TransferHelper.safeTransferFrom(DAI_ADDRESS, msg.sender, address(this), amount);\n                TransferHelper.safeApprove(DAI_ADDRESS, address(swapRouter), amount);\n\n                ISwapRouter.ExactInputSingleParams memory params =\n                ISwapRouter.ExactInputSingleParams({\n                    tokenIn: DAI_ADDRESS,\n                    tokenOut: tokenToShort,\n                    fee: poolFee,\n                    recipient: address(this),\n                    deadline: block.timestamp, //solhint-disable not-rely-on-time\n                    amountIn: amountToSend,\n                    amountOutMinimum: amountOutMin,\n                    sqrtPriceLimitX96: 0\n                });\n\n                //execute the frist swap\n                amountOut = swapRouter.exactInputSingle(params);\n\n                //Call twapPriceOracle here or find a better way to capture price\n                //TODO: Price wrapping\n                //TEST ONLY\n                uint priceAtWrap = 3000;\n\n                //execute the second swap and transfer funds to pool for holding\n                _shortForUser(\n                    msg.sender,\n                    tokenToShort,\n                    priceAtWrap,\n                    poolFee,\n                    amountOut,\n                    amountOutMin\n                );\n\n                //update entry price mapping\n                //this refers to the entry price of msg.sender for the current shortID of msg.sender\n                //nested mappings look cringe but are efficient\n                entryPrices[msg.sender][userShortID[msg.sender]] = priceAtWrap;\n\n                //update userPositionNumber current short status\n                inShort[msg.sender][userShortID[msg.sender]] = true;\n            }\n\n    //TODO\n    //contract already has the DAI needed to close the trade, can just check the price and\n    //calculate the difference between the opening and closing prices, no need for expensive swaps\n    //in the standardPool contract anyways\n    function closeShortStandardPool(\n        address user,\n        uint _userShortID,\n        uint priceAtClose)\n        external {\n            require(user == msg.sender, \"CLOSE: Not your position\");\n\n            //TODO\n            //require priceAtClose == twapPriceOracle();\n\n            //calculate position balance using entryPrices vs current price\n            //returnValue of 0 indicates a winning trade, while 1 indicates a loss\n            (uint amountPNL, uint returnValue) =\n            PnLCalculator.calculatePNL(entryPrices[msg.sender][_userShortID], priceAtClose);\n\n            // //check if user has enough collateral and does not carry a negative balance\n            // if (amountToSend <= userDepositBalance[msg.sender] && returnValue == 1) {\n            //     //TODO\n            //     //liquidateUser();\n            //     //include distribution of funds\n            // }\n\n            //if user has made money, we update their balance directly\n            if (returnValue == 0) {\n                userDepositBalance[msg.sender] += amountPNL;\n            } else if (returnValue == 1) {\n                //distribute user loss amongst pool if losing short\n                userDepositBalance[msg.sender] -= amountPNL;\n                distributeProfits(amountPNL);\n            }\n\n            //update current userPositionNumber to free withdraws\n            inShort[msg.sender][_userShortID] = false;\n\n        }\n\n    function _shortForUser(\n        address user,\n        address tokenToShort,\n        uint priceAtWrap,\n        uint24 poolFee,\n        uint amount,\n        uint amountOutMin) internal returns(uint amountOut) {\n        //funds are currently in the contract, so no need to swap back and forth anymore\n        //should just be able to call the second swap\n\n        TransferHelper.safeApprove(tokenToShort, address(swapRouter), amount);\n\n        //now that this contract has the desired token to short, we sell @ market back for DAI\n        ISwapRouter.ExactInputSingleParams memory tokenParams =\n        ISwapRouter.ExactInputSingleParams({\n            tokenIn: tokenToShort,\n            tokenOut: DAI_ADDRESS,\n            fee: poolFee,\n            recipient: address(this), //the pool contract will store both DAI from deposits and tokenOut\n            deadline: block.timestamp, //solhint-disable not-rely-on-time\n            amountIn: amount,\n            amountOutMinimum: amountOutMin,\n            sqrtPriceLimitX96: 0\n        });\n\n        // execute the short, amountOut is wETH in this test case\n        amountOut = swapRouter.exactInputSingle(tokenParams);\n\n        //update user balance of the user current positionID\n        userShortBalance[msg.sender][userShortID[msg.sender]] = amountOut;\n\n        //wrap position in ERC1155\n        //use amountToShort to reference position size being wrapped\n        beraWrapper.wrapPosition(user, address(this), amount, tokenToShort, priceAtWrap);\n    }\n\n    function distributeProfits(uint amountToDistribute) internal {\n        for (uint i = 0; i < standardPoolList.length; i++) {\n            //get each user's percentage of the pool they own\n            //dai related to current positions are not counted*******\n            uint userPercent =\n                userDepositBalance[standardPoolList[i]] * 1e18 / IERC20(DAI_ADDRESS).balanceOf(address(this));\n            uint percentToSendToUsers = userPercent * amountToDistribute;\n            //update each users deposit balance to increase the amount they can withdraw\n            //(rather than sending funds directly which would be quite expensive)\n            //balances are stored\n            userDepositBalance[standardPoolList[i]] += percentToSendToUsers;\n        }\n    }\n\n    receive() external payable { //solhint-disable state-visibility\n\n}\n\n    fallback() external payable { //solhint-disable\n\n}\n\n}\n",
  "sourcePath": "/home/kevin/Code/solidity_projects/beraMarket/contracts/BeraPoolStandardRisk.sol",
  "compiler": {
    "name": "solc",
    "version": "0.8.10+commit.fc410830.Emscripten.clang"
  },
  "schemaVersion": "3.4.3",
  "updatedAt": "2021-12-10T14:12:50.395Z",
  "networkType": "ethereum",
  "devdoc": {
    "kind": "dev",
    "methods": {
      "supportsInterface(bytes4)": {
        "details": "See {IERC165-supportsInterface}."
      }
    },
    "version": 1
  },
  "userdoc": {
    "kind": "user",
    "methods": {},
    "version": 1
  }
}