{
  "contractName": "BeraPool",
  "abi": [
    {
      "inputs": [
        {
          "internalType": "contract IERC20",
          "name": "_goblinTownToken",
          "type": "address"
        }
      ],
      "stateMutability": "nonpayable",
      "type": "constructor"
    },
    {
      "inputs": [],
      "name": "goblinTownToken",
      "outputs": [
        {
          "internalType": "contract IERC20",
          "name": "",
          "type": "address"
        }
      ],
      "stateMutability": "view",
      "type": "function",
      "constant": true
    },
    {
      "inputs": [
        {
          "internalType": "uint256",
          "name": "",
          "type": "uint256"
        }
      ],
      "name": "poolList",
      "outputs": [
        {
          "internalType": "address",
          "name": "",
          "type": "address"
        }
      ],
      "stateMutability": "view",
      "type": "function",
      "constant": true
    },
    {
      "inputs": [],
      "name": "totalPoolSize",
      "outputs": [
        {
          "internalType": "uint256",
          "name": "",
          "type": "uint256"
        }
      ],
      "stateMutability": "view",
      "type": "function",
      "constant": true
    },
    {
      "inputs": [
        {
          "internalType": "address",
          "name": "",
          "type": "address"
        }
      ],
      "name": "userPercentOfPool",
      "outputs": [
        {
          "internalType": "uint256",
          "name": "",
          "type": "uint256"
        }
      ],
      "stateMutability": "view",
      "type": "function",
      "constant": true
    },
    {
      "inputs": [
        {
          "internalType": "uint256",
          "name": "amount",
          "type": "uint256"
        }
      ],
      "name": "depositGTT",
      "outputs": [
        {
          "internalType": "bool",
          "name": "",
          "type": "bool"
        }
      ],
      "stateMutability": "nonpayable",
      "type": "function"
    },
    {
      "inputs": [
        {
          "internalType": "uint256",
          "name": "amount",
          "type": "uint256"
        }
      ],
      "name": "withdawGTT",
      "outputs": [
        {
          "internalType": "bool",
          "name": "",
          "type": "bool"
        }
      ],
      "stateMutability": "nonpayable",
      "type": "function"
    },
    {
      "inputs": [
        {
          "internalType": "uint256",
          "name": "percentToSendToUser",
          "type": "uint256"
        }
      ],
      "name": "distributeProfits",
      "outputs": [],
      "stateMutability": "nonpayable",
      "type": "function"
    },
    {
      "inputs": [
        {
          "internalType": "address",
          "name": "user",
          "type": "address"
        }
      ],
      "name": "getUserPercentage",
      "outputs": [
        {
          "internalType": "uint256",
          "name": "",
          "type": "uint256"
        }
      ],
      "stateMutability": "view",
      "type": "function",
      "constant": true
    }
  ],
  "bytecode": "0x608060405234801561001057600080fd5b50604051610cff380380610cff833981810160405281019061003291906100ed565b806000806101000a81548173ffffffffffffffffffffffffffffffffffffffff021916908373ffffffffffffffffffffffffffffffffffffffff1602179055505061011a565b600080fd5b600073ffffffffffffffffffffffffffffffffffffffff82169050919050565b60006100a88261007d565b9050919050565b60006100ba8261009d565b9050919050565b6100ca816100af565b81146100d557600080fd5b50565b6000815190506100e7816100c1565b92915050565b60006020828403121561010357610102610078565b5b6000610111848285016100d8565b91505092915050565b610bd6806101296000396000f3fe608060405234801561001057600080fd5b50600436106100885760003560e01c8063be5bd9841161005b578063be5bd98414610139578063c4353d8d14610157578063e67a039714610175578063f8ccdd58146101a557610088565b80631818bc6b1461008d5780632a48235b146100bd5780639a969768146100ed578063a466450a14610109575b600080fd5b6100a760048036038101906100a29190610753565b6101d5565b6040516100b49190610799565b60405180910390f35b6100d760048036038101906100d291906107e0565b6101ed565b6040516100e4919061081c565b60405180910390f35b610107600480360381019061010291906107e0565b61022c565b005b610123600480360381019061011e91906107e0565b6103c0565b6040516101309190610852565b60405180910390f35b6101416104fb565b60405161014e91906108cc565b60405180910390f35b61015f61051f565b60405161016c9190610799565b60405180910390f35b61018f600480360381019061018a91906107e0565b610525565b60405161019c9190610852565b60405180910390f35b6101bf60048036038101906101ba9190610753565b61069a565b6040516101cc9190610799565b60405180910390f35b60016020528060005260406000206000915090505481565b600381815481106101fd57600080fd5b906000526020600020016000915054906101000a900473ffffffffffffffffffffffffffffffffffffffff1681565b60005b6003805490508110156103bc576002546001600060038481548110610257576102566108e7565b5b9060005260206000200160009054906101000a900473ffffffffffffffffffffffffffffffffffffffff1673ffffffffffffffffffffffffffffffffffffffff1673ffffffffffffffffffffffffffffffffffffffff168152602001908152602001600020546102c79190610974565b9150736b175474e89094c44da98b954eedeac495271d0f73ffffffffffffffffffffffffffffffffffffffff1663a9059cbb6003838154811061030d5761030c6108e7565b5b9060005260206000200160009054906101000a900473ffffffffffffffffffffffffffffffffffffffff16846040518363ffffffff1660e01b81526004016103569291906109a5565b602060405180830381600087803b15801561037057600080fd5b505af1158015610384573d6000803e3d6000fd5b505050506040513d601f19601f820116820180604052508101906103a891906109fa565b5080806103b490610a27565b91505061022f565b5050565b6000600160003373ffffffffffffffffffffffffffffffffffffffff1673ffffffffffffffffffffffffffffffffffffffff16815260200190815260200160002054821115610444576040517f08c379a000000000000000000000000000000000000000000000000000000000815260040161043b90610af3565b60405180910390fd5b60008054906101000a900473ffffffffffffffffffffffffffffffffffffffff1673ffffffffffffffffffffffffffffffffffffffff1663a9059cbb33846040518363ffffffff1660e01b815260040161049f9291906109a5565b602060405180830381600087803b1580156104b957600080fd5b505af11580156104cd573d6000803e3d6000fd5b505050506040513d601f19601f820116820180604052508101906104f191906109fa565b5060019050919050565b60008054906101000a900473ffffffffffffffffffffffffffffffffffffffff1681565b60025481565b60008060009054906101000a900473ffffffffffffffffffffffffffffffffffffffff1673ffffffffffffffffffffffffffffffffffffffff166323b872dd3330856040518463ffffffff1660e01b815260040161058593929190610b13565b602060405180830381600087803b15801561059f57600080fd5b505af11580156105b3573d6000803e3d6000fd5b505050506040513d601f19601f820116820180604052508101906105d791906109fa565b5081600160003373ffffffffffffffffffffffffffffffffffffffff1673ffffffffffffffffffffffffffffffffffffffff16815260200190815260200160002060008282546106279190610b4a565b925050819055506003339080600181540180825580915050600190039060005260206000200160009091909190916101000a81548173ffffffffffffffffffffffffffffffffffffffff021916908373ffffffffffffffffffffffffffffffffffffffff16021790555060019050919050565b6000600254600160008473ffffffffffffffffffffffffffffffffffffffff1673ffffffffffffffffffffffffffffffffffffffff168152602001908152602001600020546106e99190610974565b9050919050565b600080fd5b600073ffffffffffffffffffffffffffffffffffffffff82169050919050565b6000610720826106f5565b9050919050565b61073081610715565b811461073b57600080fd5b50565b60008135905061074d81610727565b92915050565b600060208284031215610769576107686106f0565b5b60006107778482850161073e565b91505092915050565b6000819050919050565b61079381610780565b82525050565b60006020820190506107ae600083018461078a565b92915050565b6107bd81610780565b81146107c857600080fd5b50565b6000813590506107da816107b4565b92915050565b6000602082840312156107f6576107f56106f0565b5b6000610804848285016107cb565b91505092915050565b61081681610715565b82525050565b6000602082019050610831600083018461080d565b92915050565b60008115159050919050565b61084c81610837565b82525050565b60006020820190506108676000830184610843565b92915050565b6000819050919050565b600061089261088d610888846106f5565b61086d565b6106f5565b9050919050565b60006108a482610877565b9050919050565b60006108b682610899565b9050919050565b6108c6816108ab565b82525050565b60006020820190506108e160008301846108bd565b92915050565b7f4e487b7100000000000000000000000000000000000000000000000000000000600052603260045260246000fd5b7f4e487b7100000000000000000000000000000000000000000000000000000000600052601260045260246000fd5b7f4e487b7100000000000000000000000000000000000000000000000000000000600052601160045260246000fd5b600061097f82610780565b915061098a83610780565b92508261099a57610999610916565b5b828204905092915050565b60006040820190506109ba600083018561080d565b6109c7602083018461078a565b9392505050565b6109d781610837565b81146109e257600080fd5b50565b6000815190506109f4816109ce565b92915050565b600060208284031215610a1057610a0f6106f0565b5b6000610a1e848285016109e5565b91505092915050565b6000610a3282610780565b91507fffffffffffffffffffffffffffffffffffffffffffffffffffffffffffffffff821415610a6557610a64610945565b5b600182019050919050565b600082825260208201905092915050565b7f4754543a20796f752063616e6e6f74207769746864726177206d6f726520746f60008201527f6b656e73207468616e20796f752068617665206465706f736974656421000000602082015250565b6000610add603d83610a70565b9150610ae882610a81565b604082019050919050565b60006020820190508181036000830152610b0c81610ad0565b9050919050565b6000606082019050610b28600083018661080d565b610b35602083018561080d565b610b42604083018461078a565b949350505050565b6000610b5582610780565b9150610b6083610780565b9250827fffffffffffffffffffffffffffffffffffffffffffffffffffffffffffffffff03821115610b9557610b94610945565b5b82820190509291505056fea26469706673582212202aeeea25e7cbf5d8cbac85e69b8647efb08eb5f56dcbea858d94a1ebd54b560e64736f6c63430008090033",
  "immutableReferences": {},
  "source": "// SPDX-License-Identifier: MIT\npragma solidity ^0.8.0; //solhint-disable compiler-fixed\n\nimport \"./GoblinTownToken.sol\";\nimport \"@openzeppelin/contracts/token/ERC20/IERC20.sol\";\n\n\ncontract BeraPool {\n\n    IERC20 public goblinTownToken;\n\n    mapping(address => uint) public userPercentOfPool;\n    uint public totalPoolSize;\n\n    address[] public poolList;\n\n    address private constant DAI_ADDRESS = 0x6B175474E89094C44Da98b954EedeAC495271d0F;\n\n    constructor(IERC20 _goblinTownToken) { //solhint-disable func-visibility\n        goblinTownToken = _goblinTownToken;\n    }\n\n    function depositGTT(uint amount) external returns(bool) {\n        IERC20(goblinTownToken).transferFrom(msg.sender, address(this), amount);\n        userPercentOfPool[msg.sender] += amount;\n\n        poolList.push(msg.sender);\n\n        return true;\n    }\n\n    function withdawGTT(uint amount) external returns(bool) {\n        require(amount <= userPercentOfPool[msg.sender],\n        \"GTT: you cannot withdraw more tokens than you have deposited!\");\n\n        IERC20(goblinTownToken).transfer(msg.sender, amount);\n\n        return true;\n    }\n\n    //TODO\n    //could be very costly, use a uint instead and just allow users to withdaw that amount later?\n    function distributeProfits(uint percentToSendToUser) external {\n        for (uint i = 0; i < poolList.length; i++) {\n            percentToSendToUser = userPercentOfPool[poolList[i]] / totalPoolSize;\n            IERC20(DAI_ADDRESS).transfer(poolList[i], percentToSendToUser);\n        }\n    }\n\n    function getUserPercentage(address user) external view returns(uint) {\n        return userPercentOfPool[user] / totalPoolSize;\n    }\n\n\n}\n",
  "sourcePath": "/home/kevin/Code/solidity_projects/beraMarket/contracts/BeraPool.sol",
  "compiler": {
    "name": "solc",
    "version": "0.8.9+commit.e5eed63a.Emscripten.clang"
  },
  "schemaVersion": "3.4.3",
  "updatedAt": "2021-10-19T15:40:49.024Z",
  "networkType": "ethereum",
  "devdoc": {
    "kind": "dev",
    "methods": {},
    "version": 1
  },
  "userdoc": {
    "kind": "user",
    "methods": {},
    "version": 1
  }
}