{
  "contractName": "BeraSwapper",
  "abi": [
    {
      "inputs": [
        {
          "internalType": "contract ISwapRouter",
          "name": "_swapRouter",
          "type": "address"
        }
      ],
      "stateMutability": "nonpayable",
      "type": "constructor"
    },
    {
      "inputs": [],
      "name": "swapRouter",
      "outputs": [
        {
          "internalType": "contract ISwapRouter",
          "name": "",
          "type": "address"
        }
      ],
      "stateMutability": "view",
      "type": "function"
    },
    {
      "inputs": [
        {
          "internalType": "address",
          "name": "user",
          "type": "address"
        },
        {
          "internalType": "address",
          "name": "tokenToShort",
          "type": "address"
        },
        {
          "internalType": "address",
          "name": "tokenSupplied",
          "type": "address"
        },
        {
          "internalType": "uint24",
          "name": "poolFee",
          "type": "uint24"
        },
        {
          "internalType": "uint256",
          "name": "amount",
          "type": "uint256"
        },
        {
          "internalType": "uint256",
          "name": "amountOutMin",
          "type": "uint256"
        }
      ],
      "name": "_swapShort",
      "outputs": [
        {
          "internalType": "uint256",
          "name": "amountOut",
          "type": "uint256"
        }
      ],
      "stateMutability": "nonpayable",
      "type": "function"
    },
    {
      "inputs": [
        {
          "internalType": "address",
          "name": "user",
          "type": "address"
        },
        {
          "internalType": "address",
          "name": "tokenSupplied",
          "type": "address"
        },
        {
          "internalType": "address",
          "name": "associatedPool",
          "type": "address"
        },
        {
          "internalType": "uint256",
          "name": "amount",
          "type": "uint256"
        }
      ],
      "name": "_supplyShort",
      "outputs": [],
      "stateMutability": "nonpayable",
      "type": "function"
    }
  ],
  "bytecode": "0x60a060405234801561001057600080fd5b50604051610c7e380380610c7e833981810160405281019061003291906100e1565b8073ffffffffffffffffffffffffffffffffffffffff1660808173ffffffffffffffffffffffffffffffffffffffff16815250505061010e565b600080fd5b600073ffffffffffffffffffffffffffffffffffffffff82169050919050565b600061009c82610071565b9050919050565b60006100ae82610091565b9050919050565b6100be816100a3565b81146100c957600080fd5b50565b6000815190506100db816100b5565b92915050565b6000602082840312156100f7576100f661006c565b5b6000610105848285016100cc565b91505092915050565b608051610b486101366000396000818160cf0152818161010501526101c80152610b486000f3fe608060405234801561001057600080fd5b50600436106100415760003560e01c80636e2e684114610046578063c31c9c0714610062578063f2e6c8cc14610080575b600080fd5b610060600480360381019061005b91906105b5565b6100b0565b005b61006a6100cd565b604051610077919061067b565b60405180910390f35b61009a600480360381019061009591906106d1565b6100f1565b6040516100a7919061076d565b60405180910390f35b6100bc8385848461026f565b6100c78383836103c7565b50505050565b7f000000000000000000000000000000000000000000000000000000000000000081565b60006100ff8588308661026f565b61012a857f0000000000000000000000000000000000000000000000000000000000000000856103c7565b60006040518061010001604052808773ffffffffffffffffffffffffffffffffffffffff1681526020018873ffffffffffffffffffffffffffffffffffffffff1681526020018662ffffff1681526020013373ffffffffffffffffffffffffffffffffffffffff168152602001428152602001858152602001848152602001600073ffffffffffffffffffffffffffffffffffffffff1681525090507f000000000000000000000000000000000000000000000000000000000000000073ffffffffffffffffffffffffffffffffffffffff1663414bf389826040518263ffffffff1660e01b815260040161021f9190610866565b6020604051808303816000875af115801561023e573d6000803e3d6000fd5b505050506040513d601f19601f820116820180604052508101906102629190610897565b9150509695505050505050565b6000808573ffffffffffffffffffffffffffffffffffffffff166323b872dd60e01b8686866040516024016102a6939291906108d3565b604051602081830303815290604052907bffffffffffffffffffffffffffffffffffffffffffffffffffffffff19166020820180517bffffffffffffffffffffffffffffffffffffffffffffffffffffffff83818316178352505050506040516103109190610984565b6000604051808303816000865af19150503d806000811461034d576040519150601f19603f3d011682016040523d82523d6000602084013e610352565b606091505b5091509150818015610380575060008151148061037f57508080602001905181019061037e91906109d3565b5b5b6103bf576040517f08c379a00000000000000000000000000000000000000000000000000000000081526004016103b690610a5d565b60405180910390fd5b505050505050565b6000808473ffffffffffffffffffffffffffffffffffffffff1663095ea7b360e01b85856040516024016103fc929190610a7d565b604051602081830303815290604052907bffffffffffffffffffffffffffffffffffffffffffffffffffffffff19166020820180517bffffffffffffffffffffffffffffffffffffffffffffffffffffffff83818316178352505050506040516104669190610984565b6000604051808303816000865af19150503d80600081146104a3576040519150601f19603f3d011682016040523d82523d6000602084013e6104a8565b606091505b50915091508180156104d657506000815114806104d55750808060200190518101906104d491906109d3565b5b5b610515576040517f08c379a000000000000000000000000000000000000000000000000000000000815260040161050c90610af2565b60405180910390fd5b5050505050565b600080fd5b600073ffffffffffffffffffffffffffffffffffffffff82169050919050565b600061054c82610521565b9050919050565b61055c81610541565b811461056757600080fd5b50565b60008135905061057981610553565b92915050565b6000819050919050565b6105928161057f565b811461059d57600080fd5b50565b6000813590506105af81610589565b92915050565b600080600080608085870312156105cf576105ce61051c565b5b60006105dd8782880161056a565b94505060206105ee8782880161056a565b93505060406105ff8782880161056a565b9250506060610610878288016105a0565b91505092959194509250565b6000819050919050565b600061064161063c61063784610521565b61061c565b610521565b9050919050565b600061065382610626565b9050919050565b600061066582610648565b9050919050565b6106758161065a565b82525050565b6000602082019050610690600083018461066c565b92915050565b600062ffffff82169050919050565b6106ae81610696565b81146106b957600080fd5b50565b6000813590506106cb816106a5565b92915050565b60008060008060008060c087890312156106ee576106ed61051c565b5b60006106fc89828a0161056a565b965050602061070d89828a0161056a565b955050604061071e89828a0161056a565b945050606061072f89828a016106bc565b935050608061074089828a016105a0565b92505060a061075189828a016105a0565b9150509295509295509295565b6107678161057f565b82525050565b6000602082019050610782600083018461075e565b92915050565b61079181610541565b82525050565b6107a081610696565b82525050565b6107af8161057f565b82525050565b6107be81610521565b82525050565b610100820160008201516107db6000850182610788565b5060208201516107ee6020850182610788565b5060408201516108016040850182610797565b5060608201516108146060850182610788565b50608082015161082760808501826107a6565b5060a082015161083a60a08501826107a6565b5060c082015161084d60c08501826107a6565b5060e082015161086060e08501826107b5565b50505050565b60006101008201905061087c60008301846107c4565b92915050565b60008151905061089181610589565b92915050565b6000602082840312156108ad576108ac61051c565b5b60006108bb84828501610882565b91505092915050565b6108cd81610541565b82525050565b60006060820190506108e860008301866108c4565b6108f560208301856108c4565b610902604083018461075e565b949350505050565b600081519050919050565b600081905092915050565b60005b8381101561093e578082015181840152602081019050610923565b8381111561094d576000848401525b50505050565b600061095e8261090a565b6109688185610915565b9350610978818560208601610920565b80840191505092915050565b60006109908284610953565b915081905092915050565b60008115159050919050565b6109b08161099b565b81146109bb57600080fd5b50565b6000815190506109cd816109a7565b92915050565b6000602082840312156109e9576109e861051c565b5b60006109f7848285016109be565b91505092915050565b600082825260208201905092915050565b7f5354460000000000000000000000000000000000000000000000000000000000600082015250565b6000610a47600383610a00565b9150610a5282610a11565b602082019050919050565b60006020820190508181036000830152610a7681610a3a565b9050919050565b6000604082019050610a9260008301856108c4565b610a9f602083018461075e565b9392505050565b7f5341000000000000000000000000000000000000000000000000000000000000600082015250565b6000610adc600283610a00565b9150610ae782610aa6565b602082019050919050565b60006020820190508181036000830152610b0b81610acf565b905091905056fea264697066735822122069246200d5767bac472e3d3c02e7e06c4d6e5a1ebafc57151785b680a12ddbfc64736f6c634300080b0033",
  "immutableReferences": {
    "4157": [
      {
        "length": 32,
        "start": 207
      },
      {
        "length": 32,
        "start": 261
      },
      {
        "length": 32,
        "start": 456
      }
    ]
  },
  "source": "// SPDX-License-Identifier: MIT\npragma solidity ^0.8.0;\n\nimport \"@uniswap/v3-periphery/contracts/interfaces/ISwapRouter.sol\";\nimport \"@uniswap/v3-periphery/contracts/libraries/TransferHelper.sol\";\n\n\ncontract BeraSwapper {\n\n    ISwapRouter public immutable swapRouter;\n\n    constructor(ISwapRouter _swapRouter) {\n        swapRouter = _swapRouter;\n    }\n\n    // amount here refers to how much of the token shorted is passed back into the swapRouter\n    // used for both opening and closing positions\n    function _swapShort(\n        address user,\n        address tokenToShort, //what token is shorted //opposite on close\n        address tokenSupplied, //what token is supplied //opposite on close\n        uint24 poolFee,\n        uint amount,\n        uint amountOutMin) external returns(uint amountOut) {\n\n        TransferHelper.safeTransferFrom(tokenSupplied, user, address(this), amount);\n        TransferHelper.safeApprove(tokenSupplied, address(swapRouter), amount);\n\n        ISwapRouter.ExactInputSingleParams memory params =\n        ISwapRouter.ExactInputSingleParams({\n            tokenIn: tokenSupplied,\n            tokenOut: tokenToShort,\n            fee: poolFee,\n            recipient: msg.sender, //refers to pool that calls function\n            deadline: block.timestamp, //solhint-disable not-rely-on-time\n            amountIn: amount, //amountToSend\n            amountOutMinimum: amountOutMin, //used to check price\n            sqrtPriceLimitX96: 0\n        });\n\n        //execute the swap\n        amountOut = swapRouter.exactInputSingle(params);\n    }\n\n    //PLACEHOLDER ---> TODO\n    function _supplyShort(\n        address user,\n        address tokenSupplied,\n        address associatedPool,\n        uint amount) external {\n\n        //transfer tokens to pool\n        TransferHelper.safeTransferFrom(tokenSupplied, user, address(associatedPool), amount);\n        TransferHelper.safeApprove(tokenSupplied, address(associatedPool), amount);\n\n    }\n\n}\n",
  "sourcePath": "/home/kevin/Code/solidity_projects/beraMarket/contracts/BeraSwapper.sol",
  "compiler": {
    "name": "solc",
    "version": "0.8.11+commit.d7f03943.Emscripten.clang"
  },
  "schemaVersion": "3.4.3",
  "updatedAt": "2022-01-07T21:17:19.599Z",
  "devdoc": {
    "kind": "dev",
    "methods": {},
    "version": 1
  },
  "userdoc": {
    "kind": "user",
    "methods": {},
    "version": 1
  }
}