{
  "contractName": "BeraSwapper",
  "abi": [
    {
      "inputs": [
        {
          "internalType": "contract ISwapRouter",
          "name": "_swapRouter",
          "type": "address"
        },
        {
          "internalType": "contract IOracle",
          "name": "_oracle",
          "type": "address"
        }
      ],
      "stateMutability": "nonpayable",
      "type": "constructor"
    },
    {
      "inputs": [],
      "name": "oracle",
      "outputs": [
        {
          "internalType": "contract IOracle",
          "name": "",
          "type": "address"
        }
      ],
      "stateMutability": "view",
      "type": "function",
      "constant": true
    },
    {
      "inputs": [],
      "name": "swapRouter",
      "outputs": [
        {
          "internalType": "contract ISwapRouter",
          "name": "",
          "type": "address"
        }
      ],
      "stateMutability": "view",
      "type": "function",
      "constant": true
    },
    {
      "inputs": [
        {
          "internalType": "address",
          "name": "user",
          "type": "address"
        },
        {
          "internalType": "address",
          "name": "tokenToShort",
          "type": "address"
        },
        {
          "internalType": "address",
          "name": "tokenSupplied",
          "type": "address"
        },
        {
          "internalType": "uint24",
          "name": "poolFee",
          "type": "uint24"
        },
        {
          "internalType": "uint256",
          "name": "amount",
          "type": "uint256"
        },
        {
          "internalType": "uint256",
          "name": "amountOutMin",
          "type": "uint256"
        }
      ],
      "name": "_swapShort",
      "outputs": [
        {
          "internalType": "uint256",
          "name": "amountOut",
          "type": "uint256"
        }
      ],
      "stateMutability": "nonpayable",
      "type": "function"
    },
    {
      "inputs": [
        {
          "internalType": "address",
          "name": "user",
          "type": "address"
        },
        {
          "internalType": "address",
          "name": "tokenSupplied",
          "type": "address"
        },
        {
          "internalType": "uint256",
          "name": "amount",
          "type": "uint256"
        },
        {
          "internalType": "address",
          "name": "associatedPool",
          "type": "address"
        }
      ],
      "name": "_supplyShort",
      "outputs": [],
      "stateMutability": "nonpayable",
      "type": "function"
    }
  ],
  "bytecode": "0x60a06040523480156200001157600080fd5b506040516200122638038062001226833981810160405281019062000037919062000176565b8173ffffffffffffffffffffffffffffffffffffffff1660808173ffffffffffffffffffffffffffffffffffffffff1681525050806000806101000a81548173ffffffffffffffffffffffffffffffffffffffff021916908373ffffffffffffffffffffffffffffffffffffffff1602179055505050620001bd565b600080fd5b600073ffffffffffffffffffffffffffffffffffffffff82169050919050565b6000620000e582620000b8565b9050919050565b6000620000f982620000d8565b9050919050565b6200010b81620000ec565b81146200011757600080fd5b50565b6000815190506200012b8162000100565b92915050565b60006200013e82620000d8565b9050919050565b620001508162000131565b81146200015c57600080fd5b50565b600081519050620001708162000145565b92915050565b6000806040838503121562000190576200018f620000b3565b5b6000620001a0858286016200011a565b9250506020620001b3858286016200015f565b9150509250929050565b608051611038620001ee6000396000818161011c01528181610152015281816102a401526103e401526110386000f3fe608060405234801561001057600080fd5b506004361061004c5760003560e01c80637dc0d1d0146100515780637eec111c1461006f578063c31c9c071461008b578063f2e6c8cc146100a9575b600080fd5b6100596100d9565b60405161006691906107b9565b60405180910390f35b6100896004803603810190610084919061084d565b6100fd565b005b61009361011a565b6040516100a091906108d5565b60405180910390f35b6100c360048036038101906100be919061092b565b61013e565b6040516100d091906109c7565b60405180910390f35b60008054906101000a900473ffffffffffffffffffffffffffffffffffffffff1681565b6101098385838561048d565b6101148382846105e5565b50505050565b7f000000000000000000000000000000000000000000000000000000000000000081565b600061014c8588308661048d565b610177857f0000000000000000000000000000000000000000000000000000000000000000856105e5565b60008060009054906101000a900473ffffffffffffffffffffffffffffffffffffffff1673ffffffffffffffffffffffffffffffffffffffff166358de350088876040518363ffffffff1660e01b81526004016101d5929190610a00565b6040805180830381865afa1580156101f1573d6000803e3d6000fd5b505050506040513d601f19601f820116820180604052508101906102159190610a77565b91505060018160ff1614156103465760006040518060a0016040528088610bb873c02aaa39b223fe8d0a0e5c4f27ead9083c756cc28a8d604051602001610260959493929190610b35565b60405160208183030381529060405281526020013373ffffffffffffffffffffffffffffffffffffffff1681526020014281526020018681526020018581525090507f000000000000000000000000000000000000000000000000000000000000000073ffffffffffffffffffffffffffffffffffffffff1663c04b8d59826040518263ffffffff1660e01b81526004016102fb9190610cc1565b6020604051808303816000875af115801561031a573d6000803e3d6000fd5b505050506040513d601f19601f8201168201806040525081019061033e9190610cf8565b925050610482565b60006040518061010001604052808873ffffffffffffffffffffffffffffffffffffffff1681526020018973ffffffffffffffffffffffffffffffffffffffff1681526020018762ffffff1681526020013373ffffffffffffffffffffffffffffffffffffffff168152602001428152602001868152602001858152602001600073ffffffffffffffffffffffffffffffffffffffff1681525090507f000000000000000000000000000000000000000000000000000000000000000073ffffffffffffffffffffffffffffffffffffffff1663414bf389826040518263ffffffff1660e01b815260040161043b9190610de5565b6020604051808303816000875af115801561045a573d6000803e3d6000fd5b505050506040513d601f19601f8201168201806040525081019061047e9190610cf8565b9250505b509695505050505050565b6000808573ffffffffffffffffffffffffffffffffffffffff166323b872dd60e01b8686866040516024016104c493929190610e01565b604051602081830303815290604052907bffffffffffffffffffffffffffffffffffffffffffffffffffffffff19166020820180517bffffffffffffffffffffffffffffffffffffffffffffffffffffffff838183161783525050505060405161052e9190610e74565b6000604051808303816000865af19150503d806000811461056b576040519150601f19603f3d011682016040523d82523d6000602084013e610570565b606091505b509150915081801561059e575060008151148061059d57508080602001905181019061059c9190610ec3565b5b5b6105dd576040517f08c379a00000000000000000000000000000000000000000000000000000000081526004016105d490610f4d565b60405180910390fd5b505050505050565b6000808473ffffffffffffffffffffffffffffffffffffffff1663095ea7b360e01b858560405160240161061a929190610f6d565b604051602081830303815290604052907bffffffffffffffffffffffffffffffffffffffffffffffffffffffff19166020820180517bffffffffffffffffffffffffffffffffffffffffffffffffffffffff83818316178352505050506040516106849190610e74565b6000604051808303816000865af19150503d80600081146106c1576040519150601f19603f3d011682016040523d82523d6000602084013e6106c6565b606091505b50915091508180156106f457506000815114806106f35750808060200190518101906106f29190610ec3565b5b5b610733576040517f08c379a000000000000000000000000000000000000000000000000000000000815260040161072a90610fe2565b60405180910390fd5b5050505050565b600073ffffffffffffffffffffffffffffffffffffffff82169050919050565b6000819050919050565b600061077f61077a6107758461073a565b61075a565b61073a565b9050919050565b600061079182610764565b9050919050565b60006107a382610786565b9050919050565b6107b381610798565b82525050565b60006020820190506107ce60008301846107aa565b92915050565b600080fd5b60006107e48261073a565b9050919050565b6107f4816107d9565b81146107ff57600080fd5b50565b600081359050610811816107eb565b92915050565b6000819050919050565b61082a81610817565b811461083557600080fd5b50565b60008135905061084781610821565b92915050565b60008060008060808587031215610867576108666107d4565b5b600061087587828801610802565b945050602061088687828801610802565b935050604061089787828801610838565b92505060606108a887828801610802565b91505092959194509250565b60006108bf82610786565b9050919050565b6108cf816108b4565b82525050565b60006020820190506108ea60008301846108c6565b92915050565b600062ffffff82169050919050565b610908816108f0565b811461091357600080fd5b50565b600081359050610925816108ff565b92915050565b60008060008060008060c08789031215610948576109476107d4565b5b600061095689828a01610802565b965050602061096789828a01610802565b955050604061097889828a01610802565b945050606061098989828a01610916565b935050608061099a89828a01610838565b92505060a06109ab89828a01610838565b9150509295509295509295565b6109c181610817565b82525050565b60006020820190506109dc60008301846109b8565b92915050565b6109eb816107d9565b82525050565b6109fa816108f0565b82525050565b6000604082019050610a1560008301856109e2565b610a2260208301846109f1565b9392505050565b600081519050610a38816107eb565b92915050565b600060ff82169050919050565b610a5481610a3e565b8114610a5f57600080fd5b50565b600081519050610a7181610a4b565b92915050565b60008060408385031215610a8e57610a8d6107d4565b5b6000610a9c85828601610a29565b9250506020610aad85828601610a62565b9150509250929050565b60008160601b9050919050565b6000610acf82610ab7565b9050919050565b6000610ae182610ac4565b9050919050565b610af9610af4826107d9565b610ad6565b82525050565b60008160e81b9050919050565b6000610b1782610aff565b9050919050565b610b2f610b2a826108f0565b610b0c565b82525050565b6000610b418288610ae8565b601482019150610b518287610b1e565b600382019150610b618286610ae8565b601482019150610b718285610b1e565b600382019150610b818284610ae8565b6014820191508190509695505050505050565b600081519050919050565b600082825260208201905092915050565b60005b83811015610bce578082015181840152602081019050610bb3565b83811115610bdd576000848401525b50505050565b6000601f19601f8301169050919050565b6000610bff82610b94565b610c098185610b9f565b9350610c19818560208601610bb0565b610c2281610be3565b840191505092915050565b610c36816107d9565b82525050565b610c4581610817565b82525050565b600060a0830160008301518482036000860152610c688282610bf4565b9150506020830151610c7d6020860182610c2d565b506040830151610c906040860182610c3c565b506060830151610ca36060860182610c3c565b506080830151610cb66080860182610c3c565b508091505092915050565b60006020820190508181036000830152610cdb8184610c4b565b905092915050565b600081519050610cf281610821565b92915050565b600060208284031215610d0e57610d0d6107d4565b5b6000610d1c84828501610ce3565b91505092915050565b610d2e816108f0565b82525050565b610d3d8161073a565b82525050565b61010082016000820151610d5a6000850182610c2d565b506020820151610d6d6020850182610c2d565b506040820151610d806040850182610d25565b506060820151610d936060850182610c2d565b506080820151610da66080850182610c3c565b5060a0820151610db960a0850182610c3c565b5060c0820151610dcc60c0850182610c3c565b5060e0820151610ddf60e0850182610d34565b50505050565b600061010082019050610dfb6000830184610d43565b92915050565b6000606082019050610e1660008301866109e2565b610e2360208301856109e2565b610e3060408301846109b8565b949350505050565b600081905092915050565b6000610e4e82610b94565b610e588185610e38565b9350610e68818560208601610bb0565b80840191505092915050565b6000610e808284610e43565b915081905092915050565b60008115159050919050565b610ea081610e8b565b8114610eab57600080fd5b50565b600081519050610ebd81610e97565b92915050565b600060208284031215610ed957610ed86107d4565b5b6000610ee784828501610eae565b91505092915050565b600082825260208201905092915050565b7f5354460000000000000000000000000000000000000000000000000000000000600082015250565b6000610f37600383610ef0565b9150610f4282610f01565b602082019050919050565b60006020820190508181036000830152610f6681610f2a565b9050919050565b6000604082019050610f8260008301856109e2565b610f8f60208301846109b8565b9392505050565b7f5341000000000000000000000000000000000000000000000000000000000000600082015250565b6000610fcc600283610ef0565b9150610fd782610f96565b602082019050919050565b60006020820190508181036000830152610ffb81610fbf565b905091905056fea2646970667358221220774bc2a2ed59fd17ff28e7f60ccc6aa3f1660070b2062c59158005902db6a7da64736f6c634300080b0033",
  "immutableReferences": {
    "4159": [
      {
        "length": 32,
        "start": 284
      },
      {
        "length": 32,
        "start": 338
      },
      {
        "length": 32,
        "start": 676
      },
      {
        "length": 32,
        "start": 996
      }
    ]
  },
  "source": "// SPDX-License-Identifier: MIT\npragma solidity ^0.8.0;\npragma abicoder v2;\n\nimport \"@uniswap/v3-periphery/contracts/interfaces/ISwapRouter.sol\";\nimport \"@uniswap/v3-periphery/contracts/libraries/TransferHelper.sol\";\nimport \"./ancillary/IOracle.sol\";\n\n\ncontract BeraSwapper {\n\n    ISwapRouter public immutable swapRouter;\n    IOracle public oracle;\n    address private constant WETH_ADDRESS = 0xC02aaA39b223FE8D0A0e5C4F27eAD9083C756Cc2;\n    uint24 private constant DAI_FEE = 3000;\n\n    constructor(ISwapRouter _swapRouter, IOracle _oracle) {\n        swapRouter = _swapRouter;\n        oracle = _oracle;\n    }\n\n    // amount here refers to how much of the token shorted is passed back into the swapRouter\n    // used for both opening and closing positions\n    function _swapShort(\n        address user,\n        address tokenToShort, //what token is shorted //opposite on close\n        address tokenSupplied, //dai on open //opposite on close\n        uint24 poolFee,\n        uint amount,\n        uint amountOutMin) external returns(uint amountOut) {\n\n        TransferHelper.safeTransferFrom(tokenSupplied, user, address(this), amount);\n        TransferHelper.safeApprove(tokenSupplied, address(swapRouter), amount);\n\n        (, uint8 returnValue) = oracle.getPoolForTWAP(tokenToShort, poolFee);\n        if (returnValue == 1) {\n\n            ISwapRouter.ExactInputParams memory multiParams =\n            ISwapRouter.ExactInputParams({\n                path: abi.encodePacked(tokenSupplied, DAI_FEE, WETH_ADDRESS, poolFee, tokenToShort),\n                recipient: msg.sender,\n                deadline: block.timestamp, //solhint-disable not-rely-on-time\n                amountIn: amount,\n                amountOutMinimum: amountOutMin\n            });\n\n            // Executes the swap.\n            amountOut = swapRouter.exactInput(multiParams);\n          //don't judge me for using else it is readable >:(\n        } else {\n\n            ISwapRouter.ExactInputSingleParams memory params =\n            ISwapRouter.ExactInputSingleParams({\n                tokenIn: tokenSupplied,\n                tokenOut: tokenToShort,\n                fee: poolFee,\n                recipient: msg.sender, //refers to pool that calls function\n                deadline: block.timestamp, //solhint-disable not-rely-on-time\n                amountIn: amount, //amountToSend\n                amountOutMinimum: amountOutMin, //used to check price\n                sqrtPriceLimitX96: 0\n            });\n\n            //execute the swap\n            amountOut = swapRouter.exactInputSingle(params);\n        }\n    }\n\n    //PLACEHOLDER ---> TODO\n    function _supplyShort(\n        address user,\n        address tokenSupplied,\n        uint amount,\n        address associatedPool) external {\n        //transfer tokens to pool\n        TransferHelper.safeTransferFrom(tokenSupplied, user, address(associatedPool), amount);\n        TransferHelper.safeApprove(tokenSupplied, address(associatedPool), amount);\n\n    }\n\n}\n",
  "sourcePath": "/home/kevin/Code/solidity_projects/beraMarket/contracts/BeraSwapper.sol",
  "compiler": {
    "name": "solc",
    "version": "0.8.11+commit.d7f03943.Emscripten.clang"
  },
  "schemaVersion": "3.4.3",
  "updatedAt": "2022-01-13T21:16:13.557Z",
  "networkType": "ethereum",
  "devdoc": {
    "kind": "dev",
    "methods": {},
    "version": 1
  },
  "userdoc": {
    "kind": "user",
    "methods": {},
    "version": 1
  }
}