{
  "contractName": "BeraPoolStandardRisk",
  "abi": [
    {
      "inputs": [
        {
          "internalType": "contract ISwapRouter",
          "name": "_swapRouter",
          "type": "address"
        },
        {
          "internalType": "contract BeraWrapper",
          "name": "_beraWrapper",
          "type": "address"
        }
      ],
      "stateMutability": "nonpayable",
      "type": "constructor"
    },
    {
      "stateMutability": "payable",
      "type": "fallback",
      "payable": true
    },
    {
      "inputs": [],
      "name": "beraWrapper",
      "outputs": [
        {
          "internalType": "contract BeraWrapper",
          "name": "",
          "type": "address"
        }
      ],
      "stateMutability": "view",
      "type": "function",
      "constant": true
    },
    {
      "inputs": [
        {
          "internalType": "address",
          "name": "",
          "type": "address"
        },
        {
          "internalType": "uint256",
          "name": "",
          "type": "uint256"
        }
      ],
      "name": "entryPrices",
      "outputs": [
        {
          "internalType": "uint256",
          "name": "",
          "type": "uint256"
        }
      ],
      "stateMutability": "view",
      "type": "function",
      "constant": true
    },
    {
      "inputs": [
        {
          "internalType": "address",
          "name": "",
          "type": "address"
        },
        {
          "internalType": "address",
          "name": "",
          "type": "address"
        },
        {
          "internalType": "uint256[]",
          "name": "",
          "type": "uint256[]"
        },
        {
          "internalType": "uint256[]",
          "name": "",
          "type": "uint256[]"
        },
        {
          "internalType": "bytes",
          "name": "",
          "type": "bytes"
        }
      ],
      "name": "onERC1155BatchReceived",
      "outputs": [
        {
          "internalType": "bytes4",
          "name": "",
          "type": "bytes4"
        }
      ],
      "stateMutability": "nonpayable",
      "type": "function"
    },
    {
      "inputs": [
        {
          "internalType": "address",
          "name": "",
          "type": "address"
        },
        {
          "internalType": "address",
          "name": "",
          "type": "address"
        },
        {
          "internalType": "uint256",
          "name": "",
          "type": "uint256"
        },
        {
          "internalType": "uint256",
          "name": "",
          "type": "uint256"
        },
        {
          "internalType": "bytes",
          "name": "",
          "type": "bytes"
        }
      ],
      "name": "onERC1155Received",
      "outputs": [
        {
          "internalType": "bytes4",
          "name": "",
          "type": "bytes4"
        }
      ],
      "stateMutability": "nonpayable",
      "type": "function"
    },
    {
      "inputs": [],
      "name": "owner",
      "outputs": [
        {
          "internalType": "address",
          "name": "",
          "type": "address"
        }
      ],
      "stateMutability": "view",
      "type": "function",
      "constant": true
    },
    {
      "inputs": [
        {
          "internalType": "uint256",
          "name": "",
          "type": "uint256"
        }
      ],
      "name": "standardPoolList",
      "outputs": [
        {
          "internalType": "address",
          "name": "",
          "type": "address"
        }
      ],
      "stateMutability": "view",
      "type": "function",
      "constant": true
    },
    {
      "inputs": [
        {
          "internalType": "bytes4",
          "name": "interfaceId",
          "type": "bytes4"
        }
      ],
      "name": "supportsInterface",
      "outputs": [
        {
          "internalType": "bool",
          "name": "",
          "type": "bool"
        }
      ],
      "stateMutability": "view",
      "type": "function",
      "constant": true
    },
    {
      "inputs": [],
      "name": "swapRouter",
      "outputs": [
        {
          "internalType": "contract ISwapRouter",
          "name": "",
          "type": "address"
        }
      ],
      "stateMutability": "view",
      "type": "function",
      "constant": true
    },
    {
      "inputs": [
        {
          "internalType": "address",
          "name": "",
          "type": "address"
        }
      ],
      "name": "userDepositBalance",
      "outputs": [
        {
          "internalType": "uint256",
          "name": "",
          "type": "uint256"
        }
      ],
      "stateMutability": "view",
      "type": "function",
      "constant": true
    },
    {
      "inputs": [
        {
          "internalType": "address",
          "name": "",
          "type": "address"
        },
        {
          "internalType": "uint256",
          "name": "",
          "type": "uint256"
        }
      ],
      "name": "userShortBalance",
      "outputs": [
        {
          "internalType": "uint256",
          "name": "",
          "type": "uint256"
        }
      ],
      "stateMutability": "view",
      "type": "function",
      "constant": true
    },
    {
      "stateMutability": "payable",
      "type": "receive",
      "payable": true
    },
    {
      "inputs": [
        {
          "internalType": "uint256",
          "name": "_amount",
          "type": "uint256"
        },
        {
          "internalType": "address",
          "name": "collateral",
          "type": "address"
        }
      ],
      "name": "depositCollateral",
      "outputs": [],
      "stateMutability": "nonpayable",
      "type": "function"
    },
    {
      "inputs": [
        {
          "internalType": "uint256",
          "name": "amount",
          "type": "uint256"
        },
        {
          "internalType": "uint256",
          "name": "_userShortID",
          "type": "uint256"
        }
      ],
      "name": "withdrawFromPool",
      "outputs": [],
      "stateMutability": "nonpayable",
      "type": "function"
    },
    {
      "inputs": [
        {
          "internalType": "uint256",
          "name": "amount",
          "type": "uint256"
        },
        {
          "internalType": "address",
          "name": "tokenToShort",
          "type": "address"
        },
        {
          "internalType": "uint24",
          "name": "poolFee",
          "type": "uint24"
        },
        {
          "internalType": "uint256",
          "name": "amountOutMin",
          "type": "uint256"
        }
      ],
      "name": "swapAndShortStandard",
      "outputs": [
        {
          "internalType": "uint256",
          "name": "amountOut",
          "type": "uint256"
        }
      ],
      "stateMutability": "nonpayable",
      "type": "function"
    },
    {
      "inputs": [
        {
          "internalType": "address",
          "name": "user",
          "type": "address"
        },
        {
          "internalType": "uint256",
          "name": "_userShortID",
          "type": "uint256"
        },
        {
          "internalType": "uint256",
          "name": "priceAtClose",
          "type": "uint256"
        }
      ],
      "name": "closeShortStandardPool",
      "outputs": [],
      "stateMutability": "nonpayable",
      "type": "function"
    }
  ],
  "bytecode": "0x60a06040523480156200001157600080fd5b5060405162002c6b38038062002c6b8339818101604052810190620000379190620001b7565b336000806101000a81548173ffffffffffffffffffffffffffffffffffffffff021916908373ffffffffffffffffffffffffffffffffffffffff1602179055508173ffffffffffffffffffffffffffffffffffffffff1660808173ffffffffffffffffffffffffffffffffffffffff168152505080600860006101000a81548173ffffffffffffffffffffffffffffffffffffffff021916908373ffffffffffffffffffffffffffffffffffffffff1602179055505050620001fe565b600080fd5b600073ffffffffffffffffffffffffffffffffffffffff82169050919050565b60006200012682620000f9565b9050919050565b60006200013a8262000119565b9050919050565b6200014c816200012d565b81146200015857600080fd5b50565b6000815190506200016c8162000141565b92915050565b60006200017f8262000119565b9050919050565b620001918162000172565b81146200019d57600080fd5b50565b600081519050620001b18162000186565b92915050565b60008060408385031215620001d157620001d0620000f4565b5b6000620001e1858286016200015b565b9250506020620001f485828601620001a0565b9150509250929050565b608051612a356200023660003960008181610b4e01528181610c2501528181610e350152818161165201526117290152612a356000f3fe6080604052600436106100e15760003560e01c80638da5cb5b1161007f578063bc197c8111610059578063bc197c8114610300578063c31c9c071461033d578063ef1b316614610368578063f23a6e6114610391576100e8565b80638da5cb5b1461026d578063a29aa11414610298578063aac28b54146102c3576100e8565b8063481fef8a116100bb578063481fef8a146101a15780637b1609b1146101ca5780637c802ff2146101f35780638a7d6ac614610230576100e8565b806301ffc9a7146100ea578063099d2958146101275780630bf7f34514610164576100e8565b366100e857005b005b3480156100f657600080fd5b50610111600480360381019061010c9190611965565b6103ce565b60405161011e91906119ad565b60405180910390f35b34801561013357600080fd5b5061014e60048036038101906101499190611a5c565b610448565b60405161015b9190611aab565b60405180910390f35b34801561017057600080fd5b5061018b60048036038101906101869190611ac6565b61046d565b6040516101989190611b02565b60405180910390f35b3480156101ad57600080fd5b506101c860048036038101906101c39190611b1d565b6104ac565b005b3480156101d657600080fd5b506101f160048036038101906101ec9190611b5d565b610726565b005b3480156101ff57600080fd5b5061021a60048036038101906102159190611bb0565b610995565b6040516102279190611aab565b60405180910390f35b34801561023c57600080fd5b5061025760048036038101906102529190611a5c565b6109ad565b6040516102649190611aab565b60405180910390f35b34801561027957600080fd5b506102826109d2565b60405161028f9190611b02565b60405180910390f35b3480156102a457600080fd5b506102ad6109f6565b6040516102ba9190611c3c565b60405180910390f35b3480156102cf57600080fd5b506102ea60048036038101906102e59190611c92565b610a1c565b6040516102f79190611aab565b60405180910390f35b34801561030c57600080fd5b5061032760048036038101906103229190611f07565b610e1e565b6040516103349190611fe5565b60405180910390f35b34801561034957600080fd5b50610352610e33565b60405161035f9190612021565b60405180910390f35b34801561037457600080fd5b5061038f600480360381019061038a919061203c565b610e57565b005b34801561039d57600080fd5b506103b860048036038101906103b3919061207c565b61110b565b6040516103c59190611fe5565b60405180910390f35b60007f4e2312e0000000000000000000000000000000000000000000000000000000007bffffffffffffffffffffffffffffffffffffffffffffffffffffffff1916827bffffffffffffffffffffffffffffffffffffffffffffffffffffffff19161480610441575061044082611120565b5b9050919050565b6002602052816000526040600020602052806000526040600020600091509150505481565b6007818154811061047d57600080fd5b906000526020600020016000915054906101000a900473ffffffffffffffffffffffffffffffffffffffff1681565b736b175474e89094c44da98b954eedeac495271d0f73ffffffffffffffffffffffffffffffffffffffff168173ffffffffffffffffffffffffffffffffffffffff161461052e576040517f08c379a000000000000000000000000000000000000000000000000000000000815260040161052590612170565b60405180910390fd5b6000670de0b6b3a76400008361054491906121bf565b90506000600160003373ffffffffffffffffffffffffffffffffffffffff1673ffffffffffffffffffffffffffffffffffffffff16815260200190815260200160002054111561064a576007339080600181540180825580915050600190039060005260206000200160009091909190916101000a81548173ffffffffffffffffffffffffffffffffffffffff021916908373ffffffffffffffffffffffffffffffffffffffff1602179055506001600460003373ffffffffffffffffffffffffffffffffffffffff1673ffffffffffffffffffffffffffffffffffffffff16815260200190815260200160002060006101000a81548160ff0219169083151502179055505b80600160003373ffffffffffffffffffffffffffffffffffffffff1673ffffffffffffffffffffffffffffffffffffffff16815260200190815260200160002060008282546106999190612219565b925050819055508173ffffffffffffffffffffffffffffffffffffffff166323b872dd3330866040518463ffffffff1660e01b81526004016106dd9392919061226f565b6020604051808303816000875af11580156106fc573d6000803e3d6000fd5b505050506040513d601f19601f8201168201806040525081019061072091906122d2565b50505050565b3373ffffffffffffffffffffffffffffffffffffffff168373ffffffffffffffffffffffffffffffffffffffff1614610794576040517f08c379a000000000000000000000000000000000000000000000000000000000815260040161078b9061234b565b60405180910390fd5b60008073__PnLCalculator_________________________63896b198a600560003373ffffffffffffffffffffffffffffffffffffffff1673ffffffffffffffffffffffffffffffffffffffff168152602001908152602001600020600087815260200190815260200160002054856040518363ffffffff1660e01b815260040161082092919061237a565b6040805180830381865af415801561083c573d6000803e3d6000fd5b505050506040513d601f19601f8201168201806040525081019061086091906123f1565b60ff1691509150600160003373ffffffffffffffffffffffffffffffffffffffff1673ffffffffffffffffffffffffffffffffffffffff1681526020019081526020016000205482111580156108b65750600181145b506000600660003373ffffffffffffffffffffffffffffffffffffffff1673ffffffffffffffffffffffffffffffffffffffff168152602001908152602001600020600086815260200190815260200160002060006101000a81548160ff02191690831515021790555060008114156109845781600160003373ffffffffffffffffffffffffffffffffffffffff1673ffffffffffffffffffffffffffffffffffffffff16815260200190815260200160002060008282546109789190612219565b9250508190555061098e565b61098d8261118a565b5b5050505050565b60016020528060005260406000206000915090505481565b6005602052816000526040600020602052806000526040600020600091509150505481565b60008054906101000a900473ffffffffffffffffffffffffffffffffffffffff1681565b600860009054906101000a900473ffffffffffffffffffffffffffffffffffffffff1681565b6000600160003373ffffffffffffffffffffffffffffffffffffffff1673ffffffffffffffffffffffffffffffffffffffff16815260200190815260200160002054851115610aa0576040517f08c379a0000000000000000000000000000000000000000000000000000000008152600401610a979061247d565b60405180910390fd5b6001600360003373ffffffffffffffffffffffffffffffffffffffff1673ffffffffffffffffffffffffffffffffffffffff1681526020019081526020016000206000828254610af09190612219565b9250508190555060006064605f87610b0891906121bf565b610b1291906124cc565b9050610b34736b175474e89094c44da98b954eedeac495271d0f33308961139d565b610b73736b175474e89094c44da98b954eedeac495271d0f7f0000000000000000000000000000000000000000000000000000000000000000886114f5565b6000604051806101000160405280736b175474e89094c44da98b954eedeac495271d0f73ffffffffffffffffffffffffffffffffffffffff1681526020018773ffffffffffffffffffffffffffffffffffffffff1681526020018662ffffff1681526020013073ffffffffffffffffffffffffffffffffffffffff168152602001428152602001838152602001858152602001600073ffffffffffffffffffffffffffffffffffffffff1681525090507f000000000000000000000000000000000000000000000000000000000000000073ffffffffffffffffffffffffffffffffffffffff1663414bf389826040518263ffffffff1660e01b8152600401610c7c91906125db565b6020604051808303816000875af1158015610c9b573d6000803e3d6000fd5b505050506040513d601f19601f82011682018060405250810190610cbf91906125f7565b92506000610bb89050610cd633888389888a61164a565b5080600560003373ffffffffffffffffffffffffffffffffffffffff1673ffffffffffffffffffffffffffffffffffffffff1681526020019081526020016000206000600360003373ffffffffffffffffffffffffffffffffffffffff1673ffffffffffffffffffffffffffffffffffffffff168152602001908152602001600020548152602001908152602001600020819055506001600660003373ffffffffffffffffffffffffffffffffffffffff1673ffffffffffffffffffffffffffffffffffffffff1681526020019081526020016000206000600360003373ffffffffffffffffffffffffffffffffffffffff1673ffffffffffffffffffffffffffffffffffffffff16815260200190815260200160002054815260200190815260200160002060006101000a81548160ff021916908315150217905550505050949350505050565b600063bc197c8160e01b905095945050505050565b7f000000000000000000000000000000000000000000000000000000000000000081565b600160003373ffffffffffffffffffffffffffffffffffffffff1673ffffffffffffffffffffffffffffffffffffffff16815260200190815260200160002054821115610ed9576040517f08c379a0000000000000000000000000000000000000000000000000000000008152600401610ed090612696565b60405180910390fd5b60001515600660003373ffffffffffffffffffffffffffffffffffffffff1673ffffffffffffffffffffffffffffffffffffffff168152602001908152602001600020600083815260200190815260200160002060009054906101000a900460ff16151514610f7d576040517f08c379a0000000000000000000000000000000000000000000000000000000008152600401610f749061274e565b60405180910390fd5b81600160003373ffffffffffffffffffffffffffffffffffffffff1673ffffffffffffffffffffffffffffffffffffffff1681526020019081526020016000206000828254610fcc919061276e565b925050819055506000600160003373ffffffffffffffffffffffffffffffffffffffff1673ffffffffffffffffffffffffffffffffffffffff168152602001908152602001600020541415611074576000600460003373ffffffffffffffffffffffffffffffffffffffff1673ffffffffffffffffffffffffffffffffffffffff16815260200190815260200160002060006101000a81548160ff0219169083151502179055505b736b175474e89094c44da98b954eedeac495271d0f73ffffffffffffffffffffffffffffffffffffffff1663a9059cbb33846040518363ffffffff1660e01b81526004016110c39291906127a2565b6020604051808303816000875af11580156110e2573d6000803e3d6000fd5b505050506040513d601f19601f8201168201806040525081019061110691906122d2565b505050565b600063f23a6e6160e01b905095945050505050565b60007f01ffc9a7000000000000000000000000000000000000000000000000000000007bffffffffffffffffffffffffffffffffffffffffffffffffffffffff1916827bffffffffffffffffffffffffffffffffffffffffffffffffffffffff1916149050919050565b6000670de0b6b3a7640000826111a091906121bf565b905060005b600780549050811015611398576000670de0b6b3a7640000736b175474e89094c44da98b954eedeac495271d0f73ffffffffffffffffffffffffffffffffffffffff166370a08231306040518263ffffffff1660e01b815260040161120a9190611b02565b602060405180830381865afa158015611227573d6000803e3d6000fd5b505050506040513d601f19601f8201168201806040525081019061124b91906125f7565b6001600060078681548110611263576112626127cb565b5b9060005260206000200160009054906101000a900473ffffffffffffffffffffffffffffffffffffffff1673ffffffffffffffffffffffffffffffffffffffff1673ffffffffffffffffffffffffffffffffffffffff168152602001908152602001600020546112d391906124cc565b6112dd91906121bf565b9050600083826112ed91906121bf565b9050806001600060078681548110611308576113076127cb565b5b9060005260206000200160009054906101000a900473ffffffffffffffffffffffffffffffffffffffff1673ffffffffffffffffffffffffffffffffffffffff1673ffffffffffffffffffffffffffffffffffffffff168152602001908152602001600020600082825461137c9190612219565b9250508190555050508080611390906127fa565b9150506111a5565b505050565b6000808573ffffffffffffffffffffffffffffffffffffffff166323b872dd60e01b8686866040516024016113d49392919061226f565b604051602081830303815290604052907bffffffffffffffffffffffffffffffffffffffffffffffffffffffff19166020820180517bffffffffffffffffffffffffffffffffffffffffffffffffffffffff838183161783525050505060405161143e91906128bd565b6000604051808303816000865af19150503d806000811461147b576040519150601f19603f3d011682016040523d82523d6000602084013e611480565b606091505b50915091508180156114ae57506000815114806114ad5750808060200190518101906114ac91906122d2565b5b5b6114ed576040517f08c379a00000000000000000000000000000000000000000000000000000000081526004016114e490612920565b60405180910390fd5b505050505050565b6000808473ffffffffffffffffffffffffffffffffffffffff1663095ea7b360e01b858560405160240161152a9291906127a2565b604051602081830303815290604052907bffffffffffffffffffffffffffffffffffffffffffffffffffffffff19166020820180517bffffffffffffffffffffffffffffffffffffffffffffffffffffffff838183161783525050505060405161159491906128bd565b6000604051808303816000865af19150503d80600081146115d1576040519150601f19603f3d011682016040523d82523d6000602084013e6115d6565b606091505b5091509150818015611604575060008151148061160357508080602001905181019061160291906122d2565b5b5b611643576040517f08c379a000000000000000000000000000000000000000000000000000000000815260040161163a9061298c565b60405180910390fd5b5050505050565b6000611677867f0000000000000000000000000000000000000000000000000000000000000000856114f5565b60006040518061010001604052808873ffffffffffffffffffffffffffffffffffffffff168152602001736b175474e89094c44da98b954eedeac495271d0f73ffffffffffffffffffffffffffffffffffffffff1681526020018662ffffff1681526020013073ffffffffffffffffffffffffffffffffffffffff168152602001428152602001858152602001848152602001600073ffffffffffffffffffffffffffffffffffffffff1681525090507f000000000000000000000000000000000000000000000000000000000000000073ffffffffffffffffffffffffffffffffffffffff1663414bf389826040518263ffffffff1660e01b815260040161178091906125db565b6020604051808303816000875af115801561179f573d6000803e3d6000fd5b505050506040513d601f19601f820116820180604052508101906117c391906125f7565b915081600260003373ffffffffffffffffffffffffffffffffffffffff1673ffffffffffffffffffffffffffffffffffffffff1681526020019081526020016000206000600360003373ffffffffffffffffffffffffffffffffffffffff1673ffffffffffffffffffffffffffffffffffffffff16815260200190815260200160002054815260200190815260200160002081905550600860009054906101000a900473ffffffffffffffffffffffffffffffffffffffff1673ffffffffffffffffffffffffffffffffffffffff1663c25df92d8930878b8b6040518663ffffffff1660e01b81526004016118bc9594939291906129ac565b600060405180830381600087803b1580156118d657600080fd5b505af11580156118ea573d6000803e3d6000fd5b50505050509695505050505050565b6000604051905090565b600080fd5b600080fd5b60007fffffffff0000000000000000000000000000000000000000000000000000000082169050919050565b6119428161190d565b811461194d57600080fd5b50565b60008135905061195f81611939565b92915050565b60006020828403121561197b5761197a611903565b5b600061198984828501611950565b91505092915050565b60008115159050919050565b6119a781611992565b82525050565b60006020820190506119c2600083018461199e565b92915050565b600073ffffffffffffffffffffffffffffffffffffffff82169050919050565b60006119f3826119c8565b9050919050565b611a03816119e8565b8114611a0e57600080fd5b50565b600081359050611a20816119fa565b92915050565b6000819050919050565b611a3981611a26565b8114611a4457600080fd5b50565b600081359050611a5681611a30565b92915050565b60008060408385031215611a7357611a72611903565b5b6000611a8185828601611a11565b9250506020611a9285828601611a47565b9150509250929050565b611aa581611a26565b82525050565b6000602082019050611ac06000830184611a9c565b92915050565b600060208284031215611adc57611adb611903565b5b6000611aea84828501611a47565b91505092915050565b611afc816119e8565b82525050565b6000602082019050611b176000830184611af3565b92915050565b60008060408385031215611b3457611b33611903565b5b6000611b4285828601611a47565b9250506020611b5385828601611a11565b9150509250929050565b600080600060608486031215611b7657611b75611903565b5b6000611b8486828701611a11565b9350506020611b9586828701611a47565b9250506040611ba686828701611a47565b9150509250925092565b600060208284031215611bc657611bc5611903565b5b6000611bd484828501611a11565b91505092915050565b6000819050919050565b6000611c02611bfd611bf8846119c8565b611bdd565b6119c8565b9050919050565b6000611c1482611be7565b9050919050565b6000611c2682611c09565b9050919050565b611c3681611c1b565b82525050565b6000602082019050611c516000830184611c2d565b92915050565b600062ffffff82169050919050565b611c6f81611c57565b8114611c7a57600080fd5b50565b600081359050611c8c81611c66565b92915050565b60008060008060808587031215611cac57611cab611903565b5b6000611cba87828801611a47565b9450506020611ccb87828801611a11565b9350506040611cdc87828801611c7d565b9250506060611ced87828801611a47565b91505092959194509250565b600080fd5b6000601f19601f8301169050919050565b7f4e487b7100000000000000000000000000000000000000000000000000000000600052604160045260246000fd5b611d4782611cfe565b810181811067ffffffffffffffff82111715611d6657611d65611d0f565b5b80604052505050565b6000611d796118f9565b9050611d858282611d3e565b919050565b600067ffffffffffffffff821115611da557611da4611d0f565b5b602082029050602081019050919050565b600080fd5b6000611dce611dc984611d8a565b611d6f565b90508083825260208201905060208402830185811115611df157611df0611db6565b5b835b81811015611e1a5780611e068882611a47565b845260208401935050602081019050611df3565b5050509392505050565b600082601f830112611e3957611e38611cf9565b5b8135611e49848260208601611dbb565b91505092915050565b600080fd5b600067ffffffffffffffff821115611e7257611e71611d0f565b5b611e7b82611cfe565b9050602081019050919050565b82818337600083830152505050565b6000611eaa611ea584611e57565b611d6f565b905082815260208101848484011115611ec657611ec5611e52565b5b611ed1848285611e88565b509392505050565b600082601f830112611eee57611eed611cf9565b5b8135611efe848260208601611e97565b91505092915050565b600080600080600060a08688031215611f2357611f22611903565b5b6000611f3188828901611a11565b9550506020611f4288828901611a11565b945050604086013567ffffffffffffffff811115611f6357611f62611908565b5b611f6f88828901611e24565b935050606086013567ffffffffffffffff811115611f9057611f8f611908565b5b611f9c88828901611e24565b925050608086013567ffffffffffffffff811115611fbd57611fbc611908565b5b611fc988828901611ed9565b9150509295509295909350565b611fdf8161190d565b82525050565b6000602082019050611ffa6000830184611fd6565b92915050565b600061200b82611c09565b9050919050565b61201b81612000565b82525050565b60006020820190506120366000830184612012565b92915050565b6000806040838503121561205357612052611903565b5b600061206185828601611a47565b925050602061207285828601611a47565b9150509250929050565b600080600080600060a0868803121561209857612097611903565b5b60006120a688828901611a11565b95505060206120b788828901611a11565b94505060406120c888828901611a47565b93505060606120d988828901611a47565b925050608086013567ffffffffffffffff8111156120fa576120f9611908565b5b61210688828901611ed9565b9150509295509295909350565b600082825260208201905092915050565b7f5354414e4441524420504f4f4c3a204e6f742044414900000000000000000000600082015250565b600061215a601683612113565b915061216582612124565b602082019050919050565b600060208201905081810360008301526121898161214d565b9050919050565b7f4e487b7100000000000000000000000000000000000000000000000000000000600052601160045260246000fd5b60006121ca82611a26565b91506121d583611a26565b9250817fffffffffffffffffffffffffffffffffffffffffffffffffffffffffffffffff048311821515161561220e5761220d612190565b5b828202905092915050565b600061222482611a26565b915061222f83611a26565b9250827fffffffffffffffffffffffffffffffffffffffffffffffffffffffffffffffff0382111561226457612263612190565b5b828201905092915050565b60006060820190506122846000830186611af3565b6122916020830185611af3565b61229e6040830184611a9c565b949350505050565b6122af81611992565b81146122ba57600080fd5b50565b6000815190506122cc816122a6565b92915050565b6000602082840312156122e8576122e7611903565b5b60006122f6848285016122bd565b91505092915050565b7f434c4f53453a204e6f7420796f757220706f736974696f6e0000000000000000600082015250565b6000612335601883612113565b9150612340826122ff565b602082019050919050565b6000602082019050818103600083015261236481612328565b9050919050565b61237481611a26565b82525050565b600060408201905061238f600083018561236b565b61239c602083018461236b565b9392505050565b6000815190506123b281611a30565b92915050565b600060ff82169050919050565b6123ce816123b8565b81146123d957600080fd5b50565b6000815190506123eb816123c5565b92915050565b6000806040838503121561240857612407611903565b5b6000612416858286016123a3565b9250506020612427858286016123dc565b9150509250929050565b7f535741503a206e6f7420656e6f75676820636f6c6c61746572616c0000000000600082015250565b6000612467601b83612113565b915061247282612431565b602082019050919050565b600060208201905081810360008301526124968161245a565b9050919050565b7f4e487b7100000000000000000000000000000000000000000000000000000000600052601260045260246000fd5b60006124d782611a26565b91506124e283611a26565b9250826124f2576124f161249d565b5b828204905092915050565b612506816119e8565b82525050565b61251581611c57565b82525050565b61252481611a26565b82525050565b612533816119c8565b82525050565b6101008201600082015161255060008501826124fd565b50602082015161256360208501826124fd565b506040820151612576604085018261250c565b50606082015161258960608501826124fd565b50608082015161259c608085018261251b565b5060a08201516125af60a085018261251b565b5060c08201516125c260c085018261251b565b5060e08201516125d560e085018261252a565b50505050565b6000610100820190506125f16000830184612539565b92915050565b60006020828403121561260d5761260c611903565b5b600061261b848285016123a3565b91505092915050565b7f434f4c4c41544552414c3a20747279696e6720746f207769746864726177206d60008201527f6f726520636f6c6c61746572616c207468616e206465706f7369746564000000602082015250565b6000612680603d83612113565b915061268b82612624565b604082019050919050565b600060208201905081810360008301526126af81612673565b9050919050565b7f434f4c4c41544552414c3a20636c6f736520796f75722063757272656e74207060008201527f6f736974696f6e206265666f726520747279696e6720746f207769746864726160208201527f7700000000000000000000000000000000000000000000000000000000000000604082015250565b6000612738604183612113565b9150612743826126b6565b606082019050919050565b600060208201905081810360008301526127678161272b565b9050919050565b600061277982611a26565b915061278483611a26565b92508282101561279757612796612190565b5b828203905092915050565b60006040820190506127b76000830185611af3565b6127c46020830184611a9c565b9392505050565b7f4e487b7100000000000000000000000000000000000000000000000000000000600052603260045260246000fd5b600061280582611a26565b91507fffffffffffffffffffffffffffffffffffffffffffffffffffffffffffffffff82141561283857612837612190565b5b600182019050919050565b600081519050919050565b600081905092915050565b60005b8381101561287757808201518184015260208101905061285c565b83811115612886576000848401525b50505050565b600061289782612843565b6128a1818561284e565b93506128b1818560208601612859565b80840191505092915050565b60006128c9828461288c565b915081905092915050565b7f5354460000000000000000000000000000000000000000000000000000000000600082015250565b600061290a600383612113565b9150612915826128d4565b602082019050919050565b60006020820190508181036000830152612939816128fd565b9050919050565b7f5341000000000000000000000000000000000000000000000000000000000000600082015250565b6000612976600283612113565b915061298182612940565b602082019050919050565b600060208201905081810360008301526129a581612969565b9050919050565b600060a0820190506129c16000830188611af3565b6129ce6020830187611af3565b6129db6040830186611a9c565b6129e86060830185611af3565b6129f56080830184611a9c565b969550505050505056fea2646970667358221220fb29bf51b8c676ed50c0503517c1ec121fad44f12d4847c9a71b6f3668c2871564736f6c634300080a0033",
  "immutableReferences": {
    "2114": [
      {
        "length": 32,
        "start": 2894
      },
      {
        "length": 32,
        "start": 3109
      },
      {
        "length": 32,
        "start": 3637
      },
      {
        "length": 32,
        "start": 5714
      },
      {
        "length": 32,
        "start": 5929
      }
    ]
  },
  "source": "// SPDX-License-Identifier: MIT\npragma solidity ^0.8.0; //solhint-disable compiler-fixed\npragma abicoder v2;\n\n\nimport \"@openzeppelin/contracts/token/ERC1155/IERC1155.sol\";\nimport \"@openzeppelin/contracts/token/ERC1155/utils/ERC1155Holder.sol\";\nimport \"@uniswap/v3-periphery/contracts/interfaces/ISwapRouter.sol\";\nimport \"@uniswap/v3-periphery/contracts/libraries/TransferHelper.sol\";\nimport \"@openzeppelin/contracts/token/ERC20/IERC20.sol\";\nimport \"./BeraWrapper.sol\";\nimport \"./ancillary/PnLCalculator.sol\";\n\n\ncontract BeraPoolStandardRisk is ERC1155Holder {\n\n    address public owner;\n\n    mapping(address => uint) public userDepositBalance;\n    mapping(address => mapping(uint => uint)) public userShortBalance;\n    mapping(address => uint) internal userShortID;\n    mapping(address => bool) internal hasCollateral;\n    //nested mapping so multiple positions can be opened by the same user\n    mapping(address => mapping(uint => uint)) public entryPrices;\n    //stores which position is in a short for withdraw purposes later\n    mapping(address => mapping(uint => bool)) internal inShort; //stores whether user is currently in a position\n    address[] public standardPoolList;\n\n    address private constant DAI_ADDRESS = 0x6B175474E89094C44Da98b954EedeAC495271d0F;\n\n    ISwapRouter public immutable swapRouter;\n    BeraWrapper public beraWrapper;\n\n    constructor(ISwapRouter _swapRouter,\n        BeraWrapper _beraWrapper) { //solhint-disable func-visibility\n        owner = msg.sender;\n        swapRouter = _swapRouter;\n        beraWrapper = _beraWrapper;\n    }\n\n    function depositCollateral(uint _amount, address collateral) external {\n        require(IERC20(collateral) == IERC20(DAI_ADDRESS), \"STANDARD POOL: Not DAI\");\n        uint amount = _amount * 1e18;\n\n        //we use the hasCollateral mapping to avoid having to loop through the array when removing\n        //the user from the users who receive the distribution of funds for yield\n        if (userDepositBalance[msg.sender] > 0) {\n            standardPoolList.push(msg.sender);\n            hasCollateral[msg.sender] = true;\n        }\n\n        //used for withdrawl later\n        userDepositBalance[msg.sender] += amount;\n\n        //transfer to seperate pools based on user defined risk\n        //high risk pool will keep 5% of the native token to try and maximize returns\n        IERC20(collateral).transferFrom(msg.sender, address(this), _amount);\n    }\n\n    function withdrawFromPool(uint amount, uint _userShortID) external {\n        require(amount <= userDepositBalance[msg.sender],\n            \"COLLATERAL: trying to withdraw more collateral than deposited\");\n\n        //checking if the funds locked in the position have been released before allowing them to be withdrawn\n        require(inShort[msg.sender][_userShortID] == false,\n            \"COLLATERAL: close your current position before trying to withdraw\");\n\n        //reset balance of user on withdraw\n        userDepositBalance[msg.sender] -= amount;\n\n        if (userDepositBalance[msg.sender] == 0) {\n            hasCollateral[msg.sender] = false;\n        }\n\n        IERC20(DAI_ADDRESS).transfer(msg.sender, amount);\n    }\n\n    // deposit collateral into user account before being allowed to short\n    function swapAndShortStandard(\n            uint amount,\n            address tokenToShort,\n            uint24 poolFee, //needed for uniswap pool\n            uint amountOutMin)\n            external returns(uint amountOut) { //solhint-disable function-max-lines\n                require(amount <= userDepositBalance[msg.sender], \"SWAP: not enough collateral\");\n\n                //TODO\n                //update userDepositBalance -= amount;\n\n                //by default uints are initialized at 0 so this should work???\n                userShortID[msg.sender] += 1;\n\n                //keeping 5% of dai in contract to be distributed to liq providers on loss of pool\n                uint amountToSend = amount * 95 / 100;\n\n                TransferHelper.safeTransferFrom(DAI_ADDRESS, msg.sender, address(this), amount);\n                TransferHelper.safeApprove(DAI_ADDRESS, address(swapRouter), amount);\n\n                ISwapRouter.ExactInputSingleParams memory params =\n                ISwapRouter.ExactInputSingleParams({\n                    tokenIn: DAI_ADDRESS,\n                    tokenOut: tokenToShort,\n                    fee: poolFee,\n                    recipient: address(this),\n                    deadline: block.timestamp, //solhint-disable not-rely-on-time\n                    amountIn: amountToSend,\n                    amountOutMinimum: amountOutMin,\n                    sqrtPriceLimitX96: 0\n                });\n\n                //execute the frist swap\n                amountOut = swapRouter.exactInputSingle(params);\n\n                //Call twapPriceOracle here or find a better way to capture price\n                //TODO: Price wrapping\n                //TEST ONLY\n                uint priceAtWrap = 3000;\n\n                //execute the second swap and transfer funds to pool for holding\n                //have to update priceAtWrap, users can set this amount manually and drain funds lmfao\n                //will likely use TWAPOracle feature of uniV3 pools\n                _shortForUser(\n                    msg.sender,\n                    tokenToShort,\n                    priceAtWrap,\n                    poolFee,\n                    amountOut,\n                    amountOutMin\n                );\n\n                //update entry price mapping\n                //this refers to the entry price of msg.sender for the current shortID of msg.sender\n                //nested mappings look cringe but are efficient\n                entryPrices[msg.sender][userShortID[msg.sender]] = priceAtWrap;\n\n                //update userPositionNumber current short status\n                inShort[msg.sender][userShortID[msg.sender]] = true;\n            }\n\n    //TODO\n    //contract already has the DAI needed to close the trade, can just check the price and\n    //calculate the difference between the opening and closing prices, no need for expensive swaps\n    //in the standardPool contract anyways\n    function closeShortStandardPool(\n        address user,\n        uint _userShortID,\n        uint priceAtClose)\n        external {\n            require(user == msg.sender, \"CLOSE: Not your position\");\n\n            //TODO\n            //require priceAtClose == twapPriceOracle();\n\n            //calculate position balance using entryPrices vs current price\n            //returnValue of 0 indicates a winning trade, while 1 indicates a loss\n            (uint amountToSend, uint returnValue) =\n            PnLCalculator.calculatePNL(entryPrices[msg.sender][_userShortID], priceAtClose);\n\n            //check if user has enough collateral and does not carry a negative balance\n            if (amountToSend <= userDepositBalance[msg.sender] && returnValue == 1) {\n                //TODO\n                //liquidateUser();\n                //include distribution of funds\n            }\n\n            //update current userPositionNumber to free withdraws\n            inShort[msg.sender][_userShortID] = false;\n\n            //if user has made money, we transfer the money directly\n            if (returnValue == 0) {\n                userDepositBalance[msg.sender] += amountToSend;\n            } else {\n                //distribute user loss amongst pool if losing short\n                distributeProfits(amountToSend);\n            }\n\n\n        }\n\n    function _shortForUser(\n        address user,\n        address tokenToShort,\n        uint priceAtWrap,\n        uint24 poolFee,\n        uint amount,\n        uint amountOutMin) internal returns(uint amountOut) {\n        //funds are currently in the contract, so no need to swap back and forth anymore\n        //should just be able to call the second swap\n\n        TransferHelper.safeApprove(tokenToShort, address(swapRouter), amount);\n\n        //now that this contract has the desired token to short, we sell @ market back for DAI\n        ISwapRouter.ExactInputSingleParams memory tokenParams =\n        ISwapRouter.ExactInputSingleParams({\n            tokenIn: tokenToShort,\n            tokenOut: DAI_ADDRESS,\n            fee: poolFee,\n            recipient: address(this), //the pool contract will store both DAI from deposits and tokenOut\n            deadline: block.timestamp, //solhint-disable not-rely-on-time\n            amountIn: amount,\n            amountOutMinimum: amountOutMin,\n            sqrtPriceLimitX96: 0\n        });\n\n        // execute the short, amountOut is wETH in this test case\n        amountOut = swapRouter.exactInputSingle(tokenParams);\n\n        //update user balance of the user current positionID\n        userShortBalance[msg.sender][userShortID[msg.sender]] = amountOut;\n\n        //wrap position in ERC1155\n        //use amountToShort to reference position size being wrapped\n        beraWrapper.wrapPosition(user, address(this), amount, tokenToShort, priceAtWrap);\n    }\n\n    function distributeProfits(uint amountToDistribute) internal {\n        uint properDecimalsX18 = amountToDistribute * 1e18;\n        for (uint i = 0; i < standardPoolList.length; i++) {\n            //get each user's percentage of the pool they own\n            //dai related to current positions are not counted*******\n            uint userPercent =\n                (userDepositBalance[standardPoolList[i]] / IERC20(DAI_ADDRESS).balanceOf(address(this))) * 1e18;\n            uint percentToSendToUsers = userPercent * properDecimalsX18;\n            //update each users deposit balance to increase the amount they can withdraw\n            //(rather than sending funds directly which would be quite expensive)\n            //balances are stored\n            userDepositBalance[standardPoolList[i]] += percentToSendToUsers;\n        }\n    }\n\n    receive() external payable { //solhint-disable state-visibility\n\n}\n\n    fallback() external payable { //solhint-disable\n\n}\n\n}\n\n\n//needs:\n//\n//total borrowed from pool/ token0\n//total supplied to pool as collateral/ token1(USDC)\n//total available to borrow for shorting\n//how much it will cost to borrow/ how much to be paid to supplier\n//when does the borrower threaten to be liquited?\n    //(when losses are equal to 90% of supplied collateral)\n    //thus, we need a way to measure the current borrowers PnL or loan health (maybe look at AAVE or COMP)\n//need interface when done with all functions\n\n//ON HOLD\n",
  "sourcePath": "/home/kevin/Code/solidity_projects/beraMarket/contracts/BeraPoolStandardRisk.sol",
  "compiler": {
    "name": "solc",
    "version": "0.8.10+commit.fc410830.Emscripten.clang"
  },
  "schemaVersion": "3.4.3",
  "updatedAt": "2021-12-08T14:19:45.844Z",
  "networkType": "ethereum",
  "devdoc": {
    "kind": "dev",
    "methods": {
      "supportsInterface(bytes4)": {
        "details": "See {IERC165-supportsInterface}."
      }
    },
    "version": 1
  },
  "userdoc": {
    "kind": "user",
    "methods": {},
    "version": 1
  }
}