{
  "contractName": "BeraWrapper",
  "abi": [
    {
      "inputs": [],
      "stateMutability": "nonpayable",
      "type": "constructor"
    },
    {
      "anonymous": false,
      "inputs": [
        {
          "indexed": true,
          "internalType": "address",
          "name": "account",
          "type": "address"
        },
        {
          "indexed": true,
          "internalType": "address",
          "name": "operator",
          "type": "address"
        },
        {
          "indexed": false,
          "internalType": "bool",
          "name": "approved",
          "type": "bool"
        }
      ],
      "name": "ApprovalForAll",
      "type": "event"
    },
    {
      "anonymous": false,
      "inputs": [
        {
          "indexed": true,
          "internalType": "address",
          "name": "operator",
          "type": "address"
        },
        {
          "indexed": true,
          "internalType": "address",
          "name": "from",
          "type": "address"
        },
        {
          "indexed": true,
          "internalType": "address",
          "name": "to",
          "type": "address"
        },
        {
          "indexed": false,
          "internalType": "uint256[]",
          "name": "ids",
          "type": "uint256[]"
        },
        {
          "indexed": false,
          "internalType": "uint256[]",
          "name": "values",
          "type": "uint256[]"
        }
      ],
      "name": "TransferBatch",
      "type": "event"
    },
    {
      "anonymous": false,
      "inputs": [
        {
          "indexed": true,
          "internalType": "address",
          "name": "operator",
          "type": "address"
        },
        {
          "indexed": true,
          "internalType": "address",
          "name": "from",
          "type": "address"
        },
        {
          "indexed": true,
          "internalType": "address",
          "name": "to",
          "type": "address"
        },
        {
          "indexed": false,
          "internalType": "uint256",
          "name": "id",
          "type": "uint256"
        },
        {
          "indexed": false,
          "internalType": "uint256",
          "name": "value",
          "type": "uint256"
        }
      ],
      "name": "TransferSingle",
      "type": "event"
    },
    {
      "anonymous": false,
      "inputs": [
        {
          "indexed": false,
          "internalType": "string",
          "name": "value",
          "type": "string"
        },
        {
          "indexed": true,
          "internalType": "uint256",
          "name": "id",
          "type": "uint256"
        }
      ],
      "name": "URI",
      "type": "event"
    },
    {
      "inputs": [
        {
          "internalType": "address",
          "name": "account",
          "type": "address"
        },
        {
          "internalType": "uint256",
          "name": "id",
          "type": "uint256"
        }
      ],
      "name": "balanceOf",
      "outputs": [
        {
          "internalType": "uint256",
          "name": "",
          "type": "uint256"
        }
      ],
      "stateMutability": "view",
      "type": "function",
      "constant": true
    },
    {
      "inputs": [
        {
          "internalType": "address[]",
          "name": "accounts",
          "type": "address[]"
        },
        {
          "internalType": "uint256[]",
          "name": "ids",
          "type": "uint256[]"
        }
      ],
      "name": "balanceOfBatch",
      "outputs": [
        {
          "internalType": "uint256[]",
          "name": "",
          "type": "uint256[]"
        }
      ],
      "stateMutability": "view",
      "type": "function",
      "constant": true
    },
    {
      "inputs": [
        {
          "internalType": "address",
          "name": "account",
          "type": "address"
        },
        {
          "internalType": "address",
          "name": "operator",
          "type": "address"
        }
      ],
      "name": "isApprovedForAll",
      "outputs": [
        {
          "internalType": "bool",
          "name": "",
          "type": "bool"
        }
      ],
      "stateMutability": "view",
      "type": "function",
      "constant": true
    },
    {
      "inputs": [],
      "name": "owner",
      "outputs": [
        {
          "internalType": "address",
          "name": "",
          "type": "address"
        }
      ],
      "stateMutability": "view",
      "type": "function",
      "constant": true
    },
    {
      "inputs": [
        {
          "internalType": "uint256",
          "name": "",
          "type": "uint256"
        }
      ],
      "name": "positionData",
      "outputs": [
        {
          "internalType": "address",
          "name": "positionOwner",
          "type": "address"
        },
        {
          "internalType": "address",
          "name": "associatedPool",
          "type": "address"
        },
        {
          "internalType": "uint256",
          "name": "shortAmount",
          "type": "uint256"
        },
        {
          "internalType": "address",
          "name": "tokenShorted",
          "type": "address"
        },
        {
          "internalType": "uint256",
          "name": "priceAtWrap",
          "type": "uint256"
        }
      ],
      "stateMutability": "view",
      "type": "function",
      "constant": true
    },
    {
      "inputs": [],
      "name": "positionID",
      "outputs": [
        {
          "internalType": "uint256",
          "name": "",
          "type": "uint256"
        }
      ],
      "stateMutability": "view",
      "type": "function",
      "constant": true
    },
    {
      "inputs": [
        {
          "internalType": "address",
          "name": "from",
          "type": "address"
        },
        {
          "internalType": "address",
          "name": "to",
          "type": "address"
        },
        {
          "internalType": "uint256[]",
          "name": "ids",
          "type": "uint256[]"
        },
        {
          "internalType": "uint256[]",
          "name": "amounts",
          "type": "uint256[]"
        },
        {
          "internalType": "bytes",
          "name": "data",
          "type": "bytes"
        }
      ],
      "name": "safeBatchTransferFrom",
      "outputs": [],
      "stateMutability": "nonpayable",
      "type": "function"
    },
    {
      "inputs": [
        {
          "internalType": "address",
          "name": "from",
          "type": "address"
        },
        {
          "internalType": "address",
          "name": "to",
          "type": "address"
        },
        {
          "internalType": "uint256",
          "name": "id",
          "type": "uint256"
        },
        {
          "internalType": "uint256",
          "name": "amount",
          "type": "uint256"
        },
        {
          "internalType": "bytes",
          "name": "data",
          "type": "bytes"
        }
      ],
      "name": "safeTransferFrom",
      "outputs": [],
      "stateMutability": "nonpayable",
      "type": "function"
    },
    {
      "inputs": [
        {
          "internalType": "address",
          "name": "operator",
          "type": "address"
        },
        {
          "internalType": "bool",
          "name": "approved",
          "type": "bool"
        }
      ],
      "name": "setApprovalForAll",
      "outputs": [],
      "stateMutability": "nonpayable",
      "type": "function"
    },
    {
      "inputs": [
        {
          "internalType": "bytes4",
          "name": "interfaceId",
          "type": "bytes4"
        }
      ],
      "name": "supportsInterface",
      "outputs": [
        {
          "internalType": "bool",
          "name": "",
          "type": "bool"
        }
      ],
      "stateMutability": "view",
      "type": "function",
      "constant": true
    },
    {
      "inputs": [
        {
          "internalType": "uint256",
          "name": "",
          "type": "uint256"
        }
      ],
      "name": "uri",
      "outputs": [
        {
          "internalType": "string",
          "name": "",
          "type": "string"
        }
      ],
      "stateMutability": "view",
      "type": "function",
      "constant": true
    },
    {
      "inputs": [
        {
          "internalType": "address",
          "name": "positionOwner",
          "type": "address"
        },
        {
          "internalType": "address",
          "name": "associatedPool",
          "type": "address"
        },
        {
          "internalType": "uint256",
          "name": "shortAmount",
          "type": "uint256"
        },
        {
          "internalType": "address",
          "name": "tokenShorted",
          "type": "address"
        },
        {
          "internalType": "uint256",
          "name": "priceAtWrap",
          "type": "uint256"
        }
      ],
      "name": "wrapPosition",
      "outputs": [],
      "stateMutability": "nonpayable",
      "type": "function"
    },
    {
      "inputs": [
        {
          "internalType": "address",
          "name": "positionOwner",
          "type": "address"
        },
        {
          "internalType": "uint256",
          "name": "_positionID",
          "type": "uint256"
        }
      ],
      "name": "unwrapPosition",
      "outputs": [],
      "stateMutability": "nonpayable",
      "type": "function"
    },
    {
      "inputs": [
        {
          "internalType": "address",
          "name": "to",
          "type": "address"
        },
        {
          "internalType": "address",
          "name": "from",
          "type": "address"
        },
        {
          "internalType": "uint256",
          "name": "_positionID",
          "type": "uint256"
        },
        {
          "internalType": "uint256",
          "name": "amount",
          "type": "uint256"
        }
      ],
      "name": "transferPosition",
      "outputs": [],
      "stateMutability": "nonpayable",
      "type": "function"
    },
    {
      "inputs": [
        {
          "internalType": "address",
          "name": "newPositionOwner",
          "type": "address"
        },
        {
          "internalType": "uint256",
          "name": "_positionID",
          "type": "uint256"
        }
      ],
      "name": "updatePosition",
      "outputs": [],
      "stateMutability": "nonpayable",
      "type": "function"
    }
  ],
  "bytecode": "0x60806040523480156200001157600080fd5b506040518060200160405280600081525062000033816200008360201b60201c565b5033600360006101000a81548173ffffffffffffffffffffffffffffffffffffffff021916908373ffffffffffffffffffffffffffffffffffffffff1602179055506000600481905550620001b4565b80600290805190602001906200009b9291906200009f565b5050565b828054620000ad906200017e565b90600052602060002090601f016020900481019282620000d157600085556200011d565b82601f10620000ec57805160ff19168380011785556200011d565b828001600101855582156200011d579182015b828111156200011c578251825591602001919060010190620000ff565b5b5090506200012c919062000130565b5090565b5b808211156200014b57600081600090555060010162000131565b5090565b7f4e487b7100000000000000000000000000000000000000000000000000000000600052602260045260246000fd5b600060028204905060018216806200019757607f821691505b60208210811415620001ae57620001ad6200014f565b5b50919050565b61341a80620001c46000396000f3fe608060405234801561001057600080fd5b50600436106100f45760003560e01c80638da5cb5b11610097578063c25df92d11610066578063c25df92d14610297578063ce05f8c7146102b3578063e985e9c5146102d1578063f242432a14610301576100f4565b80638da5cb5b1461020d578063a0ab910e1461022b578063a22cb4651461025f578063b9e17b761461027b576100f4565b806319297ba4116100d357806319297ba4146101895780632eb2c2d6146101a55780634e1273f4146101c15780634e6368ba146101f1576100f4565b8062fdd58e146100f957806301ffc9a7146101295780630e89341c14610159575b600080fd5b610113600480360381019061010e9190611de4565b61031d565b6040516101209190611e33565b60405180910390f35b610143600480360381019061013e9190611ea6565b6103e6565b6040516101509190611eee565b60405180910390f35b610173600480360381019061016e9190611f09565b6104c8565b6040516101809190611fcf565b60405180910390f35b6101a3600480360381019061019e9190611de4565b61055c565b005b6101bf60048036038101906101ba91906121ee565b6105d2565b005b6101db60048036038101906101d69190612380565b610673565b6040516101e891906124b6565b60405180910390f35b61020b600480360381019061020691906124d8565b61078c565b005b61021561094b565b604051610222919061254e565b60405180910390f35b61024560048036038101906102409190611f09565b610971565b604051610256959493929190612569565b60405180910390f35b610279600480360381019061027491906125e8565b610a07565b005b61029560048036038101906102909190611de4565b610b88565b005b6102b160048036038101906102ac9190612628565b610c3c565b005b6102bb610de3565b6040516102c89190611e33565b60405180910390f35b6102eb60048036038101906102e691906126a3565b610de9565b6040516102f89190611eee565b60405180910390f35b61031b600480360381019061031691906126e3565b610e7d565b005b60008073ffffffffffffffffffffffffffffffffffffffff168373ffffffffffffffffffffffffffffffffffffffff16141561038e576040517f08c379a0000000000000000000000000000000000000000000000000000000008152600401610385906127ec565b60405180910390fd5b60008083815260200190815260200160002060008473ffffffffffffffffffffffffffffffffffffffff1673ffffffffffffffffffffffffffffffffffffffff16815260200190815260200160002054905092915050565b60007fd9b67a26000000000000000000000000000000000000000000000000000000007bffffffffffffffffffffffffffffffffffffffffffffffffffffffff1916827bffffffffffffffffffffffffffffffffffffffffffffffffffffffff191614806104b157507f0e89341c000000000000000000000000000000000000000000000000000000007bffffffffffffffffffffffffffffffffffffffffffffffffffffffff1916827bffffffffffffffffffffffffffffffffffffffffffffffffffffffff1916145b806104c157506104c082610f1e565b5b9050919050565b6060600280546104d79061283b565b80601f01602080910402602001604051908101604052809291908181526020018280546105039061283b565b80156105505780601f1061052557610100808354040283529160200191610550565b820191906000526020600020905b81548152906001019060200180831161053357829003601f168201915b50505050509050919050565b6000610568838361031d565b11156105c857816005600083815260200190815260200160002060000160006101000a81548173ffffffffffffffffffffffffffffffffffffffff021916908373ffffffffffffffffffffffffffffffffffffffff1602179055506105cd565b6105ce565b5b5050565b6105da610f88565b73ffffffffffffffffffffffffffffffffffffffff168573ffffffffffffffffffffffffffffffffffffffff161480610620575061061f8561061a610f88565b610de9565b5b61065f576040517f08c379a0000000000000000000000000000000000000000000000000000000008152600401610656906128df565b60405180910390fd5b61066c8585858585610f90565b5050505050565b606081518351146106b9576040517f08c379a00000000000000000000000000000000000000000000000000000000081526004016106b090612971565b60405180910390fd5b6000835167ffffffffffffffff8111156106d6576106d5611ff6565b5b6040519080825280602002602001820160405280156107045781602001602082028036833780820191505090505b50905060005b84518110156107815761075185828151811061072957610728612991565b5b602002602001015185838151811061074457610743612991565b5b602002602001015161031d565b82828151811061076457610763612991565b5b6020026020010181815250508061077a906129ef565b905061070a565b508091505092915050565b6005600083815260200190815260200160002060000160009054906101000a900473ffffffffffffffffffffffffffffffffffffffff1673ffffffffffffffffffffffffffffffffffffffff163373ffffffffffffffffffffffffffffffffffffffff1614610830576040517f08c379a000000000000000000000000000000000000000000000000000000000815260040161082790612aaa565b60405180910390fd5b6005600083815260200190815260200160002060000160009054906101000a900473ffffffffffffffffffffffffffffffffffffffff1673ffffffffffffffffffffffffffffffffffffffff168373ffffffffffffffffffffffffffffffffffffffff16146108d4576040517f08c379a00000000000000000000000000000000000000000000000000000000081526004016108cb90612aaa565b60405180910390fd5b6108f08484848460405180602001604052806000815250610e7d565b836005600084815260200190815260200160002060000160006101000a81548173ffffffffffffffffffffffffffffffffffffffff021916908373ffffffffffffffffffffffffffffffffffffffff16021790555050505050565b600360009054906101000a900473ffffffffffffffffffffffffffffffffffffffff1681565b60056020528060005260406000206000915090508060000160009054906101000a900473ffffffffffffffffffffffffffffffffffffffff16908060010160009054906101000a900473ffffffffffffffffffffffffffffffffffffffff16908060020154908060030160009054906101000a900473ffffffffffffffffffffffffffffffffffffffff16908060040154905085565b8173ffffffffffffffffffffffffffffffffffffffff16610a26610f88565b73ffffffffffffffffffffffffffffffffffffffff161415610a7d576040517f08c379a0000000000000000000000000000000000000000000000000000000008152600401610a7490612b3c565b60405180910390fd5b8060016000610a8a610f88565b73ffffffffffffffffffffffffffffffffffffffff1673ffffffffffffffffffffffffffffffffffffffff16815260200190815260200160002060008473ffffffffffffffffffffffffffffffffffffffff1673ffffffffffffffffffffffffffffffffffffffff16815260200190815260200160002060006101000a81548160ff0219169083151502179055508173ffffffffffffffffffffffffffffffffffffffff16610b37610f88565b73ffffffffffffffffffffffffffffffffffffffff167f17307eab39ab6107e8899845ad3d59bd9653f200f220920489ca2b5937696c3183604051610b7c9190611eee565b60405180910390a35050565b6005600082815260200190815260200160002060000160009054906101000a900473ffffffffffffffffffffffffffffffffffffffff1673ffffffffffffffffffffffffffffffffffffffff168273ffffffffffffffffffffffffffffffffffffffff1614610c2c576040517f08c379a0000000000000000000000000000000000000000000000000000000008152600401610c2390612bce565b60405180910390fd5b610c38828260016112a4565b5050565b610c5a856004546001604051806020016040528060008152506114c1565b6040518060a001604052808673ffffffffffffffffffffffffffffffffffffffff1681526020018573ffffffffffffffffffffffffffffffffffffffff1681526020018481526020018373ffffffffffffffffffffffffffffffffffffffff1681526020018281525060056000600454815260200190815260200160002060008201518160000160006101000a81548173ffffffffffffffffffffffffffffffffffffffff021916908373ffffffffffffffffffffffffffffffffffffffff16021790555060208201518160010160006101000a81548173ffffffffffffffffffffffffffffffffffffffff021916908373ffffffffffffffffffffffffffffffffffffffff1602179055506040820151816002015560608201518160030160006101000a81548173ffffffffffffffffffffffffffffffffffffffff021916908373ffffffffffffffffffffffffffffffffffffffff1602179055506080820151816004015590505060046000815480929190610dd7906129ef565b91905055505050505050565b60045481565b6000600160008473ffffffffffffffffffffffffffffffffffffffff1673ffffffffffffffffffffffffffffffffffffffff16815260200190815260200160002060008373ffffffffffffffffffffffffffffffffffffffff1673ffffffffffffffffffffffffffffffffffffffff16815260200190815260200160002060009054906101000a900460ff16905092915050565b610e85610f88565b73ffffffffffffffffffffffffffffffffffffffff168573ffffffffffffffffffffffffffffffffffffffff161480610ecb5750610eca85610ec5610f88565b610de9565b5b610f0a576040517f08c379a0000000000000000000000000000000000000000000000000000000008152600401610f0190612c60565b60405180910390fd5b610f178585858585611657565b5050505050565b60007f01ffc9a7000000000000000000000000000000000000000000000000000000007bffffffffffffffffffffffffffffffffffffffffffffffffffffffff1916827bffffffffffffffffffffffffffffffffffffffffffffffffffffffff1916149050919050565b600033905090565b8151835114610fd4576040517f08c379a0000000000000000000000000000000000000000000000000000000008152600401610fcb90612cf2565b60405180910390fd5b600073ffffffffffffffffffffffffffffffffffffffff168473ffffffffffffffffffffffffffffffffffffffff161415611044576040517f08c379a000000000000000000000000000000000000000000000000000000000815260040161103b90612d84565b60405180910390fd5b600061104e610f88565b905061105e8187878787876118d9565b60005b845181101561120f57600085828151811061107f5761107e612991565b5b60200260200101519050600085838151811061109e5761109d612991565b5b60200260200101519050600080600084815260200190815260200160002060008b73ffffffffffffffffffffffffffffffffffffffff1673ffffffffffffffffffffffffffffffffffffffff1681526020019081526020016000205490508181101561113f576040517f08c379a000000000000000000000000000000000000000000000000000000000815260040161113690612e16565b60405180910390fd5b81810360008085815260200190815260200160002060008c73ffffffffffffffffffffffffffffffffffffffff1673ffffffffffffffffffffffffffffffffffffffff168152602001908152602001600020819055508160008085815260200190815260200160002060008b73ffffffffffffffffffffffffffffffffffffffff1673ffffffffffffffffffffffffffffffffffffffff16815260200190815260200160002060008282546111f49190612e36565b9250508190555050505080611208906129ef565b9050611061565b508473ffffffffffffffffffffffffffffffffffffffff168673ffffffffffffffffffffffffffffffffffffffff168273ffffffffffffffffffffffffffffffffffffffff167f4a39dc06d4c0dbc64b70af90fd698a233a518aa5d07e595d983b8c0526c8f7fb8787604051611286929190612e8c565b60405180910390a461129c8187878787876118e1565b505050505050565b600073ffffffffffffffffffffffffffffffffffffffff168373ffffffffffffffffffffffffffffffffffffffff161415611314576040517f08c379a000000000000000000000000000000000000000000000000000000000815260040161130b90612f35565b60405180910390fd5b600061131e610f88565b905061134e8185600061133087611ac8565b61133987611ac8565b604051806020016040528060008152506118d9565b600080600085815260200190815260200160002060008673ffffffffffffffffffffffffffffffffffffffff1673ffffffffffffffffffffffffffffffffffffffff168152602001908152602001600020549050828110156113e5576040517f08c379a00000000000000000000000000000000000000000000000000000000081526004016113dc90612fc7565b60405180910390fd5b82810360008086815260200190815260200160002060008773ffffffffffffffffffffffffffffffffffffffff1673ffffffffffffffffffffffffffffffffffffffff16815260200190815260200160002081905550600073ffffffffffffffffffffffffffffffffffffffff168573ffffffffffffffffffffffffffffffffffffffff168373ffffffffffffffffffffffffffffffffffffffff167fc3d58168c5ae7397731d063d5bbf3d657854427343f4c083240f7aacaa2d0f6287876040516114b2929190612fe7565b60405180910390a45050505050565b600073ffffffffffffffffffffffffffffffffffffffff168473ffffffffffffffffffffffffffffffffffffffff161415611531576040517f08c379a000000000000000000000000000000000000000000000000000000000815260040161152890613082565b60405180910390fd5b600061153b610f88565b905061155c8160008761154d88611ac8565b61155688611ac8565b876118d9565b8260008086815260200190815260200160002060008773ffffffffffffffffffffffffffffffffffffffff1673ffffffffffffffffffffffffffffffffffffffff16815260200190815260200160002060008282546115bb9190612e36565b925050819055508473ffffffffffffffffffffffffffffffffffffffff16600073ffffffffffffffffffffffffffffffffffffffff168273ffffffffffffffffffffffffffffffffffffffff167fc3d58168c5ae7397731d063d5bbf3d657854427343f4c083240f7aacaa2d0f628787604051611639929190612fe7565b60405180910390a461165081600087878787611b42565b5050505050565b600073ffffffffffffffffffffffffffffffffffffffff168473ffffffffffffffffffffffffffffffffffffffff1614156116c7576040517f08c379a00000000000000000000000000000000000000000000000000000000081526004016116be90612d84565b60405180910390fd5b60006116d1610f88565b90506116f18187876116e288611ac8565b6116eb88611ac8565b876118d9565b600080600086815260200190815260200160002060008873ffffffffffffffffffffffffffffffffffffffff1673ffffffffffffffffffffffffffffffffffffffff16815260200190815260200160002054905083811015611788576040517f08c379a000000000000000000000000000000000000000000000000000000000815260040161177f90612e16565b60405180910390fd5b83810360008087815260200190815260200160002060008973ffffffffffffffffffffffffffffffffffffffff1673ffffffffffffffffffffffffffffffffffffffff168152602001908152602001600020819055508360008087815260200190815260200160002060008873ffffffffffffffffffffffffffffffffffffffff1673ffffffffffffffffffffffffffffffffffffffff168152602001908152602001600020600082825461183d9190612e36565b925050819055508573ffffffffffffffffffffffffffffffffffffffff168773ffffffffffffffffffffffffffffffffffffffff168373ffffffffffffffffffffffffffffffffffffffff167fc3d58168c5ae7397731d063d5bbf3d657854427343f4c083240f7aacaa2d0f6288886040516118ba929190612fe7565b60405180910390a46118d0828888888888611b42565b50505050505050565b505050505050565b6119008473ffffffffffffffffffffffffffffffffffffffff16611d29565b15611ac0578373ffffffffffffffffffffffffffffffffffffffff1663bc197c8187878686866040518663ffffffff1660e01b81526004016119469594939291906130f7565b602060405180830381600087803b15801561196057600080fd5b505af192505050801561199157506040513d601f19601f8201168201806040525081019061198e9190613174565b60015b611a375761199d6131ae565b806308c379a014156119fa57506119b26131d0565b806119bd57506119fc565b806040517f08c379a00000000000000000000000000000000000000000000000000000000081526004016119f19190611fcf565b60405180910390fd5b505b6040517f08c379a0000000000000000000000000000000000000000000000000000000008152600401611a2e906132d8565b60405180910390fd5b63bc197c8160e01b7bffffffffffffffffffffffffffffffffffffffffffffffffffffffff1916817bffffffffffffffffffffffffffffffffffffffffffffffffffffffff191614611abe576040517f08c379a0000000000000000000000000000000000000000000000000000000008152600401611ab59061336a565b60405180910390fd5b505b505050505050565b60606000600167ffffffffffffffff811115611ae757611ae6611ff6565b5b604051908082528060200260200182016040528015611b155781602001602082028036833780820191505090505b5090508281600081518110611b2d57611b2c612991565b5b60200260200101818152505080915050919050565b611b618473ffffffffffffffffffffffffffffffffffffffff16611d29565b15611d21578373ffffffffffffffffffffffffffffffffffffffff1663f23a6e6187878686866040518663ffffffff1660e01b8152600401611ba795949392919061338a565b602060405180830381600087803b158015611bc157600080fd5b505af1925050508015611bf257506040513d601f19601f82011682018060405250810190611bef9190613174565b60015b611c9857611bfe6131ae565b806308c379a01415611c5b5750611c136131d0565b80611c1e5750611c5d565b806040517f08c379a0000000000000000000000000000000000000000000000000000000008152600401611c529190611fcf565b60405180910390fd5b505b6040517f08c379a0000000000000000000000000000000000000000000000000000000008152600401611c8f906132d8565b60405180910390fd5b63f23a6e6160e01b7bffffffffffffffffffffffffffffffffffffffffffffffffffffffff1916817bffffffffffffffffffffffffffffffffffffffffffffffffffffffff191614611d1f576040517f08c379a0000000000000000000000000000000000000000000000000000000008152600401611d169061336a565b60405180910390fd5b505b505050505050565b600080823b905060008111915050919050565b6000604051905090565b600080fd5b600080fd5b600073ffffffffffffffffffffffffffffffffffffffff82169050919050565b6000611d7b82611d50565b9050919050565b611d8b81611d70565b8114611d9657600080fd5b50565b600081359050611da881611d82565b92915050565b6000819050919050565b611dc181611dae565b8114611dcc57600080fd5b50565b600081359050611dde81611db8565b92915050565b60008060408385031215611dfb57611dfa611d46565b5b6000611e0985828601611d99565b9250506020611e1a85828601611dcf565b9150509250929050565b611e2d81611dae565b82525050565b6000602082019050611e486000830184611e24565b92915050565b60007fffffffff0000000000000000000000000000000000000000000000000000000082169050919050565b611e8381611e4e565b8114611e8e57600080fd5b50565b600081359050611ea081611e7a565b92915050565b600060208284031215611ebc57611ebb611d46565b5b6000611eca84828501611e91565b91505092915050565b60008115159050919050565b611ee881611ed3565b82525050565b6000602082019050611f036000830184611edf565b92915050565b600060208284031215611f1f57611f1e611d46565b5b6000611f2d84828501611dcf565b91505092915050565b600081519050919050565b600082825260208201905092915050565b60005b83811015611f70578082015181840152602081019050611f55565b83811115611f7f576000848401525b50505050565b6000601f19601f8301169050919050565b6000611fa182611f36565b611fab8185611f41565b9350611fbb818560208601611f52565b611fc481611f85565b840191505092915050565b60006020820190508181036000830152611fe98184611f96565b905092915050565b600080fd5b7f4e487b7100000000000000000000000000000000000000000000000000000000600052604160045260246000fd5b61202e82611f85565b810181811067ffffffffffffffff8211171561204d5761204c611ff6565b5b80604052505050565b6000612060611d3c565b905061206c8282612025565b919050565b600067ffffffffffffffff82111561208c5761208b611ff6565b5b602082029050602081019050919050565b600080fd5b60006120b56120b084612071565b612056565b905080838252602082019050602084028301858111156120d8576120d761209d565b5b835b8181101561210157806120ed8882611dcf565b8452602084019350506020810190506120da565b5050509392505050565b600082601f8301126121205761211f611ff1565b5b81356121308482602086016120a2565b91505092915050565b600080fd5b600067ffffffffffffffff82111561215957612158611ff6565b5b61216282611f85565b9050602081019050919050565b82818337600083830152505050565b600061219161218c8461213e565b612056565b9050828152602081018484840111156121ad576121ac612139565b5b6121b884828561216f565b509392505050565b600082601f8301126121d5576121d4611ff1565b5b81356121e584826020860161217e565b91505092915050565b600080600080600060a0868803121561220a57612209611d46565b5b600061221888828901611d99565b955050602061222988828901611d99565b945050604086013567ffffffffffffffff81111561224a57612249611d4b565b5b6122568882890161210b565b935050606086013567ffffffffffffffff81111561227757612276611d4b565b5b6122838882890161210b565b925050608086013567ffffffffffffffff8111156122a4576122a3611d4b565b5b6122b0888289016121c0565b9150509295509295909350565b600067ffffffffffffffff8211156122d8576122d7611ff6565b5b602082029050602081019050919050565b60006122fc6122f7846122bd565b612056565b9050808382526020820190506020840283018581111561231f5761231e61209d565b5b835b8181101561234857806123348882611d99565b845260208401935050602081019050612321565b5050509392505050565b600082601f83011261236757612366611ff1565b5b81356123778482602086016122e9565b91505092915050565b6000806040838503121561239757612396611d46565b5b600083013567ffffffffffffffff8111156123b5576123b4611d4b565b5b6123c185828601612352565b925050602083013567ffffffffffffffff8111156123e2576123e1611d4b565b5b6123ee8582860161210b565b9150509250929050565b600081519050919050565b600082825260208201905092915050565b6000819050602082019050919050565b61242d81611dae565b82525050565b600061243f8383612424565b60208301905092915050565b6000602082019050919050565b6000612463826123f8565b61246d8185612403565b935061247883612414565b8060005b838110156124a95781516124908882612433565b975061249b8361244b565b92505060018101905061247c565b5085935050505092915050565b600060208201905081810360008301526124d08184612458565b905092915050565b600080600080608085870312156124f2576124f1611d46565b5b600061250087828801611d99565b945050602061251187828801611d99565b935050604061252287828801611dcf565b925050606061253387828801611dcf565b91505092959194509250565b61254881611d70565b82525050565b6000602082019050612563600083018461253f565b92915050565b600060a08201905061257e600083018861253f565b61258b602083018761253f565b6125986040830186611e24565b6125a5606083018561253f565b6125b26080830184611e24565b9695505050505050565b6125c581611ed3565b81146125d057600080fd5b50565b6000813590506125e2816125bc565b92915050565b600080604083850312156125ff576125fe611d46565b5b600061260d85828601611d99565b925050602061261e858286016125d3565b9150509250929050565b600080600080600060a0868803121561264457612643611d46565b5b600061265288828901611d99565b955050602061266388828901611d99565b945050604061267488828901611dcf565b935050606061268588828901611d99565b925050608061269688828901611dcf565b9150509295509295909350565b600080604083850312156126ba576126b9611d46565b5b60006126c885828601611d99565b92505060206126d985828601611d99565b9150509250929050565b600080600080600060a086880312156126ff576126fe611d46565b5b600061270d88828901611d99565b955050602061271e88828901611d99565b945050604061272f88828901611dcf565b935050606061274088828901611dcf565b925050608086013567ffffffffffffffff81111561276157612760611d4b565b5b61276d888289016121c0565b9150509295509295909350565b7f455243313135353a2062616c616e636520717565727920666f7220746865207a60008201527f65726f2061646472657373000000000000000000000000000000000000000000602082015250565b60006127d6602b83611f41565b91506127e18261277a565b604082019050919050565b60006020820190508181036000830152612805816127c9565b9050919050565b7f4e487b7100000000000000000000000000000000000000000000000000000000600052602260045260246000fd5b6000600282049050600182168061285357607f821691505b602082108114156128675761286661280c565b5b50919050565b7f455243313135353a207472616e736665722063616c6c6572206973206e6f742060008201527f6f776e6572206e6f7220617070726f7665640000000000000000000000000000602082015250565b60006128c9603283611f41565b91506128d48261286d565b604082019050919050565b600060208201905081810360008301526128f8816128bc565b9050919050565b7f455243313135353a206163636f756e747320616e6420696473206c656e67746860008201527f206d69736d617463680000000000000000000000000000000000000000000000602082015250565b600061295b602983611f41565b9150612966826128ff565b604082019050919050565b6000602082019050818103600083015261298a8161294e565b9050919050565b7f4e487b7100000000000000000000000000000000000000000000000000000000600052603260045260246000fd5b7f4e487b7100000000000000000000000000000000000000000000000000000000600052601160045260246000fd5b60006129fa82611dae565b91507fffffffffffffffffffffffffffffffffffffffffffffffffffffffffffffffff821415612a2d57612a2c6129c0565b5b600182019050919050565b7f577261707065723a206f6e6c7920746865206f776e65722063616e207472616e60008201527f73666572206120706f736974696f6e0000000000000000000000000000000000602082015250565b6000612a94602f83611f41565b9150612a9f82612a38565b604082019050919050565b60006020820190508181036000830152612ac381612a87565b9050919050565b7f455243313135353a2073657474696e6720617070726f76616c2073746174757360008201527f20666f722073656c660000000000000000000000000000000000000000000000602082015250565b6000612b26602983611f41565b9150612b3182612aca565b604082019050919050565b60006020820190508181036000830152612b5581612b19565b9050919050565b7f577261707065723a206f6e6c7920746865206f776e65722063616e20756e777260008201527f61702074686520706f736974696f6e0000000000000000000000000000000000602082015250565b6000612bb8602f83611f41565b9150612bc382612b5c565b604082019050919050565b60006020820190508181036000830152612be781612bab565b9050919050565b7f455243313135353a2063616c6c6572206973206e6f74206f776e6572206e6f7260008201527f20617070726f7665640000000000000000000000000000000000000000000000602082015250565b6000612c4a602983611f41565b9150612c5582612bee565b604082019050919050565b60006020820190508181036000830152612c7981612c3d565b9050919050565b7f455243313135353a2069647320616e6420616d6f756e7473206c656e6774682060008201527f6d69736d61746368000000000000000000000000000000000000000000000000602082015250565b6000612cdc602883611f41565b9150612ce782612c80565b604082019050919050565b60006020820190508181036000830152612d0b81612ccf565b9050919050565b7f455243313135353a207472616e7366657220746f20746865207a65726f20616460008201527f6472657373000000000000000000000000000000000000000000000000000000602082015250565b6000612d6e602583611f41565b9150612d7982612d12565b604082019050919050565b60006020820190508181036000830152612d9d81612d61565b9050919050565b7f455243313135353a20696e73756666696369656e742062616c616e636520666f60008201527f72207472616e7366657200000000000000000000000000000000000000000000602082015250565b6000612e00602a83611f41565b9150612e0b82612da4565b604082019050919050565b60006020820190508181036000830152612e2f81612df3565b9050919050565b6000612e4182611dae565b9150612e4c83611dae565b9250827fffffffffffffffffffffffffffffffffffffffffffffffffffffffffffffffff03821115612e8157612e806129c0565b5b828201905092915050565b60006040820190508181036000830152612ea68185612458565b90508181036020830152612eba8184612458565b90509392505050565b7f455243313135353a206275726e2066726f6d20746865207a65726f206164647260008201527f6573730000000000000000000000000000000000000000000000000000000000602082015250565b6000612f1f602383611f41565b9150612f2a82612ec3565b604082019050919050565b60006020820190508181036000830152612f4e81612f12565b9050919050565b7f455243313135353a206275726e20616d6f756e7420657863656564732062616c60008201527f616e636500000000000000000000000000000000000000000000000000000000602082015250565b6000612fb1602483611f41565b9150612fbc82612f55565b604082019050919050565b60006020820190508181036000830152612fe081612fa4565b9050919050565b6000604082019050612ffc6000830185611e24565b6130096020830184611e24565b9392505050565b7f455243313135353a206d696e7420746f20746865207a65726f2061646472657360008201527f7300000000000000000000000000000000000000000000000000000000000000602082015250565b600061306c602183611f41565b915061307782613010565b604082019050919050565b6000602082019050818103600083015261309b8161305f565b9050919050565b600081519050919050565b600082825260208201905092915050565b60006130c9826130a2565b6130d381856130ad565b93506130e3818560208601611f52565b6130ec81611f85565b840191505092915050565b600060a08201905061310c600083018861253f565b613119602083018761253f565b818103604083015261312b8186612458565b9050818103606083015261313f8185612458565b9050818103608083015261315381846130be565b90509695505050505050565b60008151905061316e81611e7a565b92915050565b60006020828403121561318a57613189611d46565b5b60006131988482850161315f565b91505092915050565b60008160e01c9050919050565b600060033d11156131cd5760046000803e6131ca6000516131a1565b90505b90565b600060443d10156131e057613263565b6131e8611d3c565b60043d036004823e80513d602482011167ffffffffffffffff82111715613210575050613263565b808201805167ffffffffffffffff81111561322e5750505050613263565b80602083010160043d03850181111561324b575050505050613263565b61325a82602001850186612025565b82955050505050505b90565b7f455243313135353a207472616e7366657220746f206e6f6e204552433131353560008201527f526563656976657220696d706c656d656e746572000000000000000000000000602082015250565b60006132c2603483611f41565b91506132cd82613266565b604082019050919050565b600060208201905081810360008301526132f1816132b5565b9050919050565b7f455243313135353a204552433131353552656365697665722072656a6563746560008201527f6420746f6b656e73000000000000000000000000000000000000000000000000602082015250565b6000613354602883611f41565b915061335f826132f8565b604082019050919050565b6000602082019050818103600083015261338381613347565b9050919050565b600060a08201905061339f600083018861253f565b6133ac602083018761253f565b6133b96040830186611e24565b6133c66060830185611e24565b81810360808301526133d881846130be565b9050969550505050505056fea26469706673582212205be16d29034af400193b20656c4881beb3449973d96917ed3045207831a5d54964736f6c63430008090033",
  "immutableReferences": {},
  "source": "// SPDX-License-Identifier: MIT\npragma solidity ^0.8.0; //solhint-disable compiler-fixed\n\nimport \"@openzeppelin/contracts/token/ERC1155/ERC1155.sol\";\n\n\ncontract BeraWrapper is ERC1155 {\n\n    address public owner;\n\n    uint public positionID;\n\n    mapping(uint => Position) public positionData;\n\n    struct Position {\n        address positionOwner; //address of user that shorted\n        address associatedPool; //standard or high risk pool?\n        uint shortAmount;\n        address tokenShorted;\n        uint priceAtWrap; //what price was the asset at wrap time? //\n    }\n\n    constructor() ERC1155(\"\") { //solhint-disable func-visibility\n        owner = msg.sender;\n        positionID = 0;\n    }\n\n    function wrapPosition(address positionOwner,\n                address associatedPool,\n                uint shortAmount,\n                address tokenShorted,\n                uint priceAtWrap)\n                external {\n\n                    _mint(positionOwner, positionID, 1, \"\");\n\n\n                    positionData[positionID] = Position({\n                        positionOwner: positionOwner,\n                        associatedPool: associatedPool,\n                        shortAmount: shortAmount,\n                        tokenShorted: tokenShorted,\n                        priceAtWrap: priceAtWrap //imported from 1inchAPI via web3 later\n                    });\n\n                    //increase position count\n                    positionID++;\n\n                }\n\n    function unwrapPosition(address positionOwner, uint _positionID) external {\n        require(positionOwner == positionData[_positionID].positionOwner,\n            \"Wrapper: only the owner can unwrap the position\");\n\n        //we burn the token to release the funds\n        _burn(positionOwner, _positionID, 1);\n    }\n\n    //SHOULD BE USED TO SEND TRANSFER POSITIONS\n    function transferPosition(address to, address from, uint _positionID, uint amount) external {\n        require(msg.sender == positionData[_positionID].positionOwner,\n            \"Wrapper: only the owner can transfer a position\");\n        require(from == positionData[_positionID].positionOwner,\n            \"Wrapper: only the owner can transfer a position\");\n\n            //send position\n        safeTransferFrom(to, from, _positionID, amount, \"\");\n\n        //update new owner\n        //might have some security issues with this, come back and recheck this later\n        positionData[_positionID].positionOwner = to;\n    }\n\n    //if position happens to get sent without the transferPosition() func being called then\n    //users can update it manually with this func\n    function updatePosition(address newPositionOwner, uint _positionID) external {\n        if (ERC1155.balanceOf(newPositionOwner, _positionID) > 0) {\n            //update new owner\n            positionData[_positionID].positionOwner = newPositionOwner;\n        } else {\n            return;\n        }\n    }\n}\n",
  "sourcePath": "/home/kevin/Code/solidity_projects/beraMarket/contracts/BeraWrapper.sol",
  "compiler": {
    "name": "solc",
    "version": "0.8.9+commit.e5eed63a.Emscripten.clang"
  },
  "schemaVersion": "3.4.3",
  "updatedAt": "2021-10-23T22:59:38.651Z",
  "networkType": "ethereum",
  "devdoc": {
    "kind": "dev",
    "methods": {
      "balanceOf(address,uint256)": {
        "details": "See {IERC1155-balanceOf}. Requirements: - `account` cannot be the zero address."
      },
      "balanceOfBatch(address[],uint256[])": {
        "details": "See {IERC1155-balanceOfBatch}. Requirements: - `accounts` and `ids` must have the same length."
      },
      "isApprovedForAll(address,address)": {
        "details": "See {IERC1155-isApprovedForAll}."
      },
      "safeBatchTransferFrom(address,address,uint256[],uint256[],bytes)": {
        "details": "See {IERC1155-safeBatchTransferFrom}."
      },
      "safeTransferFrom(address,address,uint256,uint256,bytes)": {
        "details": "See {IERC1155-safeTransferFrom}."
      },
      "setApprovalForAll(address,bool)": {
        "details": "See {IERC1155-setApprovalForAll}."
      },
      "supportsInterface(bytes4)": {
        "details": "See {IERC165-supportsInterface}."
      },
      "uri(uint256)": {
        "details": "See {IERC1155MetadataURI-uri}. This implementation returns the same URI for *all* token types. It relies on the token type ID substitution mechanism https://eips.ethereum.org/EIPS/eip-1155#metadata[defined in the EIP]. Clients calling this function must replace the `\\{id\\}` substring with the actual token type ID."
      }
    },
    "version": 1
  },
  "userdoc": {
    "kind": "user",
    "methods": {},
    "version": 1
  }
}