{
  "contractName": "BeraSwapper",
  "abi": [
    {
      "inputs": [
        {
          "internalType": "contract ISwapRouter",
          "name": "_swapRouter",
          "type": "address"
        },
        {
          "internalType": "contract IOracle",
          "name": "_oracle",
          "type": "address"
        },
        {
          "internalType": "contract SwapOracle",
          "name": "_swapOracle",
          "type": "address"
        }
      ],
      "stateMutability": "nonpayable",
      "type": "constructor"
    },
    {
      "inputs": [],
      "name": "WETH_ADDRESS",
      "outputs": [
        {
          "internalType": "address",
          "name": "",
          "type": "address"
        }
      ],
      "stateMutability": "view",
      "type": "function"
    },
    {
      "inputs": [],
      "name": "swapRouter",
      "outputs": [
        {
          "internalType": "contract ISwapRouter",
          "name": "",
          "type": "address"
        }
      ],
      "stateMutability": "view",
      "type": "function"
    },
    {
      "inputs": [
        {
          "internalType": "address",
          "name": "user",
          "type": "address"
        },
        {
          "internalType": "address",
          "name": "tokenToShort",
          "type": "address"
        },
        {
          "internalType": "address",
          "name": "tokenSupplied",
          "type": "address"
        },
        {
          "internalType": "uint24",
          "name": "poolFee",
          "type": "uint24"
        },
        {
          "internalType": "uint256",
          "name": "amount",
          "type": "uint256"
        },
        {
          "internalType": "uint256",
          "name": "amountOutMin",
          "type": "uint256"
        }
      ],
      "name": "_swapShort",
      "outputs": [
        {
          "internalType": "uint256",
          "name": "amountOut",
          "type": "uint256"
        }
      ],
      "stateMutability": "nonpayable",
      "type": "function"
    },
    {
      "inputs": [
        {
          "internalType": "address",
          "name": "user",
          "type": "address"
        },
        {
          "internalType": "address",
          "name": "tokenSupplied",
          "type": "address"
        },
        {
          "internalType": "uint24",
          "name": "fee",
          "type": "uint24"
        },
        {
          "internalType": "uint256",
          "name": "amount",
          "type": "uint256"
        },
        {
          "internalType": "address",
          "name": "associatedPool",
          "type": "address"
        }
      ],
      "name": "_supplyShort",
      "outputs": [
        {
          "internalType": "uint256",
          "name": "amountOut",
          "type": "uint256"
        }
      ],
      "stateMutability": "nonpayable",
      "type": "function"
    }
  ],
  "bytecode": "0x61010060405273c02aaa39b223fe8d0a0e5c4f27ead9083c756cc273ffffffffffffffffffffffffffffffffffffffff1660e09073ffffffffffffffffffffffffffffffffffffffff168152503480156200005957600080fd5b50604051620014593803806200145983398181016040528101906200007f91906200022c565b8273ffffffffffffffffffffffffffffffffffffffff1660808173ffffffffffffffffffffffffffffffffffffffff16815250508173ffffffffffffffffffffffffffffffffffffffff1660a08173ffffffffffffffffffffffffffffffffffffffff16815250508073ffffffffffffffffffffffffffffffffffffffff1660c08173ffffffffffffffffffffffffffffffffffffffff168152505050505062000288565b600080fd5b600073ffffffffffffffffffffffffffffffffffffffff82169050919050565b6000620001568262000129565b9050919050565b60006200016a8262000149565b9050919050565b6200017c816200015d565b81146200018857600080fd5b50565b6000815190506200019c8162000171565b92915050565b6000620001af8262000149565b9050919050565b620001c181620001a2565b8114620001cd57600080fd5b50565b600081519050620001e181620001b6565b92915050565b6000620001f48262000149565b9050919050565b6200020681620001e7565b81146200021257600080fd5b50565b6000815190506200022681620001fb565b92915050565b60008060006060848603121562000248576200024762000124565b5b600062000258868287016200018b565b93505060206200026b86828701620001d0565b92505060406200027e8682870162000215565b9150509250925092565b60805160a05160c05160e05161117c620002dd6000396000818160ef01526102f301526000610123015260006102380152600081816101d90152818161020f0152818161036c01526104ac015261117c6000f3fe608060405234801561001057600080fd5b506004361061004c5760003560e01c8063040141e514610051578063bbe9247f1461006f578063c31c9c071461009f578063f2e6c8cc146100bd575b600080fd5b6100596100ed565b6040516100669190610843565b60405180910390f35b61008960048036038101906100849190610900565b610111565b604051610096919061098a565b60405180910390f35b6100a76101d7565b6040516100b49190610a04565b60405180910390f35b6100d760048036038101906100d29190610a1f565b6101fb565b6040516100e4919061098a565b60405180910390f35b7f000000000000000000000000000000000000000000000000000000000000000081565b600061011f85878486610555565b60007f000000000000000000000000000000000000000000000000000000000000000073ffffffffffffffffffffffffffffffffffffffff1663ec3eb22387876040518363ffffffff1660e01b815260040161017c929190610abb565b602060405180830381865afa158015610199573d6000803e3d6000fd5b505050506040513d601f19601f820116820180604052508101906101bd9190610af9565b905083816101cb9190610b55565b91505095945050505050565b7f000000000000000000000000000000000000000000000000000000000000000081565b600061020985883086610555565b610234857f0000000000000000000000000000000000000000000000000000000000000000856106ad565b60007f000000000000000000000000000000000000000000000000000000000000000073ffffffffffffffffffffffffffffffffffffffff166358de350088876040518363ffffffff1660e01b8152600401610291929190610abb565b6040805180830381865afa1580156102ad573d6000803e3d6000fd5b505050506040513d601f19601f820116820180604052508101906102d19190610bfd565b91505060018160ff16141561040e5760006040518060a0016040528088610bb87f00000000000000000000000000000000000000000000000000000000000000008a8d604051602001610328959493929190610cbb565b60405160208183030381529060405281526020013373ffffffffffffffffffffffffffffffffffffffff1681526020014281526020018681526020018581525090507f000000000000000000000000000000000000000000000000000000000000000073ffffffffffffffffffffffffffffffffffffffff1663c04b8d59826040518263ffffffff1660e01b81526004016103c39190610e47565b6020604051808303816000875af11580156103e2573d6000803e3d6000fd5b505050506040513d601f19601f820116820180604052508101906104069190610af9565b92505061054a565b60006040518061010001604052808873ffffffffffffffffffffffffffffffffffffffff1681526020018973ffffffffffffffffffffffffffffffffffffffff1681526020018762ffffff1681526020013373ffffffffffffffffffffffffffffffffffffffff168152602001428152602001868152602001858152602001600073ffffffffffffffffffffffffffffffffffffffff1681525090507f000000000000000000000000000000000000000000000000000000000000000073ffffffffffffffffffffffffffffffffffffffff1663414bf389826040518263ffffffff1660e01b81526004016105039190610f29565b6020604051808303816000875af1158015610522573d6000803e3d6000fd5b505050506040513d601f19601f820116820180604052508101906105469190610af9565b9250505b509695505050505050565b6000808573ffffffffffffffffffffffffffffffffffffffff166323b872dd60e01b86868660405160240161058c93929190610f45565b604051602081830303815290604052907bffffffffffffffffffffffffffffffffffffffffffffffffffffffff19166020820180517bffffffffffffffffffffffffffffffffffffffffffffffffffffffff83818316178352505050506040516105f69190610fb8565b6000604051808303816000865af19150503d8060008114610633576040519150601f19603f3d011682016040523d82523d6000602084013e610638565b606091505b509150915081801561066657506000815114806106655750808060200190518101906106649190611007565b5b5b6106a5576040517f08c379a000000000000000000000000000000000000000000000000000000000815260040161069c90611091565b60405180910390fd5b505050505050565b6000808473ffffffffffffffffffffffffffffffffffffffff1663095ea7b360e01b85856040516024016106e29291906110b1565b604051602081830303815290604052907bffffffffffffffffffffffffffffffffffffffffffffffffffffffff19166020820180517bffffffffffffffffffffffffffffffffffffffffffffffffffffffff838183161783525050505060405161074c9190610fb8565b6000604051808303816000865af19150503d8060008114610789576040519150601f19603f3d011682016040523d82523d6000602084013e61078e565b606091505b50915091508180156107bc57506000815114806107bb5750808060200190518101906107ba9190611007565b5b5b6107fb576040517f08c379a00000000000000000000000000000000000000000000000000000000081526004016107f290611126565b60405180910390fd5b5050505050565b600073ffffffffffffffffffffffffffffffffffffffff82169050919050565b600061082d82610802565b9050919050565b61083d81610822565b82525050565b60006020820190506108586000830184610834565b92915050565b600080fd5b61086c81610822565b811461087757600080fd5b50565b60008135905061088981610863565b92915050565b600062ffffff82169050919050565b6108a78161088f565b81146108b257600080fd5b50565b6000813590506108c48161089e565b92915050565b6000819050919050565b6108dd816108ca565b81146108e857600080fd5b50565b6000813590506108fa816108d4565b92915050565b600080600080600060a0868803121561091c5761091b61085e565b5b600061092a8882890161087a565b955050602061093b8882890161087a565b945050604061094c888289016108b5565b935050606061095d888289016108eb565b925050608061096e8882890161087a565b9150509295509295909350565b610984816108ca565b82525050565b600060208201905061099f600083018461097b565b92915050565b6000819050919050565b60006109ca6109c56109c084610802565b6109a5565b610802565b9050919050565b60006109dc826109af565b9050919050565b60006109ee826109d1565b9050919050565b6109fe816109e3565b82525050565b6000602082019050610a1960008301846109f5565b92915050565b60008060008060008060c08789031215610a3c57610a3b61085e565b5b6000610a4a89828a0161087a565b9650506020610a5b89828a0161087a565b9550506040610a6c89828a0161087a565b9450506060610a7d89828a016108b5565b9350506080610a8e89828a016108eb565b92505060a0610a9f89828a016108eb565b9150509295509295509295565b610ab58161088f565b82525050565b6000604082019050610ad06000830185610834565b610add6020830184610aac565b9392505050565b600081519050610af3816108d4565b92915050565b600060208284031215610b0f57610b0e61085e565b5b6000610b1d84828501610ae4565b91505092915050565b7f4e487b7100000000000000000000000000000000000000000000000000000000600052601160045260246000fd5b6000610b60826108ca565b9150610b6b836108ca565b9250817fffffffffffffffffffffffffffffffffffffffffffffffffffffffffffffffff0483118215151615610ba457610ba3610b26565b5b828202905092915050565b600081519050610bbe81610863565b92915050565b600060ff82169050919050565b610bda81610bc4565b8114610be557600080fd5b50565b600081519050610bf781610bd1565b92915050565b60008060408385031215610c1457610c1361085e565b5b6000610c2285828601610baf565b9250506020610c3385828601610be8565b9150509250929050565b60008160601b9050919050565b6000610c5582610c3d565b9050919050565b6000610c6782610c4a565b9050919050565b610c7f610c7a82610822565b610c5c565b82525050565b60008160e81b9050919050565b6000610c9d82610c85565b9050919050565b610cb5610cb08261088f565b610c92565b82525050565b6000610cc78288610c6e565b601482019150610cd78287610ca4565b600382019150610ce78286610c6e565b601482019150610cf78285610ca4565b600382019150610d078284610c6e565b6014820191508190509695505050505050565b600081519050919050565b600082825260208201905092915050565b60005b83811015610d54578082015181840152602081019050610d39565b83811115610d63576000848401525b50505050565b6000601f19601f8301169050919050565b6000610d8582610d1a565b610d8f8185610d25565b9350610d9f818560208601610d36565b610da881610d69565b840191505092915050565b610dbc81610822565b82525050565b610dcb816108ca565b82525050565b600060a0830160008301518482036000860152610dee8282610d7a565b9150506020830151610e036020860182610db3565b506040830151610e166040860182610dc2565b506060830151610e296060860182610dc2565b506080830151610e3c6080860182610dc2565b508091505092915050565b60006020820190508181036000830152610e618184610dd1565b905092915050565b610e728161088f565b82525050565b610e8181610802565b82525050565b61010082016000820151610e9e6000850182610db3565b506020820151610eb16020850182610db3565b506040820151610ec46040850182610e69565b506060820151610ed76060850182610db3565b506080820151610eea6080850182610dc2565b5060a0820151610efd60a0850182610dc2565b5060c0820151610f1060c0850182610dc2565b5060e0820151610f2360e0850182610e78565b50505050565b600061010082019050610f3f6000830184610e87565b92915050565b6000606082019050610f5a6000830186610834565b610f676020830185610834565b610f74604083018461097b565b949350505050565b600081905092915050565b6000610f9282610d1a565b610f9c8185610f7c565b9350610fac818560208601610d36565b80840191505092915050565b6000610fc48284610f87565b915081905092915050565b60008115159050919050565b610fe481610fcf565b8114610fef57600080fd5b50565b60008151905061100181610fdb565b92915050565b60006020828403121561101d5761101c61085e565b5b600061102b84828501610ff2565b91505092915050565b600082825260208201905092915050565b7f5354460000000000000000000000000000000000000000000000000000000000600082015250565b600061107b600383611034565b915061108682611045565b602082019050919050565b600060208201905081810360008301526110aa8161106e565b9050919050565b60006040820190506110c66000830185610834565b6110d3602083018461097b565b9392505050565b7f5341000000000000000000000000000000000000000000000000000000000000600082015250565b6000611110600283611034565b915061111b826110da565b602082019050919050565b6000602082019050818103600083015261113f81611103565b905091905056fea2646970667358221220523fb1b48bcef8eacd725ef547f416ad100f8636a1996514925df7fbe8b6c04364736f6c634300080b0033",
  "immutableReferences": {
    "4200": [
      {
        "length": 32,
        "start": 473
      },
      {
        "length": 32,
        "start": 527
      },
      {
        "length": 32,
        "start": 876
      },
      {
        "length": 32,
        "start": 1196
      }
    ],
    "4203": [
      {
        "length": 32,
        "start": 568
      }
    ],
    "4206": [
      {
        "length": 32,
        "start": 291
      }
    ],
    "4212": [
      {
        "length": 32,
        "start": 239
      },
      {
        "length": 32,
        "start": 755
      }
    ]
  },
  "source": "// SPDX-License-Identifier: MIT\npragma solidity ^0.8.0; //solhint-disable compiler-fixed\npragma abicoder v2;\n\nimport \"@uniswap/v3-periphery/contracts/interfaces/ISwapRouter.sol\";\nimport \"@uniswap/v3-periphery/contracts/libraries/TransferHelper.sol\";\nimport \"./ancillary/IOracle.sol\";\nimport \"./ancillary/SwapOracle.sol\";\nimport \"./ancillary/Constants.sol\";\n\n\ncontract BeraSwapper {\n\n    ISwapRouter public immutable swapRouter;\n    IOracle private immutable oracle;\n    SwapOracle private immutable swapOracle;\n    uint24 private constant DAI_FEE = 3000;\n    address public immutable WETH_ADDRESS = 0xC02aaA39b223FE8D0A0e5C4F27eAD9083C756Cc2;\n\n    constructor(ISwapRouter _swapRouter, IOracle _oracle, SwapOracle _swapOracle) {\n        swapRouter = _swapRouter;\n        oracle = _oracle;\n        swapOracle = _swapOracle;\n    }\n\n    // amount here refers to how much of the token shorted is passed back into the swapRouter\n    // used for both opening and closing positions\n    function _swapShort(\n        address user,\n        address tokenToShort, //what token is shorted //opposite on close\n        address tokenSupplied, //dai on open //opposite on close\n        uint24 poolFee,\n        uint amount,\n        uint amountOutMin) external returns(uint amountOut) {\n\n        TransferHelper.safeTransferFrom(tokenSupplied, user, address(this), amount);\n        TransferHelper.safeApprove(tokenSupplied, address(swapRouter), amount);\n\n        (, uint8 returnValue) = oracle.getPoolForTWAP(tokenToShort, poolFee);\n        if (returnValue == 1) {\n            ISwapRouter.ExactInputParams memory multiParams =\n            ISwapRouter.ExactInputParams({\n                path: abi.encodePacked(tokenSupplied, DAI_FEE, WETH_ADDRESS, poolFee, tokenToShort),\n                recipient: msg.sender,\n                deadline: block.timestamp, //solhint-disable not-rely-on-time\n                amountIn: amount,\n                amountOutMinimum: amountOutMin\n            });\n\n            // Executes the swap.\n            amountOut = swapRouter.exactInput(multiParams);\n          //don't judge me for using else it is readable >:(\n        } else {\n            ISwapRouter.ExactInputSingleParams memory params =\n            ISwapRouter.ExactInputSingleParams({\n                tokenIn: tokenSupplied,\n                tokenOut: tokenToShort,\n                fee: poolFee,\n                recipient: msg.sender, //refers to pool that calls function\n                deadline: block.timestamp, //solhint-disable not-rely-on-time\n                amountIn: amount, //amountToSend\n                amountOutMinimum: amountOutMin, //used to check price\n                sqrtPriceLimitX96: 0\n            });\n            //execute the swap\n            amountOut = swapRouter.exactInputSingle(params);\n        }\n    }\n\n    //PLACEHOLDER ---> TODO\n    function _supplyShort(\n        address user,\n        address tokenSupplied,\n        uint24 fee,\n        uint amount,\n        address associatedPool) external returns (uint amountOut) {\n        //transfer tokens to pool\n        TransferHelper.safeTransferFrom(tokenSupplied, user, address(associatedPool), amount);\n\n        uint tokenPrice = swapOracle.getSwapPrice(tokenSupplied, fee);\n        amountOut = tokenPrice * amount;\n    }\n\n}\n",
  "sourcePath": "/home/kevin/Code/solidity_projects/beraMarket/contracts/BeraSwapper.sol",
  "compiler": {
    "name": "solc",
    "version": "0.8.11+commit.d7f03943.Emscripten.clang"
  },
  "schemaVersion": "3.4.3",
  "updatedAt": "2022-01-15T22:20:22.693Z",
  "devdoc": {
    "kind": "dev",
    "methods": {},
    "version": 1
  },
  "userdoc": {
    "kind": "user",
    "methods": {},
    "version": 1
  }
}