{
  "contractName": "BeraPoolStandardRisk",
  "abi": [
    {
      "inputs": [
        {
          "internalType": "contract ISwapRouter",
          "name": "_swapRouter",
          "type": "address"
        },
        {
          "internalType": "contract BeraWrapper",
          "name": "_beraWrapper",
          "type": "address"
        }
      ],
      "stateMutability": "nonpayable",
      "type": "constructor"
    },
    {
      "inputs": [],
      "name": "beraWrapper",
      "outputs": [
        {
          "internalType": "contract BeraWrapper",
          "name": "",
          "type": "address"
        }
      ],
      "stateMutability": "view",
      "type": "function",
      "constant": true
    },
    {
      "inputs": [
        {
          "internalType": "address",
          "name": "",
          "type": "address"
        },
        {
          "internalType": "address",
          "name": "",
          "type": "address"
        },
        {
          "internalType": "uint256[]",
          "name": "",
          "type": "uint256[]"
        },
        {
          "internalType": "uint256[]",
          "name": "",
          "type": "uint256[]"
        },
        {
          "internalType": "bytes",
          "name": "",
          "type": "bytes"
        }
      ],
      "name": "onERC1155BatchReceived",
      "outputs": [
        {
          "internalType": "bytes4",
          "name": "",
          "type": "bytes4"
        }
      ],
      "stateMutability": "nonpayable",
      "type": "function"
    },
    {
      "inputs": [
        {
          "internalType": "address",
          "name": "",
          "type": "address"
        },
        {
          "internalType": "address",
          "name": "",
          "type": "address"
        },
        {
          "internalType": "uint256",
          "name": "",
          "type": "uint256"
        },
        {
          "internalType": "uint256",
          "name": "",
          "type": "uint256"
        },
        {
          "internalType": "bytes",
          "name": "",
          "type": "bytes"
        }
      ],
      "name": "onERC1155Received",
      "outputs": [
        {
          "internalType": "bytes4",
          "name": "",
          "type": "bytes4"
        }
      ],
      "stateMutability": "nonpayable",
      "type": "function"
    },
    {
      "inputs": [],
      "name": "owner",
      "outputs": [
        {
          "internalType": "address",
          "name": "",
          "type": "address"
        }
      ],
      "stateMutability": "view",
      "type": "function",
      "constant": true
    },
    {
      "inputs": [
        {
          "internalType": "uint256",
          "name": "",
          "type": "uint256"
        }
      ],
      "name": "standardPoolList",
      "outputs": [
        {
          "internalType": "address",
          "name": "",
          "type": "address"
        }
      ],
      "stateMutability": "view",
      "type": "function",
      "constant": true
    },
    {
      "inputs": [
        {
          "internalType": "bytes4",
          "name": "interfaceId",
          "type": "bytes4"
        }
      ],
      "name": "supportsInterface",
      "outputs": [
        {
          "internalType": "bool",
          "name": "",
          "type": "bool"
        }
      ],
      "stateMutability": "view",
      "type": "function",
      "constant": true
    },
    {
      "inputs": [],
      "name": "swapRouter",
      "outputs": [
        {
          "internalType": "contract ISwapRouter",
          "name": "",
          "type": "address"
        }
      ],
      "stateMutability": "view",
      "type": "function",
      "constant": true
    },
    {
      "inputs": [
        {
          "internalType": "address",
          "name": "",
          "type": "address"
        }
      ],
      "name": "userDepositBalance",
      "outputs": [
        {
          "internalType": "uint256",
          "name": "",
          "type": "uint256"
        }
      ],
      "stateMutability": "view",
      "type": "function",
      "constant": true
    },
    {
      "inputs": [
        {
          "internalType": "address",
          "name": "",
          "type": "address"
        }
      ],
      "name": "userRemainingBalance",
      "outputs": [
        {
          "internalType": "uint256",
          "name": "",
          "type": "uint256"
        }
      ],
      "stateMutability": "view",
      "type": "function",
      "constant": true
    },
    {
      "inputs": [
        {
          "internalType": "address",
          "name": "",
          "type": "address"
        }
      ],
      "name": "userShortBalance",
      "outputs": [
        {
          "internalType": "uint256",
          "name": "",
          "type": "uint256"
        }
      ],
      "stateMutability": "view",
      "type": "function",
      "constant": true
    },
    {
      "inputs": [
        {
          "internalType": "uint256",
          "name": "amount",
          "type": "uint256"
        },
        {
          "internalType": "address",
          "name": "collateral",
          "type": "address"
        }
      ],
      "name": "depositCollateral",
      "outputs": [],
      "stateMutability": "nonpayable",
      "type": "function"
    },
    {
      "inputs": [
        {
          "internalType": "uint256",
          "name": "amount",
          "type": "uint256"
        }
      ],
      "name": "withdrawFromPool",
      "outputs": [],
      "stateMutability": "nonpayable",
      "type": "function"
    },
    {
      "inputs": [
        {
          "internalType": "address",
          "name": "user",
          "type": "address"
        },
        {
          "internalType": "address",
          "name": "tokenToShort",
          "type": "address"
        },
        {
          "internalType": "uint256",
          "name": "priceAtWrap",
          "type": "uint256"
        },
        {
          "internalType": "uint24",
          "name": "poolFee",
          "type": "uint24"
        },
        {
          "internalType": "uint256",
          "name": "amount",
          "type": "uint256"
        },
        {
          "internalType": "uint256",
          "name": "amountOutMin",
          "type": "uint256"
        }
      ],
      "name": "shortForUser",
      "outputs": [
        {
          "internalType": "uint256",
          "name": "amountOut",
          "type": "uint256"
        }
      ],
      "stateMutability": "nonpayable",
      "type": "function"
    },
    {
      "inputs": [
        {
          "internalType": "address",
          "name": "user",
          "type": "address"
        },
        {
          "internalType": "address",
          "name": "tokenToClose",
          "type": "address"
        },
        {
          "internalType": "uint256",
          "name": "amount",
          "type": "uint256"
        },
        {
          "internalType": "uint256",
          "name": "priceAtClose",
          "type": "uint256"
        },
        {
          "internalType": "uint24",
          "name": "poolFee",
          "type": "uint24"
        },
        {
          "internalType": "uint256",
          "name": "amountOutMin",
          "type": "uint256"
        }
      ],
      "name": "closeShortForUser",
      "outputs": [
        {
          "internalType": "uint256",
          "name": "amountOut",
          "type": "uint256"
        }
      ],
      "stateMutability": "nonpayable",
      "type": "function"
    }
  ],
  "bytecode": "0x60a06040523480156200001157600080fd5b5060405162001fac38038062001fac8339818101604052810190620000379190620001b7565b336000806101000a81548173ffffffffffffffffffffffffffffffffffffffff021916908373ffffffffffffffffffffffffffffffffffffffff1602179055508173ffffffffffffffffffffffffffffffffffffffff1660808173ffffffffffffffffffffffffffffffffffffffff168152505080600760006101000a81548173ffffffffffffffffffffffffffffffffffffffff021916908373ffffffffffffffffffffffffffffffffffffffff1602179055505050620001fe565b600080fd5b600073ffffffffffffffffffffffffffffffffffffffff82169050919050565b60006200012682620000f9565b9050919050565b60006200013a8262000119565b9050919050565b6200014c816200012d565b81146200015857600080fd5b50565b6000815190506200016c8162000141565b92915050565b60006200017f8262000119565b9050919050565b620001918162000172565b81146200019d57600080fd5b50565b600081519050620001b18162000186565b92915050565b60008060408385031215620001d157620001d0620000f4565b5b6000620001e1858286016200015b565b9250506020620001f485828601620001a0565b9150509250929050565b608051611d76620002366000396000818161076a0152818161086e01528181610aad01528181610ae30152610bba0152611d766000f3fe608060405234801561001057600080fd5b50600436106100ea5760003560e01c80638da5cb5b1161008c578063c31c9c0711610066578063c31c9c0714610283578063db8a027d146102a1578063e23c9579146102d1578063f23a6e6114610301576100ea565b80638da5cb5b14610217578063a29aa11414610235578063bc197c8114610253576100ea565b806330fc43ed116100c857806330fc43ed1461017f578063481fef8a1461019b5780634c992506146101b75780637c802ff2146101e7576100ea565b806301ffc9a7146100ef5780630bf7f3451461011f57806321c905ee1461014f575b600080fd5b61010960048036038101906101049190611011565b610331565b6040516101169190611059565b60405180910390f35b610139600480360381019061013491906110aa565b6103ab565b6040516101469190611118565b60405180910390f35b6101696004803603810190610164919061115f565b6103ea565b604051610176919061119b565b60405180910390f35b610199600480360381019061019491906110aa565b610402565b005b6101b560048036038101906101b091906111b6565b6104e4565b005b6101d160048036038101906101cc9190611231565b610756565b6040516101de919061119b565b60405180910390f35b61020160048036038101906101fc919061115f565b610a34565b60405161020e919061119b565b60405180910390f35b61021f610a4c565b60405161022c9190611118565b60405180910390f35b61023d610a70565b60405161024a919061131d565b60405180910390f35b61026d60048036038101906102689190611546565b610a96565b60405161027a9190611624565b60405180910390f35b61028b610aab565b6040516102989190611660565b60405180910390f35b6102bb60048036038101906102b6919061167b565b610acf565b6040516102c8919061119b565b60405180910390f35b6102eb60048036038101906102e6919061115f565b610c61565b6040516102f8919061119b565b60405180910390f35b61031b60048036038101906103169190611708565b610c79565b6040516103289190611624565b60405180910390f35b60007f4e2312e0000000000000000000000000000000000000000000000000000000007bffffffffffffffffffffffffffffffffffffffffffffffffffffffff1916827bffffffffffffffffffffffffffffffffffffffffffffffffffffffff191614806103a457506103a382610c8e565b5b9050919050565b600681815481106103bb57600080fd5b906000526020600020016000915054906101000a900473ffffffffffffffffffffffffffffffffffffffff1681565b60026020528060005260406000206000915090505481565b600360003373ffffffffffffffffffffffffffffffffffffffff1673ffffffffffffffffffffffffffffffffffffffff1681526020019081526020016000205481111561044e57600080fd5b736b175474e89094c44da98b954eedeac495271d0f73ffffffffffffffffffffffffffffffffffffffff1663a9059cbb33836040518363ffffffff1660e01b815260040161049d92919061179f565b6020604051808303816000875af11580156104bc573d6000803e3d6000fd5b505050506040513d601f19601f820116820180604052508101906104e091906117f4565b5050565b736b175474e89094c44da98b954eedeac495271d0f73ffffffffffffffffffffffffffffffffffffffff168173ffffffffffffffffffffffffffffffffffffffff1614610566576040517f08c379a000000000000000000000000000000000000000000000000000000000815260040161055d9061187e565b60405180910390fd5b81600360003373ffffffffffffffffffffffffffffffffffffffff1673ffffffffffffffffffffffffffffffffffffffff16815260200190815260200160002060008282546105b591906118cd565b9250508190555060001515600460003373ffffffffffffffffffffffffffffffffffffffff1673ffffffffffffffffffffffffffffffffffffffff16815260200190815260200160002060009054906101000a900460ff16151514156106d1576006339080600181540180825580915050600190039060005260206000200160009091909190916101000a81548173ffffffffffffffffffffffffffffffffffffffff021916908373ffffffffffffffffffffffffffffffffffffffff1602179055506001600460003373ffffffffffffffffffffffffffffffffffffffff1673ffffffffffffffffffffffffffffffffffffffff16815260200190815260200160002060006101000a81548160ff0219169083151502179055505b8073ffffffffffffffffffffffffffffffffffffffff166323b872dd3330856040518463ffffffff1660e01b815260040161070e93929190611923565b6020604051808303816000875af115801561072d573d6000803e3d6000fd5b505050506040513d601f19601f8201168201806040525081019061075191906117f4565b505050565b600061076486883086610cf8565b61078f867f000000000000000000000000000000000000000000000000000000000000000085610e50565b60006064605f856107a0919061195a565b6107aa91906119e3565b9050600081856107ba9190611a14565b905060006040518061010001604052808a73ffffffffffffffffffffffffffffffffffffffff168152602001736b175474e89094c44da98b954eedeac495271d0f73ffffffffffffffffffffffffffffffffffffffff1681526020018862ffffff1681526020013073ffffffffffffffffffffffffffffffffffffffff168152602001428152602001848152602001868152602001600073ffffffffffffffffffffffffffffffffffffffff1681525090507f000000000000000000000000000000000000000000000000000000000000000073ffffffffffffffffffffffffffffffffffffffff1663414bf389826040518263ffffffff1660e01b81526004016108c59190611b26565b6020604051808303816000875af11580156108e4573d6000803e3d6000fd5b505050506040513d601f19601f820116820180604052508101906109089190611b57565b935083600160003373ffffffffffffffffffffffffffffffffffffffff1673ffffffffffffffffffffffffffffffffffffffff1681526020019081526020016000208190555081600260003373ffffffffffffffffffffffffffffffffffffffff1673ffffffffffffffffffffffffffffffffffffffff16815260200190815260200160002081905550600760009054906101000a900473ffffffffffffffffffffffffffffffffffffffff1673ffffffffffffffffffffffffffffffffffffffff1663c25df92d8b30868d8d6040518663ffffffff1660e01b81526004016109f5959493929190611b84565b600060405180830381600087803b158015610a0f57600080fd5b505af1158015610a23573d6000803e3d6000fd5b505050505050509695505050505050565b60036020528060005260406000206000915090505481565b60008054906101000a900473ffffffffffffffffffffffffffffffffffffffff1681565b600760009054906101000a900473ffffffffffffffffffffffffffffffffffffffff1681565b600063bc197c8160e01b905095945050505050565b7f000000000000000000000000000000000000000000000000000000000000000081565b6000610add86883088610cf8565b610b08867f000000000000000000000000000000000000000000000000000000000000000087610e50565b60006040518061010001604052808873ffffffffffffffffffffffffffffffffffffffff168152602001736b175474e89094c44da98b954eedeac495271d0f73ffffffffffffffffffffffffffffffffffffffff1681526020018562ffffff1681526020013373ffffffffffffffffffffffffffffffffffffffff168152602001428152602001878152602001848152602001600073ffffffffffffffffffffffffffffffffffffffff1681525090507f000000000000000000000000000000000000000000000000000000000000000073ffffffffffffffffffffffffffffffffffffffff1663414bf389826040518263ffffffff1660e01b8152600401610c119190611b26565b6020604051808303816000875af1158015610c30573d6000803e3d6000fd5b505050506040513d601f19601f82011682018060405250810190610c549190611b57565b9150509695505050505050565b60016020528060005260406000206000915090505481565b600063f23a6e6160e01b905095945050505050565b60007f01ffc9a7000000000000000000000000000000000000000000000000000000007bffffffffffffffffffffffffffffffffffffffffffffffffffffffff1916827bffffffffffffffffffffffffffffffffffffffffffffffffffffffff1916149050919050565b6000808573ffffffffffffffffffffffffffffffffffffffff166323b872dd60e01b868686604051602401610d2f93929190611923565b604051602081830303815290604052907bffffffffffffffffffffffffffffffffffffffffffffffffffffffff19166020820180517bffffffffffffffffffffffffffffffffffffffffffffffffffffffff8381831617835250505050604051610d999190611c51565b6000604051808303816000865af19150503d8060008114610dd6576040519150601f19603f3d011682016040523d82523d6000602084013e610ddb565b606091505b5091509150818015610e095750600081511480610e08575080806020019051810190610e0791906117f4565b5b5b610e48576040517f08c379a0000000000000000000000000000000000000000000000000000000008152600401610e3f90611cb4565b60405180910390fd5b505050505050565b6000808473ffffffffffffffffffffffffffffffffffffffff1663095ea7b360e01b8585604051602401610e8592919061179f565b604051602081830303815290604052907bffffffffffffffffffffffffffffffffffffffffffffffffffffffff19166020820180517bffffffffffffffffffffffffffffffffffffffffffffffffffffffff8381831617835250505050604051610eef9190611c51565b6000604051808303816000865af19150503d8060008114610f2c576040519150601f19603f3d011682016040523d82523d6000602084013e610f31565b606091505b5091509150818015610f5f5750600081511480610f5e575080806020019051810190610f5d91906117f4565b5b5b610f9e576040517f08c379a0000000000000000000000000000000000000000000000000000000008152600401610f9590611d20565b60405180910390fd5b5050505050565b6000604051905090565b600080fd5b600080fd5b60007fffffffff0000000000000000000000000000000000000000000000000000000082169050919050565b610fee81610fb9565b8114610ff957600080fd5b50565b60008135905061100b81610fe5565b92915050565b60006020828403121561102757611026610faf565b5b600061103584828501610ffc565b91505092915050565b60008115159050919050565b6110538161103e565b82525050565b600060208201905061106e600083018461104a565b92915050565b6000819050919050565b61108781611074565b811461109257600080fd5b50565b6000813590506110a48161107e565b92915050565b6000602082840312156110c0576110bf610faf565b5b60006110ce84828501611095565b91505092915050565b600073ffffffffffffffffffffffffffffffffffffffff82169050919050565b6000611102826110d7565b9050919050565b611112816110f7565b82525050565b600060208201905061112d6000830184611109565b92915050565b61113c816110f7565b811461114757600080fd5b50565b60008135905061115981611133565b92915050565b60006020828403121561117557611174610faf565b5b60006111838482850161114a565b91505092915050565b61119581611074565b82525050565b60006020820190506111b0600083018461118c565b92915050565b600080604083850312156111cd576111cc610faf565b5b60006111db85828601611095565b92505060206111ec8582860161114a565b9150509250929050565b600062ffffff82169050919050565b61120e816111f6565b811461121957600080fd5b50565b60008135905061122b81611205565b92915050565b60008060008060008060c0878903121561124e5761124d610faf565b5b600061125c89828a0161114a565b965050602061126d89828a0161114a565b955050604061127e89828a01611095565b945050606061128f89828a0161121c565b93505060806112a089828a01611095565b92505060a06112b189828a01611095565b9150509295509295509295565b6000819050919050565b60006112e36112de6112d9846110d7565b6112be565b6110d7565b9050919050565b60006112f5826112c8565b9050919050565b6000611307826112ea565b9050919050565b611317816112fc565b82525050565b6000602082019050611332600083018461130e565b92915050565b600080fd5b6000601f19601f8301169050919050565b7f4e487b7100000000000000000000000000000000000000000000000000000000600052604160045260246000fd5b6113868261133d565b810181811067ffffffffffffffff821117156113a5576113a461134e565b5b80604052505050565b60006113b8610fa5565b90506113c4828261137d565b919050565b600067ffffffffffffffff8211156113e4576113e361134e565b5b602082029050602081019050919050565b600080fd5b600061140d611408846113c9565b6113ae565b905080838252602082019050602084028301858111156114305761142f6113f5565b5b835b8181101561145957806114458882611095565b845260208401935050602081019050611432565b5050509392505050565b600082601f83011261147857611477611338565b5b81356114888482602086016113fa565b91505092915050565b600080fd5b600067ffffffffffffffff8211156114b1576114b061134e565b5b6114ba8261133d565b9050602081019050919050565b82818337600083830152505050565b60006114e96114e484611496565b6113ae565b90508281526020810184848401111561150557611504611491565b5b6115108482856114c7565b509392505050565b600082601f83011261152d5761152c611338565b5b813561153d8482602086016114d6565b91505092915050565b600080600080600060a0868803121561156257611561610faf565b5b60006115708882890161114a565b95505060206115818882890161114a565b945050604086013567ffffffffffffffff8111156115a2576115a1610fb4565b5b6115ae88828901611463565b935050606086013567ffffffffffffffff8111156115cf576115ce610fb4565b5b6115db88828901611463565b925050608086013567ffffffffffffffff8111156115fc576115fb610fb4565b5b61160888828901611518565b9150509295509295909350565b61161e81610fb9565b82525050565b60006020820190506116396000830184611615565b92915050565b600061164a826112ea565b9050919050565b61165a8161163f565b82525050565b60006020820190506116756000830184611651565b92915050565b60008060008060008060c0878903121561169857611697610faf565b5b60006116a689828a0161114a565b96505060206116b789828a0161114a565b95505060406116c889828a01611095565b94505060606116d989828a01611095565b93505060806116ea89828a0161121c565b92505060a06116fb89828a01611095565b9150509295509295509295565b600080600080600060a0868803121561172457611723610faf565b5b60006117328882890161114a565b95505060206117438882890161114a565b945050604061175488828901611095565b935050606061176588828901611095565b925050608086013567ffffffffffffffff81111561178657611785610fb4565b5b61179288828901611518565b9150509295509295909350565b60006040820190506117b46000830185611109565b6117c1602083018461118c565b9392505050565b6117d18161103e565b81146117dc57600080fd5b50565b6000815190506117ee816117c8565b92915050565b60006020828403121561180a57611809610faf565b5b6000611818848285016117df565b91505092915050565b600082825260208201905092915050565b7f5354414e4441524420504f4f4c3a204e6f742044414900000000000000000000600082015250565b6000611868601683611821565b915061187382611832565b602082019050919050565b600060208201905081810360008301526118978161185b565b9050919050565b7f4e487b7100000000000000000000000000000000000000000000000000000000600052601160045260246000fd5b60006118d882611074565b91506118e383611074565b9250827fffffffffffffffffffffffffffffffffffffffffffffffffffffffffffffffff038211156119185761191761189e565b5b828201905092915050565b60006060820190506119386000830186611109565b6119456020830185611109565b611952604083018461118c565b949350505050565b600061196582611074565b915061197083611074565b9250817fffffffffffffffffffffffffffffffffffffffffffffffffffffffffffffffff04831182151516156119a9576119a861189e565b5b828202905092915050565b7f4e487b7100000000000000000000000000000000000000000000000000000000600052601260045260246000fd5b60006119ee82611074565b91506119f983611074565b925082611a0957611a086119b4565b5b828204905092915050565b6000611a1f82611074565b9150611a2a83611074565b925082821015611a3d57611a3c61189e565b5b828203905092915050565b611a51816110f7565b82525050565b611a60816111f6565b82525050565b611a6f81611074565b82525050565b611a7e816110d7565b82525050565b61010082016000820151611a9b6000850182611a48565b506020820151611aae6020850182611a48565b506040820151611ac16040850182611a57565b506060820151611ad46060850182611a48565b506080820151611ae76080850182611a66565b5060a0820151611afa60a0850182611a66565b5060c0820151611b0d60c0850182611a66565b5060e0820151611b2060e0850182611a75565b50505050565b600061010082019050611b3c6000830184611a84565b92915050565b600081519050611b518161107e565b92915050565b600060208284031215611b6d57611b6c610faf565b5b6000611b7b84828501611b42565b91505092915050565b600060a082019050611b996000830188611109565b611ba66020830187611109565b611bb3604083018661118c565b611bc06060830185611109565b611bcd608083018461118c565b9695505050505050565b600081519050919050565b600081905092915050565b60005b83811015611c0b578082015181840152602081019050611bf0565b83811115611c1a576000848401525b50505050565b6000611c2b82611bd7565b611c358185611be2565b9350611c45818560208601611bed565b80840191505092915050565b6000611c5d8284611c20565b915081905092915050565b7f5354460000000000000000000000000000000000000000000000000000000000600082015250565b6000611c9e600383611821565b9150611ca982611c68565b602082019050919050565b60006020820190508181036000830152611ccd81611c91565b9050919050565b7f5341000000000000000000000000000000000000000000000000000000000000600082015250565b6000611d0a600283611821565b9150611d1582611cd4565b602082019050919050565b60006020820190508181036000830152611d3981611cfd565b905091905056fea264697066735822122039922ab69c627bc4979ea00cd9f05354f31c902ff0abeedcc5928b719daff8d464736f6c634300080a0033",
  "immutableReferences": {
    "2103": [
      {
        "length": 32,
        "start": 1898
      },
      {
        "length": 32,
        "start": 2158
      },
      {
        "length": 32,
        "start": 2733
      },
      {
        "length": 32,
        "start": 2787
      },
      {
        "length": 32,
        "start": 3002
      }
    ]
  },
  "source": "// SPDX-License-Identifier: MIT\npragma solidity ^0.8.0; //solhint-disable compiler-fixed\npragma abicoder v2;\n\n\nimport \"@openzeppelin/contracts/token/ERC1155/IERC1155.sol\";\nimport \"@openzeppelin/contracts/token/ERC1155/utils/ERC1155Holder.sol\";\nimport \"@uniswap/v3-periphery/contracts/interfaces/ISwapRouter.sol\";\nimport \"@uniswap/v3-periphery/contracts/libraries/TransferHelper.sol\";\nimport \"@openzeppelin/contracts/token/ERC20/IERC20.sol\";\nimport \"./BeraWrapper.sol\";\n\n\ncontract BeraPoolStandardRisk is ERC1155Holder {\n\n    address public owner;\n\n    mapping(address => uint) public userShortBalance;\n    mapping(address => uint) public userRemainingBalance;\n    mapping(address => uint) public userDepositBalance;\n    mapping(address => bool) internal hasCollateral;\n    mapping(address => bool) internal inShort; //stores whether user is currently in a position\n    address[] public standardPoolList;\n\n    address private constant DAI_ADDRESS = 0x6B175474E89094C44Da98b954EedeAC495271d0F;\n\n    ISwapRouter public immutable swapRouter;\n    BeraWrapper public beraWrapper;\n\n    constructor(ISwapRouter _swapRouter,\n        BeraWrapper _beraWrapper) { //solhint-disable func-visibility\n        owner = msg.sender;\n        swapRouter = _swapRouter;\n        beraWrapper = _beraWrapper;\n    }\n\n    function depositCollateral(uint amount, address collateral) external {\n        require(IERC20(collateral) == IERC20(DAI_ADDRESS), \"STANDARD POOL: Not DAI\");\n\n        //used for withdrawl later\n        userDepositBalance[msg.sender] += amount;\n\n        if (hasCollateral[msg.sender] == false) {\n            standardPoolList.push(msg.sender);\n            hasCollateral[msg.sender] = true;\n        }\n\n        //transfer to seperate pools based on user defined risk\n        //high risk pool will keep 5% of the native token to try and maximize returns\n        IERC20(collateral).transferFrom(msg.sender, address(this), amount);\n\n    }\n\n    function withdrawFromPool(uint amount) external {\n        require(amount <= userDepositBalance[msg.sender]);\n        IERC20(DAI_ADDRESS).transfer(msg.sender, amount);\n    }\n\n    function shortForUser(\n        address user,\n        address tokenToShort,\n        uint priceAtWrap,\n        uint24 poolFee,\n        uint amount,\n        uint amountOutMin) external returns(uint amountOut) {\n        //require(msg.sender == beraRouter, \"not in ecosystem\");\n\n\n        TransferHelper.safeTransferFrom(tokenToShort, user, address(this), amount);\n        TransferHelper.safeApprove(tokenToShort, address(swapRouter), amount);\n\n        //keep 5% of weth in pool contract for holders to profit/ reduce losses\n        //amountToShort is amount of weth to short\n        //TOKEN IN IN THIS CASE IS ALREADY TOKEN TO BE SHORTED, SO POOL IS KEEPING 5% OF TRADE\n        //KEEP IN FOR NOW TO TEST HIGH RISK POOL\n        //WILL HAVE TO CHANGE TO SWAP AND THEN KEEP 5% FOR STANDARD RISK POOL\n        uint amountToShort = (amount * 95) / 100;\n        uint remaining = amount - amountToShort;\n\n        //now that contract has the desired token to short, we sell @ market back for DAI\n        ISwapRouter.ExactInputSingleParams memory tokenParams =\n        ISwapRouter.ExactInputSingleParams({\n            tokenIn: tokenToShort,\n            tokenOut: DAI_ADDRESS,\n            fee: poolFee,\n            recipient: address(this), //the pool contract will store both DAI from users and\n            deadline: block.timestamp, //solhint-disable not-rely-on-time\n            amountIn: amountToShort,\n            amountOutMinimum: amountOutMin,\n            sqrtPriceLimitX96: 0\n        });\n\n        // execute the short, amountOut is DAI in this case\n        amountOut = swapRouter.exactInputSingle(tokenParams);\n\n        //update user balances\n        userShortBalance[msg.sender] = amountOut;\n        userRemainingBalance[msg.sender] = remaining;\n\n        //wrap position in ERC1155\n        //use amountToShort to reference position size being wrapped\n        beraWrapper.wrapPosition(user, address(this), amountToShort, tokenToShort, priceAtWrap);\n\n    }\n\n    function closeShortForUser(\n        address user,\n        address tokenToClose,\n        uint amount,\n        uint priceAtClose,\n        uint24 poolFee,\n        uint amountOutMin)\n        external returns(uint amountOut) {\n\n            //transfer weth to contract to sell back to dai and send profits to user\n            TransferHelper.safeTransferFrom(tokenToClose, user, address(this), amount);\n            TransferHelper.safeApprove(tokenToClose, address(swapRouter), amount);\n\n            ISwapRouter.ExactInputSingleParams memory tokenParams =\n            ISwapRouter.ExactInputSingleParams({\n                tokenIn: tokenToClose,\n                tokenOut: DAI_ADDRESS,\n                fee: poolFee,\n                recipient: msg.sender, //refers to router in this case\n                deadline: block.timestamp, //solhint-disable not-rely-on-time\n                amountIn: amount,\n                amountOutMinimum: amountOutMin,\n                sqrtPriceLimitX96: 0\n            });\n\n            //execute the sell order\n            amountOut = swapRouter.exactInputSingle(tokenParams);\n\n        }\n\n}\n\n//needs:\n//\n//total borrowed from pool/ token0\n//total supplied to pool as collateral/ token1(USDC)\n//total available to borrow for shorting\n//how much it will cost to borrow/ how much to be paid to supplier\n//when does the borrower threaten to be liquited?\n    //(when losses are equal to 90% of supplied collateral)\n    //thus, we need a way to measure the current borrowers PnL or loan health (maybe look at AAVE or COMP)\n//need interface when done with all functions\n\n//ON HOLD\n",
  "sourcePath": "/home/kevin/Code/solidity_projects/beraMarket/contracts/BeraPoolStandardRisk.sol",
  "compiler": {
    "name": "solc",
    "version": "0.8.10+commit.fc410830.Emscripten.clang"
  },
  "schemaVersion": "3.4.3",
  "updatedAt": "2021-12-01T16:30:19.138Z",
  "networkType": "ethereum",
  "devdoc": {
    "kind": "dev",
    "methods": {
      "supportsInterface(bytes4)": {
        "details": "See {IERC165-supportsInterface}."
      }
    },
    "version": 1
  },
  "userdoc": {
    "kind": "user",
    "methods": {},
    "version": 1
  }
}