{
  "contractName": "BeraSwapper",
  "abi": [
    {
      "inputs": [
        {
          "internalType": "contract ISwapRouter",
          "name": "_swapRouter",
          "type": "address"
        },
        {
          "internalType": "contract IOracle",
          "name": "_oracle",
          "type": "address"
        },
        {
          "internalType": "contract SwapOracle",
          "name": "_swapOracle",
          "type": "address"
        }
      ],
      "stateMutability": "nonpayable",
      "type": "constructor"
    },
    {
      "inputs": [],
      "name": "swapRouter",
      "outputs": [
        {
          "internalType": "contract ISwapRouter",
          "name": "",
          "type": "address"
        }
      ],
      "stateMutability": "view",
      "type": "function",
      "constant": true
    },
    {
      "inputs": [
        {
          "internalType": "address",
          "name": "user",
          "type": "address"
        },
        {
          "internalType": "address",
          "name": "tokenToShort",
          "type": "address"
        },
        {
          "internalType": "address",
          "name": "tokenSupplied",
          "type": "address"
        },
        {
          "internalType": "uint24",
          "name": "poolFee",
          "type": "uint24"
        },
        {
          "internalType": "uint256",
          "name": "amount",
          "type": "uint256"
        },
        {
          "internalType": "uint256",
          "name": "amountOutMin",
          "type": "uint256"
        }
      ],
      "name": "_swapShort",
      "outputs": [
        {
          "internalType": "uint256",
          "name": "amountOut",
          "type": "uint256"
        }
      ],
      "stateMutability": "nonpayable",
      "type": "function"
    },
    {
      "inputs": [
        {
          "internalType": "address",
          "name": "user",
          "type": "address"
        },
        {
          "internalType": "address",
          "name": "tokenSupplied",
          "type": "address"
        },
        {
          "internalType": "uint24",
          "name": "fee",
          "type": "uint24"
        },
        {
          "internalType": "uint256",
          "name": "amount",
          "type": "uint256"
        },
        {
          "internalType": "address",
          "name": "associatedPool",
          "type": "address"
        }
      ],
      "name": "_supplyShort",
      "outputs": [
        {
          "internalType": "uint256",
          "name": "amountOut",
          "type": "uint256"
        }
      ],
      "stateMutability": "nonpayable",
      "type": "function"
    }
  ],
  "bytecode": "0x60e06040523480156200001157600080fd5b506040516200138c3803806200138c8339818101604052810190620000379190620001e4565b8273ffffffffffffffffffffffffffffffffffffffff1660808173ffffffffffffffffffffffffffffffffffffffff16815250508173ffffffffffffffffffffffffffffffffffffffff1660a08173ffffffffffffffffffffffffffffffffffffffff16815250508073ffffffffffffffffffffffffffffffffffffffff1660c08173ffffffffffffffffffffffffffffffffffffffff168152505050505062000240565b600080fd5b600073ffffffffffffffffffffffffffffffffffffffff82169050919050565b60006200010e82620000e1565b9050919050565b6000620001228262000101565b9050919050565b620001348162000115565b81146200014057600080fd5b50565b600081519050620001548162000129565b92915050565b6000620001678262000101565b9050919050565b62000179816200015a565b81146200018557600080fd5b50565b60008151905062000199816200016e565b92915050565b6000620001ac8262000101565b9050919050565b620001be816200019f565b8114620001ca57600080fd5b50565b600081519050620001de81620001b3565b92915050565b6000806000606084860312156200020057620001ff620000dc565b5b6000620002108682870162000143565b9350506020620002238682870162000188565b92505060406200023686828701620001cd565b9150509250925092565b60805160a05160c05161110862000284600039600060d6015260006101eb01526000818161018c015281816101c201528181610313015261045301526111086000f3fe608060405234801561001057600080fd5b50600436106100415760003560e01c8063bbe9247f14610046578063c31c9c0714610076578063f2e6c8cc14610094575b600080fd5b610060600480360381019061005b919061087d565b6100c4565b60405161006d9190610907565b60405180910390f35b61007e61018a565b60405161008b9190610981565b60405180910390f35b6100ae60048036038101906100a9919061099c565b6101ae565b6040516100bb9190610907565b60405180910390f35b60006100d2858784866104fc565b60007f000000000000000000000000000000000000000000000000000000000000000073ffffffffffffffffffffffffffffffffffffffff1663ec3eb22387876040518363ffffffff1660e01b815260040161012f929190610a47565b602060405180830381865afa15801561014c573d6000803e3d6000fd5b505050506040513d601f19601f820116820180604052508101906101709190610a85565b9050838161017e9190610ae1565b91505095945050505050565b7f000000000000000000000000000000000000000000000000000000000000000081565b60006101bc858830866104fc565b6101e7857f000000000000000000000000000000000000000000000000000000000000000085610654565b60007f000000000000000000000000000000000000000000000000000000000000000073ffffffffffffffffffffffffffffffffffffffff166358de350088876040518363ffffffff1660e01b8152600401610244929190610a47565b6040805180830381865afa158015610260573d6000803e3d6000fd5b505050506040513d601f19601f820116820180604052508101906102849190610b89565b91505060018160ff1614156103b55760006040518060a0016040528088610bb873c02aaa39b223fe8d0a0e5c4f27ead9083c756cc28a8d6040516020016102cf959493929190610c47565b60405160208183030381529060405281526020013373ffffffffffffffffffffffffffffffffffffffff1681526020014281526020018681526020018581525090507f000000000000000000000000000000000000000000000000000000000000000073ffffffffffffffffffffffffffffffffffffffff1663c04b8d59826040518263ffffffff1660e01b815260040161036a9190610dd3565b6020604051808303816000875af1158015610389573d6000803e3d6000fd5b505050506040513d601f19601f820116820180604052508101906103ad9190610a85565b9250506104f1565b60006040518061010001604052808873ffffffffffffffffffffffffffffffffffffffff1681526020018973ffffffffffffffffffffffffffffffffffffffff1681526020018762ffffff1681526020013373ffffffffffffffffffffffffffffffffffffffff168152602001428152602001868152602001858152602001600073ffffffffffffffffffffffffffffffffffffffff1681525090507f000000000000000000000000000000000000000000000000000000000000000073ffffffffffffffffffffffffffffffffffffffff1663414bf389826040518263ffffffff1660e01b81526004016104aa9190610eb5565b6020604051808303816000875af11580156104c9573d6000803e3d6000fd5b505050506040513d601f19601f820116820180604052508101906104ed9190610a85565b9250505b509695505050505050565b6000808573ffffffffffffffffffffffffffffffffffffffff166323b872dd60e01b86868660405160240161053393929190610ed1565b604051602081830303815290604052907bffffffffffffffffffffffffffffffffffffffffffffffffffffffff19166020820180517bffffffffffffffffffffffffffffffffffffffffffffffffffffffff838183161783525050505060405161059d9190610f44565b6000604051808303816000865af19150503d80600081146105da576040519150601f19603f3d011682016040523d82523d6000602084013e6105df565b606091505b509150915081801561060d575060008151148061060c57508080602001905181019061060b9190610f93565b5b5b61064c576040517f08c379a00000000000000000000000000000000000000000000000000000000081526004016106439061101d565b60405180910390fd5b505050505050565b6000808473ffffffffffffffffffffffffffffffffffffffff1663095ea7b360e01b858560405160240161068992919061103d565b604051602081830303815290604052907bffffffffffffffffffffffffffffffffffffffffffffffffffffffff19166020820180517bffffffffffffffffffffffffffffffffffffffffffffffffffffffff83818316178352505050506040516106f39190610f44565b6000604051808303816000865af19150503d8060008114610730576040519150601f19603f3d011682016040523d82523d6000602084013e610735565b606091505b509150915081801561076357506000815114806107625750808060200190518101906107619190610f93565b5b5b6107a2576040517f08c379a0000000000000000000000000000000000000000000000000000000008152600401610799906110b2565b60405180910390fd5b5050505050565b600080fd5b600073ffffffffffffffffffffffffffffffffffffffff82169050919050565b60006107d9826107ae565b9050919050565b6107e9816107ce565b81146107f457600080fd5b50565b600081359050610806816107e0565b92915050565b600062ffffff82169050919050565b6108248161080c565b811461082f57600080fd5b50565b6000813590506108418161081b565b92915050565b6000819050919050565b61085a81610847565b811461086557600080fd5b50565b60008135905061087781610851565b92915050565b600080600080600060a08688031215610899576108986107a9565b5b60006108a7888289016107f7565b95505060206108b8888289016107f7565b94505060406108c988828901610832565b93505060606108da88828901610868565b92505060806108eb888289016107f7565b9150509295509295909350565b61090181610847565b82525050565b600060208201905061091c60008301846108f8565b92915050565b6000819050919050565b600061094761094261093d846107ae565b610922565b6107ae565b9050919050565b60006109598261092c565b9050919050565b600061096b8261094e565b9050919050565b61097b81610960565b82525050565b60006020820190506109966000830184610972565b92915050565b60008060008060008060c087890312156109b9576109b86107a9565b5b60006109c789828a016107f7565b96505060206109d889828a016107f7565b95505060406109e989828a016107f7565b94505060606109fa89828a01610832565b9350506080610a0b89828a01610868565b92505060a0610a1c89828a01610868565b9150509295509295509295565b610a32816107ce565b82525050565b610a418161080c565b82525050565b6000604082019050610a5c6000830185610a29565b610a696020830184610a38565b9392505050565b600081519050610a7f81610851565b92915050565b600060208284031215610a9b57610a9a6107a9565b5b6000610aa984828501610a70565b91505092915050565b7f4e487b7100000000000000000000000000000000000000000000000000000000600052601160045260246000fd5b6000610aec82610847565b9150610af783610847565b9250817fffffffffffffffffffffffffffffffffffffffffffffffffffffffffffffffff0483118215151615610b3057610b2f610ab2565b5b828202905092915050565b600081519050610b4a816107e0565b92915050565b600060ff82169050919050565b610b6681610b50565b8114610b7157600080fd5b50565b600081519050610b8381610b5d565b92915050565b60008060408385031215610ba057610b9f6107a9565b5b6000610bae85828601610b3b565b9250506020610bbf85828601610b74565b9150509250929050565b60008160601b9050919050565b6000610be182610bc9565b9050919050565b6000610bf382610bd6565b9050919050565b610c0b610c06826107ce565b610be8565b82525050565b60008160e81b9050919050565b6000610c2982610c11565b9050919050565b610c41610c3c8261080c565b610c1e565b82525050565b6000610c538288610bfa565b601482019150610c638287610c30565b600382019150610c738286610bfa565b601482019150610c838285610c30565b600382019150610c938284610bfa565b6014820191508190509695505050505050565b600081519050919050565b600082825260208201905092915050565b60005b83811015610ce0578082015181840152602081019050610cc5565b83811115610cef576000848401525b50505050565b6000601f19601f8301169050919050565b6000610d1182610ca6565b610d1b8185610cb1565b9350610d2b818560208601610cc2565b610d3481610cf5565b840191505092915050565b610d48816107ce565b82525050565b610d5781610847565b82525050565b600060a0830160008301518482036000860152610d7a8282610d06565b9150506020830151610d8f6020860182610d3f565b506040830151610da26040860182610d4e565b506060830151610db56060860182610d4e565b506080830151610dc86080860182610d4e565b508091505092915050565b60006020820190508181036000830152610ded8184610d5d565b905092915050565b610dfe8161080c565b82525050565b610e0d816107ae565b82525050565b61010082016000820151610e2a6000850182610d3f565b506020820151610e3d6020850182610d3f565b506040820151610e506040850182610df5565b506060820151610e636060850182610d3f565b506080820151610e766080850182610d4e565b5060a0820151610e8960a0850182610d4e565b5060c0820151610e9c60c0850182610d4e565b5060e0820151610eaf60e0850182610e04565b50505050565b600061010082019050610ecb6000830184610e13565b92915050565b6000606082019050610ee66000830186610a29565b610ef36020830185610a29565b610f0060408301846108f8565b949350505050565b600081905092915050565b6000610f1e82610ca6565b610f288185610f08565b9350610f38818560208601610cc2565b80840191505092915050565b6000610f508284610f13565b915081905092915050565b60008115159050919050565b610f7081610f5b565b8114610f7b57600080fd5b50565b600081519050610f8d81610f67565b92915050565b600060208284031215610fa957610fa86107a9565b5b6000610fb784828501610f7e565b91505092915050565b600082825260208201905092915050565b7f5354460000000000000000000000000000000000000000000000000000000000600082015250565b6000611007600383610fc0565b915061101282610fd1565b602082019050919050565b6000602082019050818103600083015261103681610ffa565b9050919050565b60006040820190506110526000830185610a29565b61105f60208301846108f8565b9392505050565b7f5341000000000000000000000000000000000000000000000000000000000000600082015250565b600061109c600283610fc0565b91506110a782611066565b602082019050919050565b600060208201905081810360008301526110cb8161108f565b905091905056fea2646970667358221220095fe6d222c9dcf84c936d24b2268d326090128656dbe7fae30629645ce1fa0c64736f6c634300080b0033",
  "immutableReferences": {
    "4221": [
      {
        "length": 32,
        "start": 396
      },
      {
        "length": 32,
        "start": 450
      },
      {
        "length": 32,
        "start": 787
      },
      {
        "length": 32,
        "start": 1107
      }
    ],
    "4224": [
      {
        "length": 32,
        "start": 491
      }
    ],
    "4227": [
      {
        "length": 32,
        "start": 214
      }
    ]
  },
  "source": "// SPDX-License-Identifier: MIT\npragma solidity ^0.8.0; //solhint-disable compiler-fixed\npragma abicoder v2;\n\nimport \"@uniswap/v3-periphery/contracts/interfaces/ISwapRouter.sol\";\nimport \"@uniswap/v3-periphery/contracts/libraries/TransferHelper.sol\";\nimport \"./ancillary/IOracle.sol\";\nimport \"./ancillary/SwapOracle.sol\";\n\n\ncontract BeraSwapper {\n\n    ISwapRouter public immutable swapRouter;\n    IOracle private immutable oracle;\n    SwapOracle private immutable swapOracle;\n    address private constant WETH_ADDRESS = 0xC02aaA39b223FE8D0A0e5C4F27eAD9083C756Cc2;\n    uint24 private constant DAI_FEE = 3000;\n\n    constructor(ISwapRouter _swapRouter, IOracle _oracle, SwapOracle _swapOracle) { //solhint-disable func-visibility\n        swapRouter = _swapRouter;\n        oracle = _oracle;\n        swapOracle = _swapOracle;\n    }\n\n    // amount here refers to how much of the token shorted is passed back into the swapRouter\n    // used for both opening and closing positions\n    function _swapShort(\n        address user,\n        address tokenToShort, //what token is shorted //opposite on close\n        address tokenSupplied, //dai on open //opposite on close\n        uint24 poolFee,\n        uint amount,\n        uint amountOutMin) external returns(uint amountOut) {\n\n        TransferHelper.safeTransferFrom(tokenSupplied, user, address(this), amount);\n        TransferHelper.safeApprove(tokenSupplied, address(swapRouter), amount);\n\n        (, uint8 returnValue) = oracle.getPoolForTWAP(tokenToShort, poolFee);\n        if (returnValue == 1) {\n            ISwapRouter.ExactInputParams memory multiParams =\n            ISwapRouter.ExactInputParams({\n                path: abi.encodePacked(tokenSupplied, DAI_FEE, WETH_ADDRESS, poolFee, tokenToShort),\n                recipient: msg.sender,\n                deadline: block.timestamp, //solhint-disable not-rely-on-time\n                amountIn: amount,\n                amountOutMinimum: amountOutMin\n            });\n\n            // Executes the swap.\n            amountOut = swapRouter.exactInput(multiParams);\n          //don't judge me for using else it is readable >:(\n        } else {\n            ISwapRouter.ExactInputSingleParams memory params =\n            ISwapRouter.ExactInputSingleParams({\n                tokenIn: tokenSupplied,\n                tokenOut: tokenToShort,\n                fee: poolFee,\n                recipient: msg.sender, //refers to pool that calls function\n                deadline: block.timestamp, //solhint-disable not-rely-on-time\n                amountIn: amount, //amountToSend\n                amountOutMinimum: amountOutMin, //used to check price\n                sqrtPriceLimitX96: 0\n            });\n            //execute the swap\n            amountOut = swapRouter.exactInputSingle(params);\n        }\n    }\n\n    //PLACEHOLDER ---> TODO\n    function _supplyShort(\n        address user,\n        address tokenSupplied,\n        uint24 fee,\n        uint amount,\n        address associatedPool) external returns (uint amountOut) {\n        //transfer tokens to pool\n        TransferHelper.safeTransferFrom(tokenSupplied, user, address(associatedPool), amount);\n\n        uint tokenPrice = swapOracle.getSwapPrice(tokenSupplied, fee);\n        amountOut = tokenPrice * amount;\n    }\n\n}\n",
  "sourcePath": "/home/kevin/Code/solidity_projects/beraMarket/contracts/BeraSwapper.sol",
  "compiler": {
    "name": "solc",
    "version": "0.8.11+commit.d7f03943.Emscripten.clang"
  },
  "schemaVersion": "3.4.3",
  "updatedAt": "2022-01-15T15:37:29.665Z",
  "networkType": "ethereum",
  "devdoc": {
    "kind": "dev",
    "methods": {},
    "version": 1
  },
  "userdoc": {
    "kind": "user",
    "methods": {},
    "version": 1
  }
}