{
  "contractName": "BeraPositionManager",
  "abi": [
    {
      "inputs": [
        {
          "internalType": "contract BeraWrapper",
          "name": "_beraWrapper",
          "type": "address"
        }
      ],
      "stateMutability": "nonpayable",
      "type": "constructor"
    },
    {
      "anonymous": false,
      "inputs": [
        {
          "indexed": true,
          "internalType": "address",
          "name": "account",
          "type": "address"
        },
        {
          "indexed": true,
          "internalType": "address",
          "name": "operator",
          "type": "address"
        },
        {
          "indexed": false,
          "internalType": "bool",
          "name": "approved",
          "type": "bool"
        }
      ],
      "name": "ApprovalForAll",
      "type": "event"
    },
    {
      "anonymous": false,
      "inputs": [
        {
          "indexed": true,
          "internalType": "address",
          "name": "operator",
          "type": "address"
        },
        {
          "indexed": true,
          "internalType": "address",
          "name": "from",
          "type": "address"
        },
        {
          "indexed": true,
          "internalType": "address",
          "name": "to",
          "type": "address"
        },
        {
          "indexed": false,
          "internalType": "uint256[]",
          "name": "ids",
          "type": "uint256[]"
        },
        {
          "indexed": false,
          "internalType": "uint256[]",
          "name": "values",
          "type": "uint256[]"
        }
      ],
      "name": "TransferBatch",
      "type": "event"
    },
    {
      "anonymous": false,
      "inputs": [
        {
          "indexed": true,
          "internalType": "address",
          "name": "operator",
          "type": "address"
        },
        {
          "indexed": true,
          "internalType": "address",
          "name": "from",
          "type": "address"
        },
        {
          "indexed": true,
          "internalType": "address",
          "name": "to",
          "type": "address"
        },
        {
          "indexed": false,
          "internalType": "uint256",
          "name": "id",
          "type": "uint256"
        },
        {
          "indexed": false,
          "internalType": "uint256",
          "name": "value",
          "type": "uint256"
        }
      ],
      "name": "TransferSingle",
      "type": "event"
    },
    {
      "anonymous": false,
      "inputs": [
        {
          "indexed": false,
          "internalType": "string",
          "name": "value",
          "type": "string"
        },
        {
          "indexed": true,
          "internalType": "uint256",
          "name": "id",
          "type": "uint256"
        }
      ],
      "name": "URI",
      "type": "event"
    },
    {
      "inputs": [
        {
          "internalType": "address",
          "name": "account",
          "type": "address"
        },
        {
          "internalType": "uint256",
          "name": "id",
          "type": "uint256"
        }
      ],
      "name": "balanceOf",
      "outputs": [
        {
          "internalType": "uint256",
          "name": "",
          "type": "uint256"
        }
      ],
      "stateMutability": "view",
      "type": "function"
    },
    {
      "inputs": [
        {
          "internalType": "address[]",
          "name": "accounts",
          "type": "address[]"
        },
        {
          "internalType": "uint256[]",
          "name": "ids",
          "type": "uint256[]"
        }
      ],
      "name": "balanceOfBatch",
      "outputs": [
        {
          "internalType": "uint256[]",
          "name": "",
          "type": "uint256[]"
        }
      ],
      "stateMutability": "view",
      "type": "function"
    },
    {
      "inputs": [],
      "name": "beraWrapper",
      "outputs": [
        {
          "internalType": "contract BeraWrapper",
          "name": "",
          "type": "address"
        }
      ],
      "stateMutability": "view",
      "type": "function"
    },
    {
      "inputs": [
        {
          "internalType": "address",
          "name": "account",
          "type": "address"
        },
        {
          "internalType": "address",
          "name": "operator",
          "type": "address"
        }
      ],
      "name": "isApprovedForAll",
      "outputs": [
        {
          "internalType": "bool",
          "name": "",
          "type": "bool"
        }
      ],
      "stateMutability": "view",
      "type": "function"
    },
    {
      "inputs": [
        {
          "internalType": "address",
          "name": "from",
          "type": "address"
        },
        {
          "internalType": "address",
          "name": "to",
          "type": "address"
        },
        {
          "internalType": "uint256[]",
          "name": "ids",
          "type": "uint256[]"
        },
        {
          "internalType": "uint256[]",
          "name": "amounts",
          "type": "uint256[]"
        },
        {
          "internalType": "bytes",
          "name": "data",
          "type": "bytes"
        }
      ],
      "name": "safeBatchTransferFrom",
      "outputs": [],
      "stateMutability": "nonpayable",
      "type": "function"
    },
    {
      "inputs": [
        {
          "internalType": "address",
          "name": "operator",
          "type": "address"
        },
        {
          "internalType": "bool",
          "name": "approved",
          "type": "bool"
        }
      ],
      "name": "setApprovalForAll",
      "outputs": [],
      "stateMutability": "nonpayable",
      "type": "function"
    },
    {
      "inputs": [
        {
          "internalType": "bytes4",
          "name": "interfaceId",
          "type": "bytes4"
        }
      ],
      "name": "supportsInterface",
      "outputs": [
        {
          "internalType": "bool",
          "name": "",
          "type": "bool"
        }
      ],
      "stateMutability": "view",
      "type": "function"
    },
    {
      "inputs": [
        {
          "internalType": "uint256",
          "name": "",
          "type": "uint256"
        }
      ],
      "name": "uri",
      "outputs": [
        {
          "internalType": "string",
          "name": "",
          "type": "string"
        }
      ],
      "stateMutability": "view",
      "type": "function"
    },
    {
      "inputs": [
        {
          "internalType": "address",
          "name": "to",
          "type": "address"
        },
        {
          "internalType": "uint256",
          "name": "positionID",
          "type": "uint256"
        },
        {
          "internalType": "uint256",
          "name": "tokenNumber",
          "type": "uint256"
        }
      ],
      "name": "mint",
      "outputs": [],
      "stateMutability": "nonpayable",
      "type": "function"
    },
    {
      "inputs": [
        {
          "internalType": "address",
          "name": "from",
          "type": "address"
        },
        {
          "internalType": "address",
          "name": "to",
          "type": "address"
        },
        {
          "internalType": "uint256",
          "name": "id",
          "type": "uint256"
        },
        {
          "internalType": "uint256",
          "name": "amount",
          "type": "uint256"
        }
      ],
      "name": "safeTransferFrom",
      "outputs": [],
      "stateMutability": "nonpayable",
      "type": "function"
    },
    {
      "inputs": [
        {
          "internalType": "address",
          "name": "from",
          "type": "address"
        },
        {
          "internalType": "address",
          "name": "to",
          "type": "address"
        },
        {
          "internalType": "uint256",
          "name": "id",
          "type": "uint256"
        },
        {
          "internalType": "uint256",
          "name": "amount",
          "type": "uint256"
        },
        {
          "internalType": "bytes",
          "name": "data",
          "type": "bytes"
        }
      ],
      "name": "safeTransferFrom",
      "outputs": [],
      "stateMutability": "nonpayable",
      "type": "function"
    }
  ],
  "bytecode": "0x60806040523480156200001157600080fd5b5060405162002d6738038062002d678339818101604052810190620000379190620001eb565b604051806020016040528060008152506200005881620000a160201b60201c565b5080600360006101000a81548173ffffffffffffffffffffffffffffffffffffffff021916908373ffffffffffffffffffffffffffffffffffffffff1602179055505062000282565b8060029080519060200190620000b9929190620000bd565b5050565b828054620000cb906200024c565b90600052602060002090601f016020900481019282620000ef57600085556200013b565b82601f106200010a57805160ff19168380011785556200013b565b828001600101855582156200013b579182015b828111156200013a5782518255916020019190600101906200011d565b5b5090506200014a91906200014e565b5090565b5b80821115620001695760008160009055506001016200014f565b5090565b600080fd5b600073ffffffffffffffffffffffffffffffffffffffff82169050919050565b60006200019f8262000172565b9050919050565b6000620001b38262000192565b9050919050565b620001c581620001a6565b8114620001d157600080fd5b50565b600081519050620001e581620001ba565b92915050565b6000602082840312156200020457620002036200016d565b5b60006200021484828501620001d4565b91505092915050565b7f4e487b7100000000000000000000000000000000000000000000000000000000600052602260045260246000fd5b600060028204905060018216806200026557607f821691505b602082108114156200027c576200027b6200021d565b5b50919050565b612ad580620002926000396000f3fe608060405234801561001057600080fd5b50600436106100a85760003560e01c80632eb2c2d6116100715780632eb2c2d6146101755780634e1273f414610191578063a22cb465146101c1578063a29aa114146101dd578063e985e9c5146101fb578063f242432a1461022b576100a8565b8062fdd58e146100ad57806301ffc9a7146100dd5780630e89341c1461010d5780630febdd491461013d578063156e29f614610159575b600080fd5b6100c760048036038101906100c29190611697565b610247565b6040516100d491906116e6565b60405180910390f35b6100f760048036038101906100f29190611759565b610310565b60405161010491906117a1565b60405180910390f35b610127600480360381019061012291906117bc565b6103f2565b6040516101349190611882565b60405180910390f35b610157600480360381019061015291906118a4565b610486565b005b610173600480360381019061016e919061190b565b6104a8565b005b61018f600480360381019061018a9190611b5b565b610558565b005b6101ab60048036038101906101a69190611ced565b6105f9565b6040516101b89190611e23565b60405180910390f35b6101db60048036038101906101d69190611e71565b610712565b005b6101e5610893565b6040516101f29190611f10565b60405180910390f35b61021560048036038101906102109190611f2b565b6108b9565b60405161022291906117a1565b60405180910390f35b61024560048036038101906102409190611f6b565b61094d565b005b60008073ffffffffffffffffffffffffffffffffffffffff168373ffffffffffffffffffffffffffffffffffffffff1614156102b8576040517f08c379a00000000000000000000000000000000000000000000000000000000081526004016102af90612074565b60405180910390fd5b60008083815260200190815260200160002060008473ffffffffffffffffffffffffffffffffffffffff1673ffffffffffffffffffffffffffffffffffffffff16815260200190815260200160002054905092915050565b60007fd9b67a26000000000000000000000000000000000000000000000000000000007bffffffffffffffffffffffffffffffffffffffffffffffffffffffff1916827bffffffffffffffffffffffffffffffffffffffffffffffffffffffff191614806103db57507f0e89341c000000000000000000000000000000000000000000000000000000007bffffffffffffffffffffffffffffffffffffffffffffffffffffffff1916827bffffffffffffffffffffffffffffffffffffffffffffffffffffffff1916145b806103eb57506103ea826109ee565b5b9050919050565b606060028054610401906120c3565b80601f016020809104026020016040519081016040528092919081815260200182805461042d906120c3565b801561047a5780601f1061044f5761010080835404028352916020019161047a565b820191906000526020600020905b81548152906001019060200180831161045d57829003601f168201915b50505050509050919050565b6104a2848484846040518060200160405280600081525061094d565b50505050565b600360009054906101000a900473ffffffffffffffffffffffffffffffffffffffff1673ffffffffffffffffffffffffffffffffffffffff163373ffffffffffffffffffffffffffffffffffffffff1614610538576040517f08c379a000000000000000000000000000000000000000000000000000000000815260040161052f90612141565b60405180910390fd5b61055383838360405180602001604052806000815250610a58565b505050565b610560610bee565b73ffffffffffffffffffffffffffffffffffffffff168573ffffffffffffffffffffffffffffffffffffffff1614806105a657506105a5856105a0610bee565b6108b9565b5b6105e5576040517f08c379a00000000000000000000000000000000000000000000000000000000081526004016105dc906121d3565b60405180910390fd5b6105f28585858585610bf6565b5050505050565b6060815183511461063f576040517f08c379a000000000000000000000000000000000000000000000000000000000815260040161063690612265565b60405180910390fd5b6000835167ffffffffffffffff81111561065c5761065b611963565b5b60405190808252806020026020018201604052801561068a5781602001602082028036833780820191505090505b50905060005b8451811015610707576106d78582815181106106af576106ae612285565b5b60200260200101518583815181106106ca576106c9612285565b5b6020026020010151610247565b8282815181106106ea576106e9612285565b5b60200260200101818152505080610700906122e3565b9050610690565b508091505092915050565b8173ffffffffffffffffffffffffffffffffffffffff16610731610bee565b73ffffffffffffffffffffffffffffffffffffffff161415610788576040517f08c379a000000000000000000000000000000000000000000000000000000000815260040161077f9061239e565b60405180910390fd5b8060016000610795610bee565b73ffffffffffffffffffffffffffffffffffffffff1673ffffffffffffffffffffffffffffffffffffffff16815260200190815260200160002060008473ffffffffffffffffffffffffffffffffffffffff1673ffffffffffffffffffffffffffffffffffffffff16815260200190815260200160002060006101000a81548160ff0219169083151502179055508173ffffffffffffffffffffffffffffffffffffffff16610842610bee565b73ffffffffffffffffffffffffffffffffffffffff167f17307eab39ab6107e8899845ad3d59bd9653f200f220920489ca2b5937696c318360405161088791906117a1565b60405180910390a35050565b600360009054906101000a900473ffffffffffffffffffffffffffffffffffffffff1681565b6000600160008473ffffffffffffffffffffffffffffffffffffffff1673ffffffffffffffffffffffffffffffffffffffff16815260200190815260200160002060008373ffffffffffffffffffffffffffffffffffffffff1673ffffffffffffffffffffffffffffffffffffffff16815260200190815260200160002060009054906101000a900460ff16905092915050565b610955610bee565b73ffffffffffffffffffffffffffffffffffffffff168573ffffffffffffffffffffffffffffffffffffffff16148061099b575061099a85610995610bee565b6108b9565b5b6109da576040517f08c379a00000000000000000000000000000000000000000000000000000000081526004016109d190612430565b60405180910390fd5b6109e78585858585610f0a565b5050505050565b60007f01ffc9a7000000000000000000000000000000000000000000000000000000007bffffffffffffffffffffffffffffffffffffffffffffffffffffffff1916827bffffffffffffffffffffffffffffffffffffffffffffffffffffffff1916149050919050565b600073ffffffffffffffffffffffffffffffffffffffff168473ffffffffffffffffffffffffffffffffffffffff161415610ac8576040517f08c379a0000000000000000000000000000000000000000000000000000000008152600401610abf906124c2565b60405180910390fd5b6000610ad2610bee565b9050610af381600087610ae48861118c565b610aed8861118c565b87611206565b8260008086815260200190815260200160002060008773ffffffffffffffffffffffffffffffffffffffff1673ffffffffffffffffffffffffffffffffffffffff1681526020019081526020016000206000828254610b5291906124e2565b925050819055508473ffffffffffffffffffffffffffffffffffffffff16600073ffffffffffffffffffffffffffffffffffffffff168273ffffffffffffffffffffffffffffffffffffffff167fc3d58168c5ae7397731d063d5bbf3d657854427343f4c083240f7aacaa2d0f628787604051610bd0929190612538565b60405180910390a4610be78160008787878761120e565b5050505050565b600033905090565b8151835114610c3a576040517f08c379a0000000000000000000000000000000000000000000000000000000008152600401610c31906125d3565b60405180910390fd5b600073ffffffffffffffffffffffffffffffffffffffff168473ffffffffffffffffffffffffffffffffffffffff161415610caa576040517f08c379a0000000000000000000000000000000000000000000000000000000008152600401610ca190612665565b60405180910390fd5b6000610cb4610bee565b9050610cc4818787878787611206565b60005b8451811015610e75576000858281518110610ce557610ce4612285565b5b602002602001015190506000858381518110610d0457610d03612285565b5b60200260200101519050600080600084815260200190815260200160002060008b73ffffffffffffffffffffffffffffffffffffffff1673ffffffffffffffffffffffffffffffffffffffff16815260200190815260200160002054905081811015610da5576040517f08c379a0000000000000000000000000000000000000000000000000000000008152600401610d9c906126f7565b60405180910390fd5b81810360008085815260200190815260200160002060008c73ffffffffffffffffffffffffffffffffffffffff1673ffffffffffffffffffffffffffffffffffffffff168152602001908152602001600020819055508160008085815260200190815260200160002060008b73ffffffffffffffffffffffffffffffffffffffff1673ffffffffffffffffffffffffffffffffffffffff1681526020019081526020016000206000828254610e5a91906124e2565b9250508190555050505080610e6e906122e3565b9050610cc7565b508473ffffffffffffffffffffffffffffffffffffffff168673ffffffffffffffffffffffffffffffffffffffff168273ffffffffffffffffffffffffffffffffffffffff167f4a39dc06d4c0dbc64b70af90fd698a233a518aa5d07e595d983b8c0526c8f7fb8787604051610eec929190612717565b60405180910390a4610f028187878787876113f5565b505050505050565b600073ffffffffffffffffffffffffffffffffffffffff168473ffffffffffffffffffffffffffffffffffffffff161415610f7a576040517f08c379a0000000000000000000000000000000000000000000000000000000008152600401610f7190612665565b60405180910390fd5b6000610f84610bee565b9050610fa4818787610f958861118c565b610f9e8861118c565b87611206565b600080600086815260200190815260200160002060008873ffffffffffffffffffffffffffffffffffffffff1673ffffffffffffffffffffffffffffffffffffffff1681526020019081526020016000205490508381101561103b576040517f08c379a0000000000000000000000000000000000000000000000000000000008152600401611032906126f7565b60405180910390fd5b83810360008087815260200190815260200160002060008973ffffffffffffffffffffffffffffffffffffffff1673ffffffffffffffffffffffffffffffffffffffff168152602001908152602001600020819055508360008087815260200190815260200160002060008873ffffffffffffffffffffffffffffffffffffffff1673ffffffffffffffffffffffffffffffffffffffff16815260200190815260200160002060008282546110f091906124e2565b925050819055508573ffffffffffffffffffffffffffffffffffffffff168773ffffffffffffffffffffffffffffffffffffffff168373ffffffffffffffffffffffffffffffffffffffff167fc3d58168c5ae7397731d063d5bbf3d657854427343f4c083240f7aacaa2d0f62888860405161116d929190612538565b60405180910390a461118382888888888861120e565b50505050505050565b60606000600167ffffffffffffffff8111156111ab576111aa611963565b5b6040519080825280602002602001820160405280156111d95781602001602082028036833780820191505090505b50905082816000815181106111f1576111f0612285565b5b60200260200101818152505080915050919050565b505050505050565b61122d8473ffffffffffffffffffffffffffffffffffffffff166115dc565b156113ed578373ffffffffffffffffffffffffffffffffffffffff1663f23a6e6187878686866040518663ffffffff1660e01b81526004016112739594939291906127b2565b602060405180830381600087803b15801561128d57600080fd5b505af19250505080156112be57506040513d601f19601f820116820180604052508101906112bb9190612821565b60015b611364576112ca61285b565b806308c379a0141561132757506112df61287d565b806112ea5750611329565b806040517f08c379a000000000000000000000000000000000000000000000000000000000815260040161131e9190611882565b60405180910390fd5b505b6040517f08c379a000000000000000000000000000000000000000000000000000000000815260040161135b90612985565b60405180910390fd5b63f23a6e6160e01b7bffffffffffffffffffffffffffffffffffffffffffffffffffffffff1916817bffffffffffffffffffffffffffffffffffffffffffffffffffffffff1916146113eb576040517f08c379a00000000000000000000000000000000000000000000000000000000081526004016113e290612a17565b60405180910390fd5b505b505050505050565b6114148473ffffffffffffffffffffffffffffffffffffffff166115dc565b156115d4578373ffffffffffffffffffffffffffffffffffffffff1663bc197c8187878686866040518663ffffffff1660e01b815260040161145a959493929190612a37565b602060405180830381600087803b15801561147457600080fd5b505af19250505080156114a557506040513d601f19601f820116820180604052508101906114a29190612821565b60015b61154b576114b161285b565b806308c379a0141561150e57506114c661287d565b806114d15750611510565b806040517f08c379a00000000000000000000000000000000000000000000000000000000081526004016115059190611882565b60405180910390fd5b505b6040517f08c379a000000000000000000000000000000000000000000000000000000000815260040161154290612985565b60405180910390fd5b63bc197c8160e01b7bffffffffffffffffffffffffffffffffffffffffffffffffffffffff1916817bffffffffffffffffffffffffffffffffffffffffffffffffffffffff1916146115d2576040517f08c379a00000000000000000000000000000000000000000000000000000000081526004016115c990612a17565b60405180910390fd5b505b505050505050565b600080823b905060008111915050919050565b6000604051905090565b600080fd5b600080fd5b600073ffffffffffffffffffffffffffffffffffffffff82169050919050565b600061162e82611603565b9050919050565b61163e81611623565b811461164957600080fd5b50565b60008135905061165b81611635565b92915050565b6000819050919050565b61167481611661565b811461167f57600080fd5b50565b6000813590506116918161166b565b92915050565b600080604083850312156116ae576116ad6115f9565b5b60006116bc8582860161164c565b92505060206116cd85828601611682565b9150509250929050565b6116e081611661565b82525050565b60006020820190506116fb60008301846116d7565b92915050565b60007fffffffff0000000000000000000000000000000000000000000000000000000082169050919050565b61173681611701565b811461174157600080fd5b50565b6000813590506117538161172d565b92915050565b60006020828403121561176f5761176e6115f9565b5b600061177d84828501611744565b91505092915050565b60008115159050919050565b61179b81611786565b82525050565b60006020820190506117b66000830184611792565b92915050565b6000602082840312156117d2576117d16115f9565b5b60006117e084828501611682565b91505092915050565b600081519050919050565b600082825260208201905092915050565b60005b83811015611823578082015181840152602081019050611808565b83811115611832576000848401525b50505050565b6000601f19601f8301169050919050565b6000611854826117e9565b61185e81856117f4565b935061186e818560208601611805565b61187781611838565b840191505092915050565b6000602082019050818103600083015261189c8184611849565b905092915050565b600080600080608085870312156118be576118bd6115f9565b5b60006118cc8782880161164c565b94505060206118dd8782880161164c565b93505060406118ee87828801611682565b92505060606118ff87828801611682565b91505092959194509250565b600080600060608486031215611924576119236115f9565b5b60006119328682870161164c565b935050602061194386828701611682565b925050604061195486828701611682565b9150509250925092565b600080fd5b7f4e487b7100000000000000000000000000000000000000000000000000000000600052604160045260246000fd5b61199b82611838565b810181811067ffffffffffffffff821117156119ba576119b9611963565b5b80604052505050565b60006119cd6115ef565b90506119d98282611992565b919050565b600067ffffffffffffffff8211156119f9576119f8611963565b5b602082029050602081019050919050565b600080fd5b6000611a22611a1d846119de565b6119c3565b90508083825260208201905060208402830185811115611a4557611a44611a0a565b5b835b81811015611a6e5780611a5a8882611682565b845260208401935050602081019050611a47565b5050509392505050565b600082601f830112611a8d57611a8c61195e565b5b8135611a9d848260208601611a0f565b91505092915050565b600080fd5b600067ffffffffffffffff821115611ac657611ac5611963565b5b611acf82611838565b9050602081019050919050565b82818337600083830152505050565b6000611afe611af984611aab565b6119c3565b905082815260208101848484011115611b1a57611b19611aa6565b5b611b25848285611adc565b509392505050565b600082601f830112611b4257611b4161195e565b5b8135611b52848260208601611aeb565b91505092915050565b600080600080600060a08688031215611b7757611b766115f9565b5b6000611b858882890161164c565b9550506020611b968882890161164c565b945050604086013567ffffffffffffffff811115611bb757611bb66115fe565b5b611bc388828901611a78565b935050606086013567ffffffffffffffff811115611be457611be36115fe565b5b611bf088828901611a78565b925050608086013567ffffffffffffffff811115611c1157611c106115fe565b5b611c1d88828901611b2d565b9150509295509295909350565b600067ffffffffffffffff821115611c4557611c44611963565b5b602082029050602081019050919050565b6000611c69611c6484611c2a565b6119c3565b90508083825260208201905060208402830185811115611c8c57611c8b611a0a565b5b835b81811015611cb55780611ca1888261164c565b845260208401935050602081019050611c8e565b5050509392505050565b600082601f830112611cd457611cd361195e565b5b8135611ce4848260208601611c56565b91505092915050565b60008060408385031215611d0457611d036115f9565b5b600083013567ffffffffffffffff811115611d2257611d216115fe565b5b611d2e85828601611cbf565b925050602083013567ffffffffffffffff811115611d4f57611d4e6115fe565b5b611d5b85828601611a78565b9150509250929050565b600081519050919050565b600082825260208201905092915050565b6000819050602082019050919050565b611d9a81611661565b82525050565b6000611dac8383611d91565b60208301905092915050565b6000602082019050919050565b6000611dd082611d65565b611dda8185611d70565b9350611de583611d81565b8060005b83811015611e16578151611dfd8882611da0565b9750611e0883611db8565b925050600181019050611de9565b5085935050505092915050565b60006020820190508181036000830152611e3d8184611dc5565b905092915050565b611e4e81611786565b8114611e5957600080fd5b50565b600081359050611e6b81611e45565b92915050565b60008060408385031215611e8857611e876115f9565b5b6000611e968582860161164c565b9250506020611ea785828601611e5c565b9150509250929050565b6000819050919050565b6000611ed6611ed1611ecc84611603565b611eb1565b611603565b9050919050565b6000611ee882611ebb565b9050919050565b6000611efa82611edd565b9050919050565b611f0a81611eef565b82525050565b6000602082019050611f256000830184611f01565b92915050565b60008060408385031215611f4257611f416115f9565b5b6000611f508582860161164c565b9250506020611f618582860161164c565b9150509250929050565b600080600080600060a08688031215611f8757611f866115f9565b5b6000611f958882890161164c565b9550506020611fa68882890161164c565b9450506040611fb788828901611682565b9350506060611fc888828901611682565b925050608086013567ffffffffffffffff811115611fe957611fe86115fe565b5b611ff588828901611b2d565b9150509295509295909350565b7f455243313135353a2062616c616e636520717565727920666f7220746865207a60008201527f65726f2061646472657373000000000000000000000000000000000000000000602082015250565b600061205e602b836117f4565b915061206982612002565b604082019050919050565b6000602082019050818103600083015261208d81612051565b9050919050565b7f4e487b7100000000000000000000000000000000000000000000000000000000600052602260045260246000fd5b600060028204905060018216806120db57607f821691505b602082108114156120ef576120ee612094565b5b50919050565b7f6e6f7420696e2065636f73797374656d00000000000000000000000000000000600082015250565b600061212b6010836117f4565b9150612136826120f5565b602082019050919050565b6000602082019050818103600083015261215a8161211e565b9050919050565b7f455243313135353a207472616e736665722063616c6c6572206973206e6f742060008201527f6f776e6572206e6f7220617070726f7665640000000000000000000000000000602082015250565b60006121bd6032836117f4565b91506121c882612161565b604082019050919050565b600060208201905081810360008301526121ec816121b0565b9050919050565b7f455243313135353a206163636f756e747320616e6420696473206c656e67746860008201527f206d69736d617463680000000000000000000000000000000000000000000000602082015250565b600061224f6029836117f4565b915061225a826121f3565b604082019050919050565b6000602082019050818103600083015261227e81612242565b9050919050565b7f4e487b7100000000000000000000000000000000000000000000000000000000600052603260045260246000fd5b7f4e487b7100000000000000000000000000000000000000000000000000000000600052601160045260246000fd5b60006122ee82611661565b91507fffffffffffffffffffffffffffffffffffffffffffffffffffffffffffffffff821415612321576123206122b4565b5b600182019050919050565b7f455243313135353a2073657474696e6720617070726f76616c2073746174757360008201527f20666f722073656c660000000000000000000000000000000000000000000000602082015250565b60006123886029836117f4565b91506123938261232c565b604082019050919050565b600060208201905081810360008301526123b78161237b565b9050919050565b7f455243313135353a2063616c6c6572206973206e6f74206f776e6572206e6f7260008201527f20617070726f7665640000000000000000000000000000000000000000000000602082015250565b600061241a6029836117f4565b9150612425826123be565b604082019050919050565b600060208201905081810360008301526124498161240d565b9050919050565b7f455243313135353a206d696e7420746f20746865207a65726f2061646472657360008201527f7300000000000000000000000000000000000000000000000000000000000000602082015250565b60006124ac6021836117f4565b91506124b782612450565b604082019050919050565b600060208201905081810360008301526124db8161249f565b9050919050565b60006124ed82611661565b91506124f883611661565b9250827fffffffffffffffffffffffffffffffffffffffffffffffffffffffffffffffff0382111561252d5761252c6122b4565b5b828201905092915050565b600060408201905061254d60008301856116d7565b61255a60208301846116d7565b9392505050565b7f455243313135353a2069647320616e6420616d6f756e7473206c656e6774682060008201527f6d69736d61746368000000000000000000000000000000000000000000000000602082015250565b60006125bd6028836117f4565b91506125c882612561565b604082019050919050565b600060208201905081810360008301526125ec816125b0565b9050919050565b7f455243313135353a207472616e7366657220746f20746865207a65726f20616460008201527f6472657373000000000000000000000000000000000000000000000000000000602082015250565b600061264f6025836117f4565b915061265a826125f3565b604082019050919050565b6000602082019050818103600083015261267e81612642565b9050919050565b7f455243313135353a20696e73756666696369656e742062616c616e636520666f60008201527f72207472616e7366657200000000000000000000000000000000000000000000602082015250565b60006126e1602a836117f4565b91506126ec82612685565b604082019050919050565b60006020820190508181036000830152612710816126d4565b9050919050565b600060408201905081810360008301526127318185611dc5565b905081810360208301526127458184611dc5565b90509392505050565b61275781611623565b82525050565b600081519050919050565b600082825260208201905092915050565b60006127848261275d565b61278e8185612768565b935061279e818560208601611805565b6127a781611838565b840191505092915050565b600060a0820190506127c7600083018861274e565b6127d4602083018761274e565b6127e160408301866116d7565b6127ee60608301856116d7565b81810360808301526128008184612779565b90509695505050505050565b60008151905061281b8161172d565b92915050565b600060208284031215612837576128366115f9565b5b60006128458482850161280c565b91505092915050565b60008160e01c9050919050565b600060033d111561287a5760046000803e61287760005161284e565b90505b90565b600060443d101561288d57612910565b6128956115ef565b60043d036004823e80513d602482011167ffffffffffffffff821117156128bd575050612910565b808201805167ffffffffffffffff8111156128db5750505050612910565b80602083010160043d0385018111156128f8575050505050612910565b61290782602001850186611992565b82955050505050505b90565b7f455243313135353a207472616e7366657220746f206e6f6e204552433131353560008201527f526563656976657220696d706c656d656e746572000000000000000000000000602082015250565b600061296f6034836117f4565b915061297a82612913565b604082019050919050565b6000602082019050818103600083015261299e81612962565b9050919050565b7f455243313135353a204552433131353552656365697665722072656a6563746560008201527f6420746f6b656e73000000000000000000000000000000000000000000000000602082015250565b6000612a016028836117f4565b9150612a0c826129a5565b604082019050919050565b60006020820190508181036000830152612a30816129f4565b9050919050565b600060a082019050612a4c600083018861274e565b612a59602083018761274e565b8181036040830152612a6b8186611dc5565b90508181036060830152612a7f8185611dc5565b90508181036080830152612a938184612779565b9050969550505050505056fea2646970667358221220290b34d8b14849a60b94e1b8306056092c1e964428013e1a7b66a09ecb106b7264736f6c63430008090033",
  "immutableReferences": {},
  "source": "// SPDX-License-Identifier: MIT\npragma solidity ^0.8.0; //solhint-disable compiler-fixed\n\nimport \"@openzeppelin/contracts/token/ERC1155/ERC1155.sol\";\nimport \"./BeraWrapper.sol\";\n\n\ncontract BeraPositionManager is ERC1155 {\n\n    BeraWrapper public beraWrapper;\n\n    constructor(BeraWrapper _beraWrapper) ERC1155(\"\") { //solhint-disable func-visibility\n        beraWrapper = _beraWrapper;\n    }\n\n    function mint(address to, uint positionID, uint tokenNumber) external {\n        require(msg.sender == address(beraWrapper), \"not in ecosystem\");\n\n        _mint(to, positionID, tokenNumber, \"\");\n    }\n\n    function safeTransferFrom(address from, address to, uint256 id, uint256 amount) public {\n    //    require(msg.sender == beraWrapper.positionData[id].positionOwner, \"not the owner of the position\");\n\n        safeTransferFrom(from, to, id, amount, \"\");\n\n    }\n}\n",
  "sourcePath": "/home/kevin/Code/solidity_projects/beraMarket/contracts/BeraPositionManager.sol",
  "compiler": {
    "name": "solc",
    "version": "0.8.9+commit.e5eed63a.Emscripten.clang"
  },
  "schemaVersion": "3.4.3",
  "updatedAt": "2021-10-14T22:45:42.323Z",
  "devdoc": {
    "kind": "dev",
    "methods": {
      "balanceOf(address,uint256)": {
        "details": "See {IERC1155-balanceOf}. Requirements: - `account` cannot be the zero address."
      },
      "balanceOfBatch(address[],uint256[])": {
        "details": "See {IERC1155-balanceOfBatch}. Requirements: - `accounts` and `ids` must have the same length."
      },
      "isApprovedForAll(address,address)": {
        "details": "See {IERC1155-isApprovedForAll}."
      },
      "safeBatchTransferFrom(address,address,uint256[],uint256[],bytes)": {
        "details": "See {IERC1155-safeBatchTransferFrom}."
      },
      "safeTransferFrom(address,address,uint256,uint256,bytes)": {
        "details": "See {IERC1155-safeTransferFrom}."
      },
      "setApprovalForAll(address,bool)": {
        "details": "See {IERC1155-setApprovalForAll}."
      },
      "supportsInterface(bytes4)": {
        "details": "See {IERC165-supportsInterface}."
      },
      "uri(uint256)": {
        "details": "See {IERC1155MetadataURI-uri}. This implementation returns the same URI for *all* token types. It relies on the token type ID substitution mechanism https://eips.ethereum.org/EIPS/eip-1155#metadata[defined in the EIP]. Clients calling this function must replace the `\\{id\\}` substring with the actual token type ID."
      }
    },
    "version": 1
  },
  "userdoc": {
    "kind": "user",
    "methods": {},
    "version": 1
  }
}