{
  "contractName": "BeraRouter",
  "abi": [
    {
      "inputs": [
        {
          "internalType": "contract ISwapRouter",
          "name": "_swapRouter",
          "type": "address"
        },
        {
          "internalType": "contract BeraPoolStandardRisk",
          "name": "_beraPoolStandardRisk",
          "type": "address"
        },
        {
          "internalType": "contract BeraWrapper",
          "name": "_beraWrapper",
          "type": "address"
        },
        {
          "internalType": "contract BeraPool",
          "name": "_beraPool",
          "type": "address"
        }
      ],
      "stateMutability": "nonpayable",
      "type": "constructor"
    },
    {
      "inputs": [],
      "name": "CLOSING_FEE",
      "outputs": [
        {
          "internalType": "uint256",
          "name": "",
          "type": "uint256"
        }
      ],
      "stateMutability": "view",
      "type": "function"
    },
    {
      "inputs": [],
      "name": "OPEN_FEE",
      "outputs": [
        {
          "internalType": "uint256",
          "name": "",
          "type": "uint256"
        }
      ],
      "stateMutability": "view",
      "type": "function"
    },
    {
      "inputs": [],
      "name": "beraPool",
      "outputs": [
        {
          "internalType": "contract BeraPool",
          "name": "",
          "type": "address"
        }
      ],
      "stateMutability": "view",
      "type": "function"
    },
    {
      "inputs": [],
      "name": "beraPoolStandardRisk",
      "outputs": [
        {
          "internalType": "contract BeraPoolStandardRisk",
          "name": "",
          "type": "address"
        }
      ],
      "stateMutability": "view",
      "type": "function"
    },
    {
      "inputs": [],
      "name": "beraWrapper",
      "outputs": [
        {
          "internalType": "contract BeraWrapper",
          "name": "",
          "type": "address"
        }
      ],
      "stateMutability": "view",
      "type": "function"
    },
    {
      "inputs": [
        {
          "internalType": "address",
          "name": "",
          "type": "address"
        }
      ],
      "name": "entryPrice",
      "outputs": [
        {
          "internalType": "uint256",
          "name": "",
          "type": "uint256"
        }
      ],
      "stateMutability": "view",
      "type": "function"
    },
    {
      "inputs": [
        {
          "internalType": "address",
          "name": "",
          "type": "address"
        }
      ],
      "name": "inShort",
      "outputs": [
        {
          "internalType": "bool",
          "name": "",
          "type": "bool"
        }
      ],
      "stateMutability": "view",
      "type": "function"
    },
    {
      "inputs": [],
      "name": "owner",
      "outputs": [
        {
          "internalType": "address",
          "name": "",
          "type": "address"
        }
      ],
      "stateMutability": "view",
      "type": "function"
    },
    {
      "inputs": [
        {
          "internalType": "uint256",
          "name": "",
          "type": "uint256"
        }
      ],
      "name": "poolList",
      "outputs": [
        {
          "internalType": "address",
          "name": "",
          "type": "address"
        }
      ],
      "stateMutability": "view",
      "type": "function"
    },
    {
      "inputs": [],
      "name": "swapRouter",
      "outputs": [
        {
          "internalType": "contract ISwapRouter",
          "name": "",
          "type": "address"
        }
      ],
      "stateMutability": "view",
      "type": "function"
    },
    {
      "inputs": [
        {
          "internalType": "address",
          "name": "",
          "type": "address"
        }
      ],
      "name": "userCollateralBalance",
      "outputs": [
        {
          "internalType": "uint256",
          "name": "",
          "type": "uint256"
        }
      ],
      "stateMutability": "view",
      "type": "function"
    },
    {
      "inputs": [
        {
          "internalType": "uint256",
          "name": "amount",
          "type": "uint256"
        },
        {
          "internalType": "address",
          "name": "collateral",
          "type": "address"
        }
      ],
      "name": "depositCollateral",
      "outputs": [],
      "stateMutability": "nonpayable",
      "type": "function"
    },
    {
      "inputs": [
        {
          "internalType": "uint256",
          "name": "amount",
          "type": "uint256"
        },
        {
          "internalType": "address",
          "name": "collateral",
          "type": "address"
        }
      ],
      "name": "withdrawCollateral",
      "outputs": [],
      "stateMutability": "nonpayable",
      "type": "function"
    },
    {
      "inputs": [
        {
          "internalType": "uint256",
          "name": "amount",
          "type": "uint256"
        },
        {
          "internalType": "address",
          "name": "tokenToShort",
          "type": "address"
        },
        {
          "internalType": "uint24",
          "name": "poolFee",
          "type": "uint24"
        },
        {
          "internalType": "uint256",
          "name": "amountOutMin",
          "type": "uint256"
        },
        {
          "internalType": "uint256",
          "name": "collateralPercentageOfAccount",
          "type": "uint256"
        },
        {
          "internalType": "uint256",
          "name": "priceAtWrap",
          "type": "uint256"
        }
      ],
      "name": "swapAndShortStandard",
      "outputs": [
        {
          "internalType": "uint256",
          "name": "amountOut",
          "type": "uint256"
        }
      ],
      "stateMutability": "nonpayable",
      "type": "function"
    },
    {
      "inputs": [
        {
          "internalType": "address",
          "name": "user",
          "type": "address"
        },
        {
          "internalType": "address",
          "name": "tokenToClose",
          "type": "address"
        },
        {
          "internalType": "uint256",
          "name": "amount",
          "type": "uint256"
        },
        {
          "internalType": "uint256",
          "name": "priceAtClose",
          "type": "uint256"
        },
        {
          "internalType": "uint24",
          "name": "poolFee",
          "type": "uint24"
        },
        {
          "internalType": "uint256",
          "name": "amountOutMin",
          "type": "uint256"
        },
        {
          "internalType": "uint256",
          "name": "_positionID",
          "type": "uint256"
        }
      ],
      "name": "swapAndCloseShort",
      "outputs": [
        {
          "internalType": "uint256",
          "name": "amountOut",
          "type": "uint256"
        }
      ],
      "stateMutability": "nonpayable",
      "type": "function"
    }
  ],
  "bytecode": "0x60806040523480156200001157600080fd5b5060405162002c8538038062002c858339818101604052810190620000379190620002d3565b33600960006101000a81548173ffffffffffffffffffffffffffffffffffffffff021916908373ffffffffffffffffffffffffffffffffffffffff16021790555083600560006101000a81548173ffffffffffffffffffffffffffffffffffffffff021916908373ffffffffffffffffffffffffffffffffffffffff16021790555082600660006101000a81548173ffffffffffffffffffffffffffffffffffffffff021916908373ffffffffffffffffffffffffffffffffffffffff16021790555081600760006101000a81548173ffffffffffffffffffffffffffffffffffffffff021916908373ffffffffffffffffffffffffffffffffffffffff16021790555080600860006101000a81548173ffffffffffffffffffffffffffffffffffffffff021916908373ffffffffffffffffffffffffffffffffffffffff1602179055505050505062000345565b600080fd5b600073ffffffffffffffffffffffffffffffffffffffff82169050919050565b6000620001b8826200018b565b9050919050565b6000620001cc82620001ab565b9050919050565b620001de81620001bf565b8114620001ea57600080fd5b50565b600081519050620001fe81620001d3565b92915050565b60006200021182620001ab565b9050919050565b620002238162000204565b81146200022f57600080fd5b50565b600081519050620002438162000218565b92915050565b60006200025682620001ab565b9050919050565b620002688162000249565b81146200027457600080fd5b50565b60008151905062000288816200025d565b92915050565b60006200029b82620001ab565b9050919050565b620002ad816200028e565b8114620002b957600080fd5b50565b600081519050620002cd81620002a2565b92915050565b60008060008060808587031215620002f057620002ef62000186565b5b60006200030087828801620001ed565b9450506020620003138782880162000232565b9350506040620003268782880162000277565b92505060606200033987828801620002bc565b91505092959194509250565b61293080620003556000396000f3fe608060405234801561001057600080fd5b50600436106100f55760003560e01c806396d2e4b411610097578063be3d217111610066578063be3d217114610288578063c31c9c07146102a6578063e5f7c60c146102c4578063f855e5b5146102f4576100f5565b806396d2e4b4146101fe578063a29aa1141461021c578063b5af30621461023a578063bbd4d3e31461026a576100f5565b8063481fef8a116100d3578063481fef8a146101645780635b6a777e146101805780636c528a74146101b05780638da5cb5b146101e0576100f5565b80630af504cc146100fa5780632a48235b146101165780632bcbeece14610146575b600080fd5b610114600480360381019061010f9190611a18565b610324565b005b610130600480360381019061012b9190611a58565b6105be565b60405161013d9190611a94565b60405180910390f35b61014e6105fd565b60405161015b9190611b0e565b60405180910390f35b61017e60048036038101906101799190611a18565b610623565b005b61019a60048036038101906101959190611b29565b6108a3565b6040516101a79190611b71565b60405180910390f35b6101ca60048036038101906101c59190611b29565b6108c3565b6040516101d79190611b9b565b60405180910390f35b6101e86108db565b6040516101f59190611a94565b60405180910390f35b610206610901565b6040516102139190611bd7565b60405180910390f35b610224610927565b6040516102319190611c13565b60405180910390f35b610254600480360381019061024f9190611b29565b61094d565b6040516102619190611b9b565b60405180910390f35b610272610965565b60405161027f9190611b9b565b60405180910390f35b61029061096a565b60405161029d9190611b9b565b60405180910390f35b6102ae61096f565b6040516102bb9190611c4f565b60405180910390f35b6102de60048036038101906102d99190611ca5565b610995565b6040516102eb9190611b9b565b60405180910390f35b61030e60048036038101906103099190611d32565b610e4b565b60405161031b9190611b9b565b60405180910390f35b6000803373ffffffffffffffffffffffffffffffffffffffff1673ffffffffffffffffffffffffffffffffffffffff168152602001908152602001600020548211156103a5576040517f08c379a000000000000000000000000000000000000000000000000000000000815260040161039c90611e57565b60405180910390fd5b60001515600260003373ffffffffffffffffffffffffffffffffffffffff1673ffffffffffffffffffffffffffffffffffffffff16815260200190815260200160002060009054906101000a900460ff16151514610438576040517f08c379a000000000000000000000000000000000000000000000000000000000815260040161042f90611ee9565b60405180910390fd5b816000803373ffffffffffffffffffffffffffffffffffffffff1673ffffffffffffffffffffffffffffffffffffffff16815260200190815260200160002060008282546104869190611f38565b9250508190555060008060003373ffffffffffffffffffffffffffffffffffffffff1673ffffffffffffffffffffffffffffffffffffffff168152602001908152602001600020541161052c576000600360003373ffffffffffffffffffffffffffffffffffffffff1673ffffffffffffffffffffffffffffffffffffffff16815260200190815260200160002060006101000a81548160ff0219169083151502179055505b8073ffffffffffffffffffffffffffffffffffffffff1663a9059cbb33846040518363ffffffff1660e01b8152600401610567929190611f6c565b602060405180830381600087803b15801561058157600080fd5b505af1158015610595573d6000803e3d6000fd5b505050506040513d601f19601f820116820180604052508101906105b99190611fc1565b505050565b600481815481106105ce57600080fd5b906000526020600020016000915054906101000a900473ffffffffffffffffffffffffffffffffffffffff1681565b600660009054906101000a900473ffffffffffffffffffffffffffffffffffffffff1681565b736b175474e89094c44da98b954eedeac495271d0f73ffffffffffffffffffffffffffffffffffffffff168173ffffffffffffffffffffffffffffffffffffffff16146106a5576040517f08c379a000000000000000000000000000000000000000000000000000000000815260040161069c9061203a565b60405180910390fd5b816000803373ffffffffffffffffffffffffffffffffffffffff1673ffffffffffffffffffffffffffffffffffffffff16815260200190815260200160002060008282546106f3919061205a565b9250508190555060001515600360003373ffffffffffffffffffffffffffffffffffffffff1673ffffffffffffffffffffffffffffffffffffffff16815260200190815260200160002060009054906101000a900460ff161515141561080f576004339080600181540180825580915050600190039060005260206000200160009091909190916101000a81548173ffffffffffffffffffffffffffffffffffffffff021916908373ffffffffffffffffffffffffffffffffffffffff1602179055506001600360003373ffffffffffffffffffffffffffffffffffffffff1673ffffffffffffffffffffffffffffffffffffffff16815260200190815260200160002060006101000a81548160ff0219169083151502179055505b8073ffffffffffffffffffffffffffffffffffffffff166323b872dd3330856040518463ffffffff1660e01b815260040161084c939291906120b0565b602060405180830381600087803b15801561086657600080fd5b505af115801561087a573d6000803e3d6000fd5b505050506040513d601f19601f8201168201806040525081019061089e9190611fc1565b505050565b60026020528060005260406000206000915054906101000a900460ff1681565b60016020528060005260406000206000915090505481565b600960009054906101000a900473ffffffffffffffffffffffffffffffffffffffff1681565b600860009054906101000a900473ffffffffffffffffffffffffffffffffffffffff1681565b600760009054906101000a900473ffffffffffffffffffffffffffffffffffffffff1681565b60006020528060005260406000206000915090505481565b600581565b600581565b600560009054906101000a900473ffffffffffffffffffffffffffffffffffffffff1681565b60008060003373ffffffffffffffffffffffffffffffffffffffff1673ffffffffffffffffffffffffffffffffffffffff16815260200190815260200160002054871115610a18576040517f08c379a0000000000000000000000000000000000000000000000000000000008152600401610a0f90612133565b60405180910390fd5b6064831115610a5c576040517f08c379a0000000000000000000000000000000000000000000000000000000008152600401610a53906121c5565b60405180910390fd5b600060648489610a6c91906121e5565b610a76919061226e565b905060008189610a869190611f38565b9050610aa8736b175474e89094c44da98b954eedeac495271d0f33308c611264565b610ae9736b175474e89094c44da98b954eedeac495271d0f600560009054906101000a900473ffffffffffffffffffffffffffffffffffffffff168b6113bc565b6000604051806101000160405280736b175474e89094c44da98b954eedeac495271d0f73ffffffffffffffffffffffffffffffffffffffff1681526020018a73ffffffffffffffffffffffffffffffffffffffff1681526020018962ffffff1681526020013373ffffffffffffffffffffffffffffffffffffffff168152602001428152602001848152602001888152602001600073ffffffffffffffffffffffffffffffffffffffff168152509050600560009054906101000a900473ffffffffffffffffffffffffffffffffffffffff1673ffffffffffffffffffffffffffffffffffffffff1663414bf389826040518263ffffffff1660e01b8152600401610bf4919061237d565b602060405180830381600087803b158015610c0e57600080fd5b505af1158015610c22573d6000803e3d6000fd5b505050506040513d601f19601f82011682018060405250810190610c4691906123ae565b9350600660009054906101000a900473ffffffffffffffffffffffffffffffffffffffff1673ffffffffffffffffffffffffffffffffffffffff16634c992506338b888c898d6040518763ffffffff1660e01b8152600401610cad969594939291906123ea565b602060405180830381600087803b158015610cc757600080fd5b505af1158015610cdb573d6000803e3d6000fd5b505050506040513d601f19601f82011682018060405250810190610cff91906123ae565b5084600160003373ffffffffffffffffffffffffffffffffffffffff1673ffffffffffffffffffffffffffffffffffffffff168152602001908152602001600020819055506001600260003373ffffffffffffffffffffffffffffffffffffffff1673ffffffffffffffffffffffffffffffffffffffff16815260200190815260200160002060006101000a81548160ff021916908315150217905550736b175474e89094c44da98b954eedeac495271d0f73ffffffffffffffffffffffffffffffffffffffff1663a9059cbb33846040518363ffffffff1660e01b8152600401610deb929190611f6c565b602060405180830381600087803b158015610e0557600080fd5b505af1158015610e19573d6000803e3d6000fd5b505050506040513d601f19601f82011682018060405250810190610e3d9190611fc1565b505050509695505050505050565b6000600760009054906101000a900473ffffffffffffffffffffffffffffffffffffffff1673ffffffffffffffffffffffffffffffffffffffff1663b9e17b7689846040518363ffffffff1660e01b8152600401610eaa929190611f6c565b600060405180830381600087803b158015610ec457600080fd5b505af1158015610ed8573d6000803e3d6000fd5b50505050736b175474e89094c44da98b954eedeac495271d0f73ffffffffffffffffffffffffffffffffffffffff1663a9059cbb33886040518363ffffffff1660e01b8152600401610f2b929190611f6c565b602060405180830381600087803b158015610f4557600080fd5b505af1158015610f59573d6000803e3d6000fd5b505050506040513d601f19601f82011682018060405250810190610f7d9190611fc1565b50610f9e736b175474e89094c44da98b954eedeac495271d0f333089611264565b610fdf736b175474e89094c44da98b954eedeac495271d0f600560009054906101000a900473ffffffffffffffffffffffffffffffffffffffff16886113bc565b6000604051806101000160405280736b175474e89094c44da98b954eedeac495271d0f73ffffffffffffffffffffffffffffffffffffffff1681526020018973ffffffffffffffffffffffffffffffffffffffff1681526020018662ffffff1681526020013373ffffffffffffffffffffffffffffffffffffffff168152602001428152602001888152602001858152602001600073ffffffffffffffffffffffffffffffffffffffff168152509050600560009054906101000a900473ffffffffffffffffffffffffffffffffffffffff1673ffffffffffffffffffffffffffffffffffffffff1663414bf389826040518263ffffffff1660e01b81526004016110ea919061237d565b602060405180830381600087803b15801561110457600080fd5b505af1158015611118573d6000803e3d6000fd5b505050506040513d601f19601f8201168201806040525081019061113c91906123ae565b9150600660009054906101000a900473ffffffffffffffffffffffffffffffffffffffff1673ffffffffffffffffffffffffffffffffffffffff1663db8a027d338a858a8a8a6040518763ffffffff1660e01b81526004016111a39695949392919061244b565b602060405180830381600087803b1580156111bd57600080fd5b505af11580156111d1573d6000803e3d6000fd5b505050506040513d601f19601f820116820180604052508101906111f591906123ae565b506112003387611511565b6000600260003373ffffffffffffffffffffffffffffffffffffffff1673ffffffffffffffffffffffffffffffffffffffff16815260200190815260200160002060006101000a81548160ff02191690831515021790555050979650505050505050565b6000808573ffffffffffffffffffffffffffffffffffffffff166323b872dd60e01b86868660405160240161129b939291906120b0565b604051602081830303815290604052907bffffffffffffffffffffffffffffffffffffffffffffffffffffffff19166020820180517bffffffffffffffffffffffffffffffffffffffffffffffffffffffff83818316178352505050506040516113059190612526565b6000604051808303816000865af19150503d8060008114611342576040519150601f19603f3d011682016040523d82523d6000602084013e611347565b606091505b509150915081801561137557506000815114806113745750808060200190518101906113739190611fc1565b5b5b6113b4576040517f08c379a00000000000000000000000000000000000000000000000000000000081526004016113ab90612589565b60405180910390fd5b505050505050565b6000808473ffffffffffffffffffffffffffffffffffffffff1663095ea7b360e01b85856040516024016113f1929190611f6c565b604051602081830303815290604052907bffffffffffffffffffffffffffffffffffffffffffffffffffffffff19166020820180517bffffffffffffffffffffffffffffffffffffffffffffffffffffffff838183161783525050505060405161145b9190612526565b6000604051808303816000865af19150503d8060008114611498576040519150601f19603f3d011682016040523d82523d6000602084013e61149d565b606091505b50915091508180156114cb57506000815114806114ca5750808060200190518101906114c99190611fc1565b5b5b61150a576040517f08c379a0000000000000000000000000000000000000000000000000000000008152600401611501906125f5565b60405180910390fd5b5050505050565b600081600160008573ffffffffffffffffffffffffffffffffffffffff1673ffffffffffffffffffffffffffffffffffffffff1681526020019081526020016000205461155e919061261f565b905060008113156115d657670de0b6b3a76400008161157d91906121e5565b6000808573ffffffffffffffffffffffffffffffffffffffff1673ffffffffffffffffffffffffffffffffffffffff16815260200190815260200160002060008282546115ca919061205a565b92505081905550611786565b600082600160008673ffffffffffffffffffffffffffffffffffffffff1673ffffffffffffffffffffffffffffffffffffffff16815260200190815260200160002054611623919061261f565b905060007fffffffffffffffffffffffffffffffffffffffffffffffffffffffffffffffff8261165391906126b3565b90506000808673ffffffffffffffffffffffffffffffffffffffff1673ffffffffffffffffffffffffffffffffffffffff168152602001908152602001600020548111156116d6576040517f08c379a00000000000000000000000000000000000000000000000000000000081526004016116cd90612862565b60405180910390fd5b60008060008773ffffffffffffffffffffffffffffffffffffffff1673ffffffffffffffffffffffffffffffffffffffff16815260200190815260200160002054826117229190611f38565b905061172d8161178b565b816000808873ffffffffffffffffffffffffffffffffffffffff1673ffffffffffffffffffffffffffffffffffffffff168152602001908152602001600020600082825461177b9190611f38565b925050819055505050505b505050565b60005b60048054905081101561197b576000736b175474e89094c44da98b954eedeac495271d0f73ffffffffffffffffffffffffffffffffffffffff166370a08231306040518263ffffffff1660e01b81526004016117ea9190611a94565b60206040518083038186803b15801561180257600080fd5b505afa158015611816573d6000803e3d6000fd5b505050506040513d601f19601f8201168201806040525081019061183a91906123ae565b6000806004858154811061185157611850612882565b5b9060005260206000200160009054906101000a900473ffffffffffffffffffffffffffffffffffffffff1673ffffffffffffffffffffffffffffffffffffffff1673ffffffffffffffffffffffffffffffffffffffff168152602001908152602001600020546118c1919061226e565b9050600083826118d191906121e5565b905080600080600486815481106118eb576118ea612882565b5b9060005260206000200160009054906101000a900473ffffffffffffffffffffffffffffffffffffffff1673ffffffffffffffffffffffffffffffffffffffff1673ffffffffffffffffffffffffffffffffffffffff168152602001908152602001600020600082825461195f919061205a565b9250508190555050508080611973906128b1565b91505061178e565b5050565b600080fd5b6000819050919050565b61199781611984565b81146119a257600080fd5b50565b6000813590506119b48161198e565b92915050565b600073ffffffffffffffffffffffffffffffffffffffff82169050919050565b60006119e5826119ba565b9050919050565b6119f5816119da565b8114611a0057600080fd5b50565b600081359050611a12816119ec565b92915050565b60008060408385031215611a2f57611a2e61197f565b5b6000611a3d858286016119a5565b9250506020611a4e85828601611a03565b9150509250929050565b600060208284031215611a6e57611a6d61197f565b5b6000611a7c848285016119a5565b91505092915050565b611a8e816119da565b82525050565b6000602082019050611aa96000830184611a85565b92915050565b6000819050919050565b6000611ad4611acf611aca846119ba565b611aaf565b6119ba565b9050919050565b6000611ae682611ab9565b9050919050565b6000611af882611adb565b9050919050565b611b0881611aed565b82525050565b6000602082019050611b236000830184611aff565b92915050565b600060208284031215611b3f57611b3e61197f565b5b6000611b4d84828501611a03565b91505092915050565b60008115159050919050565b611b6b81611b56565b82525050565b6000602082019050611b866000830184611b62565b92915050565b611b9581611984565b82525050565b6000602082019050611bb06000830184611b8c565b92915050565b6000611bc182611adb565b9050919050565b611bd181611bb6565b82525050565b6000602082019050611bec6000830184611bc8565b92915050565b6000611bfd82611adb565b9050919050565b611c0d81611bf2565b82525050565b6000602082019050611c286000830184611c04565b92915050565b6000611c3982611adb565b9050919050565b611c4981611c2e565b82525050565b6000602082019050611c646000830184611c40565b92915050565b600062ffffff82169050919050565b611c8281611c6a565b8114611c8d57600080fd5b50565b600081359050611c9f81611c79565b92915050565b60008060008060008060c08789031215611cc257611cc161197f565b5b6000611cd089828a016119a5565b9650506020611ce189828a01611a03565b9550506040611cf289828a01611c90565b9450506060611d0389828a016119a5565b9350506080611d1489828a016119a5565b92505060a0611d2589828a016119a5565b9150509295509295509295565b600080600080600080600060e0888a031215611d5157611d5061197f565b5b6000611d5f8a828b01611a03565b9750506020611d708a828b01611a03565b9650506040611d818a828b016119a5565b9550506060611d928a828b016119a5565b9450506080611da38a828b01611c90565b93505060a0611db48a828b016119a5565b92505060c0611dc58a828b016119a5565b91505092959891949750929550565b600082825260208201905092915050565b7f434f4c4c41544552414c3a20747279696e6720746f207769746864726177206d60008201527f6f726520636f6c6c61746572616c207468616e206465706f7369746564000000602082015250565b6000611e41603d83611dd4565b9150611e4c82611de5565b604082019050919050565b60006020820190508181036000830152611e7081611e34565b9050919050565b7f434f4c4c415445414c3a20636c6f736520796f75722063757272656e7420706f60008201527f736974696f6e206265666f726520747279696e6720746f207769746864726177602082015250565b6000611ed3604083611dd4565b9150611ede82611e77565b604082019050919050565b60006020820190508181036000830152611f0281611ec6565b9050919050565b7f4e487b7100000000000000000000000000000000000000000000000000000000600052601160045260246000fd5b6000611f4382611984565b9150611f4e83611984565b925082821015611f6157611f60611f09565b5b828203905092915050565b6000604082019050611f816000830185611a85565b611f8e6020830184611b8c565b9392505050565b611f9e81611b56565b8114611fa957600080fd5b50565b600081519050611fbb81611f95565b92915050565b600060208284031215611fd757611fd661197f565b5b6000611fe584828501611fac565b91505092915050565b7f504f4f4c3a204e6f742044414900000000000000000000000000000000000000600082015250565b6000612024600d83611dd4565b915061202f82611fee565b602082019050919050565b6000602082019050818103600083015261205381612017565b9050919050565b600061206582611984565b915061207083611984565b9250827fffffffffffffffffffffffffffffffffffffffffffffffffffffffffffffffff038211156120a5576120a4611f09565b5b828201905092915050565b60006060820190506120c56000830186611a85565b6120d26020830185611a85565b6120df6040830184611b8c565b949350505050565b7f535741503a206e6f7420656e6f75676820636f6c6c61746572616c0000000000600082015250565b600061211d601b83611dd4565b9150612128826120e7565b602082019050919050565b6000602082019050818103600083015261214c81612110565b9050919050565b7f535741503a2063616e6e6f7420757365206d6f7265207468616e20313030252060008201527f6f66206163636f756e7420746f2073686f727400000000000000000000000000602082015250565b60006121af603383611dd4565b91506121ba82612153565b604082019050919050565b600060208201905081810360008301526121de816121a2565b9050919050565b60006121f082611984565b91506121fb83611984565b9250817fffffffffffffffffffffffffffffffffffffffffffffffffffffffffffffffff048311821515161561223457612233611f09565b5b828202905092915050565b7f4e487b7100000000000000000000000000000000000000000000000000000000600052601260045260246000fd5b600061227982611984565b915061228483611984565b9250826122945761229361223f565b5b828204905092915050565b6122a8816119da565b82525050565b6122b781611c6a565b82525050565b6122c681611984565b82525050565b6122d5816119ba565b82525050565b610100820160008201516122f2600085018261229f565b506020820151612305602085018261229f565b50604082015161231860408501826122ae565b50606082015161232b606085018261229f565b50608082015161233e60808501826122bd565b5060a082015161235160a08501826122bd565b5060c082015161236460c08501826122bd565b5060e082015161237760e08501826122cc565b50505050565b60006101008201905061239360008301846122db565b92915050565b6000815190506123a88161198e565b92915050565b6000602082840312156123c4576123c361197f565b5b60006123d284828501612399565b91505092915050565b6123e481611c6a565b82525050565b600060c0820190506123ff6000830189611a85565b61240c6020830188611a85565b6124196040830187611b8c565b61242660608301866123db565b6124336080830185611b8c565b61244060a0830184611b8c565b979650505050505050565b600060c0820190506124606000830189611a85565b61246d6020830188611a85565b61247a6040830187611b8c565b6124876060830186611b8c565b61249460808301856123db565b6124a160a0830184611b8c565b979650505050505050565b600081519050919050565b600081905092915050565b60005b838110156124e05780820151818401526020810190506124c5565b838111156124ef576000848401525b50505050565b6000612500826124ac565b61250a81856124b7565b935061251a8185602086016124c2565b80840191505092915050565b600061253282846124f5565b915081905092915050565b7f5354460000000000000000000000000000000000000000000000000000000000600082015250565b6000612573600383611dd4565b915061257e8261253d565b602082019050919050565b600060208201905081810360008301526125a281612566565b9050919050565b7f5341000000000000000000000000000000000000000000000000000000000000600082015250565b60006125df600283611dd4565b91506125ea826125a9565b602082019050919050565b6000602082019050818103600083015261260e816125d2565b9050919050565b6000819050919050565b600061262a82612615565b915061263583612615565b9250827f8000000000000000000000000000000000000000000000000000000000000000018212600084121516156126705761266f611f09565b5b827f7fffffffffffffffffffffffffffffffffffffffffffffffffffffffffffffff0182136000841216156126a8576126a7611f09565b5b828203905092915050565b60006126be82612615565b91506126c983612615565b9250827f7fffffffffffffffffffffffffffffffffffffffffffffffffffffffffffffff048211600084136000841316161561270857612707611f09565b5b817f8000000000000000000000000000000000000000000000000000000000000000058312600084126000841316161561274557612744611f09565b5b827f8000000000000000000000000000000000000000000000000000000000000000058212600084136000841216161561278257612781611f09565b5b827f7fffffffffffffffffffffffffffffffffffffffffffffffffffffffffffffff05821260008412600084121616156127bf576127be611f09565b5b828202905092915050565b7f504e4c3a206c6f7373206578636565647320757365722062616c616e63652c2060008201527f6c69717569646174696f6e2066756e6374696f6e2077696c6c2062652063616c60208201527f6c65640000000000000000000000000000000000000000000000000000000000604082015250565b600061284c604383611dd4565b9150612857826127ca565b606082019050919050565b6000602082019050818103600083015261287b8161283f565b9050919050565b7f4e487b7100000000000000000000000000000000000000000000000000000000600052603260045260246000fd5b60006128bc82611984565b91507fffffffffffffffffffffffffffffffffffffffffffffffffffffffffffffffff8214156128ef576128ee611f09565b5b60018201905091905056fea2646970667358221220055a361d069e808fe9ce662c8ea404b63a53964c19473deee00b55970cd4e5c064736f6c63430008090033",
  "immutableReferences": {},
  "source": "// SPDX-License-Identifier: MIT\npragma solidity ^0.8.0; //solhint-disable compiler-fixed\npragma abicoder v2;\n\n//who would have guessed these github imports don't actually compile\nimport \"@openzeppelin/contracts/token/ERC20/IERC20.sol\";\nimport \"@uniswap/v3-periphery/contracts/interfaces/ISwapRouter.sol\";\nimport \"@uniswap/v3-periphery/contracts/libraries/TransferHelper.sol\";\nimport \"./BeraPoolStandardRisk.sol\";\nimport \"./BeraWrapper.sol\";\nimport \"./BeraPool.sol\";\n\n\n//the public interface for the protocol\ncontract BeraRouter {\n\n    mapping(address => uint) public userCollateralBalance;\n    mapping(address => uint) public entryPrice;\n    mapping(address => bool) public inShort;\n    mapping(address => bool) internal hasCollateral;\n    address[] public poolList;\n\n    address private constant DAI_ADDRESS = 0x6B175474E89094C44Da98b954EedeAC495271d0F;\n\n    //fees idk about yet we gonna see\n    uint public constant OPEN_FEE = 5;\n    uint public constant CLOSING_FEE = 5;\n\n    //uniswapV3 address router\n    //might have to change if implement 1inch api\n    ISwapRouter public  swapRouter;\n    BeraPoolStandardRisk public beraPoolStandardRisk;\n    BeraWrapper public beraWrapper;\n    BeraPool public beraPool;\n\n    address public owner;\n\n    constructor(ISwapRouter _swapRouter,\n        BeraPoolStandardRisk _beraPoolStandardRisk,\n        BeraWrapper _beraWrapper,\n        BeraPool _beraPool) { //solhint-disable func-visibility\n        owner = msg.sender;\n        swapRouter = _swapRouter;\n        beraPoolStandardRisk = _beraPoolStandardRisk;\n        beraWrapper = _beraWrapper;\n        beraPool = _beraPool;\n    }\n\n    function depositCollateral(uint amount, address collateral) external {\n        require(IERC20(collateral) == IERC20(DAI_ADDRESS), \"POOL: Not DAI\");\n\n        //used for withdrawl later\n        userCollateralBalance[msg.sender] += amount;\n\n        if (hasCollateral[msg.sender] == false) {\n            poolList.push(msg.sender);\n            hasCollateral[msg.sender] = true;\n        }\n\n        IERC20(collateral).transferFrom(msg.sender, address(this), amount);\n    }\n\n    function withdrawCollateral(uint amount, address collateral) external {\n        require(amount <= userCollateralBalance[msg.sender],\n            \"COLLATERAL: trying to withdraw more collateral than deposited\");\n        require(inShort[msg.sender] == false,\n            \"COLLATEAL: close your current position before trying to withdraw\");\n\n        //reset balance of user on withdraw\n        userCollateralBalance[msg.sender] -= amount;\n\n        if (userCollateralBalance[msg.sender] <= 0) {\n            hasCollateral[msg.sender] = false;\n        }\n\n        IERC20(collateral).transfer(msg.sender, amount);\n    }\n\n    // deposit collateral into user account before being allowed to short\n    function swapAndShortStandard(\n            uint amount,\n            address tokenToShort,\n            uint24 poolFee,\n            uint amountOutMin,\n            uint collateralPercentageOfAccount,\n            uint priceAtWrap)\n            external returns(uint amountOut) { //solhint-disable function-max-lines\n                require(amount <= userCollateralBalance[msg.sender], \"SWAP: not enough collateral\");\n                require(collateralPercentageOfAccount <= 100, \"SWAP: cannot use more than 100% of account to short\");\n\n                uint amountOfCollateral = amount * collateralPercentageOfAccount / 100;\n                uint leftover = amount - amountOfCollateral;\n\n                TransferHelper.safeTransferFrom(DAI_ADDRESS, msg.sender, address(this), amount);\n                TransferHelper.safeApprove(DAI_ADDRESS, address(swapRouter), amount);\n\n                ISwapRouter.ExactInputSingleParams memory params =\n                ISwapRouter.ExactInputSingleParams({\n                    tokenIn: DAI_ADDRESS,\n                    tokenOut: tokenToShort,\n                    fee: poolFee,\n                    recipient: msg.sender, //send back to user to execute next leg\n                    deadline: block.timestamp, //solhint-disable not-rely-on-time\n                    amountIn: amountOfCollateral,\n                    amountOutMinimum: amountOutMin,\n                    sqrtPriceLimitX96: 0\n                });\n\n                // execute the frist swap & sends to beraPool based on params\n                amountOut = swapRouter.exactInputSingle(params);\n\n                //execute the second swap and transfer funds to pool for holding\n                //have to update priceAtWrap, users can set this amount manually and drain funds lmfao\n                beraPoolStandardRisk.shortForUser(\n                    msg.sender,\n                    tokenToShort,\n                    priceAtWrap,\n                    poolFee,\n                    amountOut,\n                    amountOutMin\n                );\n\n                //update entry price mapping\n                entryPrice[msg.sender] = priceAtWrap;\n\n                //update whether address is in a position or not\n                inShort[msg.sender] = true;\n\n                //send remaining funds back to user\n                IERC20(DAI_ADDRESS).transfer(msg.sender, leftover);\n            }\n\n    function swapAndCloseShort(\n        address user,\n        address tokenToClose,\n        uint amount,\n        uint priceAtClose,\n        uint24 poolFee,\n        uint amountOutMin,\n        uint _positionID) external returns(uint amountOut) {\n        //unwrap and unlock position\n        beraWrapper.unwrapPosition(user, _positionID);\n\n        //send dai back to user\n        //needs check for amount\n        IERC20(DAI_ADDRESS).transfer(msg.sender, amount);\n\n        //we swap dai back to weth to close the trade\n        TransferHelper.safeTransferFrom(DAI_ADDRESS, msg.sender, address(this), amount);\n        TransferHelper.safeApprove(DAI_ADDRESS, address(swapRouter), amount);\n\n        ISwapRouter.ExactInputSingleParams memory params =\n        ISwapRouter.ExactInputSingleParams({\n            tokenIn: DAI_ADDRESS,\n            tokenOut: tokenToClose,\n            fee: poolFee,\n            recipient: msg.sender, //send tokens to user to execute next leg of trade\n            deadline: block.timestamp, //solhint-disable not-rely-on-time\n            amountIn: amount,\n            amountOutMinimum: amountOutMin,\n            sqrtPriceLimitX96: 0\n        });\n\n        //execute swap\n        amountOut = swapRouter.exactInputSingle(params);\n\n        //sell tokens back for DAI\n        beraPoolStandardRisk.closeShortForUser(\n            msg.sender,\n            tokenToClose,\n            amountOut, //how much tokenOut is being sent to swap back into dai (in this case weth)\n            priceAtClose,\n            poolFee,\n            amountOutMin\n        );\n\n        //calculate if the user made or lost money on the position\n        //also tranfers the profits to the user and distributes user losses amongst the pool\n        calculatePNL(msg.sender, priceAtClose);\n\n        //reset user short status\n        inShort[msg.sender] = false; //solhint-disable reentrancy\n    }\n\n    function distributeProfits(uint amountToDistribute) internal {\n        for (uint i = 0; i < poolList.length; i++) {\n            //update user collateral instead?\n            uint userPercent = (userCollateralBalance[poolList[i]] / IERC20(DAI_ADDRESS).balanceOf(address(this)));\n            //percentage will be out of 100 i.e 0.3% = 30 or < 30/100 >\n            uint percentToSendToUsers = userPercent * amountToDistribute;\n            userCollateralBalance[poolList[i]] += percentToSendToUsers;\n        }\n    }\n\n    function calculatePNL(address user, uint priceAtClose) internal {\n        int difference = int(entryPrice[user]) - int(priceAtClose);\n        if (difference > 0) {\n            //IERC20(DAI_ADDRESS).transfer(user, uint(difference)); //case where user makes money\n            userCollateralBalance[user] += (uint(difference) * 1e18);\n        } else {\n            int loss = int(entryPrice[user]) - int(priceAtClose); //case where user loses money\n            //make negative num postive\n            int userLoss = (loss * (-1));\n            require(uint(userLoss) <= userCollateralBalance[user],\n                \"PNL: loss exceeds user balance, liquidation function will be called\");\n            uint amountToDistribute = uint(userLoss) - userCollateralBalance[user];\n\n            //distribute remaining amongst pool holders\n            distributeProfits(amountToDistribute);\n\n            //update user collateral balance to reflect loss\n            //in this case it would be whoever is closing their short position\n            userCollateralBalance[user] -= uint(userLoss);\n        }\n    }\n\n\n\n\n\n\n}\n",
  "sourcePath": "/home/kevin/Code/solidity_projects/beraMarket/contracts/BeraRouter.sol",
  "compiler": {
    "name": "solc",
    "version": "0.8.9+commit.e5eed63a.Emscripten.clang"
  },
  "schemaVersion": "3.4.3",
  "updatedAt": "2021-10-26T12:10:49.346Z",
  "devdoc": {
    "kind": "dev",
    "methods": {},
    "version": 1
  },
  "userdoc": {
    "kind": "user",
    "methods": {},
    "version": 1
  }
}