{
  "contractName": "BeraPoolStandardRisk",
  "abi": [
    {
      "inputs": [
        {
          "internalType": "contract ISwapRouter",
          "name": "_swapRouter",
          "type": "address"
        },
        {
          "internalType": "contract BeraWrapper",
          "name": "_beraWrapper",
          "type": "address"
        },
        {
          "internalType": "contract TWAPOracle",
          "name": "_twapOracle",
          "type": "address"
        },
        {
          "internalType": "contract SwapOracle",
          "name": "_swapOracle",
          "type": "address"
        },
        {
          "internalType": "contract BeraSwapper",
          "name": "_beraSwapper",
          "type": "address"
        }
      ],
      "stateMutability": "nonpayable",
      "type": "constructor"
    },
    {
      "stateMutability": "payable",
      "type": "fallback"
    },
    {
      "inputs": [],
      "name": "beraSwapper",
      "outputs": [
        {
          "internalType": "contract BeraSwapper",
          "name": "",
          "type": "address"
        }
      ],
      "stateMutability": "view",
      "type": "function"
    },
    {
      "inputs": [],
      "name": "beraWrapper",
      "outputs": [
        {
          "internalType": "contract BeraWrapper",
          "name": "",
          "type": "address"
        }
      ],
      "stateMutability": "view",
      "type": "function"
    },
    {
      "inputs": [],
      "name": "globalRewards",
      "outputs": [
        {
          "internalType": "uint256",
          "name": "",
          "type": "uint256"
        }
      ],
      "stateMutability": "view",
      "type": "function"
    },
    {
      "inputs": [
        {
          "internalType": "address",
          "name": "",
          "type": "address"
        },
        {
          "internalType": "address",
          "name": "",
          "type": "address"
        },
        {
          "internalType": "uint256[]",
          "name": "",
          "type": "uint256[]"
        },
        {
          "internalType": "uint256[]",
          "name": "",
          "type": "uint256[]"
        },
        {
          "internalType": "bytes",
          "name": "",
          "type": "bytes"
        }
      ],
      "name": "onERC1155BatchReceived",
      "outputs": [
        {
          "internalType": "bytes4",
          "name": "",
          "type": "bytes4"
        }
      ],
      "stateMutability": "nonpayable",
      "type": "function"
    },
    {
      "inputs": [
        {
          "internalType": "address",
          "name": "",
          "type": "address"
        },
        {
          "internalType": "address",
          "name": "",
          "type": "address"
        },
        {
          "internalType": "uint256",
          "name": "",
          "type": "uint256"
        },
        {
          "internalType": "uint256",
          "name": "",
          "type": "uint256"
        },
        {
          "internalType": "bytes",
          "name": "",
          "type": "bytes"
        }
      ],
      "name": "onERC1155Received",
      "outputs": [
        {
          "internalType": "bytes4",
          "name": "",
          "type": "bytes4"
        }
      ],
      "stateMutability": "nonpayable",
      "type": "function"
    },
    {
      "inputs": [],
      "name": "owner",
      "outputs": [
        {
          "internalType": "address",
          "name": "",
          "type": "address"
        }
      ],
      "stateMutability": "view",
      "type": "function"
    },
    {
      "inputs": [],
      "name": "protocolOwnedLiquidity",
      "outputs": [
        {
          "internalType": "uint256",
          "name": "",
          "type": "uint256"
        }
      ],
      "stateMutability": "view",
      "type": "function"
    },
    {
      "inputs": [
        {
          "internalType": "bytes4",
          "name": "interfaceId",
          "type": "bytes4"
        }
      ],
      "name": "supportsInterface",
      "outputs": [
        {
          "internalType": "bool",
          "name": "",
          "type": "bool"
        }
      ],
      "stateMutability": "view",
      "type": "function"
    },
    {
      "inputs": [],
      "name": "swapOracle",
      "outputs": [
        {
          "internalType": "contract SwapOracle",
          "name": "",
          "type": "address"
        }
      ],
      "stateMutability": "view",
      "type": "function"
    },
    {
      "inputs": [],
      "name": "swapRouter",
      "outputs": [
        {
          "internalType": "contract ISwapRouter",
          "name": "",
          "type": "address"
        }
      ],
      "stateMutability": "view",
      "type": "function"
    },
    {
      "inputs": [
        {
          "internalType": "address",
          "name": "",
          "type": "address"
        }
      ],
      "name": "users",
      "outputs": [
        {
          "internalType": "uint256",
          "name": "userDepositBalance",
          "type": "uint256"
        },
        {
          "internalType": "uint256",
          "name": "lastClaimedRewards",
          "type": "uint256"
        },
        {
          "internalType": "uint256",
          "name": "userShortID",
          "type": "uint256"
        }
      ],
      "stateMutability": "view",
      "type": "function"
    },
    {
      "stateMutability": "payable",
      "type": "receive"
    },
    {
      "inputs": [
        {
          "internalType": "uint256",
          "name": "amount",
          "type": "uint256"
        },
        {
          "internalType": "address",
          "name": "collateral",
          "type": "address"
        }
      ],
      "name": "depositCollateral",
      "outputs": [],
      "stateMutability": "nonpayable",
      "type": "function"
    },
    {
      "inputs": [
        {
          "internalType": "uint256",
          "name": "amount",
          "type": "uint256"
        },
        {
          "internalType": "uint256",
          "name": "userShortID",
          "type": "uint256"
        }
      ],
      "name": "withdrawFromPool",
      "outputs": [],
      "stateMutability": "nonpayable",
      "type": "function"
    },
    {
      "inputs": [],
      "name": "claimRewards",
      "outputs": [],
      "stateMutability": "nonpayable",
      "type": "function"
    },
    {
      "inputs": [
        {
          "internalType": "uint256",
          "name": "amount",
          "type": "uint256"
        },
        {
          "internalType": "address",
          "name": "tokenToShort",
          "type": "address"
        },
        {
          "internalType": "uint24",
          "name": "poolFee",
          "type": "uint24"
        },
        {
          "internalType": "uint256",
          "name": "amountOutMin",
          "type": "uint256"
        }
      ],
      "name": "swapShort",
      "outputs": [],
      "stateMutability": "nonpayable",
      "type": "function"
    },
    {
      "inputs": [
        {
          "internalType": "address",
          "name": "userUnderwater",
          "type": "address"
        },
        {
          "internalType": "address",
          "name": "liquidator",
          "type": "address"
        },
        {
          "internalType": "uint256",
          "name": "shortID",
          "type": "uint256"
        }
      ],
      "name": "liquidateUser",
      "outputs": [],
      "stateMutability": "nonpayable",
      "type": "function"
    },
    {
      "inputs": [
        {
          "internalType": "address",
          "name": "user",
          "type": "address"
        },
        {
          "internalType": "uint256",
          "name": "shortID",
          "type": "uint256"
        }
      ],
      "name": "getLiquidator",
      "outputs": [
        {
          "internalType": "address",
          "name": "liquidator",
          "type": "address"
        }
      ],
      "stateMutability": "view",
      "type": "function"
    },
    {
      "inputs": [
        {
          "internalType": "address",
          "name": "user",
          "type": "address"
        }
      ],
      "name": "getTotalCollateral",
      "outputs": [
        {
          "internalType": "uint256",
          "name": "totalCollateral",
          "type": "uint256"
        }
      ],
      "stateMutability": "view",
      "type": "function"
    },
    {
      "inputs": [
        {
          "internalType": "address",
          "name": "user",
          "type": "address"
        }
      ],
      "name": "checkRewards",
      "outputs": [
        {
          "internalType": "uint256",
          "name": "profits",
          "type": "uint256"
        }
      ],
      "stateMutability": "view",
      "type": "function"
    },
    {
      "inputs": [],
      "name": "getGlobalRewards",
      "outputs": [
        {
          "internalType": "uint256",
          "name": "globals",
          "type": "uint256"
        }
      ],
      "stateMutability": "view",
      "type": "function"
    },
    {
      "inputs": [
        {
          "internalType": "address",
          "name": "user",
          "type": "address"
        },
        {
          "internalType": "uint256",
          "name": "shortID",
          "type": "uint256"
        }
      ],
      "name": "getUserShortBalance",
      "outputs": [
        {
          "internalType": "uint256",
          "name": "bal",
          "type": "uint256"
        }
      ],
      "stateMutability": "view",
      "type": "function"
    },
    {
      "inputs": [
        {
          "internalType": "address",
          "name": "user",
          "type": "address"
        },
        {
          "internalType": "uint256",
          "name": "shortID",
          "type": "uint256"
        }
      ],
      "name": "getUserEntryPrice",
      "outputs": [
        {
          "internalType": "uint256",
          "name": "entry",
          "type": "uint256"
        }
      ],
      "stateMutability": "view",
      "type": "function"
    },
    {
      "inputs": [
        {
          "internalType": "address",
          "name": "user",
          "type": "address"
        },
        {
          "internalType": "uint256",
          "name": "shortID",
          "type": "uint256"
        }
      ],
      "name": "getUserShortBool",
      "outputs": [
        {
          "internalType": "bool",
          "name": "isShort",
          "type": "bool"
        }
      ],
      "stateMutability": "view",
      "type": "function"
    },
    {
      "inputs": [
        {
          "internalType": "address",
          "name": "user",
          "type": "address"
        },
        {
          "internalType": "uint256",
          "name": "shortID",
          "type": "uint256"
        }
      ],
      "name": "getTokenAndFeeShortedByUser",
      "outputs": [
        {
          "internalType": "address",
          "name": "token",
          "type": "address"
        },
        {
          "internalType": "uint24",
          "name": "fee",
          "type": "uint24"
        }
      ],
      "stateMutability": "view",
      "type": "function"
    },
    {
      "inputs": [
        {
          "internalType": "address",
          "name": "user",
          "type": "address"
        },
        {
          "internalType": "uint256",
          "name": "userShortID",
          "type": "uint256"
        },
        {
          "internalType": "uint256",
          "name": "amountOutMin",
          "type": "uint256"
        }
      ],
      "name": "closeSwapShort",
      "outputs": [],
      "stateMutability": "nonpayable",
      "type": "function"
    }
  ],
  "bytecode": "0x60a06040523480156200001157600080fd5b50604051620034a9380380620034a983398181016040528101906200003791906200030b565b336000806101000a81548173ffffffffffffffffffffffffffffffffffffffff021916908373ffffffffffffffffffffffffffffffffffffffff1602179055508473ffffffffffffffffffffffffffffffffffffffff1660808173ffffffffffffffffffffffffffffffffffffffff168152505083600460006101000a81548173ffffffffffffffffffffffffffffffffffffffff021916908373ffffffffffffffffffffffffffffffffffffffff16021790555080600560006101000a81548173ffffffffffffffffffffffffffffffffffffffff021916908373ffffffffffffffffffffffffffffffffffffffff16021790555081600660006101000a81548173ffffffffffffffffffffffffffffffffffffffff021916908373ffffffffffffffffffffffffffffffffffffffff160217905550505050505062000393565b600080fd5b600073ffffffffffffffffffffffffffffffffffffffff82169050919050565b6000620001ab826200017e565b9050919050565b6000620001bf826200019e565b9050919050565b620001d181620001b2565b8114620001dd57600080fd5b50565b600081519050620001f181620001c6565b92915050565b600062000204826200019e565b9050919050565b6200021681620001f7565b81146200022257600080fd5b50565b60008151905062000236816200020b565b92915050565b600062000249826200019e565b9050919050565b6200025b816200023c565b81146200026757600080fd5b50565b6000815190506200027b8162000250565b92915050565b60006200028e826200019e565b9050919050565b620002a08162000281565b8114620002ac57600080fd5b50565b600081519050620002c08162000295565b92915050565b6000620002d3826200019e565b9050919050565b620002e581620002c6565b8114620002f157600080fd5b50565b6000815190506200030581620002da565b92915050565b600080600080600060a086880312156200032a576200032962000179565b5b60006200033a88828901620001e0565b95505060206200034d8882890162000225565b945050604062000360888289016200026a565b93505060606200037388828901620002af565b92505060806200038688828901620002f4565b9150509295509295909350565b6080516130fa620003af600039600061128901526130fa6000f3fe60806040526004361061016a5760003560e01c806380a0b0fc116100d1578063be9405f31161008a578063db6623e111610064578063db6623e114610582578063ef1b3166146105c0578063f23a6e61146105e9578063ffe28ca11461062657610171565b8063be9405f314610503578063c31c9c071461052e578063d8ea45c01461055957610171565b806380a0b0fc146103dd5780638da5cb5b14610408578063a29aa11414610433578063a87430ba1461045e578063ac0433dc1461049d578063bc197c81146104c657610171565b8063372500ab11610123578063372500ab146102bb5780633762e995146102d2578063481fef8a1461030f5780635e1691361461033857806360a98b80146103755780637423031e146103b257610171565b806301ffc9a714610173578063028bdf7c146101b0578063046ff0d3146101ed5780630775d9421461022a57806309d3e9c3146102555780630ea99f401461029257610171565b3661017157005b005b34801561017f57600080fd5b5061019a60048036038101906101959190611ff1565b610651565b6040516101a79190612039565b60405180910390f35b3480156101bc57600080fd5b506101d760048036038101906101d291906120e8565b6106cb565b6040516101e49190612039565b60405180910390f35b3480156101f957600080fd5b50610214600480360381019061020f9190612128565b610736565b6040516102219190612164565b60405180910390f35b34801561023657600080fd5b5061023f610748565b60405161024c91906121de565b60405180910390f35b34801561026157600080fd5b5061027c600480360381019061027791906120e8565b61076e565b6040516102899190612164565b60405180910390f35b34801561029e57600080fd5b506102b960048036038101906102b491906121f9565b6107cc565b005b3480156102c757600080fd5b506102d06107e4565b005b3480156102de57600080fd5b506102f960048036038101906102f491906120e8565b6107ef565b604051610306919061225b565b60405180910390f35b34801561031b57600080fd5b5061033660048036038101906103319190612276565b610870565b005b34801561034457600080fd5b5061035f600480360381019061035a91906120e8565b6109d0565b60405161036c9190612164565b60405180910390f35b34801561038157600080fd5b5061039c60048036038101906103979190612128565b610a2e565b6040516103a99190612164565b60405180910390f35b3480156103be57600080fd5b506103c7610af9565b6040516103d49190612164565b60405180910390f35b3480156103e957600080fd5b506103f2610aff565b6040516103ff9190612164565b60405180910390f35b34801561041457600080fd5b5061041d610b09565b60405161042a919061225b565b60405180910390f35b34801561043f57600080fd5b50610448610b2d565b60405161045591906122d7565b60405180910390f35b34801561046a57600080fd5b5061048560048036038101906104809190612128565b610b53565b604051610494939291906122f2565b60405180910390f35b3480156104a957600080fd5b506104c460048036038101906104bf9190612329565b610b7d565b005b3480156104d257600080fd5b506104ed60048036038101906104e8919061258a565b61126c565b6040516104fa9190612668565b60405180910390f35b34801561050f57600080fd5b50610518611281565b6040516105259190612164565b60405180910390f35b34801561053a57600080fd5b50610543611287565b60405161055091906126a4565b60405180910390f35b34801561056557600080fd5b50610580600480360381019061057b91906126fa565b6112ab565b005b34801561058e57600080fd5b506105a960048036038101906105a491906120e8565b6117b7565b6040516105b7929190612770565b60405180910390f35b3480156105cc57600080fd5b506105e760048036038101906105e29190612799565b61189c565b005b3480156105f557600080fd5b50610610600480360381019061060b91906127d9565b611a61565b60405161061d9190612668565b60405180910390f35b34801561063257600080fd5b5061063b611a76565b6040516106489190612891565b60405180910390f35b60007f4e2312e0000000000000000000000000000000000000000000000000000000007bffffffffffffffffffffffffffffffffffffffffffffffffffffffff1916827bffffffffffffffffffffffffffffffffffffffffffffffffffffffff191614806106c457506106c382611a9c565b5b9050919050565b6000600260008473ffffffffffffffffffffffffffffffffffffffff1673ffffffffffffffffffffffffffffffffffffffff168152602001908152602001600020600801600083815260200190815260200160002060009054906101000a900460ff16905092915050565b600061074182611b06565b9050919050565b600660009054906101000a900473ffffffffffffffffffffffffffffffffffffffff1681565b6000600260008473ffffffffffffffffffffffffffffffffffffffff1673ffffffffffffffffffffffffffffffffffffffff168152602001908152602001600020600401600083815260200190815260200160002054905092915050565b6000806107d985846117b7565b915091505050505050565b6107ed33611c49565b565b6000600260008473ffffffffffffffffffffffffffffffffffffffff1673ffffffffffffffffffffffffffffffffffffffff168152602001908152602001600020600901600083815260200190815260200160002060000160019054906101000a900473ffffffffffffffffffffffffffffffffffffffff16905092915050565b736b175474e89094c44da98b954eedeac495271d0f73ffffffffffffffffffffffffffffffffffffffff168173ffffffffffffffffffffffffffffffffffffffff16146108f2576040517f08c379a00000000000000000000000000000000000000000000000000000000081526004016108e990612909565b60405180910390fd5b81600260003373ffffffffffffffffffffffffffffffffffffffff1673ffffffffffffffffffffffffffffffffffffffff16815260200190815260200160002060000160008282546109449190612958565b925050819055508073ffffffffffffffffffffffffffffffffffffffff166323b872dd3330856040518463ffffffff1660e01b8152600401610988939291906129ae565b6020604051808303816000875af11580156109a7573d6000803e3d6000fd5b505050506040513d601f19601f820116820180604052508101906109cb9190612a11565b505050565b6000600260008473ffffffffffffffffffffffffffffffffffffffff1673ffffffffffffffffffffffffffffffffffffffff168152602001908152602001600020600301600083815260200190815260200160002054905092915050565b600080600090505b600260008473ffffffffffffffffffffffffffffffffffffffff1673ffffffffffffffffffffffffffffffffffffffff168152602001908152602001600020600201548111610af357600260008473ffffffffffffffffffffffffffffffffffffffff1673ffffffffffffffffffffffffffffffffffffffff16815260200190815260200160002060040160008281526020019081526020016000205482610ade9190612958565b91508080610aeb90612a3e565b915050610a36565b50919050565b60035481565b6000600354905090565b60008054906101000a900473ffffffffffffffffffffffffffffffffffffffff1681565b600460009054906101000a900473ffffffffffffffffffffffffffffffffffffffff1681565b60026020528060005260406000206000915090508060000154908060010154908060020154905083565b6000600460009054906101000a900473ffffffffffffffffffffffffffffffffffffffff1673ffffffffffffffffffffffffffffffffffffffff1662fdd58e33856040518363ffffffff1660e01b8152600401610bdb929190612a87565b602060405180830381865afa158015610bf8573d6000803e3d6000fd5b505050506040513d601f19601f82011682018060405250810190610c1c9190612ac5565b11610c5c576040517f08c379a0000000000000000000000000000000000000000000000000000000008152600401610c5390612b3e565b60405180910390fd5b60011515600260003373ffffffffffffffffffffffffffffffffffffffff1673ffffffffffffffffffffffffffffffffffffffff168152602001908152602001600020600801600084815260200190815260200160002060009054906101000a900460ff16151514610d03576040517f08c379a0000000000000000000000000000000000000000000000000000000008152600401610cfa90612baa565b60405180910390fd5b600080610d1085856117b7565b915091506000600660009054906101000a900473ffffffffffffffffffffffffffffffffffffffff1673ffffffffffffffffffffffffffffffffffffffff1663ec3eb22384846040518363ffffffff1660e01b8152600401610d73929190612770565b602060405180830381865afa158015610d90573d6000803e3d6000fd5b505050506040513d601f19601f82011682018060405250810190610db49190612ac5565b9050600460009054906101000a900473ffffffffffffffffffffffffffffffffffffffff1673ffffffffffffffffffffffffffffffffffffffff1663070fb8f0866040518263ffffffff1660e01b8152600401610e119190612164565b600060405180830381600087803b158015610e2b57600080fd5b505af1158015610e3f573d6000803e3d6000fd5b505050506000600260003373ffffffffffffffffffffffffffffffffffffffff1673ffffffffffffffffffffffffffffffffffffffff168152602001908152602001600020600801600087815260200190815260200160002060006101000a81548160ff0219169083151502179055506000600260003373ffffffffffffffffffffffffffffffffffffffff1673ffffffffffffffffffffffffffffffffffffffff16815260200190815260200160002060040160008781526020019081526020016000208190555060001515600260003373ffffffffffffffffffffffffffffffffffffffff1673ffffffffffffffffffffffffffffffffffffffff168152602001908152602001600020600801600087815260200190815260200160002060009054906101000a900460ff16151514610faf576040517f08c379a0000000000000000000000000000000000000000000000000000000008152600401610fa690612c16565b60405180910390fd5b6000600560009054906101000a900473ffffffffffffffffffffffffffffffffffffffff1673ffffffffffffffffffffffffffffffffffffffff1663f2e6c8cc88736b175474e89094c44da98b954eedeac495271d0f8787600260008e73ffffffffffffffffffffffffffffffffffffffff1673ffffffffffffffffffffffffffffffffffffffff16815260200190815260200160002060060160008d8152602001908152602001600020548b6040518763ffffffff1660e01b815260040161107d96959493929190612c36565b6020604051808303816000875af115801561109c573d6000803e3d6000fd5b505050506040513d601f19601f820116820180604052508101906110c09190612ac5565b905060008073__PnLCalculator_________________________63a51e4ab36110e98b8b6109d0565b86866040518463ffffffff1660e01b815260040161110993929190612cbf565b6040805180830381865af4158015611125573d6000803e3d6000fd5b505050506040513d601f19601f820116820180604052508101906111499190612d2f565b9150915060008160ff1614156111ef57736b175474e89094c44da98b954eedeac495271d0f73ffffffffffffffffffffffffffffffffffffffff166323b872dd8a30866040518463ffffffff1660e01b81526004016111aa939291906129ae565b6020604051808303816000875af11580156111c9573d6000803e3d6000fd5b505050506040513d601f19601f820116820180604052508101906111ed9190612a11565b505b81600260008b73ffffffffffffffffffffffffffffffffffffffff1673ffffffffffffffffffffffffffffffffffffffff16815260200190815260200160002060000160008282546112419190612d6f565b92505081905550816003600082825461125a9190612958565b92505081905550505050505050505050565b600063bc197c8160e01b905095945050505050565b60015481565b7f000000000000000000000000000000000000000000000000000000000000000081565b600260003373ffffffffffffffffffffffffffffffffffffffff1673ffffffffffffffffffffffffffffffffffffffff16815260200190815260200160002060000154841115611330576040517f08c379a000000000000000000000000000000000000000000000000000000000815260040161132790612def565b60405180910390fd5b610bb88262ffffff16148061134b57506101f48262ffffff16145b61138a576040517f08c379a000000000000000000000000000000000000000000000000000000000815260040161138190612e5b565b60405180910390fd5b6001600260003373ffffffffffffffffffffffffffffffffffffffff1673ffffffffffffffffffffffffffffffffffffffff16815260200190815260200160002060020160008282546113dd9190612958565b9250508190555060006113ef33610a2e565b111561148357600260003373ffffffffffffffffffffffffffffffffffffffff1673ffffffffffffffffffffffffffffffffffffffff1681526020019081526020016000206000015461144133610a2e565b1115611482576040517f08c379a000000000000000000000000000000000000000000000000000000000815260040161147990612def565b60405180910390fd5b5b600060646063866114949190612e7b565b61149e9190612f04565b905080856114ac9190612d6f565b600160008282546114bd9190612958565b925050819055506000600560009054906101000a900473ffffffffffffffffffffffffffffffffffffffff1673ffffffffffffffffffffffffffffffffffffffff1663f2e6c8cc3387736b175474e89094c44da98b954eedeac495271d0f8887896040518763ffffffff1660e01b815260040161153f96959493929190612c36565b6020604051808303816000875af115801561155e573d6000803e3d6000fd5b505050506040513d601f19601f820116820180604052508101906115829190612ac5565b90506000600660009054906101000a900473ffffffffffffffffffffffffffffffffffffffff1673ffffffffffffffffffffffffffffffffffffffff1663ec3eb22387876040518363ffffffff1660e01b81526004016115e3929190612770565b602060405180830381865afa158015611600573d6000803e3d6000fd5b505050506040513d601f19601f820116820180604052508101906116249190612ac5565b9050600460009054906101000a900473ffffffffffffffffffffffffffffffffffffffff1673ffffffffffffffffffffffffffffffffffffffff166391b3f9b1308489856040518563ffffffff1660e01b81526004016116879493929190612f35565b600060405180830381600087803b1580156116a157600080fd5b505af11580156116b5573d6000803e3d6000fd5b5050505061170a33600260003373ffffffffffffffffffffffffffffffffffffffff1673ffffffffffffffffffffffffffffffffffffffff1681526020019081526020016000206002015483868a878b611d06565b600081836117189190612e7b565b9050736b175474e89094c44da98b954eedeac495271d0f73ffffffffffffffffffffffffffffffffffffffff1663a9059cbb33836040518363ffffffff1660e01b8152600401611769929190612a87565b6020604051808303816000875af1158015611788573d6000803e3d6000fd5b505050506040513d601f19601f820116820180604052508101906117ac9190612a11565b505050505050505050565b600080600260008573ffffffffffffffffffffffffffffffffffffffff1673ffffffffffffffffffffffffffffffffffffffff168152602001908152602001600020600501600084815260200190815260200160002060009054906101000a900473ffffffffffffffffffffffffffffffffffffffff169150600260008573ffffffffffffffffffffffffffffffffffffffff1673ffffffffffffffffffffffffffffffffffffffff168152602001908152602001600020600701600084815260200190815260200160002060009054906101000a900462ffffff1690509250929050565b600260003373ffffffffffffffffffffffffffffffffffffffff1673ffffffffffffffffffffffffffffffffffffffff16815260200190815260200160002060000154821115611921576040517f08c379a000000000000000000000000000000000000000000000000000000000815260040161191890612fec565b60405180910390fd5b6000151561192f33836106cb565b151514611971576040517f08c379a0000000000000000000000000000000000000000000000000000000008152600401611968906130a4565b60405180910390fd5b81600260003373ffffffffffffffffffffffffffffffffffffffff1673ffffffffffffffffffffffffffffffffffffffff16815260200190815260200160002060000160008282546119c39190612d6f565b92505081905550736b175474e89094c44da98b954eedeac495271d0f73ffffffffffffffffffffffffffffffffffffffff1663a9059cbb33846040518363ffffffff1660e01b8152600401611a19929190612a87565b6020604051808303816000875af1158015611a38573d6000803e3d6000fd5b505050506040513d601f19601f82011682018060405250810190611a5c9190612a11565b505050565b600063f23a6e6160e01b905095945050505050565b600560009054906101000a900473ffffffffffffffffffffffffffffffffffffffff1681565b60007f01ffc9a7000000000000000000000000000000000000000000000000000000007bffffffffffffffffffffffffffffffffffffffffffffffffffffffff1916827bffffffffffffffffffffffffffffffffffffffffffffffffffffffff1916149050919050565b600080600260008473ffffffffffffffffffffffffffffffffffffffff1673ffffffffffffffffffffffffffffffffffffffff16815260200190815260200160002060010154600354611b599190612d6f565b9050736b175474e89094c44da98b954eedeac495271d0f73ffffffffffffffffffffffffffffffffffffffff166370a08231306040518263ffffffff1660e01b8152600401611ba8919061225b565b602060405180830381865afa158015611bc5573d6000803e3d6000fd5b505050506040513d601f19601f82011682018060405250810190611be99190612ac5565b81600260008673ffffffffffffffffffffffffffffffffffffffff1673ffffffffffffffffffffffffffffffffffffffff16815260200190815260200160002060000154611c379190612e7b565b611c419190612f04565b915050919050565b6000611c5482611b06565b90506000811115611d025780600260008473ffffffffffffffffffffffffffffffffffffffff1673ffffffffffffffffffffffffffffffffffffffff1681526020019081526020016000206000016000828254611cb19190612958565b92505081905550600354600260008473ffffffffffffffffffffffffffffffffffffffff1673ffffffffffffffffffffffffffffffffffffffff168152602001908152602001600020600101819055505b5050565b84600260008973ffffffffffffffffffffffffffffffffffffffff1673ffffffffffffffffffffffffffffffffffffffff16815260200190815260200160002060030160008881526020019081526020016000208190555083600260008973ffffffffffffffffffffffffffffffffffffffff1673ffffffffffffffffffffffffffffffffffffffff1681526020019081526020016000206004016000888152602001908152602001600020819055506001600260008973ffffffffffffffffffffffffffffffffffffffff1673ffffffffffffffffffffffffffffffffffffffff168152602001908152602001600020600801600088815260200190815260200160002060006101000a81548160ff02191690831515021790555082600260008973ffffffffffffffffffffffffffffffffffffffff1673ffffffffffffffffffffffffffffffffffffffff168152602001908152602001600020600501600088815260200190815260200160002060006101000a81548173ffffffffffffffffffffffffffffffffffffffff021916908373ffffffffffffffffffffffffffffffffffffffff16021790555081600260008973ffffffffffffffffffffffffffffffffffffffff1673ffffffffffffffffffffffffffffffffffffffff16815260200190815260200160002060060160008881526020019081526020016000208190555080600260008973ffffffffffffffffffffffffffffffffffffffff1673ffffffffffffffffffffffffffffffffffffffff168152602001908152602001600020600701600088815260200190815260200160002060006101000a81548162ffffff021916908362ffffff16021790555050505050505050565b6000604051905090565b600080fd5b600080fd5b60007fffffffff0000000000000000000000000000000000000000000000000000000082169050919050565b611fce81611f99565b8114611fd957600080fd5b50565b600081359050611feb81611fc5565b92915050565b60006020828403121561200757612006611f8f565b5b600061201584828501611fdc565b91505092915050565b60008115159050919050565b6120338161201e565b82525050565b600060208201905061204e600083018461202a565b92915050565b600073ffffffffffffffffffffffffffffffffffffffff82169050919050565b600061207f82612054565b9050919050565b61208f81612074565b811461209a57600080fd5b50565b6000813590506120ac81612086565b92915050565b6000819050919050565b6120c5816120b2565b81146120d057600080fd5b50565b6000813590506120e2816120bc565b92915050565b600080604083850312156120ff576120fe611f8f565b5b600061210d8582860161209d565b925050602061211e858286016120d3565b9150509250929050565b60006020828403121561213e5761213d611f8f565b5b600061214c8482850161209d565b91505092915050565b61215e816120b2565b82525050565b60006020820190506121796000830184612155565b92915050565b6000819050919050565b60006121a461219f61219a84612054565b61217f565b612054565b9050919050565b60006121b682612189565b9050919050565b60006121c8826121ab565b9050919050565b6121d8816121bd565b82525050565b60006020820190506121f360008301846121cf565b92915050565b60008060006060848603121561221257612211611f8f565b5b60006122208682870161209d565b93505060206122318682870161209d565b9250506040612242868287016120d3565b9150509250925092565b61225581612074565b82525050565b6000602082019050612270600083018461224c565b92915050565b6000806040838503121561228d5761228c611f8f565b5b600061229b858286016120d3565b92505060206122ac8582860161209d565b9150509250929050565b60006122c1826121ab565b9050919050565b6122d1816122b6565b82525050565b60006020820190506122ec60008301846122c8565b92915050565b60006060820190506123076000830186612155565b6123146020830185612155565b6123216040830184612155565b949350505050565b60008060006060848603121561234257612341611f8f565b5b60006123508682870161209d565b9350506020612361868287016120d3565b9250506040612372868287016120d3565b9150509250925092565b600080fd5b6000601f19601f8301169050919050565b7f4e487b7100000000000000000000000000000000000000000000000000000000600052604160045260246000fd5b6123ca82612381565b810181811067ffffffffffffffff821117156123e9576123e8612392565b5b80604052505050565b60006123fc611f85565b905061240882826123c1565b919050565b600067ffffffffffffffff82111561242857612427612392565b5b602082029050602081019050919050565b600080fd5b600061245161244c8461240d565b6123f2565b9050808382526020820190506020840283018581111561247457612473612439565b5b835b8181101561249d578061248988826120d3565b845260208401935050602081019050612476565b5050509392505050565b600082601f8301126124bc576124bb61237c565b5b81356124cc84826020860161243e565b91505092915050565b600080fd5b600067ffffffffffffffff8211156124f5576124f4612392565b5b6124fe82612381565b9050602081019050919050565b82818337600083830152505050565b600061252d612528846124da565b6123f2565b905082815260208101848484011115612549576125486124d5565b5b61255484828561250b565b509392505050565b600082601f8301126125715761257061237c565b5b813561258184826020860161251a565b91505092915050565b600080600080600060a086880312156125a6576125a5611f8f565b5b60006125b48882890161209d565b95505060206125c58882890161209d565b945050604086013567ffffffffffffffff8111156125e6576125e5611f94565b5b6125f2888289016124a7565b935050606086013567ffffffffffffffff81111561261357612612611f94565b5b61261f888289016124a7565b925050608086013567ffffffffffffffff8111156126405761263f611f94565b5b61264c8882890161255c565b9150509295509295909350565b61266281611f99565b82525050565b600060208201905061267d6000830184612659565b92915050565b600061268e826121ab565b9050919050565b61269e81612683565b82525050565b60006020820190506126b96000830184612695565b92915050565b600062ffffff82169050919050565b6126d7816126bf565b81146126e257600080fd5b50565b6000813590506126f4816126ce565b92915050565b6000806000806080858703121561271457612713611f8f565b5b6000612722878288016120d3565b94505060206127338782880161209d565b9350506040612744878288016126e5565b9250506060612755878288016120d3565b91505092959194509250565b61276a816126bf565b82525050565b6000604082019050612785600083018561224c565b6127926020830184612761565b9392505050565b600080604083850312156127b0576127af611f8f565b5b60006127be858286016120d3565b92505060206127cf858286016120d3565b9150509250929050565b600080600080600060a086880312156127f5576127f4611f8f565b5b60006128038882890161209d565b95505060206128148882890161209d565b9450506040612825888289016120d3565b9350506060612836888289016120d3565b925050608086013567ffffffffffffffff81111561285757612856611f94565b5b6128638882890161255c565b9150509295509295909350565b600061287b826121ab565b9050919050565b61288b81612870565b82525050565b60006020820190506128a66000830184612882565b92915050565b600082825260208201905092915050565b7f5354414e4441524420504f4f4c3a204e6f742044414900000000000000000000600082015250565b60006128f36016836128ac565b91506128fe826128bd565b602082019050919050565b60006020820190508181036000830152612922816128e6565b9050919050565b7f4e487b7100000000000000000000000000000000000000000000000000000000600052601160045260246000fd5b6000612963826120b2565b915061296e836120b2565b9250827fffffffffffffffffffffffffffffffffffffffffffffffffffffffffffffffff038211156129a3576129a2612929565b5b828201905092915050565b60006060820190506129c3600083018661224c565b6129d0602083018561224c565b6129dd6040830184612155565b949350505050565b6129ee8161201e565b81146129f957600080fd5b50565b600081519050612a0b816129e5565b92915050565b600060208284031215612a2757612a26611f8f565b5b6000612a35848285016129fc565b91505092915050565b6000612a49826120b2565b91507fffffffffffffffffffffffffffffffffffffffffffffffffffffffffffffffff821415612a7c57612a7b612929565b5b600182019050919050565b6000604082019050612a9c600083018561224c565b612aa96020830184612155565b9392505050565b600081519050612abf816120bc565b92915050565b600060208284031215612adb57612ada611f8f565b5b6000612ae984828501612ab0565b91505092915050565b7f434c4f53453a204e6f7420796f757220706f736974696f6e0000000000000000600082015250565b6000612b286018836128ac565b9150612b3382612af2565b602082019050919050565b60006020820190508181036000830152612b5781612b1b565b9050919050565b7f434c4f53453a20506f7369746f6e20696e616374697665000000000000000000600082015250565b6000612b946017836128ac565b9150612b9f82612b5e565b602082019050919050565b60006020820190508181036000830152612bc381612b87565b9050919050565b7f434c4f53453a20506f736974696f6e207374696c6c2061637469766500000000600082015250565b6000612c00601c836128ac565b9150612c0b82612bca565b602082019050919050565b60006020820190508181036000830152612c2f81612bf3565b9050919050565b600060c082019050612c4b600083018961224c565b612c58602083018861224c565b612c65604083018761224c565b612c726060830186612761565b612c7f6080830185612155565b612c8c60a0830184612155565b979650505050505050565b612ca0816120b2565b82525050565b6000819050919050565b612cb981612ca6565b82525050565b6000606082019050612cd46000830186612c97565b612ce16020830185612c97565b612cee6040830184612cb0565b949350505050565b600060ff82169050919050565b612d0c81612cf6565b8114612d1757600080fd5b50565b600081519050612d2981612d03565b92915050565b60008060408385031215612d4657612d45611f8f565b5b6000612d5485828601612ab0565b9250506020612d6585828601612d1a565b9150509250929050565b6000612d7a826120b2565b9150612d85836120b2565b925082821015612d9857612d97612929565b5b828203905092915050565b7f535741503a206e6f7420656e6f75676820636f6c6c61746572616c0000000000600082015250565b6000612dd9601b836128ac565b9150612de482612da3565b602082019050919050565b60006020820190508181036000830152612e0881612dcc565b9050919050565b7f535741503a204e6f742068696768207269736b20706f6f6c0000000000000000600082015250565b6000612e456018836128ac565b9150612e5082612e0f565b602082019050919050565b60006020820190508181036000830152612e7481612e38565b9050919050565b6000612e86826120b2565b9150612e91836120b2565b9250817fffffffffffffffffffffffffffffffffffffffffffffffffffffffffffffffff0483118215151615612eca57612ec9612929565b5b828202905092915050565b7f4e487b7100000000000000000000000000000000000000000000000000000000600052601260045260246000fd5b6000612f0f826120b2565b9150612f1a836120b2565b925082612f2a57612f29612ed5565b5b828204905092915050565b6000608082019050612f4a600083018761224c565b612f576020830186612155565b612f64604083018561224c565b612f716060830184612155565b95945050505050565b7f434f4c4c41544552414c3a20747279696e6720746f207769746864726177206d60008201527f6f726520636f6c6c61746572616c207468616e206465706f7369746564000000602082015250565b6000612fd6603d836128ac565b9150612fe182612f7a565b604082019050919050565b6000602082019050818103600083015261300581612fc9565b9050919050565b7f434f4c4c41544552414c3a20636c6f736520796f75722063757272656e74207060008201527f6f736974696f6e206265666f726520747279696e6720746f207769746864726160208201527f7700000000000000000000000000000000000000000000000000000000000000604082015250565b600061308e6041836128ac565b91506130998261300c565b606082019050919050565b600060208201905081810360008301526130bd81613081565b905091905056fea2646970667358221220709fba2c5d607b86eefdb9bb96a89f4f665dffa8a6fa03dab10fb8e5b81a1c8b64736f6c634300080b0033",
  "immutableReferences": {
    "3375": [
      {
        "length": 32,
        "start": 4745
      }
    ]
  },
  "source": "// SPDX-License-Identifier: MIT\npragma solidity ^0.8.0; //solhint-disable compiler-fixed\npragma abicoder v2;\n\n\nimport \"@openzeppelin/contracts/token/ERC1155/IERC1155.sol\";\nimport \"@openzeppelin/contracts/token/ERC1155/utils/ERC1155Holder.sol\";\nimport \"@uniswap/v3-periphery/contracts/interfaces/ISwapRouter.sol\";\nimport \"@uniswap/v3-periphery/contracts/libraries/TransferHelper.sol\";\nimport \"@openzeppelin/contracts/token/ERC20/IERC20.sol\";\nimport \"@uniswap/v3-core/contracts/interfaces/IUniswapV3Pool.sol\";\nimport \"./BeraWrapper.sol\";\nimport \"./BeraSwapper.sol\";\nimport \"./ancillary/PnLCalculator.sol\";\nimport \"./ancillary/SwapOracle.sol\";\n\n\ncontract BeraPoolStandardRisk is ERC1155Holder {\n\n    address public owner;\n    uint public protocolOwnedLiquidity;\n\n    mapping(address => Account) public users;\n\n    struct Liquidation {\n        bool wasLiquidated;\n        address liquidator;\n    }\n\n    struct Account {\n        uint userDepositBalance;\n        uint lastClaimedRewards;\n        uint userShortID;\n        mapping(uint => uint) entryPrice;\n        mapping(uint => uint) userShortBalanceByID;\n        mapping(uint => address) tokenShortedByPositionID;\n        mapping(uint => uint) tokenAmountByPositionID;\n        mapping(uint => uint24) poolFeeByPositionID;\n        mapping(uint => bool) isPositionInShort;\n        mapping(uint => Liquidation) liqData;\n    }\n\n    uint public globalRewards;\n\n    address private constant DAI_ADDRESS = 0x6B175474E89094C44Da98b954EedeAC495271d0F;\n\n    ISwapRouter public immutable swapRouter;\n    BeraWrapper public beraWrapper;\n    BeraSwapper public beraSwapper;\n    SwapOracle public swapOracle;\n\n    constructor(ISwapRouter _swapRouter,\n        BeraWrapper _beraWrapper,\n        TWAPOracle _twapOracle,\n        SwapOracle _swapOracle,\n        BeraSwapper _beraSwapper) { //solhint-disable func-visibility\n        owner = msg.sender;\n        swapRouter = _swapRouter;\n        beraWrapper = _beraWrapper;\n        beraSwapper = _beraSwapper;\n        swapOracle = _swapOracle;\n    }\n\n    function depositCollateral(uint amount, address collateral) external {\n        require(IERC20(collateral) == IERC20(DAI_ADDRESS), \"STANDARD POOL: Not DAI\");\n        //used for withdrawl later\n        users[msg.sender].userDepositBalance += amount;\n        //transfer DAI to this contract\n        IERC20(collateral).transferFrom(msg.sender, address(this), amount);\n    }\n\n    function withdrawFromPool(uint amount, uint userShortID) external {\n        require(amount <= users[msg.sender].userDepositBalance,\n            \"COLLATERAL: trying to withdraw more collateral than deposited\");\n        //checking if the funds locked in the position have been released before allowing them to be withdrawn\n        require(getUserShortBool(msg.sender, userShortID) == false,\n            \"COLLATERAL: close your current position before trying to withdraw\");\n        //reset balance of user on withdraw\n        users[msg.sender].userDepositBalance -= amount;\n        IERC20(DAI_ADDRESS).transfer(msg.sender, amount);\n    }\n\n    //used to claim the profit rewards from collecting trader losses in this pool\n    function claimRewards() external {\n        sendOwedProfits(msg.sender);\n    }\n\n    // deposit collateral into user account before being allowed to short\n    // amount refers to how much dai to swap for amountOut of the token the user\n    // wants to short\n    //\n    // will likely have to split the logic for the function up, she's getting pretty chonky\n    function swapShort(\n            uint amount,\n            address tokenToShort,\n            uint24 poolFee, //needed for uniswap pool\n            uint amountOutMin)\n            external { //solhint-disable function-max-lines\n                require(amount <= users[msg.sender].userDepositBalance, \"SWAP: not enough collateral\");\n                require(poolFee == 3000 || poolFee == 500, \"SWAP: Not high risk pool\");\n\n                users[msg.sender].userShortID += 1;\n                //get total amount of collateral in shorts if user has opened a position before\n                if (getTotalCollateral(msg.sender) > 0) {\n                    require(getTotalCollateral(msg.sender) <= users[msg.sender].userDepositBalance,\n                        \"SWAP: not enough collateral\");\n                }\n\n                //1% is kept as fee to protocol to assist in paying out users\n                uint amountToSend = amount * 99 / 100;\n                //update global so we know how much of deposited amount belongs to users vs protocol\n                protocolOwnedLiquidity += amount - amountToSend;\n\n                //execute swapShort via swapper contract\n                uint amountOut = beraSwapper._swapShort(\n                    msg.sender,\n                    tokenToShort,\n                    DAI_ADDRESS,\n                    poolFee,\n                    amountToSend,\n                    amountOutMin\n                );\n\n                //get TWAP price (3 min) to wrap position\n                uint priceAtWrap = swapOracle.getSwapPrice(tokenToShort, poolFee);\n                beraWrapper.wrapPosition(\n                    address(this), // the associated pool\n                    amountOut,  // the amount of token shorted\n                    tokenToShort, // what token was shorted\n                    priceAtWrap // the price of 1 token0 in dai\n                );\n\n                //update Account details\n                updateUserMappings(\n                    msg.sender, // the user\n                    users[msg.sender].userShortID, //the position ID\n                    priceAtWrap, // the entry price\n                    amountToSend, // how much of the users collateral has been used in this position\n                    tokenToShort,\n                    amountOut, // amount of token the contract is storing for the user AKA size of short denom in token\n                    poolFee\n                );\n\n                //now we transfer dai to user and hold their tokens for them\n                uint amountToReturn = amountOut * priceAtWrap;\n                IERC20(DAI_ADDRESS).transfer(msg.sender, amountToReturn);\n            }\n\n    // if you are reading this comment, this is a way for you to make some money\n    // and keep the protocol alive and kicking\n    // keep in mind that you need to have deposited collateral to receive rewards\n    function liquidateUser(address userUnderwater, address liquidator, uint shortID) external {\n        //get entry price by shortID and subtract by current price\n        (address token, uint24 fee) = getTokenAndFeeShortedByUser(userUnderwater, shortID);\n        //REDO\n    }\n\n    function getLiquidator(address user, uint shortID) public view returns(address liquidator) {\n        return users[user].liqData[shortID].liquidator;\n    }\n\n    function getTotalCollateral(address user) public view returns(uint totalCollateral) {\n        for (uint i = 0; i <= users[user].userShortID; i++) {\n            totalCollateral += users[user].userShortBalanceByID[i];\n        }\n        return (totalCollateral);\n    }\n\n    function checkRewards(address user) public view returns(uint profits) {\n        return profits = checkOwedProfits(user);\n    }\n\n    function getGlobalRewards() public view returns(uint globals) {\n        return globals = globalRewards;\n    }\n\n    function getUserShortBalance(address user, uint shortID) public view returns(uint bal) {\n        return bal = users[user].userShortBalanceByID[shortID];\n    }\n\n    function getUserEntryPrice(address user, uint shortID) public view returns(uint entry) {\n        return entry = users[user].entryPrice[shortID];\n    }\n\n    function getUserShortBool(address user, uint shortID) public view returns(bool isShort) {\n        return isShort = users[user].isPositionInShort[shortID];\n    }\n\n    function getTokenAndFeeShortedByUser(address user, uint shortID) public view returns(address token, uint24 fee) {\n        token = users[user].tokenShortedByPositionID[shortID];\n        fee = uint24(users[user].poolFeeByPositionID[shortID]);\n        return (token, fee);\n    }\n\n    //TODO\n    //contract already has the DAI needed to close the trade, can just check the price and\n    //calculate the difference between the opening and closing prices, no need for expensive swaps\n    //in the standardPool contract\n    function closeSwapShort(\n        address user, //we pass in a user instead of msg.sender in the case of liquidation\n        uint userShortID,\n        uint amountOutMin)\n        public {\n            //check again how ERC1155 do balances\n            require(beraWrapper.balanceOf(msg.sender, userShortID) > 0, \"CLOSE: Not your position\");\n            require(users[msg.sender].isPositionInShort[userShortID] == true, \"CLOSE: Positon inactive\");\n            //get price at pool for shortBal of positionID\n            (address token, uint24 fee) = getTokenAndFeeShortedByUser(user, userShortID);\n            uint priceAtClose = swapOracle.getSwapPrice(\n                    token,\n                    fee\n                );\n            //unwrwap and free funds\n            beraWrapper.unwrapPosition(userShortID);\n            users[msg.sender].isPositionInShort[userShortID] = false;\n            users[msg.sender].userShortBalanceByID[userShortID] = 0;\n            require(users[msg.sender].isPositionInShort[userShortID] == false,\n                \"CLOSE: Position still active\");\n\n            //swap back to DAI\n            uint amountOut = beraSwapper._swapShort(\n                user,\n                DAI_ADDRESS, //\n                token,\n                fee,\n                users[user].tokenAmountByPositionID[userShortID],\n                amountOutMin\n            );\n\n            // where returnValue of 0 = profit\n            (uint amountPNL, uint8 returnValue) = PnLCalculator.calculatePNL(\n                getUserEntryPrice(user, userShortID), //entry\n                priceAtClose, //closing price\n                int(amountOut) //trade size\n            );\n            if (returnValue == 0) {\n            //transfer funds back from user -- they are keeping the difference\n                IERC20(DAI_ADDRESS).transferFrom(user, address(this), amountOut);\n            }\n            //if the trade is a loss we take from their deposited amount and increase global rewards\n            users[user].userDepositBalance -= amountPNL;\n            globalRewards += amountPNL;\n        }\n\n    function updateUserMappings(\n        address user,\n        uint shortID,\n        uint entryPrice,\n        uint shortBalanceByID,\n        address tokenToShort,\n        uint tokenTradeSize,\n        uint24 poolFee\n    ) internal {\n        users[user].entryPrice[shortID] = entryPrice;\n        //update user balance of the user current positionID\n        //this is used to keep track of how much of the users deposit is currently being used\n        users[user].userShortBalanceByID[shortID] = shortBalanceByID;\n        //update userPositionNumber current short status\n        users[user].isPositionInShort[shortID] = true;\n        //update token and fee by ID\n        users[user].tokenShortedByPositionID[shortID] = tokenToShort;\n        users[user].tokenAmountByPositionID[shortID] = tokenTradeSize;\n        users[user].poolFeeByPositionID[shortID] = poolFee;\n    }\n\n    //the percentage reward is based on the last time they claimed vs the total reward calculated\n    //this will allow us to avoid using a loop for reward distribution\n    //and allow users to pull their own rewards when they want\n    function checkOwedProfits(address user) internal view returns (uint) {\n        uint percentageReward = globalRewards - users[user].lastClaimedRewards;\n        return users[user].userDepositBalance * percentageReward / IERC20(DAI_ADDRESS).balanceOf(address(this));\n    }\n\n    function sendOwedProfits(address user) internal {\n        uint owed = checkOwedProfits(user);\n        if (owed > 0) {\n            users[user].userDepositBalance += owed;\n            users[user].lastClaimedRewards = globalRewards;\n        }\n    }\n\n    receive() external payable { //solhint-disable state-visibility\n\n}\n\n    fallback() external payable { //solhint-disable\n\n}\n\n}\n",
  "sourcePath": "/home/kevin/Code/solidity_projects/beraMarket/contracts/BeraPoolStandardRisk.sol",
  "compiler": {
    "name": "solc",
    "version": "0.8.11+commit.d7f03943.Emscripten.clang"
  },
  "schemaVersion": "3.4.3",
  "updatedAt": "2022-01-07T21:17:19.577Z",
  "devdoc": {
    "kind": "dev",
    "methods": {
      "supportsInterface(bytes4)": {
        "details": "See {IERC165-supportsInterface}."
      }
    },
    "version": 1
  },
  "userdoc": {
    "kind": "user",
    "methods": {},
    "version": 1
  }
}