{
  "contractName": "BeraPool",
  "abi": [
    {
      "inputs": [
        {
          "internalType": "contract IERC20",
          "name": "_goblinTownToken",
          "type": "address"
        }
      ],
      "stateMutability": "nonpayable",
      "type": "constructor"
    },
    {
      "inputs": [],
      "name": "goblinTownToken",
      "outputs": [
        {
          "internalType": "contract IERC20",
          "name": "",
          "type": "address"
        }
      ],
      "stateMutability": "view",
      "type": "function"
    },
    {
      "inputs": [
        {
          "internalType": "uint256",
          "name": "",
          "type": "uint256"
        }
      ],
      "name": "gttPoolList",
      "outputs": [
        {
          "internalType": "address",
          "name": "",
          "type": "address"
        }
      ],
      "stateMutability": "view",
      "type": "function"
    },
    {
      "inputs": [
        {
          "internalType": "address",
          "name": "",
          "type": "address"
        }
      ],
      "name": "userPercentOfGTTPool",
      "outputs": [
        {
          "internalType": "uint256",
          "name": "",
          "type": "uint256"
        }
      ],
      "stateMutability": "view",
      "type": "function"
    },
    {
      "inputs": [
        {
          "internalType": "uint256",
          "name": "amount",
          "type": "uint256"
        }
      ],
      "name": "depositGTT",
      "outputs": [],
      "stateMutability": "nonpayable",
      "type": "function"
    },
    {
      "inputs": [
        {
          "internalType": "uint256",
          "name": "amount",
          "type": "uint256"
        }
      ],
      "name": "withdawGTT",
      "outputs": [],
      "stateMutability": "nonpayable",
      "type": "function"
    },
    {
      "inputs": [
        {
          "internalType": "address",
          "name": "user",
          "type": "address"
        }
      ],
      "name": "getUserPercentage",
      "outputs": [
        {
          "internalType": "uint256",
          "name": "",
          "type": "uint256"
        }
      ],
      "stateMutability": "view",
      "type": "function"
    }
  ],
  "bytecode": "0x608060405234801561001057600080fd5b50604051610cef380380610cef833981810160405281019061003291906100ed565b806000806101000a81548173ffffffffffffffffffffffffffffffffffffffff021916908373ffffffffffffffffffffffffffffffffffffffff1602179055505061011a565b600080fd5b600073ffffffffffffffffffffffffffffffffffffffff82169050919050565b60006100a88261007d565b9050919050565b60006100ba8261009d565b9050919050565b6100ca816100af565b81146100d557600080fd5b50565b6000815190506100e7816100c1565b92915050565b60006020828403121561010357610102610078565b5b6000610111848285016100d8565b91505092915050565b610bc6806101296000396000f3fe608060405234801561001057600080fd5b50600436106100625760003560e01c80635184118414610067578063a466450a14610097578063be5bd984146100b3578063e67a0397146100d1578063ebbb357c146100ed578063f8ccdd581461011d575b600080fd5b610081600480360381019061007c919061076f565b61014d565b60405161008e91906107b5565b60405180910390f35b6100b160048036038101906100ac91906107fc565b610165565b005b6100bb61038e565b6040516100c89190610888565b60405180910390f35b6100eb60048036038101906100e691906107fc565b6103b2565b005b610107600480360381019061010291906107fc565b6105d0565b60405161011491906108b2565b60405180910390f35b6101376004803603810190610132919061076f565b61060f565b60405161014491906107b5565b60405180910390f35b60016020528060005260406000206000915090505481565b600160003373ffffffffffffffffffffffffffffffffffffffff1673ffffffffffffffffffffffffffffffffffffffff168152602001908152602001600020548111156101e7576040517f08c379a00000000000000000000000000000000000000000000000000000000081526004016101de90610950565b60405180910390fd5b80600160003373ffffffffffffffffffffffffffffffffffffffff1673ffffffffffffffffffffffffffffffffffffffff1681526020019081526020016000206000828254610236919061099f565b925050819055506000600160003373ffffffffffffffffffffffffffffffffffffffff1673ffffffffffffffffffffffffffffffffffffffff16815260200190815260200160002054116102dd576000600260003373ffffffffffffffffffffffffffffffffffffffff1673ffffffffffffffffffffffffffffffffffffffff16815260200190815260200160002060006101000a81548160ff0219169083151502179055505b60008054906101000a900473ffffffffffffffffffffffffffffffffffffffff1673ffffffffffffffffffffffffffffffffffffffff1663a9059cbb33836040518363ffffffff1660e01b81526004016103389291906109d3565b602060405180830381600087803b15801561035257600080fd5b505af1158015610366573d6000803e3d6000fd5b505050506040513d601f19601f8201168201806040525081019061038a9190610a34565b5050565b60008054906101000a900473ffffffffffffffffffffffffffffffffffffffff1681565b60008054906101000a900473ffffffffffffffffffffffffffffffffffffffff1673ffffffffffffffffffffffffffffffffffffffff166323b872dd3330846040518463ffffffff1660e01b815260040161040f93929190610a61565b602060405180830381600087803b15801561042957600080fd5b505af115801561043d573d6000803e3d6000fd5b505050506040513d601f19601f820116820180604052508101906104619190610a34565b5080600160003373ffffffffffffffffffffffffffffffffffffffff1673ffffffffffffffffffffffffffffffffffffffff16815260200190815260200160002060008282546104b19190610a98565b9250508190555060001515600260003373ffffffffffffffffffffffffffffffffffffffff1673ffffffffffffffffffffffffffffffffffffffff16815260200190815260200160002060009054906101000a900460ff16151514156105cd576003339080600181540180825580915050600190039060005260206000200160009091909190916101000a81548173ffffffffffffffffffffffffffffffffffffffff021916908373ffffffffffffffffffffffffffffffffffffffff1602179055506001600260003373ffffffffffffffffffffffffffffffffffffffff1673ffffffffffffffffffffffffffffffffffffffff16815260200190815260200160002060006101000a81548160ff0219169083151502179055505b50565b600381815481106105e057600080fd5b906000526020600020016000915054906101000a900473ffffffffffffffffffffffffffffffffffffffff1681565b60008060009054906101000a900473ffffffffffffffffffffffffffffffffffffffff1673ffffffffffffffffffffffffffffffffffffffff166370a08231306040518263ffffffff1660e01b815260040161066b91906108b2565b60206040518083038186803b15801561068357600080fd5b505afa158015610697573d6000803e3d6000fd5b505050506040513d601f19601f820116820180604052508101906106bb9190610b03565b600160008473ffffffffffffffffffffffffffffffffffffffff1673ffffffffffffffffffffffffffffffffffffffff168152602001908152602001600020546107059190610b5f565b9050919050565b600080fd5b600073ffffffffffffffffffffffffffffffffffffffff82169050919050565b600061073c82610711565b9050919050565b61074c81610731565b811461075757600080fd5b50565b60008135905061076981610743565b92915050565b6000602082840312156107855761078461070c565b5b60006107938482850161075a565b91505092915050565b6000819050919050565b6107af8161079c565b82525050565b60006020820190506107ca60008301846107a6565b92915050565b6107d98161079c565b81146107e457600080fd5b50565b6000813590506107f6816107d0565b92915050565b6000602082840312156108125761081161070c565b5b6000610820848285016107e7565b91505092915050565b6000819050919050565b600061084e61084961084484610711565b610829565b610711565b9050919050565b600061086082610833565b9050919050565b600061087282610855565b9050919050565b61088281610867565b82525050565b600060208201905061089d6000830184610879565b92915050565b6108ac81610731565b82525050565b60006020820190506108c760008301846108a3565b92915050565b600082825260208201905092915050565b7f4754543a20796f752063616e6e6f74207769746864726177206d6f726520746f60008201527f6b656e73207468616e20796f752068617665206465706f736974656421000000602082015250565b600061093a603d836108cd565b9150610945826108de565b604082019050919050565b600060208201905081810360008301526109698161092d565b9050919050565b7f4e487b7100000000000000000000000000000000000000000000000000000000600052601160045260246000fd5b60006109aa8261079c565b91506109b58361079c565b9250828210156109c8576109c7610970565b5b828203905092915050565b60006040820190506109e860008301856108a3565b6109f560208301846107a6565b9392505050565b60008115159050919050565b610a11816109fc565b8114610a1c57600080fd5b50565b600081519050610a2e81610a08565b92915050565b600060208284031215610a4a57610a4961070c565b5b6000610a5884828501610a1f565b91505092915050565b6000606082019050610a7660008301866108a3565b610a8360208301856108a3565b610a9060408301846107a6565b949350505050565b6000610aa38261079c565b9150610aae8361079c565b9250827fffffffffffffffffffffffffffffffffffffffffffffffffffffffffffffffff03821115610ae357610ae2610970565b5b828201905092915050565b600081519050610afd816107d0565b92915050565b600060208284031215610b1957610b1861070c565b5b6000610b2784828501610aee565b91505092915050565b7f4e487b7100000000000000000000000000000000000000000000000000000000600052601260045260246000fd5b6000610b6a8261079c565b9150610b758361079c565b925082610b8557610b84610b30565b5b82820490509291505056fea26469706673582212204d8ded434b8db0dc05513571f08528db5313d8bc74d60609844105bc8829146f64736f6c63430008090033",
  "immutableReferences": {},
  "source": "// SPDX-License-Identifier: MIT\npragma solidity ^0.8.0; //solhint-disable compiler-fixed\n\nimport \"./GoblinTownToken.sol\";\nimport \"@openzeppelin/contracts/token/ERC20/IERC20.sol\";\n\n\ncontract BeraPool {\n\n    IERC20 public goblinTownToken;\n\n    mapping(address => uint) public userPercentOfGTTPool;\n    mapping(address => bool) internal hasDeposited;\n\n    address[] public gttPoolList;\n\n    address private constant DAI_ADDRESS = 0x6B175474E89094C44Da98b954EedeAC495271d0F;\n\n    constructor(IERC20 _goblinTownToken) { //solhint-disable func-visibility\n        goblinTownToken = _goblinTownToken;\n    }\n\n    function depositGTT(uint amount) external {\n        IERC20(goblinTownToken).transferFrom(msg.sender, address(this), amount);\n        userPercentOfGTTPool[msg.sender] += amount;\n\n        if (hasDeposited[msg.sender] == false) {\n            gttPoolList.push(msg.sender);\n            hasDeposited[msg.sender] = true;\n        }\n    }\n\n    function withdawGTT(uint amount) external {\n        require(amount <= userPercentOfGTTPool[msg.sender],\n        \"GTT: you cannot withdraw more tokens than you have deposited!\");\n\n        userPercentOfGTTPool[msg.sender] -= amount;\n\n        if (userPercentOfGTTPool[msg.sender] <= 0) {\n            hasDeposited[msg.sender] = false;\n        }\n\n        IERC20(goblinTownToken).transfer(msg.sender, amount);\n    }\n\n    function getUserPercentage(address user) external view returns(uint) {\n        return userPercentOfGTTPool[user] / IERC20(goblinTownToken).balanceOf(address(this));\n    }\n\n\n}\n",
  "sourcePath": "/home/kevin/Code/solidity_projects/beraMarket/contracts/BeraPool.sol",
  "compiler": {
    "name": "solc",
    "version": "0.8.9+commit.e5eed63a.Emscripten.clang"
  },
  "schemaVersion": "3.4.3",
  "updatedAt": "2021-10-26T12:10:49.295Z",
  "devdoc": {
    "kind": "dev",
    "methods": {},
    "version": 1
  },
  "userdoc": {
    "kind": "user",
    "methods": {},
    "version": 1
  }
}