{
  "contractName": "BeraRouter",
  "abi": [
    {
      "inputs": [
        {
          "internalType": "contract ISwapRouter",
          "name": "_swapRouter",
          "type": "address"
        },
        {
          "internalType": "contract BeraPoolStandardRisk",
          "name": "_beraPoolStandardRisk",
          "type": "address"
        },
        {
          "internalType": "contract BeraWrapper",
          "name": "_beraWrapper",
          "type": "address"
        },
        {
          "internalType": "contract BeraPool",
          "name": "_beraPool",
          "type": "address"
        }
      ],
      "stateMutability": "nonpayable",
      "type": "constructor"
    },
    {
      "inputs": [],
      "name": "CLOSING_FEE",
      "outputs": [
        {
          "internalType": "uint256",
          "name": "",
          "type": "uint256"
        }
      ],
      "stateMutability": "view",
      "type": "function",
      "constant": true
    },
    {
      "inputs": [],
      "name": "OPEN_FEE",
      "outputs": [
        {
          "internalType": "uint256",
          "name": "",
          "type": "uint256"
        }
      ],
      "stateMutability": "view",
      "type": "function",
      "constant": true
    },
    {
      "inputs": [],
      "name": "beraPool",
      "outputs": [
        {
          "internalType": "contract BeraPool",
          "name": "",
          "type": "address"
        }
      ],
      "stateMutability": "view",
      "type": "function",
      "constant": true
    },
    {
      "inputs": [],
      "name": "beraPoolStandardRisk",
      "outputs": [
        {
          "internalType": "contract BeraPoolStandardRisk",
          "name": "",
          "type": "address"
        }
      ],
      "stateMutability": "view",
      "type": "function",
      "constant": true
    },
    {
      "inputs": [],
      "name": "beraWrapper",
      "outputs": [
        {
          "internalType": "contract BeraWrapper",
          "name": "",
          "type": "address"
        }
      ],
      "stateMutability": "view",
      "type": "function",
      "constant": true
    },
    {
      "inputs": [
        {
          "internalType": "address",
          "name": "",
          "type": "address"
        }
      ],
      "name": "entryPrice",
      "outputs": [
        {
          "internalType": "uint256",
          "name": "",
          "type": "uint256"
        }
      ],
      "stateMutability": "view",
      "type": "function",
      "constant": true
    },
    {
      "inputs": [
        {
          "internalType": "address",
          "name": "",
          "type": "address"
        }
      ],
      "name": "inShort",
      "outputs": [
        {
          "internalType": "bool",
          "name": "",
          "type": "bool"
        }
      ],
      "stateMutability": "view",
      "type": "function",
      "constant": true
    },
    {
      "inputs": [
        {
          "internalType": "address",
          "name": "",
          "type": "address"
        }
      ],
      "name": "nftPositionToken",
      "outputs": [
        {
          "internalType": "address",
          "name": "",
          "type": "address"
        }
      ],
      "stateMutability": "view",
      "type": "function",
      "constant": true
    },
    {
      "inputs": [],
      "name": "owner",
      "outputs": [
        {
          "internalType": "address",
          "name": "",
          "type": "address"
        }
      ],
      "stateMutability": "view",
      "type": "function",
      "constant": true
    },
    {
      "inputs": [],
      "name": "poolTokenBalance",
      "outputs": [
        {
          "internalType": "uint256",
          "name": "",
          "type": "uint256"
        }
      ],
      "stateMutability": "view",
      "type": "function",
      "constant": true
    },
    {
      "inputs": [],
      "name": "swapRouter",
      "outputs": [
        {
          "internalType": "contract ISwapRouter",
          "name": "",
          "type": "address"
        }
      ],
      "stateMutability": "view",
      "type": "function",
      "constant": true
    },
    {
      "inputs": [],
      "name": "token",
      "outputs": [
        {
          "internalType": "contract IERC20",
          "name": "",
          "type": "address"
        }
      ],
      "stateMutability": "view",
      "type": "function",
      "constant": true
    },
    {
      "inputs": [
        {
          "internalType": "address",
          "name": "",
          "type": "address"
        }
      ],
      "name": "userCollateralBalance",
      "outputs": [
        {
          "internalType": "uint256",
          "name": "",
          "type": "uint256"
        }
      ],
      "stateMutability": "view",
      "type": "function",
      "constant": true
    },
    {
      "inputs": [
        {
          "internalType": "uint256",
          "name": "amount",
          "type": "uint256"
        },
        {
          "internalType": "address",
          "name": "collateral",
          "type": "address"
        }
      ],
      "name": "depositCollateral",
      "outputs": [],
      "stateMutability": "nonpayable",
      "type": "function"
    },
    {
      "inputs": [
        {
          "internalType": "uint256",
          "name": "amount",
          "type": "uint256"
        },
        {
          "internalType": "address",
          "name": "collateral",
          "type": "address"
        }
      ],
      "name": "withdrawCollateral",
      "outputs": [],
      "stateMutability": "nonpayable",
      "type": "function"
    },
    {
      "inputs": [
        {
          "internalType": "uint256",
          "name": "amount",
          "type": "uint256"
        },
        {
          "internalType": "address",
          "name": "tokenToShort",
          "type": "address"
        },
        {
          "internalType": "uint24",
          "name": "poolFee",
          "type": "uint24"
        },
        {
          "internalType": "uint256",
          "name": "amountOutMin",
          "type": "uint256"
        },
        {
          "internalType": "uint256",
          "name": "collateralPercentageOfAccount",
          "type": "uint256"
        },
        {
          "internalType": "uint256",
          "name": "priceAtWrap",
          "type": "uint256"
        }
      ],
      "name": "swapAndShortStandard",
      "outputs": [
        {
          "internalType": "uint256",
          "name": "amountOut",
          "type": "uint256"
        }
      ],
      "stateMutability": "nonpayable",
      "type": "function"
    },
    {
      "inputs": [
        {
          "internalType": "address",
          "name": "user",
          "type": "address"
        },
        {
          "internalType": "address",
          "name": "tokenToClose",
          "type": "address"
        },
        {
          "internalType": "uint256",
          "name": "amount",
          "type": "uint256"
        },
        {
          "internalType": "uint256",
          "name": "priceAtClose",
          "type": "uint256"
        },
        {
          "internalType": "uint24",
          "name": "poolFee",
          "type": "uint24"
        },
        {
          "internalType": "uint256",
          "name": "amountOutMin",
          "type": "uint256"
        },
        {
          "internalType": "uint256",
          "name": "_positionID",
          "type": "uint256"
        }
      ],
      "name": "swapAndCloseShort",
      "outputs": [
        {
          "internalType": "uint256",
          "name": "amountOut",
          "type": "uint256"
        }
      ],
      "stateMutability": "nonpayable",
      "type": "function"
    }
  ],
  "bytecode": "0x60806040523480156200001157600080fd5b5060405162002761380380620027618339818101604052810190620000379190620002d3565b33600a60006101000a81548173ffffffffffffffffffffffffffffffffffffffff021916908373ffffffffffffffffffffffffffffffffffffffff16021790555083600560006101000a81548173ffffffffffffffffffffffffffffffffffffffff021916908373ffffffffffffffffffffffffffffffffffffffff16021790555082600660006101000a81548173ffffffffffffffffffffffffffffffffffffffff021916908373ffffffffffffffffffffffffffffffffffffffff16021790555081600860006101000a81548173ffffffffffffffffffffffffffffffffffffffff021916908373ffffffffffffffffffffffffffffffffffffffff16021790555080600960006101000a81548173ffffffffffffffffffffffffffffffffffffffff021916908373ffffffffffffffffffffffffffffffffffffffff1602179055505050505062000345565b600080fd5b600073ffffffffffffffffffffffffffffffffffffffff82169050919050565b6000620001b8826200018b565b9050919050565b6000620001cc82620001ab565b9050919050565b620001de81620001bf565b8114620001ea57600080fd5b50565b600081519050620001fe81620001d3565b92915050565b60006200021182620001ab565b9050919050565b620002238162000204565b81146200022f57600080fd5b50565b600081519050620002438162000218565b92915050565b60006200025682620001ab565b9050919050565b620002688162000249565b81146200027457600080fd5b50565b60008151905062000288816200025d565b92915050565b60006200029b82620001ab565b9050919050565b620002ad816200028e565b8114620002b957600080fd5b50565b600081519050620002cd81620002a2565b92915050565b60008060008060808587031215620002f057620002ef62000186565b5b60006200030087828801620001ed565b9450506020620003138782880162000232565b9350506040620003268782880162000277565b92505060606200033987828801620002bc565b91505092959194509250565b61240c80620003556000396000f3fe608060405234801561001057600080fd5b506004361061010b5760003560e01c806396d2e4b4116100a2578063be3d217111610071578063be3d2171146102bc578063c31c9c07146102da578063e5f7c60c146102f8578063f855e5b514610328578063fc0c546a146103585761010b565b806396d2e4b414610232578063a29aa11414610250578063b5af30621461026e578063bbd4d3e31461029e5761010b565b80636c528a74116100de5780636c528a74146101965780638c3135f2146101c65780638da5cb5b146101e457806395f44296146102025761010b565b80630af504cc146101105780632bcbeece1461012c578063481fef8a1461014a5780635b6a777e14610166575b600080fd5b61012a60048036038101906101259190611661565b610376565b005b61013461058a565b6040516101419190611700565b60405180910390f35b610164600480360381019061015f9190611661565b6105b0565b005b610180600480360381019061017b919061171b565b610734565b60405161018d9190611763565b60405180910390f35b6101b060048036038101906101ab919061171b565b610754565b6040516101bd919061178d565b60405180910390f35b6101ce61076c565b6040516101db919061178d565b60405180910390f35b6101ec610772565b6040516101f991906117b7565b60405180910390f35b61021c6004803603810190610217919061171b565b610798565b60405161022991906117b7565b60405180910390f35b61023a6107cb565b60405161024791906117f3565b60405180910390f35b6102586107f1565b604051610265919061182f565b60405180910390f35b6102886004803603810190610283919061171b565b610817565b604051610295919061178d565b60405180910390f35b6102a661082f565b6040516102b3919061178d565b60405180910390f35b6102c4610834565b6040516102d1919061178d565b60405180910390f35b6102e2610839565b6040516102ef919061186b565b60405180910390f35b610312600480360381019061030d91906118c1565b61085f565b60405161031f919061178d565b60405180910390f35b610342600480360381019061033d919061194e565b610d15565b60405161034f919061178d565b60405180910390f35b61036061112f565b60405161036d9190611a11565b60405180910390f35b6000803373ffffffffffffffffffffffffffffffffffffffff1673ffffffffffffffffffffffffffffffffffffffff168152602001908152602001600020548210156103f7576040517f08c379a00000000000000000000000000000000000000000000000000000000081526004016103ee90611a89565b60405180910390fd5b60001515600260003373ffffffffffffffffffffffffffffffffffffffff1673ffffffffffffffffffffffffffffffffffffffff16815260200190815260200160002060009054906101000a900460ff1615151461048a576040517f08c379a000000000000000000000000000000000000000000000000000000000815260040161048190611af5565b60405180910390fd5b8073ffffffffffffffffffffffffffffffffffffffff1663a9059cbb33846040518363ffffffff1660e01b81526004016104c5929190611b15565b602060405180830381600087803b1580156104df57600080fd5b505af11580156104f3573d6000803e3d6000fd5b505050506040513d601f19601f820116820180604052508101906105179190611b6a565b50816003600082825461052a9190611bc6565b92505081905550816000803373ffffffffffffffffffffffffffffffffffffffff1673ffffffffffffffffffffffffffffffffffffffff168152602001908152602001600020600082825461057f9190611bc6565b925050819055505050565b600660009054906101000a900473ffffffffffffffffffffffffffffffffffffffff1681565b736b175474e89094c44da98b954eedeac495271d0f73ffffffffffffffffffffffffffffffffffffffff168173ffffffffffffffffffffffffffffffffffffffff1614610632576040517f08c379a000000000000000000000000000000000000000000000000000000000815260040161062990611c46565b60405180910390fd5b8073ffffffffffffffffffffffffffffffffffffffff166323b872dd3330856040518463ffffffff1660e01b815260040161066f93929190611c66565b602060405180830381600087803b15801561068957600080fd5b505af115801561069d573d6000803e3d6000fd5b505050506040513d601f19601f820116820180604052508101906106c19190611b6a565b5081600360008282546106d49190611c9d565b92505081905550816000803373ffffffffffffffffffffffffffffffffffffffff1673ffffffffffffffffffffffffffffffffffffffff16815260200190815260200160002060008282546107299190611c9d565b925050819055505050565b60026020528060005260406000206000915054906101000a900460ff1681565b60046020528060005260406000206000915090505481565b60035481565b600a60009054906101000a900473ffffffffffffffffffffffffffffffffffffffff1681565b60016020528060005260406000206000915054906101000a900473ffffffffffffffffffffffffffffffffffffffff1681565b600960009054906101000a900473ffffffffffffffffffffffffffffffffffffffff1681565b600860009054906101000a900473ffffffffffffffffffffffffffffffffffffffff1681565b60006020528060005260406000206000915090505481565b600581565b600581565b600560009054906101000a900473ffffffffffffffffffffffffffffffffffffffff1681565b600060648311156108a5576040517f08c379a000000000000000000000000000000000000000000000000000000000815260040161089c90611d65565b60405180910390fd5b6000803373ffffffffffffffffffffffffffffffffffffffff1673ffffffffffffffffffffffffffffffffffffffff16815260200190815260200160002054871115610926576040517f08c379a000000000000000000000000000000000000000000000000000000000815260040161091d90611dd1565b60405180910390fd5b6000606484896109369190611df1565b6109409190611e7a565b9050600081896109509190611bc6565b9050610972736b175474e89094c44da98b954eedeac495271d0f33308c611155565b6109b3736b175474e89094c44da98b954eedeac495271d0f600560009054906101000a900473ffffffffffffffffffffffffffffffffffffffff168b6112ad565b6000604051806101000160405280736b175474e89094c44da98b954eedeac495271d0f73ffffffffffffffffffffffffffffffffffffffff1681526020018a73ffffffffffffffffffffffffffffffffffffffff1681526020018962ffffff1681526020013373ffffffffffffffffffffffffffffffffffffffff168152602001428152602001848152602001888152602001600073ffffffffffffffffffffffffffffffffffffffff168152509050600560009054906101000a900473ffffffffffffffffffffffffffffffffffffffff1673ffffffffffffffffffffffffffffffffffffffff1663414bf389826040518263ffffffff1660e01b8152600401610abe9190611f89565b602060405180830381600087803b158015610ad857600080fd5b505af1158015610aec573d6000803e3d6000fd5b505050506040513d601f19601f82011682018060405250810190610b109190611fba565b9350600660009054906101000a900473ffffffffffffffffffffffffffffffffffffffff1673ffffffffffffffffffffffffffffffffffffffff16634c992506338b888c898d6040518763ffffffff1660e01b8152600401610b7796959493929190611ff6565b602060405180830381600087803b158015610b9157600080fd5b505af1158015610ba5573d6000803e3d6000fd5b505050506040513d601f19601f82011682018060405250810190610bc99190611fba565b5084600460003373ffffffffffffffffffffffffffffffffffffffff1673ffffffffffffffffffffffffffffffffffffffff168152602001908152602001600020819055506001600260003373ffffffffffffffffffffffffffffffffffffffff1673ffffffffffffffffffffffffffffffffffffffff16815260200190815260200160002060006101000a81548160ff021916908315150217905550736b175474e89094c44da98b954eedeac495271d0f73ffffffffffffffffffffffffffffffffffffffff1663a9059cbb33846040518363ffffffff1660e01b8152600401610cb5929190611b15565b602060405180830381600087803b158015610ccf57600080fd5b505af1158015610ce3573d6000803e3d6000fd5b505050506040513d601f19601f82011682018060405250810190610d079190611b6a565b505050509695505050505050565b6000600860009054906101000a900473ffffffffffffffffffffffffffffffffffffffff1673ffffffffffffffffffffffffffffffffffffffff1663b9e17b7689846040518363ffffffff1660e01b8152600401610d74929190611b15565b600060405180830381600087803b158015610d8e57600080fd5b505af1158015610da2573d6000803e3d6000fd5b50505050736b175474e89094c44da98b954eedeac495271d0f73ffffffffffffffffffffffffffffffffffffffff1663a9059cbb33886040518363ffffffff1660e01b8152600401610df5929190611b15565b602060405180830381600087803b158015610e0f57600080fd5b505af1158015610e23573d6000803e3d6000fd5b505050506040513d601f19601f82011682018060405250810190610e479190611b6a565b50610e68736b175474e89094c44da98b954eedeac495271d0f333089611155565b610ea9736b175474e89094c44da98b954eedeac495271d0f600560009054906101000a900473ffffffffffffffffffffffffffffffffffffffff16886112ad565b6000604051806101000160405280736b175474e89094c44da98b954eedeac495271d0f73ffffffffffffffffffffffffffffffffffffffff1681526020018973ffffffffffffffffffffffffffffffffffffffff1681526020018662ffffff1681526020013373ffffffffffffffffffffffffffffffffffffffff168152602001428152602001888152602001858152602001600073ffffffffffffffffffffffffffffffffffffffff168152509050600560009054906101000a900473ffffffffffffffffffffffffffffffffffffffff1673ffffffffffffffffffffffffffffffffffffffff1663414bf389826040518263ffffffff1660e01b8152600401610fb49190611f89565b602060405180830381600087803b158015610fce57600080fd5b505af1158015610fe2573d6000803e3d6000fd5b505050506040513d601f19601f820116820180604052508101906110069190611fba565b9150600660009054906101000a900473ffffffffffffffffffffffffffffffffffffffff1673ffffffffffffffffffffffffffffffffffffffff1663db8a027d308a858a8a8a6040518763ffffffff1660e01b815260040161106d96959493929190612057565b602060405180830381600087803b15801561108757600080fd5b505af115801561109b573d6000803e3d6000fd5b505050506040513d601f19601f820116820180604052508101906110bf9190611fba565b506110ca3387611402565b506000600260003373ffffffffffffffffffffffffffffffffffffffff1673ffffffffffffffffffffffffffffffffffffffff16815260200190815260200160002060006101000a81548160ff02191690831515021790555050979650505050505050565b600760009054906101000a900473ffffffffffffffffffffffffffffffffffffffff1681565b6000808573ffffffffffffffffffffffffffffffffffffffff166323b872dd60e01b86868660405160240161118c93929190611c66565b604051602081830303815290604052907bffffffffffffffffffffffffffffffffffffffffffffffffffffffff19166020820180517bffffffffffffffffffffffffffffffffffffffffffffffffffffffff83818316178352505050506040516111f69190612132565b6000604051808303816000865af19150503d8060008114611233576040519150601f19603f3d011682016040523d82523d6000602084013e611238565b606091505b509150915081801561126657506000815114806112655750808060200190518101906112649190611b6a565b5b5b6112a5576040517f08c379a000000000000000000000000000000000000000000000000000000000815260040161129c90612195565b60405180910390fd5b505050505050565b6000808473ffffffffffffffffffffffffffffffffffffffff1663095ea7b360e01b85856040516024016112e2929190611b15565b604051602081830303815290604052907bffffffffffffffffffffffffffffffffffffffffffffffffffffffff19166020820180517bffffffffffffffffffffffffffffffffffffffffffffffffffffffff838183161783525050505060405161134c9190612132565b6000604051808303816000865af19150503d8060008114611389576040519150601f19603f3d011682016040523d82523d6000602084013e61138e565b606091505b50915091508180156113bc57506000815114806113bb5750808060200190518101906113ba9190611b6a565b5b5b6113fb576040517f08c379a00000000000000000000000000000000000000000000000000000000081526004016113f290612201565b60405180910390fd5b5050505050565b60008082600460008673ffffffffffffffffffffffffffffffffffffffff1673ffffffffffffffffffffffffffffffffffffffff168152602001908152602001600020546114509190611bc6565b11156114a85781600460008573ffffffffffffffffffffffffffffffffffffffff1673ffffffffffffffffffffffffffffffffffffffff168152602001908152602001600020546114a19190611bc6565b90506115c2565b600082600460008673ffffffffffffffffffffffffffffffffffffffff1673ffffffffffffffffffffffffffffffffffffffff168152602001908152602001600020546114f5919061222b565b905060007fffffffffffffffffffffffffffffffffffffffffffffffffffffffffffffffff8261152591906122bf565b90506000808673ffffffffffffffffffffffffffffffffffffffff1673ffffffffffffffffffffffffffffffffffffffff1681526020019081526020016000205481116115bf576000808673ffffffffffffffffffffffffffffffffffffffff1673ffffffffffffffffffffffffffffffffffffffff16815260200190815260200160002054816115b69190611bc6565b925050506115c2565b50505b92915050565b600080fd5b6000819050919050565b6115e0816115cd565b81146115eb57600080fd5b50565b6000813590506115fd816115d7565b92915050565b600073ffffffffffffffffffffffffffffffffffffffff82169050919050565b600061162e82611603565b9050919050565b61163e81611623565b811461164957600080fd5b50565b60008135905061165b81611635565b92915050565b60008060408385031215611678576116776115c8565b5b6000611686858286016115ee565b92505060206116978582860161164c565b9150509250929050565b6000819050919050565b60006116c66116c16116bc84611603565b6116a1565b611603565b9050919050565b60006116d8826116ab565b9050919050565b60006116ea826116cd565b9050919050565b6116fa816116df565b82525050565b600060208201905061171560008301846116f1565b92915050565b600060208284031215611731576117306115c8565b5b600061173f8482850161164c565b91505092915050565b60008115159050919050565b61175d81611748565b82525050565b60006020820190506117786000830184611754565b92915050565b611787816115cd565b82525050565b60006020820190506117a2600083018461177e565b92915050565b6117b181611623565b82525050565b60006020820190506117cc60008301846117a8565b92915050565b60006117dd826116cd565b9050919050565b6117ed816117d2565b82525050565b600060208201905061180860008301846117e4565b92915050565b6000611819826116cd565b9050919050565b6118298161180e565b82525050565b60006020820190506118446000830184611820565b92915050565b6000611855826116cd565b9050919050565b6118658161184a565b82525050565b6000602082019050611880600083018461185c565b92915050565b600062ffffff82169050919050565b61189e81611886565b81146118a957600080fd5b50565b6000813590506118bb81611895565b92915050565b60008060008060008060c087890312156118de576118dd6115c8565b5b60006118ec89828a016115ee565b96505060206118fd89828a0161164c565b955050604061190e89828a016118ac565b945050606061191f89828a016115ee565b935050608061193089828a016115ee565b92505060a061194189828a016115ee565b9150509295509295509295565b600080600080600080600060e0888a03121561196d5761196c6115c8565b5b600061197b8a828b0161164c565b975050602061198c8a828b0161164c565b965050604061199d8a828b016115ee565b95505060606119ae8a828b016115ee565b94505060806119bf8a828b016118ac565b93505060a06119d08a828b016115ee565b92505060c06119e18a828b016115ee565b91505092959891949750929550565b60006119fb826116cd565b9050919050565b611a0b816119f0565b82525050565b6000602082019050611a266000830184611a02565b92915050565b600082825260208201905092915050565b7f757365722062616c616e636520746f6f206c6f77210000000000000000000000600082015250565b6000611a73601583611a2c565b9150611a7e82611a3d565b602082019050919050565b60006020820190508181036000830152611aa281611a66565b9050919050565b7f6e6f7420696e206120706f736974696f6e000000000000000000000000000000600082015250565b6000611adf601183611a2c565b9150611aea82611aa9565b602082019050919050565b60006020820190508181036000830152611b0e81611ad2565b9050919050565b6000604082019050611b2a60008301856117a8565b611b37602083018461177e565b9392505050565b611b4781611748565b8114611b5257600080fd5b50565b600081519050611b6481611b3e565b92915050565b600060208284031215611b8057611b7f6115c8565b5b6000611b8e84828501611b55565b91505092915050565b7f4e487b7100000000000000000000000000000000000000000000000000000000600052601160045260246000fd5b6000611bd1826115cd565b9150611bdc836115cd565b925082821015611bef57611bee611b97565b5b828203905092915050565b7f4e6f742044414900000000000000000000000000000000000000000000000000600082015250565b6000611c30600783611a2c565b9150611c3b82611bfa565b602082019050919050565b60006020820190508181036000830152611c5f81611c23565b9050919050565b6000606082019050611c7b60008301866117a8565b611c8860208301856117a8565b611c95604083018461177e565b949350505050565b6000611ca8826115cd565b9150611cb3836115cd565b9250827fffffffffffffffffffffffffffffffffffffffffffffffffffffffffffffffff03821115611ce857611ce7611b97565b5b828201905092915050565b7f63616e6e6f7420757365206d6f7265207468616e2031303025206f662061636360008201527f6f756e7420746f2073686f727400000000000000000000000000000000000000602082015250565b6000611d4f602d83611a2c565b9150611d5a82611cf3565b604082019050919050565b60006020820190508181036000830152611d7e81611d42565b9050919050565b7f6e6f7420656e6f75676820636f6c6c61746572616c0000000000000000000000600082015250565b6000611dbb601583611a2c565b9150611dc682611d85565b602082019050919050565b60006020820190508181036000830152611dea81611dae565b9050919050565b6000611dfc826115cd565b9150611e07836115cd565b9250817fffffffffffffffffffffffffffffffffffffffffffffffffffffffffffffffff0483118215151615611e4057611e3f611b97565b5b828202905092915050565b7f4e487b7100000000000000000000000000000000000000000000000000000000600052601260045260246000fd5b6000611e85826115cd565b9150611e90836115cd565b925082611ea057611e9f611e4b565b5b828204905092915050565b611eb481611623565b82525050565b611ec381611886565b82525050565b611ed2816115cd565b82525050565b611ee181611603565b82525050565b61010082016000820151611efe6000850182611eab565b506020820151611f116020850182611eab565b506040820151611f246040850182611eba565b506060820151611f376060850182611eab565b506080820151611f4a6080850182611ec9565b5060a0820151611f5d60a0850182611ec9565b5060c0820151611f7060c0850182611ec9565b5060e0820151611f8360e0850182611ed8565b50505050565b600061010082019050611f9f6000830184611ee7565b92915050565b600081519050611fb4816115d7565b92915050565b600060208284031215611fd057611fcf6115c8565b5b6000611fde84828501611fa5565b91505092915050565b611ff081611886565b82525050565b600060c08201905061200b60008301896117a8565b61201860208301886117a8565b612025604083018761177e565b6120326060830186611fe7565b61203f608083018561177e565b61204c60a083018461177e565b979650505050505050565b600060c08201905061206c60008301896117a8565b61207960208301886117a8565b612086604083018761177e565b612093606083018661177e565b6120a06080830185611fe7565b6120ad60a083018461177e565b979650505050505050565b600081519050919050565b600081905092915050565b60005b838110156120ec5780820151818401526020810190506120d1565b838111156120fb576000848401525b50505050565b600061210c826120b8565b61211681856120c3565b93506121268185602086016120ce565b80840191505092915050565b600061213e8284612101565b915081905092915050565b7f5354460000000000000000000000000000000000000000000000000000000000600082015250565b600061217f600383611a2c565b915061218a82612149565b602082019050919050565b600060208201905081810360008301526121ae81612172565b9050919050565b7f5341000000000000000000000000000000000000000000000000000000000000600082015250565b60006121eb600283611a2c565b91506121f6826121b5565b602082019050919050565b6000602082019050818103600083015261221a816121de565b9050919050565b6000819050919050565b600061223682612221565b915061224183612221565b9250827f80000000000000000000000000000000000000000000000000000000000000000182126000841215161561227c5761227b611b97565b5b827f7fffffffffffffffffffffffffffffffffffffffffffffffffffffffffffffff0182136000841216156122b4576122b3611b97565b5b828203905092915050565b60006122ca82612221565b91506122d583612221565b9250827f7fffffffffffffffffffffffffffffffffffffffffffffffffffffffffffffff048211600084136000841316161561231457612313611b97565b5b817f8000000000000000000000000000000000000000000000000000000000000000058312600084126000841316161561235157612350611b97565b5b827f8000000000000000000000000000000000000000000000000000000000000000058212600084136000841216161561238e5761238d611b97565b5b827f7fffffffffffffffffffffffffffffffffffffffffffffffffffffffffffffff05821260008412600084121616156123cb576123ca611b97565b5b82820290509291505056fea2646970667358221220f5ad14f7e993394a7d90f6a5560c93dd391a9cc7128c741265fbd2f1947e564e64736f6c63430008090033",
  "immutableReferences": {},
  "source": "// SPDX-License-Identifier: MIT\npragma solidity ^0.8.0; //solhint-disable compiler-fixed\npragma abicoder v2;\n\n//who would have guessed these github imports don't actually compile\nimport \"@openzeppelin/contracts/token/ERC20/IERC20.sol\";\nimport \"@uniswap/v3-periphery/contracts/interfaces/ISwapRouter.sol\";\nimport \"@uniswap/v3-periphery/contracts/libraries/TransferHelper.sol\";\nimport \"./BeraPoolStandardRisk.sol\";\nimport \"./BeraWrapper.sol\";\nimport \"./BeraPool.sol\";\n\n\n//the public interface for the protocol\ncontract BeraRouter {\n\n    mapping(address => uint) public userCollateralBalance;\n    mapping(address => address) public nftPositionToken;\n    mapping(address => bool) public inShort;\n    uint public poolTokenBalance;\n\n    mapping(address => uint) public entryPrice;\n\n    address private constant DAI_ADDRESS = 0x6B175474E89094C44Da98b954EedeAC495271d0F;\n\n    //fees idk about yet we gonna see\n    uint public constant OPEN_FEE = 5;\n    uint public constant CLOSING_FEE = 5;\n\n    //uniswapV3 address router\n    //might have to change if implement 1inch api\n    ISwapRouter public  swapRouter;\n    BeraPoolStandardRisk public beraPoolStandardRisk;\n    IERC20 public token;\n    BeraWrapper public beraWrapper;\n    BeraPool public beraPool;\n\n    ////\n    address public owner;\n\n    constructor(ISwapRouter _swapRouter,\n        BeraPoolStandardRisk _beraPoolStandardRisk,\n        BeraWrapper _beraWrapper,\n        BeraPool _beraPool) { //solhint-disable func-visibility\n        owner = msg.sender;\n        swapRouter = _swapRouter;\n        beraPoolStandardRisk = _beraPoolStandardRisk;\n        beraWrapper = _beraWrapper;\n        beraPool = _beraPool;\n    }\n\n//\n// deposit collateral into user account\n    function depositCollateral(uint amount, address collateral) external {\n        require(IERC20(collateral) == IERC20(DAI_ADDRESS), \"Not DAI\");\n\n        IERC20(collateral).transferFrom(msg.sender, address(this), amount);\n\n        //testing purposes only for now\n        poolTokenBalance += amount;\n        userCollateralBalance[msg.sender] += amount;\n\n    }\n\n    function withdrawCollateral(uint amount, address collateral) external {\n        require(amount >= userCollateralBalance[msg.sender], \"user balance too low!\");\n        require(inShort[msg.sender] == false, \"not in a position\");\n\n        IERC20(collateral).transfer(msg.sender, amount);\n\n        //reset balance of user and pool on withdraw\n        poolTokenBalance -= amount;\n        userCollateralBalance[msg.sender] -= amount;\n    }\n\n    function swapAndShortStandard(\n            uint amount,\n            address tokenToShort,\n            uint24 poolFee,\n            uint amountOutMin,\n            uint collateralPercentageOfAccount,\n            uint priceAtWrap)\n            external returns(uint amountOut) { //solhint-disable function-max-lines\n                require(collateralPercentageOfAccount <= 100, \"cannot use more than 100% of account to short\");\n                require(amount <= userCollateralBalance[msg.sender], \"not enough collateral\");\n\n                uint amountOfCollateral = amount * collateralPercentageOfAccount / 100;\n                uint leftover = amount - amountOfCollateral;\n\n                TransferHelper.safeTransferFrom(DAI_ADDRESS, msg.sender, address(this), amount);\n                TransferHelper.safeApprove(DAI_ADDRESS, address(swapRouter), amount);\n\n                ISwapRouter.ExactInputSingleParams memory params =\n                ISwapRouter.ExactInputSingleParams({\n                    tokenIn: DAI_ADDRESS,\n                    tokenOut: tokenToShort,\n                    fee: poolFee,\n                    recipient: msg.sender, //send back to user to execute next leg\n                    deadline: block.timestamp, //solhint-disable not-rely-on-time\n                    amountIn: amountOfCollateral,\n                    amountOutMinimum: amountOutMin,\n                    sqrtPriceLimitX96: 0\n                });\n\n                // execute the frist swap & sends to beraPool based on params\n                amountOut = swapRouter.exactInputSingle(params);\n\n                //execute the second swap and transfer funds to pool for holding\n                //have to update priceAtWrap, users can set this amount manually and drain funds lmfao\n                beraPoolStandardRisk.shortForUser(\n                    msg.sender,\n                    tokenToShort,\n                    priceAtWrap,\n                    poolFee,\n                    amountOut,\n                    amountOutMin\n                );\n\n                //update entry price mapping\n                entryPrice[msg.sender] = priceAtWrap;\n\n                //update whether address is in a position or not\n                inShort[msg.sender] = true;\n\n                //send remaining funds back to user\n                IERC20(DAI_ADDRESS).transfer(msg.sender, leftover);\n            }\n\n    function swapAndCloseShort(\n        address user,\n        address tokenToClose,\n        uint amount,\n        uint priceAtClose,\n        uint24 poolFee,\n        uint amountOutMin,\n        uint _positionID) external returns(uint amountOut) {\n        //unwrap and unlock position\n        beraWrapper.unwrapPosition(user, _positionID);\n\n        //send dai back to user\n        //needs check for amount\n        IERC20(DAI_ADDRESS).transfer(msg.sender, amount);\n\n        //we swap dai back to weth to close the trade\n        TransferHelper.safeTransferFrom(DAI_ADDRESS, msg.sender, address(this), amount);\n        TransferHelper.safeApprove(DAI_ADDRESS, address(swapRouter), amount);\n\n        ISwapRouter.ExactInputSingleParams memory params =\n        ISwapRouter.ExactInputSingleParams({\n            tokenIn: DAI_ADDRESS,\n            tokenOut: tokenToClose,\n            fee: poolFee,\n            recipient: msg.sender, //send tokens to user to execute next leg of trade\n            deadline: block.timestamp, //solhint-disable not-rely-on-time\n            amountIn: amount,\n            amountOutMinimum: amountOutMin,\n            sqrtPriceLimitX96: 0\n        });\n\n        //execute swap\n        amountOut = swapRouter.exactInputSingle(params);\n\n        //sell tokens back for DAI\n        beraPoolStandardRisk.closeShortForUser(\n            address(this),\n            tokenToClose,\n            amountOut, //how much tokenOut is being sent to swap back into dai (in this case weth)\n            priceAtClose,\n            poolFee,\n            amountOutMin\n        );\n\n        //calculate if the user made or lost money on the position\n        //also tranfers the profits to the user and distributes user losses amongst the pool\n        calculatePNL(msg.sender, priceAtClose);\n\n        //reset user short status\n        inShort[msg.sender] = false; //solhint-disable reentrancy\n    }\n\n    function calculatePNL(address user, uint priceAtClose) internal returns(uint profits) {\n        if (entryPrice[user] - priceAtClose > 0) {\n            return profits = entryPrice[user] - priceAtClose; //case where user makes money\n            IERC20(DAI_ADDRESS).transfer(user, profits);\n        } else {\n            int loss = int(entryPrice[user]) - int(priceAtClose); //case where user loses money\n            //make negative num postive\n            int userLoss = (loss * (-1));\n            if (uint(userLoss) <= userCollateralBalance[user]) {\n                return profits = uint(userLoss) - userCollateralBalance[user];\n\n                //distribute remaining amongst pool holders\n                beraPool.distributeProfits(profits);\n\n                //update user collateral balance to reflect loss\n                userCollateralBalance[user] -= uint(userLoss);\n            }\n        }\n    }\n\n}\n",
  "sourcePath": "/home/kevin/Code/solidity_projects/beraMarket/contracts/BeraRouter.sol",
  "compiler": {
    "name": "solc",
    "version": "0.8.9+commit.e5eed63a.Emscripten.clang"
  },
  "schemaVersion": "3.4.3",
  "updatedAt": "2021-10-19T15:40:48.940Z",
  "networkType": "ethereum",
  "devdoc": {
    "kind": "dev",
    "methods": {},
    "version": 1
  },
  "userdoc": {
    "kind": "user",
    "methods": {},
    "version": 1
  }
}