{
  "contractName": "BeraPoolStandardRisk",
  "abi": [
    {
      "inputs": [
        {
          "internalType": "contract ISwapRouter",
          "name": "_swapRouter",
          "type": "address"
        },
        {
          "internalType": "contract BeraWrapper",
          "name": "_beraWrapper",
          "type": "address"
        }
      ],
      "stateMutability": "nonpayable",
      "type": "constructor"
    },
    {
      "stateMutability": "payable",
      "type": "fallback"
    },
    {
      "inputs": [],
      "name": "beraWrapper",
      "outputs": [
        {
          "internalType": "contract BeraWrapper",
          "name": "",
          "type": "address"
        }
      ],
      "stateMutability": "view",
      "type": "function"
    },
    {
      "inputs": [],
      "name": "globalRewards",
      "outputs": [
        {
          "internalType": "uint256",
          "name": "",
          "type": "uint256"
        }
      ],
      "stateMutability": "view",
      "type": "function"
    },
    {
      "inputs": [
        {
          "internalType": "address",
          "name": "",
          "type": "address"
        },
        {
          "internalType": "address",
          "name": "",
          "type": "address"
        },
        {
          "internalType": "uint256[]",
          "name": "",
          "type": "uint256[]"
        },
        {
          "internalType": "uint256[]",
          "name": "",
          "type": "uint256[]"
        },
        {
          "internalType": "bytes",
          "name": "",
          "type": "bytes"
        }
      ],
      "name": "onERC1155BatchReceived",
      "outputs": [
        {
          "internalType": "bytes4",
          "name": "",
          "type": "bytes4"
        }
      ],
      "stateMutability": "nonpayable",
      "type": "function"
    },
    {
      "inputs": [
        {
          "internalType": "address",
          "name": "",
          "type": "address"
        },
        {
          "internalType": "address",
          "name": "",
          "type": "address"
        },
        {
          "internalType": "uint256",
          "name": "",
          "type": "uint256"
        },
        {
          "internalType": "uint256",
          "name": "",
          "type": "uint256"
        },
        {
          "internalType": "bytes",
          "name": "",
          "type": "bytes"
        }
      ],
      "name": "onERC1155Received",
      "outputs": [
        {
          "internalType": "bytes4",
          "name": "",
          "type": "bytes4"
        }
      ],
      "stateMutability": "nonpayable",
      "type": "function"
    },
    {
      "inputs": [],
      "name": "owner",
      "outputs": [
        {
          "internalType": "address",
          "name": "",
          "type": "address"
        }
      ],
      "stateMutability": "view",
      "type": "function"
    },
    {
      "inputs": [
        {
          "internalType": "bytes4",
          "name": "interfaceId",
          "type": "bytes4"
        }
      ],
      "name": "supportsInterface",
      "outputs": [
        {
          "internalType": "bool",
          "name": "",
          "type": "bool"
        }
      ],
      "stateMutability": "view",
      "type": "function"
    },
    {
      "inputs": [],
      "name": "swapRouter",
      "outputs": [
        {
          "internalType": "contract ISwapRouter",
          "name": "",
          "type": "address"
        }
      ],
      "stateMutability": "view",
      "type": "function"
    },
    {
      "inputs": [
        {
          "internalType": "address",
          "name": "",
          "type": "address"
        }
      ],
      "name": "users",
      "outputs": [
        {
          "internalType": "uint256",
          "name": "userDepositBalance",
          "type": "uint256"
        },
        {
          "internalType": "uint256",
          "name": "lastClaimedRewards",
          "type": "uint256"
        },
        {
          "internalType": "bool",
          "name": "hasCollateral",
          "type": "bool"
        },
        {
          "internalType": "uint256",
          "name": "userShortID",
          "type": "uint256"
        }
      ],
      "stateMutability": "view",
      "type": "function"
    },
    {
      "stateMutability": "payable",
      "type": "receive"
    },
    {
      "inputs": [
        {
          "internalType": "uint256",
          "name": "amount",
          "type": "uint256"
        },
        {
          "internalType": "address",
          "name": "collateral",
          "type": "address"
        }
      ],
      "name": "depositCollateral",
      "outputs": [],
      "stateMutability": "nonpayable",
      "type": "function"
    },
    {
      "inputs": [
        {
          "internalType": "uint256",
          "name": "amount",
          "type": "uint256"
        },
        {
          "internalType": "uint256",
          "name": "_userShortID",
          "type": "uint256"
        }
      ],
      "name": "withdrawFromPool",
      "outputs": [],
      "stateMutability": "nonpayable",
      "type": "function"
    },
    {
      "inputs": [],
      "name": "claimRewards",
      "outputs": [],
      "stateMutability": "nonpayable",
      "type": "function"
    },
    {
      "inputs": [
        {
          "internalType": "uint256",
          "name": "amount",
          "type": "uint256"
        },
        {
          "internalType": "address",
          "name": "tokenToShort",
          "type": "address"
        },
        {
          "internalType": "uint24",
          "name": "poolFee",
          "type": "uint24"
        },
        {
          "internalType": "uint256",
          "name": "amountOutMin",
          "type": "uint256"
        }
      ],
      "name": "swapAndShortStandard",
      "outputs": [
        {
          "internalType": "uint256",
          "name": "amountOut",
          "type": "uint256"
        }
      ],
      "stateMutability": "nonpayable",
      "type": "function"
    },
    {
      "inputs": [
        {
          "internalType": "address",
          "name": "user",
          "type": "address"
        },
        {
          "internalType": "uint256",
          "name": "_userShortID",
          "type": "uint256"
        },
        {
          "internalType": "uint256",
          "name": "priceAtClose",
          "type": "uint256"
        }
      ],
      "name": "closeShortStandardPool",
      "outputs": [],
      "stateMutability": "nonpayable",
      "type": "function"
    }
  ],
  "bytecode": "0x60a06040523480156200001157600080fd5b5060405162002968380380620029688339818101604052810190620000379190620001b7565b336000806101000a81548173ffffffffffffffffffffffffffffffffffffffff021916908373ffffffffffffffffffffffffffffffffffffffff1602179055508173ffffffffffffffffffffffffffffffffffffffff1660808173ffffffffffffffffffffffffffffffffffffffff168152505080600360006101000a81548173ffffffffffffffffffffffffffffffffffffffff021916908373ffffffffffffffffffffffffffffffffffffffff1602179055505050620001fe565b600080fd5b600073ffffffffffffffffffffffffffffffffffffffff82169050919050565b60006200012682620000f9565b9050919050565b60006200013a8262000119565b9050919050565b6200014c816200012d565b81146200015857600080fd5b50565b6000815190506200016c8162000141565b92915050565b60006200017f8262000119565b9050919050565b620001918162000172565b81146200019d57600080fd5b50565b600081519050620001b18162000186565b92915050565b60008060408385031215620001d157620001d0620000f4565b5b6000620001e1858286016200015b565b9250506020620001f485828601620001a0565b9150509250929050565b608051612732620002366000396000818161098501528181610a5c01528181610c77015281816112a6015261137d01526127326000f3fe6080604052600436106100c65760003560e01c8063a29aa1141161007f578063bc197c8111610059578063bc197c8114610273578063c31c9c07146102b0578063ef1b3166146102db578063f23a6e6114610304576100cd565b8063a29aa114146101cb578063a87430ba146101f6578063aac28b5414610236576100cd565b806301ffc9a7146100cf578063372500ab1461010c578063481fef8a146101235780637423031e1461014c5780637b1609b1146101775780638da5cb5b146101a0576100cd565b366100cd57005b005b3480156100db57600080fd5b506100f660048036038101906100f19190611702565b610341565b604051610103919061174a565b60405180910390f35b34801561011857600080fd5b506101216103bb565b005b34801561012f57600080fd5b5061014a600480360381019061014591906117f9565b6103c6565b005b34801561015857600080fd5b50610161610526565b60405161016e9190611848565b60405180910390f35b34801561018357600080fd5b5061019e60048036038101906101999190611863565b61052c565b005b3480156101ac57600080fd5b506101b56107c7565b6040516101c291906118c5565b60405180910390f35b3480156101d757600080fd5b506101e06107eb565b6040516101ed919061193f565b60405180910390f35b34801561020257600080fd5b5061021d6004803603810190610218919061195a565b610811565b60405161022d9493929190611987565b60405180910390f35b34801561024257600080fd5b5061025d60048036038101906102589190611a07565b61084e565b60405161026a9190611848565b60405180910390f35b34801561027f57600080fd5b5061029a60048036038101906102959190611c7c565b610c60565b6040516102a79190611d5a565b60405180910390f35b3480156102bc57600080fd5b506102c5610c75565b6040516102d29190611d96565b60405180910390f35b3480156102e757600080fd5b5061030260048036038101906102fd9190611db1565b610c99565b005b34801561031057600080fd5b5061032b60048036038101906103269190611df1565b610eb5565b6040516103389190611d5a565b60405180910390f35b60007f4e2312e0000000000000000000000000000000000000000000000000000000007bffffffffffffffffffffffffffffffffffffffffffffffffffffffff1916827bffffffffffffffffffffffffffffffffffffffffffffffffffffffff191614806103b457506103b382610eca565b5b9050919050565b6103c433610f34565b565b736b175474e89094c44da98b954eedeac495271d0f73ffffffffffffffffffffffffffffffffffffffff168173ffffffffffffffffffffffffffffffffffffffff1614610448576040517f08c379a000000000000000000000000000000000000000000000000000000000815260040161043f90611ee5565b60405180910390fd5b81600160003373ffffffffffffffffffffffffffffffffffffffff1673ffffffffffffffffffffffffffffffffffffffff168152602001908152602001600020600001600082825461049a9190611f34565b925050819055508073ffffffffffffffffffffffffffffffffffffffff166323b872dd3330856040518463ffffffff1660e01b81526004016104de93929190611f8a565b6020604051808303816000875af11580156104fd573d6000803e3d6000fd5b505050506040513d601f19601f820116820180604052508101906105219190611fed565b505050565b60025481565b3373ffffffffffffffffffffffffffffffffffffffff168373ffffffffffffffffffffffffffffffffffffffff161461059a576040517f08c379a000000000000000000000000000000000000000000000000000000000815260040161059190612066565b60405180910390fd5b60008073__PnLCalculator_________________________63896b198a600160003373ffffffffffffffffffffffffffffffffffffffff1673ffffffffffffffffffffffffffffffffffffffff168152602001908152602001600020600501600087815260200190815260200160002054856040518363ffffffff1660e01b8152600401610629929190612095565b6040805180830381865af4158015610645573d6000803e3d6000fd5b505050506040513d601f19601f82011682018060405250810190610669919061210c565b60ff169150915060008114156106d75781600160003373ffffffffffffffffffffffffffffffffffffffff1673ffffffffffffffffffffffffffffffffffffffff16815260200190815260200160002060000160008282546106cb9190611f34565b92505081905550610754565b60018114156107535781600160003373ffffffffffffffffffffffffffffffffffffffff1673ffffffffffffffffffffffffffffffffffffffff1681526020019081526020016000206000016000828254610732919061214c565b92505081905550816002600082825461074b9190611f34565b925050819055505b5b6000600160003373ffffffffffffffffffffffffffffffffffffffff1673ffffffffffffffffffffffffffffffffffffffff168152602001908152602001600020600601600086815260200190815260200160002060006101000a81548160ff0219169083151502179055505050505050565b60008054906101000a900473ffffffffffffffffffffffffffffffffffffffff1681565b600360009054906101000a900473ffffffffffffffffffffffffffffffffffffffff1681565b60016020528060005260406000206000915090508060000154908060010154908060020160009054906101000a900460ff16908060030154905084565b6000600160003373ffffffffffffffffffffffffffffffffffffffff1673ffffffffffffffffffffffffffffffffffffffff168152602001908152602001600020600001548511156108d5576040517f08c379a00000000000000000000000000000000000000000000000000000000081526004016108cc906121cc565b60405180910390fd5b60018060003373ffffffffffffffffffffffffffffffffffffffff1673ffffffffffffffffffffffffffffffffffffffff16815260200190815260200160002060030160008282546109279190611f34565b9250508190555060006064605f8761093f91906121ec565b6109499190612275565b905061096b736b175474e89094c44da98b954eedeac495271d0f333089610ff1565b6109aa736b175474e89094c44da98b954eedeac495271d0f7f000000000000000000000000000000000000000000000000000000000000000088611149565b6000604051806101000160405280736b175474e89094c44da98b954eedeac495271d0f73ffffffffffffffffffffffffffffffffffffffff1681526020018773ffffffffffffffffffffffffffffffffffffffff1681526020018662ffffff1681526020013073ffffffffffffffffffffffffffffffffffffffff168152602001428152602001838152602001858152602001600073ffffffffffffffffffffffffffffffffffffffff1681525090507f000000000000000000000000000000000000000000000000000000000000000073ffffffffffffffffffffffffffffffffffffffff1663414bf389826040518263ffffffff1660e01b8152600401610ab39190612384565b6020604051808303816000875af1158015610ad2573d6000803e3d6000fd5b505050506040513d601f19601f82011682018060405250810190610af691906123a0565b92506000610bb89050610b0d33888389888a61129e565b5080600160003373ffffffffffffffffffffffffffffffffffffffff1673ffffffffffffffffffffffffffffffffffffffff1681526020019081526020016000206005016000600160003373ffffffffffffffffffffffffffffffffffffffff1673ffffffffffffffffffffffffffffffffffffffff1681526020019081526020016000206003015481526020019081526020016000208190555060018060003373ffffffffffffffffffffffffffffffffffffffff1673ffffffffffffffffffffffffffffffffffffffff1681526020019081526020016000206006016000600160003373ffffffffffffffffffffffffffffffffffffffff1673ffffffffffffffffffffffffffffffffffffffff16815260200190815260200160002060030154815260200190815260200160002060006101000a81548160ff021916908315150217905550505050949350505050565b600063bc197c8160e01b905095945050505050565b7f000000000000000000000000000000000000000000000000000000000000000081565b600160003373ffffffffffffffffffffffffffffffffffffffff1673ffffffffffffffffffffffffffffffffffffffff16815260200190815260200160002060000154821115610d1e576040517f08c379a0000000000000000000000000000000000000000000000000000000008152600401610d159061243f565b60405180910390fd5b60001515600160003373ffffffffffffffffffffffffffffffffffffffff1673ffffffffffffffffffffffffffffffffffffffff168152602001908152602001600020600601600083815260200190815260200160002060009054906101000a900460ff16151514610dc5576040517f08c379a0000000000000000000000000000000000000000000000000000000008152600401610dbc906124f7565b60405180910390fd5b81600160003373ffffffffffffffffffffffffffffffffffffffff1673ffffffffffffffffffffffffffffffffffffffff1681526020019081526020016000206000016000828254610e17919061214c565b92505081905550736b175474e89094c44da98b954eedeac495271d0f73ffffffffffffffffffffffffffffffffffffffff1663a9059cbb33846040518363ffffffff1660e01b8152600401610e6d929190612517565b6020604051808303816000875af1158015610e8c573d6000803e3d6000fd5b505050506040513d601f19601f82011682018060405250810190610eb09190611fed565b505050565b600063f23a6e6160e01b905095945050505050565b60007f01ffc9a7000000000000000000000000000000000000000000000000000000007bffffffffffffffffffffffffffffffffffffffffffffffffffffffff1916827bffffffffffffffffffffffffffffffffffffffffffffffffffffffff1916149050919050565b6000610f3f82611553565b90506000811115610fed5780600160008473ffffffffffffffffffffffffffffffffffffffff1673ffffffffffffffffffffffffffffffffffffffff1681526020019081526020016000206000016000828254610f9c9190611f34565b92505081905550600254600160008473ffffffffffffffffffffffffffffffffffffffff1673ffffffffffffffffffffffffffffffffffffffff168152602001908152602001600020600101819055505b5050565b6000808573ffffffffffffffffffffffffffffffffffffffff166323b872dd60e01b86868660405160240161102893929190611f8a565b604051602081830303815290604052907bffffffffffffffffffffffffffffffffffffffffffffffffffffffff19166020820180517bffffffffffffffffffffffffffffffffffffffffffffffffffffffff838183161783525050505060405161109291906125ba565b6000604051808303816000865af19150503d80600081146110cf576040519150601f19603f3d011682016040523d82523d6000602084013e6110d4565b606091505b509150915081801561110257506000815114806111015750808060200190518101906111009190611fed565b5b5b611141576040517f08c379a00000000000000000000000000000000000000000000000000000000081526004016111389061261d565b60405180910390fd5b505050505050565b6000808473ffffffffffffffffffffffffffffffffffffffff1663095ea7b360e01b858560405160240161117e929190612517565b604051602081830303815290604052907bffffffffffffffffffffffffffffffffffffffffffffffffffffffff19166020820180517bffffffffffffffffffffffffffffffffffffffffffffffffffffffff83818316178352505050506040516111e891906125ba565b6000604051808303816000865af19150503d8060008114611225576040519150601f19603f3d011682016040523d82523d6000602084013e61122a565b606091505b509150915081801561125857506000815114806112575750808060200190518101906112569190611fed565b5b5b611297576040517f08c379a000000000000000000000000000000000000000000000000000000000815260040161128e90612689565b60405180910390fd5b5050505050565b60006112cb867f000000000000000000000000000000000000000000000000000000000000000085611149565b60006040518061010001604052808873ffffffffffffffffffffffffffffffffffffffff168152602001736b175474e89094c44da98b954eedeac495271d0f73ffffffffffffffffffffffffffffffffffffffff1681526020018662ffffff1681526020013073ffffffffffffffffffffffffffffffffffffffff168152602001428152602001858152602001848152602001600073ffffffffffffffffffffffffffffffffffffffff1681525090507f000000000000000000000000000000000000000000000000000000000000000073ffffffffffffffffffffffffffffffffffffffff1663414bf389826040518263ffffffff1660e01b81526004016113d49190612384565b6020604051808303816000875af11580156113f3573d6000803e3d6000fd5b505050506040513d601f19601f8201168201806040525081019061141791906123a0565b915081600160003373ffffffffffffffffffffffffffffffffffffffff1673ffffffffffffffffffffffffffffffffffffffff1681526020019081526020016000206004016000600160003373ffffffffffffffffffffffffffffffffffffffff1673ffffffffffffffffffffffffffffffffffffffff16815260200190815260200160002060030154815260200190815260200160002081905550600360009054906101000a900473ffffffffffffffffffffffffffffffffffffffff1673ffffffffffffffffffffffffffffffffffffffff1663c25df92d8930878b8b6040518663ffffffff1660e01b81526004016115169594939291906126a9565b600060405180830381600087803b15801561153057600080fd5b505af1158015611544573d6000803e3d6000fd5b50505050509695505050505050565b600080600160008473ffffffffffffffffffffffffffffffffffffffff1673ffffffffffffffffffffffffffffffffffffffff168152602001908152602001600020600101546002546115a6919061214c565b9050736b175474e89094c44da98b954eedeac495271d0f73ffffffffffffffffffffffffffffffffffffffff166370a08231306040518263ffffffff1660e01b81526004016115f591906118c5565b602060405180830381865afa158015611612573d6000803e3d6000fd5b505050506040513d601f19601f8201168201806040525081019061163691906123a0565b81600160008673ffffffffffffffffffffffffffffffffffffffff1673ffffffffffffffffffffffffffffffffffffffff1681526020019081526020016000206000015461168491906121ec565b61168e9190612275565b915050919050565b6000604051905090565b600080fd5b600080fd5b60007fffffffff0000000000000000000000000000000000000000000000000000000082169050919050565b6116df816116aa565b81146116ea57600080fd5b50565b6000813590506116fc816116d6565b92915050565b600060208284031215611718576117176116a0565b5b6000611726848285016116ed565b91505092915050565b60008115159050919050565b6117448161172f565b82525050565b600060208201905061175f600083018461173b565b92915050565b6000819050919050565b61177881611765565b811461178357600080fd5b50565b6000813590506117958161176f565b92915050565b600073ffffffffffffffffffffffffffffffffffffffff82169050919050565b60006117c68261179b565b9050919050565b6117d6816117bb565b81146117e157600080fd5b50565b6000813590506117f3816117cd565b92915050565b600080604083850312156118105761180f6116a0565b5b600061181e85828601611786565b925050602061182f858286016117e4565b9150509250929050565b61184281611765565b82525050565b600060208201905061185d6000830184611839565b92915050565b60008060006060848603121561187c5761187b6116a0565b5b600061188a868287016117e4565b935050602061189b86828701611786565b92505060406118ac86828701611786565b9150509250925092565b6118bf816117bb565b82525050565b60006020820190506118da60008301846118b6565b92915050565b6000819050919050565b60006119056119006118fb8461179b565b6118e0565b61179b565b9050919050565b6000611917826118ea565b9050919050565b60006119298261190c565b9050919050565b6119398161191e565b82525050565b60006020820190506119546000830184611930565b92915050565b6000602082840312156119705761196f6116a0565b5b600061197e848285016117e4565b91505092915050565b600060808201905061199c6000830187611839565b6119a96020830186611839565b6119b6604083018561173b565b6119c36060830184611839565b95945050505050565b600062ffffff82169050919050565b6119e4816119cc565b81146119ef57600080fd5b50565b600081359050611a01816119db565b92915050565b60008060008060808587031215611a2157611a206116a0565b5b6000611a2f87828801611786565b9450506020611a40878288016117e4565b9350506040611a51878288016119f2565b9250506060611a6287828801611786565b91505092959194509250565b600080fd5b6000601f19601f8301169050919050565b7f4e487b7100000000000000000000000000000000000000000000000000000000600052604160045260246000fd5b611abc82611a73565b810181811067ffffffffffffffff82111715611adb57611ada611a84565b5b80604052505050565b6000611aee611696565b9050611afa8282611ab3565b919050565b600067ffffffffffffffff821115611b1a57611b19611a84565b5b602082029050602081019050919050565b600080fd5b6000611b43611b3e84611aff565b611ae4565b90508083825260208201905060208402830185811115611b6657611b65611b2b565b5b835b81811015611b8f5780611b7b8882611786565b845260208401935050602081019050611b68565b5050509392505050565b600082601f830112611bae57611bad611a6e565b5b8135611bbe848260208601611b30565b91505092915050565b600080fd5b600067ffffffffffffffff821115611be757611be6611a84565b5b611bf082611a73565b9050602081019050919050565b82818337600083830152505050565b6000611c1f611c1a84611bcc565b611ae4565b905082815260208101848484011115611c3b57611c3a611bc7565b5b611c46848285611bfd565b509392505050565b600082601f830112611c6357611c62611a6e565b5b8135611c73848260208601611c0c565b91505092915050565b600080600080600060a08688031215611c9857611c976116a0565b5b6000611ca6888289016117e4565b9550506020611cb7888289016117e4565b945050604086013567ffffffffffffffff811115611cd857611cd76116a5565b5b611ce488828901611b99565b935050606086013567ffffffffffffffff811115611d0557611d046116a5565b5b611d1188828901611b99565b925050608086013567ffffffffffffffff811115611d3257611d316116a5565b5b611d3e88828901611c4e565b9150509295509295909350565b611d54816116aa565b82525050565b6000602082019050611d6f6000830184611d4b565b92915050565b6000611d808261190c565b9050919050565b611d9081611d75565b82525050565b6000602082019050611dab6000830184611d87565b92915050565b60008060408385031215611dc857611dc76116a0565b5b6000611dd685828601611786565b9250506020611de785828601611786565b9150509250929050565b600080600080600060a08688031215611e0d57611e0c6116a0565b5b6000611e1b888289016117e4565b9550506020611e2c888289016117e4565b9450506040611e3d88828901611786565b9350506060611e4e88828901611786565b925050608086013567ffffffffffffffff811115611e6f57611e6e6116a5565b5b611e7b88828901611c4e565b9150509295509295909350565b600082825260208201905092915050565b7f5354414e4441524420504f4f4c3a204e6f742044414900000000000000000000600082015250565b6000611ecf601683611e88565b9150611eda82611e99565b602082019050919050565b60006020820190508181036000830152611efe81611ec2565b9050919050565b7f4e487b7100000000000000000000000000000000000000000000000000000000600052601160045260246000fd5b6000611f3f82611765565b9150611f4a83611765565b9250827fffffffffffffffffffffffffffffffffffffffffffffffffffffffffffffffff03821115611f7f57611f7e611f05565b5b828201905092915050565b6000606082019050611f9f60008301866118b6565b611fac60208301856118b6565b611fb96040830184611839565b949350505050565b611fca8161172f565b8114611fd557600080fd5b50565b600081519050611fe781611fc1565b92915050565b600060208284031215612003576120026116a0565b5b600061201184828501611fd8565b91505092915050565b7f434c4f53453a204e6f7420796f757220706f736974696f6e0000000000000000600082015250565b6000612050601883611e88565b915061205b8261201a565b602082019050919050565b6000602082019050818103600083015261207f81612043565b9050919050565b61208f81611765565b82525050565b60006040820190506120aa6000830185612086565b6120b76020830184612086565b9392505050565b6000815190506120cd8161176f565b92915050565b600060ff82169050919050565b6120e9816120d3565b81146120f457600080fd5b50565b600081519050612106816120e0565b92915050565b60008060408385031215612123576121226116a0565b5b6000612131858286016120be565b9250506020612142858286016120f7565b9150509250929050565b600061215782611765565b915061216283611765565b92508282101561217557612174611f05565b5b828203905092915050565b7f535741503a206e6f7420656e6f75676820636f6c6c61746572616c0000000000600082015250565b60006121b6601b83611e88565b91506121c182612180565b602082019050919050565b600060208201905081810360008301526121e5816121a9565b9050919050565b60006121f782611765565b915061220283611765565b9250817fffffffffffffffffffffffffffffffffffffffffffffffffffffffffffffffff048311821515161561223b5761223a611f05565b5b828202905092915050565b7f4e487b7100000000000000000000000000000000000000000000000000000000600052601260045260246000fd5b600061228082611765565b915061228b83611765565b92508261229b5761229a612246565b5b828204905092915050565b6122af816117bb565b82525050565b6122be816119cc565b82525050565b6122cd81611765565b82525050565b6122dc8161179b565b82525050565b610100820160008201516122f960008501826122a6565b50602082015161230c60208501826122a6565b50604082015161231f60408501826122b5565b50606082015161233260608501826122a6565b50608082015161234560808501826122c4565b5060a082015161235860a08501826122c4565b5060c082015161236b60c08501826122c4565b5060e082015161237e60e08501826122d3565b50505050565b60006101008201905061239a60008301846122e2565b92915050565b6000602082840312156123b6576123b56116a0565b5b60006123c4848285016120be565b91505092915050565b7f434f4c4c41544552414c3a20747279696e6720746f207769746864726177206d60008201527f6f726520636f6c6c61746572616c207468616e206465706f7369746564000000602082015250565b6000612429603d83611e88565b9150612434826123cd565b604082019050919050565b600060208201905081810360008301526124588161241c565b9050919050565b7f434f4c4c41544552414c3a20636c6f736520796f75722063757272656e74207060008201527f6f736974696f6e206265666f726520747279696e6720746f207769746864726160208201527f7700000000000000000000000000000000000000000000000000000000000000604082015250565b60006124e1604183611e88565b91506124ec8261245f565b606082019050919050565b60006020820190508181036000830152612510816124d4565b9050919050565b600060408201905061252c60008301856118b6565b6125396020830184611839565b9392505050565b600081519050919050565b600081905092915050565b60005b83811015612574578082015181840152602081019050612559565b83811115612583576000848401525b50505050565b600061259482612540565b61259e818561254b565b93506125ae818560208601612556565b80840191505092915050565b60006125c68284612589565b915081905092915050565b7f5354460000000000000000000000000000000000000000000000000000000000600082015250565b6000612607600383611e88565b9150612612826125d1565b602082019050919050565b60006020820190508181036000830152612636816125fa565b9050919050565b7f5341000000000000000000000000000000000000000000000000000000000000600082015250565b6000612673600283611e88565b915061267e8261263d565b602082019050919050565b600060208201905081810360008301526126a281612666565b9050919050565b600060a0820190506126be60008301886118b6565b6126cb60208301876118b6565b6126d86040830186611839565b6126e560608301856118b6565b6126f26080830184611839565b969550505050505056fea264697066735822122067cc615efd9c93ec779a353653b6b7d684479a5a8ab5e25ef334154475a3409964736f6c634300080a0033",
  "immutableReferences": {
    "2109": [
      {
        "length": 32,
        "start": 2437
      },
      {
        "length": 32,
        "start": 2652
      },
      {
        "length": 32,
        "start": 3191
      },
      {
        "length": 32,
        "start": 4774
      },
      {
        "length": 32,
        "start": 4989
      }
    ]
  },
  "source": "// SPDX-License-Identifier: MIT\npragma solidity ^0.8.0; //solhint-disable compiler-fixed\npragma abicoder v2;\n\n\nimport \"@openzeppelin/contracts/token/ERC1155/IERC1155.sol\";\nimport \"@openzeppelin/contracts/token/ERC1155/utils/ERC1155Holder.sol\";\nimport \"@uniswap/v3-periphery/contracts/interfaces/ISwapRouter.sol\";\nimport \"@uniswap/v3-periphery/contracts/libraries/TransferHelper.sol\";\nimport \"@openzeppelin/contracts/token/ERC20/IERC20.sol\";\nimport \"./BeraWrapper.sol\";\nimport \"./ancillary/PnLCalculator.sol\";\n\n\ncontract BeraPoolStandardRisk is ERC1155Holder {\n\n    address public owner;\n\n    struct Account {\n        uint userDepositBalance;\n        uint lastClaimedRewards;\n        bool hasCollateral;\n        uint userShortID;\n        mapping(uint => uint) userShortBalanceByID;\n        mapping(uint => uint) entryPrices;\n        mapping(uint => bool) isPositionInShort;\n    }\n\n    mapping(address => Account) public users;\n    // mapping(address => uint) public userDepositBalance;\n    // mapping(address => mapping(uint => uint)) public userShortBalance;\n    // mapping(address => uint) internal userShortID;\n    // mapping(address => bool) internal hasCollateral;\n    // //nested mapping so multiple positions can be opened by the same user\n    // mapping(address => mapping(uint => uint)) public entryPrices;\n    // //stores which position is in a short for withdraw purposes later\n    // mapping(address => mapping(uint => bool)) internal inShort; //stores whether user is currently in a position\n\n    uint public globalRewards;\n\n    address private constant DAI_ADDRESS = 0x6B175474E89094C44Da98b954EedeAC495271d0F;\n\n    ISwapRouter public immutable swapRouter;\n    BeraWrapper public beraWrapper;\n\n    constructor(ISwapRouter _swapRouter,\n        BeraWrapper _beraWrapper) { //solhint-disable func-visibility\n        owner = msg.sender;\n        swapRouter = _swapRouter;\n        beraWrapper = _beraWrapper;\n    }\n\n    function depositCollateral(uint amount, address collateral) external {\n        require(IERC20(collateral) == IERC20(DAI_ADDRESS), \"STANDARD POOL: Not DAI\");\n\n        //we use the hasCollateral mapping to avoid having to loop through the array when removing\n        //the user from the users who receive the distribution of funds for yield\n\n        //used for withdrawl later\n        users[msg.sender].userDepositBalance += amount;\n\n        //transfer DAI to this contract\n        IERC20(collateral).transferFrom(msg.sender, address(this), amount);\n    }\n\n    function withdrawFromPool(uint amount, uint _userShortID) external {\n        require(amount <= users[msg.sender].userDepositBalance,\n            \"COLLATERAL: trying to withdraw more collateral than deposited\");\n\n        //checking if the funds locked in the position have been released before allowing them to be withdrawn\n        require(users[msg.sender].isPositionInShort[_userShortID] == false,\n            \"COLLATERAL: close your current position before trying to withdraw\");\n\n        //reset balance of user on withdraw\n        users[msg.sender].userDepositBalance -= amount;\n        //\n        // if (userDepositBalance[msg.sender] == 0) {\n        //     hasCollateral[msg.sender] = false;\n        // }\n\n        IERC20(DAI_ADDRESS).transfer(msg.sender, amount);\n    }\n\n    //used to claim the profit rewards from being in the pool\n    function claimRewards() external {\n        checkOwedProfits(msg.sender);\n    }\n\n    // deposit collateral into user account before being allowed to short\n    function swapAndShortStandard(\n            uint amount,\n            address tokenToShort,\n            uint24 poolFee, //needed for uniswap pool\n            uint amountOutMin)\n            external returns(uint amountOut) { //solhint-disable function-max-lines\n                require(amount <= users[msg.sender].userDepositBalance, \"SWAP: not enough collateral\");\n\n                //TODO\n                //update userDepositBalance -= amount;\n\n                //by default uints are initialized at 0 so this should work???\n                users[msg.sender].userShortID += 1;\n\n                //keeping 5% of dai in contract to be distributed to liq providers on loss of pool\n                uint amountToSend = amount * 95 / 100;\n\n                TransferHelper.safeTransferFrom(DAI_ADDRESS, msg.sender, address(this), amount);\n                TransferHelper.safeApprove(DAI_ADDRESS, address(swapRouter), amount);\n\n                ISwapRouter.ExactInputSingleParams memory params =\n                ISwapRouter.ExactInputSingleParams({\n                    tokenIn: DAI_ADDRESS,\n                    tokenOut: tokenToShort,\n                    fee: poolFee,\n                    recipient: address(this),\n                    deadline: block.timestamp, //solhint-disable not-rely-on-time\n                    amountIn: amountToSend,\n                    amountOutMinimum: amountOutMin,\n                    sqrtPriceLimitX96: 0\n                });\n\n                //execute the frist swap\n                amountOut = swapRouter.exactInputSingle(params);\n\n                //Call twapPriceOracle here or find a better way to capture price\n                //TODO: Price wrapping\n                //TEST ONLY\n                uint priceAtWrap = 3000;\n\n                //execute the second swap and transfer funds to pool for holding\n                _shortForUser(\n                    msg.sender,\n                    tokenToShort,\n                    priceAtWrap,\n                    poolFee,\n                    amountOut,\n                    amountOutMin\n                );\n\n                //update entry price mapping\n                //this stores the entry price of msg.sender for this specific shortID of msg.sender\n                //nested mappings look cringe but are efficient\n                users[msg.sender].entryPrices[users[msg.sender].userShortID] = priceAtWrap;\n\n                //update userPositionNumber current short status\n                // inShort[msg.sender][userShortID[msg.sender]] = true;\n                users[msg.sender].isPositionInShort[users[msg.sender].userShortID] = true;\n\n            }\n\n    //TODO\n    //contract already has the DAI needed to close the trade, can just check the price and\n    //calculate the difference between the opening and closing prices, no need for expensive swaps\n    //in the standardPool contract\n    function closeShortStandardPool(\n        address user,\n        uint _userShortID,\n        uint priceAtClose)\n        external {\n            require(user == msg.sender, \"CLOSE: Not your position\");\n\n            //TODO\n            //require priceAtClose == twapPriceOracle();\n\n            //calculate position balance using entryPrices vs current price\n            //returnValue of 0 indicates a winning trade, while 1 indicates a loss\n            (uint amountPNL, uint returnValue) =\n            PnLCalculator.calculatePNL(users[msg.sender].entryPrices[_userShortID], priceAtClose);\n\n            // //check if user has enough collateral and does not carry a negative balance\n            // if (amountToSend <= userDepositBalance[msg.sender] && returnValue == 1) {\n            //     //TODO\n            //     //liquidateUser();\n            //     //include distribution of funds\n            // }\n\n            //if user has made money, we update their balance directly\n            if (returnValue == 0) {\n                users[msg.sender].userDepositBalance += amountPNL;\n            } else if (returnValue == 1) {\n                //distribute user loss amongst pool if losing short\n                users[msg.sender].userDepositBalance -= amountPNL;\n                globalRewards += amountPNL;\n            }\n\n            //update current userPositionNumber to free withdraws of these specific funds\n            // inShort[msg.sender][_userShortID] = false;\n            users[msg.sender].isPositionInShort[_userShortID] = false;\n\n        }\n\n    function _shortForUser(\n        address user,\n        address tokenToShort,\n        uint priceAtWrap,\n        uint24 poolFee,\n        uint amount,\n        uint amountOutMin) internal returns(uint amountOut) {\n        //funds are currently in the contract, so no need to swap back and forth anymore\n        //should just be able to call the second swap\n\n        TransferHelper.safeApprove(tokenToShort, address(swapRouter), amount);\n\n        //now that this contract has the desired token to short, we sell @ market back for DAI\n        ISwapRouter.ExactInputSingleParams memory tokenParams =\n        ISwapRouter.ExactInputSingleParams({\n            tokenIn: tokenToShort,\n            tokenOut: DAI_ADDRESS,\n            fee: poolFee,\n            recipient: address(this), //the pool contract will store both DAI from deposits and tokenOut\n            deadline: block.timestamp, //solhint-disable not-rely-on-time\n            amountIn: amount,\n            amountOutMinimum: amountOutMin,\n            sqrtPriceLimitX96: 0\n        });\n\n        // execute the short, amountOut is wETH in this test case\n        amountOut = swapRouter.exactInputSingle(tokenParams);\n\n        //update user balance of the user current positionID\n        //this is used to keep track of how much of the users deposit is currently being used\n        //userShortBalance[msg.sender][userShortID[msg.sender]] = amountOut;\n        users[msg.sender].userShortBalanceByID[users[msg.sender].userShortID] = amountOut;\n\n        //wrap position in ERC1155\n        beraWrapper.wrapPosition(user, address(this), amount, tokenToShort, priceAtWrap);\n    }\n\n    //the percentage reward is based on the last time they claimed vs the total reward calculated\n    //this will allow us to avoid using a loop for reward distribution\n    //and allow users to pull their own rewards when they want\n    function getUserProfits(address user) internal returns (uint) {\n        uint percentageReward = globalRewards - users[user].lastClaimedRewards;\n        return users[user].userDepositBalance * percentageReward / IERC20(DAI_ADDRESS).balanceOf(address(this));\n    }\n\n    function checkOwedProfits(address user) internal {\n        uint owed = getUserProfits(user);\n        if (owed > 0) {\n            users[user].userDepositBalance += owed;\n            users[user].lastClaimedRewards = globalRewards;\n        }\n    }\n\n    receive() external payable { //solhint-disable state-visibility\n\n}\n\n    fallback() external payable { //solhint-disable\n\n}\n\n}\n",
  "sourcePath": "/home/kevin/Code/solidity_projects/beraMarket/contracts/BeraPoolStandardRisk.sol",
  "compiler": {
    "name": "solc",
    "version": "0.8.10+commit.fc410830.Emscripten.clang"
  },
  "schemaVersion": "3.4.3",
  "updatedAt": "2021-12-17T15:45:35.277Z",
  "devdoc": {
    "kind": "dev",
    "methods": {
      "supportsInterface(bytes4)": {
        "details": "See {IERC165-supportsInterface}."
      }
    },
    "version": 1
  },
  "userdoc": {
    "kind": "user",
    "methods": {},
    "version": 1
  }
}