{
  "contractName": "BeraWrapper",
  "abi": [
    {
      "inputs": [],
      "stateMutability": "nonpayable",
      "type": "constructor"
    },
    {
      "anonymous": false,
      "inputs": [
        {
          "indexed": true,
          "internalType": "address",
          "name": "account",
          "type": "address"
        },
        {
          "indexed": true,
          "internalType": "address",
          "name": "operator",
          "type": "address"
        },
        {
          "indexed": false,
          "internalType": "bool",
          "name": "approved",
          "type": "bool"
        }
      ],
      "name": "ApprovalForAll",
      "type": "event"
    },
    {
      "anonymous": false,
      "inputs": [
        {
          "indexed": true,
          "internalType": "address",
          "name": "operator",
          "type": "address"
        },
        {
          "indexed": true,
          "internalType": "address",
          "name": "from",
          "type": "address"
        },
        {
          "indexed": true,
          "internalType": "address",
          "name": "to",
          "type": "address"
        },
        {
          "indexed": false,
          "internalType": "uint256[]",
          "name": "ids",
          "type": "uint256[]"
        },
        {
          "indexed": false,
          "internalType": "uint256[]",
          "name": "values",
          "type": "uint256[]"
        }
      ],
      "name": "TransferBatch",
      "type": "event"
    },
    {
      "anonymous": false,
      "inputs": [
        {
          "indexed": true,
          "internalType": "address",
          "name": "operator",
          "type": "address"
        },
        {
          "indexed": true,
          "internalType": "address",
          "name": "from",
          "type": "address"
        },
        {
          "indexed": true,
          "internalType": "address",
          "name": "to",
          "type": "address"
        },
        {
          "indexed": false,
          "internalType": "uint256",
          "name": "id",
          "type": "uint256"
        },
        {
          "indexed": false,
          "internalType": "uint256",
          "name": "value",
          "type": "uint256"
        }
      ],
      "name": "TransferSingle",
      "type": "event"
    },
    {
      "anonymous": false,
      "inputs": [
        {
          "indexed": false,
          "internalType": "string",
          "name": "value",
          "type": "string"
        },
        {
          "indexed": true,
          "internalType": "uint256",
          "name": "id",
          "type": "uint256"
        }
      ],
      "name": "URI",
      "type": "event"
    },
    {
      "inputs": [
        {
          "internalType": "address",
          "name": "account",
          "type": "address"
        },
        {
          "internalType": "uint256",
          "name": "id",
          "type": "uint256"
        }
      ],
      "name": "balanceOf",
      "outputs": [
        {
          "internalType": "uint256",
          "name": "",
          "type": "uint256"
        }
      ],
      "stateMutability": "view",
      "type": "function",
      "constant": true
    },
    {
      "inputs": [
        {
          "internalType": "address[]",
          "name": "accounts",
          "type": "address[]"
        },
        {
          "internalType": "uint256[]",
          "name": "ids",
          "type": "uint256[]"
        }
      ],
      "name": "balanceOfBatch",
      "outputs": [
        {
          "internalType": "uint256[]",
          "name": "",
          "type": "uint256[]"
        }
      ],
      "stateMutability": "view",
      "type": "function",
      "constant": true
    },
    {
      "inputs": [
        {
          "internalType": "address",
          "name": "account",
          "type": "address"
        },
        {
          "internalType": "address",
          "name": "operator",
          "type": "address"
        }
      ],
      "name": "isApprovedForAll",
      "outputs": [
        {
          "internalType": "bool",
          "name": "",
          "type": "bool"
        }
      ],
      "stateMutability": "view",
      "type": "function",
      "constant": true
    },
    {
      "inputs": [],
      "name": "owner",
      "outputs": [
        {
          "internalType": "address",
          "name": "",
          "type": "address"
        }
      ],
      "stateMutability": "view",
      "type": "function",
      "constant": true
    },
    {
      "inputs": [
        {
          "internalType": "uint256",
          "name": "",
          "type": "uint256"
        }
      ],
      "name": "positionData",
      "outputs": [
        {
          "internalType": "address",
          "name": "associatedPool",
          "type": "address"
        },
        {
          "internalType": "uint256",
          "name": "shortAmount",
          "type": "uint256"
        },
        {
          "internalType": "address",
          "name": "tokenShorted",
          "type": "address"
        },
        {
          "internalType": "uint256",
          "name": "priceAtWrap",
          "type": "uint256"
        }
      ],
      "stateMutability": "view",
      "type": "function",
      "constant": true
    },
    {
      "inputs": [],
      "name": "positionIDTotal",
      "outputs": [
        {
          "internalType": "uint256",
          "name": "",
          "type": "uint256"
        }
      ],
      "stateMutability": "view",
      "type": "function",
      "constant": true
    },
    {
      "inputs": [
        {
          "internalType": "address",
          "name": "from",
          "type": "address"
        },
        {
          "internalType": "address",
          "name": "to",
          "type": "address"
        },
        {
          "internalType": "uint256[]",
          "name": "ids",
          "type": "uint256[]"
        },
        {
          "internalType": "uint256[]",
          "name": "amounts",
          "type": "uint256[]"
        },
        {
          "internalType": "bytes",
          "name": "data",
          "type": "bytes"
        }
      ],
      "name": "safeBatchTransferFrom",
      "outputs": [],
      "stateMutability": "nonpayable",
      "type": "function"
    },
    {
      "inputs": [
        {
          "internalType": "address",
          "name": "from",
          "type": "address"
        },
        {
          "internalType": "address",
          "name": "to",
          "type": "address"
        },
        {
          "internalType": "uint256",
          "name": "id",
          "type": "uint256"
        },
        {
          "internalType": "uint256",
          "name": "amount",
          "type": "uint256"
        },
        {
          "internalType": "bytes",
          "name": "data",
          "type": "bytes"
        }
      ],
      "name": "safeTransferFrom",
      "outputs": [],
      "stateMutability": "nonpayable",
      "type": "function"
    },
    {
      "inputs": [
        {
          "internalType": "address",
          "name": "operator",
          "type": "address"
        },
        {
          "internalType": "bool",
          "name": "approved",
          "type": "bool"
        }
      ],
      "name": "setApprovalForAll",
      "outputs": [],
      "stateMutability": "nonpayable",
      "type": "function"
    },
    {
      "inputs": [
        {
          "internalType": "bytes4",
          "name": "interfaceId",
          "type": "bytes4"
        }
      ],
      "name": "supportsInterface",
      "outputs": [
        {
          "internalType": "bool",
          "name": "",
          "type": "bool"
        }
      ],
      "stateMutability": "view",
      "type": "function",
      "constant": true
    },
    {
      "inputs": [
        {
          "internalType": "uint256",
          "name": "",
          "type": "uint256"
        }
      ],
      "name": "uri",
      "outputs": [
        {
          "internalType": "string",
          "name": "",
          "type": "string"
        }
      ],
      "stateMutability": "view",
      "type": "function",
      "constant": true
    },
    {
      "inputs": [
        {
          "internalType": "address",
          "name": "associatedPool",
          "type": "address"
        },
        {
          "internalType": "uint256",
          "name": "shortAmount",
          "type": "uint256"
        },
        {
          "internalType": "address",
          "name": "tokenShorted",
          "type": "address"
        },
        {
          "internalType": "uint256",
          "name": "priceAtWrap",
          "type": "uint256"
        }
      ],
      "name": "wrapPosition",
      "outputs": [],
      "stateMutability": "nonpayable",
      "type": "function"
    },
    {
      "inputs": [
        {
          "internalType": "uint256",
          "name": "positionID",
          "type": "uint256"
        }
      ],
      "name": "unwrapPosition",
      "outputs": [],
      "stateMutability": "nonpayable",
      "type": "function"
    },
    {
      "inputs": [
        {
          "internalType": "address",
          "name": "to",
          "type": "address"
        },
        {
          "internalType": "uint256",
          "name": "_positionID",
          "type": "uint256"
        },
        {
          "internalType": "uint256",
          "name": "amount",
          "type": "uint256"
        }
      ],
      "name": "transferPosition",
      "outputs": [],
      "stateMutability": "nonpayable",
      "type": "function"
    },
    {
      "inputs": [
        {
          "internalType": "address",
          "name": "newPositionOwner",
          "type": "address"
        },
        {
          "internalType": "uint256",
          "name": "_positionID",
          "type": "uint256"
        }
      ],
      "name": "updatePosition",
      "outputs": [],
      "stateMutability": "nonpayable",
      "type": "function"
    }
  ],
  "bytecode": "0x60806040523480156200001157600080fd5b506040518060200160405280600081525062000033816200007b60201b60201c565b5033600360006101000a81548173ffffffffffffffffffffffffffffffffffffffff021916908373ffffffffffffffffffffffffffffffffffffffff160217905550620001ac565b80600290805190602001906200009392919062000097565b5050565b828054620000a59062000176565b90600052602060002090601f016020900481019282620000c9576000855562000115565b82601f10620000e457805160ff191683800117855562000115565b8280016001018555821562000115579182015b8281111562000114578251825591602001919060010190620000f7565b5b50905062000124919062000128565b5090565b5b808211156200014357600081600090555060010162000129565b5090565b7f4e487b7100000000000000000000000000000000000000000000000000000000600052602260045260246000fd5b600060028204905060018216806200018f57607f821691505b60208210811415620001a657620001a562000147565b5b50919050565b61304f80620001bc6000396000f3fe608060405234801561001057600080fd5b50600436106100f45760003560e01c80634e1273f411610097578063a0ab910e11610066578063a0ab910e14610281578063a22cb465146102b4578063e985e9c5146102d0578063f242432a14610300576100f4565b80634e1273f4146101fb5780636f12ba7f1461022b5780638da5cb5b1461024757806391b3f9b114610265576100f4565b80630dd80b39116100d35780630dd80b39146101755780630e89341c1461019357806319297ba4146101c35780632eb2c2d6146101df576100f4565b8062fdd58e146100f957806301ffc9a714610129578063070fb8f014610159575b600080fd5b610113600480360381019061010e9190611ae1565b61031c565b6040516101209190611b30565b60405180910390f35b610143600480360381019061013e9190611ba3565b6103e5565b6040516101509190611beb565b60405180910390f35b610173600480360381019061016e9190611c06565b6104c7565b005b61017d6104d6565b60405161018a9190611b30565b60405180910390f35b6101ad60048036038101906101a89190611c06565b6104dc565b6040516101ba9190611ccc565b60405180910390f35b6101dd60048036038101906101d89190611ae1565b610570565b005b6101f960048036038101906101f49190611eeb565b610582565b005b6102156004803603810190610210919061207d565b610623565b60405161022291906121b3565b60405180910390f35b610245600480360381019061024091906121d5565b61073c565b005b61024f6107a8565b60405161025c9190612237565b60405180910390f35b61027f600480360381019061027a9190612252565b6107ce565b005b61029b60048036038101906102969190611c06565b610911565b6040516102ab94939291906122b9565b60405180910390f35b6102ce60048036038101906102c9919061232a565b610981565b005b6102ea60048036038101906102e5919061236a565b610997565b6040516102f79190611beb565b60405180910390f35b61031a600480360381019061031591906123aa565b610a2b565b005b60008073ffffffffffffffffffffffffffffffffffffffff168373ffffffffffffffffffffffffffffffffffffffff16141561038d576040517f08c379a0000000000000000000000000000000000000000000000000000000008152600401610384906124b3565b60405180910390fd5b60008083815260200190815260200160002060008473ffffffffffffffffffffffffffffffffffffffff1673ffffffffffffffffffffffffffffffffffffffff16815260200190815260200160002054905092915050565b60007fd9b67a26000000000000000000000000000000000000000000000000000000007bffffffffffffffffffffffffffffffffffffffffffffffffffffffff1916827bffffffffffffffffffffffffffffffffffffffffffffffffffffffff191614806104b057507f0e89341c000000000000000000000000000000000000000000000000000000007bffffffffffffffffffffffffffffffffffffffffffffffffffffffff1916827bffffffffffffffffffffffffffffffffffffffffffffffffffffffff1916145b806104c057506104bf82610acc565b5b9050919050565b6104d333826001610b36565b50565b60045481565b6060600280546104eb90612502565b80601f016020809104026020016040519081016040528092919081815260200182805461051790612502565b80156105645780601f1061053957610100808354040283529160200191610564565b820191906000526020600020905b81548152906001019060200180831161054757829003601f168201915b50505050509050919050565b600061057c838361031c565b50505050565b61058a610d53565b73ffffffffffffffffffffffffffffffffffffffff168573ffffffffffffffffffffffffffffffffffffffff1614806105d057506105cf856105ca610d53565b610997565b5b61060f576040517f08c379a0000000000000000000000000000000000000000000000000000000008152600401610606906125a6565b60405180910390fd5b61061c8585858585610d5b565b5050505050565b60608151835114610669576040517f08c379a000000000000000000000000000000000000000000000000000000000815260040161066090612638565b60405180910390fd5b6000835167ffffffffffffffff81111561068657610685611cf3565b5b6040519080825280602002602001820160405280156106b45781602001602082028036833780820191505090505b50905060005b8451811015610731576107018582815181106106d9576106d8612658565b5b60200260200101518583815181106106f4576106f3612658565b5b602002602001015161031c565b82828151811061071457610713612658565b5b6020026020010181815250508061072a906126b6565b90506106ba565b508091505092915050565b80610747338461031c565b14610787576040517f08c379a000000000000000000000000000000000000000000000000000000000815260040161077e90612771565b60405180910390fd5b6107a38333848460405180602001604052806000815250610a2b565b505050565b600360009054906101000a900473ffffffffffffffffffffffffffffffffffffffff1681565b600460008154809291906107e1906126b6565b919050555060405180608001604052808573ffffffffffffffffffffffffffffffffffffffff1681526020018481526020018373ffffffffffffffffffffffffffffffffffffffff1681526020018281525060056000600454815260200190815260200160002060008201518160000160006101000a81548173ffffffffffffffffffffffffffffffffffffffff021916908373ffffffffffffffffffffffffffffffffffffffff1602179055506020820151816001015560408201518160020160006101000a81548173ffffffffffffffffffffffffffffffffffffffff021916908373ffffffffffffffffffffffffffffffffffffffff1602179055506060820151816003015590505061090b3360045460016040518060200160405280600081525061106f565b50505050565b60056020528060005260406000206000915090508060000160009054906101000a900473ffffffffffffffffffffffffffffffffffffffff16908060010154908060020160009054906101000a900473ffffffffffffffffffffffffffffffffffffffff16908060030154905084565b61099361098c610d53565b8383611205565b5050565b6000600160008473ffffffffffffffffffffffffffffffffffffffff1673ffffffffffffffffffffffffffffffffffffffff16815260200190815260200160002060008373ffffffffffffffffffffffffffffffffffffffff1673ffffffffffffffffffffffffffffffffffffffff16815260200190815260200160002060009054906101000a900460ff16905092915050565b610a33610d53565b73ffffffffffffffffffffffffffffffffffffffff168573ffffffffffffffffffffffffffffffffffffffff161480610a795750610a7885610a73610d53565b610997565b5b610ab8576040517f08c379a0000000000000000000000000000000000000000000000000000000008152600401610aaf90612803565b60405180910390fd5b610ac58585858585611372565b5050505050565b60007f01ffc9a7000000000000000000000000000000000000000000000000000000007bffffffffffffffffffffffffffffffffffffffffffffffffffffffff1916827bffffffffffffffffffffffffffffffffffffffffffffffffffffffff1916149050919050565b600073ffffffffffffffffffffffffffffffffffffffff168373ffffffffffffffffffffffffffffffffffffffff161415610ba6576040517f08c379a0000000000000000000000000000000000000000000000000000000008152600401610b9d90612895565b60405180910390fd5b6000610bb0610d53565b9050610be081856000610bc2876115f4565b610bcb876115f4565b6040518060200160405280600081525061166e565b600080600085815260200190815260200160002060008673ffffffffffffffffffffffffffffffffffffffff1673ffffffffffffffffffffffffffffffffffffffff16815260200190815260200160002054905082811015610c77576040517f08c379a0000000000000000000000000000000000000000000000000000000008152600401610c6e90612927565b60405180910390fd5b82810360008086815260200190815260200160002060008773ffffffffffffffffffffffffffffffffffffffff1673ffffffffffffffffffffffffffffffffffffffff16815260200190815260200160002081905550600073ffffffffffffffffffffffffffffffffffffffff168573ffffffffffffffffffffffffffffffffffffffff168373ffffffffffffffffffffffffffffffffffffffff167fc3d58168c5ae7397731d063d5bbf3d657854427343f4c083240f7aacaa2d0f628787604051610d44929190612947565b60405180910390a45050505050565b600033905090565b8151835114610d9f576040517f08c379a0000000000000000000000000000000000000000000000000000000008152600401610d96906129e2565b60405180910390fd5b600073ffffffffffffffffffffffffffffffffffffffff168473ffffffffffffffffffffffffffffffffffffffff161415610e0f576040517f08c379a0000000000000000000000000000000000000000000000000000000008152600401610e0690612a74565b60405180910390fd5b6000610e19610d53565b9050610e2981878787878761166e565b60005b8451811015610fda576000858281518110610e4a57610e49612658565b5b602002602001015190506000858381518110610e6957610e68612658565b5b60200260200101519050600080600084815260200190815260200160002060008b73ffffffffffffffffffffffffffffffffffffffff1673ffffffffffffffffffffffffffffffffffffffff16815260200190815260200160002054905081811015610f0a576040517f08c379a0000000000000000000000000000000000000000000000000000000008152600401610f0190612b06565b60405180910390fd5b81810360008085815260200190815260200160002060008c73ffffffffffffffffffffffffffffffffffffffff1673ffffffffffffffffffffffffffffffffffffffff168152602001908152602001600020819055508160008085815260200190815260200160002060008b73ffffffffffffffffffffffffffffffffffffffff1673ffffffffffffffffffffffffffffffffffffffff1681526020019081526020016000206000828254610fbf9190612b26565b9250508190555050505080610fd3906126b6565b9050610e2c565b508473ffffffffffffffffffffffffffffffffffffffff168673ffffffffffffffffffffffffffffffffffffffff168273ffffffffffffffffffffffffffffffffffffffff167f4a39dc06d4c0dbc64b70af90fd698a233a518aa5d07e595d983b8c0526c8f7fb8787604051611051929190612b7c565b60405180910390a4611067818787878787611676565b505050505050565b600073ffffffffffffffffffffffffffffffffffffffff168473ffffffffffffffffffffffffffffffffffffffff1614156110df576040517f08c379a00000000000000000000000000000000000000000000000000000000081526004016110d690612c25565b60405180910390fd5b60006110e9610d53565b905061110a816000876110fb886115f4565b611104886115f4565b8761166e565b8260008086815260200190815260200160002060008773ffffffffffffffffffffffffffffffffffffffff1673ffffffffffffffffffffffffffffffffffffffff16815260200190815260200160002060008282546111699190612b26565b925050819055508473ffffffffffffffffffffffffffffffffffffffff16600073ffffffffffffffffffffffffffffffffffffffff168273ffffffffffffffffffffffffffffffffffffffff167fc3d58168c5ae7397731d063d5bbf3d657854427343f4c083240f7aacaa2d0f6287876040516111e7929190612947565b60405180910390a46111fe8160008787878761184e565b5050505050565b8173ffffffffffffffffffffffffffffffffffffffff168373ffffffffffffffffffffffffffffffffffffffff161415611274576040517f08c379a000000000000000000000000000000000000000000000000000000000815260040161126b90612cb7565b60405180910390fd5b80600160008573ffffffffffffffffffffffffffffffffffffffff1673ffffffffffffffffffffffffffffffffffffffff16815260200190815260200160002060008473ffffffffffffffffffffffffffffffffffffffff1673ffffffffffffffffffffffffffffffffffffffff16815260200190815260200160002060006101000a81548160ff0219169083151502179055508173ffffffffffffffffffffffffffffffffffffffff168373ffffffffffffffffffffffffffffffffffffffff167f17307eab39ab6107e8899845ad3d59bd9653f200f220920489ca2b5937696c31836040516113659190611beb565b60405180910390a3505050565b600073ffffffffffffffffffffffffffffffffffffffff168473ffffffffffffffffffffffffffffffffffffffff1614156113e2576040517f08c379a00000000000000000000000000000000000000000000000000000000081526004016113d990612a74565b60405180910390fd5b60006113ec610d53565b905061140c8187876113fd886115f4565b611406886115f4565b8761166e565b600080600086815260200190815260200160002060008873ffffffffffffffffffffffffffffffffffffffff1673ffffffffffffffffffffffffffffffffffffffff168152602001908152602001600020549050838110156114a3576040517f08c379a000000000000000000000000000000000000000000000000000000000815260040161149a90612b06565b60405180910390fd5b83810360008087815260200190815260200160002060008973ffffffffffffffffffffffffffffffffffffffff1673ffffffffffffffffffffffffffffffffffffffff168152602001908152602001600020819055508360008087815260200190815260200160002060008873ffffffffffffffffffffffffffffffffffffffff1673ffffffffffffffffffffffffffffffffffffffff16815260200190815260200160002060008282546115589190612b26565b925050819055508573ffffffffffffffffffffffffffffffffffffffff168773ffffffffffffffffffffffffffffffffffffffff168373ffffffffffffffffffffffffffffffffffffffff167fc3d58168c5ae7397731d063d5bbf3d657854427343f4c083240f7aacaa2d0f6288886040516115d5929190612947565b60405180910390a46115eb82888888888861184e565b50505050505050565b60606000600167ffffffffffffffff81111561161357611612611cf3565b5b6040519080825280602002602001820160405280156116415781602001602082028036833780820191505090505b509050828160008151811061165957611658612658565b5b60200260200101818152505080915050919050565b505050505050565b6116958473ffffffffffffffffffffffffffffffffffffffff16611a26565b15611846578373ffffffffffffffffffffffffffffffffffffffff1663bc197c8187878686866040518663ffffffff1660e01b81526004016116db959493929190612d2c565b6020604051808303816000875af192505050801561171757506040513d601f19601f820116820180604052508101906117149190612da9565b60015b6117bd57611723612de3565b806308c379a014156117805750611738612e05565b806117435750611782565b806040517f08c379a00000000000000000000000000000000000000000000000000000000081526004016117779190611ccc565b60405180910390fd5b505b6040517f08c379a00000000000000000000000000000000000000000000000000000000081526004016117b490612f0d565b60405180910390fd5b63bc197c8160e01b7bffffffffffffffffffffffffffffffffffffffffffffffffffffffff1916817bffffffffffffffffffffffffffffffffffffffffffffffffffffffff191614611844576040517f08c379a000000000000000000000000000000000000000000000000000000000815260040161183b90612f9f565b60405180910390fd5b505b505050505050565b61186d8473ffffffffffffffffffffffffffffffffffffffff16611a26565b15611a1e578373ffffffffffffffffffffffffffffffffffffffff1663f23a6e6187878686866040518663ffffffff1660e01b81526004016118b3959493929190612fbf565b6020604051808303816000875af19250505080156118ef57506040513d601f19601f820116820180604052508101906118ec9190612da9565b60015b611995576118fb612de3565b806308c379a014156119585750611910612e05565b8061191b575061195a565b806040517f08c379a000000000000000000000000000000000000000000000000000000000815260040161194f9190611ccc565b60405180910390fd5b505b6040517f08c379a000000000000000000000000000000000000000000000000000000000815260040161198c90612f0d565b60405180910390fd5b63f23a6e6160e01b7bffffffffffffffffffffffffffffffffffffffffffffffffffffffff1916817bffffffffffffffffffffffffffffffffffffffffffffffffffffffff191614611a1c576040517f08c379a0000000000000000000000000000000000000000000000000000000008152600401611a1390612f9f565b60405180910390fd5b505b505050505050565b600080823b905060008111915050919050565b6000604051905090565b600080fd5b600080fd5b600073ffffffffffffffffffffffffffffffffffffffff82169050919050565b6000611a7882611a4d565b9050919050565b611a8881611a6d565b8114611a9357600080fd5b50565b600081359050611aa581611a7f565b92915050565b6000819050919050565b611abe81611aab565b8114611ac957600080fd5b50565b600081359050611adb81611ab5565b92915050565b60008060408385031215611af857611af7611a43565b5b6000611b0685828601611a96565b9250506020611b1785828601611acc565b9150509250929050565b611b2a81611aab565b82525050565b6000602082019050611b456000830184611b21565b92915050565b60007fffffffff0000000000000000000000000000000000000000000000000000000082169050919050565b611b8081611b4b565b8114611b8b57600080fd5b50565b600081359050611b9d81611b77565b92915050565b600060208284031215611bb957611bb8611a43565b5b6000611bc784828501611b8e565b91505092915050565b60008115159050919050565b611be581611bd0565b82525050565b6000602082019050611c006000830184611bdc565b92915050565b600060208284031215611c1c57611c1b611a43565b5b6000611c2a84828501611acc565b91505092915050565b600081519050919050565b600082825260208201905092915050565b60005b83811015611c6d578082015181840152602081019050611c52565b83811115611c7c576000848401525b50505050565b6000601f19601f8301169050919050565b6000611c9e82611c33565b611ca88185611c3e565b9350611cb8818560208601611c4f565b611cc181611c82565b840191505092915050565b60006020820190508181036000830152611ce68184611c93565b905092915050565b600080fd5b7f4e487b7100000000000000000000000000000000000000000000000000000000600052604160045260246000fd5b611d2b82611c82565b810181811067ffffffffffffffff82111715611d4a57611d49611cf3565b5b80604052505050565b6000611d5d611a39565b9050611d698282611d22565b919050565b600067ffffffffffffffff821115611d8957611d88611cf3565b5b602082029050602081019050919050565b600080fd5b6000611db2611dad84611d6e565b611d53565b90508083825260208201905060208402830185811115611dd557611dd4611d9a565b5b835b81811015611dfe5780611dea8882611acc565b845260208401935050602081019050611dd7565b5050509392505050565b600082601f830112611e1d57611e1c611cee565b5b8135611e2d848260208601611d9f565b91505092915050565b600080fd5b600067ffffffffffffffff821115611e5657611e55611cf3565b5b611e5f82611c82565b9050602081019050919050565b82818337600083830152505050565b6000611e8e611e8984611e3b565b611d53565b905082815260208101848484011115611eaa57611ea9611e36565b5b611eb5848285611e6c565b509392505050565b600082601f830112611ed257611ed1611cee565b5b8135611ee2848260208601611e7b565b91505092915050565b600080600080600060a08688031215611f0757611f06611a43565b5b6000611f1588828901611a96565b9550506020611f2688828901611a96565b945050604086013567ffffffffffffffff811115611f4757611f46611a48565b5b611f5388828901611e08565b935050606086013567ffffffffffffffff811115611f7457611f73611a48565b5b611f8088828901611e08565b925050608086013567ffffffffffffffff811115611fa157611fa0611a48565b5b611fad88828901611ebd565b9150509295509295909350565b600067ffffffffffffffff821115611fd557611fd4611cf3565b5b602082029050602081019050919050565b6000611ff9611ff484611fba565b611d53565b9050808382526020820190506020840283018581111561201c5761201b611d9a565b5b835b8181101561204557806120318882611a96565b84526020840193505060208101905061201e565b5050509392505050565b600082601f83011261206457612063611cee565b5b8135612074848260208601611fe6565b91505092915050565b6000806040838503121561209457612093611a43565b5b600083013567ffffffffffffffff8111156120b2576120b1611a48565b5b6120be8582860161204f565b925050602083013567ffffffffffffffff8111156120df576120de611a48565b5b6120eb85828601611e08565b9150509250929050565b600081519050919050565b600082825260208201905092915050565b6000819050602082019050919050565b61212a81611aab565b82525050565b600061213c8383612121565b60208301905092915050565b6000602082019050919050565b6000612160826120f5565b61216a8185612100565b935061217583612111565b8060005b838110156121a657815161218d8882612130565b975061219883612148565b925050600181019050612179565b5085935050505092915050565b600060208201905081810360008301526121cd8184612155565b905092915050565b6000806000606084860312156121ee576121ed611a43565b5b60006121fc86828701611a96565b935050602061220d86828701611acc565b925050604061221e86828701611acc565b9150509250925092565b61223181611a6d565b82525050565b600060208201905061224c6000830184612228565b92915050565b6000806000806080858703121561226c5761226b611a43565b5b600061227a87828801611a96565b945050602061228b87828801611acc565b935050604061229c87828801611a96565b92505060606122ad87828801611acc565b91505092959194509250565b60006080820190506122ce6000830187612228565b6122db6020830186611b21565b6122e86040830185612228565b6122f56060830184611b21565b95945050505050565b61230781611bd0565b811461231257600080fd5b50565b600081359050612324816122fe565b92915050565b6000806040838503121561234157612340611a43565b5b600061234f85828601611a96565b925050602061236085828601612315565b9150509250929050565b6000806040838503121561238157612380611a43565b5b600061238f85828601611a96565b92505060206123a085828601611a96565b9150509250929050565b600080600080600060a086880312156123c6576123c5611a43565b5b60006123d488828901611a96565b95505060206123e588828901611a96565b94505060406123f688828901611acc565b935050606061240788828901611acc565b925050608086013567ffffffffffffffff81111561242857612427611a48565b5b61243488828901611ebd565b9150509295509295909350565b7f455243313135353a2062616c616e636520717565727920666f7220746865207a60008201527f65726f2061646472657373000000000000000000000000000000000000000000602082015250565b600061249d602b83611c3e565b91506124a882612441565b604082019050919050565b600060208201905081810360008301526124cc81612490565b9050919050565b7f4e487b7100000000000000000000000000000000000000000000000000000000600052602260045260246000fd5b6000600282049050600182168061251a57607f821691505b6020821081141561252e5761252d6124d3565b5b50919050565b7f455243313135353a207472616e736665722063616c6c6572206973206e6f742060008201527f6f776e6572206e6f7220617070726f7665640000000000000000000000000000602082015250565b6000612590603283611c3e565b915061259b82612534565b604082019050919050565b600060208201905081810360008301526125bf81612583565b9050919050565b7f455243313135353a206163636f756e747320616e6420696473206c656e67746860008201527f206d69736d617463680000000000000000000000000000000000000000000000602082015250565b6000612622602983611c3e565b915061262d826125c6565b604082019050919050565b6000602082019050818103600083015261265181612615565b9050919050565b7f4e487b7100000000000000000000000000000000000000000000000000000000600052603260045260246000fd5b7f4e487b7100000000000000000000000000000000000000000000000000000000600052601160045260246000fd5b60006126c182611aab565b91507fffffffffffffffffffffffffffffffffffffffffffffffffffffffffffffffff8214156126f4576126f3612687565b5b600182019050919050565b7f577261707065723a206e6f7420636f727265637420706f736974696f6e206f7260008201527f20706f736974696f6e2073697a65000000000000000000000000000000000000602082015250565b600061275b602e83611c3e565b9150612766826126ff565b604082019050919050565b6000602082019050818103600083015261278a8161274e565b9050919050565b7f455243313135353a2063616c6c6572206973206e6f74206f776e6572206e6f7260008201527f20617070726f7665640000000000000000000000000000000000000000000000602082015250565b60006127ed602983611c3e565b91506127f882612791565b604082019050919050565b6000602082019050818103600083015261281c816127e0565b9050919050565b7f455243313135353a206275726e2066726f6d20746865207a65726f206164647260008201527f6573730000000000000000000000000000000000000000000000000000000000602082015250565b600061287f602383611c3e565b915061288a82612823565b604082019050919050565b600060208201905081810360008301526128ae81612872565b9050919050565b7f455243313135353a206275726e20616d6f756e7420657863656564732062616c60008201527f616e636500000000000000000000000000000000000000000000000000000000602082015250565b6000612911602483611c3e565b915061291c826128b5565b604082019050919050565b6000602082019050818103600083015261294081612904565b9050919050565b600060408201905061295c6000830185611b21565b6129696020830184611b21565b9392505050565b7f455243313135353a2069647320616e6420616d6f756e7473206c656e6774682060008201527f6d69736d61746368000000000000000000000000000000000000000000000000602082015250565b60006129cc602883611c3e565b91506129d782612970565b604082019050919050565b600060208201905081810360008301526129fb816129bf565b9050919050565b7f455243313135353a207472616e7366657220746f20746865207a65726f20616460008201527f6472657373000000000000000000000000000000000000000000000000000000602082015250565b6000612a5e602583611c3e565b9150612a6982612a02565b604082019050919050565b60006020820190508181036000830152612a8d81612a51565b9050919050565b7f455243313135353a20696e73756666696369656e742062616c616e636520666f60008201527f72207472616e7366657200000000000000000000000000000000000000000000602082015250565b6000612af0602a83611c3e565b9150612afb82612a94565b604082019050919050565b60006020820190508181036000830152612b1f81612ae3565b9050919050565b6000612b3182611aab565b9150612b3c83611aab565b9250827fffffffffffffffffffffffffffffffffffffffffffffffffffffffffffffffff03821115612b7157612b70612687565b5b828201905092915050565b60006040820190508181036000830152612b968185612155565b90508181036020830152612baa8184612155565b90509392505050565b7f455243313135353a206d696e7420746f20746865207a65726f2061646472657360008201527f7300000000000000000000000000000000000000000000000000000000000000602082015250565b6000612c0f602183611c3e565b9150612c1a82612bb3565b604082019050919050565b60006020820190508181036000830152612c3e81612c02565b9050919050565b7f455243313135353a2073657474696e6720617070726f76616c2073746174757360008201527f20666f722073656c660000000000000000000000000000000000000000000000602082015250565b6000612ca1602983611c3e565b9150612cac82612c45565b604082019050919050565b60006020820190508181036000830152612cd081612c94565b9050919050565b600081519050919050565b600082825260208201905092915050565b6000612cfe82612cd7565b612d088185612ce2565b9350612d18818560208601611c4f565b612d2181611c82565b840191505092915050565b600060a082019050612d416000830188612228565b612d4e6020830187612228565b8181036040830152612d608186612155565b90508181036060830152612d748185612155565b90508181036080830152612d888184612cf3565b90509695505050505050565b600081519050612da381611b77565b92915050565b600060208284031215612dbf57612dbe611a43565b5b6000612dcd84828501612d94565b91505092915050565b60008160e01c9050919050565b600060033d1115612e025760046000803e612dff600051612dd6565b90505b90565b600060443d1015612e1557612e98565b612e1d611a39565b60043d036004823e80513d602482011167ffffffffffffffff82111715612e45575050612e98565b808201805167ffffffffffffffff811115612e635750505050612e98565b80602083010160043d038501811115612e80575050505050612e98565b612e8f82602001850186611d22565b82955050505050505b90565b7f455243313135353a207472616e7366657220746f206e6f6e204552433131353560008201527f526563656976657220696d706c656d656e746572000000000000000000000000602082015250565b6000612ef7603483611c3e565b9150612f0282612e9b565b604082019050919050565b60006020820190508181036000830152612f2681612eea565b9050919050565b7f455243313135353a204552433131353552656365697665722072656a6563746560008201527f6420746f6b656e73000000000000000000000000000000000000000000000000602082015250565b6000612f89602883611c3e565b9150612f9482612f2d565b604082019050919050565b60006020820190508181036000830152612fb881612f7c565b9050919050565b600060a082019050612fd46000830188612228565b612fe16020830187612228565b612fee6040830186611b21565b612ffb6060830185611b21565b818103608083015261300d8184612cf3565b9050969550505050505056fea2646970667358221220f2d825b14ddb0b312d9ba942bdfcd6e9837b69d6e7451a0e0954d6eff14ef9cb64736f6c634300080b0033",
  "immutableReferences": {},
  "source": "// SPDX-License-Identifier: MIT\npragma solidity ^0.8.0; //solhint-disable compiler-fixed\n\nimport \"@openzeppelin/contracts/token/ERC1155/ERC1155.sol\";\n\n\ncontract BeraWrapper is ERC1155 {\n\n    address public owner;\n\n    uint public positionIDTotal;\n\n    mapping(uint => Position) public positionData;\n\n    struct Position {\n        address associatedPool; //standard or high risk pool\n        uint shortAmount;\n        address tokenShorted;\n        uint priceAtWrap;\n    }\n\n    constructor() ERC1155(\"\") { //solhint-disable func-visibility\n        owner = msg.sender;\n    }\n\n    function wrapPosition(address associatedPool,\n                uint shortAmount,\n                address tokenShorted,\n                uint priceAtWrap)\n                external {\n                    //increase global position counter\n                    positionIDTotal++;\n\n                    positionData[positionIDTotal] = Position({\n                        associatedPool: associatedPool,\n                        shortAmount: shortAmount,\n                        tokenShorted: tokenShorted,\n                        priceAtWrap: priceAtWrap\n                    });\n\n                    _mint(msg.sender, positionIDTotal, 1, \"\");\n                }\n\n    function unwrapPosition(uint positionID) external {\n        // require(msg.sender == address(beraPoolStandardRisk),\n        //     \"Wrapper: only the owner can unwrap the position\");\n\n        //we burn the token to release the funds\n        //broken rn\n        _burn(msg.sender, positionID, 1);\n    }\n\n    //SHOULD BE USED TO TRANSFER POSITIONS\n    function transferPosition(address to, uint _positionID, uint amount) external {\n        //require(msg.sender == positionData[_positionID].positionOwner,\n            //\"Wrapper: only the owner can transfer a position\");\n            //check that msg.sender has the token in their balance\n        require(balanceOf(msg.sender, _positionID) == amount,\n            \"Wrapper: not correct position or position size\");\n\n        //update new owner\n        //positionData[_positionID].positionOwner = to;\n\n        //send position\n        safeTransferFrom(to, msg.sender, _positionID, amount, \"\");\n    }\n\n    //if position happens to get sent without the transferPosition() func being called then\n    //users can update it manually with this func\n    function updatePosition(address newPositionOwner, uint _positionID) external {\n        if (balanceOf(newPositionOwner, _positionID) > 0) {\n            //update new owner\n            //positionData[_positionID].positionOwner = newPositionOwner;\n        }\n    }\n}\n",
  "sourcePath": "/home/kevin/Code/solidity_projects/beraMarket/contracts/BeraWrapper.sol",
  "compiler": {
    "name": "solc",
    "version": "0.8.11+commit.d7f03943.Emscripten.clang"
  },
  "schemaVersion": "3.4.3",
  "updatedAt": "2022-01-13T21:16:13.534Z",
  "networkType": "ethereum",
  "devdoc": {
    "kind": "dev",
    "methods": {
      "balanceOf(address,uint256)": {
        "details": "See {IERC1155-balanceOf}. Requirements: - `account` cannot be the zero address."
      },
      "balanceOfBatch(address[],uint256[])": {
        "details": "See {IERC1155-balanceOfBatch}. Requirements: - `accounts` and `ids` must have the same length."
      },
      "isApprovedForAll(address,address)": {
        "details": "See {IERC1155-isApprovedForAll}."
      },
      "safeBatchTransferFrom(address,address,uint256[],uint256[],bytes)": {
        "details": "See {IERC1155-safeBatchTransferFrom}."
      },
      "safeTransferFrom(address,address,uint256,uint256,bytes)": {
        "details": "See {IERC1155-safeTransferFrom}."
      },
      "setApprovalForAll(address,bool)": {
        "details": "See {IERC1155-setApprovalForAll}."
      },
      "supportsInterface(bytes4)": {
        "details": "See {IERC165-supportsInterface}."
      },
      "uri(uint256)": {
        "details": "See {IERC1155MetadataURI-uri}. This implementation returns the same URI for *all* token types. It relies on the token type ID substitution mechanism https://eips.ethereum.org/EIPS/eip-1155#metadata[defined in the EIP]. Clients calling this function must replace the `\\{id\\}` substring with the actual token type ID."
      }
    },
    "version": 1
  },
  "userdoc": {
    "kind": "user",
    "methods": {},
    "version": 1
  }
}