{
  "contractName": "BeraWrapper",
  "abi": [
    {
      "inputs": [],
      "stateMutability": "nonpayable",
      "type": "constructor"
    },
    {
      "anonymous": false,
      "inputs": [
        {
          "indexed": true,
          "internalType": "address",
          "name": "account",
          "type": "address"
        },
        {
          "indexed": true,
          "internalType": "address",
          "name": "operator",
          "type": "address"
        },
        {
          "indexed": false,
          "internalType": "bool",
          "name": "approved",
          "type": "bool"
        }
      ],
      "name": "ApprovalForAll",
      "type": "event"
    },
    {
      "anonymous": false,
      "inputs": [
        {
          "indexed": true,
          "internalType": "address",
          "name": "operator",
          "type": "address"
        },
        {
          "indexed": true,
          "internalType": "address",
          "name": "from",
          "type": "address"
        },
        {
          "indexed": true,
          "internalType": "address",
          "name": "to",
          "type": "address"
        },
        {
          "indexed": false,
          "internalType": "uint256[]",
          "name": "ids",
          "type": "uint256[]"
        },
        {
          "indexed": false,
          "internalType": "uint256[]",
          "name": "values",
          "type": "uint256[]"
        }
      ],
      "name": "TransferBatch",
      "type": "event"
    },
    {
      "anonymous": false,
      "inputs": [
        {
          "indexed": true,
          "internalType": "address",
          "name": "operator",
          "type": "address"
        },
        {
          "indexed": true,
          "internalType": "address",
          "name": "from",
          "type": "address"
        },
        {
          "indexed": true,
          "internalType": "address",
          "name": "to",
          "type": "address"
        },
        {
          "indexed": false,
          "internalType": "uint256",
          "name": "id",
          "type": "uint256"
        },
        {
          "indexed": false,
          "internalType": "uint256",
          "name": "value",
          "type": "uint256"
        }
      ],
      "name": "TransferSingle",
      "type": "event"
    },
    {
      "anonymous": false,
      "inputs": [
        {
          "indexed": false,
          "internalType": "string",
          "name": "value",
          "type": "string"
        },
        {
          "indexed": true,
          "internalType": "uint256",
          "name": "id",
          "type": "uint256"
        }
      ],
      "name": "URI",
      "type": "event"
    },
    {
      "inputs": [
        {
          "internalType": "address",
          "name": "account",
          "type": "address"
        },
        {
          "internalType": "uint256",
          "name": "id",
          "type": "uint256"
        }
      ],
      "name": "balanceOf",
      "outputs": [
        {
          "internalType": "uint256",
          "name": "",
          "type": "uint256"
        }
      ],
      "stateMutability": "view",
      "type": "function",
      "constant": true
    },
    {
      "inputs": [
        {
          "internalType": "address[]",
          "name": "accounts",
          "type": "address[]"
        },
        {
          "internalType": "uint256[]",
          "name": "ids",
          "type": "uint256[]"
        }
      ],
      "name": "balanceOfBatch",
      "outputs": [
        {
          "internalType": "uint256[]",
          "name": "",
          "type": "uint256[]"
        }
      ],
      "stateMutability": "view",
      "type": "function",
      "constant": true
    },
    {
      "inputs": [
        {
          "internalType": "address",
          "name": "account",
          "type": "address"
        },
        {
          "internalType": "address",
          "name": "operator",
          "type": "address"
        }
      ],
      "name": "isApprovedForAll",
      "outputs": [
        {
          "internalType": "bool",
          "name": "",
          "type": "bool"
        }
      ],
      "stateMutability": "view",
      "type": "function",
      "constant": true
    },
    {
      "inputs": [],
      "name": "owner",
      "outputs": [
        {
          "internalType": "address",
          "name": "",
          "type": "address"
        }
      ],
      "stateMutability": "view",
      "type": "function",
      "constant": true
    },
    {
      "inputs": [
        {
          "internalType": "uint256",
          "name": "",
          "type": "uint256"
        }
      ],
      "name": "positionData",
      "outputs": [
        {
          "internalType": "address",
          "name": "associatedPool",
          "type": "address"
        },
        {
          "internalType": "uint256",
          "name": "shortAmount",
          "type": "uint256"
        },
        {
          "internalType": "address",
          "name": "tokenShorted",
          "type": "address"
        },
        {
          "internalType": "uint256",
          "name": "priceAtWrap",
          "type": "uint256"
        },
        {
          "internalType": "uint256",
          "name": "publicPositionID",
          "type": "uint256"
        }
      ],
      "stateMutability": "view",
      "type": "function",
      "constant": true
    },
    {
      "inputs": [],
      "name": "positionIDTotal",
      "outputs": [
        {
          "internalType": "uint256",
          "name": "",
          "type": "uint256"
        }
      ],
      "stateMutability": "view",
      "type": "function",
      "constant": true
    },
    {
      "inputs": [
        {
          "internalType": "address",
          "name": "from",
          "type": "address"
        },
        {
          "internalType": "address",
          "name": "to",
          "type": "address"
        },
        {
          "internalType": "uint256[]",
          "name": "ids",
          "type": "uint256[]"
        },
        {
          "internalType": "uint256[]",
          "name": "amounts",
          "type": "uint256[]"
        },
        {
          "internalType": "bytes",
          "name": "data",
          "type": "bytes"
        }
      ],
      "name": "safeBatchTransferFrom",
      "outputs": [],
      "stateMutability": "nonpayable",
      "type": "function"
    },
    {
      "inputs": [
        {
          "internalType": "address",
          "name": "from",
          "type": "address"
        },
        {
          "internalType": "address",
          "name": "to",
          "type": "address"
        },
        {
          "internalType": "uint256",
          "name": "id",
          "type": "uint256"
        },
        {
          "internalType": "uint256",
          "name": "amount",
          "type": "uint256"
        },
        {
          "internalType": "bytes",
          "name": "data",
          "type": "bytes"
        }
      ],
      "name": "safeTransferFrom",
      "outputs": [],
      "stateMutability": "nonpayable",
      "type": "function"
    },
    {
      "inputs": [
        {
          "internalType": "address",
          "name": "operator",
          "type": "address"
        },
        {
          "internalType": "bool",
          "name": "approved",
          "type": "bool"
        }
      ],
      "name": "setApprovalForAll",
      "outputs": [],
      "stateMutability": "nonpayable",
      "type": "function"
    },
    {
      "inputs": [
        {
          "internalType": "bytes4",
          "name": "interfaceId",
          "type": "bytes4"
        }
      ],
      "name": "supportsInterface",
      "outputs": [
        {
          "internalType": "bool",
          "name": "",
          "type": "bool"
        }
      ],
      "stateMutability": "view",
      "type": "function",
      "constant": true
    },
    {
      "inputs": [
        {
          "internalType": "uint256",
          "name": "",
          "type": "uint256"
        }
      ],
      "name": "uri",
      "outputs": [
        {
          "internalType": "string",
          "name": "",
          "type": "string"
        }
      ],
      "stateMutability": "view",
      "type": "function",
      "constant": true
    },
    {
      "inputs": [
        {
          "internalType": "address",
          "name": "associatedPool",
          "type": "address"
        },
        {
          "internalType": "uint256",
          "name": "shortAmount",
          "type": "uint256"
        },
        {
          "internalType": "address",
          "name": "tokenShorted",
          "type": "address"
        },
        {
          "internalType": "uint256",
          "name": "priceAtWrap",
          "type": "uint256"
        }
      ],
      "name": "wrapPosition",
      "outputs": [],
      "stateMutability": "nonpayable",
      "type": "function"
    },
    {
      "inputs": [
        {
          "internalType": "uint256",
          "name": "positionID",
          "type": "uint256"
        }
      ],
      "name": "unwrapPosition",
      "outputs": [],
      "stateMutability": "nonpayable",
      "type": "function"
    },
    {
      "inputs": [
        {
          "internalType": "address",
          "name": "to",
          "type": "address"
        },
        {
          "internalType": "uint256",
          "name": "positionID",
          "type": "uint256"
        }
      ],
      "name": "transferPosition",
      "outputs": [],
      "stateMutability": "nonpayable",
      "type": "function"
    }
  ],
  "bytecode": "0x60806040523480156200001157600080fd5b506040518060400160405280601781526020017f426572615772617070656420506f736974696f6e2056310000000000000000008152506200005981620000a160201b60201c565b5033600360006101000a81548173ffffffffffffffffffffffffffffffffffffffff021916908373ffffffffffffffffffffffffffffffffffffffff160217905550620001d2565b8060029080519060200190620000b9929190620000bd565b5050565b828054620000cb906200019c565b90600052602060002090601f016020900481019282620000ef57600085556200013b565b82601f106200010a57805160ff19168380011785556200013b565b828001600101855582156200013b579182015b828111156200013a5782518255916020019190600101906200011d565b5b5090506200014a91906200014e565b5090565b5b80821115620001695760008160009055506001016200014f565b5090565b7f4e487b7100000000000000000000000000000000000000000000000000000000600052602260045260246000fd5b60006002820490506001821680620001b557607f821691505b60208210811415620001cc57620001cb6200016d565b5b50919050565b61306780620001e26000396000f3fe608060405234801561001057600080fd5b50600436106100e95760003560e01c80638d2c2fb41161008c578063a0ab910e11610066578063a0ab910e1461025a578063a22cb4651461028e578063e985e9c5146102aa578063f242432a146102da576100e9565b80638d2c2fb4146102045780638da5cb5b1461022057806391b3f9b11461023e576100e9565b80630dd80b39116100c85780630dd80b391461016a5780630e89341c146101885780632eb2c2d6146101b85780634e1273f4146101d4576100e9565b8062fdd58e146100ee57806301ffc9a71461011e578063070fb8f01461014e575b600080fd5b61010860048036038101906101039190611b3e565b6102f6565b6040516101159190611b8d565b60405180910390f35b61013860048036038101906101339190611c00565b6103bf565b6040516101459190611c48565b60405180910390f35b61016860048036038101906101639190611c63565b6104a1565b005b610172610578565b60405161017f9190611b8d565b60405180910390f35b6101a2600480360381019061019d9190611c63565b61057e565b6040516101af9190611d29565b60405180910390f35b6101d260048036038101906101cd9190611f48565b610612565b005b6101ee60048036038101906101e991906120da565b6106b3565b6040516101fb9190612210565b60405180910390f35b61021e60048036038101906102199190611b3e565b6107cc565b005b6102286107ed565b6040516102359190612241565b60405180910390f35b6102586004803603810190610253919061225c565b610813565b005b610274600480360381019061026f9190611c63565b610968565b6040516102859594939291906122c3565b60405180910390f35b6102a860048036038101906102a39190612342565b6109de565b005b6102c460048036038101906102bf9190612382565b6109f4565b6040516102d19190611c48565b60405180910390f35b6102f460048036038101906102ef91906123c2565b610a88565b005b60008073ffffffffffffffffffffffffffffffffffffffff168373ffffffffffffffffffffffffffffffffffffffff161415610367576040517f08c379a000000000000000000000000000000000000000000000000000000000815260040161035e906124cb565b60405180910390fd5b60008083815260200190815260200160002060008473ffffffffffffffffffffffffffffffffffffffff1673ffffffffffffffffffffffffffffffffffffffff16815260200190815260200160002054905092915050565b60007fd9b67a26000000000000000000000000000000000000000000000000000000007bffffffffffffffffffffffffffffffffffffffffffffffffffffffff1916827bffffffffffffffffffffffffffffffffffffffffffffffffffffffff1916148061048a57507f0e89341c000000000000000000000000000000000000000000000000000000007bffffffffffffffffffffffffffffffffffffffffffffffffffffffff1916827bffffffffffffffffffffffffffffffffffffffffffffffffffffffff1916145b8061049a575061049982610b29565b5b9050919050565b60006104ad33836102f6565b116104ed576040517f08c379a00000000000000000000000000000000000000000000000000000000081526004016104e49061255d565b60405180910390fd5b6104f933826001610b93565b60056000828152602001908152602001600020600080820160006101000a81549073ffffffffffffffffffffffffffffffffffffffff021916905560018201600090556002820160006101000a81549073ffffffffffffffffffffffffffffffffffffffff021916905560038201600090556004820160009055505050565b60045481565b60606002805461058d906125ac565b80601f01602080910402602001604051908101604052809291908181526020018280546105b9906125ac565b80156106065780601f106105db57610100808354040283529160200191610606565b820191906000526020600020905b8154815290600101906020018083116105e957829003601f168201915b50505050509050919050565b61061a610db0565b73ffffffffffffffffffffffffffffffffffffffff168573ffffffffffffffffffffffffffffffffffffffff161480610660575061065f8561065a610db0565b6109f4565b5b61069f576040517f08c379a000000000000000000000000000000000000000000000000000000000815260040161069690612650565b60405180910390fd5b6106ac8585858585610db8565b5050505050565b606081518351146106f9576040517f08c379a00000000000000000000000000000000000000000000000000000000081526004016106f0906126e2565b60405180910390fd5b6000835167ffffffffffffffff81111561071657610715611d50565b5b6040519080825280602002602001820160405280156107445781602001602082028036833780820191505090505b50905060005b84518110156107c15761079185828151811061076957610768612702565b5b602002602001015185838151811061078457610783612702565b5b60200260200101516102f6565b8282815181106107a4576107a3612702565b5b602002602001018181525050806107ba90612760565b905061074a565b508091505092915050565b6107e9823383600160405180602001604052806000815250610a88565b5050565b600360009054906101000a900473ffffffffffffffffffffffffffffffffffffffff1681565b6004600081548092919061082690612760565b91905055506040518060a001604052808573ffffffffffffffffffffffffffffffffffffffff1681526020018481526020018373ffffffffffffffffffffffffffffffffffffffff16815260200182815260200160045481525060056000600454815260200190815260200160002060008201518160000160006101000a81548173ffffffffffffffffffffffffffffffffffffffff021916908373ffffffffffffffffffffffffffffffffffffffff1602179055506020820151816001015560408201518160020160006101000a81548173ffffffffffffffffffffffffffffffffffffffff021916908373ffffffffffffffffffffffffffffffffffffffff1602179055506060820151816003015560808201518160040155905050610962336004546001604051806020016040528060008152506110cc565b50505050565b60056020528060005260406000206000915090508060000160009054906101000a900473ffffffffffffffffffffffffffffffffffffffff16908060010154908060020160009054906101000a900473ffffffffffffffffffffffffffffffffffffffff16908060030154908060040154905085565b6109f06109e9610db0565b8383611262565b5050565b6000600160008473ffffffffffffffffffffffffffffffffffffffff1673ffffffffffffffffffffffffffffffffffffffff16815260200190815260200160002060008373ffffffffffffffffffffffffffffffffffffffff1673ffffffffffffffffffffffffffffffffffffffff16815260200190815260200160002060009054906101000a900460ff16905092915050565b610a90610db0565b73ffffffffffffffffffffffffffffffffffffffff168573ffffffffffffffffffffffffffffffffffffffff161480610ad65750610ad585610ad0610db0565b6109f4565b5b610b15576040517f08c379a0000000000000000000000000000000000000000000000000000000008152600401610b0c9061281b565b60405180910390fd5b610b2285858585856113cf565b5050505050565b60007f01ffc9a7000000000000000000000000000000000000000000000000000000007bffffffffffffffffffffffffffffffffffffffffffffffffffffffff1916827bffffffffffffffffffffffffffffffffffffffffffffffffffffffff1916149050919050565b600073ffffffffffffffffffffffffffffffffffffffff168373ffffffffffffffffffffffffffffffffffffffff161415610c03576040517f08c379a0000000000000000000000000000000000000000000000000000000008152600401610bfa906128ad565b60405180910390fd5b6000610c0d610db0565b9050610c3d81856000610c1f87611651565b610c2887611651565b604051806020016040528060008152506116cb565b600080600085815260200190815260200160002060008673ffffffffffffffffffffffffffffffffffffffff1673ffffffffffffffffffffffffffffffffffffffff16815260200190815260200160002054905082811015610cd4576040517f08c379a0000000000000000000000000000000000000000000000000000000008152600401610ccb9061293f565b60405180910390fd5b82810360008086815260200190815260200160002060008773ffffffffffffffffffffffffffffffffffffffff1673ffffffffffffffffffffffffffffffffffffffff16815260200190815260200160002081905550600073ffffffffffffffffffffffffffffffffffffffff168573ffffffffffffffffffffffffffffffffffffffff168373ffffffffffffffffffffffffffffffffffffffff167fc3d58168c5ae7397731d063d5bbf3d657854427343f4c083240f7aacaa2d0f628787604051610da192919061295f565b60405180910390a45050505050565b600033905090565b8151835114610dfc576040517f08c379a0000000000000000000000000000000000000000000000000000000008152600401610df3906129fa565b60405180910390fd5b600073ffffffffffffffffffffffffffffffffffffffff168473ffffffffffffffffffffffffffffffffffffffff161415610e6c576040517f08c379a0000000000000000000000000000000000000000000000000000000008152600401610e6390612a8c565b60405180910390fd5b6000610e76610db0565b9050610e868187878787876116cb565b60005b8451811015611037576000858281518110610ea757610ea6612702565b5b602002602001015190506000858381518110610ec657610ec5612702565b5b60200260200101519050600080600084815260200190815260200160002060008b73ffffffffffffffffffffffffffffffffffffffff1673ffffffffffffffffffffffffffffffffffffffff16815260200190815260200160002054905081811015610f67576040517f08c379a0000000000000000000000000000000000000000000000000000000008152600401610f5e90612b1e565b60405180910390fd5b81810360008085815260200190815260200160002060008c73ffffffffffffffffffffffffffffffffffffffff1673ffffffffffffffffffffffffffffffffffffffff168152602001908152602001600020819055508160008085815260200190815260200160002060008b73ffffffffffffffffffffffffffffffffffffffff1673ffffffffffffffffffffffffffffffffffffffff168152602001908152602001600020600082825461101c9190612b3e565b925050819055505050508061103090612760565b9050610e89565b508473ffffffffffffffffffffffffffffffffffffffff168673ffffffffffffffffffffffffffffffffffffffff168273ffffffffffffffffffffffffffffffffffffffff167f4a39dc06d4c0dbc64b70af90fd698a233a518aa5d07e595d983b8c0526c8f7fb87876040516110ae929190612b94565b60405180910390a46110c48187878787876116d3565b505050505050565b600073ffffffffffffffffffffffffffffffffffffffff168473ffffffffffffffffffffffffffffffffffffffff16141561113c576040517f08c379a000000000000000000000000000000000000000000000000000000000815260040161113390612c3d565b60405180910390fd5b6000611146610db0565b90506111678160008761115888611651565b61116188611651565b876116cb565b8260008086815260200190815260200160002060008773ffffffffffffffffffffffffffffffffffffffff1673ffffffffffffffffffffffffffffffffffffffff16815260200190815260200160002060008282546111c69190612b3e565b925050819055508473ffffffffffffffffffffffffffffffffffffffff16600073ffffffffffffffffffffffffffffffffffffffff168273ffffffffffffffffffffffffffffffffffffffff167fc3d58168c5ae7397731d063d5bbf3d657854427343f4c083240f7aacaa2d0f62878760405161124492919061295f565b60405180910390a461125b816000878787876118ab565b5050505050565b8173ffffffffffffffffffffffffffffffffffffffff168373ffffffffffffffffffffffffffffffffffffffff1614156112d1576040517f08c379a00000000000000000000000000000000000000000000000000000000081526004016112c890612ccf565b60405180910390fd5b80600160008573ffffffffffffffffffffffffffffffffffffffff1673ffffffffffffffffffffffffffffffffffffffff16815260200190815260200160002060008473ffffffffffffffffffffffffffffffffffffffff1673ffffffffffffffffffffffffffffffffffffffff16815260200190815260200160002060006101000a81548160ff0219169083151502179055508173ffffffffffffffffffffffffffffffffffffffff168373ffffffffffffffffffffffffffffffffffffffff167f17307eab39ab6107e8899845ad3d59bd9653f200f220920489ca2b5937696c31836040516113c29190611c48565b60405180910390a3505050565b600073ffffffffffffffffffffffffffffffffffffffff168473ffffffffffffffffffffffffffffffffffffffff16141561143f576040517f08c379a000000000000000000000000000000000000000000000000000000000815260040161143690612a8c565b60405180910390fd5b6000611449610db0565b905061146981878761145a88611651565b61146388611651565b876116cb565b600080600086815260200190815260200160002060008873ffffffffffffffffffffffffffffffffffffffff1673ffffffffffffffffffffffffffffffffffffffff16815260200190815260200160002054905083811015611500576040517f08c379a00000000000000000000000000000000000000000000000000000000081526004016114f790612b1e565b60405180910390fd5b83810360008087815260200190815260200160002060008973ffffffffffffffffffffffffffffffffffffffff1673ffffffffffffffffffffffffffffffffffffffff168152602001908152602001600020819055508360008087815260200190815260200160002060008873ffffffffffffffffffffffffffffffffffffffff1673ffffffffffffffffffffffffffffffffffffffff16815260200190815260200160002060008282546115b59190612b3e565b925050819055508573ffffffffffffffffffffffffffffffffffffffff168773ffffffffffffffffffffffffffffffffffffffff168373ffffffffffffffffffffffffffffffffffffffff167fc3d58168c5ae7397731d063d5bbf3d657854427343f4c083240f7aacaa2d0f62888860405161163292919061295f565b60405180910390a46116488288888888886118ab565b50505050505050565b60606000600167ffffffffffffffff8111156116705761166f611d50565b5b60405190808252806020026020018201604052801561169e5781602001602082028036833780820191505090505b50905082816000815181106116b6576116b5612702565b5b60200260200101818152505080915050919050565b505050505050565b6116f28473ffffffffffffffffffffffffffffffffffffffff16611a83565b156118a3578373ffffffffffffffffffffffffffffffffffffffff1663bc197c8187878686866040518663ffffffff1660e01b8152600401611738959493929190612d44565b6020604051808303816000875af192505050801561177457506040513d601f19601f820116820180604052508101906117719190612dc1565b60015b61181a57611780612dfb565b806308c379a014156117dd5750611795612e1d565b806117a057506117df565b806040517f08c379a00000000000000000000000000000000000000000000000000000000081526004016117d49190611d29565b60405180910390fd5b505b6040517f08c379a000000000000000000000000000000000000000000000000000000000815260040161181190612f25565b60405180910390fd5b63bc197c8160e01b7bffffffffffffffffffffffffffffffffffffffffffffffffffffffff1916817bffffffffffffffffffffffffffffffffffffffffffffffffffffffff1916146118a1576040517f08c379a000000000000000000000000000000000000000000000000000000000815260040161189890612fb7565b60405180910390fd5b505b505050505050565b6118ca8473ffffffffffffffffffffffffffffffffffffffff16611a83565b15611a7b578373ffffffffffffffffffffffffffffffffffffffff1663f23a6e6187878686866040518663ffffffff1660e01b8152600401611910959493929190612fd7565b6020604051808303816000875af192505050801561194c57506040513d601f19601f820116820180604052508101906119499190612dc1565b60015b6119f257611958612dfb565b806308c379a014156119b5575061196d612e1d565b8061197857506119b7565b806040517f08c379a00000000000000000000000000000000000000000000000000000000081526004016119ac9190611d29565b60405180910390fd5b505b6040517f08c379a00000000000000000000000000000000000000000000000000000000081526004016119e990612f25565b60405180910390fd5b63f23a6e6160e01b7bffffffffffffffffffffffffffffffffffffffffffffffffffffffff1916817bffffffffffffffffffffffffffffffffffffffffffffffffffffffff191614611a79576040517f08c379a0000000000000000000000000000000000000000000000000000000008152600401611a7090612fb7565b60405180910390fd5b505b505050505050565b600080823b905060008111915050919050565b6000604051905090565b600080fd5b600080fd5b600073ffffffffffffffffffffffffffffffffffffffff82169050919050565b6000611ad582611aaa565b9050919050565b611ae581611aca565b8114611af057600080fd5b50565b600081359050611b0281611adc565b92915050565b6000819050919050565b611b1b81611b08565b8114611b2657600080fd5b50565b600081359050611b3881611b12565b92915050565b60008060408385031215611b5557611b54611aa0565b5b6000611b6385828601611af3565b9250506020611b7485828601611b29565b9150509250929050565b611b8781611b08565b82525050565b6000602082019050611ba26000830184611b7e565b92915050565b60007fffffffff0000000000000000000000000000000000000000000000000000000082169050919050565b611bdd81611ba8565b8114611be857600080fd5b50565b600081359050611bfa81611bd4565b92915050565b600060208284031215611c1657611c15611aa0565b5b6000611c2484828501611beb565b91505092915050565b60008115159050919050565b611c4281611c2d565b82525050565b6000602082019050611c5d6000830184611c39565b92915050565b600060208284031215611c7957611c78611aa0565b5b6000611c8784828501611b29565b91505092915050565b600081519050919050565b600082825260208201905092915050565b60005b83811015611cca578082015181840152602081019050611caf565b83811115611cd9576000848401525b50505050565b6000601f19601f8301169050919050565b6000611cfb82611c90565b611d058185611c9b565b9350611d15818560208601611cac565b611d1e81611cdf565b840191505092915050565b60006020820190508181036000830152611d438184611cf0565b905092915050565b600080fd5b7f4e487b7100000000000000000000000000000000000000000000000000000000600052604160045260246000fd5b611d8882611cdf565b810181811067ffffffffffffffff82111715611da757611da6611d50565b5b80604052505050565b6000611dba611a96565b9050611dc68282611d7f565b919050565b600067ffffffffffffffff821115611de657611de5611d50565b5b602082029050602081019050919050565b600080fd5b6000611e0f611e0a84611dcb565b611db0565b90508083825260208201905060208402830185811115611e3257611e31611df7565b5b835b81811015611e5b5780611e478882611b29565b845260208401935050602081019050611e34565b5050509392505050565b600082601f830112611e7a57611e79611d4b565b5b8135611e8a848260208601611dfc565b91505092915050565b600080fd5b600067ffffffffffffffff821115611eb357611eb2611d50565b5b611ebc82611cdf565b9050602081019050919050565b82818337600083830152505050565b6000611eeb611ee684611e98565b611db0565b905082815260208101848484011115611f0757611f06611e93565b5b611f12848285611ec9565b509392505050565b600082601f830112611f2f57611f2e611d4b565b5b8135611f3f848260208601611ed8565b91505092915050565b600080600080600060a08688031215611f6457611f63611aa0565b5b6000611f7288828901611af3565b9550506020611f8388828901611af3565b945050604086013567ffffffffffffffff811115611fa457611fa3611aa5565b5b611fb088828901611e65565b935050606086013567ffffffffffffffff811115611fd157611fd0611aa5565b5b611fdd88828901611e65565b925050608086013567ffffffffffffffff811115611ffe57611ffd611aa5565b5b61200a88828901611f1a565b9150509295509295909350565b600067ffffffffffffffff82111561203257612031611d50565b5b602082029050602081019050919050565b600061205661205184612017565b611db0565b9050808382526020820190506020840283018581111561207957612078611df7565b5b835b818110156120a2578061208e8882611af3565b84526020840193505060208101905061207b565b5050509392505050565b600082601f8301126120c1576120c0611d4b565b5b81356120d1848260208601612043565b91505092915050565b600080604083850312156120f1576120f0611aa0565b5b600083013567ffffffffffffffff81111561210f5761210e611aa5565b5b61211b858286016120ac565b925050602083013567ffffffffffffffff81111561213c5761213b611aa5565b5b61214885828601611e65565b9150509250929050565b600081519050919050565b600082825260208201905092915050565b6000819050602082019050919050565b61218781611b08565b82525050565b6000612199838361217e565b60208301905092915050565b6000602082019050919050565b60006121bd82612152565b6121c7818561215d565b93506121d28361216e565b8060005b838110156122035781516121ea888261218d565b97506121f5836121a5565b9250506001810190506121d6565b5085935050505092915050565b6000602082019050818103600083015261222a81846121b2565b905092915050565b61223b81611aca565b82525050565b60006020820190506122566000830184612232565b92915050565b6000806000806080858703121561227657612275611aa0565b5b600061228487828801611af3565b945050602061229587828801611b29565b93505060406122a687828801611af3565b92505060606122b787828801611b29565b91505092959194509250565b600060a0820190506122d86000830188612232565b6122e56020830187611b7e565b6122f26040830186612232565b6122ff6060830185611b7e565b61230c6080830184611b7e565b9695505050505050565b61231f81611c2d565b811461232a57600080fd5b50565b60008135905061233c81612316565b92915050565b6000806040838503121561235957612358611aa0565b5b600061236785828601611af3565b92505060206123788582860161232d565b9150509250929050565b6000806040838503121561239957612398611aa0565b5b60006123a785828601611af3565b92505060206123b885828601611af3565b9150509250929050565b600080600080600060a086880312156123de576123dd611aa0565b5b60006123ec88828901611af3565b95505060206123fd88828901611af3565b945050604061240e88828901611b29565b935050606061241f88828901611b29565b925050608086013567ffffffffffffffff8111156124405761243f611aa5565b5b61244c88828901611f1a565b9150509295509295909350565b7f455243313135353a2062616c616e636520717565727920666f7220746865207a60008201527f65726f2061646472657373000000000000000000000000000000000000000000602082015250565b60006124b5602b83611c9b565b91506124c082612459565b604082019050919050565b600060208201905081810360008301526124e4816124a8565b9050919050565b7f554e575241503a20506f736974696f6e206e6f7420796f757273206f72206e6f60008201527f7420666f756e6400000000000000000000000000000000000000000000000000602082015250565b6000612547602783611c9b565b9150612552826124eb565b604082019050919050565b600060208201905081810360008301526125768161253a565b9050919050565b7f4e487b7100000000000000000000000000000000000000000000000000000000600052602260045260246000fd5b600060028204905060018216806125c457607f821691505b602082108114156125d8576125d761257d565b5b50919050565b7f455243313135353a207472616e736665722063616c6c6572206973206e6f742060008201527f6f776e6572206e6f7220617070726f7665640000000000000000000000000000602082015250565b600061263a603283611c9b565b9150612645826125de565b604082019050919050565b600060208201905081810360008301526126698161262d565b9050919050565b7f455243313135353a206163636f756e747320616e6420696473206c656e67746860008201527f206d69736d617463680000000000000000000000000000000000000000000000602082015250565b60006126cc602983611c9b565b91506126d782612670565b604082019050919050565b600060208201905081810360008301526126fb816126bf565b9050919050565b7f4e487b7100000000000000000000000000000000000000000000000000000000600052603260045260246000fd5b7f4e487b7100000000000000000000000000000000000000000000000000000000600052601160045260246000fd5b600061276b82611b08565b91507fffffffffffffffffffffffffffffffffffffffffffffffffffffffffffffffff82141561279e5761279d612731565b5b600182019050919050565b7f455243313135353a2063616c6c6572206973206e6f74206f776e6572206e6f7260008201527f20617070726f7665640000000000000000000000000000000000000000000000602082015250565b6000612805602983611c9b565b9150612810826127a9565b604082019050919050565b60006020820190508181036000830152612834816127f8565b9050919050565b7f455243313135353a206275726e2066726f6d20746865207a65726f206164647260008201527f6573730000000000000000000000000000000000000000000000000000000000602082015250565b6000612897602383611c9b565b91506128a28261283b565b604082019050919050565b600060208201905081810360008301526128c68161288a565b9050919050565b7f455243313135353a206275726e20616d6f756e7420657863656564732062616c60008201527f616e636500000000000000000000000000000000000000000000000000000000602082015250565b6000612929602483611c9b565b9150612934826128cd565b604082019050919050565b600060208201905081810360008301526129588161291c565b9050919050565b60006040820190506129746000830185611b7e565b6129816020830184611b7e565b9392505050565b7f455243313135353a2069647320616e6420616d6f756e7473206c656e6774682060008201527f6d69736d61746368000000000000000000000000000000000000000000000000602082015250565b60006129e4602883611c9b565b91506129ef82612988565b604082019050919050565b60006020820190508181036000830152612a13816129d7565b9050919050565b7f455243313135353a207472616e7366657220746f20746865207a65726f20616460008201527f6472657373000000000000000000000000000000000000000000000000000000602082015250565b6000612a76602583611c9b565b9150612a8182612a1a565b604082019050919050565b60006020820190508181036000830152612aa581612a69565b9050919050565b7f455243313135353a20696e73756666696369656e742062616c616e636520666f60008201527f72207472616e7366657200000000000000000000000000000000000000000000602082015250565b6000612b08602a83611c9b565b9150612b1382612aac565b604082019050919050565b60006020820190508181036000830152612b3781612afb565b9050919050565b6000612b4982611b08565b9150612b5483611b08565b9250827fffffffffffffffffffffffffffffffffffffffffffffffffffffffffffffffff03821115612b8957612b88612731565b5b828201905092915050565b60006040820190508181036000830152612bae81856121b2565b90508181036020830152612bc281846121b2565b90509392505050565b7f455243313135353a206d696e7420746f20746865207a65726f2061646472657360008201527f7300000000000000000000000000000000000000000000000000000000000000602082015250565b6000612c27602183611c9b565b9150612c3282612bcb565b604082019050919050565b60006020820190508181036000830152612c5681612c1a565b9050919050565b7f455243313135353a2073657474696e6720617070726f76616c2073746174757360008201527f20666f722073656c660000000000000000000000000000000000000000000000602082015250565b6000612cb9602983611c9b565b9150612cc482612c5d565b604082019050919050565b60006020820190508181036000830152612ce881612cac565b9050919050565b600081519050919050565b600082825260208201905092915050565b6000612d1682612cef565b612d208185612cfa565b9350612d30818560208601611cac565b612d3981611cdf565b840191505092915050565b600060a082019050612d596000830188612232565b612d666020830187612232565b8181036040830152612d7881866121b2565b90508181036060830152612d8c81856121b2565b90508181036080830152612da08184612d0b565b90509695505050505050565b600081519050612dbb81611bd4565b92915050565b600060208284031215612dd757612dd6611aa0565b5b6000612de584828501612dac565b91505092915050565b60008160e01c9050919050565b600060033d1115612e1a5760046000803e612e17600051612dee565b90505b90565b600060443d1015612e2d57612eb0565b612e35611a96565b60043d036004823e80513d602482011167ffffffffffffffff82111715612e5d575050612eb0565b808201805167ffffffffffffffff811115612e7b5750505050612eb0565b80602083010160043d038501811115612e98575050505050612eb0565b612ea782602001850186611d7f565b82955050505050505b90565b7f455243313135353a207472616e7366657220746f206e6f6e204552433131353560008201527f526563656976657220696d706c656d656e746572000000000000000000000000602082015250565b6000612f0f603483611c9b565b9150612f1a82612eb3565b604082019050919050565b60006020820190508181036000830152612f3e81612f02565b9050919050565b7f455243313135353a204552433131353552656365697665722072656a6563746560008201527f6420746f6b656e73000000000000000000000000000000000000000000000000602082015250565b6000612fa1602883611c9b565b9150612fac82612f45565b604082019050919050565b60006020820190508181036000830152612fd081612f94565b9050919050565b600060a082019050612fec6000830188612232565b612ff96020830187612232565b6130066040830186611b7e565b6130136060830185611b7e565b81810360808301526130258184612d0b565b9050969550505050505056fea26469706673582212200cdef1a0e12893acff0de1da97944246ccacf4da04920b6167e67d6ffd51266064736f6c634300080b0033",
  "immutableReferences": {},
  "source": "// SPDX-License-Identifier: MIT\npragma solidity ^0.8.0; //solhint-disable compiler-fixed\n\nimport \"@openzeppelin/contracts/token/ERC1155/ERC1155.sol\";\n\n\ncontract BeraWrapper is ERC1155 {\n\n    address public owner;\n    uint public positionIDTotal;\n    mapping(uint => WrappedPosition) public positionData;\n\n    struct WrappedPosition {\n        address associatedPool; //standard or high risk pool\n        uint shortAmount;\n        address tokenShorted;\n        uint priceAtWrap;\n        uint publicPositionID;\n    }\n\n    constructor() ERC1155(\"BeraWrapped Position V1\") { //solhint-disable func-visibility\n        owner = msg.sender;\n    }\n\n    function wrapPosition(\n        address associatedPool,\n        uint shortAmount,\n        address tokenShorted,\n        uint priceAtWrap)\n        external {\n            //increase global position counter\n            positionIDTotal++;\n\n            positionData[positionIDTotal] = WrappedPosition({\n                associatedPool: associatedPool,\n                shortAmount: shortAmount,\n                tokenShorted: tokenShorted,\n                priceAtWrap: priceAtWrap,\n                publicPositionID: positionIDTotal\n            });\n\n            //to, id, number of tokens per id, uri data\n            //using erc1155 because it might be useful to use later\n            _mint(msg.sender, positionIDTotal, 1, \"\");\n        }\n\n    function unwrapPosition(uint positionID) external {\n        require(ERC1155.balanceOf(msg.sender, positionID) > 0, \"UNWRAP: Position not yours or not found\");\n        //we burn the token to release the funds\n        _burn(msg.sender, positionID, 1);\n        delete positionData[positionID];\n    }\n\n    //SHOULD BE USED TO TRANSFER POSITIONS\n    function transferPosition(address to, uint positionID) external {\n        //check that receiver has a high enough balance\n        // require(getTotalCollateral(to) <=\n        //     positionData[positionID].shortAmount * positionData[positionID].priceAtWrap,\n        //     \"RECEIVER: Not enough collateral\");\n\n        //to, from, globalID, number of tokens, metadata\n        ERC1155.safeTransferFrom(to, msg.sender, positionID, 1, \"\");\n    }\n\n}\n",
  "sourcePath": "/home/kevin/Code/solidity_projects/beraMarket/contracts/BeraWrapper.sol",
  "compiler": {
    "name": "solc",
    "version": "0.8.11+commit.d7f03943.Emscripten.clang"
  },
  "schemaVersion": "3.4.3",
  "updatedAt": "2022-01-15T15:37:29.635Z",
  "networkType": "ethereum",
  "devdoc": {
    "kind": "dev",
    "methods": {
      "balanceOf(address,uint256)": {
        "details": "See {IERC1155-balanceOf}. Requirements: - `account` cannot be the zero address."
      },
      "balanceOfBatch(address[],uint256[])": {
        "details": "See {IERC1155-balanceOfBatch}. Requirements: - `accounts` and `ids` must have the same length."
      },
      "isApprovedForAll(address,address)": {
        "details": "See {IERC1155-isApprovedForAll}."
      },
      "safeBatchTransferFrom(address,address,uint256[],uint256[],bytes)": {
        "details": "See {IERC1155-safeBatchTransferFrom}."
      },
      "safeTransferFrom(address,address,uint256,uint256,bytes)": {
        "details": "See {IERC1155-safeTransferFrom}."
      },
      "setApprovalForAll(address,bool)": {
        "details": "See {IERC1155-setApprovalForAll}."
      },
      "supportsInterface(bytes4)": {
        "details": "See {IERC165-supportsInterface}."
      },
      "uri(uint256)": {
        "details": "See {IERC1155MetadataURI-uri}. This implementation returns the same URI for *all* token types. It relies on the token type ID substitution mechanism https://eips.ethereum.org/EIPS/eip-1155#metadata[defined in the EIP]. Clients calling this function must replace the `\\{id\\}` substring with the actual token type ID."
      }
    },
    "version": 1
  },
  "userdoc": {
    "kind": "user",
    "methods": {},
    "version": 1
  }
}