{
  "contractName": "BeraRouter",
  "abi": [
    {
      "inputs": [
        {
          "internalType": "contract ISwapRouter",
          "name": "_swapRouter",
          "type": "address"
        },
        {
          "internalType": "contract BeraPoolStandardRisk",
          "name": "_beraPoolStandardRisk",
          "type": "address"
        },
        {
          "internalType": "contract BeraWrapper",
          "name": "_beraWrapper",
          "type": "address"
        }
      ],
      "stateMutability": "nonpayable",
      "type": "constructor"
    },
    {
      "inputs": [],
      "name": "beraPoolStandardRisk",
      "outputs": [
        {
          "internalType": "contract BeraPoolStandardRisk",
          "name": "",
          "type": "address"
        }
      ],
      "stateMutability": "view",
      "type": "function"
    },
    {
      "inputs": [],
      "name": "beraWrapper",
      "outputs": [
        {
          "internalType": "contract BeraWrapper",
          "name": "",
          "type": "address"
        }
      ],
      "stateMutability": "view",
      "type": "function"
    },
    {
      "inputs": [
        {
          "internalType": "address",
          "name": "",
          "type": "address"
        }
      ],
      "name": "entryPrice",
      "outputs": [
        {
          "internalType": "uint256",
          "name": "",
          "type": "uint256"
        }
      ],
      "stateMutability": "view",
      "type": "function"
    },
    {
      "inputs": [
        {
          "internalType": "address",
          "name": "",
          "type": "address"
        }
      ],
      "name": "inShort",
      "outputs": [
        {
          "internalType": "bool",
          "name": "",
          "type": "bool"
        }
      ],
      "stateMutability": "view",
      "type": "function"
    },
    {
      "inputs": [],
      "name": "owner",
      "outputs": [
        {
          "internalType": "address",
          "name": "",
          "type": "address"
        }
      ],
      "stateMutability": "view",
      "type": "function"
    },
    {
      "inputs": [
        {
          "internalType": "uint256",
          "name": "",
          "type": "uint256"
        }
      ],
      "name": "poolList",
      "outputs": [
        {
          "internalType": "address",
          "name": "",
          "type": "address"
        }
      ],
      "stateMutability": "view",
      "type": "function"
    },
    {
      "inputs": [],
      "name": "swapRouter",
      "outputs": [
        {
          "internalType": "contract ISwapRouter",
          "name": "",
          "type": "address"
        }
      ],
      "stateMutability": "view",
      "type": "function"
    },
    {
      "inputs": [
        {
          "internalType": "address",
          "name": "",
          "type": "address"
        }
      ],
      "name": "userCollateralBalance",
      "outputs": [
        {
          "internalType": "uint256",
          "name": "",
          "type": "uint256"
        }
      ],
      "stateMutability": "view",
      "type": "function"
    },
    {
      "inputs": [
        {
          "internalType": "uint256",
          "name": "amount",
          "type": "uint256"
        }
      ],
      "name": "withdrawCollateral",
      "outputs": [],
      "stateMutability": "nonpayable",
      "type": "function"
    },
    {
      "inputs": [
        {
          "internalType": "uint256",
          "name": "amount",
          "type": "uint256"
        },
        {
          "internalType": "address",
          "name": "tokenToShort",
          "type": "address"
        },
        {
          "internalType": "uint24",
          "name": "poolFee",
          "type": "uint24"
        },
        {
          "internalType": "uint256",
          "name": "amountOutMin",
          "type": "uint256"
        },
        {
          "internalType": "uint256",
          "name": "collateralPercentageOfAccount",
          "type": "uint256"
        },
        {
          "internalType": "uint256",
          "name": "priceAtWrap",
          "type": "uint256"
        }
      ],
      "name": "swapAndShortStandard",
      "outputs": [
        {
          "internalType": "uint256",
          "name": "amountOut",
          "type": "uint256"
        }
      ],
      "stateMutability": "nonpayable",
      "type": "function"
    },
    {
      "inputs": [
        {
          "internalType": "address",
          "name": "user",
          "type": "address"
        },
        {
          "internalType": "address",
          "name": "tokenToClose",
          "type": "address"
        },
        {
          "internalType": "uint256",
          "name": "amount",
          "type": "uint256"
        },
        {
          "internalType": "uint256",
          "name": "priceAtClose",
          "type": "uint256"
        },
        {
          "internalType": "uint24",
          "name": "poolFee",
          "type": "uint24"
        },
        {
          "internalType": "uint256",
          "name": "amountOutMin",
          "type": "uint256"
        },
        {
          "internalType": "uint256",
          "name": "_positionID",
          "type": "uint256"
        }
      ],
      "name": "swapAndCloseShort",
      "outputs": [
        {
          "internalType": "uint256",
          "name": "amountOut",
          "type": "uint256"
        }
      ],
      "stateMutability": "nonpayable",
      "type": "function"
    }
  ],
  "bytecode": "0x60806040523480156200001157600080fd5b50604051620024c9380380620024c9833981810160405281019062000037919062000260565b33600860006101000a81548173ffffffffffffffffffffffffffffffffffffffff021916908373ffffffffffffffffffffffffffffffffffffffff16021790555082600560006101000a81548173ffffffffffffffffffffffffffffffffffffffff021916908373ffffffffffffffffffffffffffffffffffffffff16021790555081600660006101000a81548173ffffffffffffffffffffffffffffffffffffffff021916908373ffffffffffffffffffffffffffffffffffffffff16021790555080600760006101000a81548173ffffffffffffffffffffffffffffffffffffffff021916908373ffffffffffffffffffffffffffffffffffffffff160217905550505050620002bc565b600080fd5b600073ffffffffffffffffffffffffffffffffffffffff82169050919050565b6000620001768262000149565b9050919050565b60006200018a8262000169565b9050919050565b6200019c816200017d565b8114620001a857600080fd5b50565b600081519050620001bc8162000191565b92915050565b6000620001cf8262000149565b9050919050565b6000620001e382620001c2565b9050919050565b620001f581620001d6565b81146200020157600080fd5b50565b6000815190506200021581620001ea565b92915050565b6000620002288262000169565b9050919050565b6200023a816200021b565b81146200024657600080fd5b50565b6000815190506200025a816200022f565b92915050565b6000806000606084860312156200027c576200027b62000144565b5b60006200028c86828701620001ab565b93505060206200029f8682870162000204565b9250506040620002b28682870162000249565b9150509250925092565b6121fd80620002cc6000396000f3fe608060405234801561001057600080fd5b50600436106100a95760003560e01c80638da5cb5b116100715780638da5cb5b14610178578063a29aa11414610196578063b5af3062146101b4578063c31c9c07146101e4578063e5f7c60c14610202578063f855e5b514610232576100a9565b80632a48235b146100ae5780632bcbeece146100de5780635b6a777e146100fc5780636112fe2e1461012c5780636c528a7414610148575b600080fd5b6100c860048036038101906100c39190611408565b610262565b6040516100d59190611476565b60405180910390f35b6100e66102a1565b6040516100f391906114f0565b60405180910390f35b61011660048036038101906101119190611537565b6102c7565b604051610123919061157f565b60405180910390f35b61014660048036038101906101419190611408565b6102e7565b005b610162600480360381019061015d9190611537565b6104f2565b60405161016f91906115a9565b60405180910390f35b61018061050a565b60405161018d9190611476565b60405180910390f35b61019e610530565b6040516101ab91906115f7565b60405180910390f35b6101ce60048036038101906101c99190611537565b610556565b6040516101db91906115a9565b60405180910390f35b6101ec61056e565b6040516101f99190611633565b60405180910390f35b61021c60048036038101906102179190611689565b610594565b60405161022991906115a9565b60405180910390f35b61024c60048036038101906102479190611716565b61097e565b60405161025991906115a9565b60405180910390f35b6004818154811061027257600080fd5b906000526020600020016000915054906101000a900473ffffffffffffffffffffffffffffffffffffffff1681565b600660009054906101000a900473ffffffffffffffffffffffffffffffffffffffff1681565b60036020528060005260406000206000915054906101000a900460ff1681565b6000803373ffffffffffffffffffffffffffffffffffffffff1673ffffffffffffffffffffffffffffffffffffffff16815260200190815260200160002054811115610368576040517f08c379a000000000000000000000000000000000000000000000000000000000815260040161035f9061183b565b60405180910390fd5b60001515600360003373ffffffffffffffffffffffffffffffffffffffff1673ffffffffffffffffffffffffffffffffffffffff16815260200190815260200160002060009054906101000a900460ff161515146103fb576040517f08c379a00000000000000000000000000000000000000000000000000000000081526004016103f2906118f3565b60405180910390fd5b806000803373ffffffffffffffffffffffffffffffffffffffff1673ffffffffffffffffffffffffffffffffffffffff16815260200190815260200160002060008282546104499190611942565b9250508190555060008060003373ffffffffffffffffffffffffffffffffffffffff1673ffffffffffffffffffffffffffffffffffffffff16815260200190815260200160002054116104ef576000600160003373ffffffffffffffffffffffffffffffffffffffff1673ffffffffffffffffffffffffffffffffffffffff16815260200190815260200160002060006101000a81548160ff0219169083151502179055505b50565b60026020528060005260406000206000915090505481565b600860009054906101000a900473ffffffffffffffffffffffffffffffffffffffff1681565b600760009054906101000a900473ffffffffffffffffffffffffffffffffffffffff1681565b60006020528060005260406000206000915090505481565b600560009054906101000a900473ffffffffffffffffffffffffffffffffffffffff1681565b60008060003373ffffffffffffffffffffffffffffffffffffffff1673ffffffffffffffffffffffffffffffffffffffff16815260200190815260200160002054871115610617576040517f08c379a000000000000000000000000000000000000000000000000000000000815260040161060e906119c2565b60405180910390fd5b606483111561065b576040517f08c379a000000000000000000000000000000000000000000000000000000000815260040161065290611a54565b60405180910390fd5b60006064848961066b9190611a74565b6106759190611afd565b9050600081896106859190611942565b90506106a7736b175474e89094c44da98b954eedeac495271d0f33308c610cc1565b6106e8736b175474e89094c44da98b954eedeac495271d0f600560009054906101000a900473ffffffffffffffffffffffffffffffffffffffff168b610e19565b6000604051806101000160405280736b175474e89094c44da98b954eedeac495271d0f73ffffffffffffffffffffffffffffffffffffffff1681526020018a73ffffffffffffffffffffffffffffffffffffffff1681526020018962ffffff1681526020013373ffffffffffffffffffffffffffffffffffffffff168152602001428152602001848152602001888152602001600073ffffffffffffffffffffffffffffffffffffffff168152509050600560009054906101000a900473ffffffffffffffffffffffffffffffffffffffff1673ffffffffffffffffffffffffffffffffffffffff1663414bf389826040518263ffffffff1660e01b81526004016107f39190611c0c565b6020604051808303816000875af1158015610812573d6000803e3d6000fd5b505050506040513d601f19601f820116820180604052508101906108369190611c3d565b935084600260003373ffffffffffffffffffffffffffffffffffffffff1673ffffffffffffffffffffffffffffffffffffffff168152602001908152602001600020819055506001600360003373ffffffffffffffffffffffffffffffffffffffff1673ffffffffffffffffffffffffffffffffffffffff16815260200190815260200160002060006101000a81548160ff021916908315150217905550600082111561097157736b175474e89094c44da98b954eedeac495271d0f73ffffffffffffffffffffffffffffffffffffffff1663a9059cbb33846040518363ffffffff1660e01b815260040161092c929190611c6a565b6020604051808303816000875af115801561094b573d6000803e3d6000fd5b505050506040513d601f19601f8201168201806040525081019061096f9190611cbf565b505b5050509695505050505050565b6000600760009054906101000a900473ffffffffffffffffffffffffffffffffffffffff1673ffffffffffffffffffffffffffffffffffffffff1663b9e17b7689846040518363ffffffff1660e01b81526004016109dd929190611c6a565b600060405180830381600087803b1580156109f757600080fd5b505af1158015610a0b573d6000803e3d6000fd5b50505050736b175474e89094c44da98b954eedeac495271d0f73ffffffffffffffffffffffffffffffffffffffff1663a9059cbb33886040518363ffffffff1660e01b8152600401610a5e929190611c6a565b6020604051808303816000875af1158015610a7d573d6000803e3d6000fd5b505050506040513d601f19601f82011682018060405250810190610aa19190611cbf565b50610ac2736b175474e89094c44da98b954eedeac495271d0f333089610cc1565b610b03736b175474e89094c44da98b954eedeac495271d0f600560009054906101000a900473ffffffffffffffffffffffffffffffffffffffff1688610e19565b6000604051806101000160405280736b175474e89094c44da98b954eedeac495271d0f73ffffffffffffffffffffffffffffffffffffffff1681526020018973ffffffffffffffffffffffffffffffffffffffff1681526020018662ffffff1681526020013373ffffffffffffffffffffffffffffffffffffffff168152602001428152602001888152602001858152602001600073ffffffffffffffffffffffffffffffffffffffff168152509050600560009054906101000a900473ffffffffffffffffffffffffffffffffffffffff1673ffffffffffffffffffffffffffffffffffffffff1663414bf389826040518263ffffffff1660e01b8152600401610c0e9190611c0c565b6020604051808303816000875af1158015610c2d573d6000803e3d6000fd5b505050506040513d601f19601f82011682018060405250810190610c519190611c3d565b9150610c5d3387610f6e565b6000600360003373ffffffffffffffffffffffffffffffffffffffff1673ffffffffffffffffffffffffffffffffffffffff16815260200190815260200160002060006101000a81548160ff02191690831515021790555050979650505050505050565b6000808573ffffffffffffffffffffffffffffffffffffffff166323b872dd60e01b868686604051602401610cf893929190611cec565b604051602081830303815290604052907bffffffffffffffffffffffffffffffffffffffffffffffffffffffff19166020820180517bffffffffffffffffffffffffffffffffffffffffffffffffffffffff8381831617835250505050604051610d629190611d9d565b6000604051808303816000865af19150503d8060008114610d9f576040519150601f19603f3d011682016040523d82523d6000602084013e610da4565b606091505b5091509150818015610dd25750600081511480610dd1575080806020019051810190610dd09190611cbf565b5b5b610e11576040517f08c379a0000000000000000000000000000000000000000000000000000000008152600401610e0890611e00565b60405180910390fd5b505050505050565b6000808473ffffffffffffffffffffffffffffffffffffffff1663095ea7b360e01b8585604051602401610e4e929190611c6a565b604051602081830303815290604052907bffffffffffffffffffffffffffffffffffffffffffffffffffffffff19166020820180517bffffffffffffffffffffffffffffffffffffffffffffffffffffffff8381831617835250505050604051610eb89190611d9d565b6000604051808303816000865af19150503d8060008114610ef5576040519150601f19603f3d011682016040523d82523d6000602084013e610efa565b606091505b5091509150818015610f285750600081511480610f27575080806020019051810190610f269190611cbf565b5b5b610f67576040517f08c379a0000000000000000000000000000000000000000000000000000000008152600401610f5e90611e6c565b60405180910390fd5b5050505050565b600081600260008573ffffffffffffffffffffffffffffffffffffffff1673ffffffffffffffffffffffffffffffffffffffff16815260200190815260200160002054610fbb9190611e96565b9050600081131561103357670de0b6b3a764000081610fda9190611a74565b6000808573ffffffffffffffffffffffffffffffffffffffff1673ffffffffffffffffffffffffffffffffffffffff16815260200190815260200160002060008282546110279190611f2a565b925050819055506111e3565b600082600260008673ffffffffffffffffffffffffffffffffffffffff1673ffffffffffffffffffffffffffffffffffffffff168152602001908152602001600020546110809190611e96565b905060007fffffffffffffffffffffffffffffffffffffffffffffffffffffffffffffffff826110b09190611f80565b90506000808673ffffffffffffffffffffffffffffffffffffffff1673ffffffffffffffffffffffffffffffffffffffff16815260200190815260200160002054811115611133576040517f08c379a000000000000000000000000000000000000000000000000000000000815260040161112a9061212f565b60405180910390fd5b60008060008773ffffffffffffffffffffffffffffffffffffffff1673ffffffffffffffffffffffffffffffffffffffff168152602001908152602001600020548261117f9190611942565b905061118a816111e8565b816000808873ffffffffffffffffffffffffffffffffffffffff1673ffffffffffffffffffffffffffffffffffffffff16815260200190815260200160002060008282546111d89190611942565b925050819055505050505b505050565b60005b6004805490508110156113c9576000736b175474e89094c44da98b954eedeac495271d0f73ffffffffffffffffffffffffffffffffffffffff166370a08231306040518263ffffffff1660e01b81526004016112479190611476565b602060405180830381865afa158015611264573d6000803e3d6000fd5b505050506040513d601f19601f820116820180604052508101906112889190611c3d565b6000806004858154811061129f5761129e61214f565b5b9060005260206000200160009054906101000a900473ffffffffffffffffffffffffffffffffffffffff1673ffffffffffffffffffffffffffffffffffffffff1673ffffffffffffffffffffffffffffffffffffffff1681526020019081526020016000205461130f9190611afd565b90506000838261131f9190611a74565b905080600080600486815481106113395761133861214f565b5b9060005260206000200160009054906101000a900473ffffffffffffffffffffffffffffffffffffffff1673ffffffffffffffffffffffffffffffffffffffff1673ffffffffffffffffffffffffffffffffffffffff16815260200190815260200160002060008282546113ad9190611f2a565b92505081905550505080806113c19061217e565b9150506111eb565b5050565b600080fd5b6000819050919050565b6113e5816113d2565b81146113f057600080fd5b50565b600081359050611402816113dc565b92915050565b60006020828403121561141e5761141d6113cd565b5b600061142c848285016113f3565b91505092915050565b600073ffffffffffffffffffffffffffffffffffffffff82169050919050565b600061146082611435565b9050919050565b61147081611455565b82525050565b600060208201905061148b6000830184611467565b92915050565b6000819050919050565b60006114b66114b16114ac84611435565b611491565b611435565b9050919050565b60006114c88261149b565b9050919050565b60006114da826114bd565b9050919050565b6114ea816114cf565b82525050565b600060208201905061150560008301846114e1565b92915050565b61151481611455565b811461151f57600080fd5b50565b6000813590506115318161150b565b92915050565b60006020828403121561154d5761154c6113cd565b5b600061155b84828501611522565b91505092915050565b60008115159050919050565b61157981611564565b82525050565b60006020820190506115946000830184611570565b92915050565b6115a3816113d2565b82525050565b60006020820190506115be600083018461159a565b92915050565b60006115cf8261149b565b9050919050565b60006115e1826115c4565b9050919050565b6115f1816115d6565b82525050565b600060208201905061160c60008301846115e8565b92915050565b600061161d826115c4565b9050919050565b61162d81611612565b82525050565b60006020820190506116486000830184611624565b92915050565b600062ffffff82169050919050565b6116668161164e565b811461167157600080fd5b50565b6000813590506116838161165d565b92915050565b60008060008060008060c087890312156116a6576116a56113cd565b5b60006116b489828a016113f3565b96505060206116c589828a01611522565b95505060406116d689828a01611674565b94505060606116e789828a016113f3565b93505060806116f889828a016113f3565b92505060a061170989828a016113f3565b9150509295509295509295565b600080600080600080600060e0888a031215611735576117346113cd565b5b60006117438a828b01611522565b97505060206117548a828b01611522565b96505060406117658a828b016113f3565b95505060606117768a828b016113f3565b94505060806117878a828b01611674565b93505060a06117988a828b016113f3565b92505060c06117a98a828b016113f3565b91505092959891949750929550565b600082825260208201905092915050565b7f434f4c4c41544552414c3a20747279696e6720746f207769746864726177206d60008201527f6f726520636f6c6c61746572616c207468616e206465706f7369746564000000602082015250565b6000611825603d836117b8565b9150611830826117c9565b604082019050919050565b6000602082019050818103600083015261185481611818565b9050919050565b7f434f4c4c41544552414c3a20636c6f736520796f75722063757272656e74207060008201527f6f736974696f6e206265666f726520747279696e6720746f207769746864726160208201527f7700000000000000000000000000000000000000000000000000000000000000604082015250565b60006118dd6041836117b8565b91506118e88261185b565b606082019050919050565b6000602082019050818103600083015261190c816118d0565b9050919050565b7f4e487b7100000000000000000000000000000000000000000000000000000000600052601160045260246000fd5b600061194d826113d2565b9150611958836113d2565b92508282101561196b5761196a611913565b5b828203905092915050565b7f535741503a206e6f7420656e6f75676820636f6c6c61746572616c0000000000600082015250565b60006119ac601b836117b8565b91506119b782611976565b602082019050919050565b600060208201905081810360008301526119db8161199f565b9050919050565b7f535741503a2063616e6e6f7420757365206d6f7265207468616e20313030252060008201527f6f66206163636f756e7420746f2073686f727400000000000000000000000000602082015250565b6000611a3e6033836117b8565b9150611a49826119e2565b604082019050919050565b60006020820190508181036000830152611a6d81611a31565b9050919050565b6000611a7f826113d2565b9150611a8a836113d2565b9250817fffffffffffffffffffffffffffffffffffffffffffffffffffffffffffffffff0483118215151615611ac357611ac2611913565b5b828202905092915050565b7f4e487b7100000000000000000000000000000000000000000000000000000000600052601260045260246000fd5b6000611b08826113d2565b9150611b13836113d2565b925082611b2357611b22611ace565b5b828204905092915050565b611b3781611455565b82525050565b611b468161164e565b82525050565b611b55816113d2565b82525050565b611b6481611435565b82525050565b61010082016000820151611b816000850182611b2e565b506020820151611b946020850182611b2e565b506040820151611ba76040850182611b3d565b506060820151611bba6060850182611b2e565b506080820151611bcd6080850182611b4c565b5060a0820151611be060a0850182611b4c565b5060c0820151611bf360c0850182611b4c565b5060e0820151611c0660e0850182611b5b565b50505050565b600061010082019050611c226000830184611b6a565b92915050565b600081519050611c37816113dc565b92915050565b600060208284031215611c5357611c526113cd565b5b6000611c6184828501611c28565b91505092915050565b6000604082019050611c7f6000830185611467565b611c8c602083018461159a565b9392505050565b611c9c81611564565b8114611ca757600080fd5b50565b600081519050611cb981611c93565b92915050565b600060208284031215611cd557611cd46113cd565b5b6000611ce384828501611caa565b91505092915050565b6000606082019050611d016000830186611467565b611d0e6020830185611467565b611d1b604083018461159a565b949350505050565b600081519050919050565b600081905092915050565b60005b83811015611d57578082015181840152602081019050611d3c565b83811115611d66576000848401525b50505050565b6000611d7782611d23565b611d818185611d2e565b9350611d91818560208601611d39565b80840191505092915050565b6000611da98284611d6c565b915081905092915050565b7f5354460000000000000000000000000000000000000000000000000000000000600082015250565b6000611dea6003836117b8565b9150611df582611db4565b602082019050919050565b60006020820190508181036000830152611e1981611ddd565b9050919050565b7f5341000000000000000000000000000000000000000000000000000000000000600082015250565b6000611e566002836117b8565b9150611e6182611e20565b602082019050919050565b60006020820190508181036000830152611e8581611e49565b9050919050565b6000819050919050565b6000611ea182611e8c565b9150611eac83611e8c565b9250827f800000000000000000000000000000000000000000000000000000000000000001821260008412151615611ee757611ee6611913565b5b827f7fffffffffffffffffffffffffffffffffffffffffffffffffffffffffffffff018213600084121615611f1f57611f1e611913565b5b828203905092915050565b6000611f35826113d2565b9150611f40836113d2565b9250827fffffffffffffffffffffffffffffffffffffffffffffffffffffffffffffffff03821115611f7557611f74611913565b5b828201905092915050565b6000611f8b82611e8c565b9150611f9683611e8c565b9250827f7fffffffffffffffffffffffffffffffffffffffffffffffffffffffffffffff0482116000841360008413161615611fd557611fd4611913565b5b817f8000000000000000000000000000000000000000000000000000000000000000058312600084126000841316161561201257612011611913565b5b827f8000000000000000000000000000000000000000000000000000000000000000058212600084136000841216161561204f5761204e611913565b5b827f7fffffffffffffffffffffffffffffffffffffffffffffffffffffffffffffff058212600084126000841216161561208c5761208b611913565b5b828202905092915050565b7f504e4c3a206c6f7373206578636565647320757365722062616c616e63652c2060008201527f6c69717569646174696f6e2066756e6374696f6e2077696c6c2062652063616c60208201527f6c65640000000000000000000000000000000000000000000000000000000000604082015250565b60006121196043836117b8565b915061212482612097565b606082019050919050565b600060208201905081810360008301526121488161210c565b9050919050565b7f4e487b7100000000000000000000000000000000000000000000000000000000600052603260045260246000fd5b6000612189826113d2565b91507fffffffffffffffffffffffffffffffffffffffffffffffffffffffffffffffff8214156121bc576121bb611913565b5b60018201905091905056fea2646970667358221220f4260b708db6c59d4c7f5e98e1d5a9acefff923abc26bc3ad452e2ea5b3e761664736f6c634300080b0033",
  "immutableReferences": {},
  "source": "// SPDX-License-Identifier: MIT\npragma solidity ^0.8.0; //solhint-disable compiler-fixed\npragma abicoder v2;\n\n\n//THIS CONTRACT IS GOING TO GET NUKED. MOVE LOGIC TO POOL CONTRACTS\n//USING INTERNAL FUNCTIONS FOR CHECKS\n\nimport \"@openzeppelin/contracts/token/ERC20/IERC20.sol\";\nimport \"@uniswap/v3-periphery/contracts/interfaces/ISwapRouter.sol\";\nimport \"@uniswap/v3-periphery/contracts/libraries/TransferHelper.sol\";\nimport \"./BeraPoolStandardRisk.sol\";\nimport \"./BeraWrapper.sol\";\n\n\n//the public interface for the protocol\ncontract BeraRouter {\n\n    mapping(address => uint) public userCollateralBalance;\n    mapping(address => bool) internal hasCollateral;\n    mapping(address => uint) public entryPrice;\n    mapping(address => bool) public inShort;\n    address[] public poolList;\n\n    address private constant DAI_ADDRESS = 0x6B175474E89094C44Da98b954EedeAC495271d0F;\n\n    //uniswapV3 address router\n    //might have to change if implement 1inch api\n    ISwapRouter public  swapRouter;\n    BeraPoolStandardRisk public beraPoolStandardRisk;\n    BeraWrapper public beraWrapper;\n\n    address public owner;\n\n    constructor(ISwapRouter _swapRouter,\n        BeraPoolStandardRisk _beraPoolStandardRisk,\n        BeraWrapper _beraWrapper) { //solhint-disable func-visibility\n        owner = msg.sender;\n        swapRouter = _swapRouter;\n        beraPoolStandardRisk = _beraPoolStandardRisk;\n        beraWrapper = _beraWrapper;\n    }\n\n    function withdrawCollateral(uint amount) external {\n        require(amount <= userCollateralBalance[msg.sender],\n            \"COLLATERAL: trying to withdraw more collateral than deposited\");\n        require(inShort[msg.sender] == false,\n            \"COLLATERAL: close your current position before trying to withdraw\");\n\n        //reset balance of user on withdraw\n        userCollateralBalance[msg.sender] -= amount;\n\n        if (userCollateralBalance[msg.sender] <= 0) {\n            hasCollateral[msg.sender] = false;\n        }\n\n    }\n\n    // deposit collateral into user account before being allowed to short\n    function swapAndShortStandard(\n            uint amount,\n            address tokenToShort,\n            uint24 poolFee, //needed for uniswap pool\n            uint amountOutMin,\n            uint collateralPercentageOfAccount,\n            uint priceAtWrap)\n            external returns(uint amountOut) { //solhint-disable function-max-lines\n                require(amount <= userCollateralBalance[msg.sender], \"SWAP: not enough collateral\");\n                require(collateralPercentageOfAccount <= 100, \"SWAP: cannot use more than 100% of account to short\");\n\n                //TODO for refactor\n                //could reuse this code to get rid of collat percentage idea and instead use it to keep 5% of dai\n                uint amountOfCollateral = amount * collateralPercentageOfAccount / 100;\n                uint leftover = amount - amountOfCollateral;\n\n                TransferHelper.safeTransferFrom(DAI_ADDRESS, msg.sender, address(this), amount);\n                TransferHelper.safeApprove(DAI_ADDRESS, address(swapRouter), amount);\n\n                ISwapRouter.ExactInputSingleParams memory params =\n                ISwapRouter.ExactInputSingleParams({\n                    tokenIn: DAI_ADDRESS,\n                    tokenOut: tokenToShort,\n                    fee: poolFee,\n                    recipient: msg.sender, //send back to user to execute next leg\n                    deadline: block.timestamp, //solhint-disable not-rely-on-time\n                    amountIn: amountOfCollateral,\n                    amountOutMinimum: amountOutMin,\n                    sqrtPriceLimitX96: 0\n                });\n\n                // execute the frist swap & sends to beraPoolSR based on params\n                amountOut = swapRouter.exactInputSingle(params);\n\n                //execute the second swap and transfer funds to pool for holding\n                //have to update priceAtWrap, users can set this amount manually and drain funds lmfao\n                //will likely use TWAPOracle feature of uniV3 pools\n                // beraPoolStandardRisk.shortForUser(\n                //     msg.sender,\n                //     tokenToShort,\n                //     priceAtWrap,\n                //     poolFee,\n                //     amountOut,\n                //     amountOutMin\n                // );\n\n                //update entry price mapping\n                entryPrice[msg.sender] = priceAtWrap;\n\n                //update whether address is in a position or not\n                inShort[msg.sender] = true;\n\n                //send remaining funds back to user\n                if (leftover > 0) {\n                    IERC20(DAI_ADDRESS).transfer(msg.sender, leftover);\n                }\n            }\n\n    function swapAndCloseShort(\n        address user,\n        address tokenToClose,\n        uint amount,\n        uint priceAtClose,\n        uint24 poolFee,\n        uint amountOutMin,\n        uint _positionID) external returns(uint amountOut) {\n        //unwrap and unlock position\n        beraWrapper.unwrapPosition(user, _positionID);\n\n        //send dai back to user\n        //needs check for amount\n        IERC20(DAI_ADDRESS).transfer(msg.sender, amount);\n\n        //we swap dai back to weth to close the trade\n        TransferHelper.safeTransferFrom(DAI_ADDRESS, msg.sender, address(this), amount);\n        TransferHelper.safeApprove(DAI_ADDRESS, address(swapRouter), amount);\n\n        ISwapRouter.ExactInputSingleParams memory params =\n        ISwapRouter.ExactInputSingleParams({\n            tokenIn: DAI_ADDRESS,\n            tokenOut: tokenToClose,\n            fee: poolFee,\n            recipient: msg.sender, //send tokens to user to execute next leg of trade\n            deadline: block.timestamp, //solhint-disable not-rely-on-time\n            amountIn: amount,\n            amountOutMinimum: amountOutMin,\n            sqrtPriceLimitX96: 0\n        });\n\n        //execute swap\n        amountOut = swapRouter.exactInputSingle(params);\n\n        //sell tokens back for DAI\n        // beraPoolStandardRisk.closeShortForUser(\n        //     msg.sender,\n        //     tokenToClose,\n        //     amountOut, //how much tokenOut is being sent to swap back into dai (in this case weth)\n        //     priceAtClose,\n        //     poolFee,\n        //     amountOutMin\n        // );\n\n        //calculate if the user made or lost money on the position\n        //also tranfers the profits to the user and distributes user losses amongst the pool\n        calculatePNL(msg.sender, priceAtClose);\n\n        //reset user short status\n        inShort[msg.sender] = false; //solhint-disable reentrancy\n    }\n\n    function distributeProfits(uint amountToDistribute) internal {\n        for (uint i = 0; i < poolList.length; i++) {\n            //update user collateral instead?\n            uint userPercent = (userCollateralBalance[poolList[i]] / IERC20(DAI_ADDRESS).balanceOf(address(this)));\n            //percentage will be out of 100 i.e 0.3% = 30 or < 30/100 >\n            uint percentToSendToUsers = userPercent * amountToDistribute;\n            userCollateralBalance[poolList[i]] += percentToSendToUsers;\n        }\n    }\n\n    function calculatePNL(address user, uint priceAtClose) internal {\n        int difference = int(entryPrice[user]) - int(priceAtClose);\n        if (difference > 0) {\n            //IERC20(DAI_ADDRESS).transfer(user, uint(difference)); //case where user makes money\n            userCollateralBalance[user] += (uint(difference) * 1e18);\n        } else {\n            int loss = int(entryPrice[user]) - int(priceAtClose); //case where user loses money\n            //make negative num postive\n            int userLoss = (loss * (-1));\n            require(uint(userLoss) <= userCollateralBalance[user],\n                \"PNL: loss exceeds user balance, liquidation function will be called\");\n            uint amountToDistribute = uint(userLoss) - userCollateralBalance[user];\n\n            //distribute remaining amongst pool holders\n            distributeProfits(amountToDistribute);\n\n            //update user collateral balance to reflect loss\n            //in this case it would be whoever is closing their short position\n            userCollateralBalance[user] -= uint(userLoss);\n        }\n    }\n\n\n\n\n\n\n}\n",
  "sourcePath": "/home/kevin/Code/solidity_projects/beraMarket/contracts/BeraRouter.sol",
  "compiler": {
    "name": "solc",
    "version": "0.8.11+commit.d7f03943.Emscripten.clang"
  },
  "schemaVersion": "3.4.3",
  "updatedAt": "2021-12-23T15:48:54.020Z",
  "devdoc": {
    "kind": "dev",
    "methods": {},
    "version": 1
  },
  "userdoc": {
    "kind": "user",
    "methods": {},
    "version": 1
  }
}