{
  "contractName": "BeraPoolStandardRisk",
  "abi": [
    {
      "inputs": [
        {
          "internalType": "contract SwapOracle",
          "name": "_swapOracle",
          "type": "address"
        },
        {
          "internalType": "contract BeraWrapper",
          "name": "_beraWrapper",
          "type": "address"
        },
        {
          "internalType": "contract BeraSwapper",
          "name": "_beraSwapper",
          "type": "address"
        }
      ],
      "stateMutability": "nonpayable",
      "type": "constructor"
    },
    {
      "inputs": [],
      "name": "DAI_ADDRESS",
      "outputs": [
        {
          "internalType": "address",
          "name": "",
          "type": "address"
        }
      ],
      "stateMutability": "view",
      "type": "function"
    },
    {
      "inputs": [],
      "name": "globalRewards",
      "outputs": [
        {
          "internalType": "uint256",
          "name": "",
          "type": "uint256"
        }
      ],
      "stateMutability": "view",
      "type": "function"
    },
    {
      "inputs": [
        {
          "internalType": "address",
          "name": "",
          "type": "address"
        },
        {
          "internalType": "address",
          "name": "",
          "type": "address"
        },
        {
          "internalType": "uint256[]",
          "name": "",
          "type": "uint256[]"
        },
        {
          "internalType": "uint256[]",
          "name": "",
          "type": "uint256[]"
        },
        {
          "internalType": "bytes",
          "name": "",
          "type": "bytes"
        }
      ],
      "name": "onERC1155BatchReceived",
      "outputs": [
        {
          "internalType": "bytes4",
          "name": "",
          "type": "bytes4"
        }
      ],
      "stateMutability": "nonpayable",
      "type": "function"
    },
    {
      "inputs": [
        {
          "internalType": "address",
          "name": "",
          "type": "address"
        },
        {
          "internalType": "address",
          "name": "",
          "type": "address"
        },
        {
          "internalType": "uint256",
          "name": "",
          "type": "uint256"
        },
        {
          "internalType": "uint256",
          "name": "",
          "type": "uint256"
        },
        {
          "internalType": "bytes",
          "name": "",
          "type": "bytes"
        }
      ],
      "name": "onERC1155Received",
      "outputs": [
        {
          "internalType": "bytes4",
          "name": "",
          "type": "bytes4"
        }
      ],
      "stateMutability": "nonpayable",
      "type": "function"
    },
    {
      "inputs": [],
      "name": "owner",
      "outputs": [
        {
          "internalType": "address",
          "name": "",
          "type": "address"
        }
      ],
      "stateMutability": "view",
      "type": "function"
    },
    {
      "inputs": [],
      "name": "protocolOwnedLiquidity",
      "outputs": [
        {
          "internalType": "uint256",
          "name": "",
          "type": "uint256"
        }
      ],
      "stateMutability": "view",
      "type": "function"
    },
    {
      "inputs": [
        {
          "internalType": "bytes4",
          "name": "interfaceId",
          "type": "bytes4"
        }
      ],
      "name": "supportsInterface",
      "outputs": [
        {
          "internalType": "bool",
          "name": "",
          "type": "bool"
        }
      ],
      "stateMutability": "view",
      "type": "function"
    },
    {
      "inputs": [
        {
          "internalType": "address",
          "name": "",
          "type": "address"
        }
      ],
      "name": "users",
      "outputs": [
        {
          "internalType": "uint256",
          "name": "lastClaimedRewards",
          "type": "uint256"
        },
        {
          "internalType": "uint128",
          "name": "userDepositBalance",
          "type": "uint128"
        },
        {
          "internalType": "uint128",
          "name": "userShortID",
          "type": "uint128"
        }
      ],
      "stateMutability": "view",
      "type": "function"
    },
    {
      "inputs": [
        {
          "internalType": "uint128",
          "name": "amount",
          "type": "uint128"
        }
      ],
      "name": "depositCollateral",
      "outputs": [],
      "stateMutability": "nonpayable",
      "type": "function"
    },
    {
      "inputs": [
        {
          "internalType": "uint128",
          "name": "amount",
          "type": "uint128"
        },
        {
          "internalType": "uint256",
          "name": "userShortID",
          "type": "uint256"
        }
      ],
      "name": "withdrawFromPool",
      "outputs": [],
      "stateMutability": "nonpayable",
      "type": "function"
    },
    {
      "inputs": [],
      "name": "claimRewards",
      "outputs": [],
      "stateMutability": "nonpayable",
      "type": "function"
    },
    {
      "inputs": [
        {
          "internalType": "uint256",
          "name": "amount",
          "type": "uint256"
        },
        {
          "internalType": "address",
          "name": "tokenToShort",
          "type": "address"
        },
        {
          "internalType": "uint24",
          "name": "poolFee",
          "type": "uint24"
        },
        {
          "internalType": "uint256",
          "name": "amountOutMin",
          "type": "uint256"
        }
      ],
      "name": "swapShort",
      "outputs": [],
      "stateMutability": "nonpayable",
      "type": "function"
    },
    {
      "inputs": [
        {
          "internalType": "address",
          "name": "tokenToShort",
          "type": "address"
        },
        {
          "internalType": "uint24",
          "name": "poolFee",
          "type": "uint24"
        },
        {
          "internalType": "uint256",
          "name": "amount",
          "type": "uint256"
        }
      ],
      "name": "supplyShort",
      "outputs": [
        {
          "internalType": "uint256",
          "name": "amountOut",
          "type": "uint256"
        }
      ],
      "stateMutability": "nonpayable",
      "type": "function"
    },
    {
      "inputs": [
        {
          "internalType": "address",
          "name": "userUnderwater",
          "type": "address"
        },
        {
          "internalType": "address",
          "name": "liquidator",
          "type": "address"
        },
        {
          "internalType": "uint128",
          "name": "shortID",
          "type": "uint128"
        }
      ],
      "name": "liquidateUser",
      "outputs": [],
      "stateMutability": "nonpayable",
      "type": "function"
    },
    {
      "inputs": [
        {
          "internalType": "address",
          "name": "user",
          "type": "address"
        },
        {
          "internalType": "uint128",
          "name": "shortID",
          "type": "uint128"
        }
      ],
      "name": "getLiquidator",
      "outputs": [
        {
          "internalType": "address",
          "name": "liquidator",
          "type": "address"
        }
      ],
      "stateMutability": "view",
      "type": "function"
    },
    {
      "inputs": [
        {
          "internalType": "address",
          "name": "user",
          "type": "address"
        }
      ],
      "name": "getTotalCollateral",
      "outputs": [
        {
          "internalType": "uint256",
          "name": "totalCollateral",
          "type": "uint256"
        }
      ],
      "stateMutability": "view",
      "type": "function"
    },
    {
      "inputs": [
        {
          "internalType": "address",
          "name": "user",
          "type": "address"
        }
      ],
      "name": "checkRewards",
      "outputs": [
        {
          "internalType": "uint256",
          "name": "profits",
          "type": "uint256"
        }
      ],
      "stateMutability": "view",
      "type": "function"
    },
    {
      "inputs": [],
      "name": "getGlobalRewards",
      "outputs": [
        {
          "internalType": "uint256",
          "name": "globals",
          "type": "uint256"
        }
      ],
      "stateMutability": "view",
      "type": "function"
    },
    {
      "inputs": [
        {
          "internalType": "address",
          "name": "user",
          "type": "address"
        },
        {
          "internalType": "uint128",
          "name": "shortID",
          "type": "uint128"
        }
      ],
      "name": "getUserShortBalance",
      "outputs": [
        {
          "internalType": "uint256",
          "name": "bal",
          "type": "uint256"
        }
      ],
      "stateMutability": "view",
      "type": "function"
    },
    {
      "inputs": [
        {
          "internalType": "address",
          "name": "user",
          "type": "address"
        },
        {
          "internalType": "uint128",
          "name": "shortID",
          "type": "uint128"
        }
      ],
      "name": "getUserEntryPrice",
      "outputs": [
        {
          "internalType": "uint256",
          "name": "entry",
          "type": "uint256"
        }
      ],
      "stateMutability": "view",
      "type": "function"
    },
    {
      "inputs": [
        {
          "internalType": "address",
          "name": "user",
          "type": "address"
        },
        {
          "internalType": "uint128",
          "name": "shortID",
          "type": "uint128"
        }
      ],
      "name": "getTokenAndFeeShortedByUser",
      "outputs": [
        {
          "internalType": "address",
          "name": "token",
          "type": "address"
        },
        {
          "internalType": "uint24",
          "name": "fee",
          "type": "uint24"
        }
      ],
      "stateMutability": "view",
      "type": "function"
    },
    {
      "inputs": [
        {
          "internalType": "address",
          "name": "user",
          "type": "address"
        },
        {
          "internalType": "uint128",
          "name": "userShortID",
          "type": "uint128"
        },
        {
          "internalType": "uint256",
          "name": "amountOutMin",
          "type": "uint256"
        }
      ],
      "name": "closeShort",
      "outputs": [],
      "stateMutability": "nonpayable",
      "type": "function"
    }
  ],
  "bytecode": "0x60a0604052736b175474e89094c44da98b954eedeac495271d0f73ffffffffffffffffffffffffffffffffffffffff1660809073ffffffffffffffffffffffffffffffffffffffff168152503480156200005857600080fd5b5060405162003ca738038062003ca783398181016040528101906200007e919062000293565b33600160006101000a81548173ffffffffffffffffffffffffffffffffffffffff021916908373ffffffffffffffffffffffffffffffffffffffff16021790555082600660006101000a81548173ffffffffffffffffffffffffffffffffffffffff021916908373ffffffffffffffffffffffffffffffffffffffff16021790555081600460006101000a81548173ffffffffffffffffffffffffffffffffffffffff021916908373ffffffffffffffffffffffffffffffffffffffff16021790555080600560006101000a81548173ffffffffffffffffffffffffffffffffffffffff021916908373ffffffffffffffffffffffffffffffffffffffff160217905550505050620002ef565b600080fd5b600073ffffffffffffffffffffffffffffffffffffffff82169050919050565b6000620001bd8262000190565b9050919050565b6000620001d182620001b0565b9050919050565b620001e381620001c4565b8114620001ef57600080fd5b50565b6000815190506200020381620001d8565b92915050565b60006200021682620001b0565b9050919050565b620002288162000209565b81146200023457600080fd5b50565b60008151905062000248816200021d565b92915050565b60006200025b82620001b0565b9050919050565b6200026d816200024e565b81146200027957600080fd5b50565b6000815190506200028d8162000262565b92915050565b600080600060608486031215620002af57620002ae6200018b565b5b6000620002bf86828701620001f2565b9350506020620002d28682870162000237565b9250506040620002e5868287016200027c565b9150509250925092565b60805161396462000343600039600081816109f201528181610a9501528181610b5e01528181610d51015281816111f4015281816113a00152818161193101528181611b020152611c8201526139646000f3fe608060405234801561001057600080fd5b50600436106101425760003560e01c806360a98b80116100b8578063bc197c811161007c578063bc197c81146103a0578063be9405f3146103d0578063c5802f88146103ee578063d8ea45c01461041e578063ecc531021461043a578063f23a6e611461045657610142565b806360a98b80146102e45780637423031e1461031457806380a0b0fc146103325780638da5cb5b14610350578063a87430ba1461036e57610142565b806324b1e1c61161010a57806324b1e1c6146102385780632a4c0a1a14610254578063344f277114610272578063372500ab1461028e5780633a3752961461029857806350bfe355146102c857610142565b806301ffc9a714610147578063046ff0d3146101775780631bdbc3bf146101a75780631c115c2f146101d75780631c8722f914610208575b600080fd5b610161600480360381019061015c91906126c4565b610486565b60405161016e919061270c565b60405180910390f35b610191600480360381019061018c9190612785565b610500565b60405161019e91906127cb565b60405180910390f35b6101c160048036038101906101bc919061282e565b610524565b6040516101ce919061287d565b60405180910390f35b6101f160048036038101906101ec919061282e565b6105c8565b6040516101ff9291906128b6565b60405180910390f35b610222600480360381019061021d919061282e565b6106f9565b60405161022f91906127cb565b60405180910390f35b610252600480360381019061024d919061290b565b6107ab565b005b61025c610a93565b604051610269919061287d565b60405180910390f35b61028c6004803603810190610287919061294b565b610ab7565b005b610296610b9a565b005b6102b260048036038101906102ad91906129a4565b610ba5565b6040516102bf91906127cb565b60405180910390f35b6102e260048036038101906102dd91906129f7565b610df7565b005b6102fe60048036038101906102f99190612785565b610dfc565b60405161030b91906127cb565b60405180910390f35b61031c610f5a565b60405161032991906127cb565b60405180910390f35b61033a610f60565b60405161034791906127cb565b60405180910390f35b610358610f6a565b604051610365919061287d565b60405180910390f35b61038860048036038101906103839190612785565b610f90565b60405161039793929190612a59565b60405180910390f35b6103ba60048036038101906103b59190612c9e565b610ff2565b6040516103c79190612d7c565b60405180910390f35b6103d8611007565b6040516103e591906127cb565b60405180910390f35b6104086004803603810190610403919061282e565b61100d565b60405161041591906127cb565b60405180910390f35b61043860048036038101906104339190612d97565b611091565b005b610454600480360381019061044f9190612dfe565b611447565b005b610470600480360381019061046b9190612e51565b611bad565b60405161047d9190612d7c565b60405180910390f35b60007f4e2312e0000000000000000000000000000000000000000000000000000000007bffffffffffffffffffffffffffffffffffffffffffffffffffffffff1916827bffffffffffffffffffffffffffffffffffffffffffffffffffffffff191614806104f957506104f882611bc2565b5b9050919050565b600061050b82611c2c565b6fffffffffffffffffffffffffffffffff169050919050565b60008060008473ffffffffffffffffffffffffffffffffffffffff1673ffffffffffffffffffffffffffffffffffffffff1681526020019081526020016000206003016000836fffffffffffffffffffffffffffffffff166fffffffffffffffffffffffffffffffff16815260200190815260200160002060000160029054906101000a900473ffffffffffffffffffffffffffffffffffffffff16905092915050565b6000806000808573ffffffffffffffffffffffffffffffffffffffff1673ffffffffffffffffffffffffffffffffffffffff1681526020019081526020016000206002016000846fffffffffffffffffffffffffffffffff166fffffffffffffffffffffffffffffffff168152602001908152602001600020600201600b9054906101000a900473ffffffffffffffffffffffffffffffffffffffff1691506000808573ffffffffffffffffffffffffffffffffffffffff1673ffffffffffffffffffffffffffffffffffffffff1681526020019081526020016000206002016000846fffffffffffffffffffffffffffffffff166fffffffffffffffffffffffffffffffff16815260200190815260200160002060020160089054906101000a900462ffffff1690509250929050565b60008060008473ffffffffffffffffffffffffffffffffffffffff1673ffffffffffffffffffffffffffffffffffffffff1681526020019081526020016000206002016000836fffffffffffffffffffffffffffffffff166fffffffffffffffffffffffffffffffff16815260200190815260200160002060010160009054906101000a90046fffffffffffffffffffffffffffffffff166fffffffffffffffffffffffffffffffff16905092915050565b6000803373ffffffffffffffffffffffffffffffffffffffff1673ffffffffffffffffffffffffffffffffffffffff16815260200190815260200160002060010160009054906101000a90046fffffffffffffffffffffffffffffffff166fffffffffffffffffffffffffffffffff16826fffffffffffffffffffffffffffffffff16111561086f576040517f08c379a000000000000000000000000000000000000000000000000000000000815260040161086690612f45565b60405180910390fd5b6000600460009054906101000a900473ffffffffffffffffffffffffffffffffffffffff1673ffffffffffffffffffffffffffffffffffffffff1662fdd58e33846040518363ffffffff1660e01b81526004016108cd929190612f65565b602060405180830381865afa1580156108ea573d6000803e3d6000fd5b505050506040513d601f19601f8201168201806040525081019061090e9190612fa3565b1461094e576040517f08c379a00000000000000000000000000000000000000000000000000000000081526004016109459061301c565b60405180910390fd5b816000803373ffffffffffffffffffffffffffffffffffffffff1673ffffffffffffffffffffffffffffffffffffffff16815260200190815260200160002060010160008282829054906101000a90046fffffffffffffffffffffffffffffffff166109ba919061306b565b92506101000a8154816fffffffffffffffffffffffffffffffff02191690836fffffffffffffffffffffffffffffffff1602179055507f000000000000000000000000000000000000000000000000000000000000000073ffffffffffffffffffffffffffffffffffffffff1663a9059cbb33846040518363ffffffff1660e01b8152600401610a4b9291906130da565b6020604051808303816000875af1158015610a6a573d6000803e3d6000fd5b505050506040513d601f19601f82011682018060405250810190610a8e919061312f565b505050565b7f000000000000000000000000000000000000000000000000000000000000000081565b806000803373ffffffffffffffffffffffffffffffffffffffff1673ffffffffffffffffffffffffffffffffffffffff16815260200190815260200160002060010160008282829054906101000a90046fffffffffffffffffffffffffffffffff16610b23919061315c565b92506101000a8154816fffffffffffffffffffffffffffffffff02191690836fffffffffffffffffffffffffffffffff160217905550610b977f00000000000000000000000000000000000000000000000000000000000000003330846fffffffffffffffffffffffffffffffff16611d95565b50565b610ba333611eed565b565b6000610bb88362ffffff161480610bc257506101f48362ffffff16145b610c01576040517f08c379a0000000000000000000000000000000000000000000000000000000008152600401610bf8906131ee565b60405180910390fd5b600560009054906101000a900473ffffffffffffffffffffffffffffffffffffffff1673ffffffffffffffffffffffffffffffffffffffff1663bbe9247f33868686306040518663ffffffff1660e01b8152600401610c6495949392919061320e565b6020604051808303816000875af1158015610c83573d6000803e3d6000fd5b505050506040513d601f19601f82011682018060405250810190610ca79190612fa3565b9050600080610cb833848888612004565b91509150600460009054906101000a900473ffffffffffffffffffffffffffffffffffffffff1673ffffffffffffffffffffffffffffffffffffffff166391b3f9b1308689866040518563ffffffff1660e01b8152600401610d1d9493929190613261565b600060405180830381600087803b158015610d3757600080fd5b505af1158015610d4b573d6000803e3d6000fd5b505050507f000000000000000000000000000000000000000000000000000000000000000073ffffffffffffffffffffffffffffffffffffffff1663a9059cbb33836040518363ffffffff1660e01b8152600401610daa929190612f65565b6020604051808303816000875af1158015610dc9573d6000803e3d6000fd5b505050506040513d601f19601f82011682018060405250810190610ded919061312f565b5050509392505050565b505050565b600080600090505b6000808473ffffffffffffffffffffffffffffffffffffffff1673ffffffffffffffffffffffffffffffffffffffff16815260200190815260200160002060010160109054906101000a90046fffffffffffffffffffffffffffffffff166fffffffffffffffffffffffffffffffff16816fffffffffffffffffffffffffffffffff1611610f54576000808473ffffffffffffffffffffffffffffffffffffffff1673ffffffffffffffffffffffffffffffffffffffff1681526020019081526020016000206002016000826fffffffffffffffffffffffffffffffff166fffffffffffffffffffffffffffffffff16815260200190815260200160002060010160009054906101000a90046fffffffffffffffffffffffffffffffff166fffffffffffffffffffffffffffffffff1682610f3f91906132a6565b91508080610f4c906132fc565b915050610e04565b50919050565b60035481565b6000600354905090565b600160009054906101000a900473ffffffffffffffffffffffffffffffffffffffff1681565b60006020528060005260406000206000915090508060000154908060010160009054906101000a90046fffffffffffffffffffffffffffffffff16908060010160109054906101000a90046fffffffffffffffffffffffffffffffff16905083565b600063bc197c8160e01b905095945050505050565b60025481565b60008060008473ffffffffffffffffffffffffffffffffffffffff1673ffffffffffffffffffffffffffffffffffffffff1681526020019081526020016000206002016000836fffffffffffffffffffffffffffffffff166fffffffffffffffffffffffffffffffff16815260200190815260200160002060000154905092915050565b6000803373ffffffffffffffffffffffffffffffffffffffff1673ffffffffffffffffffffffffffffffffffffffff16815260200190815260200160002060010160009054906101000a90046fffffffffffffffffffffffffffffffff166fffffffffffffffffffffffffffffffff16841115611143576040517f08c379a000000000000000000000000000000000000000000000000000000000815260040161113a90613381565b60405180910390fd5b610bb88262ffffff16148061115e57506101f48262ffffff16145b61119d576040517f08c379a0000000000000000000000000000000000000000000000000000000008152600401611194906131ee565b60405180910390fd5b6000806111ac33878787612004565b915091506000600560009054906101000a900473ffffffffffffffffffffffffffffffffffffffff1673ffffffffffffffffffffffffffffffffffffffff1663f2e6c8cc33887f000000000000000000000000000000000000000000000000000000000000000089878a6040518763ffffffff1660e01b8152600401611237969594939291906133a1565b6020604051808303816000875af1158015611256573d6000803e3d6000fd5b505050506040513d601f19601f8201168201806040525081019061127a9190612fa3565b9050600460009054906101000a900473ffffffffffffffffffffffffffffffffffffffff1673ffffffffffffffffffffffffffffffffffffffff166391b3f9b1308389876040518563ffffffff1660e01b81526004016112dd9493929190613261565b600060405180830381600087803b1580156112f757600080fd5b505af115801561130b573d6000803e3d6000fd5b5050505061137b336000803373ffffffffffffffffffffffffffffffffffffffff1673ffffffffffffffffffffffffffffffffffffffff16815260200190815260200160002060010160109054906101000a90046fffffffffffffffffffffffffffffffff1685858a868b612323565b6000670de0b6b3a764000084836113929190613402565b61139c919061348b565b90507f000000000000000000000000000000000000000000000000000000000000000073ffffffffffffffffffffffffffffffffffffffff1663a9059cbb33836040518363ffffffff1660e01b81526004016113f9929190612f65565b6020604051808303816000875af1158015611418573d6000803e3d6000fd5b505050506040513d601f19601f8201168201806040525081019061143c919061312f565b505050505050505050565b6000600460009054906101000a900473ffffffffffffffffffffffffffffffffffffffff1673ffffffffffffffffffffffffffffffffffffffff1662fdd58e856000808873ffffffffffffffffffffffffffffffffffffffff1673ffffffffffffffffffffffffffffffffffffffff1681526020019081526020016000206002016000876fffffffffffffffffffffffffffffffff166fffffffffffffffffffffffffffffffff16815260200190815260200160002060020160009054906101000a900467ffffffffffffffff166040518363ffffffff1660e01b8152600401611532929190613501565b602060405180830381865afa15801561154f573d6000803e3d6000fd5b505050506040513d601f19601f820116820180604052508101906115739190612fa3565b11806116095750600115156000808573ffffffffffffffffffffffffffffffffffffffff1673ffffffffffffffffffffffffffffffffffffffff1681526020019081526020016000206003016000846fffffffffffffffffffffffffffffffff166fffffffffffffffffffffffffffffffff16815260200190815260200160002060000160009054906101000a900460ff161515145b611648576040517f08c379a000000000000000000000000000000000000000000000000000000000815260040161163f9061359c565b60405180910390fd5b60008061165585856105c8565b915091506000600660009054906101000a900473ffffffffffffffffffffffffffffffffffffffff1673ffffffffffffffffffffffffffffffffffffffff1663ec3eb22384846040518363ffffffff1660e01b81526004016116b89291906128b6565b602060405180830381865afa1580156116d5573d6000803e3d6000fd5b505050506040513d601f19601f820116820180604052508101906116f99190612fa3565b90506000600460009054906101000a900473ffffffffffffffffffffffffffffffffffffffff1673ffffffffffffffffffffffffffffffffffffffff1663070fb8f060e01b8760405160240161174f91906135bc565b604051602081830303815290604052907bffffffffffffffffffffffffffffffffffffffffffffffffffffffff19166020820180517bffffffffffffffffffffffffffffffffffffffffffffffffffffffff83818316178352505050506040516117b99190613651565b600060405180830381855af49150503d80600081146117f4576040519150601f19603f3d011682016040523d82523d6000602084013e6117f9565b606091505b505090508061183d576040517f08c379a0000000000000000000000000000000000000000000000000000000008152600401611834906136b4565b60405180910390fd5b60008060008973ffffffffffffffffffffffffffffffffffffffff1673ffffffffffffffffffffffffffffffffffffffff1681526020019081526020016000206002016000886fffffffffffffffffffffffffffffffff166fffffffffffffffffffffffffffffffff16815260200190815260200160002060010160006101000a8154816fffffffffffffffffffffffffffffffff02191690836fffffffffffffffffffffffffffffffff1602179055506000600560009054906101000a900473ffffffffffffffffffffffffffffffffffffffff1673ffffffffffffffffffffffffffffffffffffffff1663f2e6c8cc337f000000000000000000000000000000000000000000000000000000000000000088886000808f73ffffffffffffffffffffffffffffffffffffffff1673ffffffffffffffffffffffffffffffffffffffff16815260200190815260200160002060020160008e6fffffffffffffffffffffffffffffffff166fffffffffffffffffffffffffffffffff16815260200190815260200160002060010160109054906101000a90046fffffffffffffffffffffffffffffffff168c6040518763ffffffff1660e01b8152600401611a0a969594939291906136d4565b6020604051808303816000875af1158015611a29573d6000803e3d6000fd5b505050506040513d601f19601f82011682018060405250810190611a4d9190612fa3565b905060008073__PnLCalculator_________________________63a51e4ab3611a768c8c61100d565b87866040518463ffffffff1660e01b8152600401611a969392919061375d565b6040805180830381865af4158015611ab2573d6000803e3d6000fd5b505050506040513d601f19601f82011682018060405250810190611ad691906137cd565b9150915060018160ff161415611b00578160036000828254611af891906132a6565b925050819055505b7f000000000000000000000000000000000000000000000000000000000000000073ffffffffffffffffffffffffffffffffffffffff166323b872dd8b30866040518463ffffffff1660e01b8152600401611b5d9392919061380d565b6020604051808303816000875af1158015611b7c573d6000803e3d6000fd5b505050506040513d601f19601f82011682018060405250810190611ba0919061312f565b5050505050505050505050565b600063f23a6e6160e01b905095945050505050565b60007f01ffc9a7000000000000000000000000000000000000000000000000000000007bffffffffffffffffffffffffffffffffffffffffffffffffffffffff1916827bffffffffffffffffffffffffffffffffffffffffffffffffffffffff1916149050919050565b6000806000808473ffffffffffffffffffffffffffffffffffffffff1673ffffffffffffffffffffffffffffffffffffffff16815260200190815260200160002060000154600354611c7e9190613844565b90507f000000000000000000000000000000000000000000000000000000000000000073ffffffffffffffffffffffffffffffffffffffff166370a08231306040518263ffffffff1660e01b8152600401611cd9919061287d565b602060405180830381865afa158015611cf6573d6000803e3d6000fd5b505050506040513d601f19601f82011682018060405250810190611d1a9190612fa3565b81611d25919061348b565b6000808573ffffffffffffffffffffffffffffffffffffffff1673ffffffffffffffffffffffffffffffffffffffff16815260200190815260200160002060010160009054906101000a90046fffffffffffffffffffffffffffffffff16611d8d9190613878565b915050919050565b6000808573ffffffffffffffffffffffffffffffffffffffff166323b872dd60e01b868686604051602401611dcc9392919061380d565b604051602081830303815290604052907bffffffffffffffffffffffffffffffffffffffffffffffffffffffff19166020820180517bffffffffffffffffffffffffffffffffffffffffffffffffffffffff8381831617835250505050604051611e369190613651565b6000604051808303816000865af19150503d8060008114611e73576040519150601f19603f3d011682016040523d82523d6000602084013e611e78565b606091505b5091509150818015611ea65750600081511480611ea5575080806020019051810190611ea4919061312f565b5b5b611ee5576040517f08c379a0000000000000000000000000000000000000000000000000000000008152600401611edc9061390e565b60405180910390fd5b505050505050565b6000611ef882611c2c565b90506000816fffffffffffffffffffffffffffffffff16111561200057806000808473ffffffffffffffffffffffffffffffffffffffff1673ffffffffffffffffffffffffffffffffffffffff16815260200190815260200160002060010160008282829054906101000a90046fffffffffffffffffffffffffffffffff16611f81919061315c565b92506101000a8154816fffffffffffffffffffffffffffffffff02191690836fffffffffffffffffffffffffffffffff1602179055506003546000808473ffffffffffffffffffffffffffffffffffffffff1673ffffffffffffffffffffffffffffffffffffffff168152602001908152602001600020600001819055505b5050565b600080600660009054906101000a900473ffffffffffffffffffffffffffffffffffffffff1673ffffffffffffffffffffffffffffffffffffffff1663ec3eb22385856040518363ffffffff1660e01b81526004016120649291906128b6565b602060405180830381865afa158015612081573d6000803e3d6000fd5b505050506040513d601f19601f820116820180604052508101906120a59190612fa3565b915060016000808873ffffffffffffffffffffffffffffffffffffffff1673ffffffffffffffffffffffffffffffffffffffff16815260200190815260200160002060010160108282829054906101000a90046fffffffffffffffffffffffffffffffff16612114919061315c565b92506101000a8154816fffffffffffffffffffffffffffffffff02191690836fffffffffffffffffffffffffffffffff160217905550600061215587610dfc565b11156122db576000808773ffffffffffffffffffffffffffffffffffffffff1673ffffffffffffffffffffffffffffffffffffffff16815260200190815260200160002060010160009054906101000a90046fffffffffffffffffffffffffffffffff166fffffffffffffffffffffffffffffffff166121d487610dfc565b1115612215576040517f08c379a000000000000000000000000000000000000000000000000000000000815260040161220c90613381565b60405180910390fd5b6000808773ffffffffffffffffffffffffffffffffffffffff1673ffffffffffffffffffffffffffffffffffffffff16815260200190815260200160002060010160009054906101000a90046fffffffffffffffffffffffffffffffff166fffffffffffffffffffffffffffffffff1661228e87610dfc565b8661229991906132a6565b11156122da576040517f08c379a00000000000000000000000000000000000000000000000000000000081526004016122d190613381565b60405180910390fd5b5b60646063866122ea9190613402565b6122f4919061348b565b905080856123029190613844565b6002600082825461231391906132a6565b9250508190555094509492505050565b846000808973ffffffffffffffffffffffffffffffffffffffff1673ffffffffffffffffffffffffffffffffffffffff1681526020019081526020016000206002016000886fffffffffffffffffffffffffffffffff166fffffffffffffffffffffffffffffffff16815260200190815260200160002060000181905550836000808973ffffffffffffffffffffffffffffffffffffffff1673ffffffffffffffffffffffffffffffffffffffff1681526020019081526020016000206002016000886fffffffffffffffffffffffffffffffff166fffffffffffffffffffffffffffffffff16815260200190815260200160002060010160006101000a8154816fffffffffffffffffffffffffffffffff02191690836fffffffffffffffffffffffffffffffff160217905550826000808973ffffffffffffffffffffffffffffffffffffffff1673ffffffffffffffffffffffffffffffffffffffff1681526020019081526020016000206002016000886fffffffffffffffffffffffffffffffff166fffffffffffffffffffffffffffffffff168152602001908152602001600020600201600b6101000a81548173ffffffffffffffffffffffffffffffffffffffff021916908373ffffffffffffffffffffffffffffffffffffffff160217905550816000808973ffffffffffffffffffffffffffffffffffffffff1673ffffffffffffffffffffffffffffffffffffffff1681526020019081526020016000206002016000886fffffffffffffffffffffffffffffffff166fffffffffffffffffffffffffffffffff16815260200190815260200160002060010160106101000a8154816fffffffffffffffffffffffffffffffff02191690836fffffffffffffffffffffffffffffffff160217905550806000808973ffffffffffffffffffffffffffffffffffffffff1673ffffffffffffffffffffffffffffffffffffffff1681526020019081526020016000206002016000886fffffffffffffffffffffffffffffffff166fffffffffffffffffffffffffffffffff16815260200190815260200160002060020160086101000a81548162ffffff021916908362ffffff16021790555050505050505050565b6000604051905090565b600080fd5b600080fd5b60007fffffffff0000000000000000000000000000000000000000000000000000000082169050919050565b6126a18161266c565b81146126ac57600080fd5b50565b6000813590506126be81612698565b92915050565b6000602082840312156126da576126d9612662565b5b60006126e8848285016126af565b91505092915050565b60008115159050919050565b612706816126f1565b82525050565b600060208201905061272160008301846126fd565b92915050565b600073ffffffffffffffffffffffffffffffffffffffff82169050919050565b600061275282612727565b9050919050565b61276281612747565b811461276d57600080fd5b50565b60008135905061277f81612759565b92915050565b60006020828403121561279b5761279a612662565b5b60006127a984828501612770565b91505092915050565b6000819050919050565b6127c5816127b2565b82525050565b60006020820190506127e060008301846127bc565b92915050565b60006fffffffffffffffffffffffffffffffff82169050919050565b61280b816127e6565b811461281657600080fd5b50565b60008135905061282881612802565b92915050565b6000806040838503121561284557612844612662565b5b600061285385828601612770565b925050602061286485828601612819565b9150509250929050565b61287781612747565b82525050565b6000602082019050612892600083018461286e565b92915050565b600062ffffff82169050919050565b6128b081612898565b82525050565b60006040820190506128cb600083018561286e565b6128d860208301846128a7565b9392505050565b6128e8816127b2565b81146128f357600080fd5b50565b600081359050612905816128df565b92915050565b6000806040838503121561292257612921612662565b5b600061293085828601612819565b9250506020612941858286016128f6565b9150509250929050565b60006020828403121561296157612960612662565b5b600061296f84828501612819565b91505092915050565b61298181612898565b811461298c57600080fd5b50565b60008135905061299e81612978565b92915050565b6000806000606084860312156129bd576129bc612662565b5b60006129cb86828701612770565b93505060206129dc8682870161298f565b92505060406129ed868287016128f6565b9150509250925092565b600080600060608486031215612a1057612a0f612662565b5b6000612a1e86828701612770565b9350506020612a2f86828701612770565b9250506040612a4086828701612819565b9150509250925092565b612a53816127e6565b82525050565b6000606082019050612a6e60008301866127bc565b612a7b6020830185612a4a565b612a886040830184612a4a565b949350505050565b600080fd5b6000601f19601f8301169050919050565b7f4e487b7100000000000000000000000000000000000000000000000000000000600052604160045260246000fd5b612ade82612a95565b810181811067ffffffffffffffff82111715612afd57612afc612aa6565b5b80604052505050565b6000612b10612658565b9050612b1c8282612ad5565b919050565b600067ffffffffffffffff821115612b3c57612b3b612aa6565b5b602082029050602081019050919050565b600080fd5b6000612b65612b6084612b21565b612b06565b90508083825260208201905060208402830185811115612b8857612b87612b4d565b5b835b81811015612bb15780612b9d88826128f6565b845260208401935050602081019050612b8a565b5050509392505050565b600082601f830112612bd057612bcf612a90565b5b8135612be0848260208601612b52565b91505092915050565b600080fd5b600067ffffffffffffffff821115612c0957612c08612aa6565b5b612c1282612a95565b9050602081019050919050565b82818337600083830152505050565b6000612c41612c3c84612bee565b612b06565b905082815260208101848484011115612c5d57612c5c612be9565b5b612c68848285612c1f565b509392505050565b600082601f830112612c8557612c84612a90565b5b8135612c95848260208601612c2e565b91505092915050565b600080600080600060a08688031215612cba57612cb9612662565b5b6000612cc888828901612770565b9550506020612cd988828901612770565b945050604086013567ffffffffffffffff811115612cfa57612cf9612667565b5b612d0688828901612bbb565b935050606086013567ffffffffffffffff811115612d2757612d26612667565b5b612d3388828901612bbb565b925050608086013567ffffffffffffffff811115612d5457612d53612667565b5b612d6088828901612c70565b9150509295509295909350565b612d768161266c565b82525050565b6000602082019050612d916000830184612d6d565b92915050565b60008060008060808587031215612db157612db0612662565b5b6000612dbf878288016128f6565b9450506020612dd087828801612770565b9350506040612de18782880161298f565b9250506060612df2878288016128f6565b91505092959194509250565b600080600060608486031215612e1757612e16612662565b5b6000612e2586828701612770565b9350506020612e3686828701612819565b9250506040612e47868287016128f6565b9150509250925092565b600080600080600060a08688031215612e6d57612e6c612662565b5b6000612e7b88828901612770565b9550506020612e8c88828901612770565b9450506040612e9d888289016128f6565b9350506060612eae888289016128f6565b925050608086013567ffffffffffffffff811115612ecf57612ece612667565b5b612edb88828901612c70565b9150509295509295909350565b600082825260208201905092915050565b7f57495448445241573a20746f6f206d7563680000000000000000000000000000600082015250565b6000612f2f601283612ee8565b9150612f3a82612ef9565b602082019050919050565b60006020820190508181036000830152612f5e81612f22565b9050919050565b6000604082019050612f7a600083018561286e565b612f8760208301846127bc565b9392505050565b600081519050612f9d816128df565b92915050565b600060208284031215612fb957612fb8612662565b5b6000612fc784828501612f8e565b91505092915050565b7f57495448445241573a20506f736974696f6e2061637469766500000000000000600082015250565b6000613006601983612ee8565b915061301182612fd0565b602082019050919050565b6000602082019050818103600083015261303581612ff9565b9050919050565b7f4e487b7100000000000000000000000000000000000000000000000000000000600052601160045260246000fd5b6000613076826127e6565b9150613081836127e6565b9250828210156130945761309361303c565b5b828203905092915050565b6000819050919050565b60006130c46130bf6130ba846127e6565b61309f565b6127b2565b9050919050565b6130d4816130a9565b82525050565b60006040820190506130ef600083018561286e565b6130fc60208301846130cb565b9392505050565b61310c816126f1565b811461311757600080fd5b50565b60008151905061312981613103565b92915050565b60006020828403121561314557613144612662565b5b60006131538482850161311a565b91505092915050565b6000613167826127e6565b9150613172836127e6565b9250826fffffffffffffffffffffffffffffffff038211156131975761319661303c565b5b828201905092915050565b7f535741503a204e6f742068696768207269736b20706f6f6c0000000000000000600082015250565b60006131d8601883612ee8565b91506131e3826131a2565b602082019050919050565b60006020820190508181036000830152613207816131cb565b9050919050565b600060a082019050613223600083018861286e565b613230602083018761286e565b61323d60408301866128a7565b61324a60608301856127bc565b613257608083018461286e565b9695505050505050565b6000608082019050613276600083018761286e565b61328360208301866127bc565b613290604083018561286e565b61329d60608301846127bc565b95945050505050565b60006132b1826127b2565b91506132bc836127b2565b9250827fffffffffffffffffffffffffffffffffffffffffffffffffffffffffffffffff038211156132f1576132f061303c565b5b828201905092915050565b6000613307826127e6565b91506fffffffffffffffffffffffffffffffff82141561332a5761332961303c565b5b600182019050919050565b7f535741503a206e6f7420656e6f75676820636f6c6c61746572616c0000000000600082015250565b600061336b601b83612ee8565b915061337682613335565b602082019050919050565b6000602082019050818103600083015261339a8161335e565b9050919050565b600060c0820190506133b6600083018961286e565b6133c3602083018861286e565b6133d0604083018761286e565b6133dd60608301866128a7565b6133ea60808301856127bc565b6133f760a08301846127bc565b979650505050505050565b600061340d826127b2565b9150613418836127b2565b9250817fffffffffffffffffffffffffffffffffffffffffffffffffffffffffffffffff04831182151516156134515761345061303c565b5b828202905092915050565b7f4e487b7100000000000000000000000000000000000000000000000000000000600052601260045260246000fd5b6000613496826127b2565b91506134a1836127b2565b9250826134b1576134b061345c565b5b828204905092915050565b600067ffffffffffffffff82169050919050565b60006134eb6134e66134e1846134bc565b61309f565b6127b2565b9050919050565b6134fb816134d0565b82525050565b6000604082019050613516600083018561286e565b61352360208301846134f2565b9392505050565b7f434c4f53453a204e6f7420796f757220706f736974696f6e204f52206e6f742060008201527f756e6465727761746572204f5220696e61637469766500000000000000000000602082015250565b6000613586603683612ee8565b91506135918261352a565b604082019050919050565b600060208201905081810360008301526135b581613579565b9050919050565b60006020820190506135d16000830184612a4a565b92915050565b600081519050919050565b600081905092915050565b60005b8381101561360b5780820151818401526020810190506135f0565b8381111561361a576000848401525b50505050565b600061362b826135d7565b61363581856135e2565b93506136458185602086016135ed565b80840191505092915050565b600061365d8284613620565b915081905092915050565b7f64656c656761746563616c6c206661696c656400000000000000000000000000600082015250565b600061369e601383612ee8565b91506136a982613668565b602082019050919050565b600060208201905081810360008301526136cd81613691565b9050919050565b600060c0820190506136e9600083018961286e565b6136f6602083018861286e565b613703604083018761286e565b61371060608301866128a7565b61371d60808301856130cb565b61372a60a08301846127bc565b979650505050505050565b61373e816127b2565b82525050565b6000819050919050565b61375781613744565b82525050565b60006060820190506137726000830186613735565b61377f6020830185613735565b61378c604083018461374e565b949350505050565b600060ff82169050919050565b6137aa81613794565b81146137b557600080fd5b50565b6000815190506137c7816137a1565b92915050565b600080604083850312156137e4576137e3612662565b5b60006137f285828601612f8e565b9250506020613803858286016137b8565b9150509250929050565b6000606082019050613822600083018661286e565b61382f602083018561286e565b61383c60408301846127bc565b949350505050565b600061384f826127b2565b915061385a836127b2565b92508282101561386d5761386c61303c565b5b828203905092915050565b6000613883826127e6565b915061388e836127e6565b9250816fffffffffffffffffffffffffffffffff04831182151516156138b7576138b661303c565b5b828202905092915050565b7f5354460000000000000000000000000000000000000000000000000000000000600082015250565b60006138f8600383612ee8565b9150613903826138c2565b602082019050919050565b60006020820190508181036000830152613927816138eb565b905091905056fea2646970667358221220f41fa0ab659d40c07b75c5c6e36ff74b01bc00daa8d669db7581eb33b1351d5f64736f6c634300080b0033",
  "immutableReferences": {
    "3365": [
      {
        "length": 32,
        "start": 2546
      },
      {
        "length": 32,
        "start": 2709
      },
      {
        "length": 32,
        "start": 2910
      },
      {
        "length": 32,
        "start": 3409
      },
      {
        "length": 32,
        "start": 4596
      },
      {
        "length": 32,
        "start": 5024
      },
      {
        "length": 32,
        "start": 6449
      },
      {
        "length": 32,
        "start": 6914
      },
      {
        "length": 32,
        "start": 7298
      }
    ]
  },
  "source": "// SPDX-License-Identifier: MIT\npragma solidity ^0.8.0; //solhint-disable compiler-fixed\npragma abicoder v2;\n\n\nimport \"@openzeppelin/contracts/token/ERC1155/IERC1155.sol\";\nimport \"@openzeppelin/contracts/token/ERC1155/utils/ERC1155Holder.sol\";\nimport \"@openzeppelin/contracts/token/ERC20/IERC20.sol\";\nimport \"./BeraWrapper.sol\";\nimport \"./BeraSwapper.sol\";\nimport \"./ancillary/PnLCalculator.sol\";\nimport \"./ancillary/SwapOracle.sol\";\n\n\ncontract BeraPoolStandardRisk is ERC1155Holder {\n\n    struct Liquidation {\n        bool isUnderwater;\n        bool wasLiquidated;\n        address liquidator;\n    }\n\n    struct UserPositionData {\n        uint256 entryPrice; //32 bytes\n        uint128 userShortBalanceByID; //16 bytes\n        uint128 tokenAmountByPositionID; //16 bytes\n        uint64 globalPositionID; //8 bytes\n        uint24 poolFeeByPositionID; //4 bytes\n        address tokenShortedByPositionID; //20 bytes\n    }\n\n    //removed position bool >> if the position is active there will be a token\n    //if it has been closed the token is burned\n    struct Account {\n        uint lastClaimedRewards;\n        uint128 userDepositBalance;\n        uint128 userShortID; //maps to positionDetails and liqData\n        mapping(uint128 => UserPositionData) userPositionData;\n        mapping(uint128 => Liquidation) liqData;\n    }\n\n    mapping(address => Account) public users;\n    address public owner;\n\n    uint public protocolOwnedLiquidity;\n    uint public globalRewards;\n\n    address public immutable DAI_ADDRESS = 0x6B175474E89094C44Da98b954EedeAC495271d0F;\n    BeraWrapper private beraWrapper;\n    BeraSwapper private beraSwapper;\n    SwapOracle private swapOracle;\n\n    constructor(SwapOracle _swapOracle,\n        BeraWrapper _beraWrapper,\n        BeraSwapper _beraSwapper) {\n        owner = msg.sender;\n        swapOracle = _swapOracle;\n        beraWrapper = _beraWrapper;\n        beraSwapper = _beraSwapper;\n    }\n\n    function depositCollateral(uint128 amount) external {\n        //used for withdrawl later\n        users[msg.sender].userDepositBalance += amount;\n        //transfer DAI to this contract\n        TransferHelper.safeTransferFrom(DAI_ADDRESS, msg.sender, address(this), amount);\n    }\n\n    function withdrawFromPool(uint128 amount, uint userShortID) external {\n        require(amount <= users[msg.sender].userDepositBalance,\n            \"WITHDRAW: too much\");\n        //checking if the funds locked in the position have been released before allowing them to be withdrawn\n        require(beraWrapper.balanceOf(msg.sender, userShortID) == 0, \"WITHDRAW: Position active\");\n        //reset balance of user on withdraw\n        users[msg.sender].userDepositBalance -= amount;\n        IERC20(DAI_ADDRESS).transfer(msg.sender, amount);\n    }\n\n    //used to claim the profit rewards from collecting trader losses in this pool\n    function claimRewards() external {\n        sendOwedProfits(msg.sender);\n    }\n\n    // deposit collateral into user account before being allowed to short\n    // amount refers to how much dai to swap for amountOut of the token the user wants to short\n    function swapShort(\n            uint amount,\n            address tokenToShort,\n            uint24 poolFee, //needed for uniswap pool\n            uint amountOutMin)\n            external { //solhint-disable function-max-lines\n                require(amount <= users[msg.sender].userDepositBalance, \"SWAP: not enough collateral\");\n                require(poolFee == 3000 || poolFee == 500, \"SWAP: Not high risk pool\");\n                //gets TWAP price, updates globals and user short ID) &&\n                //reverts here if total collateral is > total deposit amount\n                (uint priceAtWrap, uint amountToSend) =\n                    updateGlobalsAndCheckCollateral(msg.sender, amount, tokenToShort, poolFee);\n\n                //execute swapShort via swapper contract\n                uint amountOut = beraSwapper._swapShort(\n                    msg.sender,\n                    tokenToShort,\n                    DAI_ADDRESS, //this contract receives dai back\n                    poolFee,\n                    amountToSend, //amount being sent to swapper\n                    amountOutMin\n                );\n\n                beraWrapper.wrapPosition(\n                    address(this), // the associated pool\n                    amountOut,  // the amount of token shorted\n                    tokenToShort, // what token was shorted\n                    priceAtWrap // the price of 1 tokenToShort in dai\n                );\n\n                //update Account details\n                updateUserMappings(\n                    msg.sender, // the user\n                    users[msg.sender].userShortID, //the position ID\n                    priceAtWrap, // the entry price\n                    uint128(amountToSend), // how much of the users collateral has been used in this position\n                    tokenToShort,\n                    uint128(amountOut), // amount of token the contract is storing AKA size of short in token\n                    poolFee\n                );\n\n                // now we transfer dai to user and hold their tokens for them\n                uint amountToReturn = amountOut * priceAtWrap / 1e18;\n                IERC20(DAI_ADDRESS).transfer(msg.sender, amountToReturn);\n            }\n\n    function supplyShort(\n        address tokenToShort,\n        uint24 poolFee,\n        uint amount) external returns(uint amountOut) {\n        require(poolFee == 3000 || poolFee == 500, \"SWAP: Not high risk pool\");\n\n        amountOut = beraSwapper._supplyShort(\n            msg.sender, //transfer token from msg.sender\n            tokenToShort, // what token the user wants us to hold -- must be in their wallet\n            poolFee, //used to get price\n            amount, //how much they are sending\n            address(this) // sends tokent to this contract\n        );\n\n        //check that dai amount is lte deposit balance &&\n        //update globals with dai value && update user position ID\n        (uint priceAtWrap, uint amountToSend) =\n            updateGlobalsAndCheckCollateral(msg.sender, amountOut, tokenToShort, poolFee);\n\n        beraWrapper.wrapPosition(\n            address(this), //the associated pool\n            amount,  //the amount of token shorted\n            tokenToShort, //what token was shorted\n            priceAtWrap //the price of 1 tokenToShort in dai\n        );\n\n        //send dai back at market price minus fee\n        IERC20(DAI_ADDRESS).transfer(msg.sender, amountToSend);\n    }\n\n    // if you are reading this comment, this is a way for you to make some money\n    // and keep the protocol alive and kicking\n    // keep in mind that you need to have deposited collateral to receive rewards\n    function liquidateUser(address userUnderwater, address liquidator, uint128 shortID) external {\n        //get entry price by shortID and subtract by current price\n        //(address token, uint24 fee) = getTokenAndFeeShortedByUser(userUnderwater, shortID);\n\n    }\n\n    function getLiquidator(address user, uint128 shortID) public view returns(address liquidator) {\n        return users[user].liqData[shortID].liquidator;\n    }\n\n    function getTotalCollateral(address user) public view returns(uint totalCollateral) {\n        for (uint128 i = 0; i <= users[user].userShortID; i++) {\n            totalCollateral += users[user].userPositionData[i].userShortBalanceByID;\n        }\n        return (totalCollateral);\n    }\n\n    function checkRewards(address user) public view returns(uint profits) {\n        return profits = checkOwedProfits(user);\n    }\n\n    function getGlobalRewards() public view returns(uint globals) {\n        return globals = globalRewards;\n    }\n\n    function getUserShortBalance(address user, uint128 shortID) public view returns(uint bal) {\n        return bal = users[user].userPositionData[shortID].userShortBalanceByID;\n    }\n\n    function getUserEntryPrice(address user, uint128 shortID) public view returns(uint entry) {\n        return entry = users[user].userPositionData[shortID].entryPrice;\n    }\n\n    function getTokenAndFeeShortedByUser(address user, uint128 shortID) public view returns(address token, uint24 fee) {\n        token = users[user].userPositionData[shortID].tokenShortedByPositionID;\n        fee = users[user].userPositionData[shortID].poolFeeByPositionID;\n        return (token, fee);\n    }\n\n    //TODO\n    // if you are liquidating an underwater position make sure to first update the user's liqData\n    function closeShort(\n        address user, //we pass in a user instead of msg.sender to accounts for liquidations\n        uint128 userShortID,\n        uint amountOutMin)\n        public {\n            require(beraWrapper.balanceOf(user, users[user].userPositionData[userShortID].globalPositionID) > 0 ||\n                users[user].liqData[userShortID].isUnderwater == true,\n                    \"CLOSE: Not your position OR not underwater OR inactive\");\n\n            //get price at pool for shortBal of positionID\n            (address token, uint24 fee) = getTokenAndFeeShortedByUser(user, userShortID);\n            uint priceAtClose = swapOracle.getSwapPrice(token, fee);\n\n            //unwrap position (burn and delete index from mappings)\n            //delegatecall so msg.sender is user and not contract\n            (bool success, ) =\n                address(beraWrapper).delegatecall( //solhint-disable avoid-low-level-calls\n                abi.encodeWithSelector(BeraWrapper.unwrapPosition.selector, userShortID));\n            require(success, \"delegatecall failed\");\n\n            users[user].userPositionData[userShortID].userShortBalanceByID = 0;\n\n            //swap back to DAI\n            uint amountOut = beraSwapper._swapShort(\n                msg.sender,\n                DAI_ADDRESS, //in token\n                token, // out token\n                fee,\n                users[user].userPositionData[userShortID].tokenAmountByPositionID, //amount to send\n                amountOutMin\n            );\n\n            // where returnValue of 0 = profit\n            (uint amountPNL, uint8 returnValue) = PnLCalculator.calculatePNL(\n                getUserEntryPrice(user, userShortID), //entry\n                priceAtClose, //closing price\n                int(amountOut) //trade size\n            );\n            // if the trade is a loss we update the rewards by the difference\n            if (returnValue == 1) {\n                globalRewards += amountPNL;\n            }\n            // transfer funds back from user, they are keeping the difference on a win and paying more for a loss\n            // amountOut will be used for the current market rate\n            // regardless of win/loss so we can use it in both situations\n            IERC20(DAI_ADDRESS).transferFrom(user, address(this), amountOut);\n        }\n\n    function updateUserMappings(\n        address user,\n        uint128 shortID,\n        uint entryPrice,\n        uint128 shortBalanceByID,\n        address tokenToShort,\n        uint128 tokenTradeSize,\n        uint24 poolFee\n    ) internal {\n        users[user].userPositionData[shortID].entryPrice = entryPrice;\n        //this is used to keep track of how much of the users deposit is currently being used by which positionID\n        users[user].userPositionData[shortID].userShortBalanceByID = shortBalanceByID;\n        //update token and fee by ID\n        users[user].userPositionData[shortID].tokenShortedByPositionID = tokenToShort;\n        users[user].userPositionData[shortID].tokenAmountByPositionID = tokenTradeSize;\n        users[user].userPositionData[shortID].poolFeeByPositionID = poolFee;\n    }\n\n    function updateGlobalsAndCheckCollateral(\n        address user,\n        uint amount,\n        address tokenToShort,\n        uint24 poolFee)\n        internal returns(uint priceAtWrap, uint amountToSend) {\n            priceAtWrap = swapOracle.getSwapPrice(tokenToShort, poolFee);\n\n            users[user].userShortID += 1;\n            //get total amount of collateral in shorts if user has opened a position before\n            //also check that current amount + total < deposit balance\n            if (getTotalCollateral(user) > 0) {\n                require(getTotalCollateral(user) <= users[user].userDepositBalance,\n                    \"SWAP: not enough collateral\");\n                require(amount + getTotalCollateral(user) <= users[user].userDepositBalance,\n                    \"SWAP: not enough collateral\");\n            }\n\n            //1% is kept as fee to protocol to assist in paying out users\n            amountToSend = amount * 99 / 100;\n            //update global so we know how much of deposited amount belongs to users vs protocol\n            protocolOwnedLiquidity += amount - amountToSend;\n        }\n\n    //the percentage reward is based on the last time they claimed vs the total reward calculated\n    //this will allow us to avoid using a loop for reward distribution\n    //and allow users to pull their own rewards when they want\n    function checkOwedProfits(address user) internal view returns (uint128) {\n        uint percentageReward = globalRewards - users[user].lastClaimedRewards;\n        return users[user].userDepositBalance * uint128(percentageReward /\n                IERC20(DAI_ADDRESS).balanceOf(address(this)));\n    }\n\n    function sendOwedProfits(address user) internal {\n        uint128 owed = checkOwedProfits(user);\n        if (owed > 0) {\n            users[user].userDepositBalance += owed;\n            users[user].lastClaimedRewards = globalRewards;\n        }\n    }\n\n}\n",
  "sourcePath": "/home/kevin/Code/solidity_projects/beraMarket/contracts/BeraPoolStandardRisk.sol",
  "compiler": {
    "name": "solc",
    "version": "0.8.11+commit.d7f03943.Emscripten.clang"
  },
  "schemaVersion": "3.4.3",
  "updatedAt": "2022-01-15T22:20:22.666Z",
  "devdoc": {
    "kind": "dev",
    "methods": {
      "supportsInterface(bytes4)": {
        "details": "See {IERC165-supportsInterface}."
      }
    },
    "version": 1
  },
  "userdoc": {
    "kind": "user",
    "methods": {},
    "version": 1
  }
}