{
  "contractName": "BeraRouter",
  "abi": [
    {
      "inputs": [
        {
          "internalType": "contract ISwapRouter",
          "name": "_swapRouter",
          "type": "address"
        },
        {
          "internalType": "contract BeraPoolStandardRisk",
          "name": "_beraPoolStandardRisk",
          "type": "address"
        },
        {
          "internalType": "contract BeraWrapper",
          "name": "_beraWrapper",
          "type": "address"
        },
        {
          "internalType": "contract BeraPool",
          "name": "_beraPool",
          "type": "address"
        }
      ],
      "stateMutability": "nonpayable",
      "type": "constructor"
    },
    {
      "inputs": [],
      "name": "beraPool",
      "outputs": [
        {
          "internalType": "contract BeraPool",
          "name": "",
          "type": "address"
        }
      ],
      "stateMutability": "view",
      "type": "function"
    },
    {
      "inputs": [],
      "name": "beraPoolStandardRisk",
      "outputs": [
        {
          "internalType": "contract BeraPoolStandardRisk",
          "name": "",
          "type": "address"
        }
      ],
      "stateMutability": "view",
      "type": "function"
    },
    {
      "inputs": [],
      "name": "beraWrapper",
      "outputs": [
        {
          "internalType": "contract BeraWrapper",
          "name": "",
          "type": "address"
        }
      ],
      "stateMutability": "view",
      "type": "function"
    },
    {
      "inputs": [
        {
          "internalType": "address",
          "name": "",
          "type": "address"
        }
      ],
      "name": "entryPrice",
      "outputs": [
        {
          "internalType": "uint256",
          "name": "",
          "type": "uint256"
        }
      ],
      "stateMutability": "view",
      "type": "function"
    },
    {
      "inputs": [
        {
          "internalType": "address",
          "name": "",
          "type": "address"
        }
      ],
      "name": "inShort",
      "outputs": [
        {
          "internalType": "bool",
          "name": "",
          "type": "bool"
        }
      ],
      "stateMutability": "view",
      "type": "function"
    },
    {
      "inputs": [],
      "name": "owner",
      "outputs": [
        {
          "internalType": "address",
          "name": "",
          "type": "address"
        }
      ],
      "stateMutability": "view",
      "type": "function"
    },
    {
      "inputs": [
        {
          "internalType": "uint256",
          "name": "",
          "type": "uint256"
        }
      ],
      "name": "poolList",
      "outputs": [
        {
          "internalType": "address",
          "name": "",
          "type": "address"
        }
      ],
      "stateMutability": "view",
      "type": "function"
    },
    {
      "inputs": [],
      "name": "swapRouter",
      "outputs": [
        {
          "internalType": "contract ISwapRouter",
          "name": "",
          "type": "address"
        }
      ],
      "stateMutability": "view",
      "type": "function"
    },
    {
      "inputs": [
        {
          "internalType": "address",
          "name": "",
          "type": "address"
        }
      ],
      "name": "userCollateralBalance",
      "outputs": [
        {
          "internalType": "uint256",
          "name": "",
          "type": "uint256"
        }
      ],
      "stateMutability": "view",
      "type": "function"
    },
    {
      "inputs": [
        {
          "internalType": "uint256",
          "name": "amount",
          "type": "uint256"
        },
        {
          "internalType": "address",
          "name": "collateral",
          "type": "address"
        },
        {
          "internalType": "address",
          "name": "pool",
          "type": "address"
        }
      ],
      "name": "depositCollateralStandard",
      "outputs": [],
      "stateMutability": "nonpayable",
      "type": "function"
    },
    {
      "inputs": [
        {
          "internalType": "uint256",
          "name": "amount",
          "type": "uint256"
        },
        {
          "internalType": "address",
          "name": "collateral",
          "type": "address"
        }
      ],
      "name": "withdrawCollateral",
      "outputs": [],
      "stateMutability": "nonpayable",
      "type": "function"
    },
    {
      "inputs": [
        {
          "internalType": "uint256",
          "name": "amount",
          "type": "uint256"
        },
        {
          "internalType": "address",
          "name": "tokenToShort",
          "type": "address"
        },
        {
          "internalType": "uint24",
          "name": "poolFee",
          "type": "uint24"
        },
        {
          "internalType": "uint256",
          "name": "amountOutMin",
          "type": "uint256"
        },
        {
          "internalType": "uint256",
          "name": "collateralPercentageOfAccount",
          "type": "uint256"
        },
        {
          "internalType": "uint256",
          "name": "priceAtWrap",
          "type": "uint256"
        }
      ],
      "name": "swapAndShortStandard",
      "outputs": [
        {
          "internalType": "uint256",
          "name": "amountOut",
          "type": "uint256"
        }
      ],
      "stateMutability": "nonpayable",
      "type": "function"
    },
    {
      "inputs": [
        {
          "internalType": "address",
          "name": "user",
          "type": "address"
        },
        {
          "internalType": "address",
          "name": "tokenToClose",
          "type": "address"
        },
        {
          "internalType": "uint256",
          "name": "amount",
          "type": "uint256"
        },
        {
          "internalType": "uint256",
          "name": "priceAtClose",
          "type": "uint256"
        },
        {
          "internalType": "uint24",
          "name": "poolFee",
          "type": "uint24"
        },
        {
          "internalType": "uint256",
          "name": "amountOutMin",
          "type": "uint256"
        },
        {
          "internalType": "uint256",
          "name": "_positionID",
          "type": "uint256"
        }
      ],
      "name": "swapAndCloseShort",
      "outputs": [
        {
          "internalType": "uint256",
          "name": "amountOut",
          "type": "uint256"
        }
      ],
      "stateMutability": "nonpayable",
      "type": "function"
    }
  ],
  "bytecode": "0x60806040523480156200001157600080fd5b5060405162002be638038062002be68339818101604052810190620000379190620002d3565b33600960006101000a81548173ffffffffffffffffffffffffffffffffffffffff021916908373ffffffffffffffffffffffffffffffffffffffff16021790555083600560006101000a81548173ffffffffffffffffffffffffffffffffffffffff021916908373ffffffffffffffffffffffffffffffffffffffff16021790555082600660006101000a81548173ffffffffffffffffffffffffffffffffffffffff021916908373ffffffffffffffffffffffffffffffffffffffff16021790555081600760006101000a81548173ffffffffffffffffffffffffffffffffffffffff021916908373ffffffffffffffffffffffffffffffffffffffff16021790555080600860006101000a81548173ffffffffffffffffffffffffffffffffffffffff021916908373ffffffffffffffffffffffffffffffffffffffff1602179055505050505062000345565b600080fd5b600073ffffffffffffffffffffffffffffffffffffffff82169050919050565b6000620001b8826200018b565b9050919050565b6000620001cc82620001ab565b9050919050565b620001de81620001bf565b8114620001ea57600080fd5b50565b600081519050620001fe81620001d3565b92915050565b60006200021182620001ab565b9050919050565b620002238162000204565b81146200022f57600080fd5b50565b600081519050620002438162000218565b92915050565b60006200025682620001ab565b9050919050565b620002688162000249565b81146200027457600080fd5b50565b60008151905062000288816200025d565b92915050565b60006200029b82620001ab565b9050919050565b620002ad816200028e565b8114620002b957600080fd5b50565b600081519050620002cd81620002a2565b92915050565b60008060008060808587031215620002f057620002ef62000186565b5b60006200030087828801620001ed565b9450506020620003138782880162000232565b9350506040620003268782880162000277565b92505060606200033987828801620002bc565b91505092959194509250565b61289180620003556000396000f3fe608060405234801561001057600080fd5b50600436106100cf5760003560e01c80638da5cb5b1161008c578063b5af306211610066578063b5af306214610214578063c31c9c0714610244578063e5f7c60c14610262578063f855e5b514610292576100cf565b80638da5cb5b146101ba57806396d2e4b4146101d8578063a29aa114146101f6576100cf565b80630af504cc146100d45780630bba5ffb146100f05780632a48235b1461010c5780632bcbeece1461013c5780635b6a777e1461015a5780636c528a741461018a575b600080fd5b6100ee60048036038101906100e99190611926565b6102c2565b005b61010a60048036038101906101059190611966565b61054d565b005b610126600480360381019061012191906119b9565b6107bf565b60405161013391906119f5565b60405180910390f35b6101446107fe565b6040516101519190611a6f565b60405180910390f35b610174600480360381019061016f9190611a8a565b610824565b6040516101819190611ad2565b60405180910390f35b6101a4600480360381019061019f9190611a8a565b610844565b6040516101b19190611afc565b60405180910390f35b6101c261085c565b6040516101cf91906119f5565b60405180910390f35b6101e0610882565b6040516101ed9190611b38565b60405180910390f35b6101fe6108a8565b60405161020b9190611b74565b60405180910390f35b61022e60048036038101906102299190611a8a565b6108ce565b60405161023b9190611afc565b60405180910390f35b61024c6108e6565b6040516102599190611bb0565b60405180910390f35b61027c60048036038101906102779190611c06565b61090c565b6040516102899190611afc565b60405180910390f35b6102ac60048036038101906102a79190611c93565b610d95565b6040516102b99190611afc565b60405180910390f35b6000803373ffffffffffffffffffffffffffffffffffffffff1673ffffffffffffffffffffffffffffffffffffffff16815260200190815260200160002054821115610343576040517f08c379a000000000000000000000000000000000000000000000000000000000815260040161033a90611db8565b60405180910390fd5b60001515600260003373ffffffffffffffffffffffffffffffffffffffff1673ffffffffffffffffffffffffffffffffffffffff16815260200190815260200160002060009054906101000a900460ff161515146103d6576040517f08c379a00000000000000000000000000000000000000000000000000000000081526004016103cd90611e4a565b60405180910390fd5b816000803373ffffffffffffffffffffffffffffffffffffffff1673ffffffffffffffffffffffffffffffffffffffff16815260200190815260200160002060008282546104249190611e99565b9250508190555060008060003373ffffffffffffffffffffffffffffffffffffffff1673ffffffffffffffffffffffffffffffffffffffff16815260200190815260200160002054116104ca576000600360003373ffffffffffffffffffffffffffffffffffffffff1673ffffffffffffffffffffffffffffffffffffffff16815260200190815260200160002060006101000a81548160ff0219169083151502179055505b8073ffffffffffffffffffffffffffffffffffffffff1663a9059cbb33846040518363ffffffff1660e01b8152600401610505929190611ecd565b6020604051808303816000875af1158015610524573d6000803e3d6000fd5b505050506040513d601f19601f820116820180604052508101906105489190611f22565b505050565b736b175474e89094c44da98b954eedeac495271d0f73ffffffffffffffffffffffffffffffffffffffff168273ffffffffffffffffffffffffffffffffffffffff16146105cf576040517f08c379a00000000000000000000000000000000000000000000000000000000081526004016105c690611f9b565b60405180910390fd5b826000803373ffffffffffffffffffffffffffffffffffffffff1673ffffffffffffffffffffffffffffffffffffffff168152602001908152602001600020600082825461061d9190611fbb565b9250508190555060001515600360003373ffffffffffffffffffffffffffffffffffffffff1673ffffffffffffffffffffffffffffffffffffffff16815260200190815260200160002060009054906101000a900460ff1615151415610739576004339080600181540180825580915050600190039060005260206000200160009091909190916101000a81548173ffffffffffffffffffffffffffffffffffffffff021916908373ffffffffffffffffffffffffffffffffffffffff1602179055506001600360003373ffffffffffffffffffffffffffffffffffffffff1673ffffffffffffffffffffffffffffffffffffffff16815260200190815260200160002060006101000a81548160ff0219169083151502179055505b8173ffffffffffffffffffffffffffffffffffffffff166323b872dd3383866040518463ffffffff1660e01b815260040161077693929190612011565b6020604051808303816000875af1158015610795573d6000803e3d6000fd5b505050506040513d601f19601f820116820180604052508101906107b99190611f22565b50505050565b600481815481106107cf57600080fd5b906000526020600020016000915054906101000a900473ffffffffffffffffffffffffffffffffffffffff1681565b600660009054906101000a900473ffffffffffffffffffffffffffffffffffffffff1681565b60026020528060005260406000206000915054906101000a900460ff1681565b60016020528060005260406000206000915090505481565b600960009054906101000a900473ffffffffffffffffffffffffffffffffffffffff1681565b600860009054906101000a900473ffffffffffffffffffffffffffffffffffffffff1681565b600760009054906101000a900473ffffffffffffffffffffffffffffffffffffffff1681565b60006020528060005260406000206000915090505481565b600560009054906101000a900473ffffffffffffffffffffffffffffffffffffffff1681565b60008060003373ffffffffffffffffffffffffffffffffffffffff1673ffffffffffffffffffffffffffffffffffffffff1681526020019081526020016000205487111561098f576040517f08c379a000000000000000000000000000000000000000000000000000000000815260040161098690612094565b60405180910390fd5b60648311156109d3576040517f08c379a00000000000000000000000000000000000000000000000000000000081526004016109ca90612126565b60405180910390fd5b6000606484896109e39190612146565b6109ed91906121cf565b9050600081896109fd9190611e99565b9050610a1f736b175474e89094c44da98b954eedeac495271d0f33308c611181565b610a60736b175474e89094c44da98b954eedeac495271d0f600560009054906101000a900473ffffffffffffffffffffffffffffffffffffffff168b6112d9565b6000604051806101000160405280736b175474e89094c44da98b954eedeac495271d0f73ffffffffffffffffffffffffffffffffffffffff1681526020018a73ffffffffffffffffffffffffffffffffffffffff1681526020018962ffffff1681526020013373ffffffffffffffffffffffffffffffffffffffff168152602001428152602001848152602001888152602001600073ffffffffffffffffffffffffffffffffffffffff168152509050600560009054906101000a900473ffffffffffffffffffffffffffffffffffffffff1673ffffffffffffffffffffffffffffffffffffffff1663414bf389826040518263ffffffff1660e01b8152600401610b6b91906122de565b6020604051808303816000875af1158015610b8a573d6000803e3d6000fd5b505050506040513d601f19601f82011682018060405250810190610bae919061230f565b9350600660009054906101000a900473ffffffffffffffffffffffffffffffffffffffff1673ffffffffffffffffffffffffffffffffffffffff16634c992506338b888c898d6040518763ffffffff1660e01b8152600401610c159695949392919061234b565b6020604051808303816000875af1158015610c34573d6000803e3d6000fd5b505050506040513d601f19601f82011682018060405250810190610c58919061230f565b5084600160003373ffffffffffffffffffffffffffffffffffffffff1673ffffffffffffffffffffffffffffffffffffffff168152602001908152602001600020819055506001600260003373ffffffffffffffffffffffffffffffffffffffff1673ffffffffffffffffffffffffffffffffffffffff16815260200190815260200160002060006101000a81548160ff021916908315150217905550736b175474e89094c44da98b954eedeac495271d0f73ffffffffffffffffffffffffffffffffffffffff1663a9059cbb33846040518363ffffffff1660e01b8152600401610d44929190611ecd565b6020604051808303816000875af1158015610d63573d6000803e3d6000fd5b505050506040513d601f19601f82011682018060405250810190610d879190611f22565b505050509695505050505050565b6000600760009054906101000a900473ffffffffffffffffffffffffffffffffffffffff1673ffffffffffffffffffffffffffffffffffffffff1663b9e17b7689846040518363ffffffff1660e01b8152600401610df4929190611ecd565b600060405180830381600087803b158015610e0e57600080fd5b505af1158015610e22573d6000803e3d6000fd5b50505050736b175474e89094c44da98b954eedeac495271d0f73ffffffffffffffffffffffffffffffffffffffff1663a9059cbb33886040518363ffffffff1660e01b8152600401610e75929190611ecd565b6020604051808303816000875af1158015610e94573d6000803e3d6000fd5b505050506040513d601f19601f82011682018060405250810190610eb89190611f22565b50610ed9736b175474e89094c44da98b954eedeac495271d0f333089611181565b610f1a736b175474e89094c44da98b954eedeac495271d0f600560009054906101000a900473ffffffffffffffffffffffffffffffffffffffff16886112d9565b6000604051806101000160405280736b175474e89094c44da98b954eedeac495271d0f73ffffffffffffffffffffffffffffffffffffffff1681526020018973ffffffffffffffffffffffffffffffffffffffff1681526020018662ffffff1681526020013373ffffffffffffffffffffffffffffffffffffffff168152602001428152602001888152602001858152602001600073ffffffffffffffffffffffffffffffffffffffff168152509050600560009054906101000a900473ffffffffffffffffffffffffffffffffffffffff1673ffffffffffffffffffffffffffffffffffffffff1663414bf389826040518263ffffffff1660e01b815260040161102591906122de565b6020604051808303816000875af1158015611044573d6000803e3d6000fd5b505050506040513d601f19601f82011682018060405250810190611068919061230f565b9150600660009054906101000a900473ffffffffffffffffffffffffffffffffffffffff1673ffffffffffffffffffffffffffffffffffffffff1663db8a027d338a858a8a8a6040518763ffffffff1660e01b81526004016110cf969594939291906123ac565b6020604051808303816000875af11580156110ee573d6000803e3d6000fd5b505050506040513d601f19601f82011682018060405250810190611112919061230f565b5061111d338761142e565b6000600260003373ffffffffffffffffffffffffffffffffffffffff1673ffffffffffffffffffffffffffffffffffffffff16815260200190815260200160002060006101000a81548160ff02191690831515021790555050979650505050505050565b6000808573ffffffffffffffffffffffffffffffffffffffff166323b872dd60e01b8686866040516024016111b893929190612011565b604051602081830303815290604052907bffffffffffffffffffffffffffffffffffffffffffffffffffffffff19166020820180517bffffffffffffffffffffffffffffffffffffffffffffffffffffffff83818316178352505050506040516112229190612487565b6000604051808303816000865af19150503d806000811461125f576040519150601f19603f3d011682016040523d82523d6000602084013e611264565b606091505b509150915081801561129257506000815114806112915750808060200190518101906112909190611f22565b5b5b6112d1576040517f08c379a00000000000000000000000000000000000000000000000000000000081526004016112c8906124ea565b60405180910390fd5b505050505050565b6000808473ffffffffffffffffffffffffffffffffffffffff1663095ea7b360e01b858560405160240161130e929190611ecd565b604051602081830303815290604052907bffffffffffffffffffffffffffffffffffffffffffffffffffffffff19166020820180517bffffffffffffffffffffffffffffffffffffffffffffffffffffffff83818316178352505050506040516113789190612487565b6000604051808303816000865af19150503d80600081146113b5576040519150601f19603f3d011682016040523d82523d6000602084013e6113ba565b606091505b50915091508180156113e857506000815114806113e75750808060200190518101906113e69190611f22565b5b5b611427576040517f08c379a000000000000000000000000000000000000000000000000000000000815260040161141e90612556565b60405180910390fd5b5050505050565b600081600160008573ffffffffffffffffffffffffffffffffffffffff1673ffffffffffffffffffffffffffffffffffffffff1681526020019081526020016000205461147b9190612580565b905060008113156114f357670de0b6b3a76400008161149a9190612146565b6000808573ffffffffffffffffffffffffffffffffffffffff1673ffffffffffffffffffffffffffffffffffffffff16815260200190815260200160002060008282546114e79190611fbb565b925050819055506116a3565b600082600160008673ffffffffffffffffffffffffffffffffffffffff1673ffffffffffffffffffffffffffffffffffffffff168152602001908152602001600020546115409190612580565b905060007fffffffffffffffffffffffffffffffffffffffffffffffffffffffffffffffff826115709190612614565b90506000808673ffffffffffffffffffffffffffffffffffffffff1673ffffffffffffffffffffffffffffffffffffffff168152602001908152602001600020548111156115f3576040517f08c379a00000000000000000000000000000000000000000000000000000000081526004016115ea906127c3565b60405180910390fd5b60008060008773ffffffffffffffffffffffffffffffffffffffff1673ffffffffffffffffffffffffffffffffffffffff168152602001908152602001600020548261163f9190611e99565b905061164a816116a8565b816000808873ffffffffffffffffffffffffffffffffffffffff1673ffffffffffffffffffffffffffffffffffffffff16815260200190815260200160002060008282546116989190611e99565b925050819055505050505b505050565b60005b600480549050811015611889576000736b175474e89094c44da98b954eedeac495271d0f73ffffffffffffffffffffffffffffffffffffffff166370a08231306040518263ffffffff1660e01b815260040161170791906119f5565b602060405180830381865afa158015611724573d6000803e3d6000fd5b505050506040513d601f19601f82011682018060405250810190611748919061230f565b6000806004858154811061175f5761175e6127e3565b5b9060005260206000200160009054906101000a900473ffffffffffffffffffffffffffffffffffffffff1673ffffffffffffffffffffffffffffffffffffffff1673ffffffffffffffffffffffffffffffffffffffff168152602001908152602001600020546117cf91906121cf565b9050600083826117df9190612146565b905080600080600486815481106117f9576117f86127e3565b5b9060005260206000200160009054906101000a900473ffffffffffffffffffffffffffffffffffffffff1673ffffffffffffffffffffffffffffffffffffffff1673ffffffffffffffffffffffffffffffffffffffff168152602001908152602001600020600082825461186d9190611fbb565b925050819055505050808061188190612812565b9150506116ab565b5050565b600080fd5b6000819050919050565b6118a581611892565b81146118b057600080fd5b50565b6000813590506118c28161189c565b92915050565b600073ffffffffffffffffffffffffffffffffffffffff82169050919050565b60006118f3826118c8565b9050919050565b611903816118e8565b811461190e57600080fd5b50565b600081359050611920816118fa565b92915050565b6000806040838503121561193d5761193c61188d565b5b600061194b858286016118b3565b925050602061195c85828601611911565b9150509250929050565b60008060006060848603121561197f5761197e61188d565b5b600061198d868287016118b3565b935050602061199e86828701611911565b92505060406119af86828701611911565b9150509250925092565b6000602082840312156119cf576119ce61188d565b5b60006119dd848285016118b3565b91505092915050565b6119ef816118e8565b82525050565b6000602082019050611a0a60008301846119e6565b92915050565b6000819050919050565b6000611a35611a30611a2b846118c8565b611a10565b6118c8565b9050919050565b6000611a4782611a1a565b9050919050565b6000611a5982611a3c565b9050919050565b611a6981611a4e565b82525050565b6000602082019050611a846000830184611a60565b92915050565b600060208284031215611aa057611a9f61188d565b5b6000611aae84828501611911565b91505092915050565b60008115159050919050565b611acc81611ab7565b82525050565b6000602082019050611ae76000830184611ac3565b92915050565b611af681611892565b82525050565b6000602082019050611b116000830184611aed565b92915050565b6000611b2282611a3c565b9050919050565b611b3281611b17565b82525050565b6000602082019050611b4d6000830184611b29565b92915050565b6000611b5e82611a3c565b9050919050565b611b6e81611b53565b82525050565b6000602082019050611b896000830184611b65565b92915050565b6000611b9a82611a3c565b9050919050565b611baa81611b8f565b82525050565b6000602082019050611bc56000830184611ba1565b92915050565b600062ffffff82169050919050565b611be381611bcb565b8114611bee57600080fd5b50565b600081359050611c0081611bda565b92915050565b60008060008060008060c08789031215611c2357611c2261188d565b5b6000611c3189828a016118b3565b9650506020611c4289828a01611911565b9550506040611c5389828a01611bf1565b9450506060611c6489828a016118b3565b9350506080611c7589828a016118b3565b92505060a0611c8689828a016118b3565b9150509295509295509295565b600080600080600080600060e0888a031215611cb257611cb161188d565b5b6000611cc08a828b01611911565b9750506020611cd18a828b01611911565b9650506040611ce28a828b016118b3565b9550506060611cf38a828b016118b3565b9450506080611d048a828b01611bf1565b93505060a0611d158a828b016118b3565b92505060c0611d268a828b016118b3565b91505092959891949750929550565b600082825260208201905092915050565b7f434f4c4c41544552414c3a20747279696e6720746f207769746864726177206d60008201527f6f726520636f6c6c61746572616c207468616e206465706f7369746564000000602082015250565b6000611da2603d83611d35565b9150611dad82611d46565b604082019050919050565b60006020820190508181036000830152611dd181611d95565b9050919050565b7f434f4c4c415445414c3a20636c6f736520796f75722063757272656e7420706f60008201527f736974696f6e206265666f726520747279696e6720746f207769746864726177602082015250565b6000611e34604083611d35565b9150611e3f82611dd8565b604082019050919050565b60006020820190508181036000830152611e6381611e27565b9050919050565b7f4e487b7100000000000000000000000000000000000000000000000000000000600052601160045260246000fd5b6000611ea482611892565b9150611eaf83611892565b925082821015611ec257611ec1611e6a565b5b828203905092915050565b6000604082019050611ee260008301856119e6565b611eef6020830184611aed565b9392505050565b611eff81611ab7565b8114611f0a57600080fd5b50565b600081519050611f1c81611ef6565b92915050565b600060208284031215611f3857611f3761188d565b5b6000611f4684828501611f0d565b91505092915050565b7f504f4f4c3a204e6f742044414900000000000000000000000000000000000000600082015250565b6000611f85600d83611d35565b9150611f9082611f4f565b602082019050919050565b60006020820190508181036000830152611fb481611f78565b9050919050565b6000611fc682611892565b9150611fd183611892565b9250827fffffffffffffffffffffffffffffffffffffffffffffffffffffffffffffffff0382111561200657612005611e6a565b5b828201905092915050565b600060608201905061202660008301866119e6565b61203360208301856119e6565b6120406040830184611aed565b949350505050565b7f535741503a206e6f7420656e6f75676820636f6c6c61746572616c0000000000600082015250565b600061207e601b83611d35565b915061208982612048565b602082019050919050565b600060208201905081810360008301526120ad81612071565b9050919050565b7f535741503a2063616e6e6f7420757365206d6f7265207468616e20313030252060008201527f6f66206163636f756e7420746f2073686f727400000000000000000000000000602082015250565b6000612110603383611d35565b915061211b826120b4565b604082019050919050565b6000602082019050818103600083015261213f81612103565b9050919050565b600061215182611892565b915061215c83611892565b9250817fffffffffffffffffffffffffffffffffffffffffffffffffffffffffffffffff048311821515161561219557612194611e6a565b5b828202905092915050565b7f4e487b7100000000000000000000000000000000000000000000000000000000600052601260045260246000fd5b60006121da82611892565b91506121e583611892565b9250826121f5576121f46121a0565b5b828204905092915050565b612209816118e8565b82525050565b61221881611bcb565b82525050565b61222781611892565b82525050565b612236816118c8565b82525050565b610100820160008201516122536000850182612200565b5060208201516122666020850182612200565b506040820151612279604085018261220f565b50606082015161228c6060850182612200565b50608082015161229f608085018261221e565b5060a08201516122b260a085018261221e565b5060c08201516122c560c085018261221e565b5060e08201516122d860e085018261222d565b50505050565b6000610100820190506122f4600083018461223c565b92915050565b6000815190506123098161189c565b92915050565b6000602082840312156123255761232461188d565b5b6000612333848285016122fa565b91505092915050565b61234581611bcb565b82525050565b600060c08201905061236060008301896119e6565b61236d60208301886119e6565b61237a6040830187611aed565b612387606083018661233c565b6123946080830185611aed565b6123a160a0830184611aed565b979650505050505050565b600060c0820190506123c160008301896119e6565b6123ce60208301886119e6565b6123db6040830187611aed565b6123e86060830186611aed565b6123f5608083018561233c565b61240260a0830184611aed565b979650505050505050565b600081519050919050565b600081905092915050565b60005b83811015612441578082015181840152602081019050612426565b83811115612450576000848401525b50505050565b60006124618261240d565b61246b8185612418565b935061247b818560208601612423565b80840191505092915050565b60006124938284612456565b915081905092915050565b7f5354460000000000000000000000000000000000000000000000000000000000600082015250565b60006124d4600383611d35565b91506124df8261249e565b602082019050919050565b60006020820190508181036000830152612503816124c7565b9050919050565b7f5341000000000000000000000000000000000000000000000000000000000000600082015250565b6000612540600283611d35565b915061254b8261250a565b602082019050919050565b6000602082019050818103600083015261256f81612533565b9050919050565b6000819050919050565b600061258b82612576565b915061259683612576565b9250827f8000000000000000000000000000000000000000000000000000000000000000018212600084121516156125d1576125d0611e6a565b5b827f7fffffffffffffffffffffffffffffffffffffffffffffffffffffffffffffff01821360008412161561260957612608611e6a565b5b828203905092915050565b600061261f82612576565b915061262a83612576565b9250827f7fffffffffffffffffffffffffffffffffffffffffffffffffffffffffffffff048211600084136000841316161561266957612668611e6a565b5b817f800000000000000000000000000000000000000000000000000000000000000005831260008412600084131616156126a6576126a5611e6a565b5b827f800000000000000000000000000000000000000000000000000000000000000005821260008413600084121616156126e3576126e2611e6a565b5b827f7fffffffffffffffffffffffffffffffffffffffffffffffffffffffffffffff05821260008412600084121616156127205761271f611e6a565b5b828202905092915050565b7f504e4c3a206c6f7373206578636565647320757365722062616c616e63652c2060008201527f6c69717569646174696f6e2066756e6374696f6e2077696c6c2062652063616c60208201527f6c65640000000000000000000000000000000000000000000000000000000000604082015250565b60006127ad604383611d35565b91506127b88261272b565b606082019050919050565b600060208201905081810360008301526127dc816127a0565b9050919050565b7f4e487b7100000000000000000000000000000000000000000000000000000000600052603260045260246000fd5b600061281d82611892565b91507fffffffffffffffffffffffffffffffffffffffffffffffffffffffffffffffff8214156128505761284f611e6a565b5b60018201905091905056fea2646970667358221220701083039908671e9ebdb451381ddd9aba67747b656257767230a0bc0879a0d064736f6c634300080a0033",
  "immutableReferences": {},
  "source": "// SPDX-License-Identifier: MIT\npragma solidity ^0.8.0; //solhint-disable compiler-fixed\npragma abicoder v2;\n\n//who would have guessed these github imports don't actually compile\nimport \"@openzeppelin/contracts/token/ERC20/IERC20.sol\";\nimport \"@uniswap/v3-periphery/contracts/interfaces/ISwapRouter.sol\";\nimport \"@uniswap/v3-periphery/contracts/libraries/TransferHelper.sol\";\nimport \"./BeraPoolStandardRisk.sol\";\nimport \"./BeraWrapper.sol\";\nimport \"./BeraPool.sol\";\n\n\n//the public interface for the protocol\ncontract BeraRouter {\n\n    mapping(address => uint) public userCollateralBalance;\n    mapping(address => uint) public entryPrice;\n    mapping(address => bool) public inShort;\n    mapping(address => bool) internal hasCollateral;\n    address[] public poolList;\n\n    address private constant DAI_ADDRESS = 0x6B175474E89094C44Da98b954EedeAC495271d0F;\n\n    //uniswapV3 address router\n    //might have to change if implement 1inch api\n    ISwapRouter public  swapRouter;\n    BeraPoolStandardRisk public beraPoolStandardRisk;\n    BeraWrapper public beraWrapper;\n    BeraPool public beraPool;\n\n    address public owner;\n\n    constructor(ISwapRouter _swapRouter,\n        BeraPoolStandardRisk _beraPoolStandardRisk,\n        BeraWrapper _beraWrapper,\n        BeraPool _beraPool) { //solhint-disable func-visibility\n        owner = msg.sender;\n        swapRouter = _swapRouter;\n        beraPoolStandardRisk = _beraPoolStandardRisk;\n        beraWrapper = _beraWrapper;\n        beraPool = _beraPool;\n    }\n\n    function depositCollateralStandard(uint amount, address collateral, address pool) external {\n        require(IERC20(collateral) == IERC20(DAI_ADDRESS), \"POOL: Not DAI\");\n\n        //used for withdrawl later\n        userCollateralBalance[msg.sender] += amount;\n\n        if (hasCollateral[msg.sender] == false) {\n            poolList.push(msg.sender);\n            hasCollateral[msg.sender] = true;\n        }\n\n        IERC20(collateral).transferFrom(msg.sender, pool, amount);\n    }\n\n    function withdrawCollateral(uint amount, address collateral) external {\n        require(amount <= userCollateralBalance[msg.sender],\n            \"COLLATERAL: trying to withdraw more collateral than deposited\");\n        require(inShort[msg.sender] == false,\n            \"COLLATEAL: close your current position before trying to withdraw\");\n\n        //reset balance of user on withdraw\n        userCollateralBalance[msg.sender] -= amount;\n\n        if (userCollateralBalance[msg.sender] <= 0) {\n            hasCollateral[msg.sender] = false;\n        }\n\n        IERC20(collateral).transfer(msg.sender, amount);\n    }\n\n    // deposit collateral into user account before being allowed to short\n    function swapAndShortStandard(\n            uint amount,\n            address tokenToShort,\n            uint24 poolFee,\n            uint amountOutMin,\n            uint collateralPercentageOfAccount,\n            uint priceAtWrap)\n            external returns(uint amountOut) { //solhint-disable function-max-lines\n                require(amount <= userCollateralBalance[msg.sender], \"SWAP: not enough collateral\");\n                require(collateralPercentageOfAccount <= 100, \"SWAP: cannot use more than 100% of account to short\");\n\n                uint amountOfCollateral = amount * collateralPercentageOfAccount / 100;\n                uint leftover = amount - amountOfCollateral;\n\n                TransferHelper.safeTransferFrom(DAI_ADDRESS, msg.sender, address(this), amount);\n                TransferHelper.safeApprove(DAI_ADDRESS, address(swapRouter), amount);\n\n                ISwapRouter.ExactInputSingleParams memory params =\n                ISwapRouter.ExactInputSingleParams({\n                    tokenIn: DAI_ADDRESS,\n                    tokenOut: tokenToShort,\n                    fee: poolFee,\n                    recipient: msg.sender, //send back to user to execute next leg\n                    deadline: block.timestamp, //solhint-disable not-rely-on-time\n                    amountIn: amountOfCollateral,\n                    amountOutMinimum: amountOutMin,\n                    sqrtPriceLimitX96: 0\n                });\n\n                // execute the frist swap & sends to beraPool based on params\n                amountOut = swapRouter.exactInputSingle(params);\n\n                //execute the second swap and transfer funds to pool for holding\n                //have to update priceAtWrap, users can set this amount manually and drain funds lmfao\n                beraPoolStandardRisk.shortForUser(\n                    msg.sender,\n                    tokenToShort,\n                    priceAtWrap,\n                    poolFee,\n                    amountOut,\n                    amountOutMin\n                );\n\n                //update entry price mapping\n                entryPrice[msg.sender] = priceAtWrap;\n\n                //update whether address is in a position or not\n                inShort[msg.sender] = true;\n\n                //send remaining funds back to user\n                IERC20(DAI_ADDRESS).transfer(msg.sender, leftover);\n            }\n\n    function swapAndCloseShort(\n        address user,\n        address tokenToClose,\n        uint amount,\n        uint priceAtClose,\n        uint24 poolFee,\n        uint amountOutMin,\n        uint _positionID) external returns(uint amountOut) {\n        //unwrap and unlock position\n        beraWrapper.unwrapPosition(user, _positionID);\n\n        //send dai back to user\n        //needs check for amount\n        IERC20(DAI_ADDRESS).transfer(msg.sender, amount);\n\n        //we swap dai back to weth to close the trade\n        TransferHelper.safeTransferFrom(DAI_ADDRESS, msg.sender, address(this), amount);\n        TransferHelper.safeApprove(DAI_ADDRESS, address(swapRouter), amount);\n\n        ISwapRouter.ExactInputSingleParams memory params =\n        ISwapRouter.ExactInputSingleParams({\n            tokenIn: DAI_ADDRESS,\n            tokenOut: tokenToClose,\n            fee: poolFee,\n            recipient: msg.sender, //send tokens to user to execute next leg of trade\n            deadline: block.timestamp, //solhint-disable not-rely-on-time\n            amountIn: amount,\n            amountOutMinimum: amountOutMin,\n            sqrtPriceLimitX96: 0\n        });\n\n        //execute swap\n        amountOut = swapRouter.exactInputSingle(params);\n\n        //sell tokens back for DAI\n        beraPoolStandardRisk.closeShortForUser(\n            msg.sender,\n            tokenToClose,\n            amountOut, //how much tokenOut is being sent to swap back into dai (in this case weth)\n            priceAtClose,\n            poolFee,\n            amountOutMin\n        );\n\n        //calculate if the user made or lost money on the position\n        //also tranfers the profits to the user and distributes user losses amongst the pool\n        calculatePNL(msg.sender, priceAtClose);\n\n        //reset user short status\n        inShort[msg.sender] = false; //solhint-disable reentrancy\n    }\n\n    function distributeProfits(uint amountToDistribute) internal {\n        for (uint i = 0; i < poolList.length; i++) {\n            //update user collateral instead?\n            uint userPercent = (userCollateralBalance[poolList[i]] / IERC20(DAI_ADDRESS).balanceOf(address(this)));\n            //percentage will be out of 100 i.e 0.3% = 30 or < 30/100 >\n            uint percentToSendToUsers = userPercent * amountToDistribute;\n            userCollateralBalance[poolList[i]] += percentToSendToUsers;\n        }\n    }\n\n    function calculatePNL(address user, uint priceAtClose) internal {\n        int difference = int(entryPrice[user]) - int(priceAtClose);\n        if (difference > 0) {\n            //IERC20(DAI_ADDRESS).transfer(user, uint(difference)); //case where user makes money\n            userCollateralBalance[user] += (uint(difference) * 1e18);\n        } else {\n            int loss = int(entryPrice[user]) - int(priceAtClose); //case where user loses money\n            //make negative num postive\n            int userLoss = (loss * (-1));\n            require(uint(userLoss) <= userCollateralBalance[user],\n                \"PNL: loss exceeds user balance, liquidation function will be called\");\n            uint amountToDistribute = uint(userLoss) - userCollateralBalance[user];\n\n            //distribute remaining amongst pool holders\n            distributeProfits(amountToDistribute);\n\n            //update user collateral balance to reflect loss\n            //in this case it would be whoever is closing their short position\n            userCollateralBalance[user] -= uint(userLoss);\n        }\n    }\n\n\n\n\n\n\n}\n",
  "sourcePath": "/home/kevin/Code/solidity_projects/beraMarket/contracts/BeraRouter.sol",
  "compiler": {
    "name": "solc",
    "version": "0.8.10+commit.fc410830.Emscripten.clang"
  },
  "schemaVersion": "3.4.3",
  "updatedAt": "2021-11-17T02:32:46.985Z",
  "devdoc": {
    "kind": "dev",
    "methods": {},
    "version": 1
  },
  "userdoc": {
    "kind": "user",
    "methods": {},
    "version": 1
  }
}