{
  "contractName": "BeraRouter",
  "abi": [
    {
      "inputs": [
        {
          "internalType": "contract ISwapRouter",
          "name": "_swapRouter",
          "type": "address"
        },
        {
          "internalType": "contract BeraPoolStandardRisk",
          "name": "_beraPoolStandardRisk",
          "type": "address"
        },
        {
          "internalType": "contract BeraWrapper",
          "name": "_beraWrapper",
          "type": "address"
        }
      ],
      "stateMutability": "nonpayable",
      "type": "constructor"
    },
    {
      "inputs": [],
      "name": "beraPoolStandardRisk",
      "outputs": [
        {
          "internalType": "contract BeraPoolStandardRisk",
          "name": "",
          "type": "address"
        }
      ],
      "stateMutability": "view",
      "type": "function",
      "constant": true
    },
    {
      "inputs": [],
      "name": "beraWrapper",
      "outputs": [
        {
          "internalType": "contract BeraWrapper",
          "name": "",
          "type": "address"
        }
      ],
      "stateMutability": "view",
      "type": "function",
      "constant": true
    },
    {
      "inputs": [
        {
          "internalType": "address",
          "name": "",
          "type": "address"
        }
      ],
      "name": "entryPrice",
      "outputs": [
        {
          "internalType": "uint256",
          "name": "",
          "type": "uint256"
        }
      ],
      "stateMutability": "view",
      "type": "function",
      "constant": true
    },
    {
      "inputs": [
        {
          "internalType": "address",
          "name": "",
          "type": "address"
        }
      ],
      "name": "inShort",
      "outputs": [
        {
          "internalType": "bool",
          "name": "",
          "type": "bool"
        }
      ],
      "stateMutability": "view",
      "type": "function",
      "constant": true
    },
    {
      "inputs": [],
      "name": "owner",
      "outputs": [
        {
          "internalType": "address",
          "name": "",
          "type": "address"
        }
      ],
      "stateMutability": "view",
      "type": "function",
      "constant": true
    },
    {
      "inputs": [
        {
          "internalType": "uint256",
          "name": "",
          "type": "uint256"
        }
      ],
      "name": "poolList",
      "outputs": [
        {
          "internalType": "address",
          "name": "",
          "type": "address"
        }
      ],
      "stateMutability": "view",
      "type": "function",
      "constant": true
    },
    {
      "inputs": [],
      "name": "swapRouter",
      "outputs": [
        {
          "internalType": "contract ISwapRouter",
          "name": "",
          "type": "address"
        }
      ],
      "stateMutability": "view",
      "type": "function",
      "constant": true
    },
    {
      "inputs": [
        {
          "internalType": "address",
          "name": "",
          "type": "address"
        }
      ],
      "name": "userCollateralBalance",
      "outputs": [
        {
          "internalType": "uint256",
          "name": "",
          "type": "uint256"
        }
      ],
      "stateMutability": "view",
      "type": "function",
      "constant": true
    },
    {
      "inputs": [
        {
          "internalType": "uint256",
          "name": "amount",
          "type": "uint256"
        }
      ],
      "name": "withdrawCollateral",
      "outputs": [],
      "stateMutability": "nonpayable",
      "type": "function"
    },
    {
      "inputs": [
        {
          "internalType": "uint256",
          "name": "amount",
          "type": "uint256"
        },
        {
          "internalType": "address",
          "name": "tokenToShort",
          "type": "address"
        },
        {
          "internalType": "uint24",
          "name": "poolFee",
          "type": "uint24"
        },
        {
          "internalType": "uint256",
          "name": "amountOutMin",
          "type": "uint256"
        },
        {
          "internalType": "uint256",
          "name": "collateralPercentageOfAccount",
          "type": "uint256"
        },
        {
          "internalType": "uint256",
          "name": "priceAtWrap",
          "type": "uint256"
        }
      ],
      "name": "swapAndShortStandard",
      "outputs": [
        {
          "internalType": "uint256",
          "name": "amountOut",
          "type": "uint256"
        }
      ],
      "stateMutability": "nonpayable",
      "type": "function"
    },
    {
      "inputs": [
        {
          "internalType": "address",
          "name": "user",
          "type": "address"
        },
        {
          "internalType": "address",
          "name": "tokenToClose",
          "type": "address"
        },
        {
          "internalType": "uint256",
          "name": "amount",
          "type": "uint256"
        },
        {
          "internalType": "uint256",
          "name": "priceAtClose",
          "type": "uint256"
        },
        {
          "internalType": "uint24",
          "name": "poolFee",
          "type": "uint24"
        },
        {
          "internalType": "uint256",
          "name": "amountOutMin",
          "type": "uint256"
        },
        {
          "internalType": "uint256",
          "name": "_positionID",
          "type": "uint256"
        }
      ],
      "name": "swapAndCloseShort",
      "outputs": [
        {
          "internalType": "uint256",
          "name": "amountOut",
          "type": "uint256"
        }
      ],
      "stateMutability": "nonpayable",
      "type": "function"
    }
  ],
  "bytecode": "0x60806040523480156200001157600080fd5b50604051620026c6380380620026c683398181016040528101906200003791906200024c565b33600860006101000a81548173ffffffffffffffffffffffffffffffffffffffff021916908373ffffffffffffffffffffffffffffffffffffffff16021790555082600560006101000a81548173ffffffffffffffffffffffffffffffffffffffff021916908373ffffffffffffffffffffffffffffffffffffffff16021790555081600660006101000a81548173ffffffffffffffffffffffffffffffffffffffff021916908373ffffffffffffffffffffffffffffffffffffffff16021790555080600760006101000a81548173ffffffffffffffffffffffffffffffffffffffff021916908373ffffffffffffffffffffffffffffffffffffffff160217905550505050620002a8565b600080fd5b600073ffffffffffffffffffffffffffffffffffffffff82169050919050565b6000620001768262000149565b9050919050565b60006200018a8262000169565b9050919050565b6200019c816200017d565b8114620001a857600080fd5b50565b600081519050620001bc8162000191565b92915050565b6000620001cf8262000169565b9050919050565b620001e181620001c2565b8114620001ed57600080fd5b50565b6000815190506200020181620001d6565b92915050565b6000620002148262000169565b9050919050565b620002268162000207565b81146200023257600080fd5b50565b60008151905062000246816200021b565b92915050565b60008060006060848603121562000268576200026762000144565b5b60006200027886828701620001ab565b93505060206200028b86828701620001f0565b92505060406200029e8682870162000235565b9150509250925092565b61240e80620002b86000396000f3fe608060405234801561001057600080fd5b50600436106100a95760003560e01c80638da5cb5b116100715780638da5cb5b14610178578063a29aa11414610196578063b5af3062146101b4578063c31c9c07146101e4578063e5f7c60c14610202578063f855e5b514610232576100a9565b80632a48235b146100ae5780632bcbeece146100de5780635b6a777e146100fc5780636112fe2e1461012c5780636c528a7414610148575b600080fd5b6100c860048036038101906100c3919061155a565b610262565b6040516100d591906115c8565b60405180910390f35b6100e66102a1565b6040516100f39190611642565b60405180910390f35b61011660048036038101906101119190611689565b6102c7565b60405161012391906116d1565b60405180910390f35b6101466004803603810190610141919061155a565b6102e7565b005b610162600480360381019061015d9190611689565b6104f2565b60405161016f91906116fb565b60405180910390f35b61018061050a565b60405161018d91906115c8565b60405180910390f35b61019e610530565b6040516101ab9190611737565b60405180910390f35b6101ce60048036038101906101c99190611689565b610556565b6040516101db91906116fb565b60405180910390f35b6101ec61056e565b6040516101f99190611773565b60405180910390f35b61021c600480360381019061021791906117c9565b610594565b60405161022991906116fb565b60405180910390f35b61024c60048036038101906102479190611856565b610a27565b60405161025991906116fb565b60405180910390f35b6004818154811061027257600080fd5b906000526020600020016000915054906101000a900473ffffffffffffffffffffffffffffffffffffffff1681565b600660009054906101000a900473ffffffffffffffffffffffffffffffffffffffff1681565b60036020528060005260406000206000915054906101000a900460ff1681565b6000803373ffffffffffffffffffffffffffffffffffffffff1673ffffffffffffffffffffffffffffffffffffffff16815260200190815260200160002054811115610368576040517f08c379a000000000000000000000000000000000000000000000000000000000815260040161035f9061197b565b60405180910390fd5b60001515600360003373ffffffffffffffffffffffffffffffffffffffff1673ffffffffffffffffffffffffffffffffffffffff16815260200190815260200160002060009054906101000a900460ff161515146103fb576040517f08c379a00000000000000000000000000000000000000000000000000000000081526004016103f290611a33565b60405180910390fd5b806000803373ffffffffffffffffffffffffffffffffffffffff1673ffffffffffffffffffffffffffffffffffffffff16815260200190815260200160002060008282546104499190611a82565b9250508190555060008060003373ffffffffffffffffffffffffffffffffffffffff1673ffffffffffffffffffffffffffffffffffffffff16815260200190815260200160002054116104ef576000600160003373ffffffffffffffffffffffffffffffffffffffff1673ffffffffffffffffffffffffffffffffffffffff16815260200190815260200160002060006101000a81548160ff0219169083151502179055505b50565b60026020528060005260406000206000915090505481565b600860009054906101000a900473ffffffffffffffffffffffffffffffffffffffff1681565b600760009054906101000a900473ffffffffffffffffffffffffffffffffffffffff1681565b60006020528060005260406000206000915090505481565b600560009054906101000a900473ffffffffffffffffffffffffffffffffffffffff1681565b60008060003373ffffffffffffffffffffffffffffffffffffffff1673ffffffffffffffffffffffffffffffffffffffff16815260200190815260200160002054871115610617576040517f08c379a000000000000000000000000000000000000000000000000000000000815260040161060e90611b02565b60405180910390fd5b606483111561065b576040517f08c379a000000000000000000000000000000000000000000000000000000000815260040161065290611b94565b60405180910390fd5b60006064848961066b9190611bb4565b6106759190611c3d565b9050600081896106859190611a82565b90506106a7736b175474e89094c44da98b954eedeac495271d0f33308c610e13565b6106e8736b175474e89094c44da98b954eedeac495271d0f600560009054906101000a900473ffffffffffffffffffffffffffffffffffffffff168b610f6b565b6000604051806101000160405280736b175474e89094c44da98b954eedeac495271d0f73ffffffffffffffffffffffffffffffffffffffff1681526020018a73ffffffffffffffffffffffffffffffffffffffff1681526020018962ffffff1681526020013373ffffffffffffffffffffffffffffffffffffffff168152602001428152602001848152602001888152602001600073ffffffffffffffffffffffffffffffffffffffff168152509050600560009054906101000a900473ffffffffffffffffffffffffffffffffffffffff1673ffffffffffffffffffffffffffffffffffffffff1663414bf389826040518263ffffffff1660e01b81526004016107f39190611d4c565b6020604051808303816000875af1158015610812573d6000803e3d6000fd5b505050506040513d601f19601f820116820180604052508101906108369190611d7d565b9350600660009054906101000a900473ffffffffffffffffffffffffffffffffffffffff1673ffffffffffffffffffffffffffffffffffffffff16634c992506338b888c898d6040518763ffffffff1660e01b815260040161089d96959493929190611db9565b6020604051808303816000875af11580156108bc573d6000803e3d6000fd5b505050506040513d601f19601f820116820180604052508101906108e09190611d7d565b5084600260003373ffffffffffffffffffffffffffffffffffffffff1673ffffffffffffffffffffffffffffffffffffffff168152602001908152602001600020819055506001600360003373ffffffffffffffffffffffffffffffffffffffff1673ffffffffffffffffffffffffffffffffffffffff16815260200190815260200160002060006101000a81548160ff0219169083151502179055506000821115610a1a57736b175474e89094c44da98b954eedeac495271d0f73ffffffffffffffffffffffffffffffffffffffff1663a9059cbb33846040518363ffffffff1660e01b81526004016109d5929190611e1a565b6020604051808303816000875af11580156109f4573d6000803e3d6000fd5b505050506040513d601f19601f82011682018060405250810190610a189190611e6f565b505b5050509695505050505050565b6000600760009054906101000a900473ffffffffffffffffffffffffffffffffffffffff1673ffffffffffffffffffffffffffffffffffffffff1663b9e17b7689846040518363ffffffff1660e01b8152600401610a86929190611e1a565b600060405180830381600087803b158015610aa057600080fd5b505af1158015610ab4573d6000803e3d6000fd5b50505050736b175474e89094c44da98b954eedeac495271d0f73ffffffffffffffffffffffffffffffffffffffff1663a9059cbb33886040518363ffffffff1660e01b8152600401610b07929190611e1a565b6020604051808303816000875af1158015610b26573d6000803e3d6000fd5b505050506040513d601f19601f82011682018060405250810190610b4a9190611e6f565b50610b6b736b175474e89094c44da98b954eedeac495271d0f333089610e13565b610bac736b175474e89094c44da98b954eedeac495271d0f600560009054906101000a900473ffffffffffffffffffffffffffffffffffffffff1688610f6b565b6000604051806101000160405280736b175474e89094c44da98b954eedeac495271d0f73ffffffffffffffffffffffffffffffffffffffff1681526020018973ffffffffffffffffffffffffffffffffffffffff1681526020018662ffffff1681526020013373ffffffffffffffffffffffffffffffffffffffff168152602001428152602001888152602001858152602001600073ffffffffffffffffffffffffffffffffffffffff168152509050600560009054906101000a900473ffffffffffffffffffffffffffffffffffffffff1673ffffffffffffffffffffffffffffffffffffffff1663414bf389826040518263ffffffff1660e01b8152600401610cb79190611d4c565b6020604051808303816000875af1158015610cd6573d6000803e3d6000fd5b505050506040513d601f19601f82011682018060405250810190610cfa9190611d7d565b9150600660009054906101000a900473ffffffffffffffffffffffffffffffffffffffff1673ffffffffffffffffffffffffffffffffffffffff1663db8a027d338a858a8a8a6040518763ffffffff1660e01b8152600401610d6196959493929190611e9c565b6020604051808303816000875af1158015610d80573d6000803e3d6000fd5b505050506040513d601f19601f82011682018060405250810190610da49190611d7d565b50610daf33876110c0565b6000600360003373ffffffffffffffffffffffffffffffffffffffff1673ffffffffffffffffffffffffffffffffffffffff16815260200190815260200160002060006101000a81548160ff02191690831515021790555050979650505050505050565b6000808573ffffffffffffffffffffffffffffffffffffffff166323b872dd60e01b868686604051602401610e4a93929190611efd565b604051602081830303815290604052907bffffffffffffffffffffffffffffffffffffffffffffffffffffffff19166020820180517bffffffffffffffffffffffffffffffffffffffffffffffffffffffff8381831617835250505050604051610eb49190611fae565b6000604051808303816000865af19150503d8060008114610ef1576040519150601f19603f3d011682016040523d82523d6000602084013e610ef6565b606091505b5091509150818015610f245750600081511480610f23575080806020019051810190610f229190611e6f565b5b5b610f63576040517f08c379a0000000000000000000000000000000000000000000000000000000008152600401610f5a90612011565b60405180910390fd5b505050505050565b6000808473ffffffffffffffffffffffffffffffffffffffff1663095ea7b360e01b8585604051602401610fa0929190611e1a565b604051602081830303815290604052907bffffffffffffffffffffffffffffffffffffffffffffffffffffffff19166020820180517bffffffffffffffffffffffffffffffffffffffffffffffffffffffff838183161783525050505060405161100a9190611fae565b6000604051808303816000865af19150503d8060008114611047576040519150601f19603f3d011682016040523d82523d6000602084013e61104c565b606091505b509150915081801561107a57506000815114806110795750808060200190518101906110789190611e6f565b5b5b6110b9576040517f08c379a00000000000000000000000000000000000000000000000000000000081526004016110b09061207d565b60405180910390fd5b5050505050565b600081600260008573ffffffffffffffffffffffffffffffffffffffff1673ffffffffffffffffffffffffffffffffffffffff1681526020019081526020016000205461110d91906120a7565b9050600081131561118557670de0b6b3a76400008161112c9190611bb4565b6000808573ffffffffffffffffffffffffffffffffffffffff1673ffffffffffffffffffffffffffffffffffffffff1681526020019081526020016000206000828254611179919061213b565b92505081905550611335565b600082600260008673ffffffffffffffffffffffffffffffffffffffff1673ffffffffffffffffffffffffffffffffffffffff168152602001908152602001600020546111d291906120a7565b905060007fffffffffffffffffffffffffffffffffffffffffffffffffffffffffffffffff826112029190612191565b90506000808673ffffffffffffffffffffffffffffffffffffffff1673ffffffffffffffffffffffffffffffffffffffff16815260200190815260200160002054811115611285576040517f08c379a000000000000000000000000000000000000000000000000000000000815260040161127c90612340565b60405180910390fd5b60008060008773ffffffffffffffffffffffffffffffffffffffff1673ffffffffffffffffffffffffffffffffffffffff16815260200190815260200160002054826112d19190611a82565b90506112dc8161133a565b816000808873ffffffffffffffffffffffffffffffffffffffff1673ffffffffffffffffffffffffffffffffffffffff168152602001908152602001600020600082825461132a9190611a82565b925050819055505050505b505050565b60005b60048054905081101561151b576000736b175474e89094c44da98b954eedeac495271d0f73ffffffffffffffffffffffffffffffffffffffff166370a08231306040518263ffffffff1660e01b815260040161139991906115c8565b602060405180830381865afa1580156113b6573d6000803e3d6000fd5b505050506040513d601f19601f820116820180604052508101906113da9190611d7d565b600080600485815481106113f1576113f0612360565b5b9060005260206000200160009054906101000a900473ffffffffffffffffffffffffffffffffffffffff1673ffffffffffffffffffffffffffffffffffffffff1673ffffffffffffffffffffffffffffffffffffffff168152602001908152602001600020546114619190611c3d565b9050600083826114719190611bb4565b9050806000806004868154811061148b5761148a612360565b5b9060005260206000200160009054906101000a900473ffffffffffffffffffffffffffffffffffffffff1673ffffffffffffffffffffffffffffffffffffffff1673ffffffffffffffffffffffffffffffffffffffff16815260200190815260200160002060008282546114ff919061213b565b92505081905550505080806115139061238f565b91505061133d565b5050565b600080fd5b6000819050919050565b61153781611524565b811461154257600080fd5b50565b6000813590506115548161152e565b92915050565b6000602082840312156115705761156f61151f565b5b600061157e84828501611545565b91505092915050565b600073ffffffffffffffffffffffffffffffffffffffff82169050919050565b60006115b282611587565b9050919050565b6115c2816115a7565b82525050565b60006020820190506115dd60008301846115b9565b92915050565b6000819050919050565b60006116086116036115fe84611587565b6115e3565b611587565b9050919050565b600061161a826115ed565b9050919050565b600061162c8261160f565b9050919050565b61163c81611621565b82525050565b60006020820190506116576000830184611633565b92915050565b611666816115a7565b811461167157600080fd5b50565b6000813590506116838161165d565b92915050565b60006020828403121561169f5761169e61151f565b5b60006116ad84828501611674565b91505092915050565b60008115159050919050565b6116cb816116b6565b82525050565b60006020820190506116e660008301846116c2565b92915050565b6116f581611524565b82525050565b600060208201905061171060008301846116ec565b92915050565b60006117218261160f565b9050919050565b61173181611716565b82525050565b600060208201905061174c6000830184611728565b92915050565b600061175d8261160f565b9050919050565b61176d81611752565b82525050565b60006020820190506117886000830184611764565b92915050565b600062ffffff82169050919050565b6117a68161178e565b81146117b157600080fd5b50565b6000813590506117c38161179d565b92915050565b60008060008060008060c087890312156117e6576117e561151f565b5b60006117f489828a01611545565b965050602061180589828a01611674565b955050604061181689828a016117b4565b945050606061182789828a01611545565b935050608061183889828a01611545565b92505060a061184989828a01611545565b9150509295509295509295565b600080600080600080600060e0888a0312156118755761187461151f565b5b60006118838a828b01611674565b97505060206118948a828b01611674565b96505060406118a58a828b01611545565b95505060606118b68a828b01611545565b94505060806118c78a828b016117b4565b93505060a06118d88a828b01611545565b92505060c06118e98a828b01611545565b91505092959891949750929550565b600082825260208201905092915050565b7f434f4c4c41544552414c3a20747279696e6720746f207769746864726177206d60008201527f6f726520636f6c6c61746572616c207468616e206465706f7369746564000000602082015250565b6000611965603d836118f8565b915061197082611909565b604082019050919050565b6000602082019050818103600083015261199481611958565b9050919050565b7f434f4c4c41544552414c3a20636c6f736520796f75722063757272656e74207060008201527f6f736974696f6e206265666f726520747279696e6720746f207769746864726160208201527f7700000000000000000000000000000000000000000000000000000000000000604082015250565b6000611a1d6041836118f8565b9150611a288261199b565b606082019050919050565b60006020820190508181036000830152611a4c81611a10565b9050919050565b7f4e487b7100000000000000000000000000000000000000000000000000000000600052601160045260246000fd5b6000611a8d82611524565b9150611a9883611524565b925082821015611aab57611aaa611a53565b5b828203905092915050565b7f535741503a206e6f7420656e6f75676820636f6c6c61746572616c0000000000600082015250565b6000611aec601b836118f8565b9150611af782611ab6565b602082019050919050565b60006020820190508181036000830152611b1b81611adf565b9050919050565b7f535741503a2063616e6e6f7420757365206d6f7265207468616e20313030252060008201527f6f66206163636f756e7420746f2073686f727400000000000000000000000000602082015250565b6000611b7e6033836118f8565b9150611b8982611b22565b604082019050919050565b60006020820190508181036000830152611bad81611b71565b9050919050565b6000611bbf82611524565b9150611bca83611524565b9250817fffffffffffffffffffffffffffffffffffffffffffffffffffffffffffffffff0483118215151615611c0357611c02611a53565b5b828202905092915050565b7f4e487b7100000000000000000000000000000000000000000000000000000000600052601260045260246000fd5b6000611c4882611524565b9150611c5383611524565b925082611c6357611c62611c0e565b5b828204905092915050565b611c77816115a7565b82525050565b611c868161178e565b82525050565b611c9581611524565b82525050565b611ca481611587565b82525050565b61010082016000820151611cc16000850182611c6e565b506020820151611cd46020850182611c6e565b506040820151611ce76040850182611c7d565b506060820151611cfa6060850182611c6e565b506080820151611d0d6080850182611c8c565b5060a0820151611d2060a0850182611c8c565b5060c0820151611d3360c0850182611c8c565b5060e0820151611d4660e0850182611c9b565b50505050565b600061010082019050611d626000830184611caa565b92915050565b600081519050611d778161152e565b92915050565b600060208284031215611d9357611d9261151f565b5b6000611da184828501611d68565b91505092915050565b611db38161178e565b82525050565b600060c082019050611dce60008301896115b9565b611ddb60208301886115b9565b611de860408301876116ec565b611df56060830186611daa565b611e0260808301856116ec565b611e0f60a08301846116ec565b979650505050505050565b6000604082019050611e2f60008301856115b9565b611e3c60208301846116ec565b9392505050565b611e4c816116b6565b8114611e5757600080fd5b50565b600081519050611e6981611e43565b92915050565b600060208284031215611e8557611e8461151f565b5b6000611e9384828501611e5a565b91505092915050565b600060c082019050611eb160008301896115b9565b611ebe60208301886115b9565b611ecb60408301876116ec565b611ed860608301866116ec565b611ee56080830185611daa565b611ef260a08301846116ec565b979650505050505050565b6000606082019050611f1260008301866115b9565b611f1f60208301856115b9565b611f2c60408301846116ec565b949350505050565b600081519050919050565b600081905092915050565b60005b83811015611f68578082015181840152602081019050611f4d565b83811115611f77576000848401525b50505050565b6000611f8882611f34565b611f928185611f3f565b9350611fa2818560208601611f4a565b80840191505092915050565b6000611fba8284611f7d565b915081905092915050565b7f5354460000000000000000000000000000000000000000000000000000000000600082015250565b6000611ffb6003836118f8565b915061200682611fc5565b602082019050919050565b6000602082019050818103600083015261202a81611fee565b9050919050565b7f5341000000000000000000000000000000000000000000000000000000000000600082015250565b60006120676002836118f8565b915061207282612031565b602082019050919050565b600060208201905081810360008301526120968161205a565b9050919050565b6000819050919050565b60006120b28261209d565b91506120bd8361209d565b9250827f8000000000000000000000000000000000000000000000000000000000000000018212600084121516156120f8576120f7611a53565b5b827f7fffffffffffffffffffffffffffffffffffffffffffffffffffffffffffffff0182136000841216156121305761212f611a53565b5b828203905092915050565b600061214682611524565b915061215183611524565b9250827fffffffffffffffffffffffffffffffffffffffffffffffffffffffffffffffff0382111561218657612185611a53565b5b828201905092915050565b600061219c8261209d565b91506121a78361209d565b9250827f7fffffffffffffffffffffffffffffffffffffffffffffffffffffffffffffff04821160008413600084131616156121e6576121e5611a53565b5b817f8000000000000000000000000000000000000000000000000000000000000000058312600084126000841316161561222357612222611a53565b5b827f800000000000000000000000000000000000000000000000000000000000000005821260008413600084121616156122605761225f611a53565b5b827f7fffffffffffffffffffffffffffffffffffffffffffffffffffffffffffffff058212600084126000841216161561229d5761229c611a53565b5b828202905092915050565b7f504e4c3a206c6f7373206578636565647320757365722062616c616e63652c2060008201527f6c69717569646174696f6e2066756e6374696f6e2077696c6c2062652063616c60208201527f6c65640000000000000000000000000000000000000000000000000000000000604082015250565b600061232a6043836118f8565b9150612335826122a8565b606082019050919050565b600060208201905081810360008301526123598161231d565b9050919050565b7f4e487b7100000000000000000000000000000000000000000000000000000000600052603260045260246000fd5b600061239a82611524565b91507fffffffffffffffffffffffffffffffffffffffffffffffffffffffffffffffff8214156123cd576123cc611a53565b5b60018201905091905056fea264697066735822122017d6edd8fce0fe2e993937b9cac7aef2d9508e76bf178fe125b1cf314f7d1fee64736f6c634300080a0033",
  "immutableReferences": {},
  "source": "// SPDX-License-Identifier: MIT\npragma solidity ^0.8.0; //solhint-disable compiler-fixed\npragma abicoder v2;\n\n\nimport \"@openzeppelin/contracts/token/ERC20/IERC20.sol\";\nimport \"@uniswap/v3-periphery/contracts/interfaces/ISwapRouter.sol\";\nimport \"@uniswap/v3-periphery/contracts/libraries/TransferHelper.sol\";\nimport \"./BeraPoolStandardRisk.sol\";\nimport \"./BeraWrapper.sol\";\n\n\n//the public interface for the protocol\ncontract BeraRouter {\n\n    mapping(address => uint) public userCollateralBalance;\n    mapping(address => bool) internal hasCollateral;\n    mapping(address => uint) public entryPrice;\n    mapping(address => bool) public inShort;\n    address[] public poolList;\n\n    address private constant DAI_ADDRESS = 0x6B175474E89094C44Da98b954EedeAC495271d0F;\n\n    //uniswapV3 address router\n    //might have to change if implement 1inch api\n    ISwapRouter public  swapRouter;\n    BeraPoolStandardRisk public beraPoolStandardRisk;\n    BeraWrapper public beraWrapper;\n\n    address public owner;\n\n    constructor(ISwapRouter _swapRouter,\n        BeraPoolStandardRisk _beraPoolStandardRisk,\n        BeraWrapper _beraWrapper) { //solhint-disable func-visibility\n        owner = msg.sender;\n        swapRouter = _swapRouter;\n        beraPoolStandardRisk = _beraPoolStandardRisk;\n        beraWrapper = _beraWrapper;\n    }\n\n    function withdrawCollateral(uint amount) external {\n        require(amount <= userCollateralBalance[msg.sender],\n            \"COLLATERAL: trying to withdraw more collateral than deposited\");\n        require(inShort[msg.sender] == false,\n            \"COLLATERAL: close your current position before trying to withdraw\");\n\n        //reset balance of user on withdraw\n        userCollateralBalance[msg.sender] -= amount;\n\n        if (userCollateralBalance[msg.sender] <= 0) {\n            hasCollateral[msg.sender] = false;\n        }\n\n    }\n\n    // deposit collateral into user account before being allowed to short\n    function swapAndShortStandard(\n            uint amount,\n            address tokenToShort,\n            uint24 poolFee, //needed for uniswap pool\n            uint amountOutMin,\n            uint collateralPercentageOfAccount,\n            uint priceAtWrap)\n            external returns(uint amountOut) { //solhint-disable function-max-lines\n                require(amount <= userCollateralBalance[msg.sender], \"SWAP: not enough collateral\");\n                require(collateralPercentageOfAccount <= 100, \"SWAP: cannot use more than 100% of account to short\");\n\n                //TODO for refactor\n                //could reuse this code to get rid of collat percentage idea and instead use it to keep 5% of dai\n                uint amountOfCollateral = amount * collateralPercentageOfAccount / 100;\n                uint leftover = amount - amountOfCollateral;\n\n                TransferHelper.safeTransferFrom(DAI_ADDRESS, msg.sender, address(this), amount);\n                TransferHelper.safeApprove(DAI_ADDRESS, address(swapRouter), amount);\n\n                ISwapRouter.ExactInputSingleParams memory params =\n                ISwapRouter.ExactInputSingleParams({\n                    tokenIn: DAI_ADDRESS,\n                    tokenOut: tokenToShort,\n                    fee: poolFee,\n                    recipient: msg.sender, //send back to user to execute next leg\n                    deadline: block.timestamp, //solhint-disable not-rely-on-time\n                    amountIn: amountOfCollateral,\n                    amountOutMinimum: amountOutMin,\n                    sqrtPriceLimitX96: 0\n                });\n\n                // execute the frist swap & sends to beraPoolSR based on params\n                amountOut = swapRouter.exactInputSingle(params);\n\n                //execute the second swap and transfer funds to pool for holding\n                //have to update priceAtWrap, users can set this amount manually and drain funds lmfao\n                //will likely use TWAPOracle feature of uniV3 pools\n                beraPoolStandardRisk.shortForUser(\n                    msg.sender,\n                    tokenToShort,\n                    priceAtWrap,\n                    poolFee,\n                    amountOut,\n                    amountOutMin\n                );\n\n                //update entry price mapping\n                entryPrice[msg.sender] = priceAtWrap;\n\n                //update whether address is in a position or not\n                inShort[msg.sender] = true;\n\n                //send remaining funds back to user\n                if (leftover > 0) {\n                    IERC20(DAI_ADDRESS).transfer(msg.sender, leftover);\n                }\n            }\n\n    function swapAndCloseShort(\n        address user,\n        address tokenToClose,\n        uint amount,\n        uint priceAtClose,\n        uint24 poolFee,\n        uint amountOutMin,\n        uint _positionID) external returns(uint amountOut) {\n        //unwrap and unlock position\n        beraWrapper.unwrapPosition(user, _positionID);\n\n        //send dai back to user\n        //needs check for amount\n        IERC20(DAI_ADDRESS).transfer(msg.sender, amount);\n\n        //we swap dai back to weth to close the trade\n        TransferHelper.safeTransferFrom(DAI_ADDRESS, msg.sender, address(this), amount);\n        TransferHelper.safeApprove(DAI_ADDRESS, address(swapRouter), amount);\n\n        ISwapRouter.ExactInputSingleParams memory params =\n        ISwapRouter.ExactInputSingleParams({\n            tokenIn: DAI_ADDRESS,\n            tokenOut: tokenToClose,\n            fee: poolFee,\n            recipient: msg.sender, //send tokens to user to execute next leg of trade\n            deadline: block.timestamp, //solhint-disable not-rely-on-time\n            amountIn: amount,\n            amountOutMinimum: amountOutMin,\n            sqrtPriceLimitX96: 0\n        });\n\n        //execute swap\n        amountOut = swapRouter.exactInputSingle(params);\n\n        //sell tokens back for DAI\n        beraPoolStandardRisk.closeShortForUser(\n            msg.sender,\n            tokenToClose,\n            amountOut, //how much tokenOut is being sent to swap back into dai (in this case weth)\n            priceAtClose,\n            poolFee,\n            amountOutMin\n        );\n\n        //calculate if the user made or lost money on the position\n        //also tranfers the profits to the user and distributes user losses amongst the pool\n        calculatePNL(msg.sender, priceAtClose);\n\n        //reset user short status\n        inShort[msg.sender] = false; //solhint-disable reentrancy\n    }\n\n    function distributeProfits(uint amountToDistribute) internal {\n        for (uint i = 0; i < poolList.length; i++) {\n            //update user collateral instead?\n            uint userPercent = (userCollateralBalance[poolList[i]] / IERC20(DAI_ADDRESS).balanceOf(address(this)));\n            //percentage will be out of 100 i.e 0.3% = 30 or < 30/100 >\n            uint percentToSendToUsers = userPercent * amountToDistribute;\n            userCollateralBalance[poolList[i]] += percentToSendToUsers;\n        }\n    }\n\n    function calculatePNL(address user, uint priceAtClose) internal {\n        int difference = int(entryPrice[user]) - int(priceAtClose);\n        if (difference > 0) {\n            //IERC20(DAI_ADDRESS).transfer(user, uint(difference)); //case where user makes money\n            userCollateralBalance[user] += (uint(difference) * 1e18);\n        } else {\n            int loss = int(entryPrice[user]) - int(priceAtClose); //case where user loses money\n            //make negative num postive\n            int userLoss = (loss * (-1));\n            require(uint(userLoss) <= userCollateralBalance[user],\n                \"PNL: loss exceeds user balance, liquidation function will be called\");\n            uint amountToDistribute = uint(userLoss) - userCollateralBalance[user];\n\n            //distribute remaining amongst pool holders\n            distributeProfits(amountToDistribute);\n\n            //update user collateral balance to reflect loss\n            //in this case it would be whoever is closing their short position\n            userCollateralBalance[user] -= uint(userLoss);\n        }\n    }\n\n\n\n\n\n\n}\n",
  "sourcePath": "/home/kevin/Code/solidity_projects/beraMarket/contracts/BeraRouter.sol",
  "compiler": {
    "name": "solc",
    "version": "0.8.10+commit.fc410830.Emscripten.clang"
  },
  "schemaVersion": "3.4.3",
  "updatedAt": "2021-12-01T16:30:19.115Z",
  "networkType": "ethereum",
  "devdoc": {
    "kind": "dev",
    "methods": {},
    "version": 1
  },
  "userdoc": {
    "kind": "user",
    "methods": {},
    "version": 1
  }
}