{
  "contractName": "BeraWrapper",
  "abi": [
    {
      "inputs": [],
      "stateMutability": "nonpayable",
      "type": "constructor"
    },
    {
      "anonymous": false,
      "inputs": [
        {
          "indexed": true,
          "internalType": "address",
          "name": "account",
          "type": "address"
        },
        {
          "indexed": true,
          "internalType": "address",
          "name": "operator",
          "type": "address"
        },
        {
          "indexed": false,
          "internalType": "bool",
          "name": "approved",
          "type": "bool"
        }
      ],
      "name": "ApprovalForAll",
      "type": "event"
    },
    {
      "anonymous": false,
      "inputs": [
        {
          "indexed": true,
          "internalType": "address",
          "name": "operator",
          "type": "address"
        },
        {
          "indexed": true,
          "internalType": "address",
          "name": "from",
          "type": "address"
        },
        {
          "indexed": true,
          "internalType": "address",
          "name": "to",
          "type": "address"
        },
        {
          "indexed": false,
          "internalType": "uint256[]",
          "name": "ids",
          "type": "uint256[]"
        },
        {
          "indexed": false,
          "internalType": "uint256[]",
          "name": "values",
          "type": "uint256[]"
        }
      ],
      "name": "TransferBatch",
      "type": "event"
    },
    {
      "anonymous": false,
      "inputs": [
        {
          "indexed": true,
          "internalType": "address",
          "name": "operator",
          "type": "address"
        },
        {
          "indexed": true,
          "internalType": "address",
          "name": "from",
          "type": "address"
        },
        {
          "indexed": true,
          "internalType": "address",
          "name": "to",
          "type": "address"
        },
        {
          "indexed": false,
          "internalType": "uint256",
          "name": "id",
          "type": "uint256"
        },
        {
          "indexed": false,
          "internalType": "uint256",
          "name": "value",
          "type": "uint256"
        }
      ],
      "name": "TransferSingle",
      "type": "event"
    },
    {
      "anonymous": false,
      "inputs": [
        {
          "indexed": false,
          "internalType": "string",
          "name": "value",
          "type": "string"
        },
        {
          "indexed": true,
          "internalType": "uint256",
          "name": "id",
          "type": "uint256"
        }
      ],
      "name": "URI",
      "type": "event"
    },
    {
      "inputs": [
        {
          "internalType": "address",
          "name": "account",
          "type": "address"
        },
        {
          "internalType": "uint256",
          "name": "id",
          "type": "uint256"
        }
      ],
      "name": "balanceOf",
      "outputs": [
        {
          "internalType": "uint256",
          "name": "",
          "type": "uint256"
        }
      ],
      "stateMutability": "view",
      "type": "function",
      "constant": true
    },
    {
      "inputs": [
        {
          "internalType": "address[]",
          "name": "accounts",
          "type": "address[]"
        },
        {
          "internalType": "uint256[]",
          "name": "ids",
          "type": "uint256[]"
        }
      ],
      "name": "balanceOfBatch",
      "outputs": [
        {
          "internalType": "uint256[]",
          "name": "",
          "type": "uint256[]"
        }
      ],
      "stateMutability": "view",
      "type": "function",
      "constant": true
    },
    {
      "inputs": [
        {
          "internalType": "address",
          "name": "account",
          "type": "address"
        },
        {
          "internalType": "address",
          "name": "operator",
          "type": "address"
        }
      ],
      "name": "isApprovedForAll",
      "outputs": [
        {
          "internalType": "bool",
          "name": "",
          "type": "bool"
        }
      ],
      "stateMutability": "view",
      "type": "function",
      "constant": true
    },
    {
      "inputs": [],
      "name": "owner",
      "outputs": [
        {
          "internalType": "address",
          "name": "",
          "type": "address"
        }
      ],
      "stateMutability": "view",
      "type": "function",
      "constant": true
    },
    {
      "inputs": [
        {
          "internalType": "uint256",
          "name": "",
          "type": "uint256"
        }
      ],
      "name": "positionData",
      "outputs": [
        {
          "internalType": "address",
          "name": "positionOwner",
          "type": "address"
        },
        {
          "internalType": "address",
          "name": "associatedPool",
          "type": "address"
        },
        {
          "internalType": "uint256",
          "name": "shortAmount",
          "type": "uint256"
        },
        {
          "internalType": "address",
          "name": "tokenShorted",
          "type": "address"
        },
        {
          "internalType": "uint256",
          "name": "priceAtWrap",
          "type": "uint256"
        }
      ],
      "stateMutability": "view",
      "type": "function",
      "constant": true
    },
    {
      "inputs": [],
      "name": "positionID",
      "outputs": [
        {
          "internalType": "uint256",
          "name": "",
          "type": "uint256"
        }
      ],
      "stateMutability": "view",
      "type": "function",
      "constant": true
    },
    {
      "inputs": [
        {
          "internalType": "address",
          "name": "from",
          "type": "address"
        },
        {
          "internalType": "address",
          "name": "to",
          "type": "address"
        },
        {
          "internalType": "uint256[]",
          "name": "ids",
          "type": "uint256[]"
        },
        {
          "internalType": "uint256[]",
          "name": "amounts",
          "type": "uint256[]"
        },
        {
          "internalType": "bytes",
          "name": "data",
          "type": "bytes"
        }
      ],
      "name": "safeBatchTransferFrom",
      "outputs": [],
      "stateMutability": "nonpayable",
      "type": "function"
    },
    {
      "inputs": [
        {
          "internalType": "address",
          "name": "from",
          "type": "address"
        },
        {
          "internalType": "address",
          "name": "to",
          "type": "address"
        },
        {
          "internalType": "uint256",
          "name": "id",
          "type": "uint256"
        },
        {
          "internalType": "uint256",
          "name": "amount",
          "type": "uint256"
        },
        {
          "internalType": "bytes",
          "name": "data",
          "type": "bytes"
        }
      ],
      "name": "safeTransferFrom",
      "outputs": [],
      "stateMutability": "nonpayable",
      "type": "function"
    },
    {
      "inputs": [
        {
          "internalType": "address",
          "name": "operator",
          "type": "address"
        },
        {
          "internalType": "bool",
          "name": "approved",
          "type": "bool"
        }
      ],
      "name": "setApprovalForAll",
      "outputs": [],
      "stateMutability": "nonpayable",
      "type": "function"
    },
    {
      "inputs": [
        {
          "internalType": "bytes4",
          "name": "interfaceId",
          "type": "bytes4"
        }
      ],
      "name": "supportsInterface",
      "outputs": [
        {
          "internalType": "bool",
          "name": "",
          "type": "bool"
        }
      ],
      "stateMutability": "view",
      "type": "function",
      "constant": true
    },
    {
      "inputs": [
        {
          "internalType": "uint256",
          "name": "",
          "type": "uint256"
        }
      ],
      "name": "uri",
      "outputs": [
        {
          "internalType": "string",
          "name": "",
          "type": "string"
        }
      ],
      "stateMutability": "view",
      "type": "function",
      "constant": true
    },
    {
      "inputs": [
        {
          "internalType": "address",
          "name": "positionOwner",
          "type": "address"
        },
        {
          "internalType": "address",
          "name": "associatedPool",
          "type": "address"
        },
        {
          "internalType": "uint256",
          "name": "shortAmount",
          "type": "uint256"
        },
        {
          "internalType": "address",
          "name": "tokenShorted",
          "type": "address"
        },
        {
          "internalType": "uint256",
          "name": "priceAtWrap",
          "type": "uint256"
        }
      ],
      "name": "wrapPosition",
      "outputs": [],
      "stateMutability": "nonpayable",
      "type": "function"
    },
    {
      "inputs": [
        {
          "internalType": "address",
          "name": "positionOwner",
          "type": "address"
        },
        {
          "internalType": "uint256",
          "name": "_positionID",
          "type": "uint256"
        }
      ],
      "name": "unwrapPosition",
      "outputs": [],
      "stateMutability": "nonpayable",
      "type": "function"
    },
    {
      "inputs": [
        {
          "internalType": "address",
          "name": "to",
          "type": "address"
        },
        {
          "internalType": "address",
          "name": "from",
          "type": "address"
        },
        {
          "internalType": "uint256",
          "name": "_positionID",
          "type": "uint256"
        },
        {
          "internalType": "uint256",
          "name": "amount",
          "type": "uint256"
        }
      ],
      "name": "transferPosition",
      "outputs": [],
      "stateMutability": "nonpayable",
      "type": "function"
    },
    {
      "inputs": [
        {
          "internalType": "address",
          "name": "newPositionOwner",
          "type": "address"
        },
        {
          "internalType": "uint256",
          "name": "_positionID",
          "type": "uint256"
        }
      ],
      "name": "updatePosition",
      "outputs": [],
      "stateMutability": "nonpayable",
      "type": "function"
    }
  ],
  "bytecode": "0x60806040523480156200001157600080fd5b506040518060200160405280600081525062000033816200008360201b60201c565b5033600360006101000a81548173ffffffffffffffffffffffffffffffffffffffff021916908373ffffffffffffffffffffffffffffffffffffffff1602179055506000600481905550620001b4565b80600290805190602001906200009b9291906200009f565b5050565b828054620000ad906200017e565b90600052602060002090601f016020900481019282620000d157600085556200011d565b82601f10620000ec57805160ff19168380011785556200011d565b828001600101855582156200011d579182015b828111156200011c578251825591602001919060010190620000ff565b5b5090506200012c919062000130565b5090565b5b808211156200014b57600081600090555060010162000131565b5090565b7f4e487b7100000000000000000000000000000000000000000000000000000000600052602260045260246000fd5b600060028204905060018216806200019757607f821691505b60208210811415620001ae57620001ad6200014f565b5b50919050565b6133fc80620001c46000396000f3fe608060405234801561001057600080fd5b50600436106100f45760003560e01c80638da5cb5b11610097578063c25df92d11610066578063c25df92d14610297578063ce05f8c7146102b3578063e985e9c5146102d1578063f242432a14610301576100f4565b80638da5cb5b1461020d578063a0ab910e1461022b578063a22cb4651461025f578063b9e17b761461027b576100f4565b806319297ba4116100d357806319297ba4146101895780632eb2c2d6146101a55780634e1273f4146101c15780634e6368ba146101f1576100f4565b8062fdd58e146100f957806301ffc9a7146101295780630e89341c14610159575b600080fd5b610113600480360381019061010e9190611dc6565b61031d565b6040516101209190611e15565b60405180910390f35b610143600480360381019061013e9190611e88565b6103e6565b6040516101509190611ed0565b60405180910390f35b610173600480360381019061016e9190611eeb565b6104c8565b6040516101809190611fb1565b60405180910390f35b6101a3600480360381019061019e9190611dc6565b61055c565b005b6101bf60048036038101906101ba91906121d0565b6105d2565b005b6101db60048036038101906101d69190612362565b610673565b6040516101e89190612498565b60405180910390f35b61020b600480360381019061020691906124ba565b61078c565b005b61021561094b565b6040516102229190612530565b60405180910390f35b61024560048036038101906102409190611eeb565b610971565b60405161025695949392919061254b565b60405180910390f35b610279600480360381019061027491906125ca565b610a07565b005b61029560048036038101906102909190611dc6565b610b88565b005b6102b160048036038101906102ac919061260a565b610c3c565b005b6102bb610de3565b6040516102c89190611e15565b60405180910390f35b6102eb60048036038101906102e69190612685565b610de9565b6040516102f89190611ed0565b60405180910390f35b61031b600480360381019061031691906126c5565b610e7d565b005b60008073ffffffffffffffffffffffffffffffffffffffff168373ffffffffffffffffffffffffffffffffffffffff16141561038e576040517f08c379a0000000000000000000000000000000000000000000000000000000008152600401610385906127ce565b60405180910390fd5b60008083815260200190815260200160002060008473ffffffffffffffffffffffffffffffffffffffff1673ffffffffffffffffffffffffffffffffffffffff16815260200190815260200160002054905092915050565b60007fd9b67a26000000000000000000000000000000000000000000000000000000007bffffffffffffffffffffffffffffffffffffffffffffffffffffffff1916827bffffffffffffffffffffffffffffffffffffffffffffffffffffffff191614806104b157507f0e89341c000000000000000000000000000000000000000000000000000000007bffffffffffffffffffffffffffffffffffffffffffffffffffffffff1916827bffffffffffffffffffffffffffffffffffffffffffffffffffffffff1916145b806104c157506104c082610f1e565b5b9050919050565b6060600280546104d79061281d565b80601f01602080910402602001604051908101604052809291908181526020018280546105039061281d565b80156105505780601f1061052557610100808354040283529160200191610550565b820191906000526020600020905b81548152906001019060200180831161053357829003601f168201915b50505050509050919050565b6000610568838361031d565b11156105c857816005600083815260200190815260200160002060000160006101000a81548173ffffffffffffffffffffffffffffffffffffffff021916908373ffffffffffffffffffffffffffffffffffffffff1602179055506105cd565b6105ce565b5b5050565b6105da610f88565b73ffffffffffffffffffffffffffffffffffffffff168573ffffffffffffffffffffffffffffffffffffffff161480610620575061061f8561061a610f88565b610de9565b5b61065f576040517f08c379a0000000000000000000000000000000000000000000000000000000008152600401610656906128c1565b60405180910390fd5b61066c8585858585610f90565b5050505050565b606081518351146106b9576040517f08c379a00000000000000000000000000000000000000000000000000000000081526004016106b090612953565b60405180910390fd5b6000835167ffffffffffffffff8111156106d6576106d5611fd8565b5b6040519080825280602002602001820160405280156107045781602001602082028036833780820191505090505b50905060005b84518110156107815761075185828151811061072957610728612973565b5b602002602001015185838151811061074457610743612973565b5b602002602001015161031d565b82828151811061076457610763612973565b5b6020026020010181815250508061077a906129d1565b905061070a565b508091505092915050565b6005600083815260200190815260200160002060000160009054906101000a900473ffffffffffffffffffffffffffffffffffffffff1673ffffffffffffffffffffffffffffffffffffffff163373ffffffffffffffffffffffffffffffffffffffff1614610830576040517f08c379a000000000000000000000000000000000000000000000000000000000815260040161082790612a8c565b60405180910390fd5b6005600083815260200190815260200160002060000160009054906101000a900473ffffffffffffffffffffffffffffffffffffffff1673ffffffffffffffffffffffffffffffffffffffff168373ffffffffffffffffffffffffffffffffffffffff16146108d4576040517f08c379a00000000000000000000000000000000000000000000000000000000081526004016108cb90612a8c565b60405180910390fd5b6108f08484848460405180602001604052806000815250610e7d565b836005600084815260200190815260200160002060000160006101000a81548173ffffffffffffffffffffffffffffffffffffffff021916908373ffffffffffffffffffffffffffffffffffffffff16021790555050505050565b600360009054906101000a900473ffffffffffffffffffffffffffffffffffffffff1681565b60056020528060005260406000206000915090508060000160009054906101000a900473ffffffffffffffffffffffffffffffffffffffff16908060010160009054906101000a900473ffffffffffffffffffffffffffffffffffffffff16908060020154908060030160009054906101000a900473ffffffffffffffffffffffffffffffffffffffff16908060040154905085565b8173ffffffffffffffffffffffffffffffffffffffff16610a26610f88565b73ffffffffffffffffffffffffffffffffffffffff161415610a7d576040517f08c379a0000000000000000000000000000000000000000000000000000000008152600401610a7490612b1e565b60405180910390fd5b8060016000610a8a610f88565b73ffffffffffffffffffffffffffffffffffffffff1673ffffffffffffffffffffffffffffffffffffffff16815260200190815260200160002060008473ffffffffffffffffffffffffffffffffffffffff1673ffffffffffffffffffffffffffffffffffffffff16815260200190815260200160002060006101000a81548160ff0219169083151502179055508173ffffffffffffffffffffffffffffffffffffffff16610b37610f88565b73ffffffffffffffffffffffffffffffffffffffff167f17307eab39ab6107e8899845ad3d59bd9653f200f220920489ca2b5937696c3183604051610b7c9190611ed0565b60405180910390a35050565b6005600082815260200190815260200160002060000160009054906101000a900473ffffffffffffffffffffffffffffffffffffffff1673ffffffffffffffffffffffffffffffffffffffff168273ffffffffffffffffffffffffffffffffffffffff1614610c2c576040517f08c379a0000000000000000000000000000000000000000000000000000000008152600401610c2390612bb0565b60405180910390fd5b610c38828260016112a4565b5050565b610c5a856004546001604051806020016040528060008152506114c1565b6040518060a001604052808673ffffffffffffffffffffffffffffffffffffffff1681526020018573ffffffffffffffffffffffffffffffffffffffff1681526020018481526020018373ffffffffffffffffffffffffffffffffffffffff1681526020018281525060056000600454815260200190815260200160002060008201518160000160006101000a81548173ffffffffffffffffffffffffffffffffffffffff021916908373ffffffffffffffffffffffffffffffffffffffff16021790555060208201518160010160006101000a81548173ffffffffffffffffffffffffffffffffffffffff021916908373ffffffffffffffffffffffffffffffffffffffff1602179055506040820151816002015560608201518160030160006101000a81548173ffffffffffffffffffffffffffffffffffffffff021916908373ffffffffffffffffffffffffffffffffffffffff1602179055506080820151816004015590505060046000815480929190610dd7906129d1565b91905055505050505050565b60045481565b6000600160008473ffffffffffffffffffffffffffffffffffffffff1673ffffffffffffffffffffffffffffffffffffffff16815260200190815260200160002060008373ffffffffffffffffffffffffffffffffffffffff1673ffffffffffffffffffffffffffffffffffffffff16815260200190815260200160002060009054906101000a900460ff16905092915050565b610e85610f88565b73ffffffffffffffffffffffffffffffffffffffff168573ffffffffffffffffffffffffffffffffffffffff161480610ecb5750610eca85610ec5610f88565b610de9565b5b610f0a576040517f08c379a0000000000000000000000000000000000000000000000000000000008152600401610f0190612c42565b60405180910390fd5b610f178585858585611657565b5050505050565b60007f01ffc9a7000000000000000000000000000000000000000000000000000000007bffffffffffffffffffffffffffffffffffffffffffffffffffffffff1916827bffffffffffffffffffffffffffffffffffffffffffffffffffffffff1916149050919050565b600033905090565b8151835114610fd4576040517f08c379a0000000000000000000000000000000000000000000000000000000008152600401610fcb90612cd4565b60405180910390fd5b600073ffffffffffffffffffffffffffffffffffffffff168473ffffffffffffffffffffffffffffffffffffffff161415611044576040517f08c379a000000000000000000000000000000000000000000000000000000000815260040161103b90612d66565b60405180910390fd5b600061104e610f88565b905061105e8187878787876118d9565b60005b845181101561120f57600085828151811061107f5761107e612973565b5b60200260200101519050600085838151811061109e5761109d612973565b5b60200260200101519050600080600084815260200190815260200160002060008b73ffffffffffffffffffffffffffffffffffffffff1673ffffffffffffffffffffffffffffffffffffffff1681526020019081526020016000205490508181101561113f576040517f08c379a000000000000000000000000000000000000000000000000000000000815260040161113690612df8565b60405180910390fd5b81810360008085815260200190815260200160002060008c73ffffffffffffffffffffffffffffffffffffffff1673ffffffffffffffffffffffffffffffffffffffff168152602001908152602001600020819055508160008085815260200190815260200160002060008b73ffffffffffffffffffffffffffffffffffffffff1673ffffffffffffffffffffffffffffffffffffffff16815260200190815260200160002060008282546111f49190612e18565b9250508190555050505080611208906129d1565b9050611061565b508473ffffffffffffffffffffffffffffffffffffffff168673ffffffffffffffffffffffffffffffffffffffff168273ffffffffffffffffffffffffffffffffffffffff167f4a39dc06d4c0dbc64b70af90fd698a233a518aa5d07e595d983b8c0526c8f7fb8787604051611286929190612e6e565b60405180910390a461129c8187878787876118e1565b505050505050565b600073ffffffffffffffffffffffffffffffffffffffff168373ffffffffffffffffffffffffffffffffffffffff161415611314576040517f08c379a000000000000000000000000000000000000000000000000000000000815260040161130b90612f17565b60405180910390fd5b600061131e610f88565b905061134e8185600061133087611ab9565b61133987611ab9565b604051806020016040528060008152506118d9565b600080600085815260200190815260200160002060008673ffffffffffffffffffffffffffffffffffffffff1673ffffffffffffffffffffffffffffffffffffffff168152602001908152602001600020549050828110156113e5576040517f08c379a00000000000000000000000000000000000000000000000000000000081526004016113dc90612fa9565b60405180910390fd5b82810360008086815260200190815260200160002060008773ffffffffffffffffffffffffffffffffffffffff1673ffffffffffffffffffffffffffffffffffffffff16815260200190815260200160002081905550600073ffffffffffffffffffffffffffffffffffffffff168573ffffffffffffffffffffffffffffffffffffffff168373ffffffffffffffffffffffffffffffffffffffff167fc3d58168c5ae7397731d063d5bbf3d657854427343f4c083240f7aacaa2d0f6287876040516114b2929190612fc9565b60405180910390a45050505050565b600073ffffffffffffffffffffffffffffffffffffffff168473ffffffffffffffffffffffffffffffffffffffff161415611531576040517f08c379a000000000000000000000000000000000000000000000000000000000815260040161152890613064565b60405180910390fd5b600061153b610f88565b905061155c8160008761154d88611ab9565b61155688611ab9565b876118d9565b8260008086815260200190815260200160002060008773ffffffffffffffffffffffffffffffffffffffff1673ffffffffffffffffffffffffffffffffffffffff16815260200190815260200160002060008282546115bb9190612e18565b925050819055508473ffffffffffffffffffffffffffffffffffffffff16600073ffffffffffffffffffffffffffffffffffffffff168273ffffffffffffffffffffffffffffffffffffffff167fc3d58168c5ae7397731d063d5bbf3d657854427343f4c083240f7aacaa2d0f628787604051611639929190612fc9565b60405180910390a461165081600087878787611b33565b5050505050565b600073ffffffffffffffffffffffffffffffffffffffff168473ffffffffffffffffffffffffffffffffffffffff1614156116c7576040517f08c379a00000000000000000000000000000000000000000000000000000000081526004016116be90612d66565b60405180910390fd5b60006116d1610f88565b90506116f18187876116e288611ab9565b6116eb88611ab9565b876118d9565b600080600086815260200190815260200160002060008873ffffffffffffffffffffffffffffffffffffffff1673ffffffffffffffffffffffffffffffffffffffff16815260200190815260200160002054905083811015611788576040517f08c379a000000000000000000000000000000000000000000000000000000000815260040161177f90612df8565b60405180910390fd5b83810360008087815260200190815260200160002060008973ffffffffffffffffffffffffffffffffffffffff1673ffffffffffffffffffffffffffffffffffffffff168152602001908152602001600020819055508360008087815260200190815260200160002060008873ffffffffffffffffffffffffffffffffffffffff1673ffffffffffffffffffffffffffffffffffffffff168152602001908152602001600020600082825461183d9190612e18565b925050819055508573ffffffffffffffffffffffffffffffffffffffff168773ffffffffffffffffffffffffffffffffffffffff168373ffffffffffffffffffffffffffffffffffffffff167fc3d58168c5ae7397731d063d5bbf3d657854427343f4c083240f7aacaa2d0f6288886040516118ba929190612fc9565b60405180910390a46118d0828888888888611b33565b50505050505050565b505050505050565b6119008473ffffffffffffffffffffffffffffffffffffffff16611d0b565b15611ab1578373ffffffffffffffffffffffffffffffffffffffff1663bc197c8187878686866040518663ffffffff1660e01b81526004016119469594939291906130d9565b6020604051808303816000875af192505050801561198257506040513d601f19601f8201168201806040525081019061197f9190613156565b60015b611a285761198e613190565b806308c379a014156119eb57506119a36131b2565b806119ae57506119ed565b806040517f08c379a00000000000000000000000000000000000000000000000000000000081526004016119e29190611fb1565b60405180910390fd5b505b6040517f08c379a0000000000000000000000000000000000000000000000000000000008152600401611a1f906132ba565b60405180910390fd5b63bc197c8160e01b7bffffffffffffffffffffffffffffffffffffffffffffffffffffffff1916817bffffffffffffffffffffffffffffffffffffffffffffffffffffffff191614611aaf576040517f08c379a0000000000000000000000000000000000000000000000000000000008152600401611aa69061334c565b60405180910390fd5b505b505050505050565b60606000600167ffffffffffffffff811115611ad857611ad7611fd8565b5b604051908082528060200260200182016040528015611b065781602001602082028036833780820191505090505b5090508281600081518110611b1e57611b1d612973565b5b60200260200101818152505080915050919050565b611b528473ffffffffffffffffffffffffffffffffffffffff16611d0b565b15611d03578373ffffffffffffffffffffffffffffffffffffffff1663f23a6e6187878686866040518663ffffffff1660e01b8152600401611b9895949392919061336c565b6020604051808303816000875af1925050508015611bd457506040513d601f19601f82011682018060405250810190611bd19190613156565b60015b611c7a57611be0613190565b806308c379a01415611c3d5750611bf56131b2565b80611c005750611c3f565b806040517f08c379a0000000000000000000000000000000000000000000000000000000008152600401611c349190611fb1565b60405180910390fd5b505b6040517f08c379a0000000000000000000000000000000000000000000000000000000008152600401611c71906132ba565b60405180910390fd5b63f23a6e6160e01b7bffffffffffffffffffffffffffffffffffffffffffffffffffffffff1916817bffffffffffffffffffffffffffffffffffffffffffffffffffffffff191614611d01576040517f08c379a0000000000000000000000000000000000000000000000000000000008152600401611cf89061334c565b60405180910390fd5b505b505050505050565b600080823b905060008111915050919050565b6000604051905090565b600080fd5b600080fd5b600073ffffffffffffffffffffffffffffffffffffffff82169050919050565b6000611d5d82611d32565b9050919050565b611d6d81611d52565b8114611d7857600080fd5b50565b600081359050611d8a81611d64565b92915050565b6000819050919050565b611da381611d90565b8114611dae57600080fd5b50565b600081359050611dc081611d9a565b92915050565b60008060408385031215611ddd57611ddc611d28565b5b6000611deb85828601611d7b565b9250506020611dfc85828601611db1565b9150509250929050565b611e0f81611d90565b82525050565b6000602082019050611e2a6000830184611e06565b92915050565b60007fffffffff0000000000000000000000000000000000000000000000000000000082169050919050565b611e6581611e30565b8114611e7057600080fd5b50565b600081359050611e8281611e5c565b92915050565b600060208284031215611e9e57611e9d611d28565b5b6000611eac84828501611e73565b91505092915050565b60008115159050919050565b611eca81611eb5565b82525050565b6000602082019050611ee56000830184611ec1565b92915050565b600060208284031215611f0157611f00611d28565b5b6000611f0f84828501611db1565b91505092915050565b600081519050919050565b600082825260208201905092915050565b60005b83811015611f52578082015181840152602081019050611f37565b83811115611f61576000848401525b50505050565b6000601f19601f8301169050919050565b6000611f8382611f18565b611f8d8185611f23565b9350611f9d818560208601611f34565b611fa681611f67565b840191505092915050565b60006020820190508181036000830152611fcb8184611f78565b905092915050565b600080fd5b7f4e487b7100000000000000000000000000000000000000000000000000000000600052604160045260246000fd5b61201082611f67565b810181811067ffffffffffffffff8211171561202f5761202e611fd8565b5b80604052505050565b6000612042611d1e565b905061204e8282612007565b919050565b600067ffffffffffffffff82111561206e5761206d611fd8565b5b602082029050602081019050919050565b600080fd5b600061209761209284612053565b612038565b905080838252602082019050602084028301858111156120ba576120b961207f565b5b835b818110156120e357806120cf8882611db1565b8452602084019350506020810190506120bc565b5050509392505050565b600082601f83011261210257612101611fd3565b5b8135612112848260208601612084565b91505092915050565b600080fd5b600067ffffffffffffffff82111561213b5761213a611fd8565b5b61214482611f67565b9050602081019050919050565b82818337600083830152505050565b600061217361216e84612120565b612038565b90508281526020810184848401111561218f5761218e61211b565b5b61219a848285612151565b509392505050565b600082601f8301126121b7576121b6611fd3565b5b81356121c7848260208601612160565b91505092915050565b600080600080600060a086880312156121ec576121eb611d28565b5b60006121fa88828901611d7b565b955050602061220b88828901611d7b565b945050604086013567ffffffffffffffff81111561222c5761222b611d2d565b5b612238888289016120ed565b935050606086013567ffffffffffffffff81111561225957612258611d2d565b5b612265888289016120ed565b925050608086013567ffffffffffffffff81111561228657612285611d2d565b5b612292888289016121a2565b9150509295509295909350565b600067ffffffffffffffff8211156122ba576122b9611fd8565b5b602082029050602081019050919050565b60006122de6122d98461229f565b612038565b905080838252602082019050602084028301858111156123015761230061207f565b5b835b8181101561232a57806123168882611d7b565b845260208401935050602081019050612303565b5050509392505050565b600082601f83011261234957612348611fd3565b5b81356123598482602086016122cb565b91505092915050565b6000806040838503121561237957612378611d28565b5b600083013567ffffffffffffffff81111561239757612396611d2d565b5b6123a385828601612334565b925050602083013567ffffffffffffffff8111156123c4576123c3611d2d565b5b6123d0858286016120ed565b9150509250929050565b600081519050919050565b600082825260208201905092915050565b6000819050602082019050919050565b61240f81611d90565b82525050565b60006124218383612406565b60208301905092915050565b6000602082019050919050565b6000612445826123da565b61244f81856123e5565b935061245a836123f6565b8060005b8381101561248b5781516124728882612415565b975061247d8361242d565b92505060018101905061245e565b5085935050505092915050565b600060208201905081810360008301526124b2818461243a565b905092915050565b600080600080608085870312156124d4576124d3611d28565b5b60006124e287828801611d7b565b94505060206124f387828801611d7b565b935050604061250487828801611db1565b925050606061251587828801611db1565b91505092959194509250565b61252a81611d52565b82525050565b60006020820190506125456000830184612521565b92915050565b600060a0820190506125606000830188612521565b61256d6020830187612521565b61257a6040830186611e06565b6125876060830185612521565b6125946080830184611e06565b9695505050505050565b6125a781611eb5565b81146125b257600080fd5b50565b6000813590506125c48161259e565b92915050565b600080604083850312156125e1576125e0611d28565b5b60006125ef85828601611d7b565b9250506020612600858286016125b5565b9150509250929050565b600080600080600060a0868803121561262657612625611d28565b5b600061263488828901611d7b565b955050602061264588828901611d7b565b945050604061265688828901611db1565b935050606061266788828901611d7b565b925050608061267888828901611db1565b9150509295509295909350565b6000806040838503121561269c5761269b611d28565b5b60006126aa85828601611d7b565b92505060206126bb85828601611d7b565b9150509250929050565b600080600080600060a086880312156126e1576126e0611d28565b5b60006126ef88828901611d7b565b955050602061270088828901611d7b565b945050604061271188828901611db1565b935050606061272288828901611db1565b925050608086013567ffffffffffffffff81111561274357612742611d2d565b5b61274f888289016121a2565b9150509295509295909350565b7f455243313135353a2062616c616e636520717565727920666f7220746865207a60008201527f65726f2061646472657373000000000000000000000000000000000000000000602082015250565b60006127b8602b83611f23565b91506127c38261275c565b604082019050919050565b600060208201905081810360008301526127e7816127ab565b9050919050565b7f4e487b7100000000000000000000000000000000000000000000000000000000600052602260045260246000fd5b6000600282049050600182168061283557607f821691505b60208210811415612849576128486127ee565b5b50919050565b7f455243313135353a207472616e736665722063616c6c6572206973206e6f742060008201527f6f776e6572206e6f7220617070726f7665640000000000000000000000000000602082015250565b60006128ab603283611f23565b91506128b68261284f565b604082019050919050565b600060208201905081810360008301526128da8161289e565b9050919050565b7f455243313135353a206163636f756e747320616e6420696473206c656e67746860008201527f206d69736d617463680000000000000000000000000000000000000000000000602082015250565b600061293d602983611f23565b9150612948826128e1565b604082019050919050565b6000602082019050818103600083015261296c81612930565b9050919050565b7f4e487b7100000000000000000000000000000000000000000000000000000000600052603260045260246000fd5b7f4e487b7100000000000000000000000000000000000000000000000000000000600052601160045260246000fd5b60006129dc82611d90565b91507fffffffffffffffffffffffffffffffffffffffffffffffffffffffffffffffff821415612a0f57612a0e6129a2565b5b600182019050919050565b7f577261707065723a206f6e6c7920746865206f776e65722063616e207472616e60008201527f73666572206120706f736974696f6e0000000000000000000000000000000000602082015250565b6000612a76602f83611f23565b9150612a8182612a1a565b604082019050919050565b60006020820190508181036000830152612aa581612a69565b9050919050565b7f455243313135353a2073657474696e6720617070726f76616c2073746174757360008201527f20666f722073656c660000000000000000000000000000000000000000000000602082015250565b6000612b08602983611f23565b9150612b1382612aac565b604082019050919050565b60006020820190508181036000830152612b3781612afb565b9050919050565b7f577261707065723a206f6e6c7920746865206f776e65722063616e20756e777260008201527f61702074686520706f736974696f6e0000000000000000000000000000000000602082015250565b6000612b9a602f83611f23565b9150612ba582612b3e565b604082019050919050565b60006020820190508181036000830152612bc981612b8d565b9050919050565b7f455243313135353a2063616c6c6572206973206e6f74206f776e6572206e6f7260008201527f20617070726f7665640000000000000000000000000000000000000000000000602082015250565b6000612c2c602983611f23565b9150612c3782612bd0565b604082019050919050565b60006020820190508181036000830152612c5b81612c1f565b9050919050565b7f455243313135353a2069647320616e6420616d6f756e7473206c656e6774682060008201527f6d69736d61746368000000000000000000000000000000000000000000000000602082015250565b6000612cbe602883611f23565b9150612cc982612c62565b604082019050919050565b60006020820190508181036000830152612ced81612cb1565b9050919050565b7f455243313135353a207472616e7366657220746f20746865207a65726f20616460008201527f6472657373000000000000000000000000000000000000000000000000000000602082015250565b6000612d50602583611f23565b9150612d5b82612cf4565b604082019050919050565b60006020820190508181036000830152612d7f81612d43565b9050919050565b7f455243313135353a20696e73756666696369656e742062616c616e636520666f60008201527f72207472616e7366657200000000000000000000000000000000000000000000602082015250565b6000612de2602a83611f23565b9150612ded82612d86565b604082019050919050565b60006020820190508181036000830152612e1181612dd5565b9050919050565b6000612e2382611d90565b9150612e2e83611d90565b9250827fffffffffffffffffffffffffffffffffffffffffffffffffffffffffffffffff03821115612e6357612e626129a2565b5b828201905092915050565b60006040820190508181036000830152612e88818561243a565b90508181036020830152612e9c818461243a565b90509392505050565b7f455243313135353a206275726e2066726f6d20746865207a65726f206164647260008201527f6573730000000000000000000000000000000000000000000000000000000000602082015250565b6000612f01602383611f23565b9150612f0c82612ea5565b604082019050919050565b60006020820190508181036000830152612f3081612ef4565b9050919050565b7f455243313135353a206275726e20616d6f756e7420657863656564732062616c60008201527f616e636500000000000000000000000000000000000000000000000000000000602082015250565b6000612f93602483611f23565b9150612f9e82612f37565b604082019050919050565b60006020820190508181036000830152612fc281612f86565b9050919050565b6000604082019050612fde6000830185611e06565b612feb6020830184611e06565b9392505050565b7f455243313135353a206d696e7420746f20746865207a65726f2061646472657360008201527f7300000000000000000000000000000000000000000000000000000000000000602082015250565b600061304e602183611f23565b915061305982612ff2565b604082019050919050565b6000602082019050818103600083015261307d81613041565b9050919050565b600081519050919050565b600082825260208201905092915050565b60006130ab82613084565b6130b5818561308f565b93506130c5818560208601611f34565b6130ce81611f67565b840191505092915050565b600060a0820190506130ee6000830188612521565b6130fb6020830187612521565b818103604083015261310d818661243a565b90508181036060830152613121818561243a565b9050818103608083015261313581846130a0565b90509695505050505050565b60008151905061315081611e5c565b92915050565b60006020828403121561316c5761316b611d28565b5b600061317a84828501613141565b91505092915050565b60008160e01c9050919050565b600060033d11156131af5760046000803e6131ac600051613183565b90505b90565b600060443d10156131c257613245565b6131ca611d1e565b60043d036004823e80513d602482011167ffffffffffffffff821117156131f2575050613245565b808201805167ffffffffffffffff8111156132105750505050613245565b80602083010160043d03850181111561322d575050505050613245565b61323c82602001850186612007565b82955050505050505b90565b7f455243313135353a207472616e7366657220746f206e6f6e204552433131353560008201527f526563656976657220696d706c656d656e746572000000000000000000000000602082015250565b60006132a4603483611f23565b91506132af82613248565b604082019050919050565b600060208201905081810360008301526132d381613297565b9050919050565b7f455243313135353a204552433131353552656365697665722072656a6563746560008201527f6420746f6b656e73000000000000000000000000000000000000000000000000602082015250565b6000613336602883611f23565b9150613341826132da565b604082019050919050565b6000602082019050818103600083015261336581613329565b9050919050565b600060a0820190506133816000830188612521565b61338e6020830187612521565b61339b6040830186611e06565b6133a86060830185611e06565b81810360808301526133ba81846130a0565b9050969550505050505056fea264697066735822122033e141f5e0fd0fb9e6289df6dc355929ae80015f9f770f6db2b603425636c37b64736f6c634300080a0033",
  "immutableReferences": {},
  "source": "// SPDX-License-Identifier: MIT\npragma solidity ^0.8.0; //solhint-disable compiler-fixed\n\nimport \"@openzeppelin/contracts/token/ERC1155/ERC1155.sol\";\n\n\ncontract BeraWrapper is ERC1155 {\n\n    address public owner;\n\n    uint public positionID;\n\n    mapping(uint => Position) public positionData;\n\n    struct Position {\n        address positionOwner; //address of user that shorted\n        address associatedPool; //standard or high risk pool?\n        uint shortAmount;\n        address tokenShorted;\n        uint priceAtWrap; //what price was the asset at wrap time? //\n    }\n\n    constructor() ERC1155(\"\") { //solhint-disable func-visibility\n        owner = msg.sender;\n        positionID = 0;\n    }\n\n    function wrapPosition(address positionOwner,\n                address associatedPool,\n                uint shortAmount,\n                address tokenShorted,\n                uint priceAtWrap)\n                external {\n\n                    _mint(positionOwner, positionID, 1, \"\");\n\n\n                    positionData[positionID] = Position({\n                        positionOwner: positionOwner,\n                        associatedPool: associatedPool,\n                        shortAmount: shortAmount,\n                        tokenShorted: tokenShorted,\n                        priceAtWrap: priceAtWrap //imported from 1inchAPI via web3 later\n                    });\n\n                    //increase global position counter\n                    positionID++;\n\n                }\n\n    function unwrapPosition(address positionOwner, uint _positionID) external {\n        require(positionOwner == positionData[_positionID].positionOwner,\n            \"Wrapper: only the owner can unwrap the position\");\n\n        //we burn the token to release the funds\n        _burn(positionOwner, _positionID, 1);\n    }\n\n    //SHOULD BE USED TO TRANSFER POSITIONS\n    function transferPosition(address to, address from, uint _positionID, uint amount) external {\n        require(msg.sender == positionData[_positionID].positionOwner,\n            \"Wrapper: only the owner can transfer a position\");\n        require(from == positionData[_positionID].positionOwner,\n            \"Wrapper: only the owner can transfer a position\");\n\n        //send position\n        safeTransferFrom(to, from, _positionID, amount, \"\");\n\n        //update new owner\n        //might have some security issues with this, come back and recheck this later\n        positionData[_positionID].positionOwner = to;\n    }\n\n    //if position happens to get sent without the transferPosition() func being called then\n    //users can update it manually with this func\n    function updatePosition(address newPositionOwner, uint _positionID) external {\n        if (ERC1155.balanceOf(newPositionOwner, _positionID) > 0) {\n            //update new owner\n            positionData[_positionID].positionOwner = newPositionOwner;\n        } else {\n            return;\n        }\n    }\n}\n",
  "sourcePath": "/home/kevin/Code/solidity_projects/beraMarket/contracts/BeraWrapper.sol",
  "compiler": {
    "name": "solc",
    "version": "0.8.10+commit.fc410830.Emscripten.clang"
  },
  "schemaVersion": "3.4.3",
  "updatedAt": "2021-12-10T14:12:51.356Z",
  "networkType": "ethereum",
  "devdoc": {
    "kind": "dev",
    "methods": {
      "balanceOf(address,uint256)": {
        "details": "See {IERC1155-balanceOf}. Requirements: - `account` cannot be the zero address."
      },
      "balanceOfBatch(address[],uint256[])": {
        "details": "See {IERC1155-balanceOfBatch}. Requirements: - `accounts` and `ids` must have the same length."
      },
      "isApprovedForAll(address,address)": {
        "details": "See {IERC1155-isApprovedForAll}."
      },
      "safeBatchTransferFrom(address,address,uint256[],uint256[],bytes)": {
        "details": "See {IERC1155-safeBatchTransferFrom}."
      },
      "safeTransferFrom(address,address,uint256,uint256,bytes)": {
        "details": "See {IERC1155-safeTransferFrom}."
      },
      "setApprovalForAll(address,bool)": {
        "details": "See {IERC1155-setApprovalForAll}."
      },
      "supportsInterface(bytes4)": {
        "details": "See {IERC165-supportsInterface}."
      },
      "uri(uint256)": {
        "details": "See {IERC1155MetadataURI-uri}. This implementation returns the same URI for *all* token types. It relies on the token type ID substitution mechanism https://eips.ethereum.org/EIPS/eip-1155#metadata[defined in the EIP]. Clients calling this function must replace the `\\{id\\}` substring with the actual token type ID."
      }
    },
    "version": 1
  },
  "userdoc": {
    "kind": "user",
    "methods": {},
    "version": 1
  }
}