{
  "contractName": "BeraRouter",
  "abi": [
    {
      "inputs": [
        {
          "internalType": "contract ISwapRouter",
          "name": "_swapRouter",
          "type": "address"
        },
        {
          "internalType": "contract BeraPoolStandardRisk",
          "name": "_beraPoolStandardRisk",
          "type": "address"
        },
        {
          "internalType": "contract BeraWrapper",
          "name": "_beraWrapper",
          "type": "address"
        }
      ],
      "stateMutability": "nonpayable",
      "type": "constructor"
    },
    {
      "inputs": [],
      "name": "CLOSING_FEE",
      "outputs": [
        {
          "internalType": "uint256",
          "name": "",
          "type": "uint256"
        }
      ],
      "stateMutability": "view",
      "type": "function"
    },
    {
      "inputs": [],
      "name": "OPEN_FEE",
      "outputs": [
        {
          "internalType": "uint256",
          "name": "",
          "type": "uint256"
        }
      ],
      "stateMutability": "view",
      "type": "function"
    },
    {
      "inputs": [],
      "name": "beraPoolStandardRisk",
      "outputs": [
        {
          "internalType": "contract BeraPoolStandardRisk",
          "name": "",
          "type": "address"
        }
      ],
      "stateMutability": "view",
      "type": "function"
    },
    {
      "inputs": [],
      "name": "beraWrapper",
      "outputs": [
        {
          "internalType": "contract BeraWrapper",
          "name": "",
          "type": "address"
        }
      ],
      "stateMutability": "view",
      "type": "function"
    },
    {
      "inputs": [
        {
          "internalType": "address",
          "name": "",
          "type": "address"
        }
      ],
      "name": "entryPrice",
      "outputs": [
        {
          "internalType": "uint256",
          "name": "",
          "type": "uint256"
        }
      ],
      "stateMutability": "view",
      "type": "function"
    },
    {
      "inputs": [
        {
          "internalType": "address",
          "name": "",
          "type": "address"
        }
      ],
      "name": "inShort",
      "outputs": [
        {
          "internalType": "bool",
          "name": "",
          "type": "bool"
        }
      ],
      "stateMutability": "view",
      "type": "function"
    },
    {
      "inputs": [
        {
          "internalType": "address",
          "name": "",
          "type": "address"
        }
      ],
      "name": "nftPositionToken",
      "outputs": [
        {
          "internalType": "address",
          "name": "",
          "type": "address"
        }
      ],
      "stateMutability": "view",
      "type": "function"
    },
    {
      "inputs": [],
      "name": "owner",
      "outputs": [
        {
          "internalType": "address",
          "name": "",
          "type": "address"
        }
      ],
      "stateMutability": "view",
      "type": "function"
    },
    {
      "inputs": [],
      "name": "poolTokenBalance",
      "outputs": [
        {
          "internalType": "uint256",
          "name": "",
          "type": "uint256"
        }
      ],
      "stateMutability": "view",
      "type": "function"
    },
    {
      "inputs": [],
      "name": "swapRouter",
      "outputs": [
        {
          "internalType": "contract ISwapRouter",
          "name": "",
          "type": "address"
        }
      ],
      "stateMutability": "view",
      "type": "function"
    },
    {
      "inputs": [],
      "name": "token",
      "outputs": [
        {
          "internalType": "contract IERC20",
          "name": "",
          "type": "address"
        }
      ],
      "stateMutability": "view",
      "type": "function"
    },
    {
      "inputs": [
        {
          "internalType": "address",
          "name": "",
          "type": "address"
        }
      ],
      "name": "userCollateralBalance",
      "outputs": [
        {
          "internalType": "uint256",
          "name": "",
          "type": "uint256"
        }
      ],
      "stateMutability": "view",
      "type": "function"
    },
    {
      "inputs": [
        {
          "internalType": "uint256",
          "name": "amount",
          "type": "uint256"
        },
        {
          "internalType": "address",
          "name": "collateral",
          "type": "address"
        }
      ],
      "name": "depositCollateral",
      "outputs": [],
      "stateMutability": "nonpayable",
      "type": "function"
    },
    {
      "inputs": [
        {
          "internalType": "uint256",
          "name": "amount",
          "type": "uint256"
        },
        {
          "internalType": "address",
          "name": "collateral",
          "type": "address"
        }
      ],
      "name": "withdrawCollateral",
      "outputs": [],
      "stateMutability": "nonpayable",
      "type": "function"
    },
    {
      "inputs": [
        {
          "internalType": "uint256",
          "name": "amount",
          "type": "uint256"
        },
        {
          "internalType": "address",
          "name": "tokenToShort",
          "type": "address"
        },
        {
          "internalType": "uint24",
          "name": "poolFee",
          "type": "uint24"
        },
        {
          "internalType": "uint256",
          "name": "amountOutMin",
          "type": "uint256"
        },
        {
          "internalType": "uint256",
          "name": "collateralPercentageOfAccount",
          "type": "uint256"
        },
        {
          "internalType": "uint256",
          "name": "priceAtWrap",
          "type": "uint256"
        }
      ],
      "name": "swapAndShortStandard",
      "outputs": [
        {
          "internalType": "uint256",
          "name": "amountOut",
          "type": "uint256"
        }
      ],
      "stateMutability": "nonpayable",
      "type": "function"
    },
    {
      "inputs": [
        {
          "internalType": "address",
          "name": "user",
          "type": "address"
        },
        {
          "internalType": "address",
          "name": "tokenToClose",
          "type": "address"
        },
        {
          "internalType": "uint256",
          "name": "amount",
          "type": "uint256"
        },
        {
          "internalType": "uint24",
          "name": "poolFee",
          "type": "uint24"
        },
        {
          "internalType": "uint256",
          "name": "amountOutMin",
          "type": "uint256"
        },
        {
          "internalType": "uint256",
          "name": "_positionID",
          "type": "uint256"
        }
      ],
      "name": "swapAndCloseShort",
      "outputs": [
        {
          "internalType": "uint256",
          "name": "amountOut",
          "type": "uint256"
        }
      ],
      "stateMutability": "nonpayable",
      "type": "function"
    }
  ],
  "bytecode": "0x60806040523480156200001157600080fd5b50604051620022353803806200223583398181016040528101906200003791906200024c565b33600960006101000a81548173ffffffffffffffffffffffffffffffffffffffff021916908373ffffffffffffffffffffffffffffffffffffffff16021790555082600560006101000a81548173ffffffffffffffffffffffffffffffffffffffff021916908373ffffffffffffffffffffffffffffffffffffffff16021790555081600660006101000a81548173ffffffffffffffffffffffffffffffffffffffff021916908373ffffffffffffffffffffffffffffffffffffffff16021790555080600860006101000a81548173ffffffffffffffffffffffffffffffffffffffff021916908373ffffffffffffffffffffffffffffffffffffffff160217905550505050620002a8565b600080fd5b600073ffffffffffffffffffffffffffffffffffffffff82169050919050565b6000620001768262000149565b9050919050565b60006200018a8262000169565b9050919050565b6200019c816200017d565b8114620001a857600080fd5b50565b600081519050620001bc8162000191565b92915050565b6000620001cf8262000169565b9050919050565b620001e181620001c2565b8114620001ed57600080fd5b50565b6000815190506200020181620001d6565b92915050565b6000620002148262000169565b9050919050565b620002268162000207565b81146200023257600080fd5b50565b60008151905062000246816200021b565b92915050565b60008060006060848603121562000268576200026762000144565b5b60006200027886828701620001ab565b93505060206200028b86828701620001f0565b92505060406200029e8682870162000235565b9150509250925092565b611f7d80620002b86000396000f3fe608060405234801561001057600080fd5b50600436106101005760003560e01c8063a29aa11411610097578063c31c9c0711610066578063c31c9c07146102b1578063e5f7c60c146102cf578063fa614408146102ff578063fc0c546a1461032f57610100565b8063a29aa11414610227578063b5af306214610245578063bbd4d3e314610275578063be3d21711461029357610100565b80636c528a74116100d35780636c528a741461018b5780638c3135f2146101bb5780638da5cb5b146101d957806395f44296146101f757610100565b80630af504cc146101055780632bcbeece14610121578063481fef8a1461013f5780635b6a777e1461015b575b600080fd5b61011f600480360381019061011a91906113e6565b61034d565b005b610129610561565b6040516101369190611485565b60405180910390f35b610159600480360381019061015491906113e6565b610587565b005b610175600480360381019061017091906114a0565b61070b565b60405161018291906114e8565b60405180910390f35b6101a560048036038101906101a091906114a0565b61072b565b6040516101b29190611512565b60405180910390f35b6101c3610743565b6040516101d09190611512565b60405180910390f35b6101e1610749565b6040516101ee919061153c565b60405180910390f35b610211600480360381019061020c91906114a0565b61076f565b60405161021e919061153c565b60405180910390f35b61022f6107a2565b60405161023c9190611578565b60405180910390f35b61025f600480360381019061025a91906114a0565b6107c8565b60405161026c9190611512565b60405180910390f35b61027d6107e0565b60405161028a9190611512565b60405180910390f35b61029b6107e5565b6040516102a89190611512565b60405180910390f35b6102b96107ea565b6040516102c691906115b4565b60405180910390f35b6102e960048036038101906102e4919061160a565b610810565b6040516102f69190611512565b60405180910390f35b61031960048036038101906103149190611697565b610cc6565b6040516103269190611512565b60405180910390f35b61033761107a565b6040516103449190611745565b60405180910390f35b6000803373ffffffffffffffffffffffffffffffffffffffff1673ffffffffffffffffffffffffffffffffffffffff168152602001908152602001600020548210156103ce576040517f08c379a00000000000000000000000000000000000000000000000000000000081526004016103c5906117bd565b60405180910390fd5b60001515600260003373ffffffffffffffffffffffffffffffffffffffff1673ffffffffffffffffffffffffffffffffffffffff16815260200190815260200160002060009054906101000a900460ff16151514610461576040517f08c379a000000000000000000000000000000000000000000000000000000000815260040161045890611829565b60405180910390fd5b8073ffffffffffffffffffffffffffffffffffffffff1663a9059cbb33846040518363ffffffff1660e01b815260040161049c929190611849565b602060405180830381600087803b1580156104b657600080fd5b505af11580156104ca573d6000803e3d6000fd5b505050506040513d601f19601f820116820180604052508101906104ee919061189e565b50816003600082825461050191906118fa565b92505081905550816000803373ffffffffffffffffffffffffffffffffffffffff1673ffffffffffffffffffffffffffffffffffffffff168152602001908152602001600020600082825461055691906118fa565b925050819055505050565b600660009054906101000a900473ffffffffffffffffffffffffffffffffffffffff1681565b736b175474e89094c44da98b954eedeac495271d0f73ffffffffffffffffffffffffffffffffffffffff168173ffffffffffffffffffffffffffffffffffffffff1614610609576040517f08c379a00000000000000000000000000000000000000000000000000000000081526004016106009061197a565b60405180910390fd5b8073ffffffffffffffffffffffffffffffffffffffff166323b872dd3330856040518463ffffffff1660e01b81526004016106469392919061199a565b602060405180830381600087803b15801561066057600080fd5b505af1158015610674573d6000803e3d6000fd5b505050506040513d601f19601f82011682018060405250810190610698919061189e565b5081600360008282546106ab91906119d1565b92505081905550816000803373ffffffffffffffffffffffffffffffffffffffff1673ffffffffffffffffffffffffffffffffffffffff168152602001908152602001600020600082825461070091906119d1565b925050819055505050565b60026020528060005260406000206000915054906101000a900460ff1681565b60046020528060005260406000206000915090505481565b60035481565b600960009054906101000a900473ffffffffffffffffffffffffffffffffffffffff1681565b60016020528060005260406000206000915054906101000a900473ffffffffffffffffffffffffffffffffffffffff1681565b600860009054906101000a900473ffffffffffffffffffffffffffffffffffffffff1681565b60006020528060005260406000206000915090505481565b600581565b600581565b600560009054906101000a900473ffffffffffffffffffffffffffffffffffffffff1681565b60006064831115610856576040517f08c379a000000000000000000000000000000000000000000000000000000000815260040161084d90611a99565b60405180910390fd5b6000803373ffffffffffffffffffffffffffffffffffffffff1673ffffffffffffffffffffffffffffffffffffffff168152602001908152602001600020548711156108d7576040517f08c379a00000000000000000000000000000000000000000000000000000000081526004016108ce90611b05565b60405180910390fd5b6000606484896108e79190611b25565b6108f19190611bae565b90506000818961090191906118fa565b9050610923736b175474e89094c44da98b954eedeac495271d0f33308c6110a0565b610964736b175474e89094c44da98b954eedeac495271d0f600560009054906101000a900473ffffffffffffffffffffffffffffffffffffffff168b6111f8565b6000604051806101000160405280736b175474e89094c44da98b954eedeac495271d0f73ffffffffffffffffffffffffffffffffffffffff1681526020018a73ffffffffffffffffffffffffffffffffffffffff1681526020018962ffffff1681526020013373ffffffffffffffffffffffffffffffffffffffff168152602001428152602001848152602001888152602001600073ffffffffffffffffffffffffffffffffffffffff168152509050600560009054906101000a900473ffffffffffffffffffffffffffffffffffffffff1673ffffffffffffffffffffffffffffffffffffffff1663414bf389826040518263ffffffff1660e01b8152600401610a6f9190611cbd565b602060405180830381600087803b158015610a8957600080fd5b505af1158015610a9d573d6000803e3d6000fd5b505050506040513d601f19601f82011682018060405250810190610ac19190611cee565b9350600660009054906101000a900473ffffffffffffffffffffffffffffffffffffffff1673ffffffffffffffffffffffffffffffffffffffff16634c992506338b888c898d6040518763ffffffff1660e01b8152600401610b2896959493929190611d2a565b602060405180830381600087803b158015610b4257600080fd5b505af1158015610b56573d6000803e3d6000fd5b505050506040513d601f19601f82011682018060405250810190610b7a9190611cee565b5084600460003373ffffffffffffffffffffffffffffffffffffffff1673ffffffffffffffffffffffffffffffffffffffff168152602001908152602001600020819055506001600260003373ffffffffffffffffffffffffffffffffffffffff1673ffffffffffffffffffffffffffffffffffffffff16815260200190815260200160002060006101000a81548160ff021916908315150217905550736b175474e89094c44da98b954eedeac495271d0f73ffffffffffffffffffffffffffffffffffffffff1663a9059cbb33846040518363ffffffff1660e01b8152600401610c66929190611849565b602060405180830381600087803b158015610c8057600080fd5b505af1158015610c94573d6000803e3d6000fd5b505050506040513d601f19601f82011682018060405250810190610cb8919061189e565b505050509695505050505050565b6000600860009054906101000a900473ffffffffffffffffffffffffffffffffffffffff1673ffffffffffffffffffffffffffffffffffffffff1663b9e17b7688846040518363ffffffff1660e01b8152600401610d25929190611849565b600060405180830381600087803b158015610d3f57600080fd5b505af1158015610d53573d6000803e3d6000fd5b50505050736b175474e89094c44da98b954eedeac495271d0f73ffffffffffffffffffffffffffffffffffffffff1663a9059cbb33876040518363ffffffff1660e01b8152600401610da6929190611849565b602060405180830381600087803b158015610dc057600080fd5b505af1158015610dd4573d6000803e3d6000fd5b505050506040513d601f19601f82011682018060405250810190610df8919061189e565b50610e19736b175474e89094c44da98b954eedeac495271d0f3330886110a0565b610e5a736b175474e89094c44da98b954eedeac495271d0f600560009054906101000a900473ffffffffffffffffffffffffffffffffffffffff16876111f8565b6000604051806101000160405280736b175474e89094c44da98b954eedeac495271d0f73ffffffffffffffffffffffffffffffffffffffff1681526020018873ffffffffffffffffffffffffffffffffffffffff1681526020018662ffffff1681526020013373ffffffffffffffffffffffffffffffffffffffff168152602001428152602001878152602001858152602001600073ffffffffffffffffffffffffffffffffffffffff168152509050600560009054906101000a900473ffffffffffffffffffffffffffffffffffffffff1673ffffffffffffffffffffffffffffffffffffffff1663414bf389826040518263ffffffff1660e01b8152600401610f659190611cbd565b602060405180830381600087803b158015610f7f57600080fd5b505af1158015610f93573d6000803e3d6000fd5b505050506040513d601f19601f82011682018060405250810190610fb79190611cee565b9150600660009054906101000a900473ffffffffffffffffffffffffffffffffffffffff1673ffffffffffffffffffffffffffffffffffffffff1663d6fe402289898589896040518663ffffffff1660e01b815260040161101c959493929190611d8b565b602060405180830381600087803b15801561103657600080fd5b505af115801561104a573d6000803e3d6000fd5b505050506040513d601f19601f8201168201806040525081019061106e9190611cee565b50509695505050505050565b600760009054906101000a900473ffffffffffffffffffffffffffffffffffffffff1681565b6000808573ffffffffffffffffffffffffffffffffffffffff166323b872dd60e01b8686866040516024016110d79392919061199a565b604051602081830303815290604052907bffffffffffffffffffffffffffffffffffffffffffffffffffffffff19166020820180517bffffffffffffffffffffffffffffffffffffffffffffffffffffffff83818316178352505050506040516111419190611e58565b6000604051808303816000865af19150503d806000811461117e576040519150601f19603f3d011682016040523d82523d6000602084013e611183565b606091505b50915091508180156111b157506000815114806111b05750808060200190518101906111af919061189e565b5b5b6111f0576040517f08c379a00000000000000000000000000000000000000000000000000000000081526004016111e790611ebb565b60405180910390fd5b505050505050565b6000808473ffffffffffffffffffffffffffffffffffffffff1663095ea7b360e01b858560405160240161122d929190611849565b604051602081830303815290604052907bffffffffffffffffffffffffffffffffffffffffffffffffffffffff19166020820180517bffffffffffffffffffffffffffffffffffffffffffffffffffffffff83818316178352505050506040516112979190611e58565b6000604051808303816000865af19150503d80600081146112d4576040519150601f19603f3d011682016040523d82523d6000602084013e6112d9565b606091505b50915091508180156113075750600081511480611306575080806020019051810190611305919061189e565b5b5b611346576040517f08c379a000000000000000000000000000000000000000000000000000000000815260040161133d90611f27565b60405180910390fd5b5050505050565b600080fd5b6000819050919050565b61136581611352565b811461137057600080fd5b50565b6000813590506113828161135c565b92915050565b600073ffffffffffffffffffffffffffffffffffffffff82169050919050565b60006113b382611388565b9050919050565b6113c3816113a8565b81146113ce57600080fd5b50565b6000813590506113e0816113ba565b92915050565b600080604083850312156113fd576113fc61134d565b5b600061140b85828601611373565b925050602061141c858286016113d1565b9150509250929050565b6000819050919050565b600061144b61144661144184611388565b611426565b611388565b9050919050565b600061145d82611430565b9050919050565b600061146f82611452565b9050919050565b61147f81611464565b82525050565b600060208201905061149a6000830184611476565b92915050565b6000602082840312156114b6576114b561134d565b5b60006114c4848285016113d1565b91505092915050565b60008115159050919050565b6114e2816114cd565b82525050565b60006020820190506114fd60008301846114d9565b92915050565b61150c81611352565b82525050565b60006020820190506115276000830184611503565b92915050565b611536816113a8565b82525050565b6000602082019050611551600083018461152d565b92915050565b600061156282611452565b9050919050565b61157281611557565b82525050565b600060208201905061158d6000830184611569565b92915050565b600061159e82611452565b9050919050565b6115ae81611593565b82525050565b60006020820190506115c960008301846115a5565b92915050565b600062ffffff82169050919050565b6115e7816115cf565b81146115f257600080fd5b50565b600081359050611604816115de565b92915050565b60008060008060008060c087890312156116275761162661134d565b5b600061163589828a01611373565b965050602061164689828a016113d1565b955050604061165789828a016115f5565b945050606061166889828a01611373565b935050608061167989828a01611373565b92505060a061168a89828a01611373565b9150509295509295509295565b60008060008060008060c087890312156116b4576116b361134d565b5b60006116c289828a016113d1565b96505060206116d389828a016113d1565b95505060406116e489828a01611373565b94505060606116f589828a016115f5565b935050608061170689828a01611373565b92505060a061171789828a01611373565b9150509295509295509295565b600061172f82611452565b9050919050565b61173f81611724565b82525050565b600060208201905061175a6000830184611736565b92915050565b600082825260208201905092915050565b7f757365722062616c616e636520746f6f206c6f77210000000000000000000000600082015250565b60006117a7601583611760565b91506117b282611771565b602082019050919050565b600060208201905081810360008301526117d68161179a565b9050919050565b7f6e6f7420696e206120706f736974696f6e000000000000000000000000000000600082015250565b6000611813601183611760565b915061181e826117dd565b602082019050919050565b6000602082019050818103600083015261184281611806565b9050919050565b600060408201905061185e600083018561152d565b61186b6020830184611503565b9392505050565b61187b816114cd565b811461188657600080fd5b50565b60008151905061189881611872565b92915050565b6000602082840312156118b4576118b361134d565b5b60006118c284828501611889565b91505092915050565b7f4e487b7100000000000000000000000000000000000000000000000000000000600052601160045260246000fd5b600061190582611352565b915061191083611352565b925082821015611923576119226118cb565b5b828203905092915050565b7f4e6f742044414900000000000000000000000000000000000000000000000000600082015250565b6000611964600783611760565b915061196f8261192e565b602082019050919050565b6000602082019050818103600083015261199381611957565b9050919050565b60006060820190506119af600083018661152d565b6119bc602083018561152d565b6119c96040830184611503565b949350505050565b60006119dc82611352565b91506119e783611352565b9250827fffffffffffffffffffffffffffffffffffffffffffffffffffffffffffffffff03821115611a1c57611a1b6118cb565b5b828201905092915050565b7f63616e6e6f7420757365206d6f7265207468616e2031303025206f662061636360008201527f6f756e7420746f2073686f727400000000000000000000000000000000000000602082015250565b6000611a83602d83611760565b9150611a8e82611a27565b604082019050919050565b60006020820190508181036000830152611ab281611a76565b9050919050565b7f6e6f7420656e6f75676820636f6c6c61746572616c0000000000000000000000600082015250565b6000611aef601583611760565b9150611afa82611ab9565b602082019050919050565b60006020820190508181036000830152611b1e81611ae2565b9050919050565b6000611b3082611352565b9150611b3b83611352565b9250817fffffffffffffffffffffffffffffffffffffffffffffffffffffffffffffffff0483118215151615611b7457611b736118cb565b5b828202905092915050565b7f4e487b7100000000000000000000000000000000000000000000000000000000600052601260045260246000fd5b6000611bb982611352565b9150611bc483611352565b925082611bd457611bd3611b7f565b5b828204905092915050565b611be8816113a8565b82525050565b611bf7816115cf565b82525050565b611c0681611352565b82525050565b611c1581611388565b82525050565b61010082016000820151611c326000850182611bdf565b506020820151611c456020850182611bdf565b506040820151611c586040850182611bee565b506060820151611c6b6060850182611bdf565b506080820151611c7e6080850182611bfd565b5060a0820151611c9160a0850182611bfd565b5060c0820151611ca460c0850182611bfd565b5060e0820151611cb760e0850182611c0c565b50505050565b600061010082019050611cd36000830184611c1b565b92915050565b600081519050611ce88161135c565b92915050565b600060208284031215611d0457611d0361134d565b5b6000611d1284828501611cd9565b91505092915050565b611d24816115cf565b82525050565b600060c082019050611d3f600083018961152d565b611d4c602083018861152d565b611d596040830187611503565b611d666060830186611d1b565b611d736080830185611503565b611d8060a0830184611503565b979650505050505050565b600060a082019050611da0600083018861152d565b611dad602083018761152d565b611dba6040830186611503565b611dc76060830185611d1b565b611dd46080830184611503565b9695505050505050565b600081519050919050565b600081905092915050565b60005b83811015611e12578082015181840152602081019050611df7565b83811115611e21576000848401525b50505050565b6000611e3282611dde565b611e3c8185611de9565b9350611e4c818560208601611df4565b80840191505092915050565b6000611e648284611e27565b915081905092915050565b7f5354460000000000000000000000000000000000000000000000000000000000600082015250565b6000611ea5600383611760565b9150611eb082611e6f565b602082019050919050565b60006020820190508181036000830152611ed481611e98565b9050919050565b7f5341000000000000000000000000000000000000000000000000000000000000600082015250565b6000611f11600283611760565b9150611f1c82611edb565b602082019050919050565b60006020820190508181036000830152611f4081611f04565b905091905056fea2646970667358221220becf996fcf63832a6531981ffbf54aaa384c4e9747a6e661bd43078ea4cf268e64736f6c63430008090033",
  "immutableReferences": {},
  "source": "// SPDX-License-Identifier: MIT\npragma solidity ^0.8.0; //solhint-disable compiler-fixed\npragma abicoder v2;\n\n//who would have guessed these github imports don't actually compile\nimport \"@openzeppelin/contracts/token/ERC20/IERC20.sol\";\nimport \"@uniswap/v3-periphery/contracts/interfaces/ISwapRouter.sol\";\nimport \"@uniswap/v3-periphery/contracts/libraries/TransferHelper.sol\";\nimport \"./BeraPoolStandardRisk.sol\";\nimport \"./BeraWrapper.sol\";\n\n\ncontract BeraRouter {\n\n\n    mapping(address => uint) public userCollateralBalance;\n    mapping(address => address) public nftPositionToken;\n    mapping(address => bool) public inShort;\n    uint public poolTokenBalance;\n\n    mapping(address => uint) public entryPrice;\n\n    address private constant DAI_ADDRESS = 0x6B175474E89094C44Da98b954EedeAC495271d0F;\n\n    //fees idk about yet we gonna see\n    uint public constant OPEN_FEE = 5;\n    uint public constant CLOSING_FEE = 5;\n\n    //uniswapV3 address router\n    //might have to change if implement 1inch api\n    ISwapRouter public  swapRouter;\n    BeraPoolStandardRisk public beraPoolStandardRisk;\n    IERC20 public token;\n    BeraWrapper public beraWrapper;\n\n    ////\n    address public owner;\n\n    constructor(ISwapRouter _swapRouter,\n        BeraPoolStandardRisk _beraPoolStandardRisk,\n        BeraWrapper _beraWrapper) { //solhint-disable func-visibility\n        owner = msg.sender;\n        swapRouter = _swapRouter;\n        beraPoolStandardRisk = _beraPoolStandardRisk;\n        beraWrapper = _beraWrapper;\n    }\n\n//\n// deposit collateral into user account\n    function depositCollateral(uint amount, address collateral) external {\n        require(IERC20(collateral) == IERC20(DAI_ADDRESS), \"Not DAI\");\n\n        IERC20(collateral).transferFrom(msg.sender, address(this), amount);\n\n        //testing purposes only for now\n        poolTokenBalance += amount;\n        userCollateralBalance[msg.sender] += amount;\n\n    }\n\n    function withdrawCollateral(uint amount, address collateral) external {\n        require(amount >= userCollateralBalance[msg.sender], \"user balance too low!\");\n        require(inShort[msg.sender] == false, \"not in a position\");\n\n        IERC20(collateral).transfer(msg.sender, amount);\n\n        //reset balance of user and pool on withdraw\n        poolTokenBalance -= amount;\n        userCollateralBalance[msg.sender] -= amount;\n    }\n\n    function swapAndShortStandard(\n            uint amount,\n            address tokenToShort,\n            uint24 poolFee,\n            uint amountOutMin,\n            uint collateralPercentageOfAccount,\n            uint priceAtWrap)\n            external returns(uint amountOut) { //solhint-disable function-max-lines\n                require(collateralPercentageOfAccount <= 100, \"cannot use more than 100% of account to short\");\n                require(amount <= userCollateralBalance[msg.sender], \"not enough collateral\");\n\n                uint amountOfCollateral = amount * collateralPercentageOfAccount / 100;\n                uint leftover = amount - amountOfCollateral;\n\n                TransferHelper.safeTransferFrom(DAI_ADDRESS, msg.sender, address(this), amount);\n                TransferHelper.safeApprove(DAI_ADDRESS, address(swapRouter), amount);\n\n                ISwapRouter.ExactInputSingleParams memory params =\n                ISwapRouter.ExactInputSingleParams({\n                    tokenIn: DAI_ADDRESS,\n                    tokenOut: tokenToShort,\n                    fee: poolFee,\n                    recipient: msg.sender, //refers to pool that will hold tokens on behalf of the user\n                    deadline: block.timestamp, //solhint-disable not-rely-on-time\n                    amountIn: amountOfCollateral,\n                    amountOutMinimum: amountOutMin,\n                    sqrtPriceLimitX96: 0\n                });\n\n                // execute the frist swap & sends to beraPool based on params\n                amountOut = swapRouter.exactInputSingle(params);\n\n                //execute the second swap and transfer funds to pool for holding\n                //have to update priceAtWrap, users can set this amount manually and drain funds lmfao\n                beraPoolStandardRisk.shortForUser(\n                    msg.sender,\n                    tokenToShort,\n                    priceAtWrap,\n                    poolFee,\n                    amountOut,\n                    amountOutMin\n                );\n\n                //update entry price mapping\n                entryPrice[msg.sender] = priceAtWrap;\n\n                //update whether address is in a position or not\n                inShort[msg.sender] = true;\n\n                //send remaining funds back to user\n                IERC20(DAI_ADDRESS).transfer(msg.sender, leftover);\n            }\n\n    function swapAndCloseShort(\n        address user,\n        address tokenToClose,\n        uint amount,\n        uint24 poolFee,\n        uint amountOutMin,\n        uint _positionID) external returns(uint amountOut) {\n        //unwrap and unlock position\n        beraWrapper.unwrapPosition(user, _positionID);\n\n        //send dai back to user\n        IERC20(DAI_ADDRESS).transfer(msg.sender, amount);\n\n        //we swap dai back to weth to close the trade\n        TransferHelper.safeTransferFrom(DAI_ADDRESS, msg.sender, address(this), amount);\n        TransferHelper.safeApprove(DAI_ADDRESS, address(swapRouter), amount);\n\n        ISwapRouter.ExactInputSingleParams memory params =\n        ISwapRouter.ExactInputSingleParams({\n            tokenIn: DAI_ADDRESS,\n            tokenOut: tokenToClose,\n            fee: poolFee,\n            recipient: msg.sender, //send tokens to user to execute next leg of trade\n            deadline: block.timestamp, //solhint-disable not-rely-on-time\n            amountIn: amount,\n            amountOutMinimum: amountOutMin,\n            sqrtPriceLimitX96: 0\n        });\n\n        //execute swap\n        amountOut = swapRouter.exactInputSingle(params);\n\n        //sell tokens back for DAI\n        beraPoolStandardRisk.closeShortForUser(\n            user,\n            tokenToClose,\n            amountOut, //how much tokenOut is being sent to swap back into dai (in this case weth)\n            poolFee,\n            amountOutMin\n        );\n\n        //reset user short status\n        //inShort[msg.sender] = false;\n    }\n\n    function calculatePNL(address user, uint priceAtClose, address tokenToClose) internal returns(uint profits) {\n        if (entryPrice[user] - priceAtClose > 0) {\n            return profits = entryPrice[user] - priceAtClose; //case where user makes money\n            IERC20(tokenToClose).transfer(user, profits);\n        } else {\n            int loss = int(entryPrice[user]) - int(priceAtClose); //case where user loses money\n            //make negative num postive\n            int userLoss = (loss * (-1));\n            if (uint(userLoss) <= userCollateralBalance[user]) {\n                return profits = uint(userLoss) - userCollateralBalance[user];\n                IERC20(tokenToClose).transfer(user, profits);\n                //distribute remaining amongst pool holders\n            } else {\n                return profits = 0;\n                //distribute profts amongst pool holders\n            }\n        }\n\n    }\n\n}\n",
  "sourcePath": "/home/kevin/Code/solidity_projects/beraMarket/contracts/BeraRouter.sol",
  "compiler": {
    "name": "solc",
    "version": "0.8.9+commit.e5eed63a.Emscripten.clang"
  },
  "schemaVersion": "3.4.3",
  "updatedAt": "2021-10-18T15:58:41.608Z",
  "devdoc": {
    "kind": "dev",
    "methods": {},
    "version": 1
  },
  "userdoc": {
    "kind": "user",
    "methods": {},
    "version": 1
  }
}