{
  "contractName": "BeraPoolStandardRisk",
  "abi": [
    {
      "inputs": [
        {
          "internalType": "contract ISwapRouter",
          "name": "_swapRouter",
          "type": "address"
        },
        {
          "internalType": "contract BeraWrapper",
          "name": "_beraWrapper",
          "type": "address"
        }
      ],
      "stateMutability": "nonpayable",
      "type": "constructor"
    },
    {
      "stateMutability": "payable",
      "type": "fallback",
      "payable": true
    },
    {
      "inputs": [],
      "name": "beraWrapper",
      "outputs": [
        {
          "internalType": "contract BeraWrapper",
          "name": "",
          "type": "address"
        }
      ],
      "stateMutability": "view",
      "type": "function",
      "constant": true
    },
    {
      "inputs": [
        {
          "internalType": "address",
          "name": "",
          "type": "address"
        },
        {
          "internalType": "uint256",
          "name": "",
          "type": "uint256"
        }
      ],
      "name": "entryPrices",
      "outputs": [
        {
          "internalType": "uint256",
          "name": "",
          "type": "uint256"
        }
      ],
      "stateMutability": "view",
      "type": "function",
      "constant": true
    },
    {
      "inputs": [
        {
          "internalType": "address",
          "name": "",
          "type": "address"
        },
        {
          "internalType": "address",
          "name": "",
          "type": "address"
        },
        {
          "internalType": "uint256[]",
          "name": "",
          "type": "uint256[]"
        },
        {
          "internalType": "uint256[]",
          "name": "",
          "type": "uint256[]"
        },
        {
          "internalType": "bytes",
          "name": "",
          "type": "bytes"
        }
      ],
      "name": "onERC1155BatchReceived",
      "outputs": [
        {
          "internalType": "bytes4",
          "name": "",
          "type": "bytes4"
        }
      ],
      "stateMutability": "nonpayable",
      "type": "function"
    },
    {
      "inputs": [
        {
          "internalType": "address",
          "name": "",
          "type": "address"
        },
        {
          "internalType": "address",
          "name": "",
          "type": "address"
        },
        {
          "internalType": "uint256",
          "name": "",
          "type": "uint256"
        },
        {
          "internalType": "uint256",
          "name": "",
          "type": "uint256"
        },
        {
          "internalType": "bytes",
          "name": "",
          "type": "bytes"
        }
      ],
      "name": "onERC1155Received",
      "outputs": [
        {
          "internalType": "bytes4",
          "name": "",
          "type": "bytes4"
        }
      ],
      "stateMutability": "nonpayable",
      "type": "function"
    },
    {
      "inputs": [],
      "name": "owner",
      "outputs": [
        {
          "internalType": "address",
          "name": "",
          "type": "address"
        }
      ],
      "stateMutability": "view",
      "type": "function",
      "constant": true
    },
    {
      "inputs": [
        {
          "internalType": "uint256",
          "name": "",
          "type": "uint256"
        }
      ],
      "name": "standardPoolList",
      "outputs": [
        {
          "internalType": "address",
          "name": "",
          "type": "address"
        }
      ],
      "stateMutability": "view",
      "type": "function",
      "constant": true
    },
    {
      "inputs": [
        {
          "internalType": "bytes4",
          "name": "interfaceId",
          "type": "bytes4"
        }
      ],
      "name": "supportsInterface",
      "outputs": [
        {
          "internalType": "bool",
          "name": "",
          "type": "bool"
        }
      ],
      "stateMutability": "view",
      "type": "function",
      "constant": true
    },
    {
      "inputs": [],
      "name": "swapRouter",
      "outputs": [
        {
          "internalType": "contract ISwapRouter",
          "name": "",
          "type": "address"
        }
      ],
      "stateMutability": "view",
      "type": "function",
      "constant": true
    },
    {
      "inputs": [
        {
          "internalType": "address",
          "name": "",
          "type": "address"
        }
      ],
      "name": "userDepositBalance",
      "outputs": [
        {
          "internalType": "uint256",
          "name": "",
          "type": "uint256"
        }
      ],
      "stateMutability": "view",
      "type": "function",
      "constant": true
    },
    {
      "inputs": [
        {
          "internalType": "address",
          "name": "",
          "type": "address"
        },
        {
          "internalType": "uint256",
          "name": "",
          "type": "uint256"
        }
      ],
      "name": "userShortBalance",
      "outputs": [
        {
          "internalType": "uint256",
          "name": "",
          "type": "uint256"
        }
      ],
      "stateMutability": "view",
      "type": "function",
      "constant": true
    },
    {
      "stateMutability": "payable",
      "type": "receive",
      "payable": true
    },
    {
      "inputs": [
        {
          "internalType": "uint256",
          "name": "amount",
          "type": "uint256"
        },
        {
          "internalType": "address",
          "name": "collateral",
          "type": "address"
        }
      ],
      "name": "depositCollateral",
      "outputs": [],
      "stateMutability": "nonpayable",
      "type": "function"
    },
    {
      "inputs": [
        {
          "internalType": "uint256",
          "name": "amount",
          "type": "uint256"
        },
        {
          "internalType": "uint256",
          "name": "userPositionNumber",
          "type": "uint256"
        }
      ],
      "name": "withdrawFromPool",
      "outputs": [],
      "stateMutability": "nonpayable",
      "type": "function"
    },
    {
      "inputs": [
        {
          "internalType": "uint256",
          "name": "amount",
          "type": "uint256"
        },
        {
          "internalType": "address",
          "name": "tokenToShort",
          "type": "address"
        },
        {
          "internalType": "uint24",
          "name": "poolFee",
          "type": "uint24"
        },
        {
          "internalType": "uint256",
          "name": "amountOutMin",
          "type": "uint256"
        }
      ],
      "name": "swapAndShortStandard",
      "outputs": [
        {
          "internalType": "uint256",
          "name": "amountOut",
          "type": "uint256"
        }
      ],
      "stateMutability": "nonpayable",
      "type": "function"
    },
    {
      "inputs": [
        {
          "internalType": "address",
          "name": "user",
          "type": "address"
        },
        {
          "internalType": "address",
          "name": "tokenToClose",
          "type": "address"
        },
        {
          "internalType": "uint256",
          "name": "amount",
          "type": "uint256"
        },
        {
          "internalType": "uint256",
          "name": "priceAtClose",
          "type": "uint256"
        },
        {
          "internalType": "uint24",
          "name": "poolFee",
          "type": "uint24"
        },
        {
          "internalType": "uint256",
          "name": "amountOutMin",
          "type": "uint256"
        }
      ],
      "name": "closeShortForUser",
      "outputs": [
        {
          "internalType": "uint256",
          "name": "amountOut",
          "type": "uint256"
        }
      ],
      "stateMutability": "nonpayable",
      "type": "function"
    }
  ],
  "bytecode": "0x60a06040523480156200001157600080fd5b5060405162002829380380620028298339818101604052810190620000379190620001b7565b336000806101000a81548173ffffffffffffffffffffffffffffffffffffffff021916908373ffffffffffffffffffffffffffffffffffffffff1602179055508173ffffffffffffffffffffffffffffffffffffffff1660808173ffffffffffffffffffffffffffffffffffffffff168152505080600860006101000a81548173ffffffffffffffffffffffffffffffffffffffff021916908373ffffffffffffffffffffffffffffffffffffffff1602179055505050620001fe565b600080fd5b600073ffffffffffffffffffffffffffffffffffffffff82169050919050565b60006200012682620000f9565b9050919050565b60006200013a8262000119565b9050919050565b6200014c816200012d565b81146200015857600080fd5b50565b6000815190506200016c8162000141565b92915050565b60006200017f8262000119565b9050919050565b620001918162000172565b81146200019d57600080fd5b50565b600081519050620001b18162000186565b92915050565b60008060408385031215620001d157620001d0620000f4565b5b6000620001e1858286016200015b565b9250506020620001f485828601620001a0565b9150509250929050565b6080516125e562000244600039600081816108da015281816109b101528181610bc101528181610bf701528181610cce0152818161135d015261143401526125e56000f3fe6080604052600436106100e15760003560e01c8063a29aa1141161007f578063c31c9c0711610059578063c31c9c0714610314578063db8a027d1461033f578063ef1b31661461037c578063f23a6e61146103a5576100e8565b8063a29aa1141461026f578063aac28b541461029a578063bc197c81146102d7576100e8565b8063481fef8a116100bb578063481fef8a146101a15780637c802ff2146101ca5780638a7d6ac6146102075780638da5cb5b14610244576100e8565b806301ffc9a7146100ea578063099d2958146101275780630bf7f34514610164576100e8565b366100e857005b005b3480156100f657600080fd5b50610111600480360381019061010c9190611670565b6103e2565b60405161011e91906116b8565b60405180910390f35b34801561013357600080fd5b5061014e60048036038101906101499190611767565b61045c565b60405161015b91906117b6565b60405180910390f35b34801561017057600080fd5b5061018b600480360381019061018691906117d1565b610481565b604051610198919061180d565b60405180910390f35b3480156101ad57600080fd5b506101c860048036038101906101c39190611828565b6104c0565b005b3480156101d657600080fd5b506101f160048036038101906101ec9190611868565b610721565b6040516101fe91906117b6565b60405180910390f35b34801561021357600080fd5b5061022e60048036038101906102299190611767565b610739565b60405161023b91906117b6565b60405180910390f35b34801561025057600080fd5b5061025961075e565b604051610266919061180d565b60405180910390f35b34801561027b57600080fd5b50610284610782565b60405161029191906118f4565b60405180910390f35b3480156102a657600080fd5b506102c160048036038101906102bc919061194a565b6107a8565b6040516102ce91906117b6565b60405180910390f35b3480156102e357600080fd5b506102fe60048036038101906102f99190611bbf565b610baa565b60405161030b9190611c9d565b60405180910390f35b34801561032057600080fd5b50610329610bbf565b6040516103369190611cd9565b60405180910390f35b34801561034b57600080fd5b5061036660048036038101906103619190611cf4565b610be3565b60405161037391906117b6565b60405180910390f35b34801561038857600080fd5b506103a3600480360381019061039e9190611d81565b610d75565b005b3480156103b157600080fd5b506103cc60048036038101906103c79190611dc1565b611029565b6040516103d99190611c9d565b60405180910390f35b60007f4e2312e0000000000000000000000000000000000000000000000000000000007bffffffffffffffffffffffffffffffffffffffffffffffffffffffff1916827bffffffffffffffffffffffffffffffffffffffffffffffffffffffff1916148061045557506104548261103e565b5b9050919050565b6002602052816000526040600020602052806000526040600020600091509150505481565b6007818154811061049157600080fd5b906000526020600020016000915054906101000a900473ffffffffffffffffffffffffffffffffffffffff1681565b736b175474e89094c44da98b954eedeac495271d0f73ffffffffffffffffffffffffffffffffffffffff168173ffffffffffffffffffffffffffffffffffffffff1614610542576040517f08c379a000000000000000000000000000000000000000000000000000000000815260040161053990611eb5565b60405180910390fd5b6000600160003373ffffffffffffffffffffffffffffffffffffffff1673ffffffffffffffffffffffffffffffffffffffff168152602001908152602001600020541115610646576007339080600181540180825580915050600190039060005260206000200160009091909190916101000a81548173ffffffffffffffffffffffffffffffffffffffff021916908373ffffffffffffffffffffffffffffffffffffffff1602179055506001600460003373ffffffffffffffffffffffffffffffffffffffff1673ffffffffffffffffffffffffffffffffffffffff16815260200190815260200160002060006101000a81548160ff0219169083151502179055505b81600160003373ffffffffffffffffffffffffffffffffffffffff1673ffffffffffffffffffffffffffffffffffffffff16815260200190815260200160002060008282546106959190611f04565b925050819055508073ffffffffffffffffffffffffffffffffffffffff166323b872dd3330856040518463ffffffff1660e01b81526004016106d993929190611f5a565b6020604051808303816000875af11580156106f8573d6000803e3d6000fd5b505050506040513d601f19601f8201168201806040525081019061071c9190611fbd565b505050565b60016020528060005260406000206000915090505481565b6005602052816000526040600020602052806000526040600020600091509150505481565b60008054906101000a900473ffffffffffffffffffffffffffffffffffffffff1681565b600860009054906101000a900473ffffffffffffffffffffffffffffffffffffffff1681565b6000600160003373ffffffffffffffffffffffffffffffffffffffff1673ffffffffffffffffffffffffffffffffffffffff1681526020019081526020016000205485111561082c576040517f08c379a000000000000000000000000000000000000000000000000000000000815260040161082390612036565b60405180910390fd5b6001600360003373ffffffffffffffffffffffffffffffffffffffff1673ffffffffffffffffffffffffffffffffffffffff168152602001908152602001600020600082825461087c9190611f04565b9250508190555060006064605f876108949190612056565b61089e91906120df565b90506108c0736b175474e89094c44da98b954eedeac495271d0f3330896110a8565b6108ff736b175474e89094c44da98b954eedeac495271d0f7f000000000000000000000000000000000000000000000000000000000000000088611200565b6000604051806101000160405280736b175474e89094c44da98b954eedeac495271d0f73ffffffffffffffffffffffffffffffffffffffff1681526020018773ffffffffffffffffffffffffffffffffffffffff1681526020018662ffffff1681526020013073ffffffffffffffffffffffffffffffffffffffff168152602001428152602001838152602001858152602001600073ffffffffffffffffffffffffffffffffffffffff1681525090507f000000000000000000000000000000000000000000000000000000000000000073ffffffffffffffffffffffffffffffffffffffff1663414bf389826040518263ffffffff1660e01b8152600401610a0891906121ee565b6020604051808303816000875af1158015610a27573d6000803e3d6000fd5b505050506040513d601f19601f82011682018060405250810190610a4b919061221f565b92506000610bb89050610a6233888389888a611355565b5080600560003373ffffffffffffffffffffffffffffffffffffffff1673ffffffffffffffffffffffffffffffffffffffff1681526020019081526020016000206000600360003373ffffffffffffffffffffffffffffffffffffffff1673ffffffffffffffffffffffffffffffffffffffff168152602001908152602001600020548152602001908152602001600020819055506001600660003373ffffffffffffffffffffffffffffffffffffffff1673ffffffffffffffffffffffffffffffffffffffff1681526020019081526020016000206000600360003373ffffffffffffffffffffffffffffffffffffffff1673ffffffffffffffffffffffffffffffffffffffff16815260200190815260200160002054815260200190815260200160002060006101000a81548160ff021916908315150217905550505050949350505050565b600063bc197c8160e01b905095945050505050565b7f000000000000000000000000000000000000000000000000000000000000000081565b6000610bf1868830886110a8565b610c1c867f000000000000000000000000000000000000000000000000000000000000000087611200565b60006040518061010001604052808873ffffffffffffffffffffffffffffffffffffffff168152602001736b175474e89094c44da98b954eedeac495271d0f73ffffffffffffffffffffffffffffffffffffffff1681526020018562ffffff1681526020013373ffffffffffffffffffffffffffffffffffffffff168152602001428152602001878152602001848152602001600073ffffffffffffffffffffffffffffffffffffffff1681525090507f000000000000000000000000000000000000000000000000000000000000000073ffffffffffffffffffffffffffffffffffffffff1663414bf389826040518263ffffffff1660e01b8152600401610d2591906121ee565b6020604051808303816000875af1158015610d44573d6000803e3d6000fd5b505050506040513d601f19601f82011682018060405250810190610d68919061221f565b9150509695505050505050565b600160003373ffffffffffffffffffffffffffffffffffffffff1673ffffffffffffffffffffffffffffffffffffffff16815260200190815260200160002054821115610df7576040517f08c379a0000000000000000000000000000000000000000000000000000000008152600401610dee906122be565b60405180910390fd5b60001515600660003373ffffffffffffffffffffffffffffffffffffffff1673ffffffffffffffffffffffffffffffffffffffff168152602001908152602001600020600083815260200190815260200160002060009054906101000a900460ff16151514610e9b576040517f08c379a0000000000000000000000000000000000000000000000000000000008152600401610e9290612376565b60405180910390fd5b81600160003373ffffffffffffffffffffffffffffffffffffffff1673ffffffffffffffffffffffffffffffffffffffff1681526020019081526020016000206000828254610eea9190612396565b925050819055506000600160003373ffffffffffffffffffffffffffffffffffffffff1673ffffffffffffffffffffffffffffffffffffffff168152602001908152602001600020541415610f92576000600460003373ffffffffffffffffffffffffffffffffffffffff1673ffffffffffffffffffffffffffffffffffffffff16815260200190815260200160002060006101000a81548160ff0219169083151502179055505b736b175474e89094c44da98b954eedeac495271d0f73ffffffffffffffffffffffffffffffffffffffff1663a9059cbb33846040518363ffffffff1660e01b8152600401610fe19291906123ca565b6020604051808303816000875af1158015611000573d6000803e3d6000fd5b505050506040513d601f19601f820116820180604052508101906110249190611fbd565b505050565b600063f23a6e6160e01b905095945050505050565b60007f01ffc9a7000000000000000000000000000000000000000000000000000000007bffffffffffffffffffffffffffffffffffffffffffffffffffffffff1916827bffffffffffffffffffffffffffffffffffffffffffffffffffffffff1916149050919050565b6000808573ffffffffffffffffffffffffffffffffffffffff166323b872dd60e01b8686866040516024016110df93929190611f5a565b604051602081830303815290604052907bffffffffffffffffffffffffffffffffffffffffffffffffffffffff19166020820180517bffffffffffffffffffffffffffffffffffffffffffffffffffffffff8381831617835250505050604051611149919061246d565b6000604051808303816000865af19150503d8060008114611186576040519150601f19603f3d011682016040523d82523d6000602084013e61118b565b606091505b50915091508180156111b957506000815114806111b85750808060200190518101906111b79190611fbd565b5b5b6111f8576040517f08c379a00000000000000000000000000000000000000000000000000000000081526004016111ef906124d0565b60405180910390fd5b505050505050565b6000808473ffffffffffffffffffffffffffffffffffffffff1663095ea7b360e01b85856040516024016112359291906123ca565b604051602081830303815290604052907bffffffffffffffffffffffffffffffffffffffffffffffffffffffff19166020820180517bffffffffffffffffffffffffffffffffffffffffffffffffffffffff838183161783525050505060405161129f919061246d565b6000604051808303816000865af19150503d80600081146112dc576040519150601f19603f3d011682016040523d82523d6000602084013e6112e1565b606091505b509150915081801561130f575060008151148061130e57508080602001905181019061130d9190611fbd565b5b5b61134e576040517f08c379a00000000000000000000000000000000000000000000000000000000081526004016113459061253c565b60405180910390fd5b5050505050565b6000611382867f000000000000000000000000000000000000000000000000000000000000000085611200565b60006040518061010001604052808873ffffffffffffffffffffffffffffffffffffffff168152602001736b175474e89094c44da98b954eedeac495271d0f73ffffffffffffffffffffffffffffffffffffffff1681526020018662ffffff1681526020013073ffffffffffffffffffffffffffffffffffffffff168152602001428152602001858152602001848152602001600073ffffffffffffffffffffffffffffffffffffffff1681525090507f000000000000000000000000000000000000000000000000000000000000000073ffffffffffffffffffffffffffffffffffffffff1663414bf389826040518263ffffffff1660e01b815260040161148b91906121ee565b6020604051808303816000875af11580156114aa573d6000803e3d6000fd5b505050506040513d601f19601f820116820180604052508101906114ce919061221f565b915081600260003373ffffffffffffffffffffffffffffffffffffffff1673ffffffffffffffffffffffffffffffffffffffff1681526020019081526020016000206000600360003373ffffffffffffffffffffffffffffffffffffffff1673ffffffffffffffffffffffffffffffffffffffff16815260200190815260200160002054815260200190815260200160002081905550600860009054906101000a900473ffffffffffffffffffffffffffffffffffffffff1673ffffffffffffffffffffffffffffffffffffffff1663c25df92d8930878b8b6040518663ffffffff1660e01b81526004016115c795949392919061255c565b600060405180830381600087803b1580156115e157600080fd5b505af11580156115f5573d6000803e3d6000fd5b50505050509695505050505050565b6000604051905090565b600080fd5b600080fd5b60007fffffffff0000000000000000000000000000000000000000000000000000000082169050919050565b61164d81611618565b811461165857600080fd5b50565b60008135905061166a81611644565b92915050565b6000602082840312156116865761168561160e565b5b60006116948482850161165b565b91505092915050565b60008115159050919050565b6116b28161169d565b82525050565b60006020820190506116cd60008301846116a9565b92915050565b600073ffffffffffffffffffffffffffffffffffffffff82169050919050565b60006116fe826116d3565b9050919050565b61170e816116f3565b811461171957600080fd5b50565b60008135905061172b81611705565b92915050565b6000819050919050565b61174481611731565b811461174f57600080fd5b50565b6000813590506117618161173b565b92915050565b6000806040838503121561177e5761177d61160e565b5b600061178c8582860161171c565b925050602061179d85828601611752565b9150509250929050565b6117b081611731565b82525050565b60006020820190506117cb60008301846117a7565b92915050565b6000602082840312156117e7576117e661160e565b5b60006117f584828501611752565b91505092915050565b611807816116f3565b82525050565b600060208201905061182260008301846117fe565b92915050565b6000806040838503121561183f5761183e61160e565b5b600061184d85828601611752565b925050602061185e8582860161171c565b9150509250929050565b60006020828403121561187e5761187d61160e565b5b600061188c8482850161171c565b91505092915050565b6000819050919050565b60006118ba6118b56118b0846116d3565b611895565b6116d3565b9050919050565b60006118cc8261189f565b9050919050565b60006118de826118c1565b9050919050565b6118ee816118d3565b82525050565b600060208201905061190960008301846118e5565b92915050565b600062ffffff82169050919050565b6119278161190f565b811461193257600080fd5b50565b6000813590506119448161191e565b92915050565b600080600080608085870312156119645761196361160e565b5b600061197287828801611752565b94505060206119838782880161171c565b935050604061199487828801611935565b92505060606119a587828801611752565b91505092959194509250565b600080fd5b6000601f19601f8301169050919050565b7f4e487b7100000000000000000000000000000000000000000000000000000000600052604160045260246000fd5b6119ff826119b6565b810181811067ffffffffffffffff82111715611a1e57611a1d6119c7565b5b80604052505050565b6000611a31611604565b9050611a3d82826119f6565b919050565b600067ffffffffffffffff821115611a5d57611a5c6119c7565b5b602082029050602081019050919050565b600080fd5b6000611a86611a8184611a42565b611a27565b90508083825260208201905060208402830185811115611aa957611aa8611a6e565b5b835b81811015611ad25780611abe8882611752565b845260208401935050602081019050611aab565b5050509392505050565b600082601f830112611af157611af06119b1565b5b8135611b01848260208601611a73565b91505092915050565b600080fd5b600067ffffffffffffffff821115611b2a57611b296119c7565b5b611b33826119b6565b9050602081019050919050565b82818337600083830152505050565b6000611b62611b5d84611b0f565b611a27565b905082815260208101848484011115611b7e57611b7d611b0a565b5b611b89848285611b40565b509392505050565b600082601f830112611ba657611ba56119b1565b5b8135611bb6848260208601611b4f565b91505092915050565b600080600080600060a08688031215611bdb57611bda61160e565b5b6000611be98882890161171c565b9550506020611bfa8882890161171c565b945050604086013567ffffffffffffffff811115611c1b57611c1a611613565b5b611c2788828901611adc565b935050606086013567ffffffffffffffff811115611c4857611c47611613565b5b611c5488828901611adc565b925050608086013567ffffffffffffffff811115611c7557611c74611613565b5b611c8188828901611b91565b9150509295509295909350565b611c9781611618565b82525050565b6000602082019050611cb26000830184611c8e565b92915050565b6000611cc3826118c1565b9050919050565b611cd381611cb8565b82525050565b6000602082019050611cee6000830184611cca565b92915050565b60008060008060008060c08789031215611d1157611d1061160e565b5b6000611d1f89828a0161171c565b9650506020611d3089828a0161171c565b9550506040611d4189828a01611752565b9450506060611d5289828a01611752565b9350506080611d6389828a01611935565b92505060a0611d7489828a01611752565b9150509295509295509295565b60008060408385031215611d9857611d9761160e565b5b6000611da685828601611752565b9250506020611db785828601611752565b9150509250929050565b600080600080600060a08688031215611ddd57611ddc61160e565b5b6000611deb8882890161171c565b9550506020611dfc8882890161171c565b9450506040611e0d88828901611752565b9350506060611e1e88828901611752565b925050608086013567ffffffffffffffff811115611e3f57611e3e611613565b5b611e4b88828901611b91565b9150509295509295909350565b600082825260208201905092915050565b7f5354414e4441524420504f4f4c3a204e6f742044414900000000000000000000600082015250565b6000611e9f601683611e58565b9150611eaa82611e69565b602082019050919050565b60006020820190508181036000830152611ece81611e92565b9050919050565b7f4e487b7100000000000000000000000000000000000000000000000000000000600052601160045260246000fd5b6000611f0f82611731565b9150611f1a83611731565b9250827fffffffffffffffffffffffffffffffffffffffffffffffffffffffffffffffff03821115611f4f57611f4e611ed5565b5b828201905092915050565b6000606082019050611f6f60008301866117fe565b611f7c60208301856117fe565b611f8960408301846117a7565b949350505050565b611f9a8161169d565b8114611fa557600080fd5b50565b600081519050611fb781611f91565b92915050565b600060208284031215611fd357611fd261160e565b5b6000611fe184828501611fa8565b91505092915050565b7f535741503a206e6f7420656e6f75676820636f6c6c61746572616c0000000000600082015250565b6000612020601b83611e58565b915061202b82611fea565b602082019050919050565b6000602082019050818103600083015261204f81612013565b9050919050565b600061206182611731565b915061206c83611731565b9250817fffffffffffffffffffffffffffffffffffffffffffffffffffffffffffffffff04831182151516156120a5576120a4611ed5565b5b828202905092915050565b7f4e487b7100000000000000000000000000000000000000000000000000000000600052601260045260246000fd5b60006120ea82611731565b91506120f583611731565b925082612105576121046120b0565b5b828204905092915050565b612119816116f3565b82525050565b6121288161190f565b82525050565b61213781611731565b82525050565b612146816116d3565b82525050565b610100820160008201516121636000850182612110565b5060208201516121766020850182612110565b506040820151612189604085018261211f565b50606082015161219c6060850182612110565b5060808201516121af608085018261212e565b5060a08201516121c260a085018261212e565b5060c08201516121d560c085018261212e565b5060e08201516121e860e085018261213d565b50505050565b600061010082019050612204600083018461214c565b92915050565b6000815190506122198161173b565b92915050565b6000602082840312156122355761223461160e565b5b60006122438482850161220a565b91505092915050565b7f434f4c4c41544552414c3a20747279696e6720746f207769746864726177206d60008201527f6f726520636f6c6c61746572616c207468616e206465706f7369746564000000602082015250565b60006122a8603d83611e58565b91506122b38261224c565b604082019050919050565b600060208201905081810360008301526122d78161229b565b9050919050565b7f434f4c4c41544552414c3a20636c6f736520796f75722063757272656e74207060008201527f6f736974696f6e206265666f726520747279696e6720746f207769746864726160208201527f7700000000000000000000000000000000000000000000000000000000000000604082015250565b6000612360604183611e58565b915061236b826122de565b606082019050919050565b6000602082019050818103600083015261238f81612353565b9050919050565b60006123a182611731565b91506123ac83611731565b9250828210156123bf576123be611ed5565b5b828203905092915050565b60006040820190506123df60008301856117fe565b6123ec60208301846117a7565b9392505050565b600081519050919050565b600081905092915050565b60005b8381101561242757808201518184015260208101905061240c565b83811115612436576000848401525b50505050565b6000612447826123f3565b61245181856123fe565b9350612461818560208601612409565b80840191505092915050565b6000612479828461243c565b915081905092915050565b7f5354460000000000000000000000000000000000000000000000000000000000600082015250565b60006124ba600383611e58565b91506124c582612484565b602082019050919050565b600060208201905081810360008301526124e9816124ad565b9050919050565b7f5341000000000000000000000000000000000000000000000000000000000000600082015250565b6000612526600283611e58565b9150612531826124f0565b602082019050919050565b6000602082019050818103600083015261255581612519565b9050919050565b600060a08201905061257160008301886117fe565b61257e60208301876117fe565b61258b60408301866117a7565b61259860608301856117fe565b6125a560808301846117a7565b969550505050505056fea2646970667358221220da6d768baea5f7511799e0aec2c631ec03fcaa8932fda974df4fda63c28944e064736f6c634300080a0033",
  "immutableReferences": {
    "2113": [
      {
        "length": 32,
        "start": 2266
      },
      {
        "length": 32,
        "start": 2481
      },
      {
        "length": 32,
        "start": 3009
      },
      {
        "length": 32,
        "start": 3063
      },
      {
        "length": 32,
        "start": 3278
      },
      {
        "length": 32,
        "start": 4957
      },
      {
        "length": 32,
        "start": 5172
      }
    ]
  },
  "source": "// SPDX-License-Identifier: MIT\npragma solidity ^0.8.0; //solhint-disable compiler-fixed\npragma abicoder v2;\n\n\nimport \"@openzeppelin/contracts/token/ERC1155/IERC1155.sol\";\nimport \"@openzeppelin/contracts/token/ERC1155/utils/ERC1155Holder.sol\";\nimport \"@uniswap/v3-periphery/contracts/interfaces/ISwapRouter.sol\";\nimport \"@uniswap/v3-periphery/contracts/libraries/TransferHelper.sol\";\nimport \"@openzeppelin/contracts/token/ERC20/IERC20.sol\";\nimport \"./BeraWrapper.sol\";\n\n\ncontract BeraPoolStandardRisk is ERC1155Holder {\n\n    address public owner;\n\n    mapping(address => uint) public userDepositBalance;\n    mapping(address => mapping(uint => uint)) public userShortBalance;\n    mapping(address => uint) internal userShortID;\n    mapping(address => bool) internal hasCollateral;\n    //nested mapping so multiple positions can be opened by the same user\n    mapping(address => mapping(uint => uint)) public entryPrices;\n    //stores which position is in a short for withdraw purposes later\n    mapping(address => mapping(uint => bool)) internal inShort; //stores whether user is currently in a position\n    address[] public standardPoolList;\n\n    address private constant DAI_ADDRESS = 0x6B175474E89094C44Da98b954EedeAC495271d0F;\n\n    ISwapRouter public immutable swapRouter;\n    BeraWrapper public beraWrapper;\n\n    constructor(ISwapRouter _swapRouter,\n        BeraWrapper _beraWrapper) { //solhint-disable func-visibility\n        owner = msg.sender;\n        swapRouter = _swapRouter;\n        beraWrapper = _beraWrapper;\n    }\n\n    function depositCollateral(uint amount, address collateral) external {\n        require(IERC20(collateral) == IERC20(DAI_ADDRESS), \"STANDARD POOL: Not DAI\");\n\n        //we use the hasCollateral mapping to avoid having to loop through the array when removing\n        //the user from the users who receive the distribution of funds for yield\n        if (userDepositBalance[msg.sender] > 0) {\n            standardPoolList.push(msg.sender);\n            hasCollateral[msg.sender] = true;\n        }\n\n        //used for withdrawl later\n        userDepositBalance[msg.sender] += amount;\n\n        //transfer to seperate pools based on user defined risk\n        //high risk pool will keep 5% of the native token to try and maximize returns\n        IERC20(collateral).transferFrom(msg.sender, address(this), amount);\n    }\n\n    function withdrawFromPool(uint amount, uint userPositionNumber) external {\n        require(amount <= userDepositBalance[msg.sender],\n            \"COLLATERAL: trying to withdraw more collateral than deposited\");\n\n        //checking if the funds locked in the position have been released before allowing them to be withdrawn\n        require(inShort[msg.sender][userPositionNumber] == false,\n            \"COLLATERAL: close your current position before trying to withdraw\");\n\n        //reset balance of user on withdraw\n        userDepositBalance[msg.sender] -= amount;\n\n        if (userDepositBalance[msg.sender] == 0) {\n            hasCollateral[msg.sender] = false;\n        }\n\n        IERC20(DAI_ADDRESS).transfer(msg.sender, amount);\n    }\n\n    // deposit collateral into user account before being allowed to short\n    function swapAndShortStandard(\n            uint amount,\n            address tokenToShort,\n            uint24 poolFee, //needed for uniswap pool\n            uint amountOutMin)\n            external returns(uint amountOut) { //solhint-disable function-max-lines\n                require(amount <= userDepositBalance[msg.sender], \"SWAP: not enough collateral\");\n\n                //by default uints are initialized at 0 so this should work???\n                userShortID[msg.sender] += 1;\n\n                //keeping 5% of dai in contract to be distributed to liq providers on loss of pool\n                uint amountToSend = amount * 95 / 100;\n\n                TransferHelper.safeTransferFrom(DAI_ADDRESS, msg.sender, address(this), amount);\n                TransferHelper.safeApprove(DAI_ADDRESS, address(swapRouter), amount);\n\n                ISwapRouter.ExactInputSingleParams memory params =\n                ISwapRouter.ExactInputSingleParams({\n                    tokenIn: DAI_ADDRESS,\n                    tokenOut: tokenToShort,\n                    fee: poolFee,\n                    recipient: address(this),\n                    deadline: block.timestamp, //solhint-disable not-rely-on-time\n                    amountIn: amountToSend,\n                    amountOutMinimum: amountOutMin,\n                    sqrtPriceLimitX96: 0\n                });\n\n                //execute the frist swap\n                amountOut = swapRouter.exactInputSingle(params);\n\n                //Call twapPriceOracle here or find a better way to capture price\n                //TODO: Price wrapping\n                //TEST ONLY\n                uint priceAtWrap = 3000;\n\n                //execute the second swap and transfer funds to pool for holding\n                //have to update priceAtWrap, users can set this amount manually and drain funds lmfao\n                //will likely use TWAPOracle feature of uniV3 pools\n                _shortForUser(\n                    msg.sender,\n                    tokenToShort,\n                    priceAtWrap,\n                    poolFee,\n                    amountOut,\n                    amountOutMin\n                );\n\n                //update entry price mapping\n                //this refers to the entry price of msg.sender for the current shortID of msg.sender\n                //nested mappings look cringe but are efficient\n                entryPrices[msg.sender][userShortID[msg.sender]] = priceAtWrap;\n\n                //update userPositionNumber current short status\n                inShort[msg.sender][userShortID[msg.sender]] = true;\n            }\n\n    function closeShortForUser(\n        address user,\n        address tokenToClose,\n        uint amount,\n        uint priceAtClose,\n        uint24 poolFee,\n        uint amountOutMin)\n        external returns(uint amountOut) {\n\n            //transfer weth to contract to sell back to dai and send profits to user\n            TransferHelper.safeTransferFrom(tokenToClose, user, address(this), amount);\n            TransferHelper.safeApprove(tokenToClose, address(swapRouter), amount);\n\n            ISwapRouter.ExactInputSingleParams memory tokenParams =\n            ISwapRouter.ExactInputSingleParams({\n                tokenIn: tokenToClose,\n                tokenOut: DAI_ADDRESS,\n                fee: poolFee,\n                recipient: msg.sender, //refers to router in this case\n                deadline: block.timestamp, //solhint-disable not-rely-on-time\n                amountIn: amount,\n                amountOutMinimum: amountOutMin,\n                sqrtPriceLimitX96: 0\n            });\n\n            //execute the sell order\n            amountOut = swapRouter.exactInputSingle(tokenParams);\n\n            //TODO\n            //must update current userPositionNumber\n\n        }\n\n    //TODO\n    function _shortForUser(\n        address user,\n        address tokenToShort,\n        uint priceAtWrap,\n        uint24 poolFee,\n        uint amount,\n        uint amountOutMin) internal returns(uint amountOut) {\n        //funds are currently in the contract, so no need to swap back and forth anymore\n        //should just be able to call the second swap\n\n        TransferHelper.safeApprove(tokenToShort, address(swapRouter), amount);\n        //now that this contract has the desired token to short, we sell @ market back for DAI\n        ISwapRouter.ExactInputSingleParams memory tokenParams =\n        ISwapRouter.ExactInputSingleParams({\n            tokenIn: tokenToShort,\n            tokenOut: DAI_ADDRESS,\n            fee: poolFee,\n            recipient: address(this), //the pool contract will store both DAI from users and tokenOut\n            deadline: block.timestamp, //solhint-disable not-rely-on-time\n            amountIn: amount,\n            amountOutMinimum: amountOutMin,\n            sqrtPriceLimitX96: 0\n        });\n\n        // execute the short, amountOut is DAI in this case\n        amountOut = swapRouter.exactInputSingle(tokenParams);\n\n        //update user balance of the user current positionID\n        userShortBalance[msg.sender][userShortID[msg.sender]] = amountOut;\n\n        //wrap position in ERC1155\n        //use amountToShort to reference position size being wrapped\n        beraWrapper.wrapPosition(user, address(this), amount, tokenToShort, priceAtWrap);\n    }\n\n    receive() external payable { //solhint-disable state-visibility\n\n}\n\n    fallback() external payable { //solhint-disable\n\n}\n\n}\n\n\n//needs:\n//\n//total borrowed from pool/ token0\n//total supplied to pool as collateral/ token1(USDC)\n//total available to borrow for shorting\n//how much it will cost to borrow/ how much to be paid to supplier\n//when does the borrower threaten to be liquited?\n    //(when losses are equal to 90% of supplied collateral)\n    //thus, we need a way to measure the current borrowers PnL or loan health (maybe look at AAVE or COMP)\n//need interface when done with all functions\n\n//ON HOLD\n",
  "sourcePath": "/home/kevin/Code/solidity_projects/beraMarket/contracts/BeraPoolStandardRisk.sol",
  "compiler": {
    "name": "solc",
    "version": "0.8.10+commit.fc410830.Emscripten.clang"
  },
  "schemaVersion": "3.4.3",
  "updatedAt": "2021-12-02T15:33:49.745Z",
  "networkType": "ethereum",
  "devdoc": {
    "kind": "dev",
    "methods": {
      "supportsInterface(bytes4)": {
        "details": "See {IERC165-supportsInterface}."
      }
    },
    "version": 1
  },
  "userdoc": {
    "kind": "user",
    "methods": {},
    "version": 1
  }
}