{
  "contractName": "BeraPoolStandardRisk",
  "abi": [
    {
      "inputs": [
        {
          "internalType": "contract ISwapRouter",
          "name": "_swapRouter",
          "type": "address"
        },
        {
          "internalType": "contract BeraWrapper",
          "name": "_beraWrapper",
          "type": "address"
        }
      ],
      "stateMutability": "nonpayable",
      "type": "constructor"
    },
    {
      "inputs": [],
      "name": "beraWrapper",
      "outputs": [
        {
          "internalType": "contract BeraWrapper",
          "name": "",
          "type": "address"
        }
      ],
      "stateMutability": "view",
      "type": "function"
    },
    {
      "inputs": [
        {
          "internalType": "address",
          "name": "",
          "type": "address"
        },
        {
          "internalType": "address",
          "name": "",
          "type": "address"
        },
        {
          "internalType": "uint256[]",
          "name": "",
          "type": "uint256[]"
        },
        {
          "internalType": "uint256[]",
          "name": "",
          "type": "uint256[]"
        },
        {
          "internalType": "bytes",
          "name": "",
          "type": "bytes"
        }
      ],
      "name": "onERC1155BatchReceived",
      "outputs": [
        {
          "internalType": "bytes4",
          "name": "",
          "type": "bytes4"
        }
      ],
      "stateMutability": "nonpayable",
      "type": "function"
    },
    {
      "inputs": [
        {
          "internalType": "address",
          "name": "",
          "type": "address"
        },
        {
          "internalType": "address",
          "name": "",
          "type": "address"
        },
        {
          "internalType": "uint256",
          "name": "",
          "type": "uint256"
        },
        {
          "internalType": "uint256",
          "name": "",
          "type": "uint256"
        },
        {
          "internalType": "bytes",
          "name": "",
          "type": "bytes"
        }
      ],
      "name": "onERC1155Received",
      "outputs": [
        {
          "internalType": "bytes4",
          "name": "",
          "type": "bytes4"
        }
      ],
      "stateMutability": "nonpayable",
      "type": "function"
    },
    {
      "inputs": [],
      "name": "owner",
      "outputs": [
        {
          "internalType": "address",
          "name": "",
          "type": "address"
        }
      ],
      "stateMutability": "view",
      "type": "function"
    },
    {
      "inputs": [
        {
          "internalType": "bytes4",
          "name": "interfaceId",
          "type": "bytes4"
        }
      ],
      "name": "supportsInterface",
      "outputs": [
        {
          "internalType": "bool",
          "name": "",
          "type": "bool"
        }
      ],
      "stateMutability": "view",
      "type": "function"
    },
    {
      "inputs": [],
      "name": "swapRouter",
      "outputs": [
        {
          "internalType": "contract ISwapRouter",
          "name": "",
          "type": "address"
        }
      ],
      "stateMutability": "view",
      "type": "function"
    },
    {
      "inputs": [
        {
          "internalType": "address",
          "name": "",
          "type": "address"
        }
      ],
      "name": "userRemainingBalance",
      "outputs": [
        {
          "internalType": "uint256",
          "name": "",
          "type": "uint256"
        }
      ],
      "stateMutability": "view",
      "type": "function"
    },
    {
      "inputs": [
        {
          "internalType": "address",
          "name": "",
          "type": "address"
        }
      ],
      "name": "userShortBalance",
      "outputs": [
        {
          "internalType": "uint256",
          "name": "",
          "type": "uint256"
        }
      ],
      "stateMutability": "view",
      "type": "function"
    },
    {
      "inputs": [
        {
          "internalType": "address",
          "name": "user",
          "type": "address"
        },
        {
          "internalType": "address",
          "name": "tokenToShort",
          "type": "address"
        },
        {
          "internalType": "uint256",
          "name": "priceAtWrap",
          "type": "uint256"
        },
        {
          "internalType": "uint24",
          "name": "poolFee",
          "type": "uint24"
        },
        {
          "internalType": "uint256",
          "name": "amount",
          "type": "uint256"
        },
        {
          "internalType": "uint256",
          "name": "amountOutMin",
          "type": "uint256"
        }
      ],
      "name": "shortForUser",
      "outputs": [
        {
          "internalType": "uint256",
          "name": "amountOut",
          "type": "uint256"
        }
      ],
      "stateMutability": "nonpayable",
      "type": "function"
    },
    {
      "inputs": [
        {
          "internalType": "address",
          "name": "user",
          "type": "address"
        },
        {
          "internalType": "address",
          "name": "tokenToClose",
          "type": "address"
        },
        {
          "internalType": "uint256",
          "name": "amount",
          "type": "uint256"
        },
        {
          "internalType": "uint24",
          "name": "poolFee",
          "type": "uint24"
        },
        {
          "internalType": "uint256",
          "name": "amountOutMin",
          "type": "uint256"
        }
      ],
      "name": "closeShortForUser",
      "outputs": [
        {
          "internalType": "uint256",
          "name": "amountOut",
          "type": "uint256"
        }
      ],
      "stateMutability": "nonpayable",
      "type": "function"
    }
  ],
  "bytecode": "0x60a06040523480156200001157600080fd5b50604051620019f9380380620019f98339818101604052810190620000379190620001b7565b336000806101000a81548173ffffffffffffffffffffffffffffffffffffffff021916908373ffffffffffffffffffffffffffffffffffffffff1602179055508173ffffffffffffffffffffffffffffffffffffffff1660808173ffffffffffffffffffffffffffffffffffffffff168152505080600360006101000a81548173ffffffffffffffffffffffffffffffffffffffff021916908373ffffffffffffffffffffffffffffffffffffffff1602179055505050620001fe565b600080fd5b600073ffffffffffffffffffffffffffffffffffffffff82169050919050565b60006200012682620000f9565b9050919050565b60006200013a8262000119565b9050919050565b6200014c816200012d565b81146200015857600080fd5b50565b6000815190506200016c8162000141565b92915050565b60006200017f8262000119565b9050919050565b620001918162000172565b81146200019d57600080fd5b50565b600081519050620001b18162000186565b92915050565b60008060408385031215620001d157620001d0620000f4565b5b6000620001e1858286016200015b565b9250506020620001f485828601620001a0565b9150509250929050565b6080516117c362000236600039600081816102f3015281816103f70152818161062d01528181610663015261073a01526117c36000f3fe608060405234801561001057600080fd5b506004361061009e5760003560e01c8063bc197c8111610066578063bc197c811461016f578063c31c9c071461019f578063d6fe4022146101bd578063e23c9579146101ed578063f23a6e611461021d5761009e565b806301ffc9a7146100a357806321c905ee146100d35780634c992506146101035780638da5cb5b14610133578063a29aa11414610151575b600080fd5b6100bd60048036038101906100b89190610b9f565b61024d565b6040516100ca9190610be7565b60405180910390f35b6100ed60048036038101906100e89190610c60565b6102c7565b6040516100fa9190610ca6565b60405180910390f35b61011d60048036038101906101189190610d28565b6102df565b60405161012a9190610ca6565b60405180910390f35b61013b6105cc565b6040516101489190610dc4565b60405180910390f35b6101596105f0565b6040516101669190610e3e565b60405180910390f35b61018960048036038101906101849190611067565b610616565b6040516101969190611145565b60405180910390f35b6101a761062b565b6040516101b49190611181565b60405180910390f35b6101d760048036038101906101d2919061119c565b61064f565b6040516101e49190610ca6565b60405180910390f35b61020760048036038101906102029190610c60565b6107ef565b6040516102149190610ca6565b60405180910390f35b61023760048036038101906102329190611217565b610807565b6040516102449190611145565b60405180910390f35b60007f4e2312e0000000000000000000000000000000000000000000000000000000007bffffffffffffffffffffffffffffffffffffffffffffffffffffffff1916827bffffffffffffffffffffffffffffffffffffffffffffffffffffffff191614806102c057506102bf8261081c565b5b9050919050565b60026020528060005260406000206000915090505481565b60006102ed86883086610886565b610318867f0000000000000000000000000000000000000000000000000000000000000000856109de565b60006064605f8561032991906112dd565b6103339190611366565b9050600081856103439190611397565b905060006040518061010001604052808a73ffffffffffffffffffffffffffffffffffffffff168152602001736b175474e89094c44da98b954eedeac495271d0f73ffffffffffffffffffffffffffffffffffffffff1681526020018862ffffff1681526020013073ffffffffffffffffffffffffffffffffffffffff168152602001428152602001848152602001868152602001600073ffffffffffffffffffffffffffffffffffffffff1681525090507f000000000000000000000000000000000000000000000000000000000000000073ffffffffffffffffffffffffffffffffffffffff1663414bf389826040518263ffffffff1660e01b815260040161044e91906114a9565b602060405180830381600087803b15801561046857600080fd5b505af115801561047c573d6000803e3d6000fd5b505050506040513d601f19601f820116820180604052508101906104a091906114da565b935083600160003373ffffffffffffffffffffffffffffffffffffffff1673ffffffffffffffffffffffffffffffffffffffff1681526020019081526020016000208190555081600260003373ffffffffffffffffffffffffffffffffffffffff1673ffffffffffffffffffffffffffffffffffffffff16815260200190815260200160002081905550600360009054906101000a900473ffffffffffffffffffffffffffffffffffffffff1673ffffffffffffffffffffffffffffffffffffffff1663c25df92d8b30868d8d6040518663ffffffff1660e01b815260040161058d959493929190611507565b600060405180830381600087803b1580156105a757600080fd5b505af11580156105bb573d6000803e3d6000fd5b505050505050509695505050505050565b60008054906101000a900473ffffffffffffffffffffffffffffffffffffffff1681565b600360009054906101000a900473ffffffffffffffffffffffffffffffffffffffff1681565b600063bc197c8160e01b905095945050505050565b7f000000000000000000000000000000000000000000000000000000000000000081565b600061065d85873087610886565b610688857f0000000000000000000000000000000000000000000000000000000000000000866109de565b60006040518061010001604052808773ffffffffffffffffffffffffffffffffffffffff168152602001736b175474e89094c44da98b954eedeac495271d0f73ffffffffffffffffffffffffffffffffffffffff1681526020018562ffffff1681526020018873ffffffffffffffffffffffffffffffffffffffff168152602001428152602001868152602001848152602001600073ffffffffffffffffffffffffffffffffffffffff1681525090507f000000000000000000000000000000000000000000000000000000000000000073ffffffffffffffffffffffffffffffffffffffff1663414bf389826040518263ffffffff1660e01b815260040161079191906114a9565b602060405180830381600087803b1580156107ab57600080fd5b505af11580156107bf573d6000803e3d6000fd5b505050506040513d601f19601f820116820180604052508101906107e391906114da565b91505095945050505050565b60016020528060005260406000206000915090505481565b600063f23a6e6160e01b905095945050505050565b60007f01ffc9a7000000000000000000000000000000000000000000000000000000007bffffffffffffffffffffffffffffffffffffffffffffffffffffffff1916827bffffffffffffffffffffffffffffffffffffffffffffffffffffffff1916149050919050565b6000808573ffffffffffffffffffffffffffffffffffffffff166323b872dd60e01b8686866040516024016108bd9392919061155a565b604051602081830303815290604052907bffffffffffffffffffffffffffffffffffffffffffffffffffffffff19166020820180517bffffffffffffffffffffffffffffffffffffffffffffffffffffffff8381831617835250505050604051610927919061160b565b6000604051808303816000865af19150503d8060008114610964576040519150601f19603f3d011682016040523d82523d6000602084013e610969565b606091505b50915091508180156109975750600081511480610996575080806020019051810190610995919061164e565b5b5b6109d6576040517f08c379a00000000000000000000000000000000000000000000000000000000081526004016109cd906116d8565b60405180910390fd5b505050505050565b6000808473ffffffffffffffffffffffffffffffffffffffff1663095ea7b360e01b8585604051602401610a139291906116f8565b604051602081830303815290604052907bffffffffffffffffffffffffffffffffffffffffffffffffffffffff19166020820180517bffffffffffffffffffffffffffffffffffffffffffffffffffffffff8381831617835250505050604051610a7d919061160b565b6000604051808303816000865af19150503d8060008114610aba576040519150601f19603f3d011682016040523d82523d6000602084013e610abf565b606091505b5091509150818015610aed5750600081511480610aec575080806020019051810190610aeb919061164e565b5b5b610b2c576040517f08c379a0000000000000000000000000000000000000000000000000000000008152600401610b239061176d565b60405180910390fd5b5050505050565b6000604051905090565b600080fd5b600080fd5b60007fffffffff0000000000000000000000000000000000000000000000000000000082169050919050565b610b7c81610b47565b8114610b8757600080fd5b50565b600081359050610b9981610b73565b92915050565b600060208284031215610bb557610bb4610b3d565b5b6000610bc384828501610b8a565b91505092915050565b60008115159050919050565b610be181610bcc565b82525050565b6000602082019050610bfc6000830184610bd8565b92915050565b600073ffffffffffffffffffffffffffffffffffffffff82169050919050565b6000610c2d82610c02565b9050919050565b610c3d81610c22565b8114610c4857600080fd5b50565b600081359050610c5a81610c34565b92915050565b600060208284031215610c7657610c75610b3d565b5b6000610c8484828501610c4b565b91505092915050565b6000819050919050565b610ca081610c8d565b82525050565b6000602082019050610cbb6000830184610c97565b92915050565b610cca81610c8d565b8114610cd557600080fd5b50565b600081359050610ce781610cc1565b92915050565b600062ffffff82169050919050565b610d0581610ced565b8114610d1057600080fd5b50565b600081359050610d2281610cfc565b92915050565b60008060008060008060c08789031215610d4557610d44610b3d565b5b6000610d5389828a01610c4b565b9650506020610d6489828a01610c4b565b9550506040610d7589828a01610cd8565b9450506060610d8689828a01610d13565b9350506080610d9789828a01610cd8565b92505060a0610da889828a01610cd8565b9150509295509295509295565b610dbe81610c22565b82525050565b6000602082019050610dd96000830184610db5565b92915050565b6000819050919050565b6000610e04610dff610dfa84610c02565b610ddf565b610c02565b9050919050565b6000610e1682610de9565b9050919050565b6000610e2882610e0b565b9050919050565b610e3881610e1d565b82525050565b6000602082019050610e536000830184610e2f565b92915050565b600080fd5b6000601f19601f8301169050919050565b7f4e487b7100000000000000000000000000000000000000000000000000000000600052604160045260246000fd5b610ea782610e5e565b810181811067ffffffffffffffff82111715610ec657610ec5610e6f565b5b80604052505050565b6000610ed9610b33565b9050610ee58282610e9e565b919050565b600067ffffffffffffffff821115610f0557610f04610e6f565b5b602082029050602081019050919050565b600080fd5b6000610f2e610f2984610eea565b610ecf565b90508083825260208201905060208402830185811115610f5157610f50610f16565b5b835b81811015610f7a5780610f668882610cd8565b845260208401935050602081019050610f53565b5050509392505050565b600082601f830112610f9957610f98610e59565b5b8135610fa9848260208601610f1b565b91505092915050565b600080fd5b600067ffffffffffffffff821115610fd257610fd1610e6f565b5b610fdb82610e5e565b9050602081019050919050565b82818337600083830152505050565b600061100a61100584610fb7565b610ecf565b90508281526020810184848401111561102657611025610fb2565b5b611031848285610fe8565b509392505050565b600082601f83011261104e5761104d610e59565b5b813561105e848260208601610ff7565b91505092915050565b600080600080600060a0868803121561108357611082610b3d565b5b600061109188828901610c4b565b95505060206110a288828901610c4b565b945050604086013567ffffffffffffffff8111156110c3576110c2610b42565b5b6110cf88828901610f84565b935050606086013567ffffffffffffffff8111156110f0576110ef610b42565b5b6110fc88828901610f84565b925050608086013567ffffffffffffffff81111561111d5761111c610b42565b5b61112988828901611039565b9150509295509295909350565b61113f81610b47565b82525050565b600060208201905061115a6000830184611136565b92915050565b600061116b82610e0b565b9050919050565b61117b81611160565b82525050565b60006020820190506111966000830184611172565b92915050565b600080600080600060a086880312156111b8576111b7610b3d565b5b60006111c688828901610c4b565b95505060206111d788828901610c4b565b94505060406111e888828901610cd8565b93505060606111f988828901610d13565b925050608061120a88828901610cd8565b9150509295509295909350565b600080600080600060a0868803121561123357611232610b3d565b5b600061124188828901610c4b565b955050602061125288828901610c4b565b945050604061126388828901610cd8565b935050606061127488828901610cd8565b925050608086013567ffffffffffffffff81111561129557611294610b42565b5b6112a188828901611039565b9150509295509295909350565b7f4e487b7100000000000000000000000000000000000000000000000000000000600052601160045260246000fd5b60006112e882610c8d565b91506112f383610c8d565b9250817fffffffffffffffffffffffffffffffffffffffffffffffffffffffffffffffff048311821515161561132c5761132b6112ae565b5b828202905092915050565b7f4e487b7100000000000000000000000000000000000000000000000000000000600052601260045260246000fd5b600061137182610c8d565b915061137c83610c8d565b92508261138c5761138b611337565b5b828204905092915050565b60006113a282610c8d565b91506113ad83610c8d565b9250828210156113c0576113bf6112ae565b5b828203905092915050565b6113d481610c22565b82525050565b6113e381610ced565b82525050565b6113f281610c8d565b82525050565b61140181610c02565b82525050565b6101008201600082015161141e60008501826113cb565b50602082015161143160208501826113cb565b50604082015161144460408501826113da565b50606082015161145760608501826113cb565b50608082015161146a60808501826113e9565b5060a082015161147d60a08501826113e9565b5060c082015161149060c08501826113e9565b5060e08201516114a360e08501826113f8565b50505050565b6000610100820190506114bf6000830184611407565b92915050565b6000815190506114d481610cc1565b92915050565b6000602082840312156114f0576114ef610b3d565b5b60006114fe848285016114c5565b91505092915050565b600060a08201905061151c6000830188610db5565b6115296020830187610db5565b6115366040830186610c97565b6115436060830185610db5565b6115506080830184610c97565b9695505050505050565b600060608201905061156f6000830186610db5565b61157c6020830185610db5565b6115896040830184610c97565b949350505050565b600081519050919050565b600081905092915050565b60005b838110156115c55780820151818401526020810190506115aa565b838111156115d4576000848401525b50505050565b60006115e582611591565b6115ef818561159c565b93506115ff8185602086016115a7565b80840191505092915050565b600061161782846115da565b915081905092915050565b61162b81610bcc565b811461163657600080fd5b50565b60008151905061164881611622565b92915050565b60006020828403121561166457611663610b3d565b5b600061167284828501611639565b91505092915050565b600082825260208201905092915050565b7f5354460000000000000000000000000000000000000000000000000000000000600082015250565b60006116c260038361167b565b91506116cd8261168c565b602082019050919050565b600060208201905081810360008301526116f1816116b5565b9050919050565b600060408201905061170d6000830185610db5565b61171a6020830184610c97565b9392505050565b7f5341000000000000000000000000000000000000000000000000000000000000600082015250565b600061175760028361167b565b915061176282611721565b602082019050919050565b600060208201905081810360008301526117868161174a565b905091905056fea2646970667358221220961d2e09467e1a3a6e75a278e812362d8448cc74d894a30c43a073ee36f37a6a64736f6c63430008090033",
  "immutableReferences": {
    "2088": [
      {
        "length": 32,
        "start": 755
      },
      {
        "length": 32,
        "start": 1015
      },
      {
        "length": 32,
        "start": 1581
      },
      {
        "length": 32,
        "start": 1635
      },
      {
        "length": 32,
        "start": 1850
      }
    ]
  },
  "source": "// SPDX-License-Identifier: MIT\npragma solidity ^0.8.0; //solhint-disable compiler-fixed\npragma abicoder v2;\n\nimport \"./BeraWrapper.sol\";\nimport \"@openzeppelin/contracts/token/ERC1155/IERC1155.sol\";\nimport \"@openzeppelin/contracts/token/ERC1155/utils/ERC1155Holder.sol\";\nimport \"@uniswap/v3-periphery/contracts/interfaces/ISwapRouter.sol\";\nimport \"@uniswap/v3-periphery/contracts/libraries/TransferHelper.sol\";\nimport \"@openzeppelin/contracts/token/ERC20/IERC20.sol\";\n\n\n//TODO pool contract\ncontract BeraPoolStandardRisk is ERC1155Holder {\n\n    address public owner;\n\n    mapping(address => uint) public userShortBalance;\n    mapping(address => uint) public userRemainingBalance;\n\n    address private constant DAI_ADDRESS = 0x6B175474E89094C44Da98b954EedeAC495271d0F;\n\n    ISwapRouter public immutable swapRouter;\n    BeraWrapper public beraWrapper;\n\n    constructor(ISwapRouter _swapRouter,\n        BeraWrapper _beraWrapper) { //solhint-disable func-visibility\n        owner = msg.sender;\n        swapRouter = _swapRouter;\n        beraWrapper = _beraWrapper;\n    }\n\n    function shortForUser(\n        address user,\n        address tokenToShort,\n        uint priceAtWrap,\n        uint24 poolFee,\n        uint amount,\n        uint amountOutMin) external returns(uint amountOut) {\n        //require(msg.sender == beraRouter, \"not in ecosystem\");\n\n\n        TransferHelper.safeTransferFrom(tokenToShort, user, address(this), amount);\n        TransferHelper.safeApprove(tokenToShort, address(swapRouter), amount);\n\n        //keep 5% of weth in pool contract for holders to profit/ reduce losses\n        //amountToShort is amount of weth to short\n        //TOKEN IN IN THIS CASE IS ALREADY TOKEN TO BE SHORTED, SO POOL IS KEEPING 5% OF TRADE\n        //KEEP IN FOR NOW TO TEST HIGH RISK POOL\n        //WILL HAVE TO CHANGE TO SWAP AND THEN KEEP 5% FOR STANDARD RISK POOL\n        uint amountToShort = (amount * 95) / 100;\n        uint remaining = amount - amountToShort;\n\n        //now that contract has the desired token to short, we sell @ market back for DAI\n        ISwapRouter.ExactInputSingleParams memory tokenParams =\n        ISwapRouter.ExactInputSingleParams({\n            tokenIn: tokenToShort,\n            tokenOut: DAI_ADDRESS,\n            fee: poolFee,\n            recipient: address(this),\n            deadline: block.timestamp, //solhint-disable not-rely-on-time\n            amountIn: amountToShort,\n            amountOutMinimum: amountOutMin,\n            sqrtPriceLimitX96: 0\n        });\n\n        // execute the short, amountOut is DAI in this case\n        amountOut = swapRouter.exactInputSingle(tokenParams);\n\n        //update user balances\n        userShortBalance[msg.sender] = amountOut;\n        userRemainingBalance[msg.sender] = remaining;\n\n        //wrap position in ERC1155\n        //use amountToShort to reference how much is being shorted in this position\n        beraWrapper.wrapPosition(user, address(this), amountToShort, tokenToShort, priceAtWrap);\n\n    }\n\n    function closeShortForUser(\n        address user,\n        address tokenToClose,\n        uint amount,\n      //  uint priceAtClose,\n        uint24 poolFee,\n        uint amountOutMin)\n        external returns(uint amountOut) {\n\n            //transfer weth to contract to sell back to dai and send profits to user\n            TransferHelper.safeTransferFrom(tokenToClose, user, address(this), amount);\n            TransferHelper.safeApprove(tokenToClose, address(swapRouter), amount);\n\n            ISwapRouter.ExactInputSingleParams memory tokenParams =\n            ISwapRouter.ExactInputSingleParams({\n                tokenIn: tokenToClose,\n                tokenOut: DAI_ADDRESS,\n                fee: poolFee,\n                recipient: user, //refers to pool that will hold tokens on behalf of the user\n                deadline: block.timestamp, //solhint-disable not-rely-on-time\n                amountIn: amount,\n                amountOutMinimum: amountOutMin,\n                sqrtPriceLimitX96: 0\n            });\n\n            //execute the sell order\n            amountOut = swapRouter.exactInputSingle(tokenParams);\n\n            //calculate and transfer profits\n            //IERC20(tokenToClose).transfer(user, profits);\n        }\n\n}\n\n//needs:\n//\n//total borrowed from pool/ token0\n//total supplied to pool as collateral/ token1(USDC)\n//total available to borrow for shorting\n//how much it will cost to borrow/ how much to be paid to supplier\n//when does the borrower threaten to be liquited?\n    //(when losses are equal to 90% of supplied collateral)\n    //thus, we need a way to measure the current borrowers PnL or loan health (maybe look at AAVE or COMP)\n//need interface when done with all functions\n\n//ON HOLD\n",
  "sourcePath": "/home/kevin/Code/solidity_projects/beraMarket/contracts/BeraPoolStandardRisk.sol",
  "compiler": {
    "name": "solc",
    "version": "0.8.9+commit.e5eed63a.Emscripten.clang"
  },
  "schemaVersion": "3.4.3",
  "updatedAt": "2021-10-18T15:35:21.270Z",
  "devdoc": {
    "kind": "dev",
    "methods": {
      "supportsInterface(bytes4)": {
        "details": "See {IERC165-supportsInterface}."
      }
    },
    "version": 1
  },
  "userdoc": {
    "kind": "user",
    "methods": {},
    "version": 1
  }
}