{
  "contractName": "BeraPoolStandardRisk",
  "abi": [
    {
      "inputs": [
        {
          "internalType": "contract ISwapRouter",
          "name": "_swapRouter",
          "type": "address"
        },
        {
          "internalType": "contract BeraWrapper",
          "name": "_beraWrapper",
          "type": "address"
        }
      ],
      "stateMutability": "nonpayable",
      "type": "constructor"
    },
    {
      "stateMutability": "payable",
      "type": "fallback"
    },
    {
      "inputs": [],
      "name": "beraWrapper",
      "outputs": [
        {
          "internalType": "contract BeraWrapper",
          "name": "",
          "type": "address"
        }
      ],
      "stateMutability": "view",
      "type": "function"
    },
    {
      "inputs": [],
      "name": "globalRewards",
      "outputs": [
        {
          "internalType": "uint256",
          "name": "",
          "type": "uint256"
        }
      ],
      "stateMutability": "view",
      "type": "function"
    },
    {
      "inputs": [
        {
          "internalType": "address",
          "name": "",
          "type": "address"
        },
        {
          "internalType": "address",
          "name": "",
          "type": "address"
        },
        {
          "internalType": "uint256[]",
          "name": "",
          "type": "uint256[]"
        },
        {
          "internalType": "uint256[]",
          "name": "",
          "type": "uint256[]"
        },
        {
          "internalType": "bytes",
          "name": "",
          "type": "bytes"
        }
      ],
      "name": "onERC1155BatchReceived",
      "outputs": [
        {
          "internalType": "bytes4",
          "name": "",
          "type": "bytes4"
        }
      ],
      "stateMutability": "nonpayable",
      "type": "function"
    },
    {
      "inputs": [
        {
          "internalType": "address",
          "name": "",
          "type": "address"
        },
        {
          "internalType": "address",
          "name": "",
          "type": "address"
        },
        {
          "internalType": "uint256",
          "name": "",
          "type": "uint256"
        },
        {
          "internalType": "uint256",
          "name": "",
          "type": "uint256"
        },
        {
          "internalType": "bytes",
          "name": "",
          "type": "bytes"
        }
      ],
      "name": "onERC1155Received",
      "outputs": [
        {
          "internalType": "bytes4",
          "name": "",
          "type": "bytes4"
        }
      ],
      "stateMutability": "nonpayable",
      "type": "function"
    },
    {
      "inputs": [],
      "name": "owner",
      "outputs": [
        {
          "internalType": "address",
          "name": "",
          "type": "address"
        }
      ],
      "stateMutability": "view",
      "type": "function"
    },
    {
      "inputs": [
        {
          "internalType": "bytes4",
          "name": "interfaceId",
          "type": "bytes4"
        }
      ],
      "name": "supportsInterface",
      "outputs": [
        {
          "internalType": "bool",
          "name": "",
          "type": "bool"
        }
      ],
      "stateMutability": "view",
      "type": "function"
    },
    {
      "inputs": [],
      "name": "swapRouter",
      "outputs": [
        {
          "internalType": "contract ISwapRouter",
          "name": "",
          "type": "address"
        }
      ],
      "stateMutability": "view",
      "type": "function"
    },
    {
      "inputs": [
        {
          "internalType": "address",
          "name": "",
          "type": "address"
        }
      ],
      "name": "users",
      "outputs": [
        {
          "internalType": "uint256",
          "name": "userDepositBalance",
          "type": "uint256"
        },
        {
          "internalType": "uint256",
          "name": "lastClaimedRewards",
          "type": "uint256"
        },
        {
          "internalType": "bool",
          "name": "hasCollateral",
          "type": "bool"
        },
        {
          "internalType": "uint256",
          "name": "userShortID",
          "type": "uint256"
        }
      ],
      "stateMutability": "view",
      "type": "function"
    },
    {
      "stateMutability": "payable",
      "type": "receive"
    },
    {
      "inputs": [
        {
          "internalType": "uint256",
          "name": "amount",
          "type": "uint256"
        },
        {
          "internalType": "address",
          "name": "collateral",
          "type": "address"
        }
      ],
      "name": "depositCollateral",
      "outputs": [],
      "stateMutability": "nonpayable",
      "type": "function"
    },
    {
      "inputs": [
        {
          "internalType": "uint256",
          "name": "amount",
          "type": "uint256"
        },
        {
          "internalType": "uint256",
          "name": "_userShortID",
          "type": "uint256"
        }
      ],
      "name": "withdrawFromPool",
      "outputs": [],
      "stateMutability": "nonpayable",
      "type": "function"
    },
    {
      "inputs": [],
      "name": "claimRewards",
      "outputs": [],
      "stateMutability": "nonpayable",
      "type": "function"
    },
    {
      "inputs": [
        {
          "internalType": "uint256",
          "name": "amount",
          "type": "uint256"
        },
        {
          "internalType": "address",
          "name": "tokenToShort",
          "type": "address"
        },
        {
          "internalType": "uint24",
          "name": "poolFee",
          "type": "uint24"
        },
        {
          "internalType": "uint256",
          "name": "amountOutMin",
          "type": "uint256"
        }
      ],
      "name": "swapAndShortStandard",
      "outputs": [
        {
          "internalType": "uint256",
          "name": "amountOut",
          "type": "uint256"
        }
      ],
      "stateMutability": "nonpayable",
      "type": "function"
    },
    {
      "inputs": [
        {
          "internalType": "address",
          "name": "user",
          "type": "address"
        },
        {
          "internalType": "uint256",
          "name": "_userShortID",
          "type": "uint256"
        },
        {
          "internalType": "uint256",
          "name": "priceAtClose",
          "type": "uint256"
        }
      ],
      "name": "closeShortStandardPool",
      "outputs": [],
      "stateMutability": "nonpayable",
      "type": "function"
    },
    {
      "inputs": [],
      "name": "checkRewards",
      "outputs": [
        {
          "internalType": "uint256",
          "name": "profits",
          "type": "uint256"
        }
      ],
      "stateMutability": "view",
      "type": "function"
    }
  ],
  "bytecode": "0x60a06040523480156200001157600080fd5b50604051620029be380380620029be8339818101604052810190620000379190620001b7565b336000806101000a81548173ffffffffffffffffffffffffffffffffffffffff021916908373ffffffffffffffffffffffffffffffffffffffff1602179055508173ffffffffffffffffffffffffffffffffffffffff1660808173ffffffffffffffffffffffffffffffffffffffff168152505080600360006101000a81548173ffffffffffffffffffffffffffffffffffffffff021916908373ffffffffffffffffffffffffffffffffffffffff1602179055505050620001fe565b600080fd5b600073ffffffffffffffffffffffffffffffffffffffff82169050919050565b60006200012682620000f9565b9050919050565b60006200013a8262000119565b9050919050565b6200014c816200012d565b81146200015857600080fd5b50565b6000815190506200016c8162000141565b92915050565b60006200017f8262000119565b9050919050565b620001918162000172565b81146200019d57600080fd5b50565b600081519050620001b18162000186565b92915050565b60008060408385031215620001d157620001d0620000f4565b5b6000620001e1858286016200015b565b9250506020620001f485828601620001a0565b9150509250929050565b60805161278862000236600039600081816109db01528181610ab201528181610ccd0152818161143f015261151601526127886000f3fe6080604052600436106100e15760003560e01c8063a29aa1141161007f578063bc197c8111610059578063bc197c81146102b9578063c31c9c07146102f6578063ef1b316614610321578063f23a6e611461034a576100e8565b8063a29aa11414610211578063a87430ba1461023c578063aac28b541461027c576100e8565b8063481fef8a116100bb578063481fef8a146101695780637423031e146101925780637b1609b1146101bd5780638da5cb5b146101e6576100e8565b806301ffc9a7146100ea5780632aeaa29114610127578063372500ab14610152576100e8565b366100e857005b005b3480156100f657600080fd5b50610111600480360381019061010c9190611758565b610387565b60405161011e91906117a0565b60405180910390f35b34801561013357600080fd5b5061013c610401565b60405161014991906117d4565b60405180910390f35b34801561015e57600080fd5b50610167610411565b005b34801561017557600080fd5b50610190600480360381019061018b9190611879565b61041c565b005b34801561019e57600080fd5b506101a761057c565b6040516101b491906117d4565b60405180910390f35b3480156101c957600080fd5b506101e460048036038101906101df91906118b9565b610582565b005b3480156101f257600080fd5b506101fb61081d565b604051610208919061191b565b60405180910390f35b34801561021d57600080fd5b50610226610841565b6040516102339190611995565b60405180910390f35b34801561024857600080fd5b50610263600480360381019061025e91906119b0565b610867565b60405161027394939291906119dd565b60405180910390f35b34801561028857600080fd5b506102a3600480360381019061029e9190611a5d565b6108a4565b6040516102b091906117d4565b60405180910390f35b3480156102c557600080fd5b506102e060048036038101906102db9190611cd2565b610cb6565b6040516102ed9190611db0565b60405180910390f35b34801561030257600080fd5b5061030b610ccb565b6040516103189190611dec565b60405180910390f35b34801561032d57600080fd5b5061034860048036038101906103439190611e07565b610cef565b005b34801561035657600080fd5b50610371600480360381019061036c9190611e47565b610f0b565b60405161037e9190611db0565b60405180910390f35b60007f4e2312e0000000000000000000000000000000000000000000000000000000007bffffffffffffffffffffffffffffffffffffffffffffffffffffffff1916827bffffffffffffffffffffffffffffffffffffffffffffffffffffffff191614806103fa57506103f982610f20565b5b9050919050565b600061040c33610f8a565b905090565b61041a336110cd565b565b736b175474e89094c44da98b954eedeac495271d0f73ffffffffffffffffffffffffffffffffffffffff168173ffffffffffffffffffffffffffffffffffffffff161461049e576040517f08c379a000000000000000000000000000000000000000000000000000000000815260040161049590611f3b565b60405180910390fd5b81600160003373ffffffffffffffffffffffffffffffffffffffff1673ffffffffffffffffffffffffffffffffffffffff16815260200190815260200160002060000160008282546104f09190611f8a565b925050819055508073ffffffffffffffffffffffffffffffffffffffff166323b872dd3330856040518463ffffffff1660e01b815260040161053493929190611fe0565b6020604051808303816000875af1158015610553573d6000803e3d6000fd5b505050506040513d601f19601f820116820180604052508101906105779190612043565b505050565b60025481565b3373ffffffffffffffffffffffffffffffffffffffff168373ffffffffffffffffffffffffffffffffffffffff16146105f0576040517f08c379a00000000000000000000000000000000000000000000000000000000081526004016105e7906120bc565b60405180910390fd5b60008073__PnLCalculator_________________________63896b198a600160003373ffffffffffffffffffffffffffffffffffffffff1673ffffffffffffffffffffffffffffffffffffffff168152602001908152602001600020600501600087815260200190815260200160002054856040518363ffffffff1660e01b815260040161067f9291906120eb565b6040805180830381865af415801561069b573d6000803e3d6000fd5b505050506040513d601f19601f820116820180604052508101906106bf9190612162565b60ff1691509150600081141561072d5781600160003373ffffffffffffffffffffffffffffffffffffffff1673ffffffffffffffffffffffffffffffffffffffff16815260200190815260200160002060000160008282546107219190611f8a565b925050819055506107aa565b60018114156107a95781600160003373ffffffffffffffffffffffffffffffffffffffff1673ffffffffffffffffffffffffffffffffffffffff168152602001908152602001600020600001600082825461078891906121a2565b9250508190555081600260008282546107a19190611f8a565b925050819055505b5b6000600160003373ffffffffffffffffffffffffffffffffffffffff1673ffffffffffffffffffffffffffffffffffffffff168152602001908152602001600020600601600086815260200190815260200160002060006101000a81548160ff0219169083151502179055505050505050565b60008054906101000a900473ffffffffffffffffffffffffffffffffffffffff1681565b600360009054906101000a900473ffffffffffffffffffffffffffffffffffffffff1681565b60016020528060005260406000206000915090508060000154908060010154908060020160009054906101000a900460ff16908060030154905084565b6000600160003373ffffffffffffffffffffffffffffffffffffffff1673ffffffffffffffffffffffffffffffffffffffff1681526020019081526020016000206000015485111561092b576040517f08c379a000000000000000000000000000000000000000000000000000000000815260040161092290612222565b60405180910390fd5b60018060003373ffffffffffffffffffffffffffffffffffffffff1673ffffffffffffffffffffffffffffffffffffffff168152602001908152602001600020600301600082825461097d9190611f8a565b9250508190555060006064605f876109959190612242565b61099f91906122cb565b90506109c1736b175474e89094c44da98b954eedeac495271d0f33308961118a565b610a00736b175474e89094c44da98b954eedeac495271d0f7f0000000000000000000000000000000000000000000000000000000000000000886112e2565b6000604051806101000160405280736b175474e89094c44da98b954eedeac495271d0f73ffffffffffffffffffffffffffffffffffffffff1681526020018773ffffffffffffffffffffffffffffffffffffffff1681526020018662ffffff1681526020013073ffffffffffffffffffffffffffffffffffffffff168152602001428152602001838152602001858152602001600073ffffffffffffffffffffffffffffffffffffffff1681525090507f000000000000000000000000000000000000000000000000000000000000000073ffffffffffffffffffffffffffffffffffffffff1663414bf389826040518263ffffffff1660e01b8152600401610b0991906123da565b6020604051808303816000875af1158015610b28573d6000803e3d6000fd5b505050506040513d601f19601f82011682018060405250810190610b4c91906123f6565b92506000610bb89050610b6333888389888a611437565b5080600160003373ffffffffffffffffffffffffffffffffffffffff1673ffffffffffffffffffffffffffffffffffffffff1681526020019081526020016000206005016000600160003373ffffffffffffffffffffffffffffffffffffffff1673ffffffffffffffffffffffffffffffffffffffff1681526020019081526020016000206003015481526020019081526020016000208190555060018060003373ffffffffffffffffffffffffffffffffffffffff1673ffffffffffffffffffffffffffffffffffffffff1681526020019081526020016000206006016000600160003373ffffffffffffffffffffffffffffffffffffffff1673ffffffffffffffffffffffffffffffffffffffff16815260200190815260200160002060030154815260200190815260200160002060006101000a81548160ff021916908315150217905550505050949350505050565b600063bc197c8160e01b905095945050505050565b7f000000000000000000000000000000000000000000000000000000000000000081565b600160003373ffffffffffffffffffffffffffffffffffffffff1673ffffffffffffffffffffffffffffffffffffffff16815260200190815260200160002060000154821115610d74576040517f08c379a0000000000000000000000000000000000000000000000000000000008152600401610d6b90612495565b60405180910390fd5b60001515600160003373ffffffffffffffffffffffffffffffffffffffff1673ffffffffffffffffffffffffffffffffffffffff168152602001908152602001600020600601600083815260200190815260200160002060009054906101000a900460ff16151514610e1b576040517f08c379a0000000000000000000000000000000000000000000000000000000008152600401610e129061254d565b60405180910390fd5b81600160003373ffffffffffffffffffffffffffffffffffffffff1673ffffffffffffffffffffffffffffffffffffffff1681526020019081526020016000206000016000828254610e6d91906121a2565b92505081905550736b175474e89094c44da98b954eedeac495271d0f73ffffffffffffffffffffffffffffffffffffffff1663a9059cbb33846040518363ffffffff1660e01b8152600401610ec392919061256d565b6020604051808303816000875af1158015610ee2573d6000803e3d6000fd5b505050506040513d601f19601f82011682018060405250810190610f069190612043565b505050565b600063f23a6e6160e01b905095945050505050565b60007f01ffc9a7000000000000000000000000000000000000000000000000000000007bffffffffffffffffffffffffffffffffffffffffffffffffffffffff1916827bffffffffffffffffffffffffffffffffffffffffffffffffffffffff1916149050919050565b600080600160008473ffffffffffffffffffffffffffffffffffffffff1673ffffffffffffffffffffffffffffffffffffffff16815260200190815260200160002060010154600254610fdd91906121a2565b9050736b175474e89094c44da98b954eedeac495271d0f73ffffffffffffffffffffffffffffffffffffffff166370a08231306040518263ffffffff1660e01b815260040161102c919061191b565b602060405180830381865afa158015611049573d6000803e3d6000fd5b505050506040513d601f19601f8201168201806040525081019061106d91906123f6565b81600160008673ffffffffffffffffffffffffffffffffffffffff1673ffffffffffffffffffffffffffffffffffffffff168152602001908152602001600020600001546110bb9190612242565b6110c591906122cb565b915050919050565b60006110d882610f8a565b905060008111156111865780600160008473ffffffffffffffffffffffffffffffffffffffff1673ffffffffffffffffffffffffffffffffffffffff16815260200190815260200160002060000160008282546111359190611f8a565b92505081905550600254600160008473ffffffffffffffffffffffffffffffffffffffff1673ffffffffffffffffffffffffffffffffffffffff168152602001908152602001600020600101819055505b5050565b6000808573ffffffffffffffffffffffffffffffffffffffff166323b872dd60e01b8686866040516024016111c193929190611fe0565b604051602081830303815290604052907bffffffffffffffffffffffffffffffffffffffffffffffffffffffff19166020820180517bffffffffffffffffffffffffffffffffffffffffffffffffffffffff838183161783525050505060405161122b9190612610565b6000604051808303816000865af19150503d8060008114611268576040519150601f19603f3d011682016040523d82523d6000602084013e61126d565b606091505b509150915081801561129b575060008151148061129a5750808060200190518101906112999190612043565b5b5b6112da576040517f08c379a00000000000000000000000000000000000000000000000000000000081526004016112d190612673565b60405180910390fd5b505050505050565b6000808473ffffffffffffffffffffffffffffffffffffffff1663095ea7b360e01b858560405160240161131792919061256d565b604051602081830303815290604052907bffffffffffffffffffffffffffffffffffffffffffffffffffffffff19166020820180517bffffffffffffffffffffffffffffffffffffffffffffffffffffffff83818316178352505050506040516113819190612610565b6000604051808303816000865af19150503d80600081146113be576040519150601f19603f3d011682016040523d82523d6000602084013e6113c3565b606091505b50915091508180156113f157506000815114806113f05750808060200190518101906113ef9190612043565b5b5b611430576040517f08c379a0000000000000000000000000000000000000000000000000000000008152600401611427906126df565b60405180910390fd5b5050505050565b6000611464867f0000000000000000000000000000000000000000000000000000000000000000856112e2565b60006040518061010001604052808873ffffffffffffffffffffffffffffffffffffffff168152602001736b175474e89094c44da98b954eedeac495271d0f73ffffffffffffffffffffffffffffffffffffffff1681526020018662ffffff1681526020013073ffffffffffffffffffffffffffffffffffffffff168152602001428152602001858152602001848152602001600073ffffffffffffffffffffffffffffffffffffffff1681525090507f000000000000000000000000000000000000000000000000000000000000000073ffffffffffffffffffffffffffffffffffffffff1663414bf389826040518263ffffffff1660e01b815260040161156d91906123da565b6020604051808303816000875af115801561158c573d6000803e3d6000fd5b505050506040513d601f19601f820116820180604052508101906115b091906123f6565b915081600160003373ffffffffffffffffffffffffffffffffffffffff1673ffffffffffffffffffffffffffffffffffffffff1681526020019081526020016000206004016000600160003373ffffffffffffffffffffffffffffffffffffffff1673ffffffffffffffffffffffffffffffffffffffff16815260200190815260200160002060030154815260200190815260200160002081905550600360009054906101000a900473ffffffffffffffffffffffffffffffffffffffff1673ffffffffffffffffffffffffffffffffffffffff1663c25df92d8930878b8b6040518663ffffffff1660e01b81526004016116af9594939291906126ff565b600060405180830381600087803b1580156116c957600080fd5b505af11580156116dd573d6000803e3d6000fd5b50505050509695505050505050565b6000604051905090565b600080fd5b600080fd5b60007fffffffff0000000000000000000000000000000000000000000000000000000082169050919050565b61173581611700565b811461174057600080fd5b50565b6000813590506117528161172c565b92915050565b60006020828403121561176e5761176d6116f6565b5b600061177c84828501611743565b91505092915050565b60008115159050919050565b61179a81611785565b82525050565b60006020820190506117b56000830184611791565b92915050565b6000819050919050565b6117ce816117bb565b82525050565b60006020820190506117e960008301846117c5565b92915050565b6117f8816117bb565b811461180357600080fd5b50565b600081359050611815816117ef565b92915050565b600073ffffffffffffffffffffffffffffffffffffffff82169050919050565b60006118468261181b565b9050919050565b6118568161183b565b811461186157600080fd5b50565b6000813590506118738161184d565b92915050565b600080604083850312156118905761188f6116f6565b5b600061189e85828601611806565b92505060206118af85828601611864565b9150509250929050565b6000806000606084860312156118d2576118d16116f6565b5b60006118e086828701611864565b93505060206118f186828701611806565b925050604061190286828701611806565b9150509250925092565b6119158161183b565b82525050565b6000602082019050611930600083018461190c565b92915050565b6000819050919050565b600061195b6119566119518461181b565b611936565b61181b565b9050919050565b600061196d82611940565b9050919050565b600061197f82611962565b9050919050565b61198f81611974565b82525050565b60006020820190506119aa6000830184611986565b92915050565b6000602082840312156119c6576119c56116f6565b5b60006119d484828501611864565b91505092915050565b60006080820190506119f260008301876117c5565b6119ff60208301866117c5565b611a0c6040830185611791565b611a1960608301846117c5565b95945050505050565b600062ffffff82169050919050565b611a3a81611a22565b8114611a4557600080fd5b50565b600081359050611a5781611a31565b92915050565b60008060008060808587031215611a7757611a766116f6565b5b6000611a8587828801611806565b9450506020611a9687828801611864565b9350506040611aa787828801611a48565b9250506060611ab887828801611806565b91505092959194509250565b600080fd5b6000601f19601f8301169050919050565b7f4e487b7100000000000000000000000000000000000000000000000000000000600052604160045260246000fd5b611b1282611ac9565b810181811067ffffffffffffffff82111715611b3157611b30611ada565b5b80604052505050565b6000611b446116ec565b9050611b508282611b09565b919050565b600067ffffffffffffffff821115611b7057611b6f611ada565b5b602082029050602081019050919050565b600080fd5b6000611b99611b9484611b55565b611b3a565b90508083825260208201905060208402830185811115611bbc57611bbb611b81565b5b835b81811015611be55780611bd18882611806565b845260208401935050602081019050611bbe565b5050509392505050565b600082601f830112611c0457611c03611ac4565b5b8135611c14848260208601611b86565b91505092915050565b600080fd5b600067ffffffffffffffff821115611c3d57611c3c611ada565b5b611c4682611ac9565b9050602081019050919050565b82818337600083830152505050565b6000611c75611c7084611c22565b611b3a565b905082815260208101848484011115611c9157611c90611c1d565b5b611c9c848285611c53565b509392505050565b600082601f830112611cb957611cb8611ac4565b5b8135611cc9848260208601611c62565b91505092915050565b600080600080600060a08688031215611cee57611ced6116f6565b5b6000611cfc88828901611864565b9550506020611d0d88828901611864565b945050604086013567ffffffffffffffff811115611d2e57611d2d6116fb565b5b611d3a88828901611bef565b935050606086013567ffffffffffffffff811115611d5b57611d5a6116fb565b5b611d6788828901611bef565b925050608086013567ffffffffffffffff811115611d8857611d876116fb565b5b611d9488828901611ca4565b9150509295509295909350565b611daa81611700565b82525050565b6000602082019050611dc56000830184611da1565b92915050565b6000611dd682611962565b9050919050565b611de681611dcb565b82525050565b6000602082019050611e016000830184611ddd565b92915050565b60008060408385031215611e1e57611e1d6116f6565b5b6000611e2c85828601611806565b9250506020611e3d85828601611806565b9150509250929050565b600080600080600060a08688031215611e6357611e626116f6565b5b6000611e7188828901611864565b9550506020611e8288828901611864565b9450506040611e9388828901611806565b9350506060611ea488828901611806565b925050608086013567ffffffffffffffff811115611ec557611ec46116fb565b5b611ed188828901611ca4565b9150509295509295909350565b600082825260208201905092915050565b7f5354414e4441524420504f4f4c3a204e6f742044414900000000000000000000600082015250565b6000611f25601683611ede565b9150611f3082611eef565b602082019050919050565b60006020820190508181036000830152611f5481611f18565b9050919050565b7f4e487b7100000000000000000000000000000000000000000000000000000000600052601160045260246000fd5b6000611f95826117bb565b9150611fa0836117bb565b9250827fffffffffffffffffffffffffffffffffffffffffffffffffffffffffffffffff03821115611fd557611fd4611f5b565b5b828201905092915050565b6000606082019050611ff5600083018661190c565b612002602083018561190c565b61200f60408301846117c5565b949350505050565b61202081611785565b811461202b57600080fd5b50565b60008151905061203d81612017565b92915050565b600060208284031215612059576120586116f6565b5b60006120678482850161202e565b91505092915050565b7f434c4f53453a204e6f7420796f757220706f736974696f6e0000000000000000600082015250565b60006120a6601883611ede565b91506120b182612070565b602082019050919050565b600060208201905081810360008301526120d581612099565b9050919050565b6120e5816117bb565b82525050565b600060408201905061210060008301856120dc565b61210d60208301846120dc565b9392505050565b600081519050612123816117ef565b92915050565b600060ff82169050919050565b61213f81612129565b811461214a57600080fd5b50565b60008151905061215c81612136565b92915050565b60008060408385031215612179576121786116f6565b5b600061218785828601612114565b92505060206121988582860161214d565b9150509250929050565b60006121ad826117bb565b91506121b8836117bb565b9250828210156121cb576121ca611f5b565b5b828203905092915050565b7f535741503a206e6f7420656e6f75676820636f6c6c61746572616c0000000000600082015250565b600061220c601b83611ede565b9150612217826121d6565b602082019050919050565b6000602082019050818103600083015261223b816121ff565b9050919050565b600061224d826117bb565b9150612258836117bb565b9250817fffffffffffffffffffffffffffffffffffffffffffffffffffffffffffffffff048311821515161561229157612290611f5b565b5b828202905092915050565b7f4e487b7100000000000000000000000000000000000000000000000000000000600052601260045260246000fd5b60006122d6826117bb565b91506122e1836117bb565b9250826122f1576122f061229c565b5b828204905092915050565b6123058161183b565b82525050565b61231481611a22565b82525050565b612323816117bb565b82525050565b6123328161181b565b82525050565b6101008201600082015161234f60008501826122fc565b50602082015161236260208501826122fc565b506040820151612375604085018261230b565b50606082015161238860608501826122fc565b50608082015161239b608085018261231a565b5060a08201516123ae60a085018261231a565b5060c08201516123c160c085018261231a565b5060e08201516123d460e0850182612329565b50505050565b6000610100820190506123f06000830184612338565b92915050565b60006020828403121561240c5761240b6116f6565b5b600061241a84828501612114565b91505092915050565b7f434f4c4c41544552414c3a20747279696e6720746f207769746864726177206d60008201527f6f726520636f6c6c61746572616c207468616e206465706f7369746564000000602082015250565b600061247f603d83611ede565b915061248a82612423565b604082019050919050565b600060208201905081810360008301526124ae81612472565b9050919050565b7f434f4c4c41544552414c3a20636c6f736520796f75722063757272656e74207060008201527f6f736974696f6e206265666f726520747279696e6720746f207769746864726160208201527f7700000000000000000000000000000000000000000000000000000000000000604082015250565b6000612537604183611ede565b9150612542826124b5565b606082019050919050565b600060208201905081810360008301526125668161252a565b9050919050565b6000604082019050612582600083018561190c565b61258f60208301846117c5565b9392505050565b600081519050919050565b600081905092915050565b60005b838110156125ca5780820151818401526020810190506125af565b838111156125d9576000848401525b50505050565b60006125ea82612596565b6125f481856125a1565b93506126048185602086016125ac565b80840191505092915050565b600061261c82846125df565b915081905092915050565b7f5354460000000000000000000000000000000000000000000000000000000000600082015250565b600061265d600383611ede565b915061266882612627565b602082019050919050565b6000602082019050818103600083015261268c81612650565b9050919050565b7f5341000000000000000000000000000000000000000000000000000000000000600082015250565b60006126c9600283611ede565b91506126d482612693565b602082019050919050565b600060208201905081810360008301526126f8816126bc565b9050919050565b600060a082019050612714600083018861190c565b612721602083018761190c565b61272e60408301866117c5565b61273b606083018561190c565b61274860808301846117c5565b969550505050505056fea264697066735822122087c695b1a6276897e5fe667c11d186be7bdd9b8a5b149615f568b917045cb92164736f6c634300080a0033",
  "immutableReferences": {
    "2109": [
      {
        "length": 32,
        "start": 2523
      },
      {
        "length": 32,
        "start": 2738
      },
      {
        "length": 32,
        "start": 3277
      },
      {
        "length": 32,
        "start": 5183
      },
      {
        "length": 32,
        "start": 5398
      }
    ]
  },
  "source": "// SPDX-License-Identifier: MIT\npragma solidity ^0.8.0; //solhint-disable compiler-fixed\npragma abicoder v2;\n\n\nimport \"@openzeppelin/contracts/token/ERC1155/IERC1155.sol\";\nimport \"@openzeppelin/contracts/token/ERC1155/utils/ERC1155Holder.sol\";\nimport \"@uniswap/v3-periphery/contracts/interfaces/ISwapRouter.sol\";\nimport \"@uniswap/v3-periphery/contracts/libraries/TransferHelper.sol\";\nimport \"@openzeppelin/contracts/token/ERC20/IERC20.sol\";\nimport \"./BeraWrapper.sol\";\nimport \"./ancillary/PnLCalculator.sol\";\n\n\ncontract BeraPoolStandardRisk is ERC1155Holder {\n\n    address public owner;\n\n    struct Account {\n        uint userDepositBalance;\n        uint lastClaimedRewards;\n        bool hasCollateral;\n        uint userShortID;\n        mapping(uint => uint) userShortBalanceByID;\n        mapping(uint => uint) entryPrices;\n        mapping(uint => bool) isPositionInShort;\n    }\n\n    mapping(address => Account) public users;\n    // mapping(address => uint) public userDepositBalance;\n    // mapping(address => mapping(uint => uint)) public userShortBalance;\n    // mapping(address => uint) internal userShortID;\n    // mapping(address => bool) internal hasCollateral;\n    // //nested mapping so multiple positions can be opened by the same user\n    // mapping(address => mapping(uint => uint)) public entryPrices;\n    // //stores which position is in a short for withdraw purposes later\n    // mapping(address => mapping(uint => bool)) internal inShort; //stores whether user is currently in a position\n\n    uint public globalRewards;\n\n    address private constant DAI_ADDRESS = 0x6B175474E89094C44Da98b954EedeAC495271d0F;\n\n    ISwapRouter public immutable swapRouter;\n    BeraWrapper public beraWrapper;\n\n    constructor(ISwapRouter _swapRouter,\n        BeraWrapper _beraWrapper) { //solhint-disable func-visibility\n        owner = msg.sender;\n        swapRouter = _swapRouter;\n        beraWrapper = _beraWrapper;\n    }\n\n    function depositCollateral(uint amount, address collateral) external {\n        require(IERC20(collateral) == IERC20(DAI_ADDRESS), \"STANDARD POOL: Not DAI\");\n\n        //we use the hasCollateral mapping to avoid having to loop through the array when removing\n        //the user from the users who receive the distribution of funds for yield\n\n        //used for withdrawl later\n        users[msg.sender].userDepositBalance += amount;\n\n        //transfer DAI to this contract\n        IERC20(collateral).transferFrom(msg.sender, address(this), amount);\n    }\n\n    function withdrawFromPool(uint amount, uint _userShortID) external {\n        require(amount <= users[msg.sender].userDepositBalance,\n            \"COLLATERAL: trying to withdraw more collateral than deposited\");\n\n        //checking if the funds locked in the position have been released before allowing them to be withdrawn\n        require(users[msg.sender].isPositionInShort[_userShortID] == false,\n            \"COLLATERAL: close your current position before trying to withdraw\");\n\n        //reset balance of user on withdraw\n        users[msg.sender].userDepositBalance -= amount;\n        //\n        // if (userDepositBalance[msg.sender] == 0) {\n        //     hasCollateral[msg.sender] = false;\n        // }\n\n        IERC20(DAI_ADDRESS).transfer(msg.sender, amount);\n    }\n\n    //used to claim the profit rewards from being in the pool\n    function claimRewards() external {\n        sendOwedProfits(msg.sender);\n    }\n\n    // deposit collateral into user account before being allowed to short\n    function swapAndShortStandard(\n            uint amount,\n            address tokenToShort,\n            uint24 poolFee, //needed for uniswap pool\n            uint amountOutMin)\n            external returns(uint amountOut) { //solhint-disable function-max-lines\n                require(amount <= users[msg.sender].userDepositBalance, \"SWAP: not enough collateral\");\n\n                //TODO\n                //update userDepositBalance -= amount;\n\n                //by default uints are initialized at 0 so this should work???\n                users[msg.sender].userShortID += 1;\n\n                //keeping 5% of dai in contract to be distributed to liq providers on loss of pool\n                uint amountToSend = amount * 95 / 100;\n\n                TransferHelper.safeTransferFrom(DAI_ADDRESS, msg.sender, address(this), amount);\n                TransferHelper.safeApprove(DAI_ADDRESS, address(swapRouter), amount);\n\n                ISwapRouter.ExactInputSingleParams memory params =\n                ISwapRouter.ExactInputSingleParams({\n                    tokenIn: DAI_ADDRESS,\n                    tokenOut: tokenToShort,\n                    fee: poolFee,\n                    recipient: address(this),\n                    deadline: block.timestamp, //solhint-disable not-rely-on-time\n                    amountIn: amountToSend,\n                    amountOutMinimum: amountOutMin,\n                    sqrtPriceLimitX96: 0\n                });\n\n                //execute the frist swap\n                amountOut = swapRouter.exactInputSingle(params);\n\n                //Call twapPriceOracle here or find a better way to capture price\n                //TODO: Price wrapping\n                //TEST ONLY\n                uint priceAtWrap = 3000;\n\n                //execute the second swap and transfer funds to pool for holding\n                _shortForUser(\n                    msg.sender,\n                    tokenToShort,\n                    priceAtWrap,\n                    poolFee,\n                    amountOut,\n                    amountOutMin\n                );\n\n                //update entry price mapping\n                //this stores the entry price of msg.sender for this specific shortID of msg.sender\n                //nested mappings look cringe but are efficient\n                users[msg.sender].entryPrices[users[msg.sender].userShortID] = priceAtWrap;\n\n                //update userPositionNumber current short status\n                // inShort[msg.sender][userShortID[msg.sender]] = true;\n                users[msg.sender].isPositionInShort[users[msg.sender].userShortID] = true;\n\n            }\n\n    //TODO\n    //contract already has the DAI needed to close the trade, can just check the price and\n    //calculate the difference between the opening and closing prices, no need for expensive swaps\n    //in the standardPool contract\n    function closeShortStandardPool(\n        address user,\n        uint _userShortID,\n        uint priceAtClose)\n        external {\n            require(user == msg.sender, \"CLOSE: Not your position\");\n\n            //TODO\n            //require priceAtClose == twapPriceOracle();\n\n            //calculate position balance using entryPrices vs current price\n            //returnValue of 0 indicates a winning trade, while 1 indicates a loss\n            (uint amountPNL, uint returnValue) =\n            PnLCalculator.calculatePNL(users[msg.sender].entryPrices[_userShortID], priceAtClose);\n\n            // //check if user has enough collateral and does not carry a negative balance\n            // if (amountToSend <= userDepositBalance[msg.sender] && returnValue == 1) {\n            //     //TODO\n            //     //liquidateUser();\n            //     //include distribution of funds\n            // }\n\n            //if user has made money, we update their balance directly\n            if (returnValue == 0) {\n                users[msg.sender].userDepositBalance += amountPNL;\n            } else if (returnValue == 1) {\n                //distribute user loss amongst pool if losing short\n                users[msg.sender].userDepositBalance -= amountPNL;\n                globalRewards += amountPNL;\n            }\n\n            //update current userPositionNumber to free withdraws of these specific funds\n            // inShort[msg.sender][_userShortID] = false;\n            users[msg.sender].isPositionInShort[_userShortID] = false;\n\n        }\n\n    function checkRewards() external view returns (uint profits) {\n        return profits = checkOwedProfits(msg.sender);\n    }\n\n    function _shortForUser(\n        address user,\n        address tokenToShort,\n        uint priceAtWrap,\n        uint24 poolFee,\n        uint amount,\n        uint amountOutMin) internal returns(uint amountOut) {\n        //funds are currently in the contract, so no need to swap back and forth anymore\n        //should just be able to call the second swap\n\n        TransferHelper.safeApprove(tokenToShort, address(swapRouter), amount);\n\n        //now that this contract has the desired token to short, we sell @ market back for DAI\n        ISwapRouter.ExactInputSingleParams memory tokenParams =\n        ISwapRouter.ExactInputSingleParams({\n            tokenIn: tokenToShort,\n            tokenOut: DAI_ADDRESS,\n            fee: poolFee,\n            recipient: address(this), //the pool contract will store both DAI from deposits and tokenOut\n            deadline: block.timestamp, //solhint-disable not-rely-on-time\n            amountIn: amount,\n            amountOutMinimum: amountOutMin,\n            sqrtPriceLimitX96: 0\n        });\n\n        // execute the short, amountOut is wETH in this test case\n        amountOut = swapRouter.exactInputSingle(tokenParams);\n\n        //update user balance of the user current positionID\n        //this is used to keep track of how much of the users deposit is currently being used\n        //userShortBalance[msg.sender][userShortID[msg.sender]] = amountOut;\n        users[msg.sender].userShortBalanceByID[users[msg.sender].userShortID] = amountOut;\n\n        //wrap position in ERC1155\n        beraWrapper.wrapPosition(user, address(this), amount, tokenToShort, priceAtWrap);\n    }\n\n    //the percentage reward is based on the last time they claimed vs the total reward calculated\n    //this will allow us to avoid using a loop for reward distribution\n    //and allow users to pull their own rewards when they want\n    function checkOwedProfits(address user) internal view returns (uint) {\n        uint percentageReward = globalRewards - users[user].lastClaimedRewards;\n        return users[user].userDepositBalance * percentageReward / IERC20(DAI_ADDRESS).balanceOf(address(this));\n    }\n\n    function sendOwedProfits(address user) internal {\n        uint owed = checkOwedProfits(user);\n        if (owed > 0) {\n            users[user].userDepositBalance += owed;\n            users[user].lastClaimedRewards = globalRewards;\n        }\n    }\n\n    receive() external payable { //solhint-disable state-visibility\n\n}\n\n    fallback() external payable { //solhint-disable\n\n}\n\n}\n",
  "sourcePath": "/home/kevin/Code/solidity_projects/beraMarket/contracts/BeraPoolStandardRisk.sol",
  "compiler": {
    "name": "solc",
    "version": "0.8.10+commit.fc410830.Emscripten.clang"
  },
  "schemaVersion": "3.4.3",
  "updatedAt": "2021-12-17T18:25:26.780Z",
  "devdoc": {
    "kind": "dev",
    "methods": {
      "supportsInterface(bytes4)": {
        "details": "See {IERC165-supportsInterface}."
      }
    },
    "version": 1
  },
  "userdoc": {
    "kind": "user",
    "methods": {},
    "version": 1
  }
}