{
  "contractName": "BeraPoolStandardRisk",
  "abi": [
    {
      "inputs": [
        {
          "internalType": "contract ISwapRouter",
          "name": "_swapRouter",
          "type": "address"
        },
        {
          "internalType": "contract BeraWrapper",
          "name": "_beraWrapper",
          "type": "address"
        }
      ],
      "stateMutability": "nonpayable",
      "type": "constructor"
    },
    {
      "stateMutability": "payable",
      "type": "fallback",
      "payable": true
    },
    {
      "inputs": [],
      "name": "beraWrapper",
      "outputs": [
        {
          "internalType": "contract BeraWrapper",
          "name": "",
          "type": "address"
        }
      ],
      "stateMutability": "view",
      "type": "function",
      "constant": true
    },
    {
      "inputs": [],
      "name": "globalRewards",
      "outputs": [
        {
          "internalType": "uint256",
          "name": "",
          "type": "uint256"
        }
      ],
      "stateMutability": "view",
      "type": "function",
      "constant": true
    },
    {
      "inputs": [
        {
          "internalType": "address",
          "name": "",
          "type": "address"
        },
        {
          "internalType": "address",
          "name": "",
          "type": "address"
        },
        {
          "internalType": "uint256[]",
          "name": "",
          "type": "uint256[]"
        },
        {
          "internalType": "uint256[]",
          "name": "",
          "type": "uint256[]"
        },
        {
          "internalType": "bytes",
          "name": "",
          "type": "bytes"
        }
      ],
      "name": "onERC1155BatchReceived",
      "outputs": [
        {
          "internalType": "bytes4",
          "name": "",
          "type": "bytes4"
        }
      ],
      "stateMutability": "nonpayable",
      "type": "function"
    },
    {
      "inputs": [
        {
          "internalType": "address",
          "name": "",
          "type": "address"
        },
        {
          "internalType": "address",
          "name": "",
          "type": "address"
        },
        {
          "internalType": "uint256",
          "name": "",
          "type": "uint256"
        },
        {
          "internalType": "uint256",
          "name": "",
          "type": "uint256"
        },
        {
          "internalType": "bytes",
          "name": "",
          "type": "bytes"
        }
      ],
      "name": "onERC1155Received",
      "outputs": [
        {
          "internalType": "bytes4",
          "name": "",
          "type": "bytes4"
        }
      ],
      "stateMutability": "nonpayable",
      "type": "function"
    },
    {
      "inputs": [],
      "name": "owner",
      "outputs": [
        {
          "internalType": "address",
          "name": "",
          "type": "address"
        }
      ],
      "stateMutability": "view",
      "type": "function",
      "constant": true
    },
    {
      "inputs": [
        {
          "internalType": "bytes4",
          "name": "interfaceId",
          "type": "bytes4"
        }
      ],
      "name": "supportsInterface",
      "outputs": [
        {
          "internalType": "bool",
          "name": "",
          "type": "bool"
        }
      ],
      "stateMutability": "view",
      "type": "function",
      "constant": true
    },
    {
      "inputs": [],
      "name": "swapRouter",
      "outputs": [
        {
          "internalType": "contract ISwapRouter",
          "name": "",
          "type": "address"
        }
      ],
      "stateMutability": "view",
      "type": "function",
      "constant": true
    },
    {
      "inputs": [
        {
          "internalType": "address",
          "name": "",
          "type": "address"
        }
      ],
      "name": "users",
      "outputs": [
        {
          "internalType": "uint256",
          "name": "userDepositBalance",
          "type": "uint256"
        },
        {
          "internalType": "uint256",
          "name": "lastClaimedRewards",
          "type": "uint256"
        },
        {
          "internalType": "uint256",
          "name": "userShortID",
          "type": "uint256"
        }
      ],
      "stateMutability": "view",
      "type": "function",
      "constant": true
    },
    {
      "stateMutability": "payable",
      "type": "receive",
      "payable": true
    },
    {
      "inputs": [
        {
          "internalType": "uint256",
          "name": "amount",
          "type": "uint256"
        },
        {
          "internalType": "address",
          "name": "collateral",
          "type": "address"
        }
      ],
      "name": "depositCollateral",
      "outputs": [],
      "stateMutability": "nonpayable",
      "type": "function"
    },
    {
      "inputs": [
        {
          "internalType": "uint256",
          "name": "amount",
          "type": "uint256"
        },
        {
          "internalType": "uint256",
          "name": "_userShortID",
          "type": "uint256"
        }
      ],
      "name": "withdrawFromPool",
      "outputs": [],
      "stateMutability": "nonpayable",
      "type": "function"
    },
    {
      "inputs": [],
      "name": "claimRewards",
      "outputs": [],
      "stateMutability": "nonpayable",
      "type": "function"
    },
    {
      "inputs": [
        {
          "internalType": "uint256",
          "name": "amount",
          "type": "uint256"
        },
        {
          "internalType": "address",
          "name": "tokenToShort",
          "type": "address"
        },
        {
          "internalType": "uint24",
          "name": "poolFee",
          "type": "uint24"
        },
        {
          "internalType": "uint256",
          "name": "amountOutMin",
          "type": "uint256"
        }
      ],
      "name": "swapAndShortStandard",
      "outputs": [
        {
          "internalType": "uint256",
          "name": "amountOut",
          "type": "uint256"
        }
      ],
      "stateMutability": "nonpayable",
      "type": "function"
    },
    {
      "inputs": [
        {
          "internalType": "address",
          "name": "user",
          "type": "address"
        },
        {
          "internalType": "address",
          "name": "to",
          "type": "address"
        },
        {
          "internalType": "uint256",
          "name": "position",
          "type": "uint256"
        }
      ],
      "name": "liquidateUser",
      "outputs": [],
      "stateMutability": "nonpayable",
      "type": "function"
    },
    {
      "inputs": [
        {
          "internalType": "address",
          "name": "user",
          "type": "address"
        }
      ],
      "name": "getTotalCollateral",
      "outputs": [
        {
          "internalType": "uint256",
          "name": "totalCollateral",
          "type": "uint256"
        }
      ],
      "stateMutability": "view",
      "type": "function",
      "constant": true
    },
    {
      "inputs": [
        {
          "internalType": "address",
          "name": "user",
          "type": "address"
        }
      ],
      "name": "checkRewards",
      "outputs": [
        {
          "internalType": "uint256",
          "name": "profits",
          "type": "uint256"
        }
      ],
      "stateMutability": "view",
      "type": "function",
      "constant": true
    },
    {
      "inputs": [],
      "name": "getGlobalRewards",
      "outputs": [
        {
          "internalType": "uint256",
          "name": "globals",
          "type": "uint256"
        }
      ],
      "stateMutability": "view",
      "type": "function",
      "constant": true
    },
    {
      "inputs": [
        {
          "internalType": "address",
          "name": "user",
          "type": "address"
        },
        {
          "internalType": "uint256",
          "name": "shortID",
          "type": "uint256"
        }
      ],
      "name": "getUserShortBalance",
      "outputs": [
        {
          "internalType": "uint256",
          "name": "bal",
          "type": "uint256"
        }
      ],
      "stateMutability": "view",
      "type": "function",
      "constant": true
    },
    {
      "inputs": [
        {
          "internalType": "address",
          "name": "user",
          "type": "address"
        },
        {
          "internalType": "uint256",
          "name": "shortID",
          "type": "uint256"
        }
      ],
      "name": "getUserEntryPrice",
      "outputs": [
        {
          "internalType": "uint256",
          "name": "entry",
          "type": "uint256"
        }
      ],
      "stateMutability": "view",
      "type": "function",
      "constant": true
    },
    {
      "inputs": [
        {
          "internalType": "address",
          "name": "user",
          "type": "address"
        },
        {
          "internalType": "uint256",
          "name": "shortID",
          "type": "uint256"
        }
      ],
      "name": "getUserShortBool",
      "outputs": [
        {
          "internalType": "bool",
          "name": "isShort",
          "type": "bool"
        }
      ],
      "stateMutability": "view",
      "type": "function",
      "constant": true
    },
    {
      "inputs": [
        {
          "internalType": "address",
          "name": "user",
          "type": "address"
        },
        {
          "internalType": "address",
          "name": "liquidator",
          "type": "address"
        },
        {
          "internalType": "uint256",
          "name": "_userShortID",
          "type": "uint256"
        },
        {
          "internalType": "uint256",
          "name": "priceAtClose",
          "type": "uint256"
        }
      ],
      "name": "closeShortStandardPool",
      "outputs": [],
      "stateMutability": "nonpayable",
      "type": "function"
    }
  ],
  "bytecode": "0x60a06040523480156200001157600080fd5b506040516200335f3803806200335f8339818101604052810190620000379190620001b7565b336000806101000a81548173ffffffffffffffffffffffffffffffffffffffff021916908373ffffffffffffffffffffffffffffffffffffffff1602179055508173ffffffffffffffffffffffffffffffffffffffff1660808173ffffffffffffffffffffffffffffffffffffffff168152505080600360006101000a81548173ffffffffffffffffffffffffffffffffffffffff021916908373ffffffffffffffffffffffffffffffffffffffff1602179055505050620001fe565b600080fd5b600073ffffffffffffffffffffffffffffffffffffffff82169050919050565b60006200012682620000f9565b9050919050565b60006200013a8262000119565b9050919050565b6200014c816200012d565b81146200015857600080fd5b50565b6000815190506200016c8162000141565b92915050565b60006200017f8262000119565b9050919050565b620001918162000172565b81146200019d57600080fd5b50565b600081519050620001b18162000186565b92915050565b60008060408385031215620001d157620001d0620000f4565b5b6000620001e1858286016200015b565b9250506020620001f485828601620001a0565b9150509250929050565b60805161312962000236600039600081816111c201528181611299015281816114b401528181611c260152611cfd01526131296000f3fe6080604052600436106101235760003560e01c80637423031e116100a0578063aac28b5411610064578063aac28b5414610417578063bc197c8114610454578063c31c9c0714610491578063ef1b3166146104bc578063f23a6e61146104e55761012a565b80637423031e1461032c57806380a0b0fc146103575780638da5cb5b14610382578063a29aa114146103ad578063a87430ba146103d85761012a565b806319222820116100e75780631922282014610249578063372500ab14610272578063481fef8a146102895780635e169136146102b257806360a98b80146102ef5761012a565b806301ffc9a71461012c578063028bdf7c14610169578063046ff0d3146101a657806309d3e9c3146101e35780630ea99f40146102205761012a565b3661012a57005b005b34801561013857600080fd5b50610153600480360381019061014e9190611f3f565b610522565b6040516101609190611f87565b60405180910390f35b34801561017557600080fd5b50610190600480360381019061018b9190612036565b61059c565b60405161019d9190611f87565b60405180910390f35b3480156101b257600080fd5b506101cd60048036038101906101c89190612076565b610607565b6040516101da91906120b2565b60405180910390f35b3480156101ef57600080fd5b5061020a60048036038101906102059190612036565b610619565b60405161021791906120b2565b60405180910390f35b34801561022c57600080fd5b50610247600480360381019061024291906120cd565b610677565b005b34801561025557600080fd5b50610270600480360381019061026b9190612120565b61083c565b005b34801561027e57600080fd5b50610287610cd4565b005b34801561029557600080fd5b506102b060048036038101906102ab9190612187565b610cdf565b005b3480156102be57600080fd5b506102d960048036038101906102d49190612036565b610e3f565b6040516102e691906120b2565b60405180910390f35b3480156102fb57600080fd5b5061031660048036038101906103119190612076565b610e9d565b60405161032391906120b2565b60405180910390f35b34801561033857600080fd5b50610341610f68565b60405161034e91906120b2565b60405180910390f35b34801561036357600080fd5b5061036c610f6e565b60405161037991906120b2565b60405180910390f35b34801561038e57600080fd5b50610397610f78565b6040516103a491906121d6565b60405180910390f35b3480156103b957600080fd5b506103c2610f9c565b6040516103cf9190612250565b60405180910390f35b3480156103e457600080fd5b506103ff60048036038101906103fa9190612076565b610fc2565b60405161040e9392919061226b565b60405180910390f35b34801561042357600080fd5b5061043e600480360381019061043991906122dd565b610fec565b60405161044b91906120b2565b60405180910390f35b34801561046057600080fd5b5061047b60048036038101906104769190612552565b61149d565b6040516104889190612630565b60405180910390f35b34801561049d57600080fd5b506104a66114b2565b6040516104b3919061266c565b60405180910390f35b3480156104c857600080fd5b506104e360048036038101906104de9190612687565b6114d6565b005b3480156104f157600080fd5b5061050c600480360381019061050791906126c7565b6116f2565b6040516105199190612630565b60405180910390f35b60007f4e2312e0000000000000000000000000000000000000000000000000000000007bffffffffffffffffffffffffffffffffffffffffffffffffffffffff1916827bffffffffffffffffffffffffffffffffffffffffffffffffffffffff19161480610595575061059482611707565b5b9050919050565b6000600160008473ffffffffffffffffffffffffffffffffffffffff1673ffffffffffffffffffffffffffffffffffffffff168152602001908152602001600020600501600083815260200190815260200160002060009054906101000a900460ff16905092915050565b600061061282611771565b9050919050565b6000600160008473ffffffffffffffffffffffffffffffffffffffff1673ffffffffffffffffffffffffffffffffffffffff168152602001908152602001600020600301600083815260200190815260200160002054905092915050565b6000610bb86106868584610e3f565b610690919061278d565b9050600160008573ffffffffffffffffffffffffffffffffffffffff1673ffffffffffffffffffffffffffffffffffffffff168152602001908152602001600020600001548111610716576040517f08c379a000000000000000000000000000000000000000000000000000000000815260040161070d9061281e565b60405180910390fd5b60011515600160008673ffffffffffffffffffffffffffffffffffffffff1673ffffffffffffffffffffffffffffffffffffffff168152602001908152602001600020600501600084815260200190815260200160002060009054906101000a900460ff161515146107bd576040517f08c379a00000000000000000000000000000000000000000000000000000000081526004016107b49061288a565b60405180910390fd5b60018060008673ffffffffffffffffffffffffffffffffffffffff1673ffffffffffffffffffffffffffffffffffffffff168152602001908152602001600020600601600084815260200190815260200160002060006101000a81548160ff021916908315150217905550610836848484610bb861083c565b50505050565b3373ffffffffffffffffffffffffffffffffffffffff168473ffffffffffffffffffffffffffffffffffffffff16146108aa576040517f08c379a00000000000000000000000000000000000000000000000000000000081526004016108a1906128f6565b60405180910390fd5b600360009054906101000a900473ffffffffffffffffffffffffffffffffffffffff1673ffffffffffffffffffffffffffffffffffffffff1663b9e17b7685846040518363ffffffff1660e01b8152600401610907929190612916565b600060405180830381600087803b15801561092157600080fd5b505af1158015610935573d6000803e3d6000fd5b5050505060008073__PnLCalculator_________________________63896b198a600160003373ffffffffffffffffffffffffffffffffffffffff1673ffffffffffffffffffffffffffffffffffffffff168152602001908152602001600020600401600087815260200190815260200160002054856040518363ffffffff1660e01b81526004016109c892919061294e565b6040805180830381865af41580156109e4573d6000803e3d6000fd5b505050506040513d601f19601f82011682018060405250810190610a0891906129c5565b60ff16915091506000811415610a765781600160003373ffffffffffffffffffffffffffffffffffffffff1673ffffffffffffffffffffffffffffffffffffffff1681526020019081526020016000206000016000828254610a6a9190612a05565b92505081905550610c07565b6001811415610c065781600160003373ffffffffffffffffffffffffffffffffffffffff1673ffffffffffffffffffffffffffffffffffffffff1681526020019081526020016000206000016000828254610ad1919061278d565b9250508190555060011515600160008873ffffffffffffffffffffffffffffffffffffffff1673ffffffffffffffffffffffffffffffffffffffff168152602001908152602001600020600601600086815260200190815260200160002060009054906101000a900460ff1615151415610beb5760006064603284610b569190612a5b565b610b609190612ae4565b905060008184610b70919061278d565b905080600160008973ffffffffffffffffffffffffffffffffffffffff1673ffffffffffffffffffffffffffffffffffffffff1681526020019081526020016000206000016000828254610bc49190612a05565b925050819055508160026000828254610bdd9190612a05565b925050819055505050610c05565b8160026000828254610bfd9190612a05565b925050819055505b5b5b6000600160003373ffffffffffffffffffffffffffffffffffffffff1673ffffffffffffffffffffffffffffffffffffffff168152602001908152602001600020600501600086815260200190815260200160002060006101000a81548160ff0219169083151502179055506000600160003373ffffffffffffffffffffffffffffffffffffffff1673ffffffffffffffffffffffffffffffffffffffff168152602001908152602001600020600301600086815260200190815260200160002081905550505050505050565b610cdd336118b4565b565b736b175474e89094c44da98b954eedeac495271d0f73ffffffffffffffffffffffffffffffffffffffff168173ffffffffffffffffffffffffffffffffffffffff1614610d61576040517f08c379a0000000000000000000000000000000000000000000000000000000008152600401610d5890612b61565b60405180910390fd5b81600160003373ffffffffffffffffffffffffffffffffffffffff1673ffffffffffffffffffffffffffffffffffffffff1681526020019081526020016000206000016000828254610db39190612a05565b925050819055508073ffffffffffffffffffffffffffffffffffffffff166323b872dd3330856040518463ffffffff1660e01b8152600401610df793929190612b81565b6020604051808303816000875af1158015610e16573d6000803e3d6000fd5b505050506040513d601f19601f82011682018060405250810190610e3a9190612be4565b505050565b6000600160008473ffffffffffffffffffffffffffffffffffffffff1673ffffffffffffffffffffffffffffffffffffffff168152602001908152602001600020600401600083815260200190815260200160002054905092915050565b600080600090505b600160008473ffffffffffffffffffffffffffffffffffffffff1673ffffffffffffffffffffffffffffffffffffffff168152602001908152602001600020600201548111610f6257600160008473ffffffffffffffffffffffffffffffffffffffff1673ffffffffffffffffffffffffffffffffffffffff16815260200190815260200160002060030160008281526020019081526020016000205482610f4d9190612a05565b91508080610f5a90612c11565b915050610ea5565b50919050565b60025481565b6000600254905090565b60008054906101000a900473ffffffffffffffffffffffffffffffffffffffff1681565b600360009054906101000a900473ffffffffffffffffffffffffffffffffffffffff1681565b60016020528060005260406000206000915090508060000154908060010154908060020154905083565b6000600160003373ffffffffffffffffffffffffffffffffffffffff1673ffffffffffffffffffffffffffffffffffffffff16815260200190815260200160002060000154851115611073576040517f08c379a000000000000000000000000000000000000000000000000000000000815260040161106a90612ca6565b60405180910390fd5b60018060003373ffffffffffffffffffffffffffffffffffffffff1673ffffffffffffffffffffffffffffffffffffffff16815260200190815260200160002060020160008282546110c59190612a05565b9250508190555060006110d733610e9d565b111561116b57600160003373ffffffffffffffffffffffffffffffffffffffff1673ffffffffffffffffffffffffffffffffffffffff1681526020019081526020016000206000015461112933610e9d565b101561116a576040517f08c379a000000000000000000000000000000000000000000000000000000000815260040161116190612ca6565b60405180910390fd5b5b60006064605f8761117c9190612a5b565b6111869190612ae4565b90506111a8736b175474e89094c44da98b954eedeac495271d0f333089611971565b6111e7736b175474e89094c44da98b954eedeac495271d0f7f000000000000000000000000000000000000000000000000000000000000000088611ac9565b6000604051806101000160405280736b175474e89094c44da98b954eedeac495271d0f73ffffffffffffffffffffffffffffffffffffffff1681526020018773ffffffffffffffffffffffffffffffffffffffff1681526020018662ffffff1681526020013073ffffffffffffffffffffffffffffffffffffffff168152602001428152602001838152602001858152602001600073ffffffffffffffffffffffffffffffffffffffff1681525090507f000000000000000000000000000000000000000000000000000000000000000073ffffffffffffffffffffffffffffffffffffffff1663414bf389826040518263ffffffff1660e01b81526004016112f09190612da4565b6020604051808303816000875af115801561130f573d6000803e3d6000fd5b505050506040513d601f19601f820116820180604052508101906113339190612dc0565b92506000610bb8905061134a33888389888a611c1e565b5080600160003373ffffffffffffffffffffffffffffffffffffffff1673ffffffffffffffffffffffffffffffffffffffff1681526020019081526020016000206004016000600160003373ffffffffffffffffffffffffffffffffffffffff1673ffffffffffffffffffffffffffffffffffffffff1681526020019081526020016000206002015481526020019081526020016000208190555060018060003373ffffffffffffffffffffffffffffffffffffffff1673ffffffffffffffffffffffffffffffffffffffff1681526020019081526020016000206005016000600160003373ffffffffffffffffffffffffffffffffffffffff1673ffffffffffffffffffffffffffffffffffffffff16815260200190815260200160002060020154815260200190815260200160002060006101000a81548160ff021916908315150217905550505050949350505050565b600063bc197c8160e01b905095945050505050565b7f000000000000000000000000000000000000000000000000000000000000000081565b600160003373ffffffffffffffffffffffffffffffffffffffff1673ffffffffffffffffffffffffffffffffffffffff1681526020019081526020016000206000015482111561155b576040517f08c379a000000000000000000000000000000000000000000000000000000000815260040161155290612e5f565b60405180910390fd5b60001515600160003373ffffffffffffffffffffffffffffffffffffffff1673ffffffffffffffffffffffffffffffffffffffff168152602001908152602001600020600501600083815260200190815260200160002060009054906101000a900460ff16151514611602576040517f08c379a00000000000000000000000000000000000000000000000000000000081526004016115f990612f17565b60405180910390fd5b81600160003373ffffffffffffffffffffffffffffffffffffffff1673ffffffffffffffffffffffffffffffffffffffff1681526020019081526020016000206000016000828254611654919061278d565b92505081905550736b175474e89094c44da98b954eedeac495271d0f73ffffffffffffffffffffffffffffffffffffffff1663a9059cbb33846040518363ffffffff1660e01b81526004016116aa929190612916565b6020604051808303816000875af11580156116c9573d6000803e3d6000fd5b505050506040513d601f19601f820116820180604052508101906116ed9190612be4565b505050565b600063f23a6e6160e01b905095945050505050565b60007f01ffc9a7000000000000000000000000000000000000000000000000000000007bffffffffffffffffffffffffffffffffffffffffffffffffffffffff1916827bffffffffffffffffffffffffffffffffffffffffffffffffffffffff1916149050919050565b600080600160008473ffffffffffffffffffffffffffffffffffffffff1673ffffffffffffffffffffffffffffffffffffffff168152602001908152602001600020600101546002546117c4919061278d565b9050736b175474e89094c44da98b954eedeac495271d0f73ffffffffffffffffffffffffffffffffffffffff166370a08231306040518263ffffffff1660e01b815260040161181391906121d6565b602060405180830381865afa158015611830573d6000803e3d6000fd5b505050506040513d601f19601f820116820180604052508101906118549190612dc0565b81600160008673ffffffffffffffffffffffffffffffffffffffff1673ffffffffffffffffffffffffffffffffffffffff168152602001908152602001600020600001546118a29190612a5b565b6118ac9190612ae4565b915050919050565b60006118bf82611771565b9050600081111561196d5780600160008473ffffffffffffffffffffffffffffffffffffffff1673ffffffffffffffffffffffffffffffffffffffff168152602001908152602001600020600001600082825461191c9190612a05565b92505081905550600254600160008473ffffffffffffffffffffffffffffffffffffffff1673ffffffffffffffffffffffffffffffffffffffff168152602001908152602001600020600101819055505b5050565b6000808573ffffffffffffffffffffffffffffffffffffffff166323b872dd60e01b8686866040516024016119a893929190612b81565b604051602081830303815290604052907bffffffffffffffffffffffffffffffffffffffffffffffffffffffff19166020820180517bffffffffffffffffffffffffffffffffffffffffffffffffffffffff8381831617835250505050604051611a129190612fb1565b6000604051808303816000865af19150503d8060008114611a4f576040519150601f19603f3d011682016040523d82523d6000602084013e611a54565b606091505b5091509150818015611a825750600081511480611a81575080806020019051810190611a809190612be4565b5b5b611ac1576040517f08c379a0000000000000000000000000000000000000000000000000000000008152600401611ab890613014565b60405180910390fd5b505050505050565b6000808473ffffffffffffffffffffffffffffffffffffffff1663095ea7b360e01b8585604051602401611afe929190612916565b604051602081830303815290604052907bffffffffffffffffffffffffffffffffffffffffffffffffffffffff19166020820180517bffffffffffffffffffffffffffffffffffffffffffffffffffffffff8381831617835250505050604051611b689190612fb1565b6000604051808303816000865af19150503d8060008114611ba5576040519150601f19603f3d011682016040523d82523d6000602084013e611baa565b606091505b5091509150818015611bd85750600081511480611bd7575080806020019051810190611bd69190612be4565b5b5b611c17576040517f08c379a0000000000000000000000000000000000000000000000000000000008152600401611c0e90613080565b60405180910390fd5b5050505050565b6000611c4b867f000000000000000000000000000000000000000000000000000000000000000085611ac9565b60006040518061010001604052808873ffffffffffffffffffffffffffffffffffffffff168152602001736b175474e89094c44da98b954eedeac495271d0f73ffffffffffffffffffffffffffffffffffffffff1681526020018662ffffff1681526020013073ffffffffffffffffffffffffffffffffffffffff168152602001428152602001858152602001848152602001600073ffffffffffffffffffffffffffffffffffffffff1681525090507f000000000000000000000000000000000000000000000000000000000000000073ffffffffffffffffffffffffffffffffffffffff1663414bf389826040518263ffffffff1660e01b8152600401611d549190612da4565b6020604051808303816000875af1158015611d73573d6000803e3d6000fd5b505050506040513d601f19601f82011682018060405250810190611d979190612dc0565b915081600160003373ffffffffffffffffffffffffffffffffffffffff1673ffffffffffffffffffffffffffffffffffffffff1681526020019081526020016000206003016000600160003373ffffffffffffffffffffffffffffffffffffffff1673ffffffffffffffffffffffffffffffffffffffff16815260200190815260200160002060020154815260200190815260200160002081905550600360009054906101000a900473ffffffffffffffffffffffffffffffffffffffff1673ffffffffffffffffffffffffffffffffffffffff1663c25df92d8930878b8b6040518663ffffffff1660e01b8152600401611e969594939291906130a0565b600060405180830381600087803b158015611eb057600080fd5b505af1158015611ec4573d6000803e3d6000fd5b50505050509695505050505050565b6000604051905090565b600080fd5b600080fd5b60007fffffffff0000000000000000000000000000000000000000000000000000000082169050919050565b611f1c81611ee7565b8114611f2757600080fd5b50565b600081359050611f3981611f13565b92915050565b600060208284031215611f5557611f54611edd565b5b6000611f6384828501611f2a565b91505092915050565b60008115159050919050565b611f8181611f6c565b82525050565b6000602082019050611f9c6000830184611f78565b92915050565b600073ffffffffffffffffffffffffffffffffffffffff82169050919050565b6000611fcd82611fa2565b9050919050565b611fdd81611fc2565b8114611fe857600080fd5b50565b600081359050611ffa81611fd4565b92915050565b6000819050919050565b61201381612000565b811461201e57600080fd5b50565b6000813590506120308161200a565b92915050565b6000806040838503121561204d5761204c611edd565b5b600061205b85828601611feb565b925050602061206c85828601612021565b9150509250929050565b60006020828403121561208c5761208b611edd565b5b600061209a84828501611feb565b91505092915050565b6120ac81612000565b82525050565b60006020820190506120c760008301846120a3565b92915050565b6000806000606084860312156120e6576120e5611edd565b5b60006120f486828701611feb565b935050602061210586828701611feb565b925050604061211686828701612021565b9150509250925092565b6000806000806080858703121561213a57612139611edd565b5b600061214887828801611feb565b945050602061215987828801611feb565b935050604061216a87828801612021565b925050606061217b87828801612021565b91505092959194509250565b6000806040838503121561219e5761219d611edd565b5b60006121ac85828601612021565b92505060206121bd85828601611feb565b9150509250929050565b6121d081611fc2565b82525050565b60006020820190506121eb60008301846121c7565b92915050565b6000819050919050565b600061221661221161220c84611fa2565b6121f1565b611fa2565b9050919050565b6000612228826121fb565b9050919050565b600061223a8261221d565b9050919050565b61224a8161222f565b82525050565b60006020820190506122656000830184612241565b92915050565b600060608201905061228060008301866120a3565b61228d60208301856120a3565b61229a60408301846120a3565b949350505050565b600062ffffff82169050919050565b6122ba816122a2565b81146122c557600080fd5b50565b6000813590506122d7816122b1565b92915050565b600080600080608085870312156122f7576122f6611edd565b5b600061230587828801612021565b945050602061231687828801611feb565b9350506040612327878288016122c8565b925050606061233887828801612021565b91505092959194509250565b600080fd5b6000601f19601f8301169050919050565b7f4e487b7100000000000000000000000000000000000000000000000000000000600052604160045260246000fd5b61239282612349565b810181811067ffffffffffffffff821117156123b1576123b061235a565b5b80604052505050565b60006123c4611ed3565b90506123d08282612389565b919050565b600067ffffffffffffffff8211156123f0576123ef61235a565b5b602082029050602081019050919050565b600080fd5b6000612419612414846123d5565b6123ba565b9050808382526020820190506020840283018581111561243c5761243b612401565b5b835b8181101561246557806124518882612021565b84526020840193505060208101905061243e565b5050509392505050565b600082601f83011261248457612483612344565b5b8135612494848260208601612406565b91505092915050565b600080fd5b600067ffffffffffffffff8211156124bd576124bc61235a565b5b6124c682612349565b9050602081019050919050565b82818337600083830152505050565b60006124f56124f0846124a2565b6123ba565b9050828152602081018484840111156125115761251061249d565b5b61251c8482856124d3565b509392505050565b600082601f83011261253957612538612344565b5b81356125498482602086016124e2565b91505092915050565b600080600080600060a0868803121561256e5761256d611edd565b5b600061257c88828901611feb565b955050602061258d88828901611feb565b945050604086013567ffffffffffffffff8111156125ae576125ad611ee2565b5b6125ba8882890161246f565b935050606086013567ffffffffffffffff8111156125db576125da611ee2565b5b6125e78882890161246f565b925050608086013567ffffffffffffffff81111561260857612607611ee2565b5b61261488828901612524565b9150509295509295909350565b61262a81611ee7565b82525050565b60006020820190506126456000830184612621565b92915050565b60006126568261221d565b9050919050565b6126668161264b565b82525050565b6000602082019050612681600083018461265d565b92915050565b6000806040838503121561269e5761269d611edd565b5b60006126ac85828601612021565b92505060206126bd85828601612021565b9150509250929050565b600080600080600060a086880312156126e3576126e2611edd565b5b60006126f188828901611feb565b955050602061270288828901611feb565b945050604061271388828901612021565b935050606061272488828901612021565b925050608086013567ffffffffffffffff81111561274557612744611ee2565b5b61275188828901612524565b9150509295509295909350565b7f4e487b7100000000000000000000000000000000000000000000000000000000600052601160045260246000fd5b600061279882612000565b91506127a383612000565b9250828210156127b6576127b561275e565b5b828203905092915050565b600082825260208201905092915050565b7f4c49513a204163636f756e74206e6f7420696e2064726177646f776e00000000600082015250565b6000612808601c836127c1565b9150612813826127d2565b602082019050919050565b60006020820190508181036000830152612837816127fb565b9050919050565b7f4c49513a20506f736974696f6e206e6f74206163746976650000000000000000600082015250565b60006128746018836127c1565b915061287f8261283e565b602082019050919050565b600060208201905081810360008301526128a381612867565b9050919050565b7f434c4f53453a204e6f7420796f757220706f736974696f6e0000000000000000600082015250565b60006128e06018836127c1565b91506128eb826128aa565b602082019050919050565b6000602082019050818103600083015261290f816128d3565b9050919050565b600060408201905061292b60008301856121c7565b61293860208301846120a3565b9392505050565b61294881612000565b82525050565b6000604082019050612963600083018561293f565b612970602083018461293f565b9392505050565b6000815190506129868161200a565b92915050565b600060ff82169050919050565b6129a28161298c565b81146129ad57600080fd5b50565b6000815190506129bf81612999565b92915050565b600080604083850312156129dc576129db611edd565b5b60006129ea85828601612977565b92505060206129fb858286016129b0565b9150509250929050565b6000612a1082612000565b9150612a1b83612000565b9250827fffffffffffffffffffffffffffffffffffffffffffffffffffffffffffffffff03821115612a5057612a4f61275e565b5b828201905092915050565b6000612a6682612000565b9150612a7183612000565b9250817fffffffffffffffffffffffffffffffffffffffffffffffffffffffffffffffff0483118215151615612aaa57612aa961275e565b5b828202905092915050565b7f4e487b7100000000000000000000000000000000000000000000000000000000600052601260045260246000fd5b6000612aef82612000565b9150612afa83612000565b925082612b0a57612b09612ab5565b5b828204905092915050565b7f5354414e4441524420504f4f4c3a204e6f742044414900000000000000000000600082015250565b6000612b4b6016836127c1565b9150612b5682612b15565b602082019050919050565b60006020820190508181036000830152612b7a81612b3e565b9050919050565b6000606082019050612b9660008301866121c7565b612ba360208301856121c7565b612bb060408301846120a3565b949350505050565b612bc181611f6c565b8114612bcc57600080fd5b50565b600081519050612bde81612bb8565b92915050565b600060208284031215612bfa57612bf9611edd565b5b6000612c0884828501612bcf565b91505092915050565b6000612c1c82612000565b91507fffffffffffffffffffffffffffffffffffffffffffffffffffffffffffffffff821415612c4f57612c4e61275e565b5b600182019050919050565b7f535741503a206e6f7420656e6f75676820636f6c6c61746572616c0000000000600082015250565b6000612c90601b836127c1565b9150612c9b82612c5a565b602082019050919050565b60006020820190508181036000830152612cbf81612c83565b9050919050565b612ccf81611fc2565b82525050565b612cde816122a2565b82525050565b612ced81612000565b82525050565b612cfc81611fa2565b82525050565b61010082016000820151612d196000850182612cc6565b506020820151612d2c6020850182612cc6565b506040820151612d3f6040850182612cd5565b506060820151612d526060850182612cc6565b506080820151612d656080850182612ce4565b5060a0820151612d7860a0850182612ce4565b5060c0820151612d8b60c0850182612ce4565b5060e0820151612d9e60e0850182612cf3565b50505050565b600061010082019050612dba6000830184612d02565b92915050565b600060208284031215612dd657612dd5611edd565b5b6000612de484828501612977565b91505092915050565b7f434f4c4c41544552414c3a20747279696e6720746f207769746864726177206d60008201527f6f726520636f6c6c61746572616c207468616e206465706f7369746564000000602082015250565b6000612e49603d836127c1565b9150612e5482612ded565b604082019050919050565b60006020820190508181036000830152612e7881612e3c565b9050919050565b7f434f4c4c41544552414c3a20636c6f736520796f75722063757272656e74207060008201527f6f736974696f6e206265666f726520747279696e6720746f207769746864726160208201527f7700000000000000000000000000000000000000000000000000000000000000604082015250565b6000612f016041836127c1565b9150612f0c82612e7f565b606082019050919050565b60006020820190508181036000830152612f3081612ef4565b9050919050565b600081519050919050565b600081905092915050565b60005b83811015612f6b578082015181840152602081019050612f50565b83811115612f7a576000848401525b50505050565b6000612f8b82612f37565b612f958185612f42565b9350612fa5818560208601612f4d565b80840191505092915050565b6000612fbd8284612f80565b915081905092915050565b7f5354460000000000000000000000000000000000000000000000000000000000600082015250565b6000612ffe6003836127c1565b915061300982612fc8565b602082019050919050565b6000602082019050818103600083015261302d81612ff1565b9050919050565b7f5341000000000000000000000000000000000000000000000000000000000000600082015250565b600061306a6002836127c1565b915061307582613034565b602082019050919050565b600060208201905081810360008301526130998161305d565b9050919050565b600060a0820190506130b560008301886121c7565b6130c260208301876121c7565b6130cf60408301866120a3565b6130dc60608301856121c7565b6130e960808301846120a3565b969550505050505056fea264697066735822122003671c32bbfa9e4d71511d8b07dbc934abc5b9fb3f96304afea347520aa9cb0664736f6c634300080b0033",
  "immutableReferences": {
    "2126": [
      {
        "length": 32,
        "start": 4546
      },
      {
        "length": 32,
        "start": 4761
      },
      {
        "length": 32,
        "start": 5300
      },
      {
        "length": 32,
        "start": 7206
      },
      {
        "length": 32,
        "start": 7421
      }
    ]
  },
  "source": "// SPDX-License-Identifier: MIT\npragma solidity ^0.8.0; //solhint-disable compiler-fixed\npragma abicoder v2;\n\n\nimport \"@openzeppelin/contracts/token/ERC1155/IERC1155.sol\";\nimport \"@openzeppelin/contracts/token/ERC1155/utils/ERC1155Holder.sol\";\nimport \"@uniswap/v3-periphery/contracts/interfaces/ISwapRouter.sol\";\nimport \"@uniswap/v3-periphery/contracts/libraries/TransferHelper.sol\";\nimport \"@openzeppelin/contracts/token/ERC20/IERC20.sol\";\nimport \"./BeraWrapper.sol\";\nimport \"./ancillary/PnLCalculator.sol\";\n\n\ncontract BeraPoolStandardRisk is ERC1155Holder {\n\n    address public owner;\n\n    struct Account {\n        uint userDepositBalance;\n        uint lastClaimedRewards;\n        uint userShortID;\n        mapping(uint => uint) userShortBalanceByID;\n        mapping(uint => uint) entryPrices;\n        mapping(uint => bool) isPositionInShort;\n        mapping(uint => bool) wasPositionLiquidated;\n    }\n\n    mapping(address => Account) public users;\n\n    uint public globalRewards;\n\n    address private constant DAI_ADDRESS = 0x6B175474E89094C44Da98b954EedeAC495271d0F;\n\n    ISwapRouter public immutable swapRouter;\n    BeraWrapper public beraWrapper;\n\n    constructor(ISwapRouter _swapRouter,\n        BeraWrapper _beraWrapper) { //solhint-disable func-visibility\n        owner = msg.sender;\n        swapRouter = _swapRouter;\n        beraWrapper = _beraWrapper;\n    }\n\n    function depositCollateral(uint amount, address collateral) external {\n        require(IERC20(collateral) == IERC20(DAI_ADDRESS), \"STANDARD POOL: Not DAI\");\n\n        //used for withdrawl later\n        users[msg.sender].userDepositBalance += amount;\n\n        //transfer DAI to this contract\n        IERC20(collateral).transferFrom(msg.sender, address(this), amount);\n    }\n\n    function withdrawFromPool(uint amount, uint _userShortID) external {\n        require(amount <= users[msg.sender].userDepositBalance,\n            \"COLLATERAL: trying to withdraw more collateral than deposited\");\n\n        //checking if the funds locked in the position have been released before allowing them to be withdrawn\n        require(users[msg.sender].isPositionInShort[_userShortID] == false,\n            \"COLLATERAL: close your current position before trying to withdraw\");\n\n        //reset balance of user on withdraw\n        users[msg.sender].userDepositBalance -= amount;\n\n        IERC20(DAI_ADDRESS).transfer(msg.sender, amount);\n    }\n\n    //used to claim the profit rewards from collecting trader losses\n    function claimRewards() external {\n        sendOwedProfits(msg.sender);\n    }\n\n    // deposit collateral into user account before being allowed to short\n    function swapAndShortStandard(\n            uint amount,\n            address tokenToShort,\n            uint24 poolFee, //needed for uniswap pool\n            uint amountOutMin)\n            external returns(uint amountOut) { //solhint-disable function-max-lines\n                require(amount <= users[msg.sender].userDepositBalance, \"SWAP: not enough collateral\");\n\n                //by default uints are initialized at 0 so this should work???\n                users[msg.sender].userShortID += 1;\n\n                //get total amount of collateral in shorts if user has opened a position before\n                if (getTotalCollateral(msg.sender) > 0) {\n                    require(getTotalCollateral(msg.sender) >= users[msg.sender].userDepositBalance,\n                        \"SWAP: not enough collateral\");\n                }\n\n                //5% is kept as fee to protocol \n                uint amountToSend = amount * 95 / 100;\n\n                TransferHelper.safeTransferFrom(DAI_ADDRESS, msg.sender, address(this), amount);\n                TransferHelper.safeApprove(DAI_ADDRESS, address(swapRouter), amount);\n\n                ISwapRouter.ExactInputSingleParams memory params =\n                ISwapRouter.ExactInputSingleParams({\n                    tokenIn: DAI_ADDRESS,\n                    tokenOut: tokenToShort,\n                    fee: poolFee,\n                    recipient: address(this),\n                    deadline: block.timestamp, //solhint-disable not-rely-on-time\n                    amountIn: amountToSend,\n                    amountOutMinimum: amountOutMin,\n                    sqrtPriceLimitX96: 0\n                });\n\n                //execute the frist swap\n                amountOut = swapRouter.exactInputSingle(params);\n\n                //Call twapPriceOracle here or find a better way to capture price\n                //TODO: Price wrapping\n                //TEST ONLY\n                uint priceAtWrap = 3000;\n\n                //execute the second swap and transfer funds to pool for holding\n                _shortForUser(\n                    msg.sender,\n                    tokenToShort,\n                    priceAtWrap,\n                    poolFee,\n                    amountOut,\n                    amountOutMin\n                );\n\n                //update entry price mapping\n                //this stores the entry price of msg.sender for this specific shortID of the sender\n                //nested mappings look cringe but are efficient\n                users[msg.sender].entryPrices[users[msg.sender].userShortID] = priceAtWrap;\n\n                //update userPositionNumber current short status\n                // inShort[msg.sender][userShortID[msg.sender]] = true;\n                users[msg.sender].isPositionInShort[users[msg.sender].userShortID] = true;\n\n            }\n\n    // if you are reading this comment this is a way for you to make some money\n    // and keep the protocol alive and kicking\n    // keep in mind that you need to have deposited collateral to receive rewards\n    function liquidateUser(address user, address to, uint position) external {\n        uint drawdown = getUserEntryPrice(user, position) - 3000;\n        require(drawdown > users[user].userDepositBalance, \"LIQ: Account not in drawdown\");\n        require(users[user].isPositionInShort[position] == true, \"LIQ: Position not active\");\n\n        users[user].wasPositionLiquidated[position] = true;\n        closeShortStandardPool(user, to, position, 3000);\n    }\n\n    function getTotalCollateral(address user) public view returns(uint totalCollateral) {\n        for (uint i = 0; i <= users[user].userShortID; i++) {\n            totalCollateral += users[user].userShortBalanceByID[i];\n        }\n        return (totalCollateral);\n    }\n\n    function checkRewards(address user) public view returns(uint profits) {\n        return profits = checkOwedProfits(user);\n    }\n\n    function getGlobalRewards() public view returns(uint globals) {\n        return globals = globalRewards;\n    }\n\n    function getUserShortBalance(address user, uint shortID) public view returns(uint bal) {\n        return bal = users[user].userShortBalanceByID[shortID];\n    }\n\n    function getUserEntryPrice(address user, uint shortID) public view returns(uint entry) {\n        return entry = users[user].entryPrices[shortID];\n    }\n\n    function getUserShortBool(address user, uint shortID) public view returns(bool isShort) {\n        return isShort = users[user].isPositionInShort[shortID];\n    }\n\n    //TODO\n    //contract already has the DAI needed to close the trade, can just check the price and\n    //calculate the difference between the opening and closing prices, no need for expensive swaps\n    //in the standardPool contract\n    function closeShortStandardPool(\n        address user,\n        address liquidator,\n        uint _userShortID,\n        uint priceAtClose)\n        public {\n            require(user == msg.sender, \"CLOSE: Not your position\");\n\n            beraWrapper.unwrapPosition(user, _userShortID);\n            //TODO\n            //require priceAtClose == twapPriceOracle();\n\n            //calculate position balance using entryPrices vs current price\n            //returnValue of 0 indicates a winning trade, while 1 indicates a loss\n            (uint amountPNL, uint returnValue) =\n            PnLCalculator.calculatePNL(users[msg.sender].entryPrices[_userShortID], priceAtClose);\n\n            //if user has made money, we update their balance directly\n            //keeping in mind that dai is always stored in this contract and will only be transfered\n            //out on withdrawing\n            if (returnValue == 0) {\n                users[msg.sender].userDepositBalance += amountPNL;\n            } else if (returnValue == 1) {\n                //distribute user loss amongst pool if losing short\n                users[msg.sender].userDepositBalance -= amountPNL;\n\n                //experimental liquidation logic\n                //kinda dogshit ngl\n                if (users[user].wasPositionLiquidated[_userShortID] == true) {\n                    uint newPNL = amountPNL * 50 / 100;\n                    uint toLiquidator = amountPNL - newPNL;\n                    users[liquidator].userDepositBalance += toLiquidator;\n                    globalRewards += newPNL;\n                } else {\n                    globalRewards += amountPNL;\n                }\n            }\n\n            //update current userPositionNumber to free withdraws of these specific funds\n            users[msg.sender].isPositionInShort[_userShortID] = false;\n            users[msg.sender].userShortBalanceByID[_userShortID] = 0;\n\n        }\n\n    function _shortForUser(\n        address user,\n        address tokenToShort,\n        uint priceAtWrap,\n        uint24 poolFee,\n        uint amount,\n        uint amountOutMin) internal returns(uint amountOut) {\n\n        TransferHelper.safeApprove(tokenToShort, address(swapRouter), amount);\n\n        //now that this contract has the desired token to short, we sell @ market back for DAI\n        ISwapRouter.ExactInputSingleParams memory tokenParams =\n        ISwapRouter.ExactInputSingleParams({\n            tokenIn: tokenToShort,\n            tokenOut: DAI_ADDRESS,\n            fee: poolFee,\n            recipient: address(this), //the pool contract will store both DAI from deposits and tokenOut\n            deadline: block.timestamp, //solhint-disable not-rely-on-time\n            amountIn: amount,\n            amountOutMinimum: amountOutMin,\n            sqrtPriceLimitX96: 0\n        });\n\n        // execute the short, amountOut is wETH in this test case\n        amountOut = swapRouter.exactInputSingle(tokenParams);\n\n        //update user balance of the user current positionID\n        //this is used to keep track of how much of the users deposit is currently being used\n        //userShortBalance[msg.sender][userShortID[msg.sender]] = amountOut;\n        users[msg.sender].userShortBalanceByID[users[msg.sender].userShortID] = amountOut;\n\n        //wrap position in ERC1155\n        beraWrapper.wrapPosition(user, address(this), amount, tokenToShort, priceAtWrap);\n    }\n\n    //the percentage reward is based on the last time they claimed vs the total reward calculated\n    //this will allow us to avoid using a loop for reward distribution\n    //and allow users to pull their own rewards when they want\n    function checkOwedProfits(address user) internal view returns (uint) {\n        uint percentageReward = globalRewards - users[user].lastClaimedRewards;\n        return users[user].userDepositBalance * percentageReward / IERC20(DAI_ADDRESS).balanceOf(address(this));\n    }\n\n    function sendOwedProfits(address user) internal {\n        uint owed = checkOwedProfits(user);\n        if (owed > 0) {\n            users[user].userDepositBalance += owed;\n            users[user].lastClaimedRewards = globalRewards;\n        }\n    }\n\n    receive() external payable { //solhint-disable state-visibility\n\n}\n\n    fallback() external payable { //solhint-disable\n\n}\n\n}\n",
  "sourcePath": "/home/kevin/Code/solidity_projects/beraMarket/contracts/BeraPoolStandardRisk.sol",
  "compiler": {
    "name": "solc",
    "version": "0.8.11+commit.d7f03943.Emscripten.clang"
  },
  "schemaVersion": "3.4.3",
  "updatedAt": "2021-12-23T13:03:39.802Z",
  "networkType": "ethereum",
  "devdoc": {
    "kind": "dev",
    "methods": {
      "supportsInterface(bytes4)": {
        "details": "See {IERC165-supportsInterface}."
      }
    },
    "version": 1
  },
  "userdoc": {
    "kind": "user",
    "methods": {},
    "version": 1
  }
}