{
  "contractName": "BeraWrapper",
  "abi": [
    {
      "inputs": [],
      "stateMutability": "nonpayable",
      "type": "constructor"
    },
    {
      "anonymous": false,
      "inputs": [
        {
          "indexed": true,
          "internalType": "address",
          "name": "account",
          "type": "address"
        },
        {
          "indexed": true,
          "internalType": "address",
          "name": "operator",
          "type": "address"
        },
        {
          "indexed": false,
          "internalType": "bool",
          "name": "approved",
          "type": "bool"
        }
      ],
      "name": "ApprovalForAll",
      "type": "event"
    },
    {
      "anonymous": false,
      "inputs": [
        {
          "indexed": true,
          "internalType": "address",
          "name": "operator",
          "type": "address"
        },
        {
          "indexed": true,
          "internalType": "address",
          "name": "from",
          "type": "address"
        },
        {
          "indexed": true,
          "internalType": "address",
          "name": "to",
          "type": "address"
        },
        {
          "indexed": false,
          "internalType": "uint256[]",
          "name": "ids",
          "type": "uint256[]"
        },
        {
          "indexed": false,
          "internalType": "uint256[]",
          "name": "values",
          "type": "uint256[]"
        }
      ],
      "name": "TransferBatch",
      "type": "event"
    },
    {
      "anonymous": false,
      "inputs": [
        {
          "indexed": true,
          "internalType": "address",
          "name": "operator",
          "type": "address"
        },
        {
          "indexed": true,
          "internalType": "address",
          "name": "from",
          "type": "address"
        },
        {
          "indexed": true,
          "internalType": "address",
          "name": "to",
          "type": "address"
        },
        {
          "indexed": false,
          "internalType": "uint256",
          "name": "id",
          "type": "uint256"
        },
        {
          "indexed": false,
          "internalType": "uint256",
          "name": "value",
          "type": "uint256"
        }
      ],
      "name": "TransferSingle",
      "type": "event"
    },
    {
      "anonymous": false,
      "inputs": [
        {
          "indexed": false,
          "internalType": "string",
          "name": "value",
          "type": "string"
        },
        {
          "indexed": true,
          "internalType": "uint256",
          "name": "id",
          "type": "uint256"
        }
      ],
      "name": "URI",
      "type": "event"
    },
    {
      "inputs": [
        {
          "internalType": "address",
          "name": "account",
          "type": "address"
        },
        {
          "internalType": "uint256",
          "name": "id",
          "type": "uint256"
        }
      ],
      "name": "balanceOf",
      "outputs": [
        {
          "internalType": "uint256",
          "name": "",
          "type": "uint256"
        }
      ],
      "stateMutability": "view",
      "type": "function",
      "constant": true
    },
    {
      "inputs": [
        {
          "internalType": "address[]",
          "name": "accounts",
          "type": "address[]"
        },
        {
          "internalType": "uint256[]",
          "name": "ids",
          "type": "uint256[]"
        }
      ],
      "name": "balanceOfBatch",
      "outputs": [
        {
          "internalType": "uint256[]",
          "name": "",
          "type": "uint256[]"
        }
      ],
      "stateMutability": "view",
      "type": "function",
      "constant": true
    },
    {
      "inputs": [
        {
          "internalType": "address",
          "name": "account",
          "type": "address"
        },
        {
          "internalType": "address",
          "name": "operator",
          "type": "address"
        }
      ],
      "name": "isApprovedForAll",
      "outputs": [
        {
          "internalType": "bool",
          "name": "",
          "type": "bool"
        }
      ],
      "stateMutability": "view",
      "type": "function",
      "constant": true
    },
    {
      "inputs": [],
      "name": "owner",
      "outputs": [
        {
          "internalType": "address",
          "name": "",
          "type": "address"
        }
      ],
      "stateMutability": "view",
      "type": "function",
      "constant": true
    },
    {
      "inputs": [
        {
          "internalType": "uint256",
          "name": "",
          "type": "uint256"
        }
      ],
      "name": "positionData",
      "outputs": [
        {
          "internalType": "address",
          "name": "positionOwner",
          "type": "address"
        },
        {
          "internalType": "address",
          "name": "associatedPool",
          "type": "address"
        },
        {
          "internalType": "uint256",
          "name": "shortAmount",
          "type": "uint256"
        },
        {
          "internalType": "address",
          "name": "tokenShorted",
          "type": "address"
        },
        {
          "internalType": "uint256",
          "name": "priceAtWrap",
          "type": "uint256"
        }
      ],
      "stateMutability": "view",
      "type": "function",
      "constant": true
    },
    {
      "inputs": [],
      "name": "positionIDTotal",
      "outputs": [
        {
          "internalType": "uint256",
          "name": "",
          "type": "uint256"
        }
      ],
      "stateMutability": "view",
      "type": "function",
      "constant": true
    },
    {
      "inputs": [
        {
          "internalType": "address",
          "name": "from",
          "type": "address"
        },
        {
          "internalType": "address",
          "name": "to",
          "type": "address"
        },
        {
          "internalType": "uint256[]",
          "name": "ids",
          "type": "uint256[]"
        },
        {
          "internalType": "uint256[]",
          "name": "amounts",
          "type": "uint256[]"
        },
        {
          "internalType": "bytes",
          "name": "data",
          "type": "bytes"
        }
      ],
      "name": "safeBatchTransferFrom",
      "outputs": [],
      "stateMutability": "nonpayable",
      "type": "function"
    },
    {
      "inputs": [
        {
          "internalType": "address",
          "name": "from",
          "type": "address"
        },
        {
          "internalType": "address",
          "name": "to",
          "type": "address"
        },
        {
          "internalType": "uint256",
          "name": "id",
          "type": "uint256"
        },
        {
          "internalType": "uint256",
          "name": "amount",
          "type": "uint256"
        },
        {
          "internalType": "bytes",
          "name": "data",
          "type": "bytes"
        }
      ],
      "name": "safeTransferFrom",
      "outputs": [],
      "stateMutability": "nonpayable",
      "type": "function"
    },
    {
      "inputs": [
        {
          "internalType": "address",
          "name": "operator",
          "type": "address"
        },
        {
          "internalType": "bool",
          "name": "approved",
          "type": "bool"
        }
      ],
      "name": "setApprovalForAll",
      "outputs": [],
      "stateMutability": "nonpayable",
      "type": "function"
    },
    {
      "inputs": [
        {
          "internalType": "bytes4",
          "name": "interfaceId",
          "type": "bytes4"
        }
      ],
      "name": "supportsInterface",
      "outputs": [
        {
          "internalType": "bool",
          "name": "",
          "type": "bool"
        }
      ],
      "stateMutability": "view",
      "type": "function",
      "constant": true
    },
    {
      "inputs": [
        {
          "internalType": "uint256",
          "name": "",
          "type": "uint256"
        }
      ],
      "name": "uri",
      "outputs": [
        {
          "internalType": "string",
          "name": "",
          "type": "string"
        }
      ],
      "stateMutability": "view",
      "type": "function",
      "constant": true
    },
    {
      "inputs": [
        {
          "internalType": "address",
          "name": "positionOwner",
          "type": "address"
        },
        {
          "internalType": "address",
          "name": "associatedPool",
          "type": "address"
        },
        {
          "internalType": "uint256",
          "name": "shortAmount",
          "type": "uint256"
        },
        {
          "internalType": "address",
          "name": "tokenShorted",
          "type": "address"
        },
        {
          "internalType": "uint256",
          "name": "priceAtWrap",
          "type": "uint256"
        }
      ],
      "name": "wrapPosition",
      "outputs": [],
      "stateMutability": "nonpayable",
      "type": "function"
    },
    {
      "inputs": [
        {
          "internalType": "address",
          "name": "positionOwner",
          "type": "address"
        },
        {
          "internalType": "uint256",
          "name": "positionID",
          "type": "uint256"
        }
      ],
      "name": "unwrapPosition",
      "outputs": [],
      "stateMutability": "nonpayable",
      "type": "function"
    },
    {
      "inputs": [
        {
          "internalType": "address",
          "name": "to",
          "type": "address"
        },
        {
          "internalType": "address",
          "name": "from",
          "type": "address"
        },
        {
          "internalType": "uint256",
          "name": "_positionID",
          "type": "uint256"
        },
        {
          "internalType": "uint256",
          "name": "amount",
          "type": "uint256"
        }
      ],
      "name": "transferPosition",
      "outputs": [],
      "stateMutability": "nonpayable",
      "type": "function"
    },
    {
      "inputs": [
        {
          "internalType": "address",
          "name": "newPositionOwner",
          "type": "address"
        },
        {
          "internalType": "uint256",
          "name": "_positionID",
          "type": "uint256"
        }
      ],
      "name": "updatePosition",
      "outputs": [],
      "stateMutability": "nonpayable",
      "type": "function"
    }
  ],
  "bytecode": "0x60806040523480156200001157600080fd5b506040518060200160405280600081525062000033816200007b60201b60201c565b5033600360006101000a81548173ffffffffffffffffffffffffffffffffffffffff021916908373ffffffffffffffffffffffffffffffffffffffff160217905550620001ac565b80600290805190602001906200009392919062000097565b5050565b828054620000a59062000176565b90600052602060002090601f016020900481019282620000c9576000855562000115565b82601f10620000e457805160ff191683800117855562000115565b8280016001018555821562000115579182015b8281111562000114578251825591602001919060010190620000f7565b5b50905062000124919062000128565b5090565b5b808211156200014357600081600090555060010162000129565b5090565b7f4e487b7100000000000000000000000000000000000000000000000000000000600052602260045260246000fd5b600060028204905060018216806200018f57607f821691505b60208210811415620001a657620001a562000147565b5b50919050565b6133f480620001bc6000396000f3fe608060405234801561001057600080fd5b50600436106100f45760003560e01c80634e6368ba11610097578063b9e17b7611610066578063b9e17b7614610299578063c25df92d146102b5578063e985e9c5146102d1578063f242432a14610301576100f4565b80634e6368ba1461020f5780638da5cb5b1461022b578063a0ab910e14610249578063a22cb4651461027d576100f4565b80630e89341c116100d35780630e89341c1461017757806319297ba4146101a75780632eb2c2d6146101c35780634e1273f4146101df576100f4565b8062fdd58e146100f957806301ffc9a7146101295780630dd80b3914610159575b600080fd5b610113600480360381019061010e9190611dbe565b61031d565b6040516101209190611e0d565b60405180910390f35b610143600480360381019061013e9190611e80565b6103e6565b6040516101509190611ec8565b60405180910390f35b6101616104c8565b60405161016e9190611e0d565b60405180910390f35b610191600480360381019061018c9190611ee3565b6104ce565b60405161019e9190611fa9565b60405180910390f35b6101c160048036038101906101bc9190611dbe565b610562565b005b6101dd60048036038101906101d891906121c8565b6105ce565b005b6101f960048036038101906101f4919061235a565b61066f565b6040516102069190612490565b60405180910390f35b610229600480360381019061022491906124b2565b610788565b005b610233610947565b6040516102409190612528565b60405180910390f35b610263600480360381019061025e9190611ee3565b61096d565b604051610274959493929190612543565b60405180910390f35b610297600480360381019061029291906125c2565b610a03565b005b6102b360048036038101906102ae9190611dbe565b610a19565b005b6102cf60048036038101906102ca9190612602565b610acd565b005b6102eb60048036038101906102e6919061267d565b610c74565b6040516102f89190611ec8565b60405180910390f35b61031b600480360381019061031691906126bd565b610d08565b005b60008073ffffffffffffffffffffffffffffffffffffffff168373ffffffffffffffffffffffffffffffffffffffff16141561038e576040517f08c379a0000000000000000000000000000000000000000000000000000000008152600401610385906127c6565b60405180910390fd5b60008083815260200190815260200160002060008473ffffffffffffffffffffffffffffffffffffffff1673ffffffffffffffffffffffffffffffffffffffff16815260200190815260200160002054905092915050565b60007fd9b67a26000000000000000000000000000000000000000000000000000000007bffffffffffffffffffffffffffffffffffffffffffffffffffffffff1916827bffffffffffffffffffffffffffffffffffffffffffffffffffffffff191614806104b157507f0e89341c000000000000000000000000000000000000000000000000000000007bffffffffffffffffffffffffffffffffffffffffffffffffffffffff1916827bffffffffffffffffffffffffffffffffffffffffffffffffffffffff1916145b806104c157506104c082610da9565b5b9050919050565b60045481565b6060600280546104dd90612815565b80601f016020809104026020016040519081016040528092919081815260200182805461050990612815565b80156105565780601f1061052b57610100808354040283529160200191610556565b820191906000526020600020905b81548152906001019060200180831161053957829003601f168201915b50505050509050919050565b600061056e838361031d565b11156105ca57816005600083815260200190815260200160002060000160006101000a81548173ffffffffffffffffffffffffffffffffffffffff021916908373ffffffffffffffffffffffffffffffffffffffff1602179055505b5050565b6105d6610e13565b73ffffffffffffffffffffffffffffffffffffffff168573ffffffffffffffffffffffffffffffffffffffff16148061061c575061061b85610616610e13565b610c74565b5b61065b576040517f08c379a0000000000000000000000000000000000000000000000000000000008152600401610652906128b9565b60405180910390fd5b6106688585858585610e1b565b5050505050565b606081518351146106b5576040517f08c379a00000000000000000000000000000000000000000000000000000000081526004016106ac9061294b565b60405180910390fd5b6000835167ffffffffffffffff8111156106d2576106d1611fd0565b5b6040519080825280602002602001820160405280156107005781602001602082028036833780820191505090505b50905060005b845181101561077d5761074d8582815181106107255761072461296b565b5b60200260200101518583815181106107405761073f61296b565b5b602002602001015161031d565b8282815181106107605761075f61296b565b5b60200260200101818152505080610776906129c9565b9050610706565b508091505092915050565b6005600083815260200190815260200160002060000160009054906101000a900473ffffffffffffffffffffffffffffffffffffffff1673ffffffffffffffffffffffffffffffffffffffff163373ffffffffffffffffffffffffffffffffffffffff161461082c576040517f08c379a000000000000000000000000000000000000000000000000000000000815260040161082390612a84565b60405180910390fd5b6005600083815260200190815260200160002060000160009054906101000a900473ffffffffffffffffffffffffffffffffffffffff1673ffffffffffffffffffffffffffffffffffffffff168373ffffffffffffffffffffffffffffffffffffffff16146108d0576040517f08c379a00000000000000000000000000000000000000000000000000000000081526004016108c790612a84565b60405180910390fd5b6108ec8484848460405180602001604052806000815250610d08565b836005600084815260200190815260200160002060000160006101000a81548173ffffffffffffffffffffffffffffffffffffffff021916908373ffffffffffffffffffffffffffffffffffffffff16021790555050505050565b600360009054906101000a900473ffffffffffffffffffffffffffffffffffffffff1681565b60056020528060005260406000206000915090508060000160009054906101000a900473ffffffffffffffffffffffffffffffffffffffff16908060010160009054906101000a900473ffffffffffffffffffffffffffffffffffffffff16908060020154908060030160009054906101000a900473ffffffffffffffffffffffffffffffffffffffff16908060040154905085565b610a15610a0e610e13565b838361112f565b5050565b6005600082815260200190815260200160002060000160009054906101000a900473ffffffffffffffffffffffffffffffffffffffff1673ffffffffffffffffffffffffffffffffffffffff168273ffffffffffffffffffffffffffffffffffffffff1614610abd576040517f08c379a0000000000000000000000000000000000000000000000000000000008152600401610ab490612b16565b60405180910390fd5b610ac98282600161129c565b5050565b60046000815480929190610ae0906129c9565b91905055506040518060a001604052808673ffffffffffffffffffffffffffffffffffffffff1681526020018573ffffffffffffffffffffffffffffffffffffffff1681526020018481526020018373ffffffffffffffffffffffffffffffffffffffff1681526020018281525060056000600454815260200190815260200160002060008201518160000160006101000a81548173ffffffffffffffffffffffffffffffffffffffff021916908373ffffffffffffffffffffffffffffffffffffffff16021790555060208201518160010160006101000a81548173ffffffffffffffffffffffffffffffffffffffff021916908373ffffffffffffffffffffffffffffffffffffffff1602179055506040820151816002015560608201518160030160006101000a81548173ffffffffffffffffffffffffffffffffffffffff021916908373ffffffffffffffffffffffffffffffffffffffff16021790555060808201518160040155905050610c6d856004546001604051806020016040528060008152506114b9565b5050505050565b6000600160008473ffffffffffffffffffffffffffffffffffffffff1673ffffffffffffffffffffffffffffffffffffffff16815260200190815260200160002060008373ffffffffffffffffffffffffffffffffffffffff1673ffffffffffffffffffffffffffffffffffffffff16815260200190815260200160002060009054906101000a900460ff16905092915050565b610d10610e13565b73ffffffffffffffffffffffffffffffffffffffff168573ffffffffffffffffffffffffffffffffffffffff161480610d565750610d5585610d50610e13565b610c74565b5b610d95576040517f08c379a0000000000000000000000000000000000000000000000000000000008152600401610d8c90612ba8565b60405180910390fd5b610da2858585858561164f565b5050505050565b60007f01ffc9a7000000000000000000000000000000000000000000000000000000007bffffffffffffffffffffffffffffffffffffffffffffffffffffffff1916827bffffffffffffffffffffffffffffffffffffffffffffffffffffffff1916149050919050565b600033905090565b8151835114610e5f576040517f08c379a0000000000000000000000000000000000000000000000000000000008152600401610e5690612c3a565b60405180910390fd5b600073ffffffffffffffffffffffffffffffffffffffff168473ffffffffffffffffffffffffffffffffffffffff161415610ecf576040517f08c379a0000000000000000000000000000000000000000000000000000000008152600401610ec690612ccc565b60405180910390fd5b6000610ed9610e13565b9050610ee98187878787876118d1565b60005b845181101561109a576000858281518110610f0a57610f0961296b565b5b602002602001015190506000858381518110610f2957610f2861296b565b5b60200260200101519050600080600084815260200190815260200160002060008b73ffffffffffffffffffffffffffffffffffffffff1673ffffffffffffffffffffffffffffffffffffffff16815260200190815260200160002054905081811015610fca576040517f08c379a0000000000000000000000000000000000000000000000000000000008152600401610fc190612d5e565b60405180910390fd5b81810360008085815260200190815260200160002060008c73ffffffffffffffffffffffffffffffffffffffff1673ffffffffffffffffffffffffffffffffffffffff168152602001908152602001600020819055508160008085815260200190815260200160002060008b73ffffffffffffffffffffffffffffffffffffffff1673ffffffffffffffffffffffffffffffffffffffff168152602001908152602001600020600082825461107f9190612d7e565b9250508190555050505080611093906129c9565b9050610eec565b508473ffffffffffffffffffffffffffffffffffffffff168673ffffffffffffffffffffffffffffffffffffffff168273ffffffffffffffffffffffffffffffffffffffff167f4a39dc06d4c0dbc64b70af90fd698a233a518aa5d07e595d983b8c0526c8f7fb8787604051611111929190612dd4565b60405180910390a46111278187878787876118d9565b505050505050565b8173ffffffffffffffffffffffffffffffffffffffff168373ffffffffffffffffffffffffffffffffffffffff16141561119e576040517f08c379a000000000000000000000000000000000000000000000000000000000815260040161119590612e7d565b60405180910390fd5b80600160008573ffffffffffffffffffffffffffffffffffffffff1673ffffffffffffffffffffffffffffffffffffffff16815260200190815260200160002060008473ffffffffffffffffffffffffffffffffffffffff1673ffffffffffffffffffffffffffffffffffffffff16815260200190815260200160002060006101000a81548160ff0219169083151502179055508173ffffffffffffffffffffffffffffffffffffffff168373ffffffffffffffffffffffffffffffffffffffff167f17307eab39ab6107e8899845ad3d59bd9653f200f220920489ca2b5937696c318360405161128f9190611ec8565b60405180910390a3505050565b600073ffffffffffffffffffffffffffffffffffffffff168373ffffffffffffffffffffffffffffffffffffffff16141561130c576040517f08c379a000000000000000000000000000000000000000000000000000000000815260040161130390612f0f565b60405180910390fd5b6000611316610e13565b90506113468185600061132887611ab1565b61133187611ab1565b604051806020016040528060008152506118d1565b600080600085815260200190815260200160002060008673ffffffffffffffffffffffffffffffffffffffff1673ffffffffffffffffffffffffffffffffffffffff168152602001908152602001600020549050828110156113dd576040517f08c379a00000000000000000000000000000000000000000000000000000000081526004016113d490612fa1565b60405180910390fd5b82810360008086815260200190815260200160002060008773ffffffffffffffffffffffffffffffffffffffff1673ffffffffffffffffffffffffffffffffffffffff16815260200190815260200160002081905550600073ffffffffffffffffffffffffffffffffffffffff168573ffffffffffffffffffffffffffffffffffffffff168373ffffffffffffffffffffffffffffffffffffffff167fc3d58168c5ae7397731d063d5bbf3d657854427343f4c083240f7aacaa2d0f6287876040516114aa929190612fc1565b60405180910390a45050505050565b600073ffffffffffffffffffffffffffffffffffffffff168473ffffffffffffffffffffffffffffffffffffffff161415611529576040517f08c379a00000000000000000000000000000000000000000000000000000000081526004016115209061305c565b60405180910390fd5b6000611533610e13565b90506115548160008761154588611ab1565b61154e88611ab1565b876118d1565b8260008086815260200190815260200160002060008773ffffffffffffffffffffffffffffffffffffffff1673ffffffffffffffffffffffffffffffffffffffff16815260200190815260200160002060008282546115b39190612d7e565b925050819055508473ffffffffffffffffffffffffffffffffffffffff16600073ffffffffffffffffffffffffffffffffffffffff168273ffffffffffffffffffffffffffffffffffffffff167fc3d58168c5ae7397731d063d5bbf3d657854427343f4c083240f7aacaa2d0f628787604051611631929190612fc1565b60405180910390a461164881600087878787611b2b565b5050505050565b600073ffffffffffffffffffffffffffffffffffffffff168473ffffffffffffffffffffffffffffffffffffffff1614156116bf576040517f08c379a00000000000000000000000000000000000000000000000000000000081526004016116b690612ccc565b60405180910390fd5b60006116c9610e13565b90506116e98187876116da88611ab1565b6116e388611ab1565b876118d1565b600080600086815260200190815260200160002060008873ffffffffffffffffffffffffffffffffffffffff1673ffffffffffffffffffffffffffffffffffffffff16815260200190815260200160002054905083811015611780576040517f08c379a000000000000000000000000000000000000000000000000000000000815260040161177790612d5e565b60405180910390fd5b83810360008087815260200190815260200160002060008973ffffffffffffffffffffffffffffffffffffffff1673ffffffffffffffffffffffffffffffffffffffff168152602001908152602001600020819055508360008087815260200190815260200160002060008873ffffffffffffffffffffffffffffffffffffffff1673ffffffffffffffffffffffffffffffffffffffff16815260200190815260200160002060008282546118359190612d7e565b925050819055508573ffffffffffffffffffffffffffffffffffffffff168773ffffffffffffffffffffffffffffffffffffffff168373ffffffffffffffffffffffffffffffffffffffff167fc3d58168c5ae7397731d063d5bbf3d657854427343f4c083240f7aacaa2d0f6288886040516118b2929190612fc1565b60405180910390a46118c8828888888888611b2b565b50505050505050565b505050505050565b6118f88473ffffffffffffffffffffffffffffffffffffffff16611d03565b15611aa9578373ffffffffffffffffffffffffffffffffffffffff1663bc197c8187878686866040518663ffffffff1660e01b815260040161193e9594939291906130d1565b6020604051808303816000875af192505050801561197a57506040513d601f19601f82011682018060405250810190611977919061314e565b60015b611a2057611986613188565b806308c379a014156119e3575061199b6131aa565b806119a657506119e5565b806040517f08c379a00000000000000000000000000000000000000000000000000000000081526004016119da9190611fa9565b60405180910390fd5b505b6040517f08c379a0000000000000000000000000000000000000000000000000000000008152600401611a17906132b2565b60405180910390fd5b63bc197c8160e01b7bffffffffffffffffffffffffffffffffffffffffffffffffffffffff1916817bffffffffffffffffffffffffffffffffffffffffffffffffffffffff191614611aa7576040517f08c379a0000000000000000000000000000000000000000000000000000000008152600401611a9e90613344565b60405180910390fd5b505b505050505050565b60606000600167ffffffffffffffff811115611ad057611acf611fd0565b5b604051908082528060200260200182016040528015611afe5781602001602082028036833780820191505090505b5090508281600081518110611b1657611b1561296b565b5b60200260200101818152505080915050919050565b611b4a8473ffffffffffffffffffffffffffffffffffffffff16611d03565b15611cfb578373ffffffffffffffffffffffffffffffffffffffff1663f23a6e6187878686866040518663ffffffff1660e01b8152600401611b90959493929190613364565b6020604051808303816000875af1925050508015611bcc57506040513d601f19601f82011682018060405250810190611bc9919061314e565b60015b611c7257611bd8613188565b806308c379a01415611c355750611bed6131aa565b80611bf85750611c37565b806040517f08c379a0000000000000000000000000000000000000000000000000000000008152600401611c2c9190611fa9565b60405180910390fd5b505b6040517f08c379a0000000000000000000000000000000000000000000000000000000008152600401611c69906132b2565b60405180910390fd5b63f23a6e6160e01b7bffffffffffffffffffffffffffffffffffffffffffffffffffffffff1916817bffffffffffffffffffffffffffffffffffffffffffffffffffffffff191614611cf9576040517f08c379a0000000000000000000000000000000000000000000000000000000008152600401611cf090613344565b60405180910390fd5b505b505050505050565b600080823b905060008111915050919050565b6000604051905090565b600080fd5b600080fd5b600073ffffffffffffffffffffffffffffffffffffffff82169050919050565b6000611d5582611d2a565b9050919050565b611d6581611d4a565b8114611d7057600080fd5b50565b600081359050611d8281611d5c565b92915050565b6000819050919050565b611d9b81611d88565b8114611da657600080fd5b50565b600081359050611db881611d92565b92915050565b60008060408385031215611dd557611dd4611d20565b5b6000611de385828601611d73565b9250506020611df485828601611da9565b9150509250929050565b611e0781611d88565b82525050565b6000602082019050611e226000830184611dfe565b92915050565b60007fffffffff0000000000000000000000000000000000000000000000000000000082169050919050565b611e5d81611e28565b8114611e6857600080fd5b50565b600081359050611e7a81611e54565b92915050565b600060208284031215611e9657611e95611d20565b5b6000611ea484828501611e6b565b91505092915050565b60008115159050919050565b611ec281611ead565b82525050565b6000602082019050611edd6000830184611eb9565b92915050565b600060208284031215611ef957611ef8611d20565b5b6000611f0784828501611da9565b91505092915050565b600081519050919050565b600082825260208201905092915050565b60005b83811015611f4a578082015181840152602081019050611f2f565b83811115611f59576000848401525b50505050565b6000601f19601f8301169050919050565b6000611f7b82611f10565b611f858185611f1b565b9350611f95818560208601611f2c565b611f9e81611f5f565b840191505092915050565b60006020820190508181036000830152611fc38184611f70565b905092915050565b600080fd5b7f4e487b7100000000000000000000000000000000000000000000000000000000600052604160045260246000fd5b61200882611f5f565b810181811067ffffffffffffffff8211171561202757612026611fd0565b5b80604052505050565b600061203a611d16565b90506120468282611fff565b919050565b600067ffffffffffffffff82111561206657612065611fd0565b5b602082029050602081019050919050565b600080fd5b600061208f61208a8461204b565b612030565b905080838252602082019050602084028301858111156120b2576120b1612077565b5b835b818110156120db57806120c78882611da9565b8452602084019350506020810190506120b4565b5050509392505050565b600082601f8301126120fa576120f9611fcb565b5b813561210a84826020860161207c565b91505092915050565b600080fd5b600067ffffffffffffffff82111561213357612132611fd0565b5b61213c82611f5f565b9050602081019050919050565b82818337600083830152505050565b600061216b61216684612118565b612030565b90508281526020810184848401111561218757612186612113565b5b612192848285612149565b509392505050565b600082601f8301126121af576121ae611fcb565b5b81356121bf848260208601612158565b91505092915050565b600080600080600060a086880312156121e4576121e3611d20565b5b60006121f288828901611d73565b955050602061220388828901611d73565b945050604086013567ffffffffffffffff81111561222457612223611d25565b5b612230888289016120e5565b935050606086013567ffffffffffffffff81111561225157612250611d25565b5b61225d888289016120e5565b925050608086013567ffffffffffffffff81111561227e5761227d611d25565b5b61228a8882890161219a565b9150509295509295909350565b600067ffffffffffffffff8211156122b2576122b1611fd0565b5b602082029050602081019050919050565b60006122d66122d184612297565b612030565b905080838252602082019050602084028301858111156122f9576122f8612077565b5b835b81811015612322578061230e8882611d73565b8452602084019350506020810190506122fb565b5050509392505050565b600082601f83011261234157612340611fcb565b5b81356123518482602086016122c3565b91505092915050565b6000806040838503121561237157612370611d20565b5b600083013567ffffffffffffffff81111561238f5761238e611d25565b5b61239b8582860161232c565b925050602083013567ffffffffffffffff8111156123bc576123bb611d25565b5b6123c8858286016120e5565b9150509250929050565b600081519050919050565b600082825260208201905092915050565b6000819050602082019050919050565b61240781611d88565b82525050565b600061241983836123fe565b60208301905092915050565b6000602082019050919050565b600061243d826123d2565b61244781856123dd565b9350612452836123ee565b8060005b8381101561248357815161246a888261240d565b975061247583612425565b925050600181019050612456565b5085935050505092915050565b600060208201905081810360008301526124aa8184612432565b905092915050565b600080600080608085870312156124cc576124cb611d20565b5b60006124da87828801611d73565b94505060206124eb87828801611d73565b93505060406124fc87828801611da9565b925050606061250d87828801611da9565b91505092959194509250565b61252281611d4a565b82525050565b600060208201905061253d6000830184612519565b92915050565b600060a0820190506125586000830188612519565b6125656020830187612519565b6125726040830186611dfe565b61257f6060830185612519565b61258c6080830184611dfe565b9695505050505050565b61259f81611ead565b81146125aa57600080fd5b50565b6000813590506125bc81612596565b92915050565b600080604083850312156125d9576125d8611d20565b5b60006125e785828601611d73565b92505060206125f8858286016125ad565b9150509250929050565b600080600080600060a0868803121561261e5761261d611d20565b5b600061262c88828901611d73565b955050602061263d88828901611d73565b945050604061264e88828901611da9565b935050606061265f88828901611d73565b925050608061267088828901611da9565b9150509295509295909350565b6000806040838503121561269457612693611d20565b5b60006126a285828601611d73565b92505060206126b385828601611d73565b9150509250929050565b600080600080600060a086880312156126d9576126d8611d20565b5b60006126e788828901611d73565b95505060206126f888828901611d73565b945050604061270988828901611da9565b935050606061271a88828901611da9565b925050608086013567ffffffffffffffff81111561273b5761273a611d25565b5b6127478882890161219a565b9150509295509295909350565b7f455243313135353a2062616c616e636520717565727920666f7220746865207a60008201527f65726f2061646472657373000000000000000000000000000000000000000000602082015250565b60006127b0602b83611f1b565b91506127bb82612754565b604082019050919050565b600060208201905081810360008301526127df816127a3565b9050919050565b7f4e487b7100000000000000000000000000000000000000000000000000000000600052602260045260246000fd5b6000600282049050600182168061282d57607f821691505b60208210811415612841576128406127e6565b5b50919050565b7f455243313135353a207472616e736665722063616c6c6572206973206e6f742060008201527f6f776e6572206e6f7220617070726f7665640000000000000000000000000000602082015250565b60006128a3603283611f1b565b91506128ae82612847565b604082019050919050565b600060208201905081810360008301526128d281612896565b9050919050565b7f455243313135353a206163636f756e747320616e6420696473206c656e67746860008201527f206d69736d617463680000000000000000000000000000000000000000000000602082015250565b6000612935602983611f1b565b9150612940826128d9565b604082019050919050565b6000602082019050818103600083015261296481612928565b9050919050565b7f4e487b7100000000000000000000000000000000000000000000000000000000600052603260045260246000fd5b7f4e487b7100000000000000000000000000000000000000000000000000000000600052601160045260246000fd5b60006129d482611d88565b91507fffffffffffffffffffffffffffffffffffffffffffffffffffffffffffffffff821415612a0757612a0661299a565b5b600182019050919050565b7f577261707065723a206f6e6c7920746865206f776e65722063616e207472616e60008201527f73666572206120706f736974696f6e0000000000000000000000000000000000602082015250565b6000612a6e602f83611f1b565b9150612a7982612a12565b604082019050919050565b60006020820190508181036000830152612a9d81612a61565b9050919050565b7f577261707065723a206f6e6c7920746865206f776e65722063616e20756e777260008201527f61702074686520706f736974696f6e0000000000000000000000000000000000602082015250565b6000612b00602f83611f1b565b9150612b0b82612aa4565b604082019050919050565b60006020820190508181036000830152612b2f81612af3565b9050919050565b7f455243313135353a2063616c6c6572206973206e6f74206f776e6572206e6f7260008201527f20617070726f7665640000000000000000000000000000000000000000000000602082015250565b6000612b92602983611f1b565b9150612b9d82612b36565b604082019050919050565b60006020820190508181036000830152612bc181612b85565b9050919050565b7f455243313135353a2069647320616e6420616d6f756e7473206c656e6774682060008201527f6d69736d61746368000000000000000000000000000000000000000000000000602082015250565b6000612c24602883611f1b565b9150612c2f82612bc8565b604082019050919050565b60006020820190508181036000830152612c5381612c17565b9050919050565b7f455243313135353a207472616e7366657220746f20746865207a65726f20616460008201527f6472657373000000000000000000000000000000000000000000000000000000602082015250565b6000612cb6602583611f1b565b9150612cc182612c5a565b604082019050919050565b60006020820190508181036000830152612ce581612ca9565b9050919050565b7f455243313135353a20696e73756666696369656e742062616c616e636520666f60008201527f72207472616e7366657200000000000000000000000000000000000000000000602082015250565b6000612d48602a83611f1b565b9150612d5382612cec565b604082019050919050565b60006020820190508181036000830152612d7781612d3b565b9050919050565b6000612d8982611d88565b9150612d9483611d88565b9250827fffffffffffffffffffffffffffffffffffffffffffffffffffffffffffffffff03821115612dc957612dc861299a565b5b828201905092915050565b60006040820190508181036000830152612dee8185612432565b90508181036020830152612e028184612432565b90509392505050565b7f455243313135353a2073657474696e6720617070726f76616c2073746174757360008201527f20666f722073656c660000000000000000000000000000000000000000000000602082015250565b6000612e67602983611f1b565b9150612e7282612e0b565b604082019050919050565b60006020820190508181036000830152612e9681612e5a565b9050919050565b7f455243313135353a206275726e2066726f6d20746865207a65726f206164647260008201527f6573730000000000000000000000000000000000000000000000000000000000602082015250565b6000612ef9602383611f1b565b9150612f0482612e9d565b604082019050919050565b60006020820190508181036000830152612f2881612eec565b9050919050565b7f455243313135353a206275726e20616d6f756e7420657863656564732062616c60008201527f616e636500000000000000000000000000000000000000000000000000000000602082015250565b6000612f8b602483611f1b565b9150612f9682612f2f565b604082019050919050565b60006020820190508181036000830152612fba81612f7e565b9050919050565b6000604082019050612fd66000830185611dfe565b612fe36020830184611dfe565b9392505050565b7f455243313135353a206d696e7420746f20746865207a65726f2061646472657360008201527f7300000000000000000000000000000000000000000000000000000000000000602082015250565b6000613046602183611f1b565b915061305182612fea565b604082019050919050565b6000602082019050818103600083015261307581613039565b9050919050565b600081519050919050565b600082825260208201905092915050565b60006130a38261307c565b6130ad8185613087565b93506130bd818560208601611f2c565b6130c681611f5f565b840191505092915050565b600060a0820190506130e66000830188612519565b6130f36020830187612519565b81810360408301526131058186612432565b905081810360608301526131198185612432565b9050818103608083015261312d8184613098565b90509695505050505050565b60008151905061314881611e54565b92915050565b60006020828403121561316457613163611d20565b5b600061317284828501613139565b91505092915050565b60008160e01c9050919050565b600060033d11156131a75760046000803e6131a460005161317b565b90505b90565b600060443d10156131ba5761323d565b6131c2611d16565b60043d036004823e80513d602482011167ffffffffffffffff821117156131ea57505061323d565b808201805167ffffffffffffffff811115613208575050505061323d565b80602083010160043d03850181111561322557505050505061323d565b61323482602001850186611fff565b82955050505050505b90565b7f455243313135353a207472616e7366657220746f206e6f6e204552433131353560008201527f526563656976657220696d706c656d656e746572000000000000000000000000602082015250565b600061329c603483611f1b565b91506132a782613240565b604082019050919050565b600060208201905081810360008301526132cb8161328f565b9050919050565b7f455243313135353a204552433131353552656365697665722072656a6563746560008201527f6420746f6b656e73000000000000000000000000000000000000000000000000602082015250565b600061332e602883611f1b565b9150613339826132d2565b604082019050919050565b6000602082019050818103600083015261335d81613321565b9050919050565b600060a0820190506133796000830188612519565b6133866020830187612519565b6133936040830186611dfe565b6133a06060830185611dfe565b81810360808301526133b28184613098565b9050969550505050505056fea264697066735822122054fb78df16916778ba7a61adc5c4ab812454fcce05df30b5338440d3b5a23ee564736f6c634300080b0033",
  "immutableReferences": {},
  "source": "// SPDX-License-Identifier: MIT\npragma solidity ^0.8.0; //solhint-disable compiler-fixed\n\nimport \"@openzeppelin/contracts/token/ERC1155/ERC1155.sol\";\n\n\ncontract BeraWrapper is ERC1155 {\n\n    address public owner;\n\n    uint public positionIDTotal;\n\n    mapping(uint => Position) public positionData;\n\n    struct Position {\n        address positionOwner; //address of user that shorted\n        address associatedPool; //standard or high risk pool\n        uint shortAmount;\n        address tokenShorted;\n        uint priceAtWrap;\n    }\n\n    constructor() ERC1155(\"\") { //solhint-disable func-visibility\n        owner = msg.sender;\n    }\n\n    function wrapPosition(address positionOwner,\n                address associatedPool,\n                uint shortAmount,\n                address tokenShorted,\n                uint priceAtWrap)\n                external {\n                    //increase global position counter\n                    positionIDTotal++;\n\n                    positionData[positionIDTotal] = Position({\n                        positionOwner: positionOwner,\n                        associatedPool: associatedPool,\n                        shortAmount: shortAmount,\n                        tokenShorted: tokenShorted,\n                        priceAtWrap: priceAtWrap\n                    });\n\n                    _mint(positionOwner, positionIDTotal, 1, \"\");\n                }\n\n    function unwrapPosition(address positionOwner, uint positionID) external {\n        require(positionOwner == positionData[positionID].positionOwner,\n            \"Wrapper: only the owner can unwrap the position\");\n\n        //we burn the token to release the funds\n        _burn(positionOwner, positionID, 1);\n    }\n\n    //SHOULD BE USED TO TRANSFER POSITIONS\n    //should be called from associated pool contract only (will have to add this later)\n    function transferPosition(address to, address from, uint _positionID, uint amount) external {\n        require(msg.sender == positionData[_positionID].positionOwner,\n            \"Wrapper: only the owner can transfer a position\");\n        require(from == positionData[_positionID].positionOwner,\n            \"Wrapper: only the owner can transfer a position\");\n\n        //send position\n        safeTransferFrom(to, from, _positionID, amount, \"\");\n\n        //update new owner\n        //might have some security issues with this, come back and recheck this later\n\t\tpositionData[_positionID].positionOwner = to; \n    }\n\n    //if position happens to get sent without the transferPosition() func being called then\n    //users can update it manually with this func\n    function updatePosition(address newPositionOwner, uint _positionID) external {\n        if (ERC1155.balanceOf(newPositionOwner, _positionID) > 0) {\n            //update new owner\n            positionData[_positionID].positionOwner = newPositionOwner;\n        }\n    }\n}\n",
  "sourcePath": "/home/kevin/Code/solidity_projects/beraMarket/contracts/BeraWrapper.sol",
  "compiler": {
    "name": "solc",
    "version": "0.8.11+commit.d7f03943.Emscripten.clang"
  },
  "schemaVersion": "3.4.3",
  "updatedAt": "2022-01-03T00:45:43.893Z",
  "networkType": "ethereum",
  "devdoc": {
    "kind": "dev",
    "methods": {
      "balanceOf(address,uint256)": {
        "details": "See {IERC1155-balanceOf}. Requirements: - `account` cannot be the zero address."
      },
      "balanceOfBatch(address[],uint256[])": {
        "details": "See {IERC1155-balanceOfBatch}. Requirements: - `accounts` and `ids` must have the same length."
      },
      "isApprovedForAll(address,address)": {
        "details": "See {IERC1155-isApprovedForAll}."
      },
      "safeBatchTransferFrom(address,address,uint256[],uint256[],bytes)": {
        "details": "See {IERC1155-safeBatchTransferFrom}."
      },
      "safeTransferFrom(address,address,uint256,uint256,bytes)": {
        "details": "See {IERC1155-safeTransferFrom}."
      },
      "setApprovalForAll(address,bool)": {
        "details": "See {IERC1155-setApprovalForAll}."
      },
      "supportsInterface(bytes4)": {
        "details": "See {IERC165-supportsInterface}."
      },
      "uri(uint256)": {
        "details": "See {IERC1155MetadataURI-uri}. This implementation returns the same URI for *all* token types. It relies on the token type ID substitution mechanism https://eips.ethereum.org/EIPS/eip-1155#metadata[defined in the EIP]. Clients calling this function must replace the `\\{id\\}` substring with the actual token type ID."
      }
    },
    "version": 1
  },
  "userdoc": {
    "kind": "user",
    "methods": {},
    "version": 1
  }
}