{
  "contractName": "Constants",
  "abi": [
    {
      "inputs": [],
      "name": "DAI_ADDRESS",
      "outputs": [
        {
          "internalType": "address",
          "name": "",
          "type": "address"
        }
      ],
      "stateMutability": "view",
      "type": "function"
    },
    {
      "inputs": [],
      "name": "WETH_ADDRESS",
      "outputs": [
        {
          "internalType": "address",
          "name": "",
          "type": "address"
        }
      ],
      "stateMutability": "view",
      "type": "function"
    },
    {
      "inputs": [],
      "name": "WETH_DAI_POOL",
      "outputs": [
        {
          "internalType": "address",
          "name": "",
          "type": "address"
        }
      ],
      "stateMutability": "view",
      "type": "function"
    },
    {
      "inputs": [],
      "name": "getDaiAddress",
      "outputs": [
        {
          "internalType": "address",
          "name": "",
          "type": "address"
        }
      ],
      "stateMutability": "view",
      "type": "function"
    },
    {
      "inputs": [],
      "name": "getWethDaiPool",
      "outputs": [
        {
          "internalType": "address",
          "name": "",
          "type": "address"
        }
      ],
      "stateMutability": "view",
      "type": "function"
    },
    {
      "inputs": [],
      "name": "getWethAddress",
      "outputs": [
        {
          "internalType": "address",
          "name": "",
          "type": "address"
        }
      ],
      "stateMutability": "view",
      "type": "function"
    },
    {
      "inputs": [],
      "name": "getDaiFee",
      "outputs": [
        {
          "internalType": "uint24",
          "name": "",
          "type": "uint24"
        }
      ],
      "stateMutability": "view",
      "type": "function"
    }
  ],
  "bytecode": "0x60e0604052736b175474e89094c44da98b954eedeac495271d0f73ffffffffffffffffffffffffffffffffffffffff1660809073ffffffffffffffffffffffffffffffffffffffff1681525073c2e9f25be6257c210d7adf0d4cd6e3e881ba25f873ffffffffffffffffffffffffffffffffffffffff1660a09073ffffffffffffffffffffffffffffffffffffffff1681525073c02aaa39b223fe8d0a0e5c4f27ead9083c756cc273ffffffffffffffffffffffffffffffffffffffff1660c09073ffffffffffffffffffffffffffffffffffffffff168152503480156100e557600080fd5b5060805160a05160c05161030d61012a60003960008181610156015261017c0152600081816101ee015261021e0152600081816101a201526101c8015261030d6000f3fe608060405234801561001057600080fd5b506004361061007d5760003560e01c806333187dbb1161005b57806333187dbb146100dc5780637475750a146100fa57806387e947c814610118578063ae7c136c146101365761007d565b8063040141e51461008257806323a7b42a146100a05780632a4c0a1a146100be575b600080fd5b61008a610154565b6040516100979190610283565b60405180910390f35b6100a8610178565b6040516100b59190610283565b60405180910390f35b6100c66101a0565b6040516100d39190610283565b60405180910390f35b6100e46101c4565b6040516100f19190610283565b60405180910390f35b6101026101ec565b60405161010f9190610283565b60405180910390f35b610120610210565b60405161012d91906102bc565b60405180910390f35b61013e61021a565b60405161014b9190610283565b60405180910390f35b7f000000000000000000000000000000000000000000000000000000000000000081565b60007f0000000000000000000000000000000000000000000000000000000000000000905090565b7f000000000000000000000000000000000000000000000000000000000000000081565b60007f0000000000000000000000000000000000000000000000000000000000000000905090565b7f000000000000000000000000000000000000000000000000000000000000000081565b6000610bb8905090565b60007f0000000000000000000000000000000000000000000000000000000000000000905090565b600073ffffffffffffffffffffffffffffffffffffffff82169050919050565b600061026d82610242565b9050919050565b61027d81610262565b82525050565b60006020820190506102986000830184610274565b92915050565b600062ffffff82169050919050565b6102b68161029e565b82525050565b60006020820190506102d160008301846102ad565b9291505056fea2646970667358221220b7a93994b96aff0e572577f5fa43c74c7669cdc2e1bc2dd2aa41d971c6b42f8864736f6c634300080b0033",
  "immutableReferences": {
    "4521": [
      {
        "length": 32,
        "start": 418
      },
      {
        "length": 32,
        "start": 456
      }
    ],
    "4524": [
      {
        "length": 32,
        "start": 494
      },
      {
        "length": 32,
        "start": 542
      }
    ],
    "4527": [
      {
        "length": 32,
        "start": 342
      },
      {
        "length": 32,
        "start": 380
      }
    ]
  },
  "source": "//SPDX-License-Identifier: MIT\npragma solidity ^0.8.0; //solhint-disable compiler-fixed\n\nimport \"../BeraWrapper.sol\";\nimport \"../BeraSwapper.sol\";\nimport \"../BeraPoolStandardRisk.sol\";\n\n\ncontract Constants {\n\n    address public immutable DAI_ADDRESS = 0x6B175474E89094C44Da98b954EedeAC495271d0F;\n    address public immutable WETH_DAI_POOL = 0xC2e9F25Be6257c210d7Adf0D4Cd6E3E881ba25f8;\n    address public immutable WETH_ADDRESS = 0xC02aaA39b223FE8D0A0e5C4F27eAD9083C756Cc2;\n    uint24 private constant DAI_FEE = 3000;\n\n    function getDaiAddress() public view returns(address) {\n        return DAI_ADDRESS;\n    }\n\n    function getWethDaiPool() public view returns(address) {\n        return WETH_DAI_POOL;\n    }\n\n    function getWethAddress() public view returns(address) {\n        return WETH_ADDRESS;\n    }\n\n    function getDaiFee() public view returns(uint24) {\n        return DAI_FEE;\n    }\n\n}\n",
  "sourcePath": "/home/kevin/Code/solidity_projects/beraMarket/contracts/ancillary/Constants.sol",
  "compiler": {
    "name": "solc",
    "version": "0.8.11+commit.d7f03943.Emscripten.clang"
  },
  "schemaVersion": "3.4.3",
  "updatedAt": "2022-01-15T22:20:23.664Z",
  "devdoc": {
    "kind": "dev",
    "methods": {},
    "version": 1
  },
  "userdoc": {
    "kind": "user",
    "methods": {},
    "version": 1
  }
}