{
  "contractName": "Constants",
  "abi": [
    {
      "inputs": [],
      "name": "DAI_ADDRESS",
      "outputs": [
        {
          "internalType": "address",
          "name": "",
          "type": "address"
        }
      ],
      "stateMutability": "view",
      "type": "function"
    }
  ],
  "bytecode": "0x60a0604052736b175474e89094c44da98b954eedeac495271d0f73ffffffffffffffffffffffffffffffffffffffff1660809073ffffffffffffffffffffffffffffffffffffffff1681525034801561005757600080fd5b5060805160f761007060003960006049015260f76000f3fe6080604052348015600f57600080fd5b506004361060285760003560e01c80632a4c0a1a14602d575b600080fd5b60336047565b604051603e919060a8565b60405180910390f35b7f000000000000000000000000000000000000000000000000000000000000000081565b600073ffffffffffffffffffffffffffffffffffffffff82169050919050565b6000609482606b565b9050919050565b60a281608b565b82525050565b600060208201905060bb6000830184609b565b9291505056fea2646970667358221220ea049d9851459f6c0f020efb1cf39639b1c9b061fe0cec33368362b163ecb4cb64736f6c634300080b0033",
  "immutableReferences": {
    "4415": [
      {
        "length": 32,
        "start": 73
      }
    ]
  },
  "source": "// SPDX-License-Identifier: MIT\npragma solidity ^0.8.0; //solhint-disable compiler-fixed\n\n\ncontract Constants {\n\n    address public immutable DAI_ADDRESS = 0x6B175474E89094C44Da98b954EedeAC495271d0F;\n\n\n\n}\n",
  "sourcePath": "/home/kevin/Code/solidity_projects/beraMarket/contracts/ancillary/Constants.sol",
  "compiler": {
    "name": "solc",
    "version": "0.8.11+commit.d7f03943.Emscripten.clang"
  },
  "schemaVersion": "3.4.3",
  "updatedAt": "2022-01-08T12:36:48.165Z",
  "devdoc": {
    "kind": "dev",
    "methods": {},
    "version": 1
  },
  "userdoc": {
    "kind": "user",
    "methods": {},
    "version": 1
  }
}