{
  "contractName": "Constants",
  "abi": [
    {
      "inputs": [
        {
          "internalType": "contract BeraWrapper",
          "name": "_beraWrapper",
          "type": "address"
        },
        {
          "internalType": "contract BeraSwapper",
          "name": "_beraSwapper",
          "type": "address"
        },
        {
          "internalType": "contract BeraPoolStandardRisk",
          "name": "_standardRiskPool",
          "type": "address"
        }
      ],
      "stateMutability": "nonpayable",
      "type": "constructor"
    },
    {
      "inputs": [],
      "name": "DAI_ADDRESS",
      "outputs": [
        {
          "internalType": "address",
          "name": "",
          "type": "address"
        }
      ],
      "stateMutability": "view",
      "type": "function"
    },
    {
      "inputs": [],
      "name": "WETH_ADDRESS",
      "outputs": [
        {
          "internalType": "address",
          "name": "",
          "type": "address"
        }
      ],
      "stateMutability": "view",
      "type": "function"
    },
    {
      "inputs": [],
      "name": "WETH_DAI_POOL",
      "outputs": [
        {
          "internalType": "address",
          "name": "",
          "type": "address"
        }
      ],
      "stateMutability": "view",
      "type": "function"
    },
    {
      "inputs": [],
      "name": "beraPoolStandardRisk",
      "outputs": [
        {
          "internalType": "contract BeraPoolStandardRisk",
          "name": "",
          "type": "address"
        }
      ],
      "stateMutability": "view",
      "type": "function"
    },
    {
      "inputs": [],
      "name": "beraSwapper",
      "outputs": [
        {
          "internalType": "contract BeraSwapper",
          "name": "",
          "type": "address"
        }
      ],
      "stateMutability": "view",
      "type": "function"
    },
    {
      "inputs": [],
      "name": "beraWrapper",
      "outputs": [
        {
          "internalType": "contract BeraWrapper",
          "name": "",
          "type": "address"
        }
      ],
      "stateMutability": "view",
      "type": "function"
    }
  ],
  "bytecode": "0x610140604052736b175474e89094c44da98b954eedeac495271d0f73ffffffffffffffffffffffffffffffffffffffff1660809073ffffffffffffffffffffffffffffffffffffffff1681525073c2e9f25be6257c210d7adf0d4cd6e3e881ba25f873ffffffffffffffffffffffffffffffffffffffff1660a09073ffffffffffffffffffffffffffffffffffffffff1681525073c02aaa39b223fe8d0a0e5c4f27ead9083c756cc273ffffffffffffffffffffffffffffffffffffffff1660c09073ffffffffffffffffffffffffffffffffffffffff168152503480156100e657600080fd5b506040516106b83803806106b88339818101604052810190610108919061029f565b8273ffffffffffffffffffffffffffffffffffffffff1660e08173ffffffffffffffffffffffffffffffffffffffff16815250508173ffffffffffffffffffffffffffffffffffffffff166101008173ffffffffffffffffffffffffffffffffffffffff16815250508073ffffffffffffffffffffffffffffffffffffffff166101208173ffffffffffffffffffffffffffffffffffffffff16815250505050506102f2565b600080fd5b600073ffffffffffffffffffffffffffffffffffffffff82169050919050565b60006101de826101b3565b9050919050565b60006101f0826101d3565b9050919050565b610200816101e5565b811461020b57600080fd5b50565b60008151905061021d816101f7565b92915050565b600061022e826101d3565b9050919050565b61023e81610223565b811461024957600080fd5b50565b60008151905061025b81610235565b92915050565b600061026c826101d3565b9050919050565b61027c81610261565b811461028757600080fd5b50565b60008151905061029981610273565b92915050565b6000806000606084860312156102b8576102b76101ae565b5b60006102c68682870161020e565b93505060206102d78682870161024c565b92505060406102e88682870161028a565b9150509250925092565b60805160a05160c05160e05161010051610120516103776103416000396000610165015260006101d1015260006101ad0152600061011d015260006101890152600061014101526103776000f3fe608060405234801561001057600080fd5b50600436106100625760003560e01c8063040141e5146100675780632a4c0a1a146100855780632bcbeece146100a35780637475750a146100c1578063a29aa114146100df578063ffe28ca1146100fd575b600080fd5b61006f61011b565b60405161007c9190610234565b60405180910390f35b61008d61013f565b60405161009a9190610234565b60405180910390f35b6100ab610163565b6040516100b891906102ae565b60405180910390f35b6100c9610187565b6040516100d69190610234565b60405180910390f35b6100e76101ab565b6040516100f491906102ea565b60405180910390f35b6101056101cf565b6040516101129190610326565b60405180910390f35b7f000000000000000000000000000000000000000000000000000000000000000081565b7f000000000000000000000000000000000000000000000000000000000000000081565b7f000000000000000000000000000000000000000000000000000000000000000081565b7f000000000000000000000000000000000000000000000000000000000000000081565b7f000000000000000000000000000000000000000000000000000000000000000081565b7f000000000000000000000000000000000000000000000000000000000000000081565b600073ffffffffffffffffffffffffffffffffffffffff82169050919050565b600061021e826101f3565b9050919050565b61022e81610213565b82525050565b60006020820190506102496000830184610225565b92915050565b6000819050919050565b600061027461026f61026a846101f3565b61024f565b6101f3565b9050919050565b600061028682610259565b9050919050565b60006102988261027b565b9050919050565b6102a88161028d565b82525050565b60006020820190506102c3600083018461029f565b92915050565b60006102d48261027b565b9050919050565b6102e4816102c9565b82525050565b60006020820190506102ff60008301846102db565b92915050565b60006103108261027b565b9050919050565b61032081610305565b82525050565b600060208201905061033b6000830184610317565b9291505056fea26469706673582212208ee49e934f4b09bb7eb985932da0face2de7b787ea74f3f4d816bd4be30c83c464736f6c634300080b0033",
  "immutableReferences": {
    "4524": [
      {
        "length": 32,
        "start": 321
      }
    ],
    "4527": [
      {
        "length": 32,
        "start": 393
      }
    ],
    "4530": [
      {
        "length": 32,
        "start": 285
      }
    ],
    "4533": [
      {
        "length": 32,
        "start": 429
      }
    ],
    "4536": [
      {
        "length": 32,
        "start": 465
      }
    ],
    "4539": [
      {
        "length": 32,
        "start": 357
      }
    ]
  },
  "source": "// SPDX-License-Identifier: MIT\npragma solidity ^0.8.0; //solhint-disable compiler-fixed\n\nimport \"../BeraWrapper.sol\";\nimport \"../BeraSwapper.sol\";\nimport \"../BeraPoolStandardRisk.sol\";\n\n\ncontract Constants {\n\n    address public immutable DAI_ADDRESS = 0x6B175474E89094C44Da98b954EedeAC495271d0F;\n    address public immutable WETH_DAI_POOL = 0xC2e9F25Be6257c210d7Adf0D4Cd6E3E881ba25f8;\n    address public immutable WETH_ADDRESS = 0xC02aaA39b223FE8D0A0e5C4F27eAD9083C756Cc2;\n\n    //core contracts\n    BeraWrapper public immutable beraWrapper;\n    BeraSwapper public immutable beraSwapper;\n    BeraPoolStandardRisk public immutable beraPoolStandardRisk;\n\n    constructor(BeraWrapper _beraWrapper, BeraSwapper _beraSwapper, BeraPoolStandardRisk _standardRiskPool) {\n        beraWrapper = _beraWrapper;\n        beraSwapper = _beraSwapper;\n        beraPoolStandardRisk = _standardRiskPool;\n    }\n\n}\n",
  "sourcePath": "/home/kevin/Code/solidity_projects/beraMarket/contracts/ancillary/Constants.sol",
  "compiler": {
    "name": "solc",
    "version": "0.8.11+commit.d7f03943.Emscripten.clang"
  },
  "schemaVersion": "3.4.3",
  "updatedAt": "2022-01-15T15:37:16.948Z",
  "devdoc": {
    "kind": "dev",
    "methods": {},
    "version": 1
  },
  "userdoc": {
    "kind": "user",
    "methods": {},
    "version": 1
  }
}