{
  "contractName": "GoblinTownToken",
  "abi": [
    {
      "inputs": [
        {
          "internalType": "uint256",
          "name": "initialSupply",
          "type": "uint256"
        }
      ],
      "stateMutability": "nonpayable",
      "type": "constructor"
    },
    {
      "anonymous": false,
      "inputs": [
        {
          "indexed": true,
          "internalType": "address",
          "name": "owner",
          "type": "address"
        },
        {
          "indexed": true,
          "internalType": "address",
          "name": "spender",
          "type": "address"
        },
        {
          "indexed": false,
          "internalType": "uint256",
          "name": "value",
          "type": "uint256"
        }
      ],
      "name": "Approval",
      "type": "event"
    },
    {
      "anonymous": false,
      "inputs": [
        {
          "indexed": true,
          "internalType": "address",
          "name": "from",
          "type": "address"
        },
        {
          "indexed": true,
          "internalType": "address",
          "name": "to",
          "type": "address"
        },
        {
          "indexed": false,
          "internalType": "uint256",
          "name": "value",
          "type": "uint256"
        }
      ],
      "name": "Transfer",
      "type": "event"
    },
    {
      "inputs": [],
      "name": "DECIMALS",
      "outputs": [
        {
          "internalType": "uint256",
          "name": "",
          "type": "uint256"
        }
      ],
      "stateMutability": "view",
      "type": "function"
    },
    {
      "inputs": [],
      "name": "MAX_SUPPLY",
      "outputs": [
        {
          "internalType": "uint256",
          "name": "",
          "type": "uint256"
        }
      ],
      "stateMutability": "view",
      "type": "function"
    },
    {
      "inputs": [
        {
          "internalType": "address",
          "name": "owner",
          "type": "address"
        },
        {
          "internalType": "address",
          "name": "spender",
          "type": "address"
        }
      ],
      "name": "allowance",
      "outputs": [
        {
          "internalType": "uint256",
          "name": "",
          "type": "uint256"
        }
      ],
      "stateMutability": "view",
      "type": "function"
    },
    {
      "inputs": [
        {
          "internalType": "address",
          "name": "spender",
          "type": "address"
        },
        {
          "internalType": "uint256",
          "name": "amount",
          "type": "uint256"
        }
      ],
      "name": "approve",
      "outputs": [
        {
          "internalType": "bool",
          "name": "",
          "type": "bool"
        }
      ],
      "stateMutability": "nonpayable",
      "type": "function"
    },
    {
      "inputs": [
        {
          "internalType": "address",
          "name": "account",
          "type": "address"
        }
      ],
      "name": "balanceOf",
      "outputs": [
        {
          "internalType": "uint256",
          "name": "",
          "type": "uint256"
        }
      ],
      "stateMutability": "view",
      "type": "function"
    },
    {
      "inputs": [],
      "name": "circulatingSupply",
      "outputs": [
        {
          "internalType": "uint256",
          "name": "",
          "type": "uint256"
        }
      ],
      "stateMutability": "view",
      "type": "function"
    },
    {
      "inputs": [],
      "name": "decimals",
      "outputs": [
        {
          "internalType": "uint8",
          "name": "",
          "type": "uint8"
        }
      ],
      "stateMutability": "view",
      "type": "function"
    },
    {
      "inputs": [
        {
          "internalType": "address",
          "name": "spender",
          "type": "address"
        },
        {
          "internalType": "uint256",
          "name": "subtractedValue",
          "type": "uint256"
        }
      ],
      "name": "decreaseAllowance",
      "outputs": [
        {
          "internalType": "bool",
          "name": "",
          "type": "bool"
        }
      ],
      "stateMutability": "nonpayable",
      "type": "function"
    },
    {
      "inputs": [
        {
          "internalType": "address",
          "name": "spender",
          "type": "address"
        },
        {
          "internalType": "uint256",
          "name": "addedValue",
          "type": "uint256"
        }
      ],
      "name": "increaseAllowance",
      "outputs": [
        {
          "internalType": "bool",
          "name": "",
          "type": "bool"
        }
      ],
      "stateMutability": "nonpayable",
      "type": "function"
    },
    {
      "inputs": [],
      "name": "name",
      "outputs": [
        {
          "internalType": "string",
          "name": "",
          "type": "string"
        }
      ],
      "stateMutability": "view",
      "type": "function"
    },
    {
      "inputs": [],
      "name": "symbol",
      "outputs": [
        {
          "internalType": "string",
          "name": "",
          "type": "string"
        }
      ],
      "stateMutability": "view",
      "type": "function"
    },
    {
      "inputs": [],
      "name": "totalSupply",
      "outputs": [
        {
          "internalType": "uint256",
          "name": "",
          "type": "uint256"
        }
      ],
      "stateMutability": "view",
      "type": "function"
    },
    {
      "inputs": [
        {
          "internalType": "address",
          "name": "recipient",
          "type": "address"
        },
        {
          "internalType": "uint256",
          "name": "amount",
          "type": "uint256"
        }
      ],
      "name": "transfer",
      "outputs": [
        {
          "internalType": "bool",
          "name": "",
          "type": "bool"
        }
      ],
      "stateMutability": "nonpayable",
      "type": "function"
    },
    {
      "inputs": [
        {
          "internalType": "address",
          "name": "sender",
          "type": "address"
        },
        {
          "internalType": "address",
          "name": "recipient",
          "type": "address"
        },
        {
          "internalType": "uint256",
          "name": "amount",
          "type": "uint256"
        }
      ],
      "name": "transferFrom",
      "outputs": [
        {
          "internalType": "bool",
          "name": "",
          "type": "bool"
        }
      ],
      "stateMutability": "nonpayable",
      "type": "function"
    },
    {
      "inputs": [
        {
          "internalType": "uint256",
          "name": "amount",
          "type": "uint256"
        }
      ],
      "name": "mint",
      "outputs": [],
      "stateMutability": "nonpayable",
      "type": "function"
    },
    {
      "inputs": [
        {
          "internalType": "address",
          "name": "newOwner",
          "type": "address"
        }
      ],
      "name": "changeOwners",
      "outputs": [],
      "stateMutability": "nonpayable",
      "type": "function"
    }
  ],
  "bytecode": "0x60806040523480156200001157600080fd5b5060405162001fce38038062001fce8339818101604052810190620000379190620003ab565b6040518060400160405280601181526020017f476f626c696e20546f776e20546f6b656e0000000000000000000000000000008152506040518060400160405280600381526020017f47545400000000000000000000000000000000000000000000000000000000008152508160039080519060200190620000bb929190620002bb565b508060049080519060200190620000d4929190620002bb565b50505033600660006101000a81548173ffffffffffffffffffffffffffffffffffffffff021916908373ffffffffffffffffffffffffffffffffffffffff160217905550806005819055506200013133826200013860201b60201c565b506200057f565b600073ffffffffffffffffffffffffffffffffffffffff168273ffffffffffffffffffffffffffffffffffffffff161415620001ab576040517f08c379a0000000000000000000000000000000000000000000000000000000008152600401620001a2906200043e565b60405180910390fd5b620001bf60008383620002b160201b60201c565b8060026000828254620001d391906200048f565b92505081905550806000808473ffffffffffffffffffffffffffffffffffffffff1673ffffffffffffffffffffffffffffffffffffffff16815260200190815260200160002060008282546200022a91906200048f565b925050819055508173ffffffffffffffffffffffffffffffffffffffff16600073ffffffffffffffffffffffffffffffffffffffff167fddf252ad1be2c89b69c2b068fc378daa952ba7f163c4a11628f55a4df523b3ef83604051620002919190620004fd565b60405180910390a3620002ad60008383620002b660201b60201c565b5050565b505050565b505050565b828054620002c99062000549565b90600052602060002090601f016020900481019282620002ed576000855562000339565b82601f106200030857805160ff191683800117855562000339565b8280016001018555821562000339579182015b82811115620003385782518255916020019190600101906200031b565b5b5090506200034891906200034c565b5090565b5b80821115620003675760008160009055506001016200034d565b5090565b600080fd5b6000819050919050565b620003858162000370565b81146200039157600080fd5b50565b600081519050620003a5816200037a565b92915050565b600060208284031215620003c457620003c36200036b565b5b6000620003d48482850162000394565b91505092915050565b600082825260208201905092915050565b7f45524332303a206d696e7420746f20746865207a65726f206164647265737300600082015250565b600062000426601f83620003dd565b91506200043382620003ee565b602082019050919050565b60006020820190508181036000830152620004598162000417565b9050919050565b7f4e487b7100000000000000000000000000000000000000000000000000000000600052601160045260246000fd5b60006200049c8262000370565b9150620004a98362000370565b9250827fffffffffffffffffffffffffffffffffffffffffffffffffffffffffffffffff03821115620004e157620004e062000460565b5b828201905092915050565b620004f78162000370565b82525050565b6000602082019050620005146000830184620004ec565b92915050565b7f4e487b7100000000000000000000000000000000000000000000000000000000600052602260045260246000fd5b600060028204905060018216806200056257607f821691505b602082108114156200057957620005786200051a565b5b50919050565b611a3f806200058f6000396000f3fe608060405234801561001057600080fd5b50600436106101005760003560e01c806370a0823111610097578063a457c2d711610066578063a457c2d7146102b3578063a9059cbb146102e3578063d7963f9414610313578063dd62ed3e1461032f57610100565b806370a082311461022b5780639358928b1461025b57806395d89b4114610279578063a0712d681461029757610100565b80632e0f2625116100d35780632e0f2625146101a1578063313ce567146101bf57806332cb6b0c146101dd57806339509351146101fb57610100565b806306fdde0314610105578063095ea7b31461012357806318160ddd1461015357806323b872dd14610171575b600080fd5b61010d61035f565b60405161011a9190611084565b60405180910390f35b61013d6004803603810190610138919061113f565b6103f1565b60405161014a919061119a565b60405180910390f35b61015b61040f565b60405161016891906111c4565b60405180910390f35b61018b600480360381019061018691906111df565b610419565b604051610198919061119a565b60405180910390f35b6101a9610511565b6040516101b691906111c4565b60405180910390f35b6101c7610516565b6040516101d4919061124e565b60405180910390f35b6101e561051f565b6040516101f291906111c4565b60405180910390f35b6102156004803603810190610210919061113f565b61052d565b604051610222919061119a565b60405180910390f35b61024560048036038101906102409190611269565b6105d9565b60405161025291906111c4565b60405180910390f35b610263610621565b60405161027091906111c4565b60405180910390f35b610281610627565b60405161028e9190611084565b60405180910390f35b6102b160048036038101906102ac9190611296565b6106b9565b005b6102cd60048036038101906102c8919061113f565b6107c9565b6040516102da919061119a565b60405180910390f35b6102fd60048036038101906102f8919061113f565b6108b4565b60405161030a919061119a565b60405180910390f35b61032d60048036038101906103289190611269565b6108d2565b005b610349600480360381019061034491906112c3565b6109a6565b60405161035691906111c4565b60405180910390f35b60606003805461036e90611332565b80601f016020809104026020016040519081016040528092919081815260200182805461039a90611332565b80156103e75780601f106103bc576101008083540402835291602001916103e7565b820191906000526020600020905b8154815290600101906020018083116103ca57829003601f168201915b5050505050905090565b60006104056103fe610a2d565b8484610a35565b6001905092915050565b6000600254905090565b6000610426848484610c00565b6000600160008673ffffffffffffffffffffffffffffffffffffffff1673ffffffffffffffffffffffffffffffffffffffff1681526020019081526020016000206000610471610a2d565b73ffffffffffffffffffffffffffffffffffffffff1673ffffffffffffffffffffffffffffffffffffffff168152602001908152602001600020549050828110156104f1576040517f08c379a00000000000000000000000000000000000000000000000000000000081526004016104e8906113d6565b60405180910390fd5b610505856104fd610a2d565b858403610a35565b60019150509392505050565b601281565b60006012905090565b69152d02c7e14af680000081565b60006105cf61053a610a2d565b848460016000610548610a2d565b73ffffffffffffffffffffffffffffffffffffffff1673ffffffffffffffffffffffffffffffffffffffff16815260200190815260200160002060008873ffffffffffffffffffffffffffffffffffffffff1673ffffffffffffffffffffffffffffffffffffffff168152602001908152602001600020546105ca9190611425565b610a35565b6001905092915050565b60008060008373ffffffffffffffffffffffffffffffffffffffff1673ffffffffffffffffffffffffffffffffffffffff168152602001908152602001600020549050919050565b60055481565b60606004805461063690611332565b80601f016020809104026020016040519081016040528092919081815260200182805461066290611332565b80156106af5780601f10610684576101008083540402835291602001916106af565b820191906000526020600020905b81548152906001019060200180831161069257829003601f168201915b5050505050905090565b600660009054906101000a900473ffffffffffffffffffffffffffffffffffffffff1673ffffffffffffffffffffffffffffffffffffffff163373ffffffffffffffffffffffffffffffffffffffff1614610749576040517f08c379a0000000000000000000000000000000000000000000000000000000008152600401610740906114ed565b60405180910390fd5b69152d02c7e14af6800000600554826107629190611425565b11156107a3576040517f08c379a000000000000000000000000000000000000000000000000000000000815260040161079a9061157f565b60405180910390fd5b6107ad3382610e81565b80600560008282546107bf9190611425565b9250508190555050565b600080600160006107d8610a2d565b73ffffffffffffffffffffffffffffffffffffffff1673ffffffffffffffffffffffffffffffffffffffff16815260200190815260200160002060008573ffffffffffffffffffffffffffffffffffffffff1673ffffffffffffffffffffffffffffffffffffffff16815260200190815260200160002054905082811015610895576040517f08c379a000000000000000000000000000000000000000000000000000000000815260040161088c90611611565b60405180910390fd5b6108a96108a0610a2d565b85858403610a35565b600191505092915050565b60006108c86108c1610a2d565b8484610c00565b6001905092915050565b600660009054906101000a900473ffffffffffffffffffffffffffffffffffffffff1673ffffffffffffffffffffffffffffffffffffffff163373ffffffffffffffffffffffffffffffffffffffff1614610962576040517f08c379a0000000000000000000000000000000000000000000000000000000008152600401610959906116a3565b60405180910390fd5b80600660006101000a81548173ffffffffffffffffffffffffffffffffffffffff021916908373ffffffffffffffffffffffffffffffffffffffff16021790555050565b6000600160008473ffffffffffffffffffffffffffffffffffffffff1673ffffffffffffffffffffffffffffffffffffffff16815260200190815260200160002060008373ffffffffffffffffffffffffffffffffffffffff1673ffffffffffffffffffffffffffffffffffffffff16815260200190815260200160002054905092915050565b600033905090565b600073ffffffffffffffffffffffffffffffffffffffff168373ffffffffffffffffffffffffffffffffffffffff161415610aa5576040517f08c379a0000000000000000000000000000000000000000000000000000000008152600401610a9c90611735565b60405180910390fd5b600073ffffffffffffffffffffffffffffffffffffffff168273ffffffffffffffffffffffffffffffffffffffff161415610b15576040517f08c379a0000000000000000000000000000000000000000000000000000000008152600401610b0c906117c7565b60405180910390fd5b80600160008573ffffffffffffffffffffffffffffffffffffffff1673ffffffffffffffffffffffffffffffffffffffff16815260200190815260200160002060008473ffffffffffffffffffffffffffffffffffffffff1673ffffffffffffffffffffffffffffffffffffffff168152602001908152602001600020819055508173ffffffffffffffffffffffffffffffffffffffff168373ffffffffffffffffffffffffffffffffffffffff167f8c5be1e5ebec7d5bd14f71427d1e84f3dd0314c0f7b2291e5b200ac8c7c3b92583604051610bf391906111c4565b60405180910390a3505050565b600073ffffffffffffffffffffffffffffffffffffffff168373ffffffffffffffffffffffffffffffffffffffff161415610c70576040517f08c379a0000000000000000000000000000000000000000000000000000000008152600401610c6790611859565b60405180910390fd5b600073ffffffffffffffffffffffffffffffffffffffff168273ffffffffffffffffffffffffffffffffffffffff161415610ce0576040517f08c379a0000000000000000000000000000000000000000000000000000000008152600401610cd7906118eb565b60405180910390fd5b610ceb838383610fe1565b60008060008573ffffffffffffffffffffffffffffffffffffffff1673ffffffffffffffffffffffffffffffffffffffff16815260200190815260200160002054905081811015610d71576040517f08c379a0000000000000000000000000000000000000000000000000000000008152600401610d689061197d565b60405180910390fd5b8181036000808673ffffffffffffffffffffffffffffffffffffffff1673ffffffffffffffffffffffffffffffffffffffff16815260200190815260200160002081905550816000808573ffffffffffffffffffffffffffffffffffffffff1673ffffffffffffffffffffffffffffffffffffffff1681526020019081526020016000206000828254610e049190611425565b925050819055508273ffffffffffffffffffffffffffffffffffffffff168473ffffffffffffffffffffffffffffffffffffffff167fddf252ad1be2c89b69c2b068fc378daa952ba7f163c4a11628f55a4df523b3ef84604051610e6891906111c4565b60405180910390a3610e7b848484610fe6565b50505050565b600073ffffffffffffffffffffffffffffffffffffffff168273ffffffffffffffffffffffffffffffffffffffff161415610ef1576040517f08c379a0000000000000000000000000000000000000000000000000000000008152600401610ee8906119e9565b60405180910390fd5b610efd60008383610fe1565b8060026000828254610f0f9190611425565b92505081905550806000808473ffffffffffffffffffffffffffffffffffffffff1673ffffffffffffffffffffffffffffffffffffffff1681526020019081526020016000206000828254610f649190611425565b925050819055508173ffffffffffffffffffffffffffffffffffffffff16600073ffffffffffffffffffffffffffffffffffffffff167fddf252ad1be2c89b69c2b068fc378daa952ba7f163c4a11628f55a4df523b3ef83604051610fc991906111c4565b60405180910390a3610fdd60008383610fe6565b5050565b505050565b505050565b600081519050919050565b600082825260208201905092915050565b60005b8381101561102557808201518184015260208101905061100a565b83811115611034576000848401525b50505050565b6000601f19601f8301169050919050565b600061105682610feb565b6110608185610ff6565b9350611070818560208601611007565b6110798161103a565b840191505092915050565b6000602082019050818103600083015261109e818461104b565b905092915050565b600080fd5b600073ffffffffffffffffffffffffffffffffffffffff82169050919050565b60006110d6826110ab565b9050919050565b6110e6816110cb565b81146110f157600080fd5b50565b600081359050611103816110dd565b92915050565b6000819050919050565b61111c81611109565b811461112757600080fd5b50565b60008135905061113981611113565b92915050565b60008060408385031215611156576111556110a6565b5b6000611164858286016110f4565b92505060206111758582860161112a565b9150509250929050565b60008115159050919050565b6111948161117f565b82525050565b60006020820190506111af600083018461118b565b92915050565b6111be81611109565b82525050565b60006020820190506111d960008301846111b5565b92915050565b6000806000606084860312156111f8576111f76110a6565b5b6000611206868287016110f4565b9350506020611217868287016110f4565b92505060406112288682870161112a565b9150509250925092565b600060ff82169050919050565b61124881611232565b82525050565b6000602082019050611263600083018461123f565b92915050565b60006020828403121561127f5761127e6110a6565b5b600061128d848285016110f4565b91505092915050565b6000602082840312156112ac576112ab6110a6565b5b60006112ba8482850161112a565b91505092915050565b600080604083850312156112da576112d96110a6565b5b60006112e8858286016110f4565b92505060206112f9858286016110f4565b9150509250929050565b7f4e487b7100000000000000000000000000000000000000000000000000000000600052602260045260246000fd5b6000600282049050600182168061134a57607f821691505b6020821081141561135e5761135d611303565b5b50919050565b7f45524332303a207472616e7366657220616d6f756e742065786365656473206160008201527f6c6c6f77616e6365000000000000000000000000000000000000000000000000602082015250565b60006113c0602883610ff6565b91506113cb82611364565b604082019050919050565b600060208201905081810360008301526113ef816113b3565b9050919050565b7f4e487b7100000000000000000000000000000000000000000000000000000000600052601160045260246000fd5b600061143082611109565b915061143b83611109565b9250827fffffffffffffffffffffffffffffffffffffffffffffffffffffffffffffffff038211156114705761146f6113f6565b5b828201905092915050565b7f4754543a206f6e6c7920746865206f776e65722063616e206d696e7420746f6b60008201527f656e730000000000000000000000000000000000000000000000000000000000602082015250565b60006114d7602383610ff6565b91506114e28261147b565b604082019050919050565b60006020820190508181036000830152611506816114ca565b9050919050565b7f4754543a2063616e6e6f74206d696e74206d6f7265207468616e206d6178207360008201527f7570706c79000000000000000000000000000000000000000000000000000000602082015250565b6000611569602583610ff6565b91506115748261150d565b604082019050919050565b600060208201905081810360008301526115988161155c565b9050919050565b7f45524332303a2064656372656173656420616c6c6f77616e63652062656c6f7760008201527f207a65726f000000000000000000000000000000000000000000000000000000602082015250565b60006115fb602583610ff6565b91506116068261159f565b604082019050919050565b6000602082019050818103600083015261162a816115ee565b9050919050565b7f4754543a206f6e6c7920746865206f776e65722063616e2061737369676e206160008201527f206e6577206f776e657200000000000000000000000000000000000000000000602082015250565b600061168d602a83610ff6565b915061169882611631565b604082019050919050565b600060208201905081810360008301526116bc81611680565b9050919050565b7f45524332303a20617070726f76652066726f6d20746865207a65726f2061646460008201527f7265737300000000000000000000000000000000000000000000000000000000602082015250565b600061171f602483610ff6565b915061172a826116c3565b604082019050919050565b6000602082019050818103600083015261174e81611712565b9050919050565b7f45524332303a20617070726f766520746f20746865207a65726f20616464726560008201527f7373000000000000000000000000000000000000000000000000000000000000602082015250565b60006117b1602283610ff6565b91506117bc82611755565b604082019050919050565b600060208201905081810360008301526117e0816117a4565b9050919050565b7f45524332303a207472616e736665722066726f6d20746865207a65726f20616460008201527f6472657373000000000000000000000000000000000000000000000000000000602082015250565b6000611843602583610ff6565b915061184e826117e7565b604082019050919050565b6000602082019050818103600083015261187281611836565b9050919050565b7f45524332303a207472616e7366657220746f20746865207a65726f206164647260008201527f6573730000000000000000000000000000000000000000000000000000000000602082015250565b60006118d5602383610ff6565b91506118e082611879565b604082019050919050565b60006020820190508181036000830152611904816118c8565b9050919050565b7f45524332303a207472616e7366657220616d6f756e742065786365656473206260008201527f616c616e63650000000000000000000000000000000000000000000000000000602082015250565b6000611967602683610ff6565b91506119728261190b565b604082019050919050565b600060208201905081810360008301526119968161195a565b9050919050565b7f45524332303a206d696e7420746f20746865207a65726f206164647265737300600082015250565b60006119d3601f83610ff6565b91506119de8261199d565b602082019050919050565b60006020820190508181036000830152611a02816119c6565b905091905056fea2646970667358221220bf24dd92cda84b19b75eb575ff0aff35f8377098e152995fc05372159a49ed5364736f6c634300080a0033",
  "immutableReferences": {},
  "source": "// SPDX-License-Identifier: MIT\npragma solidity ^0.8.0; //solhint-disable compiler-fixed\n\nimport \"@openzeppelin/contracts/token/ERC20/ERC20.sol\";\n\n\ncontract GoblinTownToken is ERC20 {\n\n    uint public circulatingSupply;\n    uint public constant MAX_SUPPLY = 100000000000000000000000;\n    uint public constant DECIMALS = 18;\n    address private owner;\n\n    constructor(uint initialSupply) ERC20(\"Goblin Town Token\", \"GTT\") { //solhint-disable func-visibility\n        owner = msg.sender;\n        circulatingSupply = initialSupply;\n        _mint(msg.sender, initialSupply);\n    }\n\n    function mint(uint amount) external {\n        require(msg.sender == owner, \"GTT: only the owner can mint tokens\");\n        require((amount + circulatingSupply) <= MAX_SUPPLY, \"GTT: cannot mint more than max supply\");\n\n        _mint(msg.sender, amount);\n        circulatingSupply += amount;\n    }\n\n    function changeOwners(address newOwner) external {\n        require(msg.sender == owner, \"GTT: only the owner can assign a new owner\");\n        owner = newOwner;\n    }\n\n}\n",
  "sourcePath": "/home/kevin/Code/solidity_projects/beraMarket/contracts/GoblinTownToken.sol",
  "compiler": {
    "name": "solc",
    "version": "0.8.10+commit.fc410830.Emscripten.clang"
  },
  "schemaVersion": "3.4.3",
  "updatedAt": "2021-11-12T23:06:41.709Z",
  "devdoc": {
    "kind": "dev",
    "methods": {
      "allowance(address,address)": {
        "details": "See {IERC20-allowance}."
      },
      "approve(address,uint256)": {
        "details": "See {IERC20-approve}. Requirements: - `spender` cannot be the zero address."
      },
      "balanceOf(address)": {
        "details": "See {IERC20-balanceOf}."
      },
      "decimals()": {
        "details": "Returns the number of decimals used to get its user representation. For example, if `decimals` equals `2`, a balance of `505` tokens should be displayed to a user as `5.05` (`505 / 10 ** 2`). Tokens usually opt for a value of 18, imitating the relationship between Ether and Wei. This is the value {ERC20} uses, unless this function is overridden; NOTE: This information is only used for _display_ purposes: it in no way affects any of the arithmetic of the contract, including {IERC20-balanceOf} and {IERC20-transfer}."
      },
      "decreaseAllowance(address,uint256)": {
        "details": "Atomically decreases the allowance granted to `spender` by the caller. This is an alternative to {approve} that can be used as a mitigation for problems described in {IERC20-approve}. Emits an {Approval} event indicating the updated allowance. Requirements: - `spender` cannot be the zero address. - `spender` must have allowance for the caller of at least `subtractedValue`."
      },
      "increaseAllowance(address,uint256)": {
        "details": "Atomically increases the allowance granted to `spender` by the caller. This is an alternative to {approve} that can be used as a mitigation for problems described in {IERC20-approve}. Emits an {Approval} event indicating the updated allowance. Requirements: - `spender` cannot be the zero address."
      },
      "name()": {
        "details": "Returns the name of the token."
      },
      "symbol()": {
        "details": "Returns the symbol of the token, usually a shorter version of the name."
      },
      "totalSupply()": {
        "details": "See {IERC20-totalSupply}."
      },
      "transfer(address,uint256)": {
        "details": "See {IERC20-transfer}. Requirements: - `recipient` cannot be the zero address. - the caller must have a balance of at least `amount`."
      },
      "transferFrom(address,address,uint256)": {
        "details": "See {IERC20-transferFrom}. Emits an {Approval} event indicating the updated allowance. This is not required by the EIP. See the note at the beginning of {ERC20}. Requirements: - `sender` and `recipient` cannot be the zero address. - `sender` must have a balance of at least `amount`. - the caller must have allowance for ``sender``'s tokens of at least `amount`."
      }
    },
    "version": 1
  },
  "userdoc": {
    "kind": "user",
    "methods": {},
    "version": 1
  }
}