{
  "contractName": "GoblinVotingRights",
  "abi": [
    {
      "inputs": [
        {
          "internalType": "contract GoblinTownToken",
          "name": "_goblinTownToken",
          "type": "address"
        }
      ],
      "stateMutability": "nonpayable",
      "type": "constructor"
    },
    {
      "anonymous": false,
      "inputs": [
        {
          "indexed": true,
          "internalType": "address",
          "name": "owner",
          "type": "address"
        },
        {
          "indexed": true,
          "internalType": "address",
          "name": "spender",
          "type": "address"
        },
        {
          "indexed": false,
          "internalType": "uint256",
          "name": "value",
          "type": "uint256"
        }
      ],
      "name": "Approval",
      "type": "event"
    },
    {
      "anonymous": false,
      "inputs": [
        {
          "indexed": true,
          "internalType": "address",
          "name": "from",
          "type": "address"
        },
        {
          "indexed": true,
          "internalType": "address",
          "name": "to",
          "type": "address"
        },
        {
          "indexed": false,
          "internalType": "uint256",
          "name": "value",
          "type": "uint256"
        }
      ],
      "name": "Transfer",
      "type": "event"
    },
    {
      "inputs": [
        {
          "internalType": "address",
          "name": "owner",
          "type": "address"
        },
        {
          "internalType": "address",
          "name": "spender",
          "type": "address"
        }
      ],
      "name": "allowance",
      "outputs": [
        {
          "internalType": "uint256",
          "name": "",
          "type": "uint256"
        }
      ],
      "stateMutability": "view",
      "type": "function"
    },
    {
      "inputs": [
        {
          "internalType": "address",
          "name": "spender",
          "type": "address"
        },
        {
          "internalType": "uint256",
          "name": "amount",
          "type": "uint256"
        }
      ],
      "name": "approve",
      "outputs": [
        {
          "internalType": "bool",
          "name": "",
          "type": "bool"
        }
      ],
      "stateMutability": "nonpayable",
      "type": "function"
    },
    {
      "inputs": [
        {
          "internalType": "address",
          "name": "account",
          "type": "address"
        }
      ],
      "name": "balanceOf",
      "outputs": [
        {
          "internalType": "uint256",
          "name": "",
          "type": "uint256"
        }
      ],
      "stateMutability": "view",
      "type": "function"
    },
    {
      "inputs": [
        {
          "internalType": "address",
          "name": "",
          "type": "address"
        }
      ],
      "name": "balances",
      "outputs": [
        {
          "internalType": "uint256",
          "name": "",
          "type": "uint256"
        }
      ],
      "stateMutability": "view",
      "type": "function"
    },
    {
      "inputs": [
        {
          "internalType": "address",
          "name": "",
          "type": "address"
        }
      ],
      "name": "canVote",
      "outputs": [
        {
          "internalType": "bool",
          "name": "",
          "type": "bool"
        }
      ],
      "stateMutability": "view",
      "type": "function"
    },
    {
      "inputs": [],
      "name": "decimals",
      "outputs": [
        {
          "internalType": "uint8",
          "name": "",
          "type": "uint8"
        }
      ],
      "stateMutability": "view",
      "type": "function"
    },
    {
      "inputs": [
        {
          "internalType": "address",
          "name": "spender",
          "type": "address"
        },
        {
          "internalType": "uint256",
          "name": "subtractedValue",
          "type": "uint256"
        }
      ],
      "name": "decreaseAllowance",
      "outputs": [
        {
          "internalType": "bool",
          "name": "",
          "type": "bool"
        }
      ],
      "stateMutability": "nonpayable",
      "type": "function"
    },
    {
      "inputs": [],
      "name": "goblinTownToken",
      "outputs": [
        {
          "internalType": "contract GoblinTownToken",
          "name": "",
          "type": "address"
        }
      ],
      "stateMutability": "view",
      "type": "function"
    },
    {
      "inputs": [
        {
          "internalType": "address",
          "name": "",
          "type": "address"
        }
      ],
      "name": "gttBalance",
      "outputs": [
        {
          "internalType": "uint256",
          "name": "",
          "type": "uint256"
        }
      ],
      "stateMutability": "view",
      "type": "function"
    },
    {
      "inputs": [
        {
          "internalType": "address",
          "name": "spender",
          "type": "address"
        },
        {
          "internalType": "uint256",
          "name": "addedValue",
          "type": "uint256"
        }
      ],
      "name": "increaseAllowance",
      "outputs": [
        {
          "internalType": "bool",
          "name": "",
          "type": "bool"
        }
      ],
      "stateMutability": "nonpayable",
      "type": "function"
    },
    {
      "inputs": [],
      "name": "minimumVotingBalance",
      "outputs": [
        {
          "internalType": "uint256",
          "name": "",
          "type": "uint256"
        }
      ],
      "stateMutability": "view",
      "type": "function"
    },
    {
      "inputs": [],
      "name": "name",
      "outputs": [
        {
          "internalType": "string",
          "name": "",
          "type": "string"
        }
      ],
      "stateMutability": "view",
      "type": "function"
    },
    {
      "inputs": [],
      "name": "owner",
      "outputs": [
        {
          "internalType": "address",
          "name": "",
          "type": "address"
        }
      ],
      "stateMutability": "view",
      "type": "function"
    },
    {
      "inputs": [],
      "name": "symbol",
      "outputs": [
        {
          "internalType": "string",
          "name": "",
          "type": "string"
        }
      ],
      "stateMutability": "view",
      "type": "function"
    },
    {
      "inputs": [],
      "name": "totalSupply",
      "outputs": [
        {
          "internalType": "uint256",
          "name": "",
          "type": "uint256"
        }
      ],
      "stateMutability": "view",
      "type": "function"
    },
    {
      "inputs": [
        {
          "internalType": "address",
          "name": "recipient",
          "type": "address"
        },
        {
          "internalType": "uint256",
          "name": "amount",
          "type": "uint256"
        }
      ],
      "name": "transfer",
      "outputs": [
        {
          "internalType": "bool",
          "name": "",
          "type": "bool"
        }
      ],
      "stateMutability": "nonpayable",
      "type": "function"
    },
    {
      "inputs": [
        {
          "internalType": "address",
          "name": "sender",
          "type": "address"
        },
        {
          "internalType": "address",
          "name": "recipient",
          "type": "address"
        },
        {
          "internalType": "uint256",
          "name": "amount",
          "type": "uint256"
        }
      ],
      "name": "transferFrom",
      "outputs": [
        {
          "internalType": "bool",
          "name": "",
          "type": "bool"
        }
      ],
      "stateMutability": "nonpayable",
      "type": "function"
    },
    {
      "inputs": [
        {
          "internalType": "uint256",
          "name": "",
          "type": "uint256"
        }
      ],
      "name": "voters",
      "outputs": [
        {
          "internalType": "address",
          "name": "",
          "type": "address"
        }
      ],
      "stateMutability": "view",
      "type": "function"
    },
    {
      "inputs": [
        {
          "internalType": "address",
          "name": "",
          "type": "address"
        }
      ],
      "name": "votingBalance",
      "outputs": [
        {
          "internalType": "uint256",
          "name": "",
          "type": "uint256"
        }
      ],
      "stateMutability": "view",
      "type": "function"
    },
    {
      "inputs": [
        {
          "internalType": "uint256",
          "name": "newBalanceNeeded",
          "type": "uint256"
        }
      ],
      "name": "changeMinimumVotingBalance",
      "outputs": [],
      "stateMutability": "nonpayable",
      "type": "function"
    },
    {
      "inputs": [],
      "name": "distributeVotingRightsTokens",
      "outputs": [],
      "stateMutability": "nonpayable",
      "type": "function"
    }
  ],
  "bytecode": "0x60806040523480156200001157600080fd5b50604051620021aa380380620021aa833981810160405281019062000037919062000297565b6040518060400160405280601a81526020017f476f626c696e20566f74696e672052696768747320546f6b656e0000000000008152506040518060400160405280600481526020017f47565254000000000000000000000000000000000000000000000000000000008152508160039080519060200190620000bb92919062000169565b508060049080519060200190620000d492919062000169565b50505080600c60006101000a81548173ffffffffffffffffffffffffffffffffffffffff021916908373ffffffffffffffffffffffffffffffffffffffff16021790555033600b60006101000a81548173ffffffffffffffffffffffffffffffffffffffff021916908373ffffffffffffffffffffffffffffffffffffffff1602179055506103e8600981905550506200032e565b8280546200017790620002f8565b90600052602060002090601f0160209004810192826200019b5760008555620001e7565b82601f10620001b657805160ff1916838001178555620001e7565b82800160010185558215620001e7579182015b82811115620001e6578251825591602001919060010190620001c9565b5b509050620001f69190620001fa565b5090565b5b8082111562000215576000816000905550600101620001fb565b5090565b600080fd5b600073ffffffffffffffffffffffffffffffffffffffff82169050919050565b60006200024b826200021e565b9050919050565b60006200025f826200023e565b9050919050565b620002718162000252565b81146200027d57600080fd5b50565b600081519050620002918162000266565b92915050565b600060208284031215620002b057620002af62000219565b5b6000620002c08482850162000280565b91505092915050565b7f4e487b7100000000000000000000000000000000000000000000000000000000600052602260045260246000fd5b600060028204905060018216806200031157607f821691505b60208210811415620003285762000327620002c9565b5b50919050565b611e6c806200033e6000396000f3fe608060405234801561001057600080fd5b50600436106101375760003560e01c806370a08231116100b8578063a9059cbb1161007c578063a9059cbb1461037a578063adfaa72e146103aa578063be5bd984146103da578063da58c7d9146103f8578063dd62ed3e14610428578063ddacc75d1461045857610137565b806370a08231146102ae5780638da5cb5b146102de57806395d89b41146102fc5780639775a2e71461031a578063a457c2d71461034a57610137565b806323b872dd116100ff57806323b872dd146101d057806327e235e314610200578063313ce56714610230578063395093511461024e5780635e0353551461027e57610137565b806306fdde031461013c578063095ea7b31461015a578063134955771461018a57806317ce7f7d1461019457806318160ddd146101b2575b600080fd5b610144610474565b604051610151919061149d565b60405180910390f35b610174600480360381019061016f9190611558565b610506565b60405161018191906115b3565b60405180910390f35b610192610524565b005b61019c6105b6565b6040516101a991906115dd565b60405180910390f35b6101ba6105bc565b6040516101c791906115dd565b60405180910390f35b6101ea60048036038101906101e591906115f8565b6105c6565b6040516101f791906115b3565b60405180910390f35b61021a6004803603810190610215919061164b565b6106be565b60405161022791906115dd565b60405180910390f35b6102386106d6565b6040516102459190611694565b60405180910390f35b61026860048036038101906102639190611558565b6106df565b60405161027591906115b3565b60405180910390f35b6102986004803603810190610293919061164b565b61078b565b6040516102a591906115dd565b60405180910390f35b6102c860048036038101906102c3919061164b565b6107a3565b6040516102d591906115dd565b60405180910390f35b6102e66107eb565b6040516102f391906116be565b60405180910390f35b610304610811565b604051610311919061149d565b60405180910390f35b610334600480360381019061032f919061164b565b6108a3565b60405161034191906115dd565b60405180910390f35b610364600480360381019061035f9190611558565b6108bb565b60405161037191906115b3565b60405180910390f35b610394600480360381019061038f9190611558565b6109a6565b6040516103a191906115b3565b60405180910390f35b6103c460048036038101906103bf919061164b565b6109c4565b6040516103d191906115b3565b60405180910390f35b6103e26109e4565b6040516103ef9190611738565b60405180910390f35b610412600480360381019061040d9190611753565b610a0a565b60405161041f91906116be565b60405180910390f35b610442600480360381019061043d9190611780565b610a49565b60405161044f91906115dd565b60405180910390f35b610472600480360381019061046d9190611753565b610ad0565b005b606060038054610483906117ef565b80601f01602080910402602001604051908101604052809291908181526020018280546104af906117ef565b80156104fc5780601f106104d1576101008083540402835291602001916104fc565b820191906000526020600020905b8154815290600101906020018083116104df57829003601f168201915b5050505050905090565b600061051a610513610b6a565b8484610b72565b6001905092915050565b600b60009054906101000a900473ffffffffffffffffffffffffffffffffffffffff1673ffffffffffffffffffffffffffffffffffffffff163373ffffffffffffffffffffffffffffffffffffffff16146105b4576040517f08c379a00000000000000000000000000000000000000000000000000000000081526004016105ab9061186d565b60405180910390fd5b565b60095481565b6000600254905090565b60006105d3848484610f74565b6000600160008673ffffffffffffffffffffffffffffffffffffffff1673ffffffffffffffffffffffffffffffffffffffff168152602001908152602001600020600061061e610b6a565b73ffffffffffffffffffffffffffffffffffffffff1673ffffffffffffffffffffffffffffffffffffffff1681526020019081526020016000205490508281101561069e576040517f08c379a0000000000000000000000000000000000000000000000000000000008152600401610695906118ff565b60405180910390fd5b6106b2856106aa610b6a565b858403610b72565b60019150509392505050565b60086020528060005260406000206000915090505481565b60006012905090565b60006107816106ec610b6a565b8484600160006106fa610b6a565b73ffffffffffffffffffffffffffffffffffffffff1673ffffffffffffffffffffffffffffffffffffffff16815260200190815260200160002060008873ffffffffffffffffffffffffffffffffffffffff1673ffffffffffffffffffffffffffffffffffffffff1681526020019081526020016000205461077c919061194e565b610b72565b6001905092915050565b60076020528060005260406000206000915090505481565b60008060008373ffffffffffffffffffffffffffffffffffffffff1673ffffffffffffffffffffffffffffffffffffffff168152602001908152602001600020549050919050565b600b60009054906101000a900473ffffffffffffffffffffffffffffffffffffffff1681565b606060048054610820906117ef565b80601f016020809104026020016040519081016040528092919081815260200182805461084c906117ef565b80156108995780601f1061086e57610100808354040283529160200191610899565b820191906000526020600020905b81548152906001019060200180831161087c57829003601f168201915b5050505050905090565b60066020528060005260406000206000915090505481565b600080600160006108ca610b6a565b73ffffffffffffffffffffffffffffffffffffffff1673ffffffffffffffffffffffffffffffffffffffff16815260200190815260200160002060008573ffffffffffffffffffffffffffffffffffffffff1673ffffffffffffffffffffffffffffffffffffffff16815260200190815260200160002054905082811015610987576040517f08c379a000000000000000000000000000000000000000000000000000000000815260040161097e90611a16565b60405180910390fd5b61099b610992610b6a565b85858403610b72565b600191505092915050565b60006109ba6109b3610b6a565b8484610f74565b6001905092915050565b60056020528060005260406000206000915054906101000a900460ff1681565b600c60009054906101000a900473ffffffffffffffffffffffffffffffffffffffff1681565b600a8181548110610a1a57600080fd5b906000526020600020016000915054906101000a900473ffffffffffffffffffffffffffffffffffffffff1681565b6000600160008473ffffffffffffffffffffffffffffffffffffffff1673ffffffffffffffffffffffffffffffffffffffff16815260200190815260200160002060008373ffffffffffffffffffffffffffffffffffffffff1673ffffffffffffffffffffffffffffffffffffffff16815260200190815260200160002054905092915050565b600b60009054906101000a900473ffffffffffffffffffffffffffffffffffffffff1673ffffffffffffffffffffffffffffffffffffffff163373ffffffffffffffffffffffffffffffffffffffff1614610b60576040517f08c379a0000000000000000000000000000000000000000000000000000000008152600401610b579061186d565b60405180910390fd5b8060098190555050565b600033905090565b600073ffffffffffffffffffffffffffffffffffffffff168373ffffffffffffffffffffffffffffffffffffffff161415610be2576040517f08c379a0000000000000000000000000000000000000000000000000000000008152600401610bd990611aa8565b60405180910390fd5b600073ffffffffffffffffffffffffffffffffffffffff168273ffffffffffffffffffffffffffffffffffffffff161415610c52576040517f08c379a0000000000000000000000000000000000000000000000000000000008152600401610c4990611b3a565b60405180910390fd5b80600160008573ffffffffffffffffffffffffffffffffffffffff1673ffffffffffffffffffffffffffffffffffffffff16815260200190815260200160002060008473ffffffffffffffffffffffffffffffffffffffff1673ffffffffffffffffffffffffffffffffffffffff168152602001908152602001600020819055508173ffffffffffffffffffffffffffffffffffffffff168373ffffffffffffffffffffffffffffffffffffffff167f8c5be1e5ebec7d5bd14f71427d1e84f3dd0314c0f7b2291e5b200ac8c7c3b92583604051610d3091906115dd565b60405180910390a3505050565b600a805490508111610f7157610d90600a8281548110610d6057610d5f611b5a565b5b9060005260206000200160009054906101000a900473ffffffffffffffffffffffffffffffffffffffff166111f5565b6001151560056000600a8481548110610dac57610dab611b5a565b5b9060005260206000200160009054906101000a900473ffffffffffffffffffffffffffffffffffffffff1673ffffffffffffffffffffffffffffffffffffffff1673ffffffffffffffffffffffffffffffffffffffff16815260200190815260200160002060009054906101000a900460ff1615151415610f5e576000600c60009054906101000a900473ffffffffffffffffffffffffffffffffffffffff1673ffffffffffffffffffffffffffffffffffffffff1663f8b2cb4f600a8481548110610e7b57610e7a611b5a565b5b9060005260206000200160009054906101000a900473ffffffffffffffffffffffffffffffffffffffff166040518263ffffffff1660e01b8152600401610ec291906116be565b60206040518083038186803b158015610eda57600080fd5b505afa158015610eee573d6000803e3d6000fd5b505050506040513d601f19601f82011682018060405250810190610f129190611b9e565b9050610f5c600a8381548110610f2b57610f2a611b5a565b5b9060005260206000200160009054906101000a900473ffffffffffffffffffffffffffffffffffffffff168261129a565b505b8080610f6990611bcb565b915050610d3d565b50565b600073ffffffffffffffffffffffffffffffffffffffff168373ffffffffffffffffffffffffffffffffffffffff161415610fe4576040517f08c379a0000000000000000000000000000000000000000000000000000000008152600401610fdb90611c86565b60405180910390fd5b600073ffffffffffffffffffffffffffffffffffffffff168273ffffffffffffffffffffffffffffffffffffffff161415611054576040517f08c379a000000000000000000000000000000000000000000000000000000000815260040161104b90611d18565b60405180910390fd5b61105f8383836113fa565b60008060008573ffffffffffffffffffffffffffffffffffffffff1673ffffffffffffffffffffffffffffffffffffffff168152602001908152602001600020549050818110156110e5576040517f08c379a00000000000000000000000000000000000000000000000000000000081526004016110dc90611daa565b60405180910390fd5b8181036000808673ffffffffffffffffffffffffffffffffffffffff1673ffffffffffffffffffffffffffffffffffffffff16815260200190815260200160002081905550816000808573ffffffffffffffffffffffffffffffffffffffff1673ffffffffffffffffffffffffffffffffffffffff1681526020019081526020016000206000828254611178919061194e565b925050819055508273ffffffffffffffffffffffffffffffffffffffff168473ffffffffffffffffffffffffffffffffffffffff167fddf252ad1be2c89b69c2b068fc378daa952ba7f163c4a11628f55a4df523b3ef846040516111dc91906115dd565b60405180910390a36111ef8484846113ff565b50505050565b600954600760008373ffffffffffffffffffffffffffffffffffffffff1673ffffffffffffffffffffffffffffffffffffffff168152602001908152602001600020541115611297576001600560008373ffffffffffffffffffffffffffffffffffffffff1673ffffffffffffffffffffffffffffffffffffffff16815260200190815260200160002060006101000a81548160ff0219169083151502179055505b50565b600073ffffffffffffffffffffffffffffffffffffffff168273ffffffffffffffffffffffffffffffffffffffff16141561130a576040517f08c379a000000000000000000000000000000000000000000000000000000000815260040161130190611e16565b60405180910390fd5b611316600083836113fa565b8060026000828254611328919061194e565b92505081905550806000808473ffffffffffffffffffffffffffffffffffffffff1673ffffffffffffffffffffffffffffffffffffffff168152602001908152602001600020600082825461137d919061194e565b925050819055508173ffffffffffffffffffffffffffffffffffffffff16600073ffffffffffffffffffffffffffffffffffffffff167fddf252ad1be2c89b69c2b068fc378daa952ba7f163c4a11628f55a4df523b3ef836040516113e291906115dd565b60405180910390a36113f6600083836113ff565b5050565b505050565b505050565b600081519050919050565b600082825260208201905092915050565b60005b8381101561143e578082015181840152602081019050611423565b8381111561144d576000848401525b50505050565b6000601f19601f8301169050919050565b600061146f82611404565b611479818561140f565b9350611489818560208601611420565b61149281611453565b840191505092915050565b600060208201905081810360008301526114b78184611464565b905092915050565b600080fd5b600073ffffffffffffffffffffffffffffffffffffffff82169050919050565b60006114ef826114c4565b9050919050565b6114ff816114e4565b811461150a57600080fd5b50565b60008135905061151c816114f6565b92915050565b6000819050919050565b61153581611522565b811461154057600080fd5b50565b6000813590506115528161152c565b92915050565b6000806040838503121561156f5761156e6114bf565b5b600061157d8582860161150d565b925050602061158e85828601611543565b9150509250929050565b60008115159050919050565b6115ad81611598565b82525050565b60006020820190506115c860008301846115a4565b92915050565b6115d781611522565b82525050565b60006020820190506115f260008301846115ce565b92915050565b600080600060608486031215611611576116106114bf565b5b600061161f8682870161150d565b93505060206116308682870161150d565b925050604061164186828701611543565b9150509250925092565b600060208284031215611661576116606114bf565b5b600061166f8482850161150d565b91505092915050565b600060ff82169050919050565b61168e81611678565b82525050565b60006020820190506116a96000830184611685565b92915050565b6116b8816114e4565b82525050565b60006020820190506116d360008301846116af565b92915050565b6000819050919050565b60006116fe6116f96116f4846114c4565b6116d9565b6114c4565b9050919050565b6000611710826116e3565b9050919050565b600061172282611705565b9050919050565b61173281611717565b82525050565b600060208201905061174d6000830184611729565b92915050565b600060208284031215611769576117686114bf565b5b600061177784828501611543565b91505092915050565b60008060408385031215611797576117966114bf565b5b60006117a58582860161150d565b92505060206117b68582860161150d565b9150509250929050565b7f4e487b7100000000000000000000000000000000000000000000000000000000600052602260045260246000fd5b6000600282049050600182168061180757607f821691505b6020821081141561181b5761181a6117c0565b5b50919050565b7f6e6f74206f776e65720000000000000000000000000000000000000000000000600082015250565b600061185760098361140f565b915061186282611821565b602082019050919050565b600060208201905081810360008301526118868161184a565b9050919050565b7f45524332303a207472616e7366657220616d6f756e742065786365656473206160008201527f6c6c6f77616e6365000000000000000000000000000000000000000000000000602082015250565b60006118e960288361140f565b91506118f48261188d565b604082019050919050565b60006020820190508181036000830152611918816118dc565b9050919050565b7f4e487b7100000000000000000000000000000000000000000000000000000000600052601160045260246000fd5b600061195982611522565b915061196483611522565b9250827fffffffffffffffffffffffffffffffffffffffffffffffffffffffffffffffff038211156119995761199861191f565b5b828201905092915050565b7f45524332303a2064656372656173656420616c6c6f77616e63652062656c6f7760008201527f207a65726f000000000000000000000000000000000000000000000000000000602082015250565b6000611a0060258361140f565b9150611a0b826119a4565b604082019050919050565b60006020820190508181036000830152611a2f816119f3565b9050919050565b7f45524332303a20617070726f76652066726f6d20746865207a65726f2061646460008201527f7265737300000000000000000000000000000000000000000000000000000000602082015250565b6000611a9260248361140f565b9150611a9d82611a36565b604082019050919050565b60006020820190508181036000830152611ac181611a85565b9050919050565b7f45524332303a20617070726f766520746f20746865207a65726f20616464726560008201527f7373000000000000000000000000000000000000000000000000000000000000602082015250565b6000611b2460228361140f565b9150611b2f82611ac8565b604082019050919050565b60006020820190508181036000830152611b5381611b17565b9050919050565b7f4e487b7100000000000000000000000000000000000000000000000000000000600052603260045260246000fd5b600081519050611b988161152c565b92915050565b600060208284031215611bb457611bb36114bf565b5b6000611bc284828501611b89565b91505092915050565b6000611bd682611522565b91507fffffffffffffffffffffffffffffffffffffffffffffffffffffffffffffffff821415611c0957611c0861191f565b5b600182019050919050565b7f45524332303a207472616e736665722066726f6d20746865207a65726f20616460008201527f6472657373000000000000000000000000000000000000000000000000000000602082015250565b6000611c7060258361140f565b9150611c7b82611c14565b604082019050919050565b60006020820190508181036000830152611c9f81611c63565b9050919050565b7f45524332303a207472616e7366657220746f20746865207a65726f206164647260008201527f6573730000000000000000000000000000000000000000000000000000000000602082015250565b6000611d0260238361140f565b9150611d0d82611ca6565b604082019050919050565b60006020820190508181036000830152611d3181611cf5565b9050919050565b7f45524332303a207472616e7366657220616d6f756e742065786365656473206260008201527f616c616e63650000000000000000000000000000000000000000000000000000602082015250565b6000611d9460268361140f565b9150611d9f82611d38565b604082019050919050565b60006020820190508181036000830152611dc381611d87565b9050919050565b7f45524332303a206d696e7420746f20746865207a65726f206164647265737300600082015250565b6000611e00601f8361140f565b9150611e0b82611dca565b602082019050919050565b60006020820190508181036000830152611e2f81611df3565b905091905056fea26469706673582212209fccd77690bcfb7f29eddc5c95de92ca5869aa9323d50c57fa1b77507750e98864736f6c63430008090033",
  "immutableReferences": {},
  "source": "// SPDX-License-Identifier: MIT\npragma solidity ^0.8.0; //solhint-disable compiler-fixed\n\nimport \"./GoblinTownToken.sol\";\nimport \"@openzeppelin/contracts/token/ERC20/ERC20.sol\";\n\n\ncontract GoblinVotingRights is ERC20 {\n\n    mapping(address => bool) public canVote;\n    mapping(address => uint) public gttBalance;\n    mapping(address => uint) public votingBalance;\n    mapping(address => uint) public balances;\n\n    uint public minimumVotingBalance;\n    address[] public voters;\n\n    address public owner;\n\n    GoblinTownToken public goblinTownToken;\n\n    constructor(GoblinTownToken _goblinTownToken)\n    ERC20(\"Goblin Voting Rights Token\", \"GVRT\") {  //solhint-disable func-visibility\n        goblinTownToken = _goblinTownToken;\n        owner = msg.sender;\n        minimumVotingBalance = 1000;\n    }\n\n    function changeMinimumVotingBalance(uint newBalanceNeeded) external {\n        require(msg.sender == owner, \"not owner\");\n        minimumVotingBalance = newBalanceNeeded;\n    }\n\n    //will be called externally via script\n    function distributeVotingRightsTokens() external {\n        require(msg.sender == owner, \"not owner\");\n        _distributeVotingRightsTokens;\n    }\n\n    function checkVotingStatus(address voter) internal {\n        if (votingBalance[voter] > minimumVotingBalance) {\n            canVote[voter] = true;\n        }\n    }\n\n    function _distributeVotingRightsTokens() internal {\n        for (uint i = 0; i <= voters.length; i++) {\n            checkVotingStatus(voters[i]);\n            if (canVote[voters[i]] == true) {\n                //get user balance\n                uint votingTokens = goblinTownToken.getBalance(voters[i]);\n                _mint(voters[i], votingTokens);\n            }\n        }  \n    }\n\n}\n",
  "sourcePath": "/home/kevin/Code/solidity_projects/beraMarket/contracts/GoblinVotingRights.sol",
  "compiler": {
    "name": "solc",
    "version": "0.8.9+commit.e5eed63a.Emscripten.clang"
  },
  "schemaVersion": "3.4.3",
  "updatedAt": "2021-10-25T18:38:42.914Z",
  "devdoc": {
    "kind": "dev",
    "methods": {
      "allowance(address,address)": {
        "details": "See {IERC20-allowance}."
      },
      "approve(address,uint256)": {
        "details": "See {IERC20-approve}. Requirements: - `spender` cannot be the zero address."
      },
      "balanceOf(address)": {
        "details": "See {IERC20-balanceOf}."
      },
      "decimals()": {
        "details": "Returns the number of decimals used to get its user representation. For example, if `decimals` equals `2`, a balance of `505` tokens should be displayed to a user as `5.05` (`505 / 10 ** 2`). Tokens usually opt for a value of 18, imitating the relationship between Ether and Wei. This is the value {ERC20} uses, unless this function is overridden; NOTE: This information is only used for _display_ purposes: it in no way affects any of the arithmetic of the contract, including {IERC20-balanceOf} and {IERC20-transfer}."
      },
      "decreaseAllowance(address,uint256)": {
        "details": "Atomically decreases the allowance granted to `spender` by the caller. This is an alternative to {approve} that can be used as a mitigation for problems described in {IERC20-approve}. Emits an {Approval} event indicating the updated allowance. Requirements: - `spender` cannot be the zero address. - `spender` must have allowance for the caller of at least `subtractedValue`."
      },
      "increaseAllowance(address,uint256)": {
        "details": "Atomically increases the allowance granted to `spender` by the caller. This is an alternative to {approve} that can be used as a mitigation for problems described in {IERC20-approve}. Emits an {Approval} event indicating the updated allowance. Requirements: - `spender` cannot be the zero address."
      },
      "name()": {
        "details": "Returns the name of the token."
      },
      "symbol()": {
        "details": "Returns the symbol of the token, usually a shorter version of the name."
      },
      "totalSupply()": {
        "details": "See {IERC20-totalSupply}."
      },
      "transfer(address,uint256)": {
        "details": "See {IERC20-transfer}. Requirements: - `recipient` cannot be the zero address. - the caller must have a balance of at least `amount`."
      },
      "transferFrom(address,address,uint256)": {
        "details": "See {IERC20-transferFrom}. Emits an {Approval} event indicating the updated allowance. This is not required by the EIP. See the note at the beginning of {ERC20}. Requirements: - `sender` and `recipient` cannot be the zero address. - `sender` must have a balance of at least `amount`. - the caller must have allowance for ``sender``'s tokens of at least `amount`."
      }
    },
    "version": 1
  },
  "userdoc": {
    "kind": "user",
    "methods": {},
    "version": 1
  }
}