{
  "contractName": "GoblinVotingRights",
  "abi": [
    {
      "inputs": [
        {
          "internalType": "contract GoblinTownToken",
          "name": "_goblinTownToken",
          "type": "address"
        },
        {
          "internalType": "contract BeraPool",
          "name": "_beraPool",
          "type": "address"
        }
      ],
      "stateMutability": "nonpayable",
      "type": "constructor"
    },
    {
      "anonymous": false,
      "inputs": [
        {
          "indexed": true,
          "internalType": "address",
          "name": "owner",
          "type": "address"
        },
        {
          "indexed": true,
          "internalType": "address",
          "name": "spender",
          "type": "address"
        },
        {
          "indexed": false,
          "internalType": "uint256",
          "name": "value",
          "type": "uint256"
        }
      ],
      "name": "Approval",
      "type": "event"
    },
    {
      "anonymous": false,
      "inputs": [
        {
          "indexed": true,
          "internalType": "address",
          "name": "from",
          "type": "address"
        },
        {
          "indexed": true,
          "internalType": "address",
          "name": "to",
          "type": "address"
        },
        {
          "indexed": false,
          "internalType": "uint256",
          "name": "value",
          "type": "uint256"
        }
      ],
      "name": "Transfer",
      "type": "event"
    },
    {
      "inputs": [
        {
          "internalType": "address",
          "name": "owner",
          "type": "address"
        },
        {
          "internalType": "address",
          "name": "spender",
          "type": "address"
        }
      ],
      "name": "allowance",
      "outputs": [
        {
          "internalType": "uint256",
          "name": "",
          "type": "uint256"
        }
      ],
      "stateMutability": "view",
      "type": "function"
    },
    {
      "inputs": [
        {
          "internalType": "address",
          "name": "spender",
          "type": "address"
        },
        {
          "internalType": "uint256",
          "name": "amount",
          "type": "uint256"
        }
      ],
      "name": "approve",
      "outputs": [
        {
          "internalType": "bool",
          "name": "",
          "type": "bool"
        }
      ],
      "stateMutability": "nonpayable",
      "type": "function"
    },
    {
      "inputs": [
        {
          "internalType": "address",
          "name": "account",
          "type": "address"
        }
      ],
      "name": "balanceOf",
      "outputs": [
        {
          "internalType": "uint256",
          "name": "",
          "type": "uint256"
        }
      ],
      "stateMutability": "view",
      "type": "function"
    },
    {
      "inputs": [
        {
          "internalType": "address",
          "name": "",
          "type": "address"
        }
      ],
      "name": "balances",
      "outputs": [
        {
          "internalType": "uint256",
          "name": "",
          "type": "uint256"
        }
      ],
      "stateMutability": "view",
      "type": "function"
    },
    {
      "inputs": [
        {
          "internalType": "address",
          "name": "",
          "type": "address"
        }
      ],
      "name": "canVote",
      "outputs": [
        {
          "internalType": "bool",
          "name": "",
          "type": "bool"
        }
      ],
      "stateMutability": "view",
      "type": "function"
    },
    {
      "inputs": [],
      "name": "decimals",
      "outputs": [
        {
          "internalType": "uint8",
          "name": "",
          "type": "uint8"
        }
      ],
      "stateMutability": "view",
      "type": "function"
    },
    {
      "inputs": [
        {
          "internalType": "address",
          "name": "spender",
          "type": "address"
        },
        {
          "internalType": "uint256",
          "name": "subtractedValue",
          "type": "uint256"
        }
      ],
      "name": "decreaseAllowance",
      "outputs": [
        {
          "internalType": "bool",
          "name": "",
          "type": "bool"
        }
      ],
      "stateMutability": "nonpayable",
      "type": "function"
    },
    {
      "inputs": [
        {
          "internalType": "address",
          "name": "",
          "type": "address"
        }
      ],
      "name": "gttBalance",
      "outputs": [
        {
          "internalType": "uint256",
          "name": "",
          "type": "uint256"
        }
      ],
      "stateMutability": "view",
      "type": "function"
    },
    {
      "inputs": [
        {
          "internalType": "address",
          "name": "spender",
          "type": "address"
        },
        {
          "internalType": "uint256",
          "name": "addedValue",
          "type": "uint256"
        }
      ],
      "name": "increaseAllowance",
      "outputs": [
        {
          "internalType": "bool",
          "name": "",
          "type": "bool"
        }
      ],
      "stateMutability": "nonpayable",
      "type": "function"
    },
    {
      "inputs": [],
      "name": "minimumVotingBalance",
      "outputs": [
        {
          "internalType": "uint256",
          "name": "",
          "type": "uint256"
        }
      ],
      "stateMutability": "view",
      "type": "function"
    },
    {
      "inputs": [],
      "name": "name",
      "outputs": [
        {
          "internalType": "string",
          "name": "",
          "type": "string"
        }
      ],
      "stateMutability": "view",
      "type": "function"
    },
    {
      "inputs": [],
      "name": "owner",
      "outputs": [
        {
          "internalType": "address",
          "name": "",
          "type": "address"
        }
      ],
      "stateMutability": "view",
      "type": "function"
    },
    {
      "inputs": [],
      "name": "symbol",
      "outputs": [
        {
          "internalType": "string",
          "name": "",
          "type": "string"
        }
      ],
      "stateMutability": "view",
      "type": "function"
    },
    {
      "inputs": [],
      "name": "totalSupply",
      "outputs": [
        {
          "internalType": "uint256",
          "name": "",
          "type": "uint256"
        }
      ],
      "stateMutability": "view",
      "type": "function"
    },
    {
      "inputs": [
        {
          "internalType": "address",
          "name": "recipient",
          "type": "address"
        },
        {
          "internalType": "uint256",
          "name": "amount",
          "type": "uint256"
        }
      ],
      "name": "transfer",
      "outputs": [
        {
          "internalType": "bool",
          "name": "",
          "type": "bool"
        }
      ],
      "stateMutability": "nonpayable",
      "type": "function"
    },
    {
      "inputs": [
        {
          "internalType": "address",
          "name": "sender",
          "type": "address"
        },
        {
          "internalType": "address",
          "name": "recipient",
          "type": "address"
        },
        {
          "internalType": "uint256",
          "name": "amount",
          "type": "uint256"
        }
      ],
      "name": "transferFrom",
      "outputs": [
        {
          "internalType": "bool",
          "name": "",
          "type": "bool"
        }
      ],
      "stateMutability": "nonpayable",
      "type": "function"
    },
    {
      "inputs": [
        {
          "internalType": "uint256",
          "name": "",
          "type": "uint256"
        }
      ],
      "name": "voters",
      "outputs": [
        {
          "internalType": "address",
          "name": "",
          "type": "address"
        }
      ],
      "stateMutability": "view",
      "type": "function"
    },
    {
      "inputs": [
        {
          "internalType": "address",
          "name": "",
          "type": "address"
        }
      ],
      "name": "votingBalance",
      "outputs": [
        {
          "internalType": "uint256",
          "name": "",
          "type": "uint256"
        }
      ],
      "stateMutability": "view",
      "type": "function"
    },
    {
      "inputs": [
        {
          "internalType": "uint256",
          "name": "newBalanceNeeded",
          "type": "uint256"
        }
      ],
      "name": "changeMinimumVotingBalance",
      "outputs": [],
      "stateMutability": "nonpayable",
      "type": "function"
    },
    {
      "inputs": [],
      "name": "distributeVotingRightsTokens",
      "outputs": [],
      "stateMutability": "nonpayable",
      "type": "function"
    }
  ],
  "bytecode": "0x60806040523480156200001157600080fd5b50604051620025f6380380620025f683398181016040528101906200003791906200031e565b6040518060400160405280601a81526020017f476f626c696e20566f74696e672052696768747320546f6b656e0000000000008152506040518060400160405280600381526020017f47565200000000000000000000000000000000000000000000000000000000008152508160039080519060200190620000bb929190620001ab565b508060049080519060200190620000d4929190620001ab565b50505081600d60006101000a81548173ffffffffffffffffffffffffffffffffffffffff021916908373ffffffffffffffffffffffffffffffffffffffff16021790555080600c60006101000a81548173ffffffffffffffffffffffffffffffffffffffff021916908373ffffffffffffffffffffffffffffffffffffffff16021790555033600b60006101000a81548173ffffffffffffffffffffffffffffffffffffffff021916908373ffffffffffffffffffffffffffffffffffffffff1602179055506103e86006819055505050620003ca565b828054620001b99062000394565b90600052602060002090601f016020900481019282620001dd576000855562000229565b82601f10620001f857805160ff191683800117855562000229565b8280016001018555821562000229579182015b82811115620002285782518255916020019190600101906200020b565b5b5090506200023891906200023c565b5090565b5b80821115620002575760008160009055506001016200023d565b5090565b600080fd5b600073ffffffffffffffffffffffffffffffffffffffff82169050919050565b60006200028d8262000260565b9050919050565b6000620002a18262000280565b9050919050565b620002b38162000294565b8114620002bf57600080fd5b50565b600081519050620002d381620002a8565b92915050565b6000620002e68262000280565b9050919050565b620002f881620002d9565b81146200030457600080fd5b50565b6000815190506200031881620002ed565b92915050565b600080604083850312156200033857620003376200025b565b5b60006200034885828601620002c2565b92505060206200035b8582860162000307565b9150509250929050565b7f4e487b7100000000000000000000000000000000000000000000000000000000600052602260045260246000fd5b60006002820490506001821680620003ad57607f821691505b60208210811415620003c457620003c362000365565b5b50919050565b61221c80620003da6000396000f3fe608060405234801561001057600080fd5b506004361061012c5760003560e01c806370a08231116100ad578063a9059cbb11610071578063a9059cbb1461036f578063adfaa72e1461039f578063da58c7d9146103cf578063dd62ed3e146103ff578063ddacc75d1461042f5761012c565b806370a08231146102a35780638da5cb5b146102d357806395d89b41146102f15780639775a2e71461030f578063a457c2d71461033f5761012c565b806323b872dd116100f457806323b872dd146101c557806327e235e3146101f5578063313ce5671461022557806339509351146102435780635e035355146102735761012c565b806306fdde0314610131578063095ea7b31461014f578063134955771461017f57806317ce7f7d1461018957806318160ddd146101a7575b600080fd5b61013961044b565b604051610146919061180d565b60405180910390f35b610169600480360381019061016491906118c8565b6104dd565b6040516101769190611923565b60405180910390f35b6101876104fb565b005b61019161059d565b60405161019e919061194d565b60405180910390f35b6101af6105a3565b6040516101bc919061194d565b60405180910390f35b6101df60048036038101906101da9190611968565b6105ad565b6040516101ec9190611923565b60405180910390f35b61020f600480360381019061020a91906119bb565b6106a5565b60405161021c919061194d565b60405180910390f35b61022d6106bd565b60405161023a9190611a04565b60405180910390f35b61025d600480360381019061025891906118c8565b6106c6565b60405161026a9190611923565b60405180910390f35b61028d600480360381019061028891906119bb565b610772565b60405161029a919061194d565b60405180910390f35b6102bd60048036038101906102b891906119bb565b61078a565b6040516102ca919061194d565b60405180910390f35b6102db6107d2565b6040516102e89190611a2e565b60405180910390f35b6102f96107f8565b604051610306919061180d565b60405180910390f35b610329600480360381019061032491906119bb565b61088a565b604051610336919061194d565b60405180910390f35b610359600480360381019061035491906118c8565b6108a2565b6040516103669190611923565b60405180910390f35b610389600480360381019061038491906118c8565b61098d565b6040516103969190611923565b60405180910390f35b6103b960048036038101906103b491906119bb565b6109ab565b6040516103c69190611923565b60405180910390f35b6103e960048036038101906103e49190611a49565b6109cb565b6040516103f69190611a2e565b60405180910390f35b61041960048036038101906104149190611a76565b610a0a565b604051610426919061194d565b60405180910390f35b61044960048036038101906104449190611a49565b610a91565b005b60606003805461045a90611ae5565b80601f016020809104026020016040519081016040528092919081815260200182805461048690611ae5565b80156104d35780601f106104a8576101008083540402835291602001916104d3565b820191906000526020600020905b8154815290600101906020018083116104b657829003601f168201915b5050505050905090565b60006104f16104ea610b2b565b8484610b33565b6001905092915050565b600b60009054906101000a900473ffffffffffffffffffffffffffffffffffffffff1673ffffffffffffffffffffffffffffffffffffffff163373ffffffffffffffffffffffffffffffffffffffff161461058b576040517f08c379a000000000000000000000000000000000000000000000000000000000815260040161058290611b63565b60405180910390fd5b610593610cfe565b61059b610f38565b565b60065481565b6000600254905090565b60006105ba848484611281565b6000600160008673ffffffffffffffffffffffffffffffffffffffff1673ffffffffffffffffffffffffffffffffffffffff1681526020019081526020016000206000610605610b2b565b73ffffffffffffffffffffffffffffffffffffffff1673ffffffffffffffffffffffffffffffffffffffff16815260200190815260200160002054905082811015610685576040517f08c379a000000000000000000000000000000000000000000000000000000000815260040161067c90611bf5565b60405180910390fd5b61069985610691610b2b565b858403610b33565b60019150509392505050565b60056020528060005260406000206000915090505481565b60006012905090565b60006107686106d3610b2b565b8484600160006106e1610b2b565b73ffffffffffffffffffffffffffffffffffffffff1673ffffffffffffffffffffffffffffffffffffffff16815260200190815260200160002060008873ffffffffffffffffffffffffffffffffffffffff1673ffffffffffffffffffffffffffffffffffffffff168152602001908152602001600020546107639190611c44565b610b33565b6001905092915050565b600a6020528060005260406000206000915090505481565b60008060008373ffffffffffffffffffffffffffffffffffffffff1673ffffffffffffffffffffffffffffffffffffffff168152602001908152602001600020549050919050565b600b60009054906101000a900473ffffffffffffffffffffffffffffffffffffffff1681565b60606004805461080790611ae5565b80601f016020809104026020016040519081016040528092919081815260200182805461083390611ae5565b80156108805780601f1061085557610100808354040283529160200191610880565b820191906000526020600020905b81548152906001019060200180831161086357829003601f168201915b5050505050905090565b60096020528060005260406000206000915090505481565b600080600160006108b1610b2b565b73ffffffffffffffffffffffffffffffffffffffff1673ffffffffffffffffffffffffffffffffffffffff16815260200190815260200160002060008573ffffffffffffffffffffffffffffffffffffffff1673ffffffffffffffffffffffffffffffffffffffff1681526020019081526020016000205490508281101561096e576040517f08c379a000000000000000000000000000000000000000000000000000000000815260040161096590611d0c565b60405180910390fd5b610982610979610b2b565b85858403610b33565b600191505092915050565b60006109a161099a610b2b565b8484611281565b6001905092915050565b60086020528060005260406000206000915054906101000a900460ff1681565b600781815481106109db57600080fd5b906000526020600020016000915054906101000a900473ffffffffffffffffffffffffffffffffffffffff1681565b6000600160008473ffffffffffffffffffffffffffffffffffffffff1673ffffffffffffffffffffffffffffffffffffffff16815260200190815260200160002060008373ffffffffffffffffffffffffffffffffffffffff1673ffffffffffffffffffffffffffffffffffffffff16815260200190815260200160002054905092915050565b600b60009054906101000a900473ffffffffffffffffffffffffffffffffffffffff1673ffffffffffffffffffffffffffffffffffffffff163373ffffffffffffffffffffffffffffffffffffffff1614610b21576040517f08c379a0000000000000000000000000000000000000000000000000000000008152600401610b1890611b63565b60405180910390fd5b8060068190555050565b600033905090565b600073ffffffffffffffffffffffffffffffffffffffff168373ffffffffffffffffffffffffffffffffffffffff161415610ba3576040517f08c379a0000000000000000000000000000000000000000000000000000000008152600401610b9a90611d9e565b60405180910390fd5b600073ffffffffffffffffffffffffffffffffffffffff168273ffffffffffffffffffffffffffffffffffffffff161415610c13576040517f08c379a0000000000000000000000000000000000000000000000000000000008152600401610c0a90611e30565b60405180910390fd5b80600160008573ffffffffffffffffffffffffffffffffffffffff1673ffffffffffffffffffffffffffffffffffffffff16815260200190815260200160002060008473ffffffffffffffffffffffffffffffffffffffff1673ffffffffffffffffffffffffffffffffffffffff168152602001908152602001600020819055508173ffffffffffffffffffffffffffffffffffffffff168373ffffffffffffffffffffffffffffffffffffffff167f8c5be1e5ebec7d5bd14f71427d1e84f3dd0314c0f7b2291e5b200ac8c7c3b92583604051610cf1919061194d565b60405180910390a3505050565b60005b6007805490508111610f3557610d5460078281548110610d2457610d23611e50565b5b9060005260206000200160009054906101000a900473ffffffffffffffffffffffffffffffffffffffff16611502565b600115156008600060078481548110610d7057610d6f611e50565b5b9060005260206000200160009054906101000a900473ffffffffffffffffffffffffffffffffffffffff1673ffffffffffffffffffffffffffffffffffffffff1673ffffffffffffffffffffffffffffffffffffffff16815260200190815260200160002060009054906101000a900460ff1615151415610f22576000600d60009054906101000a900473ffffffffffffffffffffffffffffffffffffffff1673ffffffffffffffffffffffffffffffffffffffff166370a0823160078481548110610e3f57610e3e611e50565b5b9060005260206000200160009054906101000a900473ffffffffffffffffffffffffffffffffffffffff166040518263ffffffff1660e01b8152600401610e869190611a2e565b60206040518083038186803b158015610e9e57600080fd5b505afa158015610eb2573d6000803e3d6000fd5b505050506040513d601f19601f82011682018060405250810190610ed69190611e94565b9050610f2060078381548110610eef57610eee611e50565b5b9060005260206000200160009054906101000a900473ffffffffffffffffffffffffffffffffffffffff168261160a565b505b8080610f2d90611ec1565b915050610d01565b50565b60005b60078054905081101561127e5760646019600d60009054906101000a900473ffffffffffffffffffffffffffffffffffffffff1673ffffffffffffffffffffffffffffffffffffffff166370a08231600d60009054906101000a900473ffffffffffffffffffffffffffffffffffffffff166040518263ffffffff1660e01b8152600401610fc99190611a2e565b60206040518083038186803b158015610fe157600080fd5b505afa158015610ff5573d6000803e3d6000fd5b505050506040513d601f19601f820116820180604052508101906110199190611e94565b6110239190611f0a565b61102d9190611f93565b600c60009054906101000a900473ffffffffffffffffffffffffffffffffffffffff1673ffffffffffffffffffffffffffffffffffffffff1663f8ccdd586007848154811061107f5761107e611e50565b5b9060005260206000200160009054906101000a900473ffffffffffffffffffffffffffffffffffffffff166040518263ffffffff1660e01b81526004016110c69190611a2e565b60206040518083038186803b1580156110de57600080fd5b505afa1580156110f2573d6000803e3d6000fd5b505050506040513d601f19601f820116820180604052508101906111169190611e94565b111561126b5760006064600a600d60009054906101000a900473ffffffffffffffffffffffffffffffffffffffff1673ffffffffffffffffffffffffffffffffffffffff166370a082316007868154811061117457611173611e50565b5b9060005260206000200160009054906101000a900473ffffffffffffffffffffffffffffffffffffffff166040518263ffffffff1660e01b81526004016111bb9190611a2e565b60206040518083038186803b1580156111d357600080fd5b505afa1580156111e7573d6000803e3d6000fd5b505050506040513d601f19601f8201168201806040525081019061120b9190611e94565b6112159190611f0a565b61121f9190611f93565b90506112696007838154811061123857611237611e50565b5b9060005260206000200160009054906101000a900473ffffffffffffffffffffffffffffffffffffffff168261160a565b505b808061127690611ec1565b915050610f3b565b50565b600073ffffffffffffffffffffffffffffffffffffffff168373ffffffffffffffffffffffffffffffffffffffff1614156112f1576040517f08c379a00000000000000000000000000000000000000000000000000000000081526004016112e890612036565b60405180910390fd5b600073ffffffffffffffffffffffffffffffffffffffff168273ffffffffffffffffffffffffffffffffffffffff161415611361576040517f08c379a0000000000000000000000000000000000000000000000000000000008152600401611358906120c8565b60405180910390fd5b61136c83838361176a565b60008060008573ffffffffffffffffffffffffffffffffffffffff1673ffffffffffffffffffffffffffffffffffffffff168152602001908152602001600020549050818110156113f2576040517f08c379a00000000000000000000000000000000000000000000000000000000081526004016113e99061215a565b60405180910390fd5b8181036000808673ffffffffffffffffffffffffffffffffffffffff1673ffffffffffffffffffffffffffffffffffffffff16815260200190815260200160002081905550816000808573ffffffffffffffffffffffffffffffffffffffff1673ffffffffffffffffffffffffffffffffffffffff16815260200190815260200160002060008282546114859190611c44565b925050819055508273ffffffffffffffffffffffffffffffffffffffff168473ffffffffffffffffffffffffffffffffffffffff167fddf252ad1be2c89b69c2b068fc378daa952ba7f163c4a11628f55a4df523b3ef846040516114e9919061194d565b60405180910390a36114fc84848461176f565b50505050565b600654600a60008373ffffffffffffffffffffffffffffffffffffffff1673ffffffffffffffffffffffffffffffffffffffff168152602001908152602001600020541115611607576001600860008373ffffffffffffffffffffffffffffffffffffffff1673ffffffffffffffffffffffffffffffffffffffff16815260200190815260200160002060006101000a81548160ff0219169083151502179055506007819080600181540180825580915050600190039060005260206000200160009091909190916101000a81548173ffffffffffffffffffffffffffffffffffffffff021916908373ffffffffffffffffffffffffffffffffffffffff1602179055505b50565b600073ffffffffffffffffffffffffffffffffffffffff168273ffffffffffffffffffffffffffffffffffffffff16141561167a576040517f08c379a0000000000000000000000000000000000000000000000000000000008152600401611671906121c6565b60405180910390fd5b6116866000838361176a565b80600260008282546116989190611c44565b92505081905550806000808473ffffffffffffffffffffffffffffffffffffffff1673ffffffffffffffffffffffffffffffffffffffff16815260200190815260200160002060008282546116ed9190611c44565b925050819055508173ffffffffffffffffffffffffffffffffffffffff16600073ffffffffffffffffffffffffffffffffffffffff167fddf252ad1be2c89b69c2b068fc378daa952ba7f163c4a11628f55a4df523b3ef83604051611752919061194d565b60405180910390a36117666000838361176f565b5050565b505050565b505050565b600081519050919050565b600082825260208201905092915050565b60005b838110156117ae578082015181840152602081019050611793565b838111156117bd576000848401525b50505050565b6000601f19601f8301169050919050565b60006117df82611774565b6117e9818561177f565b93506117f9818560208601611790565b611802816117c3565b840191505092915050565b6000602082019050818103600083015261182781846117d4565b905092915050565b600080fd5b600073ffffffffffffffffffffffffffffffffffffffff82169050919050565b600061185f82611834565b9050919050565b61186f81611854565b811461187a57600080fd5b50565b60008135905061188c81611866565b92915050565b6000819050919050565b6118a581611892565b81146118b057600080fd5b50565b6000813590506118c28161189c565b92915050565b600080604083850312156118df576118de61182f565b5b60006118ed8582860161187d565b92505060206118fe858286016118b3565b9150509250929050565b60008115159050919050565b61191d81611908565b82525050565b60006020820190506119386000830184611914565b92915050565b61194781611892565b82525050565b6000602082019050611962600083018461193e565b92915050565b6000806000606084860312156119815761198061182f565b5b600061198f8682870161187d565b93505060206119a08682870161187d565b92505060406119b1868287016118b3565b9150509250925092565b6000602082840312156119d1576119d061182f565b5b60006119df8482850161187d565b91505092915050565b600060ff82169050919050565b6119fe816119e8565b82525050565b6000602082019050611a1960008301846119f5565b92915050565b611a2881611854565b82525050565b6000602082019050611a436000830184611a1f565b92915050565b600060208284031215611a5f57611a5e61182f565b5b6000611a6d848285016118b3565b91505092915050565b60008060408385031215611a8d57611a8c61182f565b5b6000611a9b8582860161187d565b9250506020611aac8582860161187d565b9150509250929050565b7f4e487b7100000000000000000000000000000000000000000000000000000000600052602260045260246000fd5b60006002820490506001821680611afd57607f821691505b60208210811415611b1157611b10611ab6565b5b50919050565b7f6e6f74206f776e65720000000000000000000000000000000000000000000000600082015250565b6000611b4d60098361177f565b9150611b5882611b17565b602082019050919050565b60006020820190508181036000830152611b7c81611b40565b9050919050565b7f45524332303a207472616e7366657220616d6f756e742065786365656473206160008201527f6c6c6f77616e6365000000000000000000000000000000000000000000000000602082015250565b6000611bdf60288361177f565b9150611bea82611b83565b604082019050919050565b60006020820190508181036000830152611c0e81611bd2565b9050919050565b7f4e487b7100000000000000000000000000000000000000000000000000000000600052601160045260246000fd5b6000611c4f82611892565b9150611c5a83611892565b9250827fffffffffffffffffffffffffffffffffffffffffffffffffffffffffffffffff03821115611c8f57611c8e611c15565b5b828201905092915050565b7f45524332303a2064656372656173656420616c6c6f77616e63652062656c6f7760008201527f207a65726f000000000000000000000000000000000000000000000000000000602082015250565b6000611cf660258361177f565b9150611d0182611c9a565b604082019050919050565b60006020820190508181036000830152611d2581611ce9565b9050919050565b7f45524332303a20617070726f76652066726f6d20746865207a65726f2061646460008201527f7265737300000000000000000000000000000000000000000000000000000000602082015250565b6000611d8860248361177f565b9150611d9382611d2c565b604082019050919050565b60006020820190508181036000830152611db781611d7b565b9050919050565b7f45524332303a20617070726f766520746f20746865207a65726f20616464726560008201527f7373000000000000000000000000000000000000000000000000000000000000602082015250565b6000611e1a60228361177f565b9150611e2582611dbe565b604082019050919050565b60006020820190508181036000830152611e4981611e0d565b9050919050565b7f4e487b7100000000000000000000000000000000000000000000000000000000600052603260045260246000fd5b600081519050611e8e8161189c565b92915050565b600060208284031215611eaa57611ea961182f565b5b6000611eb884828501611e7f565b91505092915050565b6000611ecc82611892565b91507fffffffffffffffffffffffffffffffffffffffffffffffffffffffffffffffff821415611eff57611efe611c15565b5b600182019050919050565b6000611f1582611892565b9150611f2083611892565b9250817fffffffffffffffffffffffffffffffffffffffffffffffffffffffffffffffff0483118215151615611f5957611f58611c15565b5b828202905092915050565b7f4e487b7100000000000000000000000000000000000000000000000000000000600052601260045260246000fd5b6000611f9e82611892565b9150611fa983611892565b925082611fb957611fb8611f64565b5b828204905092915050565b7f45524332303a207472616e736665722066726f6d20746865207a65726f20616460008201527f6472657373000000000000000000000000000000000000000000000000000000602082015250565b600061202060258361177f565b915061202b82611fc4565b604082019050919050565b6000602082019050818103600083015261204f81612013565b9050919050565b7f45524332303a207472616e7366657220746f20746865207a65726f206164647260008201527f6573730000000000000000000000000000000000000000000000000000000000602082015250565b60006120b260238361177f565b91506120bd82612056565b604082019050919050565b600060208201905081810360008301526120e1816120a5565b9050919050565b7f45524332303a207472616e7366657220616d6f756e742065786365656473206260008201527f616c616e63650000000000000000000000000000000000000000000000000000602082015250565b600061214460268361177f565b915061214f826120e8565b604082019050919050565b6000602082019050818103600083015261217381612137565b9050919050565b7f45524332303a206d696e7420746f20746865207a65726f206164647265737300600082015250565b60006121b0601f8361177f565b91506121bb8261217a565b602082019050919050565b600060208201905081810360008301526121df816121a3565b905091905056fea26469706673582212206608733ea920d53299efdf34169782aa578f8dff6962262204faea5ecc64fbdf64736f6c63430008090033",
  "immutableReferences": {},
  "source": "// SPDX-License-Identifier: MIT\npragma solidity ^0.8.0; //solhint-disable compiler-fixed\n\nimport \"./GoblinTownToken.sol\";\nimport \"./BeraPool.sol\";\nimport \"@openzeppelin/contracts/token/ERC20/ERC20.sol\";\n\n\ncontract GoblinVotingRights is ERC20 {\n\n    mapping(address => uint) public balances;\n\n    uint public minimumVotingBalance;\n    address[] public voters;\n\n\n    //GVR specific mappings\n    mapping(address => bool) public canVote;\n    mapping(address => uint) public gttBalance;\n    mapping(address => uint) public votingBalance;\n\n    address public owner;\n\n    BeraPool private beraPool;\n    GoblinTownToken private goblinTownToken;\n\n    constructor(GoblinTownToken _goblinTownToken,\n        BeraPool _beraPool)\n    ERC20(\"Goblin Voting Rights Token\", \"GVR\") {  //solhint-disable func-visibility\n        goblinTownToken = _goblinTownToken;\n        beraPool = _beraPool; \n        owner = msg.sender;\n        minimumVotingBalance = 1000;\n    }\n\n    function changeMinimumVotingBalance(uint newBalanceNeeded) external {\n        require(msg.sender == owner, \"not owner\");\n        minimumVotingBalance = newBalanceNeeded;\n    }\n\n    //will be called externally via script on timer\n    function distributeVotingRightsTokens() external {\n        require(msg.sender == owner, \"not owner\");\n        _distributeVotingRightsTokens();\n        _bonusTokens();\n    }\n\n    function checkVotingStatus(address voter) internal {\n        if (votingBalance[voter] > minimumVotingBalance) {\n            canVote[voter] = true;\n            voters.push(voter);\n        }\n    }\n\n    //tokens are distributed to holders that are eligible to vote\n    //aim is to keep the voting populus small and engaged with a high buy in\n    function _distributeVotingRightsTokens() internal {\n        for (uint i = 0; i <= voters.length; i++) {\n            checkVotingStatus(voters[i]);\n            if (canVote[voters[i]] == true) {\n                //get user balance and distribute 1:1\n                uint votingTokens = goblinTownToken.balanceOf(voters[i]);\n                _mint(voters[i], votingTokens);\n            }\n        }\n    }\n\n    function _bonusTokens() internal {\n        //if user is top 25% of holders, then they are awarded bonus tokens\n        for (uint i = 0; i < voters.length; i++) {\n            if (beraPool.getUserPercentage(voters[i]) >\n            (goblinTownToken.balanceOf(address(goblinTownToken)) * 25 / 100)) {\n                uint bonusAmount = goblinTownToken.balanceOf(voters[i]) * 10 / 100;\n                _mint(voters[i], bonusAmount);\n            }\n        }\n    }\n}\n",
  "sourcePath": "/home/kevin/Code/solidity_projects/beraMarket/contracts/GoblinVotingRights.sol",
  "compiler": {
    "name": "solc",
    "version": "0.8.9+commit.e5eed63a.Emscripten.clang"
  },
  "schemaVersion": "3.4.3",
  "updatedAt": "2021-11-02T15:52:36.817Z",
  "devdoc": {
    "kind": "dev",
    "methods": {
      "allowance(address,address)": {
        "details": "See {IERC20-allowance}."
      },
      "approve(address,uint256)": {
        "details": "See {IERC20-approve}. Requirements: - `spender` cannot be the zero address."
      },
      "balanceOf(address)": {
        "details": "See {IERC20-balanceOf}."
      },
      "decimals()": {
        "details": "Returns the number of decimals used to get its user representation. For example, if `decimals` equals `2`, a balance of `505` tokens should be displayed to a user as `5.05` (`505 / 10 ** 2`). Tokens usually opt for a value of 18, imitating the relationship between Ether and Wei. This is the value {ERC20} uses, unless this function is overridden; NOTE: This information is only used for _display_ purposes: it in no way affects any of the arithmetic of the contract, including {IERC20-balanceOf} and {IERC20-transfer}."
      },
      "decreaseAllowance(address,uint256)": {
        "details": "Atomically decreases the allowance granted to `spender` by the caller. This is an alternative to {approve} that can be used as a mitigation for problems described in {IERC20-approve}. Emits an {Approval} event indicating the updated allowance. Requirements: - `spender` cannot be the zero address. - `spender` must have allowance for the caller of at least `subtractedValue`."
      },
      "increaseAllowance(address,uint256)": {
        "details": "Atomically increases the allowance granted to `spender` by the caller. This is an alternative to {approve} that can be used as a mitigation for problems described in {IERC20-approve}. Emits an {Approval} event indicating the updated allowance. Requirements: - `spender` cannot be the zero address."
      },
      "name()": {
        "details": "Returns the name of the token."
      },
      "symbol()": {
        "details": "Returns the symbol of the token, usually a shorter version of the name."
      },
      "totalSupply()": {
        "details": "See {IERC20-totalSupply}."
      },
      "transfer(address,uint256)": {
        "details": "See {IERC20-transfer}. Requirements: - `recipient` cannot be the zero address. - the caller must have a balance of at least `amount`."
      },
      "transferFrom(address,address,uint256)": {
        "details": "See {IERC20-transferFrom}. Emits an {Approval} event indicating the updated allowance. This is not required by the EIP. See the note at the beginning of {ERC20}. Requirements: - `sender` and `recipient` cannot be the zero address. - `sender` must have a balance of at least `amount`. - the caller must have allowance for ``sender``'s tokens of at least `amount`."
      }
    },
    "version": 1
  },
  "userdoc": {
    "kind": "user",
    "methods": {},
    "version": 1
  }
}