{
  "contractName": "GoblinVotingRights",
  "abi": [
    {
      "inputs": [
        {
          "internalType": "contract GoblinTownToken",
          "name": "_goblinTownToken",
          "type": "address"
        },
        {
          "internalType": "contract BeraPool",
          "name": "_beraPool",
          "type": "address"
        }
      ],
      "stateMutability": "nonpayable",
      "type": "constructor"
    },
    {
      "anonymous": false,
      "inputs": [
        {
          "indexed": true,
          "internalType": "address",
          "name": "owner",
          "type": "address"
        },
        {
          "indexed": true,
          "internalType": "address",
          "name": "spender",
          "type": "address"
        },
        {
          "indexed": false,
          "internalType": "uint256",
          "name": "value",
          "type": "uint256"
        }
      ],
      "name": "Approval",
      "type": "event"
    },
    {
      "anonymous": false,
      "inputs": [
        {
          "indexed": true,
          "internalType": "address",
          "name": "from",
          "type": "address"
        },
        {
          "indexed": true,
          "internalType": "address",
          "name": "to",
          "type": "address"
        },
        {
          "indexed": false,
          "internalType": "uint256",
          "name": "value",
          "type": "uint256"
        }
      ],
      "name": "Transfer",
      "type": "event"
    },
    {
      "inputs": [
        {
          "internalType": "address",
          "name": "owner",
          "type": "address"
        },
        {
          "internalType": "address",
          "name": "spender",
          "type": "address"
        }
      ],
      "name": "allowance",
      "outputs": [
        {
          "internalType": "uint256",
          "name": "",
          "type": "uint256"
        }
      ],
      "stateMutability": "view",
      "type": "function"
    },
    {
      "inputs": [
        {
          "internalType": "address",
          "name": "spender",
          "type": "address"
        },
        {
          "internalType": "uint256",
          "name": "amount",
          "type": "uint256"
        }
      ],
      "name": "approve",
      "outputs": [
        {
          "internalType": "bool",
          "name": "",
          "type": "bool"
        }
      ],
      "stateMutability": "nonpayable",
      "type": "function"
    },
    {
      "inputs": [
        {
          "internalType": "address",
          "name": "account",
          "type": "address"
        }
      ],
      "name": "balanceOf",
      "outputs": [
        {
          "internalType": "uint256",
          "name": "",
          "type": "uint256"
        }
      ],
      "stateMutability": "view",
      "type": "function"
    },
    {
      "inputs": [
        {
          "internalType": "address",
          "name": "",
          "type": "address"
        }
      ],
      "name": "balances",
      "outputs": [
        {
          "internalType": "uint256",
          "name": "",
          "type": "uint256"
        }
      ],
      "stateMutability": "view",
      "type": "function"
    },
    {
      "inputs": [
        {
          "internalType": "address",
          "name": "",
          "type": "address"
        }
      ],
      "name": "canVote",
      "outputs": [
        {
          "internalType": "bool",
          "name": "",
          "type": "bool"
        }
      ],
      "stateMutability": "view",
      "type": "function"
    },
    {
      "inputs": [],
      "name": "decimals",
      "outputs": [
        {
          "internalType": "uint8",
          "name": "",
          "type": "uint8"
        }
      ],
      "stateMutability": "view",
      "type": "function"
    },
    {
      "inputs": [
        {
          "internalType": "address",
          "name": "spender",
          "type": "address"
        },
        {
          "internalType": "uint256",
          "name": "subtractedValue",
          "type": "uint256"
        }
      ],
      "name": "decreaseAllowance",
      "outputs": [
        {
          "internalType": "bool",
          "name": "",
          "type": "bool"
        }
      ],
      "stateMutability": "nonpayable",
      "type": "function"
    },
    {
      "inputs": [
        {
          "internalType": "address",
          "name": "",
          "type": "address"
        }
      ],
      "name": "gttBalance",
      "outputs": [
        {
          "internalType": "uint256",
          "name": "",
          "type": "uint256"
        }
      ],
      "stateMutability": "view",
      "type": "function"
    },
    {
      "inputs": [
        {
          "internalType": "address",
          "name": "spender",
          "type": "address"
        },
        {
          "internalType": "uint256",
          "name": "addedValue",
          "type": "uint256"
        }
      ],
      "name": "increaseAllowance",
      "outputs": [
        {
          "internalType": "bool",
          "name": "",
          "type": "bool"
        }
      ],
      "stateMutability": "nonpayable",
      "type": "function"
    },
    {
      "inputs": [],
      "name": "minimumVotingBalance",
      "outputs": [
        {
          "internalType": "uint256",
          "name": "",
          "type": "uint256"
        }
      ],
      "stateMutability": "view",
      "type": "function"
    },
    {
      "inputs": [],
      "name": "name",
      "outputs": [
        {
          "internalType": "string",
          "name": "",
          "type": "string"
        }
      ],
      "stateMutability": "view",
      "type": "function"
    },
    {
      "inputs": [],
      "name": "owner",
      "outputs": [
        {
          "internalType": "address",
          "name": "",
          "type": "address"
        }
      ],
      "stateMutability": "view",
      "type": "function"
    },
    {
      "inputs": [],
      "name": "symbol",
      "outputs": [
        {
          "internalType": "string",
          "name": "",
          "type": "string"
        }
      ],
      "stateMutability": "view",
      "type": "function"
    },
    {
      "inputs": [],
      "name": "totalSupply",
      "outputs": [
        {
          "internalType": "uint256",
          "name": "",
          "type": "uint256"
        }
      ],
      "stateMutability": "view",
      "type": "function"
    },
    {
      "inputs": [
        {
          "internalType": "address",
          "name": "recipient",
          "type": "address"
        },
        {
          "internalType": "uint256",
          "name": "amount",
          "type": "uint256"
        }
      ],
      "name": "transfer",
      "outputs": [
        {
          "internalType": "bool",
          "name": "",
          "type": "bool"
        }
      ],
      "stateMutability": "nonpayable",
      "type": "function"
    },
    {
      "inputs": [
        {
          "internalType": "address",
          "name": "sender",
          "type": "address"
        },
        {
          "internalType": "address",
          "name": "recipient",
          "type": "address"
        },
        {
          "internalType": "uint256",
          "name": "amount",
          "type": "uint256"
        }
      ],
      "name": "transferFrom",
      "outputs": [
        {
          "internalType": "bool",
          "name": "",
          "type": "bool"
        }
      ],
      "stateMutability": "nonpayable",
      "type": "function"
    },
    {
      "inputs": [
        {
          "internalType": "uint256",
          "name": "",
          "type": "uint256"
        }
      ],
      "name": "voters",
      "outputs": [
        {
          "internalType": "address",
          "name": "",
          "type": "address"
        }
      ],
      "stateMutability": "view",
      "type": "function"
    },
    {
      "inputs": [
        {
          "internalType": "address",
          "name": "",
          "type": "address"
        }
      ],
      "name": "votingBalance",
      "outputs": [
        {
          "internalType": "uint256",
          "name": "",
          "type": "uint256"
        }
      ],
      "stateMutability": "view",
      "type": "function"
    },
    {
      "inputs": [
        {
          "internalType": "uint256",
          "name": "newBalanceNeeded",
          "type": "uint256"
        }
      ],
      "name": "changeMinimumVotingBalance",
      "outputs": [],
      "stateMutability": "nonpayable",
      "type": "function"
    },
    {
      "inputs": [],
      "name": "distributeVotingRightsTokens",
      "outputs": [],
      "stateMutability": "nonpayable",
      "type": "function"
    }
  ],
  "bytecode": "0x60806040523480156200001157600080fd5b50604051620025ba380380620025ba83398181016040528101906200003791906200031e565b6040518060400160405280601a81526020017f476f626c696e20566f74696e672052696768747320546f6b656e0000000000008152506040518060400160405280600381526020017f47565200000000000000000000000000000000000000000000000000000000008152508160039080519060200190620000bb929190620001ab565b508060049080519060200190620000d4929190620001ab565b50505081600d60006101000a81548173ffffffffffffffffffffffffffffffffffffffff021916908373ffffffffffffffffffffffffffffffffffffffff16021790555080600c60006101000a81548173ffffffffffffffffffffffffffffffffffffffff021916908373ffffffffffffffffffffffffffffffffffffffff16021790555033600b60006101000a81548173ffffffffffffffffffffffffffffffffffffffff021916908373ffffffffffffffffffffffffffffffffffffffff1602179055506103e86006819055505050620003ca565b828054620001b99062000394565b90600052602060002090601f016020900481019282620001dd576000855562000229565b82601f10620001f857805160ff191683800117855562000229565b8280016001018555821562000229579182015b82811115620002285782518255916020019190600101906200020b565b5b5090506200023891906200023c565b5090565b5b80821115620002575760008160009055506001016200023d565b5090565b600080fd5b600073ffffffffffffffffffffffffffffffffffffffff82169050919050565b60006200028d8262000260565b9050919050565b6000620002a18262000280565b9050919050565b620002b38162000294565b8114620002bf57600080fd5b50565b600081519050620002d381620002a8565b92915050565b6000620002e68262000280565b9050919050565b620002f881620002d9565b81146200030457600080fd5b50565b6000815190506200031881620002ed565b92915050565b600080604083850312156200033857620003376200025b565b5b60006200034885828601620002c2565b92505060206200035b8582860162000307565b9150509250929050565b7f4e487b7100000000000000000000000000000000000000000000000000000000600052602260045260246000fd5b60006002820490506001821680620003ad57607f821691505b60208210811415620003c457620003c362000365565b5b50919050565b6121e080620003da6000396000f3fe608060405234801561001057600080fd5b506004361061012c5760003560e01c806370a08231116100ad578063a9059cbb11610071578063a9059cbb1461036f578063adfaa72e1461039f578063da58c7d9146103cf578063dd62ed3e146103ff578063ddacc75d1461042f5761012c565b806370a08231146102a35780638da5cb5b146102d357806395d89b41146102f15780639775a2e71461030f578063a457c2d71461033f5761012c565b806323b872dd116100f457806323b872dd146101c557806327e235e3146101f5578063313ce5671461022557806339509351146102435780635e035355146102735761012c565b806306fdde0314610131578063095ea7b31461014f578063134955771461017f57806317ce7f7d1461018957806318160ddd146101a7575b600080fd5b61013961044b565b60405161014691906117d1565b60405180910390f35b6101696004803603810190610164919061188c565b6104dd565b60405161017691906118e7565b60405180910390f35b6101876104fb565b005b61019161059d565b60405161019e9190611911565b60405180910390f35b6101af6105a3565b6040516101bc9190611911565b60405180910390f35b6101df60048036038101906101da919061192c565b6105ad565b6040516101ec91906118e7565b60405180910390f35b61020f600480360381019061020a919061197f565b6106a5565b60405161021c9190611911565b60405180910390f35b61022d6106bd565b60405161023a91906119c8565b60405180910390f35b61025d6004803603810190610258919061188c565b6106c6565b60405161026a91906118e7565b60405180910390f35b61028d6004803603810190610288919061197f565b610772565b60405161029a9190611911565b60405180910390f35b6102bd60048036038101906102b8919061197f565b61078a565b6040516102ca9190611911565b60405180910390f35b6102db6107d2565b6040516102e891906119f2565b60405180910390f35b6102f96107f8565b60405161030691906117d1565b60405180910390f35b6103296004803603810190610324919061197f565b61088a565b6040516103369190611911565b60405180910390f35b6103596004803603810190610354919061188c565b6108a2565b60405161036691906118e7565b60405180910390f35b6103896004803603810190610384919061188c565b61098d565b60405161039691906118e7565b60405180910390f35b6103b960048036038101906103b4919061197f565b6109ab565b6040516103c691906118e7565b60405180910390f35b6103e960048036038101906103e49190611a0d565b6109cb565b6040516103f691906119f2565b60405180910390f35b61041960048036038101906104149190611a3a565b610a0a565b6040516104269190611911565b60405180910390f35b61044960048036038101906104449190611a0d565b610a91565b005b60606003805461045a90611aa9565b80601f016020809104026020016040519081016040528092919081815260200182805461048690611aa9565b80156104d35780601f106104a8576101008083540402835291602001916104d3565b820191906000526020600020905b8154815290600101906020018083116104b657829003601f168201915b5050505050905090565b60006104f16104ea610b2b565b8484610b33565b6001905092915050565b600b60009054906101000a900473ffffffffffffffffffffffffffffffffffffffff1673ffffffffffffffffffffffffffffffffffffffff163373ffffffffffffffffffffffffffffffffffffffff161461058b576040517f08c379a000000000000000000000000000000000000000000000000000000000815260040161058290611b27565b60405180910390fd5b610593610cfe565b61059b610f29565b565b60065481565b6000600254905090565b60006105ba848484611245565b6000600160008673ffffffffffffffffffffffffffffffffffffffff1673ffffffffffffffffffffffffffffffffffffffff1681526020019081526020016000206000610605610b2b565b73ffffffffffffffffffffffffffffffffffffffff1673ffffffffffffffffffffffffffffffffffffffff16815260200190815260200160002054905082811015610685576040517f08c379a000000000000000000000000000000000000000000000000000000000815260040161067c90611bb9565b60405180910390fd5b61069985610691610b2b565b858403610b33565b60019150509392505050565b60056020528060005260406000206000915090505481565b60006012905090565b60006107686106d3610b2b565b8484600160006106e1610b2b565b73ffffffffffffffffffffffffffffffffffffffff1673ffffffffffffffffffffffffffffffffffffffff16815260200190815260200160002060008873ffffffffffffffffffffffffffffffffffffffff1673ffffffffffffffffffffffffffffffffffffffff168152602001908152602001600020546107639190611c08565b610b33565b6001905092915050565b600a6020528060005260406000206000915090505481565b60008060008373ffffffffffffffffffffffffffffffffffffffff1673ffffffffffffffffffffffffffffffffffffffff168152602001908152602001600020549050919050565b600b60009054906101000a900473ffffffffffffffffffffffffffffffffffffffff1681565b60606004805461080790611aa9565b80601f016020809104026020016040519081016040528092919081815260200182805461083390611aa9565b80156108805780601f1061085557610100808354040283529160200191610880565b820191906000526020600020905b81548152906001019060200180831161086357829003601f168201915b5050505050905090565b60096020528060005260406000206000915090505481565b600080600160006108b1610b2b565b73ffffffffffffffffffffffffffffffffffffffff1673ffffffffffffffffffffffffffffffffffffffff16815260200190815260200160002060008573ffffffffffffffffffffffffffffffffffffffff1673ffffffffffffffffffffffffffffffffffffffff1681526020019081526020016000205490508281101561096e576040517f08c379a000000000000000000000000000000000000000000000000000000000815260040161096590611cd0565b60405180910390fd5b610982610979610b2b565b85858403610b33565b600191505092915050565b60006109a161099a610b2b565b8484611245565b6001905092915050565b60086020528060005260406000206000915054906101000a900460ff1681565b600781815481106109db57600080fd5b906000526020600020016000915054906101000a900473ffffffffffffffffffffffffffffffffffffffff1681565b6000600160008473ffffffffffffffffffffffffffffffffffffffff1673ffffffffffffffffffffffffffffffffffffffff16815260200190815260200160002060008373ffffffffffffffffffffffffffffffffffffffff1673ffffffffffffffffffffffffffffffffffffffff16815260200190815260200160002054905092915050565b600b60009054906101000a900473ffffffffffffffffffffffffffffffffffffffff1673ffffffffffffffffffffffffffffffffffffffff163373ffffffffffffffffffffffffffffffffffffffff1614610b21576040517f08c379a0000000000000000000000000000000000000000000000000000000008152600401610b1890611b27565b60405180910390fd5b8060068190555050565b600033905090565b600073ffffffffffffffffffffffffffffffffffffffff168373ffffffffffffffffffffffffffffffffffffffff161415610ba3576040517f08c379a0000000000000000000000000000000000000000000000000000000008152600401610b9a90611d62565b60405180910390fd5b600073ffffffffffffffffffffffffffffffffffffffff168273ffffffffffffffffffffffffffffffffffffffff161415610c13576040517f08c379a0000000000000000000000000000000000000000000000000000000008152600401610c0a90611df4565b60405180910390fd5b80600160008573ffffffffffffffffffffffffffffffffffffffff1673ffffffffffffffffffffffffffffffffffffffff16815260200190815260200160002060008473ffffffffffffffffffffffffffffffffffffffff1673ffffffffffffffffffffffffffffffffffffffff168152602001908152602001600020819055508173ffffffffffffffffffffffffffffffffffffffff168373ffffffffffffffffffffffffffffffffffffffff167f8c5be1e5ebec7d5bd14f71427d1e84f3dd0314c0f7b2291e5b200ac8c7c3b92583604051610cf19190611911565b60405180910390a3505050565b60005b6007805490508111610f2657610d5460078281548110610d2457610d23611e14565b5b9060005260206000200160009054906101000a900473ffffffffffffffffffffffffffffffffffffffff166114c6565b600115156008600060078481548110610d7057610d6f611e14565b5b9060005260206000200160009054906101000a900473ffffffffffffffffffffffffffffffffffffffff1673ffffffffffffffffffffffffffffffffffffffff1673ffffffffffffffffffffffffffffffffffffffff16815260200190815260200160002060009054906101000a900460ff1615151415610f13576000600d60009054906101000a900473ffffffffffffffffffffffffffffffffffffffff1673ffffffffffffffffffffffffffffffffffffffff166370a0823160078481548110610e3f57610e3e611e14565b5b9060005260206000200160009054906101000a900473ffffffffffffffffffffffffffffffffffffffff166040518263ffffffff1660e01b8152600401610e8691906119f2565b602060405180830381865afa158015610ea3573d6000803e3d6000fd5b505050506040513d601f19601f82011682018060405250810190610ec79190611e58565b9050610f1160078381548110610ee057610edf611e14565b5b9060005260206000200160009054906101000a900473ffffffffffffffffffffffffffffffffffffffff16826115ce565b505b8080610f1e90611e85565b915050610d01565b50565b60005b6007805490508110156112425760646019600d60009054906101000a900473ffffffffffffffffffffffffffffffffffffffff1673ffffffffffffffffffffffffffffffffffffffff166370a08231600d60009054906101000a900473ffffffffffffffffffffffffffffffffffffffff166040518263ffffffff1660e01b8152600401610fba91906119f2565b602060405180830381865afa158015610fd7573d6000803e3d6000fd5b505050506040513d601f19601f82011682018060405250810190610ffb9190611e58565b6110059190611ece565b61100f9190611f57565b600c60009054906101000a900473ffffffffffffffffffffffffffffffffffffffff1673ffffffffffffffffffffffffffffffffffffffff1663f8ccdd586007848154811061106157611060611e14565b5b9060005260206000200160009054906101000a900473ffffffffffffffffffffffffffffffffffffffff166040518263ffffffff1660e01b81526004016110a891906119f2565b602060405180830381865afa1580156110c5573d6000803e3d6000fd5b505050506040513d601f19601f820116820180604052508101906110e99190611e58565b111561122f5760006064600a600d60009054906101000a900473ffffffffffffffffffffffffffffffffffffffff1673ffffffffffffffffffffffffffffffffffffffff166370a082316007868154811061114757611146611e14565b5b9060005260206000200160009054906101000a900473ffffffffffffffffffffffffffffffffffffffff166040518263ffffffff1660e01b815260040161118e91906119f2565b602060405180830381865afa1580156111ab573d6000803e3d6000fd5b505050506040513d601f19601f820116820180604052508101906111cf9190611e58565b6111d99190611ece565b6111e39190611f57565b905061122d600783815481106111fc576111fb611e14565b5b9060005260206000200160009054906101000a900473ffffffffffffffffffffffffffffffffffffffff16826115ce565b505b808061123a90611e85565b915050610f2c565b50565b600073ffffffffffffffffffffffffffffffffffffffff168373ffffffffffffffffffffffffffffffffffffffff1614156112b5576040517f08c379a00000000000000000000000000000000000000000000000000000000081526004016112ac90611ffa565b60405180910390fd5b600073ffffffffffffffffffffffffffffffffffffffff168273ffffffffffffffffffffffffffffffffffffffff161415611325576040517f08c379a000000000000000000000000000000000000000000000000000000000815260040161131c9061208c565b60405180910390fd5b61133083838361172e565b60008060008573ffffffffffffffffffffffffffffffffffffffff1673ffffffffffffffffffffffffffffffffffffffff168152602001908152602001600020549050818110156113b6576040517f08c379a00000000000000000000000000000000000000000000000000000000081526004016113ad9061211e565b60405180910390fd5b8181036000808673ffffffffffffffffffffffffffffffffffffffff1673ffffffffffffffffffffffffffffffffffffffff16815260200190815260200160002081905550816000808573ffffffffffffffffffffffffffffffffffffffff1673ffffffffffffffffffffffffffffffffffffffff16815260200190815260200160002060008282546114499190611c08565b925050819055508273ffffffffffffffffffffffffffffffffffffffff168473ffffffffffffffffffffffffffffffffffffffff167fddf252ad1be2c89b69c2b068fc378daa952ba7f163c4a11628f55a4df523b3ef846040516114ad9190611911565b60405180910390a36114c0848484611733565b50505050565b600654600a60008373ffffffffffffffffffffffffffffffffffffffff1673ffffffffffffffffffffffffffffffffffffffff1681526020019081526020016000205411156115cb576001600860008373ffffffffffffffffffffffffffffffffffffffff1673ffffffffffffffffffffffffffffffffffffffff16815260200190815260200160002060006101000a81548160ff0219169083151502179055506007819080600181540180825580915050600190039060005260206000200160009091909190916101000a81548173ffffffffffffffffffffffffffffffffffffffff021916908373ffffffffffffffffffffffffffffffffffffffff1602179055505b50565b600073ffffffffffffffffffffffffffffffffffffffff168273ffffffffffffffffffffffffffffffffffffffff16141561163e576040517f08c379a00000000000000000000000000000000000000000000000000000000081526004016116359061218a565b60405180910390fd5b61164a6000838361172e565b806002600082825461165c9190611c08565b92505081905550806000808473ffffffffffffffffffffffffffffffffffffffff1673ffffffffffffffffffffffffffffffffffffffff16815260200190815260200160002060008282546116b19190611c08565b925050819055508173ffffffffffffffffffffffffffffffffffffffff16600073ffffffffffffffffffffffffffffffffffffffff167fddf252ad1be2c89b69c2b068fc378daa952ba7f163c4a11628f55a4df523b3ef836040516117169190611911565b60405180910390a361172a60008383611733565b5050565b505050565b505050565b600081519050919050565b600082825260208201905092915050565b60005b83811015611772578082015181840152602081019050611757565b83811115611781576000848401525b50505050565b6000601f19601f8301169050919050565b60006117a382611738565b6117ad8185611743565b93506117bd818560208601611754565b6117c681611787565b840191505092915050565b600060208201905081810360008301526117eb8184611798565b905092915050565b600080fd5b600073ffffffffffffffffffffffffffffffffffffffff82169050919050565b6000611823826117f8565b9050919050565b61183381611818565b811461183e57600080fd5b50565b6000813590506118508161182a565b92915050565b6000819050919050565b61186981611856565b811461187457600080fd5b50565b60008135905061188681611860565b92915050565b600080604083850312156118a3576118a26117f3565b5b60006118b185828601611841565b92505060206118c285828601611877565b9150509250929050565b60008115159050919050565b6118e1816118cc565b82525050565b60006020820190506118fc60008301846118d8565b92915050565b61190b81611856565b82525050565b60006020820190506119266000830184611902565b92915050565b600080600060608486031215611945576119446117f3565b5b600061195386828701611841565b935050602061196486828701611841565b925050604061197586828701611877565b9150509250925092565b600060208284031215611995576119946117f3565b5b60006119a384828501611841565b91505092915050565b600060ff82169050919050565b6119c2816119ac565b82525050565b60006020820190506119dd60008301846119b9565b92915050565b6119ec81611818565b82525050565b6000602082019050611a0760008301846119e3565b92915050565b600060208284031215611a2357611a226117f3565b5b6000611a3184828501611877565b91505092915050565b60008060408385031215611a5157611a506117f3565b5b6000611a5f85828601611841565b9250506020611a7085828601611841565b9150509250929050565b7f4e487b7100000000000000000000000000000000000000000000000000000000600052602260045260246000fd5b60006002820490506001821680611ac157607f821691505b60208210811415611ad557611ad4611a7a565b5b50919050565b7f6e6f74206f776e65720000000000000000000000000000000000000000000000600082015250565b6000611b11600983611743565b9150611b1c82611adb565b602082019050919050565b60006020820190508181036000830152611b4081611b04565b9050919050565b7f45524332303a207472616e7366657220616d6f756e742065786365656473206160008201527f6c6c6f77616e6365000000000000000000000000000000000000000000000000602082015250565b6000611ba3602883611743565b9150611bae82611b47565b604082019050919050565b60006020820190508181036000830152611bd281611b96565b9050919050565b7f4e487b7100000000000000000000000000000000000000000000000000000000600052601160045260246000fd5b6000611c1382611856565b9150611c1e83611856565b9250827fffffffffffffffffffffffffffffffffffffffffffffffffffffffffffffffff03821115611c5357611c52611bd9565b5b828201905092915050565b7f45524332303a2064656372656173656420616c6c6f77616e63652062656c6f7760008201527f207a65726f000000000000000000000000000000000000000000000000000000602082015250565b6000611cba602583611743565b9150611cc582611c5e565b604082019050919050565b60006020820190508181036000830152611ce981611cad565b9050919050565b7f45524332303a20617070726f76652066726f6d20746865207a65726f2061646460008201527f7265737300000000000000000000000000000000000000000000000000000000602082015250565b6000611d4c602483611743565b9150611d5782611cf0565b604082019050919050565b60006020820190508181036000830152611d7b81611d3f565b9050919050565b7f45524332303a20617070726f766520746f20746865207a65726f20616464726560008201527f7373000000000000000000000000000000000000000000000000000000000000602082015250565b6000611dde602283611743565b9150611de982611d82565b604082019050919050565b60006020820190508181036000830152611e0d81611dd1565b9050919050565b7f4e487b7100000000000000000000000000000000000000000000000000000000600052603260045260246000fd5b600081519050611e5281611860565b92915050565b600060208284031215611e6e57611e6d6117f3565b5b6000611e7c84828501611e43565b91505092915050565b6000611e9082611856565b91507fffffffffffffffffffffffffffffffffffffffffffffffffffffffffffffffff821415611ec357611ec2611bd9565b5b600182019050919050565b6000611ed982611856565b9150611ee483611856565b9250817fffffffffffffffffffffffffffffffffffffffffffffffffffffffffffffffff0483118215151615611f1d57611f1c611bd9565b5b828202905092915050565b7f4e487b7100000000000000000000000000000000000000000000000000000000600052601260045260246000fd5b6000611f6282611856565b9150611f6d83611856565b925082611f7d57611f7c611f28565b5b828204905092915050565b7f45524332303a207472616e736665722066726f6d20746865207a65726f20616460008201527f6472657373000000000000000000000000000000000000000000000000000000602082015250565b6000611fe4602583611743565b9150611fef82611f88565b604082019050919050565b6000602082019050818103600083015261201381611fd7565b9050919050565b7f45524332303a207472616e7366657220746f20746865207a65726f206164647260008201527f6573730000000000000000000000000000000000000000000000000000000000602082015250565b6000612076602383611743565b91506120818261201a565b604082019050919050565b600060208201905081810360008301526120a581612069565b9050919050565b7f45524332303a207472616e7366657220616d6f756e742065786365656473206260008201527f616c616e63650000000000000000000000000000000000000000000000000000602082015250565b6000612108602683611743565b9150612113826120ac565b604082019050919050565b60006020820190508181036000830152612137816120fb565b9050919050565b7f45524332303a206d696e7420746f20746865207a65726f206164647265737300600082015250565b6000612174601f83611743565b915061217f8261213e565b602082019050919050565b600060208201905081810360008301526121a381612167565b905091905056fea264697066735822122017a8c677add703bc844b00b308dd75461d52e91517cca8a1208026e802020b9e64736f6c634300080a0033",
  "immutableReferences": {},
  "source": "// SPDX-License-Identifier: MIT\npragma solidity ^0.8.0; //solhint-disable compiler-fixed\n\nimport \"./GoblinTownToken.sol\";\nimport \"./BeraPool.sol\";\nimport \"@openzeppelin/contracts/token/ERC20/ERC20.sol\";\n\n\ncontract GoblinVotingRights is ERC20 {\n\n    mapping(address => uint) public balances;\n\n    uint public minimumVotingBalance;\n    address[] public voters;\n\n\n    //GVR specific mappings\n    mapping(address => bool) public canVote;\n    mapping(address => uint) public gttBalance;\n    mapping(address => uint) public votingBalance;\n\n    address public owner;\n\n    BeraPool private beraPool;\n    GoblinTownToken private goblinTownToken;\n\n    constructor(GoblinTownToken _goblinTownToken,\n        BeraPool _beraPool)\n    ERC20(\"Goblin Voting Rights Token\", \"GVR\") {  //solhint-disable func-visibility\n        goblinTownToken = _goblinTownToken;\n        beraPool = _beraPool; \n        owner = msg.sender;\n        minimumVotingBalance = 1000;\n    }\n\n    function changeMinimumVotingBalance(uint newBalanceNeeded) external {\n        require(msg.sender == owner, \"not owner\");\n        minimumVotingBalance = newBalanceNeeded;\n    }\n\n    //will be called externally via script on timer\n    function distributeVotingRightsTokens() external {\n        require(msg.sender == owner, \"not owner\");\n        _distributeVotingRightsTokens();\n        _bonusTokens();\n    }\n\n    function checkVotingStatus(address voter) internal {\n        if (votingBalance[voter] > minimumVotingBalance) {\n            canVote[voter] = true;\n            voters.push(voter);\n        }\n    }\n\n    //tokens are distributed to holders that are eligible to vote\n    //aim is to keep the voting populus small and engaged with a high buy in\n    function _distributeVotingRightsTokens() internal {\n        for (uint i = 0; i <= voters.length; i++) {\n            checkVotingStatus(voters[i]);\n            if (canVote[voters[i]] == true) {\n                //get user balance and distribute 1:1\n                uint votingTokens = goblinTownToken.balanceOf(voters[i]);\n                _mint(voters[i], votingTokens);\n            }\n        }\n    }\n\n    function _bonusTokens() internal {\n        //if user is top 25% of holders, then they are awarded bonus tokens\n        for (uint i = 0; i < voters.length; i++) {\n            if (beraPool.getUserPercentage(voters[i]) >\n            (goblinTownToken.balanceOf(address(goblinTownToken)) * 25 / 100)) {\n                uint bonusAmount = goblinTownToken.balanceOf(voters[i]) * 10 / 100;\n                _mint(voters[i], bonusAmount);\n            }\n        }\n    }\n}\n",
  "sourcePath": "/home/kevin/Code/solidity_projects/beraMarket/contracts/GoblinVotingRights.sol",
  "compiler": {
    "name": "solc",
    "version": "0.8.10+commit.fc410830.Emscripten.clang"
  },
  "schemaVersion": "3.4.3",
  "updatedAt": "2021-11-12T23:06:41.720Z",
  "devdoc": {
    "kind": "dev",
    "methods": {
      "allowance(address,address)": {
        "details": "See {IERC20-allowance}."
      },
      "approve(address,uint256)": {
        "details": "See {IERC20-approve}. Requirements: - `spender` cannot be the zero address."
      },
      "balanceOf(address)": {
        "details": "See {IERC20-balanceOf}."
      },
      "decimals()": {
        "details": "Returns the number of decimals used to get its user representation. For example, if `decimals` equals `2`, a balance of `505` tokens should be displayed to a user as `5.05` (`505 / 10 ** 2`). Tokens usually opt for a value of 18, imitating the relationship between Ether and Wei. This is the value {ERC20} uses, unless this function is overridden; NOTE: This information is only used for _display_ purposes: it in no way affects any of the arithmetic of the contract, including {IERC20-balanceOf} and {IERC20-transfer}."
      },
      "decreaseAllowance(address,uint256)": {
        "details": "Atomically decreases the allowance granted to `spender` by the caller. This is an alternative to {approve} that can be used as a mitigation for problems described in {IERC20-approve}. Emits an {Approval} event indicating the updated allowance. Requirements: - `spender` cannot be the zero address. - `spender` must have allowance for the caller of at least `subtractedValue`."
      },
      "increaseAllowance(address,uint256)": {
        "details": "Atomically increases the allowance granted to `spender` by the caller. This is an alternative to {approve} that can be used as a mitigation for problems described in {IERC20-approve}. Emits an {Approval} event indicating the updated allowance. Requirements: - `spender` cannot be the zero address."
      },
      "name()": {
        "details": "Returns the name of the token."
      },
      "symbol()": {
        "details": "Returns the symbol of the token, usually a shorter version of the name."
      },
      "totalSupply()": {
        "details": "See {IERC20-totalSupply}."
      },
      "transfer(address,uint256)": {
        "details": "See {IERC20-transfer}. Requirements: - `recipient` cannot be the zero address. - the caller must have a balance of at least `amount`."
      },
      "transferFrom(address,address,uint256)": {
        "details": "See {IERC20-transferFrom}. Emits an {Approval} event indicating the updated allowance. This is not required by the EIP. See the note at the beginning of {ERC20}. Requirements: - `sender` and `recipient` cannot be the zero address. - `sender` must have a balance of at least `amount`. - the caller must have allowance for ``sender``'s tokens of at least `amount`."
      }
    },
    "version": 1
  },
  "userdoc": {
    "kind": "user",
    "methods": {},
    "version": 1
  }
}