{
  "contractName": "PnLCalculator",
  "abi": [
    {
      "inputs": [
        {
          "internalType": "uint256",
          "name": "entryPrice",
          "type": "uint256"
        },
        {
          "internalType": "uint256",
          "name": "priceAtClose",
          "type": "uint256"
        }
      ],
      "name": "calculatePNL",
      "outputs": [
        {
          "internalType": "uint256",
          "name": "amountPNL",
          "type": "uint256"
        },
        {
          "internalType": "uint8",
          "name": "returnValue",
          "type": "uint8"
        }
      ],
      "stateMutability": "pure",
      "type": "function",
      "constant": true
    }
  ],
  "bytecode": "0x6103bd610053600b82828239805160001a607314610046577f4e487b7100000000000000000000000000000000000000000000000000000000600052600060045260246000fd5b30600052607381538281f3fe73000000000000000000000000000000000000000030146080604052600436106100355760003560e01c8063896b198a1461003a575b600080fd5b610054600480360381019061004f919061010f565b61006b565b60405161006292919061017a565b60405180910390f35b6000806000838561007c91906101dc565b9050838511156100935780925060009150506100cd565b60007fffffffffffffffffffffffffffffffffffffffffffffffffffffffffffffffff826100c19190610270565b90508093506001925050505b9250929050565b600080fd5b6000819050919050565b6100ec816100d9565b81146100f757600080fd5b50565b600081359050610109816100e3565b92915050565b60008060408385031215610126576101256100d4565b5b6000610134858286016100fa565b9250506020610145858286016100fa565b9150509250929050565b610158816100d9565b82525050565b600060ff82169050919050565b6101748161015e565b82525050565b600060408201905061018f600083018561014f565b61019c602083018461016b565b9392505050565b6000819050919050565b7f4e487b7100000000000000000000000000000000000000000000000000000000600052601160045260246000fd5b60006101e7826101a3565b91506101f2836101a3565b9250827f80000000000000000000000000000000000000000000000000000000000000000182126000841215161561022d5761022c6101ad565b5b827f7fffffffffffffffffffffffffffffffffffffffffffffffffffffffffffffff018213600084121615610265576102646101ad565b5b828203905092915050565b600061027b826101a3565b9150610286836101a3565b9250827f7fffffffffffffffffffffffffffffffffffffffffffffffffffffffffffffff04821160008413600084131616156102c5576102c46101ad565b5b817f80000000000000000000000000000000000000000000000000000000000000000583126000841260008413161615610302576103016101ad565b5b827f8000000000000000000000000000000000000000000000000000000000000000058212600084136000841216161561033f5761033e6101ad565b5b827f7fffffffffffffffffffffffffffffffffffffffffffffffffffffffffffffff058212600084126000841216161561037c5761037b6101ad565b5b82820290509291505056fea2646970667358221220fb9d6a0654ecf6609d3d4e5002a27a3af1de326c151d1267cf517a66f213a73964736f6c634300080a0033",
  "immutableReferences": {},
  "source": "// SPDX-License-Identifier: MIT\npragma solidity ^0.8.0; //solhint-disable compiler-fixed\npragma abicoder v2;\n\n\nlibrary PnLCalculator {\n\n    //lots of recasting as ints because positions can be negative\n    //liquidation is checked for prior to calling\n    //returnValue is used to check if the position was a win or loss in the contract that\n    //actually handles the user funds\n    function calculatePNL(uint entryPrice, uint priceAtClose)\n        external pure returns(uint amountPNL, uint8 returnValue) {\n            int difference = int(entryPrice) - int(priceAtClose);\n            if (entryPrice > priceAtClose) { //case where user makes money\n                amountPNL = uint(difference);\n                returnValue = 0;\n                return (amountPNL, returnValue);\n            } else { //case where user loses money\n              //make negative num postive\n                int userLoss = (difference * (-1));\n                amountPNL = uint(userLoss);\n                returnValue = 1;\n                return (amountPNL, returnValue);\n            }\n        }\n\n\n\n}\n",
  "sourcePath": "/home/kevin/Code/solidity_projects/beraMarket/contracts/ancillary/PnLCalculator.sol",
  "compiler": {
    "name": "solc",
    "version": "0.8.10+commit.fc410830.Emscripten.clang"
  },
  "schemaVersion": "3.4.3",
  "updatedAt": "2021-12-08T20:45:52.218Z",
  "networkType": "ethereum",
  "devdoc": {
    "kind": "dev",
    "methods": {},
    "version": 1
  },
  "userdoc": {
    "kind": "user",
    "methods": {},
    "version": 1
  }
}