{
  "contractName": "PnLCalculator",
  "abi": [
    {
      "inputs": [
        {
          "internalType": "uint256",
          "name": "entryPrice",
          "type": "uint256"
        },
        {
          "internalType": "uint256",
          "name": "priceAtClose",
          "type": "uint256"
        },
        {
          "internalType": "int256",
          "name": "tradeSize",
          "type": "int256"
        }
      ],
      "name": "calculatePNL",
      "outputs": [
        {
          "internalType": "uint256",
          "name": "amountPNL",
          "type": "uint256"
        },
        {
          "internalType": "uint8",
          "name": "returnValue",
          "type": "uint8"
        }
      ],
      "stateMutability": "pure",
      "type": "function"
    }
  ],
  "bytecode": "0x610439610053600b82828239805160001a607314610046577f4e487b7100000000000000000000000000000000000000000000000000000000600052600060045260246000fd5b30600052607381538281f3fe73000000000000000000000000000000000000000030146080604052600436106100355760003560e01c8063a51e4ab31461003a575b600080fd5b610054600480360381019061004f9190610182565b61006b565b604051610062929190610200565b60405180910390f35b6000806000670de0b6b3a7640000856100849190610258565b670de0b6b3a7640000876100989190610258565b6100a2919061036f565b9050848611156100c45783816100b89190610258565b92506000915050610109565b6000847fffffffffffffffffffffffffffffffffffffffffffffffffffffffffffffffff836100f39190610258565b6100fd9190610258565b90508093506001925050505b935093915050565b600080fd5b6000819050919050565b61012981610116565b811461013457600080fd5b50565b60008135905061014681610120565b92915050565b6000819050919050565b61015f8161014c565b811461016a57600080fd5b50565b60008135905061017c81610156565b92915050565b60008060006060848603121561019b5761019a610111565b5b60006101a986828701610137565b93505060206101ba86828701610137565b92505060406101cb8682870161016d565b9150509250925092565b6101de81610116565b82525050565b600060ff82169050919050565b6101fa816101e4565b82525050565b600060408201905061021560008301856101d5565b61022260208301846101f1565b9392505050565b7f4e487b7100000000000000000000000000000000000000000000000000000000600052601160045260246000fd5b60006102638261014c565b915061026e8361014c565b9250827f7fffffffffffffffffffffffffffffffffffffffffffffffffffffffffffffff04821160008413600084131616156102ad576102ac610229565b5b817f800000000000000000000000000000000000000000000000000000000000000005831260008412600084131616156102ea576102e9610229565b5b827f8000000000000000000000000000000000000000000000000000000000000000058212600084136000841216161561032757610326610229565b5b827f7fffffffffffffffffffffffffffffffffffffffffffffffffffffffffffffff058212600084126000841216161561036457610363610229565b5b828202905092915050565b600061037a8261014c565b91506103858361014c565b9250827f8000000000000000000000000000000000000000000000000000000000000000018212600084121516156103c0576103bf610229565b5b827f7fffffffffffffffffffffffffffffffffffffffffffffffffffffffffffffff0182136000841216156103f8576103f7610229565b5b82820390509291505056fea2646970667358221220ff31607fa0d72cf3cc75614cc1886aec505675a1ee330a7600e72d42d2a5d01964736f6c634300080b0033",
  "immutableReferences": {},
  "source": "// SPDX-License-Identifier: MIT\npragma solidity ^0.8.0; //solhint-disable compiler-fixed\npragma abicoder v2;\n\n\nlibrary PnLCalculator {\n\n    //lots of recasting as ints because positions can be negative\n    //liquidation is checked for prior to calling\n    //returnValue is used to check if the position was a win or loss in the contract that\n    //actually handles the user funds\n    function calculatePNL(uint entryPrice, uint priceAtClose, int tradeSize)\n        external pure returns(uint amountPNL, uint8 returnValue) {\n            int difference = (int(entryPrice) * 1e18) - (int(priceAtClose) * 1e18);\n            if (entryPrice > priceAtClose) { //case where user makes money\n                amountPNL = uint(difference * tradeSize);\n                returnValue = 0;\n                return (amountPNL, returnValue);\n            } else { //case where user loses money\n              //make negative num postive\n                int userLoss = (difference * (-1)) * tradeSize;\n                amountPNL = uint(userLoss);\n                returnValue = 1;\n                return (amountPNL, returnValue);\n            }\n        }\n\n\n\n}\n",
  "sourcePath": "/home/kevin/Code/solidity_projects/beraMarket/contracts/ancillary/PnLCalculator.sol",
  "compiler": {
    "name": "solc",
    "version": "0.8.11+commit.d7f03943.Emscripten.clang"
  },
  "schemaVersion": "3.4.3",
  "updatedAt": "2022-01-05T01:25:09.287Z",
  "devdoc": {
    "kind": "dev",
    "methods": {},
    "version": 1
  },
  "userdoc": {
    "kind": "user",
    "methods": {},
    "version": 1
  }
}