{
  "contractName": "PnLCalculator",
  "abi": [
    {
      "inputs": [
        {
          "internalType": "address",
          "name": "user",
          "type": "address"
        },
        {
          "internalType": "uint256",
          "name": "entryPrice",
          "type": "uint256"
        },
        {
          "internalType": "uint256",
          "name": "priceAtClose",
          "type": "uint256"
        }
      ],
      "name": "calculatePNL",
      "outputs": [
        {
          "internalType": "uint256",
          "name": "amountPNL",
          "type": "uint256"
        },
        {
          "internalType": "uint8",
          "name": "returnValue",
          "type": "uint8"
        }
      ],
      "stateMutability": "pure",
      "type": "function"
    }
  ],
  "bytecode": "0x610430610053600b82828239805160001a607314610046577f4e487b7100000000000000000000000000000000000000000000000000000000600052600060045260246000fd5b30600052607381538281f3fe73000000000000000000000000000000000000000030146080604052600436106100355760003560e01c8063cf64eb0a1461003a575b600080fd5b610054600480360381019061004f919061016f565b61006b565b6040516100629291906101ed565b60405180910390f35b6000806000838561007c919061024f565b905060008113156100945780925060009150506100ce565b60007fffffffffffffffffffffffffffffffffffffffffffffffffffffffffffffffff826100c291906102e3565b90508093506001925050505b935093915050565b600080fd5b600073ffffffffffffffffffffffffffffffffffffffff82169050919050565b6000610106826100db565b9050919050565b610116816100fb565b811461012157600080fd5b50565b6000813590506101338161010d565b92915050565b6000819050919050565b61014c81610139565b811461015757600080fd5b50565b60008135905061016981610143565b92915050565b600080600060608486031215610188576101876100d6565b5b600061019686828701610124565b93505060206101a78682870161015a565b92505060406101b88682870161015a565b9150509250925092565b6101cb81610139565b82525050565b600060ff82169050919050565b6101e7816101d1565b82525050565b600060408201905061020260008301856101c2565b61020f60208301846101de565b9392505050565b6000819050919050565b7f4e487b7100000000000000000000000000000000000000000000000000000000600052601160045260246000fd5b600061025a82610216565b915061026583610216565b9250827f8000000000000000000000000000000000000000000000000000000000000000018212600084121516156102a05761029f610220565b5b827f7fffffffffffffffffffffffffffffffffffffffffffffffffffffffffffffff0182136000841216156102d8576102d7610220565b5b828203905092915050565b60006102ee82610216565b91506102f983610216565b9250827f7fffffffffffffffffffffffffffffffffffffffffffffffffffffffffffffff048211600084136000841316161561033857610337610220565b5b817f8000000000000000000000000000000000000000000000000000000000000000058312600084126000841316161561037557610374610220565b5b827f800000000000000000000000000000000000000000000000000000000000000005821260008413600084121616156103b2576103b1610220565b5b827f7fffffffffffffffffffffffffffffffffffffffffffffffffffffffffffffff05821260008412600084121616156103ef576103ee610220565b5b82820290509291505056fea2646970667358221220ec678d53d6e808dc5cd6711c9cd25dcb7cf3271fa42fe1b9df85d02fd345b8d564736f6c634300080a0033",
  "immutableReferences": {},
  "source": "// SPDX-License-Identifier: MIT\npragma solidity ^0.8.0; //solhint-disable compiler-fixed\npragma abicoder v2;\n\n\nlibrary PnLCalculator {\n\n    //lots of recasting as ints because positions can be negative\n    //liquidation is checked for prior to calling\n    //returnValue is used to check if the position was a win or loss in the contract that\n    //actually handles the user funds\n    function calculatePNL(address user, uint entryPrice, uint priceAtClose)\n        external pure returns(uint amountPNL, uint8 returnValue) {\n            int difference = int(entryPrice) - int(priceAtClose);\n            if (difference > 0) { //case where user makes money\n                amountPNL = uint(difference);\n                returnValue = 0;\n                return (amountPNL, returnValue);\n            } else { //case where user loses money\n              //make negative num postive\n                int userLoss = (difference * (-1));\n                amountPNL = uint(userLoss);\n                returnValue = 1;\n            }\n        }\n\n\n\n}\n",
  "sourcePath": "/home/kevin/Code/solidity_projects/beraMarket/contracts/ancillary/PnLCalculator.sol",
  "compiler": {
    "name": "solc",
    "version": "0.8.10+commit.fc410830.Emscripten.clang"
  },
  "schemaVersion": "3.4.3",
  "updatedAt": "2021-12-03T18:17:03.137Z",
  "devdoc": {
    "kind": "dev",
    "methods": {},
    "version": 1
  },
  "userdoc": {
    "kind": "user",
    "methods": {},
    "version": 1
  }
}