{
  "contractName": "PnLCalculator",
  "abi": [
    {
      "inputs": [
        {
          "internalType": "uint256",
          "name": "entryPrice",
          "type": "uint256"
        },
        {
          "internalType": "uint256",
          "name": "priceAtClose",
          "type": "uint256"
        },
        {
          "internalType": "int256",
          "name": "tokenAmount",
          "type": "int256"
        }
      ],
      "name": "calculatePNL",
      "outputs": [
        {
          "internalType": "uint256",
          "name": "amountPNL",
          "type": "uint256"
        },
        {
          "internalType": "uint8",
          "name": "returnValue",
          "type": "uint8"
        }
      ],
      "stateMutability": "pure",
      "type": "function",
      "constant": true
    }
  ],
  "bytecode": "0x610408610053600b82828239805160001a607314610046577f4e487b7100000000000000000000000000000000000000000000000000000000600052600060045260246000fd5b30600052607381538281f3fe73000000000000000000000000000000000000000030146080604052600436106100355760003560e01c8063a51e4ab31461003a575b600080fd5b610054600480360381019061004f9190610151565b61006b565b6040516100629291906101cf565b60405180910390f35b600080600083858761007d9190610227565b61008791906102bb565b90508486111561009e5780925060009150506100d8565b60007fffffffffffffffffffffffffffffffffffffffffffffffffffffffffffffffff826100cc91906102bb565b90508093506001925050505b935093915050565b600080fd5b6000819050919050565b6100f8816100e5565b811461010357600080fd5b50565b600081359050610115816100ef565b92915050565b6000819050919050565b61012e8161011b565b811461013957600080fd5b50565b60008135905061014b81610125565b92915050565b60008060006060848603121561016a576101696100e0565b5b600061017886828701610106565b935050602061018986828701610106565b925050604061019a8682870161013c565b9150509250925092565b6101ad816100e5565b82525050565b600060ff82169050919050565b6101c9816101b3565b82525050565b60006040820190506101e460008301856101a4565b6101f160208301846101c0565b9392505050565b7f4e487b7100000000000000000000000000000000000000000000000000000000600052601160045260246000fd5b60006102328261011b565b915061023d8361011b565b9250827f800000000000000000000000000000000000000000000000000000000000000001821260008412151615610278576102776101f8565b5b827f7fffffffffffffffffffffffffffffffffffffffffffffffffffffffffffffff0182136000841216156102b0576102af6101f8565b5b828203905092915050565b60006102c68261011b565b91506102d18361011b565b9250827f7fffffffffffffffffffffffffffffffffffffffffffffffffffffffffffffff04821160008413600084131616156103105761030f6101f8565b5b817f8000000000000000000000000000000000000000000000000000000000000000058312600084126000841316161561034d5761034c6101f8565b5b827f8000000000000000000000000000000000000000000000000000000000000000058212600084136000841216161561038a576103896101f8565b5b827f7fffffffffffffffffffffffffffffffffffffffffffffffffffffffffffffff05821260008412600084121616156103c7576103c66101f8565b5b82820290509291505056fea2646970667358221220beacc669b6a5b89ea941e862e222445943e650fd649cba1225e399dd264708da64736f6c634300080b0033",
  "immutableReferences": {},
  "source": "// SPDX-License-Identifier: MIT\npragma solidity ^0.8.0; //solhint-disable compiler-fixed\npragma abicoder v2;\n\n\nlibrary PnLCalculator {\n\n    //lots of recasting as ints because positions can be negative\n    //liquidation is checked for prior to calling\n    //returnValue is used to check if the position was a win or loss in the contract that\n    //actually handles the user funds\n    function calculatePNL(uint entryPrice, uint priceAtClose, int tokenAmount)\n        external pure returns(uint amountPNL, uint8 returnValue) {\n            int difference = (int(entryPrice) - int(priceAtClose)) * tokenAmount;\n            if (entryPrice > priceAtClose) { //case where user makes money\n                amountPNL = uint(difference);\n                returnValue = 0;\n                return (amountPNL, returnValue);\n            } else { //case where user loses money\n              //make negative num postive\n                int userLoss = (difference * (-1));\n                amountPNL = uint(userLoss);\n                returnValue = 1;\n                return (amountPNL, returnValue);\n            }\n        }\n\n\n\n}\n",
  "sourcePath": "/home/kevin/Code/solidity_projects/beraMarket/contracts/ancillary/PnLCalculator.sol",
  "compiler": {
    "name": "solc",
    "version": "0.8.11+commit.d7f03943.Emscripten.clang"
  },
  "schemaVersion": "3.4.3",
  "updatedAt": "2022-01-15T20:51:27.921Z",
  "networkType": "ethereum",
  "devdoc": {
    "kind": "dev",
    "methods": {},
    "version": 1
  },
  "userdoc": {
    "kind": "user",
    "methods": {},
    "version": 1
  }
}