{
  "contractName": "PnLCalculator",
  "abi": [
    {
      "inputs": [
        {
          "internalType": "uint256",
          "name": "entryPrice",
          "type": "uint256"
        },
        {
          "internalType": "uint256",
          "name": "priceAtClose",
          "type": "uint256"
        }
      ],
      "name": "calculatePNL",
      "outputs": [
        {
          "internalType": "uint256",
          "name": "amountPNL",
          "type": "uint256"
        },
        {
          "internalType": "uint8",
          "name": "returnValue",
          "type": "uint8"
        }
      ],
      "stateMutability": "pure",
      "type": "function",
      "constant": true
    }
  ],
  "bytecode": "0x6103be610053600b82828239805160001a607314610046577f4e487b7100000000000000000000000000000000000000000000000000000000600052600060045260246000fd5b30600052607381538281f3fe73000000000000000000000000000000000000000030146080604052600436106100355760003560e01c8063896b198a1461003a575b600080fd5b610054600480360381019061004f9190610110565b61006b565b60405161006292919061017b565b60405180910390f35b6000806000838561007c91906101dd565b905060008113156100945780925060009150506100ce565b60007fffffffffffffffffffffffffffffffffffffffffffffffffffffffffffffffff826100c29190610271565b90508093506001925050505b9250929050565b600080fd5b6000819050919050565b6100ed816100da565b81146100f857600080fd5b50565b60008135905061010a816100e4565b92915050565b60008060408385031215610127576101266100d5565b5b6000610135858286016100fb565b9250506020610146858286016100fb565b9150509250929050565b610159816100da565b82525050565b600060ff82169050919050565b6101758161015f565b82525050565b60006040820190506101906000830185610150565b61019d602083018461016c565b9392505050565b6000819050919050565b7f4e487b7100000000000000000000000000000000000000000000000000000000600052601160045260246000fd5b60006101e8826101a4565b91506101f3836101a4565b9250827f80000000000000000000000000000000000000000000000000000000000000000182126000841215161561022e5761022d6101ae565b5b827f7fffffffffffffffffffffffffffffffffffffffffffffffffffffffffffffff018213600084121615610266576102656101ae565b5b828203905092915050565b600061027c826101a4565b9150610287836101a4565b9250827f7fffffffffffffffffffffffffffffffffffffffffffffffffffffffffffffff04821160008413600084131616156102c6576102c56101ae565b5b817f80000000000000000000000000000000000000000000000000000000000000000583126000841260008413161615610303576103026101ae565b5b827f800000000000000000000000000000000000000000000000000000000000000005821260008413600084121616156103405761033f6101ae565b5b827f7fffffffffffffffffffffffffffffffffffffffffffffffffffffffffffffff058212600084126000841216161561037d5761037c6101ae565b5b82820290509291505056fea26469706673582212208c7b00cd8ae179498f3c92bc7f043691966322782c7aeb1d07017d5c02fe6eb664736f6c634300080a0033",
  "immutableReferences": {},
  "source": "// SPDX-License-Identifier: MIT\npragma solidity ^0.8.0; //solhint-disable compiler-fixed\npragma abicoder v2;\n\n\nlibrary PnLCalculator {\n\n    //lots of recasting as ints because positions can be negative\n    //liquidation is checked for prior to calling\n    //returnValue is used to check if the position was a win or loss in the contract that\n    //actually handles the user funds\n    function calculatePNL(uint entryPrice, uint priceAtClose)\n        external pure returns(uint amountPNL, uint8 returnValue) {\n            int difference = int(entryPrice) - int(priceAtClose);\n            if (difference > 0) { //case where user makes money\n                amountPNL = uint(difference);\n                returnValue = 0;\n                return (amountPNL, returnValue);\n            } else { //case where user loses money\n              //make negative num postive\n                int userLoss = (difference * (-1));\n                amountPNL = uint(userLoss);\n                returnValue = 1;\n            }\n        }\n\n\n\n}\n",
  "sourcePath": "/home/kevin/Code/solidity_projects/beraMarket/contracts/ancillary/PnLCalculator.sol",
  "compiler": {
    "name": "solc",
    "version": "0.8.10+commit.fc410830.Emscripten.clang"
  },
  "schemaVersion": "3.4.3",
  "updatedAt": "2021-12-08T14:19:45.896Z",
  "networkType": "ethereum",
  "devdoc": {
    "kind": "dev",
    "methods": {},
    "version": 1
  },
  "userdoc": {
    "kind": "user",
    "methods": {},
    "version": 1
  }
}