{
  "contractName": "SwapOracle",
  "abi": [
    {
      "inputs": [
        {
          "internalType": "contract IQuoterV2",
          "name": "_quoterV2",
          "type": "address"
        }
      ],
      "stateMutability": "nonpayable",
      "type": "constructor"
    },
    {
      "inputs": [],
      "name": "quoterV2",
      "outputs": [
        {
          "internalType": "contract IQuoterV2",
          "name": "",
          "type": "address"
        }
      ],
      "stateMutability": "view",
      "type": "function"
    },
    {
      "inputs": [
        {
          "internalType": "uint256",
          "name": "amount",
          "type": "uint256"
        },
        {
          "internalType": "address",
          "name": "token0",
          "type": "address"
        },
        {
          "internalType": "uint24",
          "name": "fee",
          "type": "uint24"
        }
      ],
      "name": "getQuotedPrice",
      "outputs": [
        {
          "internalType": "uint256",
          "name": "quote",
          "type": "uint256"
        }
      ],
      "stateMutability": "nonpayable",
      "type": "function"
    }
  ],
  "bytecode": "0x60a060405234801561001057600080fd5b506040516106b73803806106b7833981810160405281019061003291906100e1565b8073ffffffffffffffffffffffffffffffffffffffff1660808173ffffffffffffffffffffffffffffffffffffffff16815250505061010e565b600080fd5b600073ffffffffffffffffffffffffffffffffffffffff82169050919050565b600061009c82610071565b9050919050565b60006100ae82610091565b9050919050565b6100be816100a3565b81146100c957600080fd5b50565b6000815190506100db816100b5565b92915050565b6000602082840312156100f7576100f661006c565b5b6000610105848285016100cc565b91505092915050565b6080516105876101306000396000818161011301526101c101526105876000f3fe608060405234801561001057600080fd5b50600436106100365760003560e01c80635ed97e091461003b578063e20dccb21461006b575b600080fd5b610055600480360381019061005091906102b7565b610089565b6040516100629190610319565b60405180910390f35b6100736101bf565b6040516100809190610393565b60405180910390f35b6000806040518060a001604052808573ffffffffffffffffffffffffffffffffffffffff168152602001736b175474e89094c44da98b954eedeac495271d0f73ffffffffffffffffffffffffffffffffffffffff1681526020018681526020018462ffffff168152602001600073ffffffffffffffffffffffffffffffffffffffff1681525090507f000000000000000000000000000000000000000000000000000000000000000073ffffffffffffffffffffffffffffffffffffffff1663c6a5026a826040518263ffffffff1660e01b815260040161016a9190610452565b6080604051808303816000875af1158015610189573d6000803e3d6000fd5b505050506040513d601f19601f820116820180604052508101906101ad91906104ea565b90915090505080925050509392505050565b7f000000000000000000000000000000000000000000000000000000000000000081565b600080fd5b6000819050919050565b6101fb816101e8565b811461020657600080fd5b50565b600081359050610218816101f2565b92915050565b600073ffffffffffffffffffffffffffffffffffffffff82169050919050565b60006102498261021e565b9050919050565b6102598161023e565b811461026457600080fd5b50565b60008135905061027681610250565b92915050565b600062ffffff82169050919050565b6102948161027c565b811461029f57600080fd5b50565b6000813590506102b18161028b565b92915050565b6000806000606084860312156102d0576102cf6101e3565b5b60006102de86828701610209565b93505060206102ef86828701610267565b9250506040610300868287016102a2565b9150509250925092565b610313816101e8565b82525050565b600060208201905061032e600083018461030a565b92915050565b6000819050919050565b600061035961035461034f8461021e565b610334565b61021e565b9050919050565b600061036b8261033e565b9050919050565b600061037d82610360565b9050919050565b61038d81610372565b82525050565b60006020820190506103a86000830184610384565b92915050565b6103b78161023e565b82525050565b6103c6816101e8565b82525050565b6103d58161027c565b82525050565b6103e48161021e565b82525050565b60a08201600082015161040060008501826103ae565b50602082015161041360208501826103ae565b50604082015161042660408501826103bd565b50606082015161043960608501826103cc565b50608082015161044c60808501826103db565b50505050565b600060a08201905061046760008301846103ea565b92915050565b60008151905061047c816101f2565b92915050565b61048b8161021e565b811461049657600080fd5b50565b6000815190506104a881610482565b92915050565b600063ffffffff82169050919050565b6104c7816104ae565b81146104d257600080fd5b50565b6000815190506104e4816104be565b92915050565b60008060008060808587031215610504576105036101e3565b5b60006105128782880161046d565b945050602061052387828801610499565b9350506040610534878288016104d5565b92505060606105458782880161046d565b9150509295919450925056fea2646970667358221220972265a07625ca8a9a530b4cea72b7dbf62560f4f7651db3fa513d65d934ab8864736f6c634300080b0033",
  "immutableReferences": {
    "4624": [
      {
        "length": 32,
        "start": 275
      },
      {
        "length": 32,
        "start": 449
      }
    ]
  },
  "source": "// SPDX-License-Identifier: MIT\npragma solidity ^0.8.0; //solhint-disable compiler-fixed\n\n\nimport \"@uniswap/v3-core/contracts/interfaces/IUniswapV3Pool.sol\";\nimport \"@uniswap/v3-periphery/contracts/interfaces/ISwapRouter.sol\";\nimport \"@uniswap/v3-periphery/contracts/interfaces/IQuoterV2.sol\";\n\n\ncontract SwapOracle {\n\n    // ISwapRouter public immutable swapRouter;\n    IQuoterV2 public immutable quoterV2;\n    address private constant DAI_ADDRESS = 0x6B175474E89094C44Da98b954EedeAC495271d0F;\n\n    constructor(IQuoterV2 _quoterV2) { //solhint-disable func-visibility\n        quoterV2 = _quoterV2;\n    }\n\n    function getQuotedPrice(uint amount, address token0, uint24 fee) external\n        returns(uint quote) {\n            IQuoterV2.QuoteExactInputSingleParams memory quoteParams =\n                IQuoterV2.QuoteExactInputSingleParams({\n                    tokenIn: token0,\n                    tokenOut: DAI_ADDRESS,\n                    amountIn: amount,\n                    fee: fee,\n                    sqrtPriceLimitX96: 0\n                });\n\n            (quote, , , ) = quoterV2.quoteExactInputSingle(quoteParams);\n            return quote;\n        }\n\n\n}\n",
  "sourcePath": "/home/kevin/Code/solidity_projects/beraMarket/contracts/ancillary/SwapOracle.sol",
  "compiler": {
    "name": "solc",
    "version": "0.8.11+commit.d7f03943.Emscripten.clang"
  },
  "schemaVersion": "3.4.3",
  "updatedAt": "2021-12-31T20:00:21.746Z",
  "devdoc": {
    "kind": "dev",
    "methods": {},
    "version": 1
  },
  "userdoc": {
    "kind": "user",
    "methods": {},
    "version": 1
  }
}