{
  "contractName": "SwapOracle",
  "abi": [
    {
      "inputs": [
        {
          "internalType": "contract TWAPOracle",
          "name": "_twapOracle",
          "type": "address"
        }
      ],
      "stateMutability": "nonpayable",
      "type": "constructor"
    },
    {
      "inputs": [],
      "name": "WETH_DAI_POOL",
      "outputs": [
        {
          "internalType": "address",
          "name": "",
          "type": "address"
        }
      ],
      "stateMutability": "view",
      "type": "function"
    },
    {
      "inputs": [],
      "name": "twapOracle",
      "outputs": [
        {
          "internalType": "contract TWAPOracle",
          "name": "",
          "type": "address"
        }
      ],
      "stateMutability": "view",
      "type": "function"
    },
    {
      "inputs": [
        {
          "internalType": "address",
          "name": "token0",
          "type": "address"
        },
        {
          "internalType": "uint24",
          "name": "fee",
          "type": "uint24"
        }
      ],
      "name": "getSwapPrice",
      "outputs": [
        {
          "internalType": "uint256",
          "name": "quote",
          "type": "uint256"
        }
      ],
      "stateMutability": "view",
      "type": "function"
    }
  ],
  "bytecode": "0x60c060405273c2e9f25be6257c210d7adf0d4cd6e3e881ba25f873ffffffffffffffffffffffffffffffffffffffff1660a09073ffffffffffffffffffffffffffffffffffffffff1681525034801561005757600080fd5b506040516108f13803806108f183398181016040528101906100799190610128565b8073ffffffffffffffffffffffffffffffffffffffff1660808173ffffffffffffffffffffffffffffffffffffffff168152505050610155565b600080fd5b600073ffffffffffffffffffffffffffffffffffffffff82169050919050565b60006100e3826100b8565b9050919050565b60006100f5826100d8565b9050919050565b610105816100ea565b811461011057600080fd5b50565b600081519050610122816100fc565b92915050565b60006020828403121561013e5761013d6100b3565b5b600061014c84828501610113565b91505092915050565b60805160a05161075661019b6000396000818160b401526101ea01526000818160d801528181610101015281816101ae0152818161026c015261031f01526107566000f3fe608060405234801561001057600080fd5b50600436106100415760003560e01c80637475750a146100465780639043292a14610064578063ec3eb22314610082575b600080fd5b61004e6100b2565b60405161005b9190610403565b60405180910390f35b61006c6100d6565b604051610079919061047d565b60405180910390f35b61009c60048036038101906100979190610504565b6100fa565b6040516100a9919061055d565b60405180910390f35b7f000000000000000000000000000000000000000000000000000000000000000081565b7f000000000000000000000000000000000000000000000000000000000000000081565b60008060007f000000000000000000000000000000000000000000000000000000000000000073ffffffffffffffffffffffffffffffffffffffff166358de350086866040518363ffffffff1660e01b815260040161015a929190610587565b6040805180830381865afa158015610176573d6000803e3d6000fd5b505050506040513d601f19601f8201168201806040525081019061019a91906105fe565b9150915060018160ff16141561031d5760007f000000000000000000000000000000000000000000000000000000000000000073ffffffffffffffffffffffffffffffffffffffff166353084eff7f00000000000000000000000000000000000000000000000000000000000000006040518263ffffffff1660e01b81526004016102259190610403565b602060405180830381865afa158015610242573d6000803e3d6000fd5b505050506040513d601f19601f82011682018060405250810190610266919061066a565b905060007f000000000000000000000000000000000000000000000000000000000000000073ffffffffffffffffffffffffffffffffffffffff166353084eff856040518263ffffffff1660e01b81526004016102c39190610403565b602060405180830381865afa1580156102e0573d6000803e3d6000fd5b505050506040513d601f19601f82011682018060405250810190610304919061066a565b9050818161031291906106c6565b9450505050506103bc565b7f000000000000000000000000000000000000000000000000000000000000000073ffffffffffffffffffffffffffffffffffffffff166353084eff836040518263ffffffff1660e01b81526004016103769190610403565b602060405180830381865afa158015610393573d6000803e3d6000fd5b505050506040513d601f19601f820116820180604052508101906103b7919061066a565b925050505b92915050565b600073ffffffffffffffffffffffffffffffffffffffff82169050919050565b60006103ed826103c2565b9050919050565b6103fd816103e2565b82525050565b600060208201905061041860008301846103f4565b92915050565b6000819050919050565b600061044361043e610439846103c2565b61041e565b6103c2565b9050919050565b600061045582610428565b9050919050565b60006104678261044a565b9050919050565b6104778161045c565b82525050565b6000602082019050610492600083018461046e565b92915050565b600080fd5b6104a6816103e2565b81146104b157600080fd5b50565b6000813590506104c38161049d565b92915050565b600062ffffff82169050919050565b6104e1816104c9565b81146104ec57600080fd5b50565b6000813590506104fe816104d8565b92915050565b6000806040838503121561051b5761051a610498565b5b6000610529858286016104b4565b925050602061053a858286016104ef565b9150509250929050565b6000819050919050565b61055781610544565b82525050565b6000602082019050610572600083018461054e565b92915050565b610581816104c9565b82525050565b600060408201905061059c60008301856103f4565b6105a96020830184610578565b9392505050565b6000815190506105bf8161049d565b92915050565b600060ff82169050919050565b6105db816105c5565b81146105e657600080fd5b50565b6000815190506105f8816105d2565b92915050565b6000806040838503121561061557610614610498565b5b6000610623858286016105b0565b9250506020610634858286016105e9565b9150509250929050565b61064781610544565b811461065257600080fd5b50565b6000815190506106648161063e565b92915050565b6000602082840312156106805761067f610498565b5b600061068e84828501610655565b91505092915050565b7f4e487b7100000000000000000000000000000000000000000000000000000000600052601160045260246000fd5b60006106d182610544565b91506106dc83610544565b9250817fffffffffffffffffffffffffffffffffffffffffffffffffffffffffffffffff048311821515161561071557610714610697565b5b82820290509291505056fea2646970667358221220599fc6d9ad87ca2d4b9f0993d48ace1affcf24413d1f66a77e61906774beeace64736f6c634300080b0033",
  "immutableReferences": {
    "4672": [
      {
        "length": 32,
        "start": 216
      },
      {
        "length": 32,
        "start": 257
      },
      {
        "length": 32,
        "start": 430
      },
      {
        "length": 32,
        "start": 620
      },
      {
        "length": 32,
        "start": 799
      }
    ],
    "4675": [
      {
        "length": 32,
        "start": 180
      },
      {
        "length": 32,
        "start": 490
      }
    ]
  },
  "source": "// SPDX-License-Identifier: MIT\npragma solidity ^0.8.0; //solhint-disable compiler-fixed\n\n\nimport \"@uniswap/v3-core/contracts/interfaces/IUniswapV3Pool.sol\";\nimport \"@uniswap/v3-periphery/contracts/interfaces/ISwapRouter.sol\";\nimport \"./TWAPoracle.sol\";\nimport \"./Constants.sol\";\n\n\ncontract SwapOracle {\n\n    TWAPOracle public immutable twapOracle;\n    address public immutable WETH_DAI_POOL = 0xC2e9F25Be6257c210d7Adf0D4Cd6E3E881ba25f8;\n\n    constructor(TWAPOracle _twapOracle) { //solhint-disable func-visibility\n        twapOracle = _twapOracle;\n    }\n\n    //keep in mind that these values are twapped prior to return, and in the case of swapping\n    //check for dai path, otherwise get price in weth\n    function getSwapPrice(address token0, uint24 fee) external view\n        returns(uint quote) {\n            (address pool, uint8 returnCode) = twapOracle.getPoolForTWAP(token0, fee);\n            if (returnCode == 1) { //if return is 1 then pool == weth pool\n                //first we get the price of weth in dai for the most popular fee pool -- 0.3%\n                uint wethPrice = twapOracle.latestPrice(WETH_DAI_POOL);\n\n                uint tokenPriceInWeth = twapOracle.latestPrice(pool);\n                return quote = tokenPriceInWeth * wethPrice;\n            } //else we return quote == dai pool price\n            return quote = twapOracle.latestPrice(pool);\n        }\n}\n",
  "sourcePath": "/home/kevin/Code/solidity_projects/beraMarket/contracts/ancillary/SwapOracle.sol",
  "compiler": {
    "name": "solc",
    "version": "0.8.11+commit.d7f03943.Emscripten.clang"
  },
  "schemaVersion": "3.4.3",
  "updatedAt": "2022-01-15T22:20:23.668Z",
  "devdoc": {
    "kind": "dev",
    "methods": {},
    "version": 1
  },
  "userdoc": {
    "kind": "user",
    "methods": {},
    "version": 1
  }
}