{
  "contractName": "TWAPOracle",
  "abi": [
    {
      "inputs": [
        {
          "internalType": "contract IUniswapV3Pool",
          "name": "pool",
          "type": "address"
        },
        {
          "internalType": "uint256",
          "name": "tokenToPrice",
          "type": "uint256"
        },
        {
          "internalType": "int256",
          "name": "decimalPlaces",
          "type": "int256"
        }
      ],
      "stateMutability": "nonpayable",
      "type": "constructor"
    },
    {
      "inputs": [],
      "name": "UNISWAP_TWAP_PERIOD",
      "outputs": [
        {
          "internalType": "uint32",
          "name": "",
          "type": "uint32"
        }
      ],
      "stateMutability": "view",
      "type": "function",
      "constant": true
    },
    {
      "inputs": [],
      "name": "uniswapScaleFactor",
      "outputs": [
        {
          "internalType": "uint128",
          "name": "",
          "type": "uint128"
        }
      ],
      "stateMutability": "view",
      "type": "function",
      "constant": true
    },
    {
      "inputs": [],
      "name": "uniswapTokenToPrice",
      "outputs": [
        {
          "internalType": "uint256",
          "name": "",
          "type": "uint256"
        }
      ],
      "stateMutability": "view",
      "type": "function",
      "constant": true
    },
    {
      "inputs": [],
      "name": "uniswapV3Pool",
      "outputs": [
        {
          "internalType": "contract IUniswapV3Pool",
          "name": "",
          "type": "address"
        }
      ],
      "stateMutability": "view",
      "type": "function",
      "constant": true
    },
    {
      "inputs": [],
      "name": "latestPrice",
      "outputs": [
        {
          "internalType": "uint256",
          "name": "price",
          "type": "uint256"
        }
      ],
      "stateMutability": "view",
      "type": "function",
      "constant": true
    }
  ],
  "bytecode": "0x60e06040523480156200001157600080fd5b5060405162001b0f38038062001b0f833981810160405281019062000037919062000251565b8273ffffffffffffffffffffffffffffffffffffffff1660808173ffffffffffffffffffffffffffffffffffffffff168152505060008214806200007b5750600182145b620000bd576040517f08c379a0000000000000000000000000000000000000000000000000000000008152600401620000b4906200030e565b60405180910390fd5b8160a081815250506000811215620001045780620000db906200035f565b600a620000e9919062000501565b670de0b6b3a7640000620000fe919062000552565b62000129565b80600a62000113919062000501565b670de0b6b3a7640000620001289190620005e2565b5b6fffffffffffffffffffffffffffffffff1660c0816fffffffffffffffffffffffffffffffff16815250505050506200061a565b600080fd5b600073ffffffffffffffffffffffffffffffffffffffff82169050919050565b60006200018f8262000162565b9050919050565b6000620001a38262000182565b9050919050565b620001b58162000196565b8114620001c157600080fd5b50565b600081519050620001d581620001aa565b92915050565b6000819050919050565b620001f081620001db565b8114620001fc57600080fd5b50565b6000815190506200021081620001e5565b92915050565b6000819050919050565b6200022b8162000216565b81146200023757600080fd5b50565b6000815190506200024b8162000220565b92915050565b6000806000606084860312156200026d576200026c6200015d565b5b60006200027d86828701620001c4565b93505060206200029086828701620001ff565b9250506040620002a3868287016200023a565b9150509250925092565b600082825260208201905092915050565b7f746f6b656e546f5072696365206e6f742030206f722031000000000000000000600082015250565b6000620002f6601783620002ad565b91506200030382620002be565b602082019050919050565b600060208201905081810360008301526200032981620002e7565b9050919050565b7f4e487b7100000000000000000000000000000000000000000000000000000000600052601160045260246000fd5b60006200036c8262000216565b91507f8000000000000000000000000000000000000000000000000000000000000000821415620003a257620003a162000330565b5b816000039050919050565b60008160011c9050919050565b6000808291508390505b60018511156200040c57808604811115620003e457620003e362000330565b5b6001851615620003f45780820291505b80810290506200040485620003ad565b9450620003c4565b94509492505050565b600082620004275760019050620004fa565b81620004375760009050620004fa565b81600181146200045057600281146200045b5762000491565b6001915050620004fa565b60ff84111562000470576200046f62000330565b5b8360020a9150848211156200048a576200048962000330565b5b50620004fa565b5060208310610133831016604e8410600b8410161715620004cb5782820a905083811115620004c557620004c462000330565b5b620004fa565b620004da8484846001620003ba565b92509050818404811115620004f457620004f362000330565b5b81810290505b9392505050565b60006200050e82620001db565b91506200051b83620001db565b92506200054a7fffffffffffffffffffffffffffffffffffffffffffffffffffffffffffffffff848462000415565b905092915050565b60006200055f82620001db565b91506200056c83620001db565b9250817fffffffffffffffffffffffffffffffffffffffffffffffffffffffffffffffff0483118215151615620005a857620005a762000330565b5b828202905092915050565b7f4e487b7100000000000000000000000000000000000000000000000000000000600052601260045260246000fd5b6000620005ef82620001db565b9150620005fc83620001db565b9250826200060f576200060e620005b3565b5b828204905092915050565b60805160a05160c05161148e62000681600039600081816101500152818161029d015261043501526000818161012601526103ed01526000818160fa0152818161017101528181610200015281816102be0152818161034d0152610411015261148e6000f3fe608060405234801561001057600080fd5b50600436106100575760003560e01c8063a3e6ba941461005c578063dc4a34061461007a578063f54b7cba14610098578063f55ebd2a146100b6578063f89494d8146100d4575b600080fd5b6100646100f2565b6040516100719190610d84565b60405180910390f35b6100826103e6565b60405161008f9190610dbe565b60405180910390f35b6100a06103eb565b6040516100ad9190610d84565b60405180910390f35b6100be61040f565b6040516100cb9190610e58565b60405180910390f35b6100dc610433565b6040516100e99190610e9e565b60405180910390f35b6000806101207f0000000000000000000000000000000000000000000000000000000000000000603c610457565b905060017f00000000000000000000000000000000000000000000000000000000000000001461029757610292817f00000000000000000000000000000000000000000000000000000000000000007f000000000000000000000000000000000000000000000000000000000000000073ffffffffffffffffffffffffffffffffffffffff16630dfe16816040518163ffffffff1660e01b8152600401602060405180830381865afa1580156101da573d6000803e3d6000fd5b505050506040513d601f19601f820116820180604052508101906101fe9190610f0b565b7f000000000000000000000000000000000000000000000000000000000000000073ffffffffffffffffffffffffffffffffffffffff1663d21220a76040518163ffffffff1660e01b8152600401602060405180830381865afa158015610269573d6000803e3d6000fd5b505050506040513d601f19601f8201168201806040525081019061028d9190610f0b565b61067a565b6103e0565b6103df817f00000000000000000000000000000000000000000000000000000000000000007f000000000000000000000000000000000000000000000000000000000000000073ffffffffffffffffffffffffffffffffffffffff1663d21220a76040518163ffffffff1660e01b8152600401602060405180830381865afa158015610327573d6000803e3d6000fd5b505050506040513d601f19601f8201168201806040525081019061034b9190610f0b565b7f000000000000000000000000000000000000000000000000000000000000000073ffffffffffffffffffffffffffffffffffffffff16630dfe16816040518163ffffffff1660e01b8152600401602060405180830381865afa1580156103b6573d6000803e3d6000fd5b505050506040513d601f19601f820116820180604052508101906103da9190610f0b565b61067a565b5b91505090565b603c81565b7f000000000000000000000000000000000000000000000000000000000000000081565b7f000000000000000000000000000000000000000000000000000000000000000081565b7f000000000000000000000000000000000000000000000000000000000000000081565b6000808263ffffffff1614156104a2576040517f08c379a000000000000000000000000000000000000000000000000000000000815260040161049990610f95565b60405180910390fd5b6000600267ffffffffffffffff8111156104bf576104be610fb5565b5b6040519080825280602002602001820160405280156104ed5781602001602082028036833780820191505090505b509050828160008151811061050557610504610fe4565b5b602002602001019063ffffffff16908163ffffffff168152505060008160018151811061053557610534610fe4565b5b602002602001019063ffffffff16908163ffffffff168152505060008473ffffffffffffffffffffffffffffffffffffffff1663883bdbfd836040518263ffffffff1660e01b815260040161058a91906110d1565b600060405180830381865afa1580156105a7573d6000803e3d6000fd5b505050506040513d6000823e3d601f19601f820116820180604052508101906105d09190611345565b5090506000816000815181106105e9576105e8610fe4565b5b60200260200101518260018151811061060557610604610fe4565b5b60200260200101510390508463ffffffff1660060b8160060b8161062c5761062b6113bd565b5b05935060008160060b128015610662575060008563ffffffff1660060b8260060b8161065b5761065a6113bd565b5b0760060b14155b15610671578380600190039450505b50505092915050565b6000806106868661087d565b90506fffffffffffffffffffffffffffffffff80168173ffffffffffffffffffffffffffffffffffffffff16116107975760008173ffffffffffffffffffffffffffffffffffffffff168273ffffffffffffffffffffffffffffffffffffffff160290508373ffffffffffffffffffffffffffffffffffffffff168573ffffffffffffffffffffffffffffffffffffffff1610610758576107537801000000000000000000000000000000000000000000000000876fffffffffffffffffffffffffffffffff1683610c90565b61078f565b61078e81876fffffffffffffffffffffffffffffffff167801000000000000000000000000000000000000000000000000610c90565b5b925050610874565b60006107d98273ffffffffffffffffffffffffffffffffffffffff168373ffffffffffffffffffffffffffffffffffffffff1668010000000000000000610c90565b90508373ffffffffffffffffffffffffffffffffffffffff168573ffffffffffffffffffffffffffffffffffffffff16106108415761083c700100000000000000000000000000000000876fffffffffffffffffffffffffffffffff1683610c90565b610870565b61086f81876fffffffffffffffffffffffffffffffff16700100000000000000000000000000000000610c90565b5b9250505b50949350505050565b60008060008360020b12610894578260020b61089c565b8260020b6000035b90507ffffffffffffffffffffffffffffffffffffffffffffffffffffffffffff27618600003811115610904576040517f08c379a00000000000000000000000000000000000000000000000000000000081526004016108fb90611438565b60405180910390fd5b6000806001831614156109285770010000000000000000000000000000000061093a565b6ffffcb933bd6fad37aa2d162d1a5940015b70ffffffffffffffffffffffffffffffffff169050600060028316146109745760806ffff97272373d413259a46990580e213a8202901c90505b600060048316146109995760806ffff2e50f5f656932ef12357cf3c7fdcc8202901c90505b600060088316146109be5760806fffe5caca7e10e4e61c3624eaa0941cd08202901c90505b600060108316146109e35760806fffcb9843d60f6159c9db58835c9266448202901c90505b60006020831614610a085760806fff973b41fa98c081472e6896dfb254c08202901c90505b60006040831614610a2d5760806fff2ea16466c96a3843ec78b326b528618202901c90505b60006080831614610a525760806ffe5dee046a99a2a811c461f1969c30538202901c90505b6000610100831614610a785760806ffcbe86c7900a88aedcffc83b479aa3a48202901c90505b6000610200831614610a9e5760806ff987a7253ac413176f2b074cf7815e548202901c90505b6000610400831614610ac45760806ff3392b0822b70005940c7a398e4b70f38202901c90505b6000610800831614610aea5760806fe7159475a2c29b7443b29c7fa6e889d98202901c90505b6000611000831614610b105760806fd097f3bdfd2022b8845ad8f792aa58258202901c90505b6000612000831614610b365760806fa9f746462d870fdf8a65dc1f90e061e58202901c90505b6000614000831614610b5c5760806f70d869a156d2a1b890bb3df62baf32f78202901c90505b6000618000831614610b825760806f31be135f97d08fd981231505542fcfa68202901c90505b600062010000831614610ba95760806f09aa508b5b7a84e1c677de54f3e99bc98202901c90505b600062020000831614610bcf5760806e5d6af8dedb81196699c329225ee6048202901c90505b600062040000831614610bf45760806d2216e584f5fa1ea926041bedfe988202901c90505b600062080000831614610c175760806b048a170391f7dc42444e8fa28202901c90505b60008460020b1315610c5757807fffffffffffffffffffffffffffffffffffffffffffffffffffffffffffffffff81610c5357610c526113bd565b5b0490505b60006401000000008281610c6e57610c6d6113bd565b5b0614610c7b576001610c7e565b60005b60ff16602082901c0192505050919050565b600080600080198587098587029250828110838203039150506000811415610ccb5760008411610cbf57600080fd5b83820492505050610d64565b808411610cd757600080fd5b60008486880990508281118203915080830392506000856001871901169050808604955080840493506001818260000304019050808302841793506000600287600302189050808702600203810290508087026002038102905080870260020381029050808702600203810290508087026002038102905080870260020381029050808502955050505050505b9392505050565b6000819050919050565b610d7e81610d6b565b82525050565b6000602082019050610d996000830184610d75565b92915050565b600063ffffffff82169050919050565b610db881610d9f565b82525050565b6000602082019050610dd36000830184610daf565b92915050565b600073ffffffffffffffffffffffffffffffffffffffff82169050919050565b6000819050919050565b6000610e1e610e19610e1484610dd9565b610df9565b610dd9565b9050919050565b6000610e3082610e03565b9050919050565b6000610e4282610e25565b9050919050565b610e5281610e37565b82525050565b6000602082019050610e6d6000830184610e49565b92915050565b60006fffffffffffffffffffffffffffffffff82169050919050565b610e9881610e73565b82525050565b6000602082019050610eb36000830184610e8f565b92915050565b6000604051905090565b600080fd5b600080fd5b6000610ed882610dd9565b9050919050565b610ee881610ecd565b8114610ef357600080fd5b50565b600081519050610f0581610edf565b92915050565b600060208284031215610f2157610f20610ec3565b5b6000610f2f84828501610ef6565b91505092915050565b600082825260208201905092915050565b7f4250000000000000000000000000000000000000000000000000000000000000600082015250565b6000610f7f600283610f38565b9150610f8a82610f49565b602082019050919050565b60006020820190508181036000830152610fae81610f72565b9050919050565b7f4e487b7100000000000000000000000000000000000000000000000000000000600052604160045260246000fd5b7f4e487b7100000000000000000000000000000000000000000000000000000000600052603260045260246000fd5b600081519050919050565b600082825260208201905092915050565b6000819050602082019050919050565b61104881610d9f565b82525050565b600061105a838361103f565b60208301905092915050565b6000602082019050919050565b600061107e82611013565b611088818561101e565b93506110938361102f565b8060005b838110156110c45781516110ab888261104e565b97506110b683611066565b925050600181019050611097565b5085935050505092915050565b600060208201905081810360008301526110eb8184611073565b905092915050565b600080fd5b6000601f19601f8301169050919050565b611112826110f8565b810181811067ffffffffffffffff8211171561113157611130610fb5565b5b80604052505050565b6000611144610eb9565b90506111508282611109565b919050565b600067ffffffffffffffff8211156111705761116f610fb5565b5b602082029050602081019050919050565b600080fd5b60008160060b9050919050565b61119c81611186565b81146111a757600080fd5b50565b6000815190506111b981611193565b92915050565b60006111d26111cd84611155565b61113a565b905080838252602082019050602084028301858111156111f5576111f4611181565b5b835b8181101561121e578061120a88826111aa565b8452602084019350506020810190506111f7565b5050509392505050565b600082601f83011261123d5761123c6110f3565b5b815161124d8482602086016111bf565b91505092915050565b600067ffffffffffffffff82111561127157611270610fb5565b5b602082029050602081019050919050565b61128b81610dd9565b811461129657600080fd5b50565b6000815190506112a881611282565b92915050565b60006112c16112bc84611256565b61113a565b905080838252602082019050602084028301858111156112e4576112e3611181565b5b835b8181101561130d57806112f98882611299565b8452602084019350506020810190506112e6565b5050509392505050565b600082601f83011261132c5761132b6110f3565b5b815161133c8482602086016112ae565b91505092915050565b6000806040838503121561135c5761135b610ec3565b5b600083015167ffffffffffffffff81111561137a57611379610ec8565b5b61138685828601611228565b925050602083015167ffffffffffffffff8111156113a7576113a6610ec8565b5b6113b385828601611317565b9150509250929050565b7f4e487b7100000000000000000000000000000000000000000000000000000000600052601260045260246000fd5b7f5400000000000000000000000000000000000000000000000000000000000000600082015250565b6000611422600183610f38565b915061142d826113ec565b602082019050919050565b6000602082019050818103600083015261145181611415565b905091905056fea26469706673582212207b15c2cf7080eacf1618f21119226eed92bb660213562589b630022e2ccd343764736f6c634300080b0033",
  "immutableReferences": {
    "4256": [
      {
        "length": 32,
        "start": 250
      },
      {
        "length": 32,
        "start": 369
      },
      {
        "length": 32,
        "start": 512
      },
      {
        "length": 32,
        "start": 702
      },
      {
        "length": 32,
        "start": 845
      },
      {
        "length": 32,
        "start": 1041
      }
    ],
    "4258": [
      {
        "length": 32,
        "start": 294
      },
      {
        "length": 32,
        "start": 1005
      }
    ],
    "4260": [
      {
        "length": 32,
        "start": 336
      },
      {
        "length": 32,
        "start": 669
      },
      {
        "length": 32,
        "start": 1077
      }
    ]
  },
  "source": "// SPDX-License-Identifier: MIT\npragma solidity ^0.8.0; //solhint-disable compiler-fixed\n\nimport \"@uniswap/v3-core/contracts/interfaces/IUniswapV3Pool.sol\";\nimport \"../uniswapv08/v3-periphery/OracleLibrary.sol\";\nimport \"./Oracle.sol\"; \n\n\ncontract TWAPOracle is Oracle {\n\n    uint32 public constant UNISWAP_TWAP_PERIOD = 1 minutes;\n\n    uint private constant WAD = 1e18;\n\n    IUniswapV3Pool public immutable uniswapV3Pool;\n    uint public immutable uniswapTokenToPrice;      // See constructor comment below.\n    uint128 public immutable uniswapScaleFactor;\n\n    constructor(IUniswapV3Pool pool, uint tokenToPrice, int decimalPlaces) { //solhint-disable\n        uniswapV3Pool = pool;\n        require(tokenToPrice == 0 || tokenToPrice == 1, \"tokenToPrice not 0 or 1\");\n        uniswapTokenToPrice = tokenToPrice;\n\n        uniswapScaleFactor = uint128(decimalPlaces >= 0 ?\n            WAD / 10 ** uint(decimalPlaces) :\n            WAD * 10 ** uint(-decimalPlaces));\n    }\n\n    function latestPrice() public virtual override view returns (uint price) {\n        int24 twapTick = OracleLibrary.consult(address(uniswapV3Pool), UNISWAP_TWAP_PERIOD);\n        price = uniswapTokenToPrice == 1 ?\n            OracleLibrary.getQuoteAtTick(twapTick, uniswapScaleFactor, uniswapV3Pool.token1(), uniswapV3Pool.token0()) :\n            OracleLibrary.getQuoteAtTick(twapTick, uniswapScaleFactor, uniswapV3Pool.token0(), uniswapV3Pool.token1());\n    }\n}\n",
  "sourcePath": "/home/kevin/Code/solidity_projects/beraMarket/contracts/ancillary/TWAPoracle.sol",
  "compiler": {
    "name": "solc",
    "version": "0.8.11+commit.d7f03943.Emscripten.clang"
  },
  "schemaVersion": "3.4.3",
  "updatedAt": "2021-12-26T23:45:49.689Z",
  "networkType": "ethereum",
  "devdoc": {
    "kind": "dev",
    "methods": {
      "latestPrice()": {
        "returns": {
          "price": "WAD-scaled - 18 dec places"
        }
      }
    },
    "version": 1
  },
  "userdoc": {
    "kind": "user",
    "methods": {},
    "version": 1
  }
}