{
  "contractName": "TWAPOracle",
  "abi": [
    {
      "inputs": [
        {
          "internalType": "contract IUniswapV3Factory",
          "name": "factory",
          "type": "address"
        },
        {
          "internalType": "uint256",
          "name": "tokenToPrice",
          "type": "uint256"
        }
      ],
      "stateMutability": "nonpayable",
      "type": "constructor"
    },
    {
      "inputs": [],
      "name": "TWAP_PERIOD",
      "outputs": [
        {
          "internalType": "uint32",
          "name": "",
          "type": "uint32"
        }
      ],
      "stateMutability": "view",
      "type": "function"
    },
    {
      "inputs": [],
      "name": "uniswapFactory",
      "outputs": [
        {
          "internalType": "contract IUniswapV3Factory",
          "name": "",
          "type": "address"
        }
      ],
      "stateMutability": "view",
      "type": "function"
    },
    {
      "inputs": [],
      "name": "uniswapTokenToPrice",
      "outputs": [
        {
          "internalType": "uint256",
          "name": "",
          "type": "uint256"
        }
      ],
      "stateMutability": "view",
      "type": "function"
    },
    {
      "inputs": [
        {
          "internalType": "address",
          "name": "tokenA",
          "type": "address"
        },
        {
          "internalType": "uint24",
          "name": "fee",
          "type": "uint24"
        }
      ],
      "name": "getPoolForTWAP",
      "outputs": [
        {
          "internalType": "address",
          "name": "",
          "type": "address"
        }
      ],
      "stateMutability": "view",
      "type": "function"
    },
    {
      "inputs": [
        {
          "internalType": "address",
          "name": "pool",
          "type": "address"
        },
        {
          "internalType": "address",
          "name": "token0",
          "type": "address"
        }
      ],
      "name": "latestPrice",
      "outputs": [
        {
          "internalType": "uint256",
          "name": "price",
          "type": "uint256"
        }
      ],
      "stateMutability": "view",
      "type": "function"
    }
  ],
  "bytecode": "0x60c06040523480156200001157600080fd5b5060405162001baf38038062001baf833981810160405281019062000037919062000186565b8173ffffffffffffffffffffffffffffffffffffffff1660808173ffffffffffffffffffffffffffffffffffffffff168152505060008114806200007b5750600181145b620000bd576040517f08c379a0000000000000000000000000000000000000000000000000000000008152600401620000b4906200022e565b60405180910390fd5b8060a08181525050505062000250565b600080fd5b600073ffffffffffffffffffffffffffffffffffffffff82169050919050565b6000620000ff82620000d2565b9050919050565b60006200011382620000f2565b9050919050565b620001258162000106565b81146200013157600080fd5b50565b60008151905062000145816200011a565b92915050565b6000819050919050565b62000160816200014b565b81146200016c57600080fd5b50565b600081519050620001808162000155565b92915050565b60008060408385031215620001a0576200019f620000cd565b5b6000620001b08582860162000134565b9250506020620001c3858286016200016f565b9150509250929050565b600082825260208201905092915050565b7f746f6b656e546f5072696365206e6f742030206f722031000000000000000000600082015250565b600062000216601783620001cd565b91506200022382620001de565b602082019050919050565b60006020820190508181036000830152620002498162000207565b9050919050565b60805160a05161192b62000284600039600081816102b701526104e701526000818161011a01526104c3015261192b6000f3fe608060405234801561001057600080fd5b50600436106100575760003560e01c806358de35001461005c5780637c2d656b1461008c5780637ca25184146100bc5780638bdb2afa146100da578063f54b7cba146100f8575b600080fd5b61007660048036038101906100719190610eca565b610116565b6040516100839190610f19565b60405180910390f35b6100a660048036038101906100a19190610f34565b6101d2565b6040516100b39190610f8d565b60405180910390f35b6100c46104bc565b6040516100d19190610fc7565b60405180910390f35b6100e26104c1565b6040516100ef9190611041565b60405180910390f35b6101006104e5565b60405161010d9190610f8d565b60405180910390f35b60007f000000000000000000000000000000000000000000000000000000000000000073ffffffffffffffffffffffffffffffffffffffff16631698ee8284736b175474e89094c44da98b954eedeac495271d0f856040518463ffffffff1660e01b81526004016101899392919061106b565b602060405180830381865afa1580156101a6573d6000803e3d6000fd5b505050506040513d601f19601f820116820180604052508101906101ca91906110b7565b905092915050565b6000808273ffffffffffffffffffffffffffffffffffffffff1663313ce5676040518163ffffffff1660e01b8152600401602060405180830381865afa158015610220573d6000803e3d6000fd5b505050506040513d601f19601f82011682018060405250810190610244919061111d565b60000b9050600080821215610281578161025d90611183565b600a61026991906112ff565b670de0b6b3a764000061027c919061134a565b6102a2565b81600a61028e91906112ff565b670de0b6b3a76400006102a191906113d3565b5b905060006102b18660b4610509565b905060017f0000000000000000000000000000000000000000000000000000000000000000146103c8576103c381838873ffffffffffffffffffffffffffffffffffffffff16630dfe16816040518163ffffffff1660e01b8152600401602060405180830381865afa15801561032b573d6000803e3d6000fd5b505050506040513d601f19601f8201168201806040525081019061034f91906110b7565b8973ffffffffffffffffffffffffffffffffffffffff1663d21220a76040518163ffffffff1660e01b8152600401602060405180830381865afa15801561039a573d6000803e3d6000fd5b505050506040513d601f19601f820116820180604052508101906103be91906110b7565b61072c565b6104b1565b6104b081838873ffffffffffffffffffffffffffffffffffffffff1663d21220a76040518163ffffffff1660e01b8152600401602060405180830381865afa158015610418573d6000803e3d6000fd5b505050506040513d601f19601f8201168201806040525081019061043c91906110b7565b8973ffffffffffffffffffffffffffffffffffffffff16630dfe16816040518163ffffffff1660e01b8152600401602060405180830381865afa158015610487573d6000803e3d6000fd5b505050506040513d601f19601f820116820180604052508101906104ab91906110b7565b61072c565b5b935050505092915050565b60b481565b7f000000000000000000000000000000000000000000000000000000000000000081565b7f000000000000000000000000000000000000000000000000000000000000000081565b6000808263ffffffff161415610554576040517f08c379a000000000000000000000000000000000000000000000000000000000815260040161054b90611461565b60405180910390fd5b6000600267ffffffffffffffff81111561057157610570611481565b5b60405190808252806020026020018201604052801561059f5781602001602082028036833780820191505090505b50905082816000815181106105b7576105b66114b0565b5b602002602001019063ffffffff16908163ffffffff16815250506000816001815181106105e7576105e66114b0565b5b602002602001019063ffffffff16908163ffffffff168152505060008473ffffffffffffffffffffffffffffffffffffffff1663883bdbfd836040518263ffffffff1660e01b815260040161063c919061159d565b600060405180830381865afa158015610659573d6000803e3d6000fd5b505050506040513d6000823e3d601f19601f820116820180604052508101906106829190611811565b50905060008160008151811061069b5761069a6114b0565b5b6020026020010151826001815181106106b7576106b66114b0565b5b60200260200101510390508463ffffffff1660060b8160060b816106de576106dd6113a4565b5b05935060008160060b128015610714575060008563ffffffff1660060b8260060b8161070d5761070c6113a4565b5b0760060b14155b15610723578380600190039450505b50505092915050565b6000806107388661092f565b90506fffffffffffffffffffffffffffffffff80168173ffffffffffffffffffffffffffffffffffffffff16116108495760008173ffffffffffffffffffffffffffffffffffffffff168273ffffffffffffffffffffffffffffffffffffffff160290508373ffffffffffffffffffffffffffffffffffffffff168573ffffffffffffffffffffffffffffffffffffffff161061080a576108057801000000000000000000000000000000000000000000000000876fffffffffffffffffffffffffffffffff1683610d42565b610841565b61084081876fffffffffffffffffffffffffffffffff167801000000000000000000000000000000000000000000000000610d42565b5b925050610926565b600061088b8273ffffffffffffffffffffffffffffffffffffffff168373ffffffffffffffffffffffffffffffffffffffff1668010000000000000000610d42565b90508373ffffffffffffffffffffffffffffffffffffffff168573ffffffffffffffffffffffffffffffffffffffff16106108f3576108ee700100000000000000000000000000000000876fffffffffffffffffffffffffffffffff1683610d42565b610922565b61092181876fffffffffffffffffffffffffffffffff16700100000000000000000000000000000000610d42565b5b9250505b50949350505050565b60008060008360020b12610946578260020b61094e565b8260020b6000035b90507ffffffffffffffffffffffffffffffffffffffffffffffffffffffffffff276186000038111156109b6576040517f08c379a00000000000000000000000000000000000000000000000000000000081526004016109ad906118d5565b60405180910390fd5b6000806001831614156109da577001000000000000000000000000000000006109ec565b6ffffcb933bd6fad37aa2d162d1a5940015b70ffffffffffffffffffffffffffffffffff16905060006002831614610a265760806ffff97272373d413259a46990580e213a8202901c90505b60006004831614610a4b5760806ffff2e50f5f656932ef12357cf3c7fdcc8202901c90505b60006008831614610a705760806fffe5caca7e10e4e61c3624eaa0941cd08202901c90505b60006010831614610a955760806fffcb9843d60f6159c9db58835c9266448202901c90505b60006020831614610aba5760806fff973b41fa98c081472e6896dfb254c08202901c90505b60006040831614610adf5760806fff2ea16466c96a3843ec78b326b528618202901c90505b60006080831614610b045760806ffe5dee046a99a2a811c461f1969c30538202901c90505b6000610100831614610b2a5760806ffcbe86c7900a88aedcffc83b479aa3a48202901c90505b6000610200831614610b505760806ff987a7253ac413176f2b074cf7815e548202901c90505b6000610400831614610b765760806ff3392b0822b70005940c7a398e4b70f38202901c90505b6000610800831614610b9c5760806fe7159475a2c29b7443b29c7fa6e889d98202901c90505b6000611000831614610bc25760806fd097f3bdfd2022b8845ad8f792aa58258202901c90505b6000612000831614610be85760806fa9f746462d870fdf8a65dc1f90e061e58202901c90505b6000614000831614610c0e5760806f70d869a156d2a1b890bb3df62baf32f78202901c90505b6000618000831614610c345760806f31be135f97d08fd981231505542fcfa68202901c90505b600062010000831614610c5b5760806f09aa508b5b7a84e1c677de54f3e99bc98202901c90505b600062020000831614610c815760806e5d6af8dedb81196699c329225ee6048202901c90505b600062040000831614610ca65760806d2216e584f5fa1ea926041bedfe988202901c90505b600062080000831614610cc95760806b048a170391f7dc42444e8fa28202901c90505b60008460020b1315610d0957807fffffffffffffffffffffffffffffffffffffffffffffffffffffffffffffffff81610d0557610d046113a4565b5b0490505b60006401000000008281610d2057610d1f6113a4565b5b0614610d2d576001610d30565b60005b60ff16602082901c0192505050919050565b600080600080198587098587029250828110838203039150506000811415610d7d5760008411610d7157600080fd5b83820492505050610e16565b808411610d8957600080fd5b60008486880990508281118203915080830392506000856001871901169050808604955080840493506001818260000304019050808302841793506000600287600302189050808702600203810290508087026002038102905080870260020381029050808702600203810290508087026002038102905080870260020381029050808502955050505050505b9392505050565b6000604051905090565b600080fd5b600080fd5b600073ffffffffffffffffffffffffffffffffffffffff82169050919050565b6000610e5c82610e31565b9050919050565b610e6c81610e51565b8114610e7757600080fd5b50565b600081359050610e8981610e63565b92915050565b600062ffffff82169050919050565b610ea781610e8f565b8114610eb257600080fd5b50565b600081359050610ec481610e9e565b92915050565b60008060408385031215610ee157610ee0610e27565b5b6000610eef85828601610e7a565b9250506020610f0085828601610eb5565b9150509250929050565b610f1381610e51565b82525050565b6000602082019050610f2e6000830184610f0a565b92915050565b60008060408385031215610f4b57610f4a610e27565b5b6000610f5985828601610e7a565b9250506020610f6a85828601610e7a565b9150509250929050565b6000819050919050565b610f8781610f74565b82525050565b6000602082019050610fa26000830184610f7e565b92915050565b600063ffffffff82169050919050565b610fc181610fa8565b82525050565b6000602082019050610fdc6000830184610fb8565b92915050565b6000819050919050565b6000611007611002610ffd84610e31565b610fe2565b610e31565b9050919050565b600061101982610fec565b9050919050565b600061102b8261100e565b9050919050565b61103b81611020565b82525050565b60006020820190506110566000830184611032565b92915050565b61106581610e8f565b82525050565b60006060820190506110806000830186610f0a565b61108d6020830185610f0a565b61109a604083018461105c565b949350505050565b6000815190506110b181610e63565b92915050565b6000602082840312156110cd576110cc610e27565b5b60006110db848285016110a2565b91505092915050565b600060ff82169050919050565b6110fa816110e4565b811461110557600080fd5b50565b600081519050611117816110f1565b92915050565b60006020828403121561113357611132610e27565b5b600061114184828501611108565b91505092915050565b6000819050919050565b7f4e487b7100000000000000000000000000000000000000000000000000000000600052601160045260246000fd5b600061118e8261114a565b91507f80000000000000000000000000000000000000000000000000000000000000008214156111c1576111c0611154565b5b816000039050919050565b60008160011c9050919050565b6000808291508390505b6001851115611223578086048111156111ff576111fe611154565b5b600185161561120e5780820291505b808102905061121c856111cc565b94506111e3565b94509492505050565b60008261123c57600190506112f8565b8161124a57600090506112f8565b8160018114611260576002811461126a57611299565b60019150506112f8565b60ff84111561127c5761127b611154565b5b8360020a91508482111561129357611292611154565b5b506112f8565b5060208310610133831016604e8410600b84101617156112ce5782820a9050838111156112c9576112c8611154565b5b6112f8565b6112db84848460016111d9565b925090508184048111156112f2576112f1611154565b5b81810290505b9392505050565b600061130a82610f74565b915061131583610f74565b92506113427fffffffffffffffffffffffffffffffffffffffffffffffffffffffffffffffff848461122c565b905092915050565b600061135582610f74565b915061136083610f74565b9250817fffffffffffffffffffffffffffffffffffffffffffffffffffffffffffffffff048311821515161561139957611398611154565b5b828202905092915050565b7f4e487b7100000000000000000000000000000000000000000000000000000000600052601260045260246000fd5b60006113de82610f74565b91506113e983610f74565b9250826113f9576113f86113a4565b5b828204905092915050565b600082825260208201905092915050565b7f4250000000000000000000000000000000000000000000000000000000000000600082015250565b600061144b600283611404565b915061145682611415565b602082019050919050565b6000602082019050818103600083015261147a8161143e565b9050919050565b7f4e487b7100000000000000000000000000000000000000000000000000000000600052604160045260246000fd5b7f4e487b7100000000000000000000000000000000000000000000000000000000600052603260045260246000fd5b600081519050919050565b600082825260208201905092915050565b6000819050602082019050919050565b61151481610fa8565b82525050565b6000611526838361150b565b60208301905092915050565b6000602082019050919050565b600061154a826114df565b61155481856114ea565b935061155f836114fb565b8060005b83811015611590578151611577888261151a565b975061158283611532565b925050600181019050611563565b5085935050505092915050565b600060208201905081810360008301526115b7818461153f565b905092915050565b600080fd5b6000601f19601f8301169050919050565b6115de826115c4565b810181811067ffffffffffffffff821117156115fd576115fc611481565b5b80604052505050565b6000611610610e1d565b905061161c82826115d5565b919050565b600067ffffffffffffffff82111561163c5761163b611481565b5b602082029050602081019050919050565b600080fd5b60008160060b9050919050565b61166881611652565b811461167357600080fd5b50565b6000815190506116858161165f565b92915050565b600061169e61169984611621565b611606565b905080838252602082019050602084028301858111156116c1576116c061164d565b5b835b818110156116ea57806116d68882611676565b8452602084019350506020810190506116c3565b5050509392505050565b600082601f830112611709576117086115bf565b5b815161171984826020860161168b565b91505092915050565b600067ffffffffffffffff82111561173d5761173c611481565b5b602082029050602081019050919050565b61175781610e31565b811461176257600080fd5b50565b6000815190506117748161174e565b92915050565b600061178d61178884611722565b611606565b905080838252602082019050602084028301858111156117b0576117af61164d565b5b835b818110156117d957806117c58882611765565b8452602084019350506020810190506117b2565b5050509392505050565b600082601f8301126117f8576117f76115bf565b5b815161180884826020860161177a565b91505092915050565b6000806040838503121561182857611827610e27565b5b600083015167ffffffffffffffff81111561184657611845610e2c565b5b611852858286016116f4565b925050602083015167ffffffffffffffff81111561187357611872610e2c565b5b61187f858286016117e3565b9150509250929050565b7f5400000000000000000000000000000000000000000000000000000000000000600082015250565b60006118bf600183611404565b91506118ca82611889565b602082019050919050565b600060208201905081810360008301526118ee816118b2565b905091905056fea2646970667358221220cf5496efd89e5191bb8e3324e208efc5426a7a6104971810b42eac8b3c24acc164736f6c634300080b0033",
  "immutableReferences": {
    "4694": [
      {
        "length": 32,
        "start": 282
      },
      {
        "length": 32,
        "start": 1219
      }
    ],
    "4699": [
      {
        "length": 32,
        "start": 695
      },
      {
        "length": 32,
        "start": 1255
      }
    ]
  },
  "source": "// SPDX-License-Identifier: MIT\npragma solidity ^0.8.0; //solhint-disable compiler-fixed\n\nimport \"@uniswap/v3-core/contracts/interfaces/IUniswapV3Pool.sol\";\nimport \"@uniswap/v3-core/contracts/interfaces/IUniswapV3Factory.sol\";\nimport \"../uniswapv08/v3-periphery/OracleLibrary.sol\";\nimport \"../uniswapv08/v3-periphery/PoolAddress.sol\";\nimport \"@openzeppelin/contracts/token/ERC20/ERC20.sol\";\nimport \"./IOracle.sol\";\n\n\n//TODO\n//reworking contract now, is kinda fucked in the current state did not finish\ncontract TWAPOracle is IOracle {\n\n    uint32 public constant TWAP_PERIOD = 3 minutes;\n    address private constant DAI_ADDRESS = 0x6B175474E89094C44Da98b954EedeAC495271d0F;\n    IUniswapV3Factory public immutable uniswapFactory;\n    uint private constant WAD = 1e18;\n    uint public immutable uniswapTokenToPrice;      // See constructor comment below.\n\n    /**\n     * @notice Example pools to pass in:\n     * USDC/ETH (0.05%): 0x88e6a0c2ddd26feeb64f039a2c41296fcb3f5640, 1, -12\n     * ETH/USDT (0.05%): 0x11b815efb8f581194ae79006d24e0d814b7697f6, 0, -12\n     * @param tokenToPrice Which token we're pricing (0 or 1) relative to the other.\n     Eg, for the USDC/ETH pool (token0 = USDC,\n     * token1 = ETH), we want the price of ETH in terms of USDC, not vice versa:\n     so we should pass in `tokenToPrice == 1'.\n     */\n    constructor(IUniswapV3Factory factory, uint tokenToPrice) { //solhint-disable func-visibility\n        uniswapFactory = factory;\n        require(tokenToPrice == 0 || tokenToPrice == 1, \"tokenToPrice not 0 or 1\");\n        uniswapTokenToPrice = tokenToPrice;\n\n    }\n\n    function getPoolForTWAP(address tokenA, uint24 fee) external view returns (address) {\n        return uniswapFactory.getPool(tokenA, DAI_ADDRESS, fee);\n    }\n\n    // We want latestPrice() to return WAD-fixed-point (18-decimal-place) numbers.\n    // So, eg, if Uniswap's output numbers\n    // include 3 decimal places (ie, are already scaled by 10**3), we need to scale them by another 10**15:\n    /** decimalPlaces How many decimal places are already included in the numbers Uniswap returns.  So,\n    * `decimalPlaces = 3` means when Uniswap returns 12345,\n    it actually represents 12.345 (ie, the last three digits were the\n    * decimal part). `decimalPlaces = -3` means when Uniswap returns 12345, it actually represents 12,345,000.\n    */\n    function latestPrice(address pool, address token0) public virtual override view returns (uint price) {\n        int decimalPlaces = int8(ERC20(token0).decimals());\n        uint128 uniswapScaleFactor = uint128(decimalPlaces >= 0 ?\n            WAD / 10 ** uint(decimalPlaces) :\n            WAD * 10 ** uint(-decimalPlaces));\n\n        int24 twapTick = OracleLibrary.consult(pool, TWAP_PERIOD);\n        price = uniswapTokenToPrice == 1 ? //solhint-disable\n            OracleLibrary.getQuoteAtTick(twapTick, uniswapScaleFactor, IUniswapV3Pool(pool).token1(), IUniswapV3Pool(pool).token0()) :\n            OracleLibrary.getQuoteAtTick(twapTick, uniswapScaleFactor, IUniswapV3Pool(pool).token0(), IUniswapV3Pool(pool).token1());\n    }\n}\n",
  "sourcePath": "/home/kevin/Code/solidity_projects/beraMarket/contracts/ancillary/TWAPoracle.sol",
  "compiler": {
    "name": "solc",
    "version": "0.8.11+commit.d7f03943.Emscripten.clang"
  },
  "schemaVersion": "3.4.3",
  "updatedAt": "2021-12-31T20:00:21.755Z",
  "devdoc": {
    "kind": "dev",
    "methods": {
      "constructor": {
        "params": {
          "tokenToPrice": "Which token we're pricing (0 or 1) relative to the other. Eg, for the USDC/ETH pool (token0 = USDC, token1 = ETH), we want the price of ETH in terms of USDC, not vice versa: so we should pass in `tokenToPrice == 1'."
        }
      }
    },
    "version": 1
  },
  "userdoc": {
    "kind": "user",
    "methods": {
      "constructor": {
        "notice": "Example pools to pass in: USDC/ETH (0.05%): 0x88e6a0c2ddd26feeb64f039a2c41296fcb3f5640, 1, -12 ETH/USDT (0.05%): 0x11b815efb8f581194ae79006d24e0d814b7697f6, 0, -12"
      },
      "latestPrice(address,address)": {
        "notice": "decimalPlaces How many decimal places are already included in the numbers Uniswap returns.  So, `decimalPlaces = 3` means when Uniswap returns 12345, it actually represents 12.345 (ie, the last three digits were the decimal part). `decimalPlaces = -3` means when Uniswap returns 12345, it actually represents 12,345,000."
      }
    },
    "version": 1
  }
}