{
  "contractName": "TWAPOracle",
  "abi": [
    {
      "inputs": [
        {
          "internalType": "contract IUniswapV3Factory",
          "name": "factory",
          "type": "address"
        }
      ],
      "stateMutability": "nonpayable",
      "type": "constructor"
    },
    {
      "inputs": [],
      "name": "TWAP_PERIOD",
      "outputs": [
        {
          "internalType": "uint32",
          "name": "",
          "type": "uint32"
        }
      ],
      "stateMutability": "view",
      "type": "function",
      "constant": true
    },
    {
      "inputs": [],
      "name": "uniswapFactory",
      "outputs": [
        {
          "internalType": "contract IUniswapV3Factory",
          "name": "",
          "type": "address"
        }
      ],
      "stateMutability": "view",
      "type": "function",
      "constant": true
    },
    {
      "inputs": [
        {
          "internalType": "address",
          "name": "tokenA",
          "type": "address"
        },
        {
          "internalType": "uint24",
          "name": "fee",
          "type": "uint24"
        }
      ],
      "name": "getPoolForTWAP",
      "outputs": [
        {
          "internalType": "address",
          "name": "",
          "type": "address"
        },
        {
          "internalType": "uint8",
          "name": "",
          "type": "uint8"
        }
      ],
      "stateMutability": "view",
      "type": "function",
      "constant": true
    },
    {
      "inputs": [
        {
          "internalType": "address",
          "name": "pool",
          "type": "address"
        }
      ],
      "name": "latestPrice",
      "outputs": [
        {
          "internalType": "uint256",
          "name": "price",
          "type": "uint256"
        }
      ],
      "stateMutability": "view",
      "type": "function",
      "constant": true
    }
  ],
  "bytecode": "0x60a06040523480156200001157600080fd5b50604051620018d8380380620018d88339818101604052810190620000379190620000f0565b8073ffffffffffffffffffffffffffffffffffffffff1660808173ffffffffffffffffffffffffffffffffffffffff16815250505062000122565b600080fd5b600073ffffffffffffffffffffffffffffffffffffffff82169050919050565b6000620000a48262000077565b9050919050565b6000620000b88262000097565b9050919050565b620000ca81620000ab565b8114620000d657600080fd5b50565b600081519050620000ea81620000bf565b92915050565b60006020828403121562000109576200010862000072565b5b60006200011984828501620000d9565b91505092915050565b60805161178c6200014c600039600081816104630152818161054c0152610622015261178c6000f3fe608060405234801561001057600080fd5b506004361061004c5760003560e01c806353084eff1461005157806358de3500146100815780637ca25184146100b25780638bdb2afa146100d0575b600080fd5b61006b60048036038101906100669190610fca565b6100ee565b6040516100789190611010565b60405180910390f35b61009b60048036038101906100969190611066565b61045c565b6040516100a99291906110d1565b60405180910390f35b6100ba61061b565b6040516100c79190611119565b60405180910390f35b6100d8610620565b6040516100e59190611193565b60405180910390f35b600080670de0b6b3a7640000905060006101098460b4610644565b90508373ffffffffffffffffffffffffffffffffffffffff16630dfe16816040518163ffffffff1660e01b8152600401602060405180830381865afa158015610156573d6000803e3d6000fd5b505050506040513d601f19601f8201168201806040525081019061017a91906111c3565b73ffffffffffffffffffffffffffffffffffffffff16736b175474e89094c44da98b954eedeac495271d0f73ffffffffffffffffffffffffffffffffffffffff16148061027457508373ffffffffffffffffffffffffffffffffffffffff16630dfe16816040518163ffffffff1660e01b8152600401602060405180830381865afa15801561020d573d6000803e3d6000fd5b505050506040513d601f19601f8201168201806040525081019061023191906111c3565b73ffffffffffffffffffffffffffffffffffffffff1673c02aaa39b223fe8d0a0e5c4f27ead9083c756cc273ffffffffffffffffffffffffffffffffffffffff16145b1561036a5761036181838673ffffffffffffffffffffffffffffffffffffffff1663d21220a76040518163ffffffff1660e01b8152600401602060405180830381865afa1580156102c9573d6000803e3d6000fd5b505050506040513d601f19601f820116820180604052508101906102ed91906111c3565b8773ffffffffffffffffffffffffffffffffffffffff16630dfe16816040518163ffffffff1660e01b8152600401602060405180830381865afa158015610338573d6000803e3d6000fd5b505050506040513d601f19601f8201168201806040525081019061035c91906111c3565b610867565b92505050610457565b61045281838673ffffffffffffffffffffffffffffffffffffffff16630dfe16816040518163ffffffff1660e01b8152600401602060405180830381865afa1580156103ba573d6000803e3d6000fd5b505050506040513d601f19601f820116820180604052508101906103de91906111c3565b8773ffffffffffffffffffffffffffffffffffffffff1663d21220a76040518163ffffffff1660e01b8152600401602060405180830381865afa158015610429573d6000803e3d6000fd5b505050506040513d601f19601f8201168201806040525081019061044d91906111c3565b610867565b925050505b919050565b60008060007f000000000000000000000000000000000000000000000000000000000000000073ffffffffffffffffffffffffffffffffffffffff16631698ee8286736b175474e89094c44da98b954eedeac495271d0f876040518463ffffffff1660e01b81526004016104d2939291906111ff565b602060405180830381865afa1580156104ef573d6000803e3d6000fd5b505050506040513d601f19601f8201168201806040525081019061051391906111c3565b9050600073ffffffffffffffffffffffffffffffffffffffff168173ffffffffffffffffffffffffffffffffffffffff16141561060b577f000000000000000000000000000000000000000000000000000000000000000073ffffffffffffffffffffffffffffffffffffffff16631698ee828673c02aaa39b223fe8d0a0e5c4f27ead9083c756cc2876040518463ffffffff1660e01b81526004016105bb939291906111ff565b602060405180830381865afa1580156105d8573d6000803e3d6000fd5b505050506040513d601f19601f820116820180604052508101906105fc91906111c3565b90508060019250925050610614565b80600092509250505b9250929050565b60b481565b7f000000000000000000000000000000000000000000000000000000000000000081565b6000808263ffffffff16141561068f576040517f08c379a000000000000000000000000000000000000000000000000000000000815260040161068690611293565b60405180910390fd5b6000600267ffffffffffffffff8111156106ac576106ab6112b3565b5b6040519080825280602002602001820160405280156106da5781602001602082028036833780820191505090505b50905082816000815181106106f2576106f16112e2565b5b602002602001019063ffffffff16908163ffffffff1681525050600081600181518110610722576107216112e2565b5b602002602001019063ffffffff16908163ffffffff168152505060008473ffffffffffffffffffffffffffffffffffffffff1663883bdbfd836040518263ffffffff1660e01b815260040161077791906113cf565b600060405180830381865afa158015610794573d6000803e3d6000fd5b505050506040513d6000823e3d601f19601f820116820180604052508101906107bd9190611643565b5090506000816000815181106107d6576107d56112e2565b5b6020026020010151826001815181106107f2576107f16112e2565b5b60200260200101510390508463ffffffff1660060b8160060b81610819576108186116bb565b5b05935060008160060b12801561084f575060008563ffffffff1660060b8260060b81610848576108476116bb565b5b0760060b14155b1561085e578380600190039450505b50505092915050565b60008061087386610a6a565b90506fffffffffffffffffffffffffffffffff80168173ffffffffffffffffffffffffffffffffffffffff16116109845760008173ffffffffffffffffffffffffffffffffffffffff168273ffffffffffffffffffffffffffffffffffffffff160290508373ffffffffffffffffffffffffffffffffffffffff168573ffffffffffffffffffffffffffffffffffffffff1610610945576109407801000000000000000000000000000000000000000000000000876fffffffffffffffffffffffffffffffff1683610e7d565b61097c565b61097b81876fffffffffffffffffffffffffffffffff167801000000000000000000000000000000000000000000000000610e7d565b5b925050610a61565b60006109c68273ffffffffffffffffffffffffffffffffffffffff168373ffffffffffffffffffffffffffffffffffffffff1668010000000000000000610e7d565b90508373ffffffffffffffffffffffffffffffffffffffff168573ffffffffffffffffffffffffffffffffffffffff1610610a2e57610a29700100000000000000000000000000000000876fffffffffffffffffffffffffffffffff1683610e7d565b610a5d565b610a5c81876fffffffffffffffffffffffffffffffff16700100000000000000000000000000000000610e7d565b5b9250505b50949350505050565b60008060008360020b12610a81578260020b610a89565b8260020b6000035b90507ffffffffffffffffffffffffffffffffffffffffffffffffffffffffffff27618600003811115610af1576040517f08c379a0000000000000000000000000000000000000000000000000000000008152600401610ae890611736565b60405180910390fd5b600080600183161415610b1557700100000000000000000000000000000000610b27565b6ffffcb933bd6fad37aa2d162d1a5940015b70ffffffffffffffffffffffffffffffffff16905060006002831614610b615760806ffff97272373d413259a46990580e213a8202901c90505b60006004831614610b865760806ffff2e50f5f656932ef12357cf3c7fdcc8202901c90505b60006008831614610bab5760806fffe5caca7e10e4e61c3624eaa0941cd08202901c90505b60006010831614610bd05760806fffcb9843d60f6159c9db58835c9266448202901c90505b60006020831614610bf55760806fff973b41fa98c081472e6896dfb254c08202901c90505b60006040831614610c1a5760806fff2ea16466c96a3843ec78b326b528618202901c90505b60006080831614610c3f5760806ffe5dee046a99a2a811c461f1969c30538202901c90505b6000610100831614610c655760806ffcbe86c7900a88aedcffc83b479aa3a48202901c90505b6000610200831614610c8b5760806ff987a7253ac413176f2b074cf7815e548202901c90505b6000610400831614610cb15760806ff3392b0822b70005940c7a398e4b70f38202901c90505b6000610800831614610cd75760806fe7159475a2c29b7443b29c7fa6e889d98202901c90505b6000611000831614610cfd5760806fd097f3bdfd2022b8845ad8f792aa58258202901c90505b6000612000831614610d235760806fa9f746462d870fdf8a65dc1f90e061e58202901c90505b6000614000831614610d495760806f70d869a156d2a1b890bb3df62baf32f78202901c90505b6000618000831614610d6f5760806f31be135f97d08fd981231505542fcfa68202901c90505b600062010000831614610d965760806f09aa508b5b7a84e1c677de54f3e99bc98202901c90505b600062020000831614610dbc5760806e5d6af8dedb81196699c329225ee6048202901c90505b600062040000831614610de15760806d2216e584f5fa1ea926041bedfe988202901c90505b600062080000831614610e045760806b048a170391f7dc42444e8fa28202901c90505b60008460020b1315610e4457807fffffffffffffffffffffffffffffffffffffffffffffffffffffffffffffffff81610e4057610e3f6116bb565b5b0490505b60006401000000008281610e5b57610e5a6116bb565b5b0614610e68576001610e6b565b60005b60ff16602082901c0192505050919050565b600080600080198587098587029250828110838203039150506000811415610eb85760008411610eac57600080fd5b83820492505050610f51565b808411610ec457600080fd5b60008486880990508281118203915080830392506000856001871901169050808604955080840493506001818260000304019050808302841793506000600287600302189050808702600203810290508087026002038102905080870260020381029050808702600203810290508087026002038102905080870260020381029050808502955050505050505b9392505050565b6000604051905090565b600080fd5b600080fd5b600073ffffffffffffffffffffffffffffffffffffffff82169050919050565b6000610f9782610f6c565b9050919050565b610fa781610f8c565b8114610fb257600080fd5b50565b600081359050610fc481610f9e565b92915050565b600060208284031215610fe057610fdf610f62565b5b6000610fee84828501610fb5565b91505092915050565b6000819050919050565b61100a81610ff7565b82525050565b60006020820190506110256000830184611001565b92915050565b600062ffffff82169050919050565b6110438161102b565b811461104e57600080fd5b50565b6000813590506110608161103a565b92915050565b6000806040838503121561107d5761107c610f62565b5b600061108b85828601610fb5565b925050602061109c85828601611051565b9150509250929050565b6110af81610f8c565b82525050565b600060ff82169050919050565b6110cb816110b5565b82525050565b60006040820190506110e660008301856110a6565b6110f360208301846110c2565b9392505050565b600063ffffffff82169050919050565b611113816110fa565b82525050565b600060208201905061112e600083018461110a565b92915050565b6000819050919050565b600061115961115461114f84610f6c565b611134565b610f6c565b9050919050565b600061116b8261113e565b9050919050565b600061117d82611160565b9050919050565b61118d81611172565b82525050565b60006020820190506111a86000830184611184565b92915050565b6000815190506111bd81610f9e565b92915050565b6000602082840312156111d9576111d8610f62565b5b60006111e7848285016111ae565b91505092915050565b6111f98161102b565b82525050565b600060608201905061121460008301866110a6565b61122160208301856110a6565b61122e60408301846111f0565b949350505050565b600082825260208201905092915050565b7f4250000000000000000000000000000000000000000000000000000000000000600082015250565b600061127d600283611236565b915061128882611247565b602082019050919050565b600060208201905081810360008301526112ac81611270565b9050919050565b7f4e487b7100000000000000000000000000000000000000000000000000000000600052604160045260246000fd5b7f4e487b7100000000000000000000000000000000000000000000000000000000600052603260045260246000fd5b600081519050919050565b600082825260208201905092915050565b6000819050602082019050919050565b611346816110fa565b82525050565b6000611358838361133d565b60208301905092915050565b6000602082019050919050565b600061137c82611311565b611386818561131c565b93506113918361132d565b8060005b838110156113c25781516113a9888261134c565b97506113b483611364565b925050600181019050611395565b5085935050505092915050565b600060208201905081810360008301526113e98184611371565b905092915050565b600080fd5b6000601f19601f8301169050919050565b611410826113f6565b810181811067ffffffffffffffff8211171561142f5761142e6112b3565b5b80604052505050565b6000611442610f58565b905061144e8282611407565b919050565b600067ffffffffffffffff82111561146e5761146d6112b3565b5b602082029050602081019050919050565b600080fd5b60008160060b9050919050565b61149a81611484565b81146114a557600080fd5b50565b6000815190506114b781611491565b92915050565b60006114d06114cb84611453565b611438565b905080838252602082019050602084028301858111156114f3576114f261147f565b5b835b8181101561151c578061150888826114a8565b8452602084019350506020810190506114f5565b5050509392505050565b600082601f83011261153b5761153a6113f1565b5b815161154b8482602086016114bd565b91505092915050565b600067ffffffffffffffff82111561156f5761156e6112b3565b5b602082029050602081019050919050565b61158981610f6c565b811461159457600080fd5b50565b6000815190506115a681611580565b92915050565b60006115bf6115ba84611554565b611438565b905080838252602082019050602084028301858111156115e2576115e161147f565b5b835b8181101561160b57806115f78882611597565b8452602084019350506020810190506115e4565b5050509392505050565b600082601f83011261162a576116296113f1565b5b815161163a8482602086016115ac565b91505092915050565b6000806040838503121561165a57611659610f62565b5b600083015167ffffffffffffffff81111561167857611677610f67565b5b61168485828601611526565b925050602083015167ffffffffffffffff8111156116a5576116a4610f67565b5b6116b185828601611615565b9150509250929050565b7f4e487b7100000000000000000000000000000000000000000000000000000000600052601260045260246000fd5b7f5400000000000000000000000000000000000000000000000000000000000000600082015250565b6000611720600183611236565b915061172b826116ea565b602082019050919050565b6000602082019050818103600083015261174f81611713565b905091905056fea2646970667358221220cf074f6ae2e0b18c6059d15cf845b9c8dd7c61d365662c0ac070e3a8dd7148d364736f6c634300080b0033",
  "immutableReferences": {
    "4572": [
      {
        "length": 32,
        "start": 1123
      },
      {
        "length": 32,
        "start": 1356
      },
      {
        "length": 32,
        "start": 1570
      }
    ]
  },
  "source": "// SPDX-License-Identifier: MIT\npragma solidity ^0.8.0; //solhint-disable compiler-fixed\n\nimport \"@uniswap/v3-core/contracts/interfaces/IUniswapV3Pool.sol\";\nimport \"@uniswap/v3-core/contracts/interfaces/IUniswapV3Factory.sol\";\nimport \"../uniswapv08/v3-periphery/OracleLibrary.sol\";\nimport \"../uniswapv08/v3-periphery/PoolAddress.sol\";\nimport \"@openzeppelin/contracts/token/ERC20/ERC20.sol\";\nimport \"./IOracle.sol\";\n\n\ncontract TWAPOracle is IOracle {\n\n    uint32 public constant TWAP_PERIOD = 3 minutes;\n    address private constant DAI_ADDRESS = 0x6B175474E89094C44Da98b954EedeAC495271d0F;\n    address private constant WETH_ADDRESS = 0xC02aaA39b223FE8D0A0e5C4F27eAD9083C756Cc2;\n    IUniswapV3Factory public immutable uniswapFactory;\n    uint private constant WAD = 1e18;\n\n    /**\n     * @notice Example pools to pass in:\n     * USDC/ETH (0.05%): 0x88e6a0c2ddd26feeb64f039a2c41296fcb3f5640, 1, -12\n     * ETH/USDT (0.05%): 0x11b815efb8f581194ae79006d24e0d814b7697f6, 0, -12\n  */\n    constructor(IUniswapV3Factory factory) { //solhint-disable func-visibility\n        uniswapFactory = factory;\n    }\n\n    function getPoolForTWAP(address tokenA, uint24 fee) external override view returns (address, uint8) {\n        address pool = uniswapFactory.getPool(tokenA, DAI_ADDRESS, fee);\n        //if there isn't a dai pool, we check for a weth pool\n        if (pool == address(0)) {\n            pool = uniswapFactory.getPool(tokenA, WETH_ADDRESS, fee);\n            return (pool, 1);\n        } //else, if there is a dai pool we just return that\n        return (pool, 0);\n    }\n\n    function latestPrice(address pool)\n        public virtual override view returns (uint price) {\n            //keeping this here for now in case a special case token appears with less than 18 decimals\n            //will deal with that later bro fuck it\n            uint128 uniswapScaleFactor = uint128(WAD);\n\n            int24 twapTick = OracleLibrary.consult(pool, TWAP_PERIOD);\n\n            //if the pool has dai or weth as token0 ie. DAI/USDC or WETH/USDC\n            if (DAI_ADDRESS == IUniswapV3Pool(pool).token0() ||\n                WETH_ADDRESS == IUniswapV3Pool(pool).token0()) {\n                return price = OracleLibrary.getQuoteAtTick(\n                    twapTick,\n                    uniswapScaleFactor,\n                    IUniswapV3Pool(pool).token1(),\n                    IUniswapV3Pool(pool).token0()\n                );\n            }\n            //else we treturn dai or weth as token1 ie FTT/WETH or RAI/DAI\n            return price = OracleLibrary.getQuoteAtTick(\n                twapTick,\n                uniswapScaleFactor,\n                IUniswapV3Pool(pool).token0(),\n                IUniswapV3Pool(pool).token1()\n            );\n        }\n}\n",
  "sourcePath": "/home/kevin/Code/solidity_projects/beraMarket/contracts/ancillary/TWAPoracle.sol",
  "compiler": {
    "name": "solc",
    "version": "0.8.11+commit.d7f03943.Emscripten.clang"
  },
  "schemaVersion": "3.4.3",
  "updatedAt": "2022-01-10T00:53:23.365Z",
  "networkType": "ethereum",
  "devdoc": {
    "kind": "dev",
    "methods": {},
    "version": 1
  },
  "userdoc": {
    "kind": "user",
    "methods": {
      "constructor": {
        "notice": "Example pools to pass in: USDC/ETH (0.05%): 0x88e6a0c2ddd26feeb64f039a2c41296fcb3f5640, 1, -12 ETH/USDT (0.05%): 0x11b815efb8f581194ae79006d24e0d814b7697f6, 0, -12"
      }
    },
    "version": 1
  }
}