{
  "contractName": "TWAPOracle",
  "abi": [
    {
      "inputs": [
        {
          "internalType": "contract IUniswapV3Factory",
          "name": "factory",
          "type": "address"
        }
      ],
      "stateMutability": "nonpayable",
      "type": "constructor"
    },
    {
      "inputs": [],
      "name": "TWAP_PERIOD",
      "outputs": [
        {
          "internalType": "uint32",
          "name": "",
          "type": "uint32"
        }
      ],
      "stateMutability": "view",
      "type": "function"
    },
    {
      "inputs": [],
      "name": "uniswapFactory",
      "outputs": [
        {
          "internalType": "contract IUniswapV3Factory",
          "name": "",
          "type": "address"
        }
      ],
      "stateMutability": "view",
      "type": "function"
    },
    {
      "inputs": [
        {
          "internalType": "address",
          "name": "tokenA",
          "type": "address"
        },
        {
          "internalType": "uint24",
          "name": "fee",
          "type": "uint24"
        }
      ],
      "name": "getPoolForTWAP",
      "outputs": [
        {
          "internalType": "address",
          "name": "",
          "type": "address"
        },
        {
          "internalType": "uint8",
          "name": "",
          "type": "uint8"
        }
      ],
      "stateMutability": "view",
      "type": "function"
    },
    {
      "inputs": [
        {
          "internalType": "address",
          "name": "pool",
          "type": "address"
        },
        {
          "internalType": "address",
          "name": "token0",
          "type": "address"
        },
        {
          "internalType": "uint256",
          "name": "tokenToPrice",
          "type": "uint256"
        }
      ],
      "name": "latestPrice",
      "outputs": [
        {
          "internalType": "uint256",
          "name": "price",
          "type": "uint256"
        }
      ],
      "stateMutability": "view",
      "type": "function"
    }
  ],
  "bytecode": "0x60a06040523480156200001157600080fd5b5060405162001c3238038062001c328339818101604052810190620000379190620000f0565b8073ffffffffffffffffffffffffffffffffffffffff1660808173ffffffffffffffffffffffffffffffffffffffff16815250505062000122565b600080fd5b600073ffffffffffffffffffffffffffffffffffffffff82169050919050565b6000620000a48262000077565b9050919050565b6000620000b88262000097565b9050919050565b620000ca81620000ab565b8114620000d657600080fd5b50565b600081519050620000ea81620000bf565b92915050565b60006020828403121562000109576200010862000072565b5b60006200011984828501620000d9565b91505092915050565b608051611ae76200014b6000396000818160f5015281816101de01526102b40152611ae76000f3fe608060405234801561001057600080fd5b506004361061004c5760003560e01c806358de3500146100515780637ca25184146100825780638bdb2afa146100a0578063fa0abbaa146100be575b600080fd5b61006b60048036038101906100669190610fbe565b6100ee565b604051610079929190611029565b60405180910390f35b61008a6102ad565b6040516100979190611071565b60405180910390f35b6100a86102b2565b6040516100b591906110eb565b60405180910390f35b6100d860048036038101906100d3919061113c565b6102d6565b6040516100e5919061119e565b60405180910390f35b60008060007f000000000000000000000000000000000000000000000000000000000000000073ffffffffffffffffffffffffffffffffffffffff16631698ee8286736b175474e89094c44da98b954eedeac495271d0f876040518463ffffffff1660e01b8152600401610164939291906111c8565b602060405180830381865afa158015610181573d6000803e3d6000fd5b505050506040513d601f19601f820116820180604052508101906101a59190611214565b9050600073ffffffffffffffffffffffffffffffffffffffff168173ffffffffffffffffffffffffffffffffffffffff16141561029d577f000000000000000000000000000000000000000000000000000000000000000073ffffffffffffffffffffffffffffffffffffffff16631698ee828673c02aaa39b223fe8d0a0e5c4f27ead9083c756cc2876040518463ffffffff1660e01b815260040161024d939291906111c8565b602060405180830381865afa15801561026a573d6000803e3d6000fd5b505050506040513d601f19601f8201168201806040525081019061028e9190611214565b905080600192509250506102a6565b80600092509250505b9250929050565b60b481565b7f000000000000000000000000000000000000000000000000000000000000000081565b6000808214806102e65750600182145b610325576040517f08c379a000000000000000000000000000000000000000000000000000000000815260040161031c9061129e565b60405180910390fd5b60008373ffffffffffffffffffffffffffffffffffffffff1663313ce5676040518163ffffffff1660e01b8152600401602060405180830381865afa158015610372573d6000803e3d6000fd5b505050506040513d601f19601f8201168201806040525081019061039691906112ea565b60000b905060008114156103a957601290505b6000808212156103e157816103bd90611350565b600a6103c991906114cc565b670de0b6b3a76400006103dc9190611517565b610402565b81600a6103ee91906114cc565b670de0b6b3a764000061040191906115a0565b5b905060006104118760b46105fd565b9050600185146105085761050381838973ffffffffffffffffffffffffffffffffffffffff16630dfe16816040518163ffffffff1660e01b8152600401602060405180830381865afa15801561046b573d6000803e3d6000fd5b505050506040513d601f19601f8201168201806040525081019061048f9190611214565b8a73ffffffffffffffffffffffffffffffffffffffff1663d21220a76040518163ffffffff1660e01b8152600401602060405180830381865afa1580156104da573d6000803e3d6000fd5b505050506040513d601f19601f820116820180604052508101906104fe9190611214565b610820565b6105f1565b6105f081838973ffffffffffffffffffffffffffffffffffffffff1663d21220a76040518163ffffffff1660e01b8152600401602060405180830381865afa158015610558573d6000803e3d6000fd5b505050506040513d601f19601f8201168201806040525081019061057c9190611214565b8a73ffffffffffffffffffffffffffffffffffffffff16630dfe16816040518163ffffffff1660e01b8152600401602060405180830381865afa1580156105c7573d6000803e3d6000fd5b505050506040513d601f19601f820116820180604052508101906105eb9190611214565b610820565b5b93505050509392505050565b6000808263ffffffff161415610648576040517f08c379a000000000000000000000000000000000000000000000000000000000815260040161063f9061161d565b60405180910390fd5b6000600267ffffffffffffffff8111156106655761066461163d565b5b6040519080825280602002602001820160405280156106935781602001602082028036833780820191505090505b50905082816000815181106106ab576106aa61166c565b5b602002602001019063ffffffff16908163ffffffff16815250506000816001815181106106db576106da61166c565b5b602002602001019063ffffffff16908163ffffffff168152505060008473ffffffffffffffffffffffffffffffffffffffff1663883bdbfd836040518263ffffffff1660e01b81526004016107309190611759565b600060405180830381865afa15801561074d573d6000803e3d6000fd5b505050506040513d6000823e3d601f19601f8201168201806040525081019061077691906119cd565b50905060008160008151811061078f5761078e61166c565b5b6020026020010151826001815181106107ab576107aa61166c565b5b60200260200101510390508463ffffffff1660060b8160060b816107d2576107d1611571565b5b05935060008160060b128015610808575060008563ffffffff1660060b8260060b8161080157610800611571565b5b0760060b14155b15610817578380600190039450505b50505092915050565b60008061082c86610a23565b90506fffffffffffffffffffffffffffffffff80168173ffffffffffffffffffffffffffffffffffffffff161161093d5760008173ffffffffffffffffffffffffffffffffffffffff168273ffffffffffffffffffffffffffffffffffffffff160290508373ffffffffffffffffffffffffffffffffffffffff168573ffffffffffffffffffffffffffffffffffffffff16106108fe576108f97801000000000000000000000000000000000000000000000000876fffffffffffffffffffffffffffffffff1683610e36565b610935565b61093481876fffffffffffffffffffffffffffffffff167801000000000000000000000000000000000000000000000000610e36565b5b925050610a1a565b600061097f8273ffffffffffffffffffffffffffffffffffffffff168373ffffffffffffffffffffffffffffffffffffffff1668010000000000000000610e36565b90508373ffffffffffffffffffffffffffffffffffffffff168573ffffffffffffffffffffffffffffffffffffffff16106109e7576109e2700100000000000000000000000000000000876fffffffffffffffffffffffffffffffff1683610e36565b610a16565b610a1581876fffffffffffffffffffffffffffffffff16700100000000000000000000000000000000610e36565b5b9250505b50949350505050565b60008060008360020b12610a3a578260020b610a42565b8260020b6000035b90507ffffffffffffffffffffffffffffffffffffffffffffffffffffffffffff27618600003811115610aaa576040517f08c379a0000000000000000000000000000000000000000000000000000000008152600401610aa190611a91565b60405180910390fd5b600080600183161415610ace57700100000000000000000000000000000000610ae0565b6ffffcb933bd6fad37aa2d162d1a5940015b70ffffffffffffffffffffffffffffffffff16905060006002831614610b1a5760806ffff97272373d413259a46990580e213a8202901c90505b60006004831614610b3f5760806ffff2e50f5f656932ef12357cf3c7fdcc8202901c90505b60006008831614610b645760806fffe5caca7e10e4e61c3624eaa0941cd08202901c90505b60006010831614610b895760806fffcb9843d60f6159c9db58835c9266448202901c90505b60006020831614610bae5760806fff973b41fa98c081472e6896dfb254c08202901c90505b60006040831614610bd35760806fff2ea16466c96a3843ec78b326b528618202901c90505b60006080831614610bf85760806ffe5dee046a99a2a811c461f1969c30538202901c90505b6000610100831614610c1e5760806ffcbe86c7900a88aedcffc83b479aa3a48202901c90505b6000610200831614610c445760806ff987a7253ac413176f2b074cf7815e548202901c90505b6000610400831614610c6a5760806ff3392b0822b70005940c7a398e4b70f38202901c90505b6000610800831614610c905760806fe7159475a2c29b7443b29c7fa6e889d98202901c90505b6000611000831614610cb65760806fd097f3bdfd2022b8845ad8f792aa58258202901c90505b6000612000831614610cdc5760806fa9f746462d870fdf8a65dc1f90e061e58202901c90505b6000614000831614610d025760806f70d869a156d2a1b890bb3df62baf32f78202901c90505b6000618000831614610d285760806f31be135f97d08fd981231505542fcfa68202901c90505b600062010000831614610d4f5760806f09aa508b5b7a84e1c677de54f3e99bc98202901c90505b600062020000831614610d755760806e5d6af8dedb81196699c329225ee6048202901c90505b600062040000831614610d9a5760806d2216e584f5fa1ea926041bedfe988202901c90505b600062080000831614610dbd5760806b048a170391f7dc42444e8fa28202901c90505b60008460020b1315610dfd57807fffffffffffffffffffffffffffffffffffffffffffffffffffffffffffffffff81610df957610df8611571565b5b0490505b60006401000000008281610e1457610e13611571565b5b0614610e21576001610e24565b60005b60ff16602082901c0192505050919050565b600080600080198587098587029250828110838203039150506000811415610e715760008411610e6557600080fd5b83820492505050610f0a565b808411610e7d57600080fd5b60008486880990508281118203915080830392506000856001871901169050808604955080840493506001818260000304019050808302841793506000600287600302189050808702600203810290508087026002038102905080870260020381029050808702600203810290508087026002038102905080870260020381029050808502955050505050505b9392505050565b6000604051905090565b600080fd5b600080fd5b600073ffffffffffffffffffffffffffffffffffffffff82169050919050565b6000610f5082610f25565b9050919050565b610f6081610f45565b8114610f6b57600080fd5b50565b600081359050610f7d81610f57565b92915050565b600062ffffff82169050919050565b610f9b81610f83565b8114610fa657600080fd5b50565b600081359050610fb881610f92565b92915050565b60008060408385031215610fd557610fd4610f1b565b5b6000610fe385828601610f6e565b9250506020610ff485828601610fa9565b9150509250929050565b61100781610f45565b82525050565b600060ff82169050919050565b6110238161100d565b82525050565b600060408201905061103e6000830185610ffe565b61104b602083018461101a565b9392505050565b600063ffffffff82169050919050565b61106b81611052565b82525050565b60006020820190506110866000830184611062565b92915050565b6000819050919050565b60006110b16110ac6110a784610f25565b61108c565b610f25565b9050919050565b60006110c382611096565b9050919050565b60006110d5826110b8565b9050919050565b6110e5816110ca565b82525050565b600060208201905061110060008301846110dc565b92915050565b6000819050919050565b61111981611106565b811461112457600080fd5b50565b60008135905061113681611110565b92915050565b60008060006060848603121561115557611154610f1b565b5b600061116386828701610f6e565b935050602061117486828701610f6e565b925050604061118586828701611127565b9150509250925092565b61119881611106565b82525050565b60006020820190506111b3600083018461118f565b92915050565b6111c281610f83565b82525050565b60006060820190506111dd6000830186610ffe565b6111ea6020830185610ffe565b6111f760408301846111b9565b949350505050565b60008151905061120e81610f57565b92915050565b60006020828403121561122a57611229610f1b565b5b6000611238848285016111ff565b91505092915050565b600082825260208201905092915050565b7f746f6b656e546f5072696365206e6f742030206f722031000000000000000000600082015250565b6000611288601783611241565b915061129382611252565b602082019050919050565b600060208201905081810360008301526112b78161127b565b9050919050565b6112c78161100d565b81146112d257600080fd5b50565b6000815190506112e4816112be565b92915050565b600060208284031215611300576112ff610f1b565b5b600061130e848285016112d5565b91505092915050565b6000819050919050565b7f4e487b7100000000000000000000000000000000000000000000000000000000600052601160045260246000fd5b600061135b82611317565b91507f800000000000000000000000000000000000000000000000000000000000000082141561138e5761138d611321565b5b816000039050919050565b60008160011c9050919050565b6000808291508390505b60018511156113f0578086048111156113cc576113cb611321565b5b60018516156113db5780820291505b80810290506113e985611399565b94506113b0565b94509492505050565b60008261140957600190506114c5565b8161141757600090506114c5565b816001811461142d576002811461143757611466565b60019150506114c5565b60ff84111561144957611448611321565b5b8360020a9150848211156114605761145f611321565b5b506114c5565b5060208310610133831016604e8410600b841016171561149b5782820a90508381111561149657611495611321565b5b6114c5565b6114a884848460016113a6565b925090508184048111156114bf576114be611321565b5b81810290505b9392505050565b60006114d782611106565b91506114e283611106565b925061150f7fffffffffffffffffffffffffffffffffffffffffffffffffffffffffffffffff84846113f9565b905092915050565b600061152282611106565b915061152d83611106565b9250817fffffffffffffffffffffffffffffffffffffffffffffffffffffffffffffffff048311821515161561156657611565611321565b5b828202905092915050565b7f4e487b7100000000000000000000000000000000000000000000000000000000600052601260045260246000fd5b60006115ab82611106565b91506115b683611106565b9250826115c6576115c5611571565b5b828204905092915050565b7f4250000000000000000000000000000000000000000000000000000000000000600082015250565b6000611607600283611241565b9150611612826115d1565b602082019050919050565b60006020820190508181036000830152611636816115fa565b9050919050565b7f4e487b7100000000000000000000000000000000000000000000000000000000600052604160045260246000fd5b7f4e487b7100000000000000000000000000000000000000000000000000000000600052603260045260246000fd5b600081519050919050565b600082825260208201905092915050565b6000819050602082019050919050565b6116d081611052565b82525050565b60006116e283836116c7565b60208301905092915050565b6000602082019050919050565b60006117068261169b565b61171081856116a6565b935061171b836116b7565b8060005b8381101561174c57815161173388826116d6565b975061173e836116ee565b92505060018101905061171f565b5085935050505092915050565b6000602082019050818103600083015261177381846116fb565b905092915050565b600080fd5b6000601f19601f8301169050919050565b61179a82611780565b810181811067ffffffffffffffff821117156117b9576117b861163d565b5b80604052505050565b60006117cc610f11565b90506117d88282611791565b919050565b600067ffffffffffffffff8211156117f8576117f761163d565b5b602082029050602081019050919050565b600080fd5b60008160060b9050919050565b6118248161180e565b811461182f57600080fd5b50565b6000815190506118418161181b565b92915050565b600061185a611855846117dd565b6117c2565b9050808382526020820190506020840283018581111561187d5761187c611809565b5b835b818110156118a657806118928882611832565b84526020840193505060208101905061187f565b5050509392505050565b600082601f8301126118c5576118c461177b565b5b81516118d5848260208601611847565b91505092915050565b600067ffffffffffffffff8211156118f9576118f861163d565b5b602082029050602081019050919050565b61191381610f25565b811461191e57600080fd5b50565b6000815190506119308161190a565b92915050565b6000611949611944846118de565b6117c2565b9050808382526020820190506020840283018581111561196c5761196b611809565b5b835b8181101561199557806119818882611921565b84526020840193505060208101905061196e565b5050509392505050565b600082601f8301126119b4576119b361177b565b5b81516119c4848260208601611936565b91505092915050565b600080604083850312156119e4576119e3610f1b565b5b600083015167ffffffffffffffff811115611a0257611a01610f20565b5b611a0e858286016118b0565b925050602083015167ffffffffffffffff811115611a2f57611a2e610f20565b5b611a3b8582860161199f565b9150509250929050565b7f5400000000000000000000000000000000000000000000000000000000000000600082015250565b6000611a7b600183611241565b9150611a8682611a45565b602082019050919050565b60006020820190508181036000830152611aaa81611a6e565b905091905056fea2646970667358221220f7533161aafbbedf54456150fac436903b44ecc59028c43a340b3b4d23698f0c64736f6c634300080b0033",
  "immutableReferences": {
    "4630": [
      {
        "length": 32,
        "start": 245
      },
      {
        "length": 32,
        "start": 478
      },
      {
        "length": 32,
        "start": 692
      }
    ]
  },
  "source": "// SPDX-License-Identifier: MIT\npragma solidity ^0.8.0; //solhint-disable compiler-fixed\n\nimport \"@uniswap/v3-core/contracts/interfaces/IUniswapV3Pool.sol\";\nimport \"@uniswap/v3-core/contracts/interfaces/IUniswapV3Factory.sol\";\nimport \"../uniswapv08/v3-periphery/OracleLibrary.sol\";\nimport \"../uniswapv08/v3-periphery/PoolAddress.sol\";\nimport \"@openzeppelin/contracts/token/ERC20/ERC20.sol\";\nimport \"./IOracle.sol\";\n\n\n//TODO\n//reworking contract now, is kinda fucked in the current state did not finish\ncontract TWAPOracle is IOracle {\n\n    uint32 public constant TWAP_PERIOD = 3 minutes;\n    address private constant DAI_ADDRESS = 0x6B175474E89094C44Da98b954EedeAC495271d0F;\n    address private constant WETH_ADDRESS = 0xC02aaA39b223FE8D0A0e5C4F27eAD9083C756Cc2;\n    IUniswapV3Factory public immutable uniswapFactory;\n    uint private constant WAD = 1e18;\n\n    /**\n     * @notice Example pools to pass in:\n     * USDC/ETH (0.05%): 0x88e6a0c2ddd26feeb64f039a2c41296fcb3f5640, 1, -12\n     * ETH/USDT (0.05%): 0x11b815efb8f581194ae79006d24e0d814b7697f6, 0, -12\n  */\n    constructor(IUniswapV3Factory factory) { //solhint-disable func-visibility\n        uniswapFactory = factory;\n    }\n\n    function getPoolForTWAP(address tokenA, uint24 fee) external view returns (address, uint8) {\n        address pool = uniswapFactory.getPool(tokenA, DAI_ADDRESS, fee);\n        //if there isn't a dai pool, we check for a weth pool\n        if (pool == address(0)) {\n            pool = uniswapFactory.getPool(tokenA, WETH_ADDRESS, fee);\n            return (pool, 1);\n        } //else, if there is a dai pool we just return that\n        return (pool, 0);\n    }\n\n    // We want latestPrice() to return WAD-fixed-point (18-decimal-place) numbers.\n    // So, eg, if Uniswap's output numbers\n    // include 3 decimal places (ie, are already scaled by 10**3), we need to scale them by another 10**15:\n    /** decimalPlaces How many decimal places are already included in the numbers Uniswap returns.  So,\n    * `decimalPlaces = 3` means when Uniswap returns 12345,\n    it actually represents 12.345 (ie, the last three digits were the\n    * decimal part). `decimalPlaces = -3` means when Uniswap returns 12345, it actually represents 12,345,000.\n    * @param tokenToPrice Which token we're pricing (0 or 1) relative to the other.\n    Eg, for the USDC/ETH pool (token0 = USDC,\n    * token1 = ETH), we want the price of ETH in terms of USDC, not vice versa:\n    so we should pass in `tokenToPrice == 1'.\n    // ^^^^^^^^^^^^^ this is handled by the swapOracle, so use that for pricing data\n    */\n    function latestPrice(address pool, address token0, uint tokenToPrice)\n        public virtual override view returns (uint price) {\n            require(tokenToPrice == 0 || tokenToPrice == 1, \"tokenToPrice not 0 or 1\");\n\n            int decimalPlaces = int8(ERC20(token0).decimals());\n\n            if (decimalPlaces == 0) {\n                decimalPlaces = 18;\n            }\n\n            uint128 uniswapScaleFactor = uint128(decimalPlaces >= 0 ?\n                WAD / 10 ** uint(decimalPlaces) :\n                WAD * 10 ** uint(-decimalPlaces));\n\n            int24 twapTick = OracleLibrary.consult(pool, TWAP_PERIOD);\n                price = tokenToPrice == 1 ? //solhint-disable\n            OracleLibrary.getQuoteAtTick(twapTick, uniswapScaleFactor, IUniswapV3Pool(pool).token1(), IUniswapV3Pool(pool).token0()) :\n            OracleLibrary.getQuoteAtTick(twapTick, uniswapScaleFactor, IUniswapV3Pool(pool).token0(), IUniswapV3Pool(pool).token1());\n    }\n}\n",
  "sourcePath": "/home/kevin/Code/solidity_projects/beraMarket/contracts/ancillary/TWAPoracle.sol",
  "compiler": {
    "name": "solc",
    "version": "0.8.11+commit.d7f03943.Emscripten.clang"
  },
  "schemaVersion": "3.4.3",
  "updatedAt": "2022-01-01T21:16:09.238Z",
  "devdoc": {
    "kind": "dev",
    "methods": {
      "latestPrice(address,address,uint256)": {
        "params": {
          "tokenToPrice": "Which token we're pricing (0 or 1) relative to the other. Eg, for the USDC/ETH pool (token0 = USDC, token1 = ETH), we want the price of ETH in terms of USDC, not vice versa: so we should pass in `tokenToPrice == 1'. // ^^^^^^^^^^^^^ this is handled by the swapOracle, so use that for pricing data"
        }
      }
    },
    "version": 1
  },
  "userdoc": {
    "kind": "user",
    "methods": {
      "constructor": {
        "notice": "Example pools to pass in: USDC/ETH (0.05%): 0x88e6a0c2ddd26feeb64f039a2c41296fcb3f5640, 1, -12 ETH/USDT (0.05%): 0x11b815efb8f581194ae79006d24e0d814b7697f6, 0, -12"
      },
      "latestPrice(address,address,uint256)": {
        "notice": "decimalPlaces How many decimal places are already included in the numbers Uniswap returns.  So, `decimalPlaces = 3` means when Uniswap returns 12345, it actually represents 12.345 (ie, the last three digits were the decimal part). `decimalPlaces = -3` means when Uniswap returns 12345, it actually represents 12,345,000."
      }
    },
    "version": 1
  }
}