{
  "contractName": "TWAPOracle",
  "abi": [
    {
      "inputs": [
        {
          "internalType": "contract IUniswapV3Factory",
          "name": "factory",
          "type": "address"
        }
      ],
      "stateMutability": "nonpayable",
      "type": "constructor"
    },
    {
      "inputs": [],
      "name": "TWAP_PERIOD",
      "outputs": [
        {
          "internalType": "uint32",
          "name": "",
          "type": "uint32"
        }
      ],
      "stateMutability": "view",
      "type": "function"
    },
    {
      "inputs": [],
      "name": "uniswapFactory",
      "outputs": [
        {
          "internalType": "contract IUniswapV3Factory",
          "name": "",
          "type": "address"
        }
      ],
      "stateMutability": "view",
      "type": "function"
    },
    {
      "inputs": [
        {
          "internalType": "address",
          "name": "tokenA",
          "type": "address"
        },
        {
          "internalType": "uint24",
          "name": "fee",
          "type": "uint24"
        }
      ],
      "name": "getPoolForTWAP",
      "outputs": [
        {
          "internalType": "address",
          "name": "",
          "type": "address"
        }
      ],
      "stateMutability": "view",
      "type": "function"
    },
    {
      "inputs": [
        {
          "internalType": "contract IUniswapV3Pool",
          "name": "pool",
          "type": "address"
        },
        {
          "internalType": "uint128",
          "name": "amountInToken",
          "type": "uint128"
        }
      ],
      "name": "latestPrice",
      "outputs": [
        {
          "internalType": "uint256",
          "name": "price",
          "type": "uint256"
        }
      ],
      "stateMutability": "view",
      "type": "function"
    }
  ],
  "bytecode": "0x60a06040523480156200001157600080fd5b506040516200160f3803806200160f8339818101604052810190620000379190620000f0565b8073ffffffffffffffffffffffffffffffffffffffff1660808173ffffffffffffffffffffffffffffffffffffffff16815250505062000122565b600080fd5b600073ffffffffffffffffffffffffffffffffffffffff82169050919050565b6000620000a48262000077565b9050919050565b6000620000b88262000097565b9050919050565b620000ca81620000ab565b8114620000d657600080fd5b50565b600081519050620000ea81620000bf565b92915050565b60006020828403121562000109576200010862000072565b5b60006200011984828501620000d9565b91505092915050565b6080516114ca620001456000396000818161023201526102f101526114ca6000f3fe608060405234801561001057600080fd5b506004361061004c5760003560e01c80633d3c18a41461005157806358de3500146100815780637ca25184146100b15780638bdb2afa146100cf575b600080fd5b61006b60048036038101906100669190610cf3565b6100ed565b6040516100789190610d4c565b60405180910390f35b61009b60048036038101906100969190610dce565b61022e565b6040516100a89190610e1d565b60405180910390f35b6100b96102ea565b6040516100c69190610e57565b60405180910390f35b6100d76102ef565b6040516100e49190610ed1565b60405180910390f35b6000806100fb8460b4610313565b9050610225818460008054906101000a900473ffffffffffffffffffffffffffffffffffffffff1673ffffffffffffffffffffffffffffffffffffffff1663d21220a76040518163ffffffff1660e01b8152600401602060405180830381865afa15801561016d573d6000803e3d6000fd5b505050506040513d601f19601f820116820180604052508101906101919190610f01565b60008054906101000a900473ffffffffffffffffffffffffffffffffffffffff1673ffffffffffffffffffffffffffffffffffffffff16630dfe16816040518163ffffffff1660e01b8152600401602060405180830381865afa1580156101fc573d6000803e3d6000fd5b505050506040513d601f19601f820116820180604052508101906102209190610f01565b610536565b91505092915050565b60007f000000000000000000000000000000000000000000000000000000000000000073ffffffffffffffffffffffffffffffffffffffff16631698ee8284736b175474e89094c44da98b954eedeac495271d0f856040518463ffffffff1660e01b81526004016102a193929190610f3d565b602060405180830381865afa1580156102be573d6000803e3d6000fd5b505050506040513d601f19601f820116820180604052508101906102e29190610f01565b905092915050565b60b481565b7f000000000000000000000000000000000000000000000000000000000000000081565b6000808263ffffffff16141561035e576040517f08c379a000000000000000000000000000000000000000000000000000000000815260040161035590610fd1565b60405180910390fd5b6000600267ffffffffffffffff81111561037b5761037a610ff1565b5b6040519080825280602002602001820160405280156103a95781602001602082028036833780820191505090505b50905082816000815181106103c1576103c0611020565b5b602002602001019063ffffffff16908163ffffffff16815250506000816001815181106103f1576103f0611020565b5b602002602001019063ffffffff16908163ffffffff168152505060008473ffffffffffffffffffffffffffffffffffffffff1663883bdbfd836040518263ffffffff1660e01b8152600401610446919061110d565b600060405180830381865afa158015610463573d6000803e3d6000fd5b505050506040513d6000823e3d601f19601f8201168201806040525081019061048c9190611381565b5090506000816000815181106104a5576104a4611020565b5b6020026020010151826001815181106104c1576104c0611020565b5b60200260200101510390508463ffffffff1660060b8160060b816104e8576104e76113f9565b5b05935060008160060b12801561051e575060008563ffffffff1660060b8260060b81610517576105166113f9565b5b0760060b14155b1561052d578380600190039450505b50505092915050565b60008061054286610739565b90506fffffffffffffffffffffffffffffffff80168173ffffffffffffffffffffffffffffffffffffffff16116106535760008173ffffffffffffffffffffffffffffffffffffffff168273ffffffffffffffffffffffffffffffffffffffff160290508373ffffffffffffffffffffffffffffffffffffffff168573ffffffffffffffffffffffffffffffffffffffff16106106145761060f7801000000000000000000000000000000000000000000000000876fffffffffffffffffffffffffffffffff1683610b4c565b61064b565b61064a81876fffffffffffffffffffffffffffffffff167801000000000000000000000000000000000000000000000000610b4c565b5b925050610730565b60006106958273ffffffffffffffffffffffffffffffffffffffff168373ffffffffffffffffffffffffffffffffffffffff1668010000000000000000610b4c565b90508373ffffffffffffffffffffffffffffffffffffffff168573ffffffffffffffffffffffffffffffffffffffff16106106fd576106f8700100000000000000000000000000000000876fffffffffffffffffffffffffffffffff1683610b4c565b61072c565b61072b81876fffffffffffffffffffffffffffffffff16700100000000000000000000000000000000610b4c565b5b9250505b50949350505050565b60008060008360020b12610750578260020b610758565b8260020b6000035b90507ffffffffffffffffffffffffffffffffffffffffffffffffffffffffffff276186000038111156107c0576040517f08c379a00000000000000000000000000000000000000000000000000000000081526004016107b790611474565b60405180910390fd5b6000806001831614156107e4577001000000000000000000000000000000006107f6565b6ffffcb933bd6fad37aa2d162d1a5940015b70ffffffffffffffffffffffffffffffffff169050600060028316146108305760806ffff97272373d413259a46990580e213a8202901c90505b600060048316146108555760806ffff2e50f5f656932ef12357cf3c7fdcc8202901c90505b6000600883161461087a5760806fffe5caca7e10e4e61c3624eaa0941cd08202901c90505b6000601083161461089f5760806fffcb9843d60f6159c9db58835c9266448202901c90505b600060208316146108c45760806fff973b41fa98c081472e6896dfb254c08202901c90505b600060408316146108e95760806fff2ea16466c96a3843ec78b326b528618202901c90505b6000608083161461090e5760806ffe5dee046a99a2a811c461f1969c30538202901c90505b60006101008316146109345760806ffcbe86c7900a88aedcffc83b479aa3a48202901c90505b600061020083161461095a5760806ff987a7253ac413176f2b074cf7815e548202901c90505b60006104008316146109805760806ff3392b0822b70005940c7a398e4b70f38202901c90505b60006108008316146109a65760806fe7159475a2c29b7443b29c7fa6e889d98202901c90505b60006110008316146109cc5760806fd097f3bdfd2022b8845ad8f792aa58258202901c90505b60006120008316146109f25760806fa9f746462d870fdf8a65dc1f90e061e58202901c90505b6000614000831614610a185760806f70d869a156d2a1b890bb3df62baf32f78202901c90505b6000618000831614610a3e5760806f31be135f97d08fd981231505542fcfa68202901c90505b600062010000831614610a655760806f09aa508b5b7a84e1c677de54f3e99bc98202901c90505b600062020000831614610a8b5760806e5d6af8dedb81196699c329225ee6048202901c90505b600062040000831614610ab05760806d2216e584f5fa1ea926041bedfe988202901c90505b600062080000831614610ad35760806b048a170391f7dc42444e8fa28202901c90505b60008460020b1315610b1357807fffffffffffffffffffffffffffffffffffffffffffffffffffffffffffffffff81610b0f57610b0e6113f9565b5b0490505b60006401000000008281610b2a57610b296113f9565b5b0614610b37576001610b3a565b60005b60ff16602082901c0192505050919050565b600080600080198587098587029250828110838203039150506000811415610b875760008411610b7b57600080fd5b83820492505050610c20565b808411610b9357600080fd5b60008486880990508281118203915080830392506000856001871901169050808604955080840493506001818260000304019050808302841793506000600287600302189050808702600203810290508087026002038102905080870260020381029050808702600203810290508087026002038102905080870260020381029050808502955050505050505b9392505050565b6000604051905090565b600080fd5b600080fd5b600073ffffffffffffffffffffffffffffffffffffffff82169050919050565b6000610c6682610c3b565b9050919050565b6000610c7882610c5b565b9050919050565b610c8881610c6d565b8114610c9357600080fd5b50565b600081359050610ca581610c7f565b92915050565b60006fffffffffffffffffffffffffffffffff82169050919050565b610cd081610cab565b8114610cdb57600080fd5b50565b600081359050610ced81610cc7565b92915050565b60008060408385031215610d0a57610d09610c31565b5b6000610d1885828601610c96565b9250506020610d2985828601610cde565b9150509250929050565b6000819050919050565b610d4681610d33565b82525050565b6000602082019050610d616000830184610d3d565b92915050565b610d7081610c5b565b8114610d7b57600080fd5b50565b600081359050610d8d81610d67565b92915050565b600062ffffff82169050919050565b610dab81610d93565b8114610db657600080fd5b50565b600081359050610dc881610da2565b92915050565b60008060408385031215610de557610de4610c31565b5b6000610df385828601610d7e565b9250506020610e0485828601610db9565b9150509250929050565b610e1781610c5b565b82525050565b6000602082019050610e326000830184610e0e565b92915050565b600063ffffffff82169050919050565b610e5181610e38565b82525050565b6000602082019050610e6c6000830184610e48565b92915050565b6000819050919050565b6000610e97610e92610e8d84610c3b565b610e72565b610c3b565b9050919050565b6000610ea982610e7c565b9050919050565b6000610ebb82610e9e565b9050919050565b610ecb81610eb0565b82525050565b6000602082019050610ee66000830184610ec2565b92915050565b600081519050610efb81610d67565b92915050565b600060208284031215610f1757610f16610c31565b5b6000610f2584828501610eec565b91505092915050565b610f3781610d93565b82525050565b6000606082019050610f526000830186610e0e565b610f5f6020830185610e0e565b610f6c6040830184610f2e565b949350505050565b600082825260208201905092915050565b7f4250000000000000000000000000000000000000000000000000000000000000600082015250565b6000610fbb600283610f74565b9150610fc682610f85565b602082019050919050565b60006020820190508181036000830152610fea81610fae565b9050919050565b7f4e487b7100000000000000000000000000000000000000000000000000000000600052604160045260246000fd5b7f4e487b7100000000000000000000000000000000000000000000000000000000600052603260045260246000fd5b600081519050919050565b600082825260208201905092915050565b6000819050602082019050919050565b61108481610e38565b82525050565b6000611096838361107b565b60208301905092915050565b6000602082019050919050565b60006110ba8261104f565b6110c4818561105a565b93506110cf8361106b565b8060005b838110156111005781516110e7888261108a565b97506110f2836110a2565b9250506001810190506110d3565b5085935050505092915050565b6000602082019050818103600083015261112781846110af565b905092915050565b600080fd5b6000601f19601f8301169050919050565b61114e82611134565b810181811067ffffffffffffffff8211171561116d5761116c610ff1565b5b80604052505050565b6000611180610c27565b905061118c8282611145565b919050565b600067ffffffffffffffff8211156111ac576111ab610ff1565b5b602082029050602081019050919050565b600080fd5b60008160060b9050919050565b6111d8816111c2565b81146111e357600080fd5b50565b6000815190506111f5816111cf565b92915050565b600061120e61120984611191565b611176565b90508083825260208201905060208402830185811115611231576112306111bd565b5b835b8181101561125a578061124688826111e6565b845260208401935050602081019050611233565b5050509392505050565b600082601f8301126112795761127861112f565b5b81516112898482602086016111fb565b91505092915050565b600067ffffffffffffffff8211156112ad576112ac610ff1565b5b602082029050602081019050919050565b6112c781610c3b565b81146112d257600080fd5b50565b6000815190506112e4816112be565b92915050565b60006112fd6112f884611292565b611176565b905080838252602082019050602084028301858111156113205761131f6111bd565b5b835b81811015611349578061133588826112d5565b845260208401935050602081019050611322565b5050509392505050565b600082601f8301126113685761136761112f565b5b81516113788482602086016112ea565b91505092915050565b6000806040838503121561139857611397610c31565b5b600083015167ffffffffffffffff8111156113b6576113b5610c36565b5b6113c285828601611264565b925050602083015167ffffffffffffffff8111156113e3576113e2610c36565b5b6113ef85828601611353565b9150509250929050565b7f4e487b7100000000000000000000000000000000000000000000000000000000600052601260045260246000fd5b7f5400000000000000000000000000000000000000000000000000000000000000600082015250565b600061145e600183610f74565b915061146982611428565b602082019050919050565b6000602082019050818103600083015261148d81611451565b905091905056fea2646970667358221220625bd12056d1b034af6eb40281e4cbc94276d7f4f2dd590bf5b534fb9d06345a64736f6c634300080b0033",
  "immutableReferences": {
    "3995": [
      {
        "length": 32,
        "start": 562
      },
      {
        "length": 32,
        "start": 753
      }
    ]
  },
  "source": "// SPDX-License-Identifier: MIT\npragma solidity ^0.8.0; //solhint-disable compiler-fixed\n\nimport \"@uniswap/v3-core/contracts/interfaces/IUniswapV3Pool.sol\";\nimport \"@uniswap/v3-core/contracts/interfaces/IUniswapV3Factory.sol\";\nimport \"../uniswapv08/v3-periphery/OracleLibrary.sol\";\nimport \"../uniswapv08/v3-periphery/PoolAddress.sol\";\nimport \"./IOracle.sol\";\n\n\n//TODO\n//reworking contract now, is kinda fucked in the current state did not finish\ncontract TWAPOracle is IOracle {\n\n    uint32 public constant TWAP_PERIOD = 3 minutes;\n    address private constant DAI_ADDRESS = 0x6B175474E89094C44Da98b954EedeAC495271d0F;\n    IUniswapV3Factory public immutable uniswapFactory;\n    IUniswapV3Pool private uniswapv3Pool;\n\n    constructor(IUniswapV3Factory factory) {\n        uniswapFactory = factory;\n    }\n\n    //TODO: fix this\n    function getPoolForTWAP(address tokenA, uint24 fee) external view returns (address) {\n        return uniswapFactory.getPool(tokenA, DAI_ADDRESS, fee);\n    }\n\n    //fix return values, do I need to account for anything other than dai as a base?\n    // I don't think so...\n    function latestPrice(IUniswapV3Pool pool, uint128 amountInToken) //where amountInToken == shortAmount\n        external virtual override view returns (uint price) {\n            int24 twapTick = OracleLibrary.consult(address(pool), TWAP_PERIOD);\n            price =\n            OracleLibrary.getQuoteAtTick(\n                twapTick,\n                amountInToken,\n                uniswapv3Pool.token1(),\n                uniswapv3Pool.token0()\n            );\n\n        }\n}\n",
  "sourcePath": "/home/kevin/Code/solidity_projects/beraMarket/contracts/ancillary/TWAPoracle.sol",
  "compiler": {
    "name": "solc",
    "version": "0.8.11+commit.d7f03943.Emscripten.clang"
  },
  "schemaVersion": "3.4.3",
  "updatedAt": "2021-12-30T18:11:28.787Z",
  "devdoc": {
    "kind": "dev",
    "methods": {
      "latestPrice(address,uint128)": {
        "returns": {
          "price": "WAD-scaled - 18 dec places"
        }
      }
    },
    "version": 1
  },
  "userdoc": {
    "kind": "user",
    "methods": {},
    "version": 1
  }
}