{
  "contractName": "TWAPOracle",
  "abi": [
    {
      "inputs": [
        {
          "internalType": "contract IUniswapV3Factory",
          "name": "factory",
          "type": "address"
        }
      ],
      "stateMutability": "nonpayable",
      "type": "constructor"
    },
    {
      "inputs": [],
      "name": "TWAP_PERIOD",
      "outputs": [
        {
          "internalType": "uint32",
          "name": "",
          "type": "uint32"
        }
      ],
      "stateMutability": "view",
      "type": "function",
      "constant": true
    },
    {
      "inputs": [],
      "name": "uniswapFactory",
      "outputs": [
        {
          "internalType": "contract IUniswapV3Factory",
          "name": "",
          "type": "address"
        }
      ],
      "stateMutability": "view",
      "type": "function",
      "constant": true
    },
    {
      "inputs": [
        {
          "internalType": "address",
          "name": "tokenA",
          "type": "address"
        },
        {
          "internalType": "uint24",
          "name": "fee",
          "type": "uint24"
        }
      ],
      "name": "getPoolForTWAP",
      "outputs": [
        {
          "internalType": "address",
          "name": "",
          "type": "address"
        },
        {
          "internalType": "uint8",
          "name": "",
          "type": "uint8"
        }
      ],
      "stateMutability": "view",
      "type": "function",
      "constant": true
    },
    {
      "inputs": [
        {
          "internalType": "address",
          "name": "pool",
          "type": "address"
        }
      ],
      "name": "latestPrice",
      "outputs": [
        {
          "internalType": "uint256",
          "name": "price",
          "type": "uint256"
        }
      ],
      "stateMutability": "view",
      "type": "function",
      "constant": true
    }
  ],
  "bytecode": "0x60a06040523480156200001157600080fd5b5060405162001bec38038062001bec8339818101604052810190620000379190620000f0565b8073ffffffffffffffffffffffffffffffffffffffff1660808173ffffffffffffffffffffffffffffffffffffffff16815250505062000122565b600080fd5b600073ffffffffffffffffffffffffffffffffffffffff82169050919050565b6000620000a48262000077565b9050919050565b6000620000b88262000097565b9050919050565b620000ca81620000ab565b8114620000d657600080fd5b50565b600081519050620000ea81620000bf565b92915050565b60006020828403121562000109576200010862000072565b5b60006200011984828501620000d9565b91505092915050565b608051611aa06200014c600039600081816105710152818161065a01526107300152611aa06000f3fe608060405234801561001057600080fd5b506004361061004c5760003560e01c806353084eff1461005157806358de3500146100815780637ca25184146100b25780638bdb2afa146100d0575b600080fd5b61006b600480360381019061006691906110d8565b6100ee565b604051610078919061111e565b60405180910390f35b61009b60048036038101906100969190611174565b61056a565b6040516100a99291906111df565b60405180910390f35b6100ba610729565b6040516100c79190611227565b60405180910390f35b6100d861072e565b6040516100e591906112a1565b60405180910390f35b6000806100fc836078610752565b90508273ffffffffffffffffffffffffffffffffffffffff16630dfe16816040518163ffffffff1660e01b8152600401602060405180830381865afa158015610149573d6000803e3d6000fd5b505050506040513d601f19601f8201168201806040525081019061016d91906112d1565b73ffffffffffffffffffffffffffffffffffffffff16736b175474e89094c44da98b954eedeac495271d0f73ffffffffffffffffffffffffffffffffffffffff16148061026757508273ffffffffffffffffffffffffffffffffffffffff16630dfe16816040518163ffffffff1660e01b8152600401602060405180830381865afa158015610200573d6000803e3d6000fd5b505050506040513d601f19601f8201168201806040525081019061022491906112d1565b73ffffffffffffffffffffffffffffffffffffffff1673c02aaa39b223fe8d0a0e5c4f27ead9083c756cc273ffffffffffffffffffffffffffffffffffffffff16145b156104715760008373ffffffffffffffffffffffffffffffffffffffff1663d21220a76040518163ffffffff1660e01b8152600401602060405180830381865afa1580156102b9573d6000803e3d6000fd5b505050506040513d601f19601f820116820180604052508101906102dd91906112d1565b73ffffffffffffffffffffffffffffffffffffffff1663313ce5676040518163ffffffff1660e01b8152600401602060405180830381865afa158015610327573d6000803e3d6000fd5b505050506040513d601f19601f8201168201806040525081019061034b919061132a565b600161035791906114b9565b90506000816fffffffffffffffffffffffffffffffff16141561038057670de0b6b3a764000090505b61046882828673ffffffffffffffffffffffffffffffffffffffff1663d21220a76040518163ffffffff1660e01b8152600401602060405180830381865afa1580156103d0573d6000803e3d6000fd5b505050506040513d601f19601f820116820180604052508101906103f491906112d1565b8773ffffffffffffffffffffffffffffffffffffffff16630dfe16816040518163ffffffff1660e01b8152600401602060405180830381865afa15801561043f573d6000803e3d6000fd5b505050506040513d601f19601f8201168201806040525081019061046391906112d1565b610975565b92505050610565565b61056181670de0b6b3a76400008573ffffffffffffffffffffffffffffffffffffffff16630dfe16816040518163ffffffff1660e01b8152600401602060405180830381865afa1580156104c9573d6000803e3d6000fd5b505050506040513d601f19601f820116820180604052508101906104ed91906112d1565b8673ffffffffffffffffffffffffffffffffffffffff1663d21220a76040518163ffffffff1660e01b8152600401602060405180830381865afa158015610538573d6000803e3d6000fd5b505050506040513d601f19601f8201168201806040525081019061055c91906112d1565b610975565b9150505b919050565b60008060007f000000000000000000000000000000000000000000000000000000000000000073ffffffffffffffffffffffffffffffffffffffff16631698ee8286736b175474e89094c44da98b954eedeac495271d0f876040518463ffffffff1660e01b81526004016105e093929190611513565b602060405180830381865afa1580156105fd573d6000803e3d6000fd5b505050506040513d601f19601f8201168201806040525081019061062191906112d1565b9050600073ffffffffffffffffffffffffffffffffffffffff168173ffffffffffffffffffffffffffffffffffffffff161415610719577f000000000000000000000000000000000000000000000000000000000000000073ffffffffffffffffffffffffffffffffffffffff16631698ee828673c02aaa39b223fe8d0a0e5c4f27ead9083c756cc2876040518463ffffffff1660e01b81526004016106c993929190611513565b602060405180830381865afa1580156106e6573d6000803e3d6000fd5b505050506040513d601f19601f8201168201806040525081019061070a91906112d1565b90508060019250925050610722565b80600092509250505b9250929050565b607881565b7f000000000000000000000000000000000000000000000000000000000000000081565b6000808263ffffffff16141561079d576040517f08c379a0000000000000000000000000000000000000000000000000000000008152600401610794906115a7565b60405180910390fd5b6000600267ffffffffffffffff8111156107ba576107b96115c7565b5b6040519080825280602002602001820160405280156107e85781602001602082028036833780820191505090505b5090508281600081518110610800576107ff6115f6565b5b602002602001019063ffffffff16908163ffffffff16815250506000816001815181106108305761082f6115f6565b5b602002602001019063ffffffff16908163ffffffff168152505060008473ffffffffffffffffffffffffffffffffffffffff1663883bdbfd836040518263ffffffff1660e01b815260040161088591906116e3565b600060405180830381865afa1580156108a2573d6000803e3d6000fd5b505050506040513d6000823e3d601f19601f820116820180604052508101906108cb9190611957565b5090506000816000815181106108e4576108e36115f6565b5b602002602001015182600181518110610900576108ff6115f6565b5b60200260200101510390508463ffffffff1660060b8160060b81610927576109266119cf565b5b05935060008160060b12801561095d575060008563ffffffff1660060b8260060b81610956576109556119cf565b5b0760060b14155b1561096c578380600190039450505b50505092915050565b60008061098186610b78565b90506fffffffffffffffffffffffffffffffff80168173ffffffffffffffffffffffffffffffffffffffff1611610a925760008173ffffffffffffffffffffffffffffffffffffffff168273ffffffffffffffffffffffffffffffffffffffff160290508373ffffffffffffffffffffffffffffffffffffffff168573ffffffffffffffffffffffffffffffffffffffff1610610a5357610a4e7801000000000000000000000000000000000000000000000000876fffffffffffffffffffffffffffffffff1683610f8b565b610a8a565b610a8981876fffffffffffffffffffffffffffffffff167801000000000000000000000000000000000000000000000000610f8b565b5b925050610b6f565b6000610ad48273ffffffffffffffffffffffffffffffffffffffff168373ffffffffffffffffffffffffffffffffffffffff1668010000000000000000610f8b565b90508373ffffffffffffffffffffffffffffffffffffffff168573ffffffffffffffffffffffffffffffffffffffff1610610b3c57610b37700100000000000000000000000000000000876fffffffffffffffffffffffffffffffff1683610f8b565b610b6b565b610b6a81876fffffffffffffffffffffffffffffffff16700100000000000000000000000000000000610f8b565b5b9250505b50949350505050565b60008060008360020b12610b8f578260020b610b97565b8260020b6000035b90507ffffffffffffffffffffffffffffffffffffffffffffffffffffffffffff27618600003811115610bff576040517f08c379a0000000000000000000000000000000000000000000000000000000008152600401610bf690611a4a565b60405180910390fd5b600080600183161415610c2357700100000000000000000000000000000000610c35565b6ffffcb933bd6fad37aa2d162d1a5940015b70ffffffffffffffffffffffffffffffffff16905060006002831614610c6f5760806ffff97272373d413259a46990580e213a8202901c90505b60006004831614610c945760806ffff2e50f5f656932ef12357cf3c7fdcc8202901c90505b60006008831614610cb95760806fffe5caca7e10e4e61c3624eaa0941cd08202901c90505b60006010831614610cde5760806fffcb9843d60f6159c9db58835c9266448202901c90505b60006020831614610d035760806fff973b41fa98c081472e6896dfb254c08202901c90505b60006040831614610d285760806fff2ea16466c96a3843ec78b326b528618202901c90505b60006080831614610d4d5760806ffe5dee046a99a2a811c461f1969c30538202901c90505b6000610100831614610d735760806ffcbe86c7900a88aedcffc83b479aa3a48202901c90505b6000610200831614610d995760806ff987a7253ac413176f2b074cf7815e548202901c90505b6000610400831614610dbf5760806ff3392b0822b70005940c7a398e4b70f38202901c90505b6000610800831614610de55760806fe7159475a2c29b7443b29c7fa6e889d98202901c90505b6000611000831614610e0b5760806fd097f3bdfd2022b8845ad8f792aa58258202901c90505b6000612000831614610e315760806fa9f746462d870fdf8a65dc1f90e061e58202901c90505b6000614000831614610e575760806f70d869a156d2a1b890bb3df62baf32f78202901c90505b6000618000831614610e7d5760806f31be135f97d08fd981231505542fcfa68202901c90505b600062010000831614610ea45760806f09aa508b5b7a84e1c677de54f3e99bc98202901c90505b600062020000831614610eca5760806e5d6af8dedb81196699c329225ee6048202901c90505b600062040000831614610eef5760806d2216e584f5fa1ea926041bedfe988202901c90505b600062080000831614610f125760806b048a170391f7dc42444e8fa28202901c90505b60008460020b1315610f5257807fffffffffffffffffffffffffffffffffffffffffffffffffffffffffffffffff81610f4e57610f4d6119cf565b5b0490505b60006401000000008281610f6957610f686119cf565b5b0614610f76576001610f79565b60005b60ff16602082901c0192505050919050565b600080600080198587098587029250828110838203039150506000811415610fc65760008411610fba57600080fd5b8382049250505061105f565b808411610fd257600080fd5b60008486880990508281118203915080830392506000856001871901169050808604955080840493506001818260000304019050808302841793506000600287600302189050808702600203810290508087026002038102905080870260020381029050808702600203810290508087026002038102905080870260020381029050808502955050505050505b9392505050565b6000604051905090565b600080fd5b600080fd5b600073ffffffffffffffffffffffffffffffffffffffff82169050919050565b60006110a58261107a565b9050919050565b6110b58161109a565b81146110c057600080fd5b50565b6000813590506110d2816110ac565b92915050565b6000602082840312156110ee576110ed611070565b5b60006110fc848285016110c3565b91505092915050565b6000819050919050565b61111881611105565b82525050565b6000602082019050611133600083018461110f565b92915050565b600062ffffff82169050919050565b61115181611139565b811461115c57600080fd5b50565b60008135905061116e81611148565b92915050565b6000806040838503121561118b5761118a611070565b5b6000611199858286016110c3565b92505060206111aa8582860161115f565b9150509250929050565b6111bd8161109a565b82525050565b600060ff82169050919050565b6111d9816111c3565b82525050565b60006040820190506111f460008301856111b4565b61120160208301846111d0565b9392505050565b600063ffffffff82169050919050565b61122181611208565b82525050565b600060208201905061123c6000830184611218565b92915050565b6000819050919050565b600061126761126261125d8461107a565b611242565b61107a565b9050919050565b60006112798261124c565b9050919050565b600061128b8261126e565b9050919050565b61129b81611280565b82525050565b60006020820190506112b66000830184611292565b92915050565b6000815190506112cb816110ac565b92915050565b6000602082840312156112e7576112e6611070565b5b60006112f5848285016112bc565b91505092915050565b611307816111c3565b811461131257600080fd5b50565b600081519050611324816112fe565b92915050565b6000602082840312156113405761133f611070565b5b600061134e84828501611315565b91505092915050565b7f4e487b7100000000000000000000000000000000000000000000000000000000600052601160045260246000fd5b60008160011c9050919050565b6000808291508390505b60018511156113dd578086048111156113b9576113b8611357565b5b60018516156113c85780820291505b80810290506113d685611386565b945061139d565b94509492505050565b6000826113f657600190506114b2565b8161140457600090506114b2565b816001811461141a576002811461142457611453565b60019150506114b2565b60ff84111561143657611435611357565b5b8360020a91508482111561144d5761144c611357565b5b506114b2565b5060208310610133831016604e8410600b84101617156114885782820a90508381111561148357611482611357565b5b6114b2565b6114958484846001611393565b925090508184048111156114ac576114ab611357565b5b81810290505b9392505050565b60006114c482611105565b91506114cf836111c3565b92506114fc7fffffffffffffffffffffffffffffffffffffffffffffffffffffffffffffffff84846113e6565b905092915050565b61150d81611139565b82525050565b600060608201905061152860008301866111b4565b61153560208301856111b4565b6115426040830184611504565b949350505050565b600082825260208201905092915050565b7f4250000000000000000000000000000000000000000000000000000000000000600082015250565b600061159160028361154a565b915061159c8261155b565b602082019050919050565b600060208201905081810360008301526115c081611584565b9050919050565b7f4e487b7100000000000000000000000000000000000000000000000000000000600052604160045260246000fd5b7f4e487b7100000000000000000000000000000000000000000000000000000000600052603260045260246000fd5b600081519050919050565b600082825260208201905092915050565b6000819050602082019050919050565b61165a81611208565b82525050565b600061166c8383611651565b60208301905092915050565b6000602082019050919050565b600061169082611625565b61169a8185611630565b93506116a583611641565b8060005b838110156116d65781516116bd8882611660565b97506116c883611678565b9250506001810190506116a9565b5085935050505092915050565b600060208201905081810360008301526116fd8184611685565b905092915050565b600080fd5b6000601f19601f8301169050919050565b6117248261170a565b810181811067ffffffffffffffff82111715611743576117426115c7565b5b80604052505050565b6000611756611066565b9050611762828261171b565b919050565b600067ffffffffffffffff821115611782576117816115c7565b5b602082029050602081019050919050565b600080fd5b60008160060b9050919050565b6117ae81611798565b81146117b957600080fd5b50565b6000815190506117cb816117a5565b92915050565b60006117e46117df84611767565b61174c565b9050808382526020820190506020840283018581111561180757611806611793565b5b835b81811015611830578061181c88826117bc565b845260208401935050602081019050611809565b5050509392505050565b600082601f83011261184f5761184e611705565b5b815161185f8482602086016117d1565b91505092915050565b600067ffffffffffffffff821115611883576118826115c7565b5b602082029050602081019050919050565b61189d8161107a565b81146118a857600080fd5b50565b6000815190506118ba81611894565b92915050565b60006118d36118ce84611868565b61174c565b905080838252602082019050602084028301858111156118f6576118f5611793565b5b835b8181101561191f578061190b88826118ab565b8452602084019350506020810190506118f8565b5050509392505050565b600082601f83011261193e5761193d611705565b5b815161194e8482602086016118c0565b91505092915050565b6000806040838503121561196e5761196d611070565b5b600083015167ffffffffffffffff81111561198c5761198b611075565b5b6119988582860161183a565b925050602083015167ffffffffffffffff8111156119b9576119b8611075565b5b6119c585828601611929565b9150509250929050565b7f4e487b7100000000000000000000000000000000000000000000000000000000600052601260045260246000fd5b7f5400000000000000000000000000000000000000000000000000000000000000600082015250565b6000611a3460018361154a565b9150611a3f826119fe565b602082019050919050565b60006020820190508181036000830152611a6381611a27565b905091905056fea264697066735822122010bea54a10af8000f4dbee0085f72647394654c29760f3fbe31b656df59a6cc264736f6c634300080b0033",
  "immutableReferences": {
    "4621": [
      {
        "length": 32,
        "start": 1393
      },
      {
        "length": 32,
        "start": 1626
      },
      {
        "length": 32,
        "start": 1840
      }
    ]
  },
  "source": "// SPDX-License-Identifier: MIT\npragma solidity ^0.8.0; //solhint-disable compiler-fixed\n\nimport \"@uniswap/v3-core/contracts/interfaces/IUniswapV3Pool.sol\";\nimport \"@uniswap/v3-core/contracts/interfaces/IUniswapV3Factory.sol\";\nimport \"../uniswapv08/v3-periphery/OracleLibrary.sol\";\nimport \"../uniswapv08/v3-periphery/PoolAddress.sol\";\nimport \"@openzeppelin/contracts/token/ERC20/ERC20.sol\";\nimport \"./IOracle.sol\";\n\n\ncontract TWAPOracle is IOracle {\n\n    uint32 public constant TWAP_PERIOD = 2 minutes;\n    address private constant DAI_ADDRESS = 0x6B175474E89094C44Da98b954EedeAC495271d0F;\n    address private constant WETH_ADDRESS = 0xC02aaA39b223FE8D0A0e5C4F27eAD9083C756Cc2;\n    IUniswapV3Factory public immutable uniswapFactory;\n    uint128 private constant WAD = 1e18;\n\n    /**\n     * @notice Example pools to pass in:\n     * USDC/ETH (0.05%): 0x88e6a0c2ddd26feeb64f039a2c41296fcb3f5640, 1, -12\n     * ETH/USDT (0.05%): 0x11b815efb8f581194ae79006d24e0d814b7697f6, 0, -12\n  */\n    constructor(IUniswapV3Factory factory) { //solhint-disable func-visibility\n        uniswapFactory = factory;\n    }\n\n    function getPoolForTWAP(address tokenA, uint24 fee) external override view returns (address, uint8) {\n        address pool = uniswapFactory.getPool(tokenA, DAI_ADDRESS, fee);\n        //if there isn't a dai pool, we check for a weth pool\n        if (pool == address(0)) {\n            pool = uniswapFactory.getPool(tokenA, WETH_ADDRESS, fee);\n            return (pool, 1);\n        } //else, if there is a dai pool we just return that\n        return (pool, 0);\n    }\n\n    function latestPrice(address pool)\n        public virtual override view returns (uint price) {\n            int24 twapTick = OracleLibrary.consult(pool, TWAP_PERIOD);\n\n            //if the pool has dai or weth as token0 ie. DAI/USDC or WETH/USDC\n            if (DAI_ADDRESS == IUniswapV3Pool(pool).token0() ||\n                WETH_ADDRESS == IUniswapV3Pool(pool).token0()) {\n                //keeping this here for now in case a special case token appears with less than 18 decimals\n                uint128 scaleFactor = uint128(1 ** ERC20(IUniswapV3Pool(pool).token1()).decimals());\n\n                if (scaleFactor == 0) {\n                    scaleFactor = WAD;\n                }\n\n                return price = OracleLibrary.getQuoteAtTick(\n                    twapTick,\n                    scaleFactor, //decimals of token or 18 by default \n                    IUniswapV3Pool(pool).token1(), //price token1 in terms of token0 (get token price in eth)\n                    IUniswapV3Pool(pool).token0()\n                );\n\n            }\n            //else we return dai or weth as token1 ie FTT/WETH or RAI/DAI\n            return price = OracleLibrary.getQuoteAtTick(\n                twapTick,\n                WAD,\n                IUniswapV3Pool(pool).token0(), //price token0 in terms of token1\n                IUniswapV3Pool(pool).token1()\n            );\n        }\n}\n",
  "sourcePath": "/home/kevin/Code/solidity_projects/beraMarket/contracts/ancillary/TWAPoracle.sol",
  "compiler": {
    "name": "solc",
    "version": "0.8.11+commit.d7f03943.Emscripten.clang"
  },
  "schemaVersion": "3.4.3",
  "updatedAt": "2022-01-15T20:51:27.939Z",
  "networkType": "ethereum",
  "devdoc": {
    "kind": "dev",
    "methods": {},
    "version": 1
  },
  "userdoc": {
    "kind": "user",
    "methods": {
      "constructor": {
        "notice": "Example pools to pass in: USDC/ETH (0.05%): 0x88e6a0c2ddd26feeb64f039a2c41296fcb3f5640, 1, -12 ETH/USDT (0.05%): 0x11b815efb8f581194ae79006d24e0d814b7697f6, 0, -12"
      }
    },
    "version": 1
  }
}