{
  "contractName": "TWAPOracle",
  "abi": [
    {
      "inputs": [
        {
          "internalType": "contract IUniswapV3Factory",
          "name": "factory",
          "type": "address"
        }
      ],
      "stateMutability": "nonpayable",
      "type": "constructor"
    },
    {
      "inputs": [],
      "name": "TWAP_PERIOD",
      "outputs": [
        {
          "internalType": "uint32",
          "name": "",
          "type": "uint32"
        }
      ],
      "stateMutability": "view",
      "type": "function",
      "constant": true
    },
    {
      "inputs": [],
      "name": "uniswapFactory",
      "outputs": [
        {
          "internalType": "contract IUniswapV3Factory",
          "name": "",
          "type": "address"
        }
      ],
      "stateMutability": "view",
      "type": "function",
      "constant": true
    },
    {
      "inputs": [
        {
          "internalType": "address",
          "name": "tokenA",
          "type": "address"
        },
        {
          "internalType": "uint24",
          "name": "fee",
          "type": "uint24"
        }
      ],
      "name": "getPoolForTWAP",
      "outputs": [
        {
          "internalType": "address",
          "name": "",
          "type": "address"
        },
        {
          "internalType": "uint8",
          "name": "",
          "type": "uint8"
        }
      ],
      "stateMutability": "view",
      "type": "function",
      "constant": true
    },
    {
      "inputs": [
        {
          "internalType": "address",
          "name": "pool",
          "type": "address"
        },
        {
          "internalType": "uint256",
          "name": "tokenToPrice",
          "type": "uint256"
        }
      ],
      "name": "latestPrice",
      "outputs": [
        {
          "internalType": "uint256",
          "name": "price",
          "type": "uint256"
        }
      ],
      "stateMutability": "view",
      "type": "function",
      "constant": true
    }
  ],
  "bytecode": "0x60a06040523480156200001157600080fd5b50604051620019d1380380620019d18339818101604052810190620000379190620000f0565b8073ffffffffffffffffffffffffffffffffffffffff1660808173ffffffffffffffffffffffffffffffffffffffff16815250505062000122565b600080fd5b600073ffffffffffffffffffffffffffffffffffffffff82169050919050565b6000620000a48262000077565b9050919050565b6000620000b88262000097565b9050919050565b620000ca81620000ab565b8114620000d657600080fd5b50565b600081519050620000ea81620000bf565b92915050565b60006020828403121562000109576200010862000072565b5b60006200011984828501620000d9565b91505092915050565b6080516118866200014b6000396000818160f5015281816101de015261067101526118866000f3fe608060405234801561001057600080fd5b506004361061004c5760003560e01c806358de3500146100515780635f7576ef146100825780637ca25184146100b25780638bdb2afa146100d0575b600080fd5b61006b60048036038101906100669190611054565b6100ee565b6040516100799291906110bf565b60405180910390f35b61009c6004803603810190610097919061111e565b6102ad565b6040516100a9919061116d565b60405180910390f35b6100ba61066a565b6040516100c791906111a7565b60405180910390f35b6100d861066f565b6040516100e59190611221565b60405180910390f35b60008060007f000000000000000000000000000000000000000000000000000000000000000073ffffffffffffffffffffffffffffffffffffffff16631698ee8286736b175474e89094c44da98b954eedeac495271d0f876040518463ffffffff1660e01b81526004016101649392919061124b565b602060405180830381865afa158015610181573d6000803e3d6000fd5b505050506040513d601f19601f820116820180604052508101906101a59190611297565b9050600073ffffffffffffffffffffffffffffffffffffffff168173ffffffffffffffffffffffffffffffffffffffff16141561029d577f000000000000000000000000000000000000000000000000000000000000000073ffffffffffffffffffffffffffffffffffffffff16631698ee828673c02aaa39b223fe8d0a0e5c4f27ead9083c756cc2876040518463ffffffff1660e01b815260040161024d9392919061124b565b602060405180830381865afa15801561026a573d6000803e3d6000fd5b505050506040513d601f19601f8201168201806040525081019061028e9190611297565b905080600192509250506102a6565b80600092509250505b9250929050565b6000808214806102bd5750600182145b6102fc576040517f08c379a00000000000000000000000000000000000000000000000000000000081526004016102f390611321565b60405180910390fd5b6000670de0b6b3a7640000905060006103168560b4610693565b90508473ffffffffffffffffffffffffffffffffffffffff16630dfe16816040518163ffffffff1660e01b8152600401602060405180830381865afa158015610363573d6000803e3d6000fd5b505050506040513d601f19601f820116820180604052508101906103879190611297565b73ffffffffffffffffffffffffffffffffffffffff16736b175474e89094c44da98b954eedeac495271d0f73ffffffffffffffffffffffffffffffffffffffff16148061048157508473ffffffffffffffffffffffffffffffffffffffff16630dfe16816040518163ffffffff1660e01b8152600401602060405180830381865afa15801561041a573d6000803e3d6000fd5b505050506040513d601f19601f8201168201806040525081019061043e9190611297565b73ffffffffffffffffffffffffffffffffffffffff1673c02aaa39b223fe8d0a0e5c4f27ead9083c756cc273ffffffffffffffffffffffffffffffffffffffff16145b156105775761056e81838773ffffffffffffffffffffffffffffffffffffffff1663d21220a76040518163ffffffff1660e01b8152600401602060405180830381865afa1580156104d6573d6000803e3d6000fd5b505050506040513d601f19601f820116820180604052508101906104fa9190611297565b8873ffffffffffffffffffffffffffffffffffffffff16630dfe16816040518163ffffffff1660e01b8152600401602060405180830381865afa158015610545573d6000803e3d6000fd5b505050506040513d601f19601f820116820180604052508101906105699190611297565b6108b6565b92505050610664565b61065f81838773ffffffffffffffffffffffffffffffffffffffff16630dfe16816040518163ffffffff1660e01b8152600401602060405180830381865afa1580156105c7573d6000803e3d6000fd5b505050506040513d601f19601f820116820180604052508101906105eb9190611297565b8873ffffffffffffffffffffffffffffffffffffffff1663d21220a76040518163ffffffff1660e01b8152600401602060405180830381865afa158015610636573d6000803e3d6000fd5b505050506040513d601f19601f8201168201806040525081019061065a9190611297565b6108b6565b925050505b92915050565b60b481565b7f000000000000000000000000000000000000000000000000000000000000000081565b6000808263ffffffff1614156106de576040517f08c379a00000000000000000000000000000000000000000000000000000000081526004016106d59061138d565b60405180910390fd5b6000600267ffffffffffffffff8111156106fb576106fa6113ad565b5b6040519080825280602002602001820160405280156107295781602001602082028036833780820191505090505b5090508281600081518110610741576107406113dc565b5b602002602001019063ffffffff16908163ffffffff1681525050600081600181518110610771576107706113dc565b5b602002602001019063ffffffff16908163ffffffff168152505060008473ffffffffffffffffffffffffffffffffffffffff1663883bdbfd836040518263ffffffff1660e01b81526004016107c691906114c9565b600060405180830381865afa1580156107e3573d6000803e3d6000fd5b505050506040513d6000823e3d601f19601f8201168201806040525081019061080c919061173d565b509050600081600081518110610825576108246113dc565b5b602002602001015182600181518110610841576108406113dc565b5b60200260200101510390508463ffffffff1660060b8160060b81610868576108676117b5565b5b05935060008160060b12801561089e575060008563ffffffff1660060b8260060b81610897576108966117b5565b5b0760060b14155b156108ad578380600190039450505b50505092915050565b6000806108c286610ab9565b90506fffffffffffffffffffffffffffffffff80168173ffffffffffffffffffffffffffffffffffffffff16116109d35760008173ffffffffffffffffffffffffffffffffffffffff168273ffffffffffffffffffffffffffffffffffffffff160290508373ffffffffffffffffffffffffffffffffffffffff168573ffffffffffffffffffffffffffffffffffffffff16106109945761098f7801000000000000000000000000000000000000000000000000876fffffffffffffffffffffffffffffffff1683610ecc565b6109cb565b6109ca81876fffffffffffffffffffffffffffffffff167801000000000000000000000000000000000000000000000000610ecc565b5b925050610ab0565b6000610a158273ffffffffffffffffffffffffffffffffffffffff168373ffffffffffffffffffffffffffffffffffffffff1668010000000000000000610ecc565b90508373ffffffffffffffffffffffffffffffffffffffff168573ffffffffffffffffffffffffffffffffffffffff1610610a7d57610a78700100000000000000000000000000000000876fffffffffffffffffffffffffffffffff1683610ecc565b610aac565b610aab81876fffffffffffffffffffffffffffffffff16700100000000000000000000000000000000610ecc565b5b9250505b50949350505050565b60008060008360020b12610ad0578260020b610ad8565b8260020b6000035b90507ffffffffffffffffffffffffffffffffffffffffffffffffffffffffffff27618600003811115610b40576040517f08c379a0000000000000000000000000000000000000000000000000000000008152600401610b3790611830565b60405180910390fd5b600080600183161415610b6457700100000000000000000000000000000000610b76565b6ffffcb933bd6fad37aa2d162d1a5940015b70ffffffffffffffffffffffffffffffffff16905060006002831614610bb05760806ffff97272373d413259a46990580e213a8202901c90505b60006004831614610bd55760806ffff2e50f5f656932ef12357cf3c7fdcc8202901c90505b60006008831614610bfa5760806fffe5caca7e10e4e61c3624eaa0941cd08202901c90505b60006010831614610c1f5760806fffcb9843d60f6159c9db58835c9266448202901c90505b60006020831614610c445760806fff973b41fa98c081472e6896dfb254c08202901c90505b60006040831614610c695760806fff2ea16466c96a3843ec78b326b528618202901c90505b60006080831614610c8e5760806ffe5dee046a99a2a811c461f1969c30538202901c90505b6000610100831614610cb45760806ffcbe86c7900a88aedcffc83b479aa3a48202901c90505b6000610200831614610cda5760806ff987a7253ac413176f2b074cf7815e548202901c90505b6000610400831614610d005760806ff3392b0822b70005940c7a398e4b70f38202901c90505b6000610800831614610d265760806fe7159475a2c29b7443b29c7fa6e889d98202901c90505b6000611000831614610d4c5760806fd097f3bdfd2022b8845ad8f792aa58258202901c90505b6000612000831614610d725760806fa9f746462d870fdf8a65dc1f90e061e58202901c90505b6000614000831614610d985760806f70d869a156d2a1b890bb3df62baf32f78202901c90505b6000618000831614610dbe5760806f31be135f97d08fd981231505542fcfa68202901c90505b600062010000831614610de55760806f09aa508b5b7a84e1c677de54f3e99bc98202901c90505b600062020000831614610e0b5760806e5d6af8dedb81196699c329225ee6048202901c90505b600062040000831614610e305760806d2216e584f5fa1ea926041bedfe988202901c90505b600062080000831614610e535760806b048a170391f7dc42444e8fa28202901c90505b60008460020b1315610e9357807fffffffffffffffffffffffffffffffffffffffffffffffffffffffffffffffff81610e8f57610e8e6117b5565b5b0490505b60006401000000008281610eaa57610ea96117b5565b5b0614610eb7576001610eba565b60005b60ff16602082901c0192505050919050565b600080600080198587098587029250828110838203039150506000811415610f075760008411610efb57600080fd5b83820492505050610fa0565b808411610f1357600080fd5b60008486880990508281118203915080830392506000856001871901169050808604955080840493506001818260000304019050808302841793506000600287600302189050808702600203810290508087026002038102905080870260020381029050808702600203810290508087026002038102905080870260020381029050808502955050505050505b9392505050565b6000604051905090565b600080fd5b600080fd5b600073ffffffffffffffffffffffffffffffffffffffff82169050919050565b6000610fe682610fbb565b9050919050565b610ff681610fdb565b811461100157600080fd5b50565b60008135905061101381610fed565b92915050565b600062ffffff82169050919050565b61103181611019565b811461103c57600080fd5b50565b60008135905061104e81611028565b92915050565b6000806040838503121561106b5761106a610fb1565b5b600061107985828601611004565b925050602061108a8582860161103f565b9150509250929050565b61109d81610fdb565b82525050565b600060ff82169050919050565b6110b9816110a3565b82525050565b60006040820190506110d46000830185611094565b6110e160208301846110b0565b9392505050565b6000819050919050565b6110fb816110e8565b811461110657600080fd5b50565b600081359050611118816110f2565b92915050565b6000806040838503121561113557611134610fb1565b5b600061114385828601611004565b925050602061115485828601611109565b9150509250929050565b611167816110e8565b82525050565b6000602082019050611182600083018461115e565b92915050565b600063ffffffff82169050919050565b6111a181611188565b82525050565b60006020820190506111bc6000830184611198565b92915050565b6000819050919050565b60006111e76111e26111dd84610fbb565b6111c2565b610fbb565b9050919050565b60006111f9826111cc565b9050919050565b600061120b826111ee565b9050919050565b61121b81611200565b82525050565b60006020820190506112366000830184611212565b92915050565b61124581611019565b82525050565b60006060820190506112606000830186611094565b61126d6020830185611094565b61127a604083018461123c565b949350505050565b60008151905061129181610fed565b92915050565b6000602082840312156112ad576112ac610fb1565b5b60006112bb84828501611282565b91505092915050565b600082825260208201905092915050565b7f746f6b656e546f5072696365206e6f742030206f722031000000000000000000600082015250565b600061130b6017836112c4565b9150611316826112d5565b602082019050919050565b6000602082019050818103600083015261133a816112fe565b9050919050565b7f4250000000000000000000000000000000000000000000000000000000000000600082015250565b60006113776002836112c4565b915061138282611341565b602082019050919050565b600060208201905081810360008301526113a68161136a565b9050919050565b7f4e487b7100000000000000000000000000000000000000000000000000000000600052604160045260246000fd5b7f4e487b7100000000000000000000000000000000000000000000000000000000600052603260045260246000fd5b600081519050919050565b600082825260208201905092915050565b6000819050602082019050919050565b61144081611188565b82525050565b60006114528383611437565b60208301905092915050565b6000602082019050919050565b60006114768261140b565b6114808185611416565b935061148b83611427565b8060005b838110156114bc5781516114a38882611446565b97506114ae8361145e565b92505060018101905061148f565b5085935050505092915050565b600060208201905081810360008301526114e3818461146b565b905092915050565b600080fd5b6000601f19601f8301169050919050565b61150a826114f0565b810181811067ffffffffffffffff82111715611529576115286113ad565b5b80604052505050565b600061153c610fa7565b90506115488282611501565b919050565b600067ffffffffffffffff821115611568576115676113ad565b5b602082029050602081019050919050565b600080fd5b60008160060b9050919050565b6115948161157e565b811461159f57600080fd5b50565b6000815190506115b18161158b565b92915050565b60006115ca6115c58461154d565b611532565b905080838252602082019050602084028301858111156115ed576115ec611579565b5b835b81811015611616578061160288826115a2565b8452602084019350506020810190506115ef565b5050509392505050565b600082601f830112611635576116346114eb565b5b81516116458482602086016115b7565b91505092915050565b600067ffffffffffffffff821115611669576116686113ad565b5b602082029050602081019050919050565b61168381610fbb565b811461168e57600080fd5b50565b6000815190506116a08161167a565b92915050565b60006116b96116b48461164e565b611532565b905080838252602082019050602084028301858111156116dc576116db611579565b5b835b8181101561170557806116f18882611691565b8452602084019350506020810190506116de565b5050509392505050565b600082601f830112611724576117236114eb565b5b81516117348482602086016116a6565b91505092915050565b6000806040838503121561175457611753610fb1565b5b600083015167ffffffffffffffff81111561177257611771610fb6565b5b61177e85828601611620565b925050602083015167ffffffffffffffff81111561179f5761179e610fb6565b5b6117ab8582860161170f565b9150509250929050565b7f4e487b7100000000000000000000000000000000000000000000000000000000600052601260045260246000fd5b7f5400000000000000000000000000000000000000000000000000000000000000600082015250565b600061181a6001836112c4565b9150611825826117e4565b602082019050919050565b600060208201905081810360008301526118498161180d565b905091905056fea2646970667358221220ae56d83b00ad5baa8d2e4d5952a8185f179a129c00c757473b8ed2ffebcbb78264736f6c634300080b0033",
  "immutableReferences": {
    "4625": [
      {
        "length": 32,
        "start": 245
      },
      {
        "length": 32,
        "start": 478
      },
      {
        "length": 32,
        "start": 1649
      }
    ]
  },
  "source": "// SPDX-License-Identifier: MIT\npragma solidity ^0.8.0; //solhint-disable compiler-fixed\n\nimport \"@uniswap/v3-core/contracts/interfaces/IUniswapV3Pool.sol\";\nimport \"@uniswap/v3-core/contracts/interfaces/IUniswapV3Factory.sol\";\nimport \"../uniswapv08/v3-periphery/OracleLibrary.sol\";\nimport \"../uniswapv08/v3-periphery/PoolAddress.sol\";\nimport \"@openzeppelin/contracts/token/ERC20/ERC20.sol\";\nimport \"./IOracle.sol\";\n\n\n//TODO\n//reworking contract now, is kinda fucked in the current state did not finish\ncontract TWAPOracle is IOracle {\n\n    uint32 public constant TWAP_PERIOD = 3 minutes;\n    address private constant DAI_ADDRESS = 0x6B175474E89094C44Da98b954EedeAC495271d0F;\n    address private constant WETH_ADDRESS = 0xC02aaA39b223FE8D0A0e5C4F27eAD9083C756Cc2;\n    IUniswapV3Factory public immutable uniswapFactory;\n    uint private constant WAD = 1e18;\n\n    /**\n     * @notice Example pools to pass in:\n     * USDC/ETH (0.05%): 0x88e6a0c2ddd26feeb64f039a2c41296fcb3f5640, 1, -12\n     * ETH/USDT (0.05%): 0x11b815efb8f581194ae79006d24e0d814b7697f6, 0, -12\n  */\n    constructor(IUniswapV3Factory factory) { //solhint-disable func-visibility\n        uniswapFactory = factory;\n    }\n\n    function getPoolForTWAP(address tokenA, uint24 fee) external view returns (address, uint8) {\n        address pool = uniswapFactory.getPool(tokenA, DAI_ADDRESS, fee);\n        //if there isn't a dai pool, we check for a weth pool\n        if (pool == address(0)) {\n            pool = uniswapFactory.getPool(tokenA, WETH_ADDRESS, fee);\n            return (pool, 1);\n        } //else, if there is a dai pool we just return that\n        return (pool, 0);\n    }\n\n    // We want latestPrice() to return WAD-fixed-point (18-decimal-place) numbers.\n    // So, eg, if Uniswap's output numbers\n    // include 3 decimal places (ie, are already scaled by 10**3), we need to scale them by another 10**15:\n    /** decimalPlaces How many decimal places are already included in the numbers Uniswap returns.  So,\n    * `decimalPlaces = 3` means when Uniswap returns 12345,\n    it actually represents 12.345 (ie, the last three digits were the\n    * decimal part). `decimalPlaces = -3` means when Uniswap returns 12345, it actually represents 12,345,000.\n    * @param tokenToPrice Which token we're pricing (0 or 1) relative to the other.\n    Eg, for the USDC/ETH pool (token0 = USDC,\n    * token1 = ETH), we want the price of ETH in terms of USDC, not vice versa:\n    so we should pass in `tokenToPrice == 1'.\n    // ^^^^^^^^^^^^^ this is handled by the swapOracle, so use that for pricing data\n    */\n    function latestPrice(address pool, uint tokenToPrice)\n        public virtual override view returns (uint price) {\n            require(tokenToPrice == 0 || tokenToPrice == 1, \"tokenToPrice not 0 or 1\");\n            uint128 uniswapScaleFactor = uint128(WAD);\n            int24 twapTick = OracleLibrary.consult(pool, TWAP_PERIOD);\n\n            //if the pool has dai or weth as token0 ie. DAI/USDC or WETH/USDC\n            if (DAI_ADDRESS == IUniswapV3Pool(pool).token0() ||\n                WETH_ADDRESS == IUniswapV3Pool(pool).token0()) {\n                return price = OracleLibrary.getQuoteAtTick(\n                    twapTick,\n                    uniswapScaleFactor,\n                    IUniswapV3Pool(pool).token1(),\n                    IUniswapV3Pool(pool).token0()\n                );\n            }\n            //else we treturn dai or weth as token1 ie FTT/WETH or RAI/DAI\n            return price = OracleLibrary.getQuoteAtTick(\n                twapTick,\n                uniswapScaleFactor,\n                IUniswapV3Pool(pool).token0(),\n                IUniswapV3Pool(pool).token1()\n            );\n\n\n    //solhint-disable\n    //             price = tokenToPrice == 1 ?\n    //         OracleLibrary.getQuoteAtTick(twapTick, uniswapScaleFactor, IUniswapV3Pool(pool).token1(), IUniswapV3Pool(pool).token0()) :\n    //         OracleLibrary.getQuoteAtTick(twapTick, uniswapScaleFactor, IUniswapV3Pool(pool).token0(), IUniswapV3Pool(pool).token1());\n    }\n}\n",
  "sourcePath": "/home/kevin/Code/solidity_projects/beraMarket/contracts/ancillary/TWAPoracle.sol",
  "compiler": {
    "name": "solc",
    "version": "0.8.11+commit.d7f03943.Emscripten.clang"
  },
  "schemaVersion": "3.4.3",
  "updatedAt": "2022-01-03T00:45:43.935Z",
  "networkType": "ethereum",
  "devdoc": {
    "kind": "dev",
    "methods": {
      "latestPrice(address,uint256)": {
        "params": {
          "tokenToPrice": "Which token we're pricing (0 or 1) relative to the other. Eg, for the USDC/ETH pool (token0 = USDC, token1 = ETH), we want the price of ETH in terms of USDC, not vice versa: so we should pass in `tokenToPrice == 1'. // ^^^^^^^^^^^^^ this is handled by the swapOracle, so use that for pricing data"
        }
      }
    },
    "version": 1
  },
  "userdoc": {
    "kind": "user",
    "methods": {
      "constructor": {
        "notice": "Example pools to pass in: USDC/ETH (0.05%): 0x88e6a0c2ddd26feeb64f039a2c41296fcb3f5640, 1, -12 ETH/USDT (0.05%): 0x11b815efb8f581194ae79006d24e0d814b7697f6, 0, -12"
      },
      "latestPrice(address,uint256)": {
        "notice": "decimalPlaces How many decimal places are already included in the numbers Uniswap returns.  So, `decimalPlaces = 3` means when Uniswap returns 12345, it actually represents 12.345 (ie, the last three digits were the decimal part). `decimalPlaces = -3` means when Uniswap returns 12345, it actually represents 12,345,000."
      }
    },
    "version": 1
  }
}