{
	"data": {
		"bytecode": {
			"linkReferences": {},
			"object": "60a06040523480156200001157600080fd5b5060405162001ca438038062001ca483398181016040528101906200003791906200008c565b8073ffffffffffffffffffffffffffffffffffffffff1660808173ffffffffffffffffffffffffffffffffffffffff1660601b815250505062000125565b60008151905062000086816200010b565b92915050565b600060208284031215620000a557620000a462000106565b5b6000620000b58482850162000075565b91505092915050565b6000620000cb82620000e6565b9050919050565b6000620000df82620000be565b9050919050565b600073ffffffffffffffffffffffffffffffffffffffff82169050919050565b600080fd5b6200011681620000d2565b81146200012257600080fd5b50565b60805160601c611b53620001516000396000818160f5015281816101ed01526102d20152611b536000f3fe608060405234801561001057600080fd5b506004361061004c5760003560e01c806358de3500146100515780637ca25184146100825780638bdb2afa146100a0578063fa0abbaa146100be575b600080fd5b61006b600480360381019061006691906111d8565b6100ee565b60405161007992919061143c565b60405180910390f35b61008a6102cb565b604051610097919061151d565b60405180910390f35b6100a86102d0565b6040516100b59190611487565b60405180910390f35b6100d860048036038101906100d39190611185565b6102f4565b6040516100e59190611502565b60405180910390f35b60008060007f000000000000000000000000000000000000000000000000000000000000000073ffffffffffffffffffffffffffffffffffffffff16631698ee8286736b175474e89094c44da98b954eedeac495271d0f876040518463ffffffff1660e01b815260040161016493929190611405565b60206040518083038186803b15801561017c57600080fd5b505afa158015610190573d6000803e3d6000fd5b505050506040513d601f19601f820116820180604052508101906101b49190611158565b9050600073ffffffffffffffffffffffffffffffffffffffff168173ffffffffffffffffffffffffffffffffffffffff1614156102bb577f000000000000000000000000000000000000000000000000000000000000000073ffffffffffffffffffffffffffffffffffffffff16631698ee828673c02aaa39b223fe8d0a0e5c4f27ead9083c756cc2876040518463ffffffff1660e01b815260040161025c93929190611405565b60206040518083038186803b15801561027457600080fd5b505afa158015610288573d6000803e3d6000fd5b505050506040513d601f19601f820116820180604052508101906102ac9190611158565b905080600192509250506102c4565b80600092509250505b9250929050565b60b481565b7f000000000000000000000000000000000000000000000000000000000000000081565b6000808214806103045750600182145b610343576040517f08c379a000000000000000000000000000000000000000000000000000000000815260040161033a906114e2565b60405180910390fd5b60008373ffffffffffffffffffffffffffffffffffffffff1663313ce5676040518163ffffffff1660e01b815260040160206040518083038186803b15801561038b57600080fd5b505afa15801561039f573d6000803e3d6000fd5b505050506040513d601f19601f820116820180604052508101906103c39190611290565b60000b905060008114156103d657601290505b60008082121561040e57816103ea906118e1565b600a6103f69190611683565b670de0b6b3a764000061040991906117a1565b61042f565b81600a61041b9190611683565b670de0b6b3a764000061042e91906115ff565b5b9050600061043e8760b4610666565b9050600185146105535761054e81838973ffffffffffffffffffffffffffffffffffffffff16630dfe16816040518163ffffffff1660e01b815260040160206040518083038186803b15801561049357600080fd5b505afa1580156104a7573d6000803e3d6000fd5b505050506040513d601f19601f820116820180604052508101906104cb9190611158565b8a73ffffffffffffffffffffffffffffffffffffffff1663d21220a76040518163ffffffff1660e01b815260040160206040518083038186803b15801561051157600080fd5b505afa158015610525573d6000803e3d6000fd5b505050506040513d601f19601f820116820180604052508101906105499190611158565b610898565b61065a565b61065981838973ffffffffffffffffffffffffffffffffffffffff1663d21220a76040518163ffffffff1660e01b815260040160206040518083038186803b15801561059e57600080fd5b505afa1580156105b2573d6000803e3d6000fd5b505050506040513d601f19601f820116820180604052508101906105d69190611158565b8a73ffffffffffffffffffffffffffffffffffffffff16630dfe16816040518163ffffffff1660e01b815260040160206040518083038186803b15801561061c57600080fd5b505afa158015610630573d6000803e3d6000fd5b505050506040513d601f19601f820116820180604052508101906106549190611158565b610898565b5b93505050509392505050565b6000808263ffffffff1614156106b1576040517f08c379a00000000000000000000000000000000000000000000000000000000081526004016106a8906114a2565b60405180910390fd5b6000600267ffffffffffffffff8111156106ce576106cd6119b7565b5b6040519080825280602002602001820160405280156106fc5781602001602082028036833780820191505090505b509050828160008151811061071457610713611988565b5b602002602001019063ffffffff16908163ffffffff168152505060008160018151811061074457610743611988565b5b602002602001019063ffffffff16908163ffffffff168152505060008473ffffffffffffffffffffffffffffffffffffffff1663883bdbfd836040518263ffffffff1660e01b81526004016107999190611465565b60006040518083038186803b1580156107b157600080fd5b505afa1580156107c5573d6000803e3d6000fd5b505050506040513d6000823e3d601f19601f820116820180604052508101906107ee9190611218565b50905060008160008151811061080757610806611988565b5b60200260200101518260018151811061082357610822611988565b5b60200260200101510390508463ffffffff1660060b8160060b8161084a57610849611959565b5b05935060008160060b128015610880575060008563ffffffff1660060b8260060b8161087957610878611959565b5b0760060b14155b1561088f578380600190039450505b50505092915050565b6000806108a486610a9b565b90506fffffffffffffffffffffffffffffffff80168173ffffffffffffffffffffffffffffffffffffffff16116109b55760008173ffffffffffffffffffffffffffffffffffffffff168273ffffffffffffffffffffffffffffffffffffffff160290508373ffffffffffffffffffffffffffffffffffffffff168573ffffffffffffffffffffffffffffffffffffffff1610610976576109717801000000000000000000000000000000000000000000000000876fffffffffffffffffffffffffffffffff1683610eae565b6109ad565b6109ac81876fffffffffffffffffffffffffffffffff167801000000000000000000000000000000000000000000000000610eae565b5b925050610a92565b60006109f78273ffffffffffffffffffffffffffffffffffffffff168373ffffffffffffffffffffffffffffffffffffffff1668010000000000000000610eae565b90508373ffffffffffffffffffffffffffffffffffffffff168573ffffffffffffffffffffffffffffffffffffffff1610610a5f57610a5a700100000000000000000000000000000000876fffffffffffffffffffffffffffffffff1683610eae565b610a8e565b610a8d81876fffffffffffffffffffffffffffffffff16700100000000000000000000000000000000610eae565b5b9250505b50949350505050565b60008060008360020b12610ab2578260020b610aba565b8260020b6000035b90507ffffffffffffffffffffffffffffffffffffffffffffffffffffffffffff27618600003811115610b22576040517f08c379a0000000000000000000000000000000000000000000000000000000008152600401610b19906114c2565b60405180910390fd5b600080600183161415610b4657700100000000000000000000000000000000610b58565b6ffffcb933bd6fad37aa2d162d1a5940015b70ffffffffffffffffffffffffffffffffff16905060006002831614610b925760806ffff97272373d413259a46990580e213a8202901c90505b60006004831614610bb75760806ffff2e50f5f656932ef12357cf3c7fdcc8202901c90505b60006008831614610bdc5760806fffe5caca7e10e4e61c3624eaa0941cd08202901c90505b60006010831614610c015760806fffcb9843d60f6159c9db58835c9266448202901c90505b60006020831614610c265760806fff973b41fa98c081472e6896dfb254c08202901c90505b60006040831614610c4b5760806fff2ea16466c96a3843ec78b326b528618202901c90505b60006080831614610c705760806ffe5dee046a99a2a811c461f1969c30538202901c90505b6000610100831614610c965760806ffcbe86c7900a88aedcffc83b479aa3a48202901c90505b6000610200831614610cbc5760806ff987a7253ac413176f2b074cf7815e548202901c90505b6000610400831614610ce25760806ff3392b0822b70005940c7a398e4b70f38202901c90505b6000610800831614610d085760806fe7159475a2c29b7443b29c7fa6e889d98202901c90505b6000611000831614610d2e5760806fd097f3bdfd2022b8845ad8f792aa58258202901c90505b6000612000831614610d545760806fa9f746462d870fdf8a65dc1f90e061e58202901c90505b6000614000831614610d7a5760806f70d869a156d2a1b890bb3df62baf32f78202901c90505b6000618000831614610da05760806f31be135f97d08fd981231505542fcfa68202901c90505b600062010000831614610dc75760806f09aa508b5b7a84e1c677de54f3e99bc98202901c90505b600062020000831614610ded5760806e5d6af8dedb81196699c329225ee6048202901c90505b600062040000831614610e125760806d2216e584f5fa1ea926041bedfe988202901c90505b600062080000831614610e355760806b048a170391f7dc42444e8fa28202901c90505b60008460020b1315610e7557807fffffffffffffffffffffffffffffffffffffffffffffffffffffffffffffffff81610e7157610e70611959565b5b0490505b60006401000000008281610e8c57610e8b611959565b5b0614610e99576001610e9c565b60005b60ff16602082901c0192505050919050565b600080600080198587098587029250828110838203039150506000811415610ee95760008411610edd57600080fd5b83820492505050610f82565b808411610ef557600080fd5b60008486880990508281118203915080830392506000856001871901169050808604955080840493506001818260000304019050808302841793506000600287600302189050808702600203810290508087026002038102905080870260020381029050808702600203810290508087026002038102905080870260020381029050808502955050505050505b9392505050565b6000610f9c610f978461155d565b611538565b90508083825260208201905082856020860282011115610fbf57610fbe6119eb565b5b60005b85811015610fef5781610fd588826110ef565b845260208401935060208301925050600181019050610fc2565b5050509392505050565b600061100c61100784611589565b611538565b9050808382526020820190508285602086028201111561102f5761102e6119eb565b5b60005b8581101561105f57816110458882611104565b845260208401935060208301925050600181019050611032565b5050509392505050565b60008135905061107881611a93565b92915050565b60008151905061108d81611a93565b92915050565b600082601f8301126110a8576110a76119e6565b5b81516110b8848260208601610f89565b91505092915050565b600082601f8301126110d6576110d56119e6565b5b81516110e6848260208601610ff9565b91505092915050565b6000815190506110fe81611aaa565b92915050565b60008151905061111381611ac1565b92915050565b60008135905061112881611ad8565b92915050565b60008135905061113d81611aef565b92915050565b60008151905061115281611b06565b92915050565b60006020828403121561116e5761116d6119f5565b5b600061117c8482850161107e565b91505092915050565b60008060006060848603121561119e5761119d6119f5565b5b60006111ac86828701611069565b93505060206111bd86828701611069565b92505060406111ce8682870161112e565b9150509250925092565b600080604083850312156111ef576111ee6119f5565b5b60006111fd85828601611069565b925050602061120e85828601611119565b9150509250929050565b6000806040838503121561122f5761122e6119f5565b5b600083015167ffffffffffffffff81111561124d5761124c6119f0565b5b61125985828601611093565b925050602083015167ffffffffffffffff81111561127a576112796119f0565b5b611286858286016110c1565b9150509250929050565b6000602082840312156112a6576112a56119f5565b5b60006112b484828501611143565b91505092915050565b60006112c983836113d8565b60208301905092915050565b6112de816117fb565b82525050565b60006112ef826115c5565b6112f981856115dd565b9350611304836115b5565b8060005b8381101561133557815161131c88826112bd565b9750611327836115d0565b925050600181019050611308565b5085935050505092915050565b61134b8161187a565b82525050565b600061135e6002836115ee565b915061136982611a18565b602082019050919050565b60006113816001836115ee565b915061138c82611a41565b602082019050919050565b60006113a46017836115ee565b91506113af82611a6a565b602082019050919050565b6113c381611844565b82525050565b6113d281611853565b82525050565b6113e18161185d565b82525050565b6113f08161185d565b82525050565b6113ff8161186d565b82525050565b600060608201905061141a60008301866112d5565b61142760208301856112d5565b61143460408301846113ba565b949350505050565b600060408201905061145160008301856112d5565b61145e60208301846113f6565b9392505050565b6000602082019050818103600083015261147f81846112e4565b905092915050565b600060208201905061149c6000830184611342565b92915050565b600060208201905081810360008301526114bb81611351565b9050919050565b600060208201905081810360008301526114db81611374565b9050919050565b600060208201905081810360008301526114fb81611397565b9050919050565b600060208201905061151760008301846113c9565b92915050565b600060208201905061153260008301846113e7565b92915050565b6000611542611553565b905061154e82826118b0565b919050565b6000604051905090565b600067ffffffffffffffff821115611578576115776119b7565b5b602082029050602081019050919050565b600067ffffffffffffffff8211156115a4576115a36119b7565b5b602082029050602081019050919050565b6000819050602082019050919050565b600081519050919050565b6000602082019050919050565b600082825260208201905092915050565b600082825260208201905092915050565b600061160a82611853565b915061161583611853565b92508261162557611624611959565b5b828204905092915050565b6000808291508390505b600185111561167a578086048111156116565761165561192a565b5b60018516156116655780820291505b808102905061167385611a0b565b945061163a565b94509492505050565b600061168e82611853565b915061169983611853565b92506116c67fffffffffffffffffffffffffffffffffffffffffffffffffffffffffffffffff84846116ce565b905092915050565b6000826116de576001905061179a565b816116ec576000905061179a565b8160018114611702576002811461170c5761173b565b600191505061179a565b60ff84111561171e5761171d61192a565b5b8360020a9150848211156117355761173461192a565b5b5061179a565b5060208310610133831016604e8410600b84101617156117705782820a90508381111561176b5761176a61192a565b5b61179a565b61177d8484846001611630565b925090508184048111156117945761179361192a565b5b81810290505b9392505050565b60006117ac82611853565b91506117b783611853565b9250817fffffffffffffffffffffffffffffffffffffffffffffffffffffffffffffffff04831182151516156117f0576117ef61192a565b5b828202905092915050565b600061180682611824565b9050919050565b6000819050919050565b60008160060b9050919050565b600073ffffffffffffffffffffffffffffffffffffffff82169050919050565b600062ffffff82169050919050565b6000819050919050565b600063ffffffff82169050919050565b600060ff82169050919050565b60006118858261188c565b9050919050565b60006118978261189e565b9050919050565b60006118a982611824565b9050919050565b6118b9826119fa565b810181811067ffffffffffffffff821117156118d8576118d76119b7565b5b80604052505050565b60006118ec8261180d565b91507f800000000000000000000000000000000000000000000000000000000000000082141561191f5761191e61192a565b5b816000039050919050565b7f4e487b7100000000000000000000000000000000000000000000000000000000600052601160045260246000fd5b7f4e487b7100000000000000000000000000000000000000000000000000000000600052601260045260246000fd5b7f4e487b7100000000000000000000000000000000000000000000000000000000600052603260045260246000fd5b7f4e487b7100000000000000000000000000000000000000000000000000000000600052604160045260246000fd5b600080fd5b600080fd5b600080fd5b600080fd5b6000601f19601f8301169050919050565b60008160011c9050919050565b7f4250000000000000000000000000000000000000000000000000000000000000600082015250565b7f5400000000000000000000000000000000000000000000000000000000000000600082015250565b7f746f6b656e546f5072696365206e6f742030206f722031000000000000000000600082015250565b611a9c816117fb565b8114611aa757600080fd5b50565b611ab381611817565b8114611abe57600080fd5b50565b611aca81611824565b8114611ad557600080fd5b50565b611ae181611844565b8114611aec57600080fd5b50565b611af881611853565b8114611b0357600080fd5b50565b611b0f8161186d565b8114611b1a57600080fd5b5056fea2646970667358221220772a9bae868a7c59ea1ba0f60bf78ccdf9e7e6692e3f5379d0616d14605d676364736f6c63430008070033",
			"opcodes": "PUSH1 0xA0 PUSH1 0x40 MSTORE CALLVALUE DUP1 ISZERO PUSH3 0x11 JUMPI PUSH1 0x0 DUP1 REVERT JUMPDEST POP PUSH1 0x40 MLOAD PUSH3 0x1CA4 CODESIZE SUB DUP1 PUSH3 0x1CA4 DUP4 CODECOPY DUP2 DUP2 ADD PUSH1 0x40 MSTORE DUP2 ADD SWAP1 PUSH3 0x37 SWAP2 SWAP1 PUSH3 0x8C JUMP JUMPDEST DUP1 PUSH20 0xFFFFFFFFFFFFFFFFFFFFFFFFFFFFFFFFFFFFFFFF AND PUSH1 0x80 DUP2 PUSH20 0xFFFFFFFFFFFFFFFFFFFFFFFFFFFFFFFFFFFFFFFF AND PUSH1 0x60 SHL DUP2 MSTORE POP POP POP PUSH3 0x125 JUMP JUMPDEST PUSH1 0x0 DUP2 MLOAD SWAP1 POP PUSH3 0x86 DUP2 PUSH3 0x10B JUMP JUMPDEST SWAP3 SWAP2 POP POP JUMP JUMPDEST PUSH1 0x0 PUSH1 0x20 DUP3 DUP5 SUB SLT ISZERO PUSH3 0xA5 JUMPI PUSH3 0xA4 PUSH3 0x106 JUMP JUMPDEST JUMPDEST PUSH1 0x0 PUSH3 0xB5 DUP5 DUP3 DUP6 ADD PUSH3 0x75 JUMP JUMPDEST SWAP2 POP POP SWAP3 SWAP2 POP POP JUMP JUMPDEST PUSH1 0x0 PUSH3 0xCB DUP3 PUSH3 0xE6 JUMP JUMPDEST SWAP1 POP SWAP2 SWAP1 POP JUMP JUMPDEST PUSH1 0x0 PUSH3 0xDF DUP3 PUSH3 0xBE JUMP JUMPDEST SWAP1 POP SWAP2 SWAP1 POP JUMP JUMPDEST PUSH1 0x0 PUSH20 0xFFFFFFFFFFFFFFFFFFFFFFFFFFFFFFFFFFFFFFFF DUP3 AND SWAP1 POP SWAP2 SWAP1 POP JUMP JUMPDEST PUSH1 0x0 DUP1 REVERT JUMPDEST PUSH3 0x116 DUP2 PUSH3 0xD2 JUMP JUMPDEST DUP2 EQ PUSH3 0x122 JUMPI PUSH1 0x0 DUP1 REVERT JUMPDEST POP JUMP JUMPDEST PUSH1 0x80 MLOAD PUSH1 0x60 SHR PUSH2 0x1B53 PUSH3 0x151 PUSH1 0x0 CODECOPY PUSH1 0x0 DUP2 DUP2 PUSH1 0xF5 ADD MSTORE DUP2 DUP2 PUSH2 0x1ED ADD MSTORE PUSH2 0x2D2 ADD MSTORE PUSH2 0x1B53 PUSH1 0x0 RETURN INVALID PUSH1 0x80 PUSH1 0x40 MSTORE CALLVALUE DUP1 ISZERO PUSH2 0x10 JUMPI PUSH1 0x0 DUP1 REVERT JUMPDEST POP PUSH1 0x4 CALLDATASIZE LT PUSH2 0x4C JUMPI PUSH1 0x0 CALLDATALOAD PUSH1 0xE0 SHR DUP1 PUSH4 0x58DE3500 EQ PUSH2 0x51 JUMPI DUP1 PUSH4 0x7CA25184 EQ PUSH2 0x82 JUMPI DUP1 PUSH4 0x8BDB2AFA EQ PUSH2 0xA0 JUMPI DUP1 PUSH4 0xFA0ABBAA EQ PUSH2 0xBE JUMPI JUMPDEST PUSH1 0x0 DUP1 REVERT JUMPDEST PUSH2 0x6B PUSH1 0x4 DUP1 CALLDATASIZE SUB DUP2 ADD SWAP1 PUSH2 0x66 SWAP2 SWAP1 PUSH2 0x11D8 JUMP JUMPDEST PUSH2 0xEE JUMP JUMPDEST PUSH1 0x40 MLOAD PUSH2 0x79 SWAP3 SWAP2 SWAP1 PUSH2 0x143C JUMP JUMPDEST PUSH1 0x40 MLOAD DUP1 SWAP2 SUB SWAP1 RETURN JUMPDEST PUSH2 0x8A PUSH2 0x2CB JUMP JUMPDEST PUSH1 0x40 MLOAD PUSH2 0x97 SWAP2 SWAP1 PUSH2 0x151D JUMP JUMPDEST PUSH1 0x40 MLOAD DUP1 SWAP2 SUB SWAP1 RETURN JUMPDEST PUSH2 0xA8 PUSH2 0x2D0 JUMP JUMPDEST PUSH1 0x40 MLOAD PUSH2 0xB5 SWAP2 SWAP1 PUSH2 0x1487 JUMP JUMPDEST PUSH1 0x40 MLOAD DUP1 SWAP2 SUB SWAP1 RETURN JUMPDEST PUSH2 0xD8 PUSH1 0x4 DUP1 CALLDATASIZE SUB DUP2 ADD SWAP1 PUSH2 0xD3 SWAP2 SWAP1 PUSH2 0x1185 JUMP JUMPDEST PUSH2 0x2F4 JUMP JUMPDEST PUSH1 0x40 MLOAD PUSH2 0xE5 SWAP2 SWAP1 PUSH2 0x1502 JUMP JUMPDEST PUSH1 0x40 MLOAD DUP1 SWAP2 SUB SWAP1 RETURN JUMPDEST PUSH1 0x0 DUP1 PUSH1 0x0 PUSH32 0x0 PUSH20 0xFFFFFFFFFFFFFFFFFFFFFFFFFFFFFFFFFFFFFFFF AND PUSH4 0x1698EE82 DUP7 PUSH20 0x6B175474E89094C44DA98B954EEDEAC495271D0F DUP8 PUSH1 0x40 MLOAD DUP5 PUSH4 0xFFFFFFFF AND PUSH1 0xE0 SHL DUP2 MSTORE PUSH1 0x4 ADD PUSH2 0x164 SWAP4 SWAP3 SWAP2 SWAP1 PUSH2 0x1405 JUMP JUMPDEST PUSH1 0x20 PUSH1 0x40 MLOAD DUP1 DUP4 SUB DUP2 DUP7 DUP1 EXTCODESIZE ISZERO DUP1 ISZERO PUSH2 0x17C JUMPI PUSH1 0x0 DUP1 REVERT JUMPDEST POP GAS STATICCALL ISZERO DUP1 ISZERO PUSH2 0x190 JUMPI RETURNDATASIZE PUSH1 0x0 DUP1 RETURNDATACOPY RETURNDATASIZE PUSH1 0x0 REVERT JUMPDEST POP POP POP POP PUSH1 0x40 MLOAD RETURNDATASIZE PUSH1 0x1F NOT PUSH1 0x1F DUP3 ADD AND DUP3 ADD DUP1 PUSH1 0x40 MSTORE POP DUP2 ADD SWAP1 PUSH2 0x1B4 SWAP2 SWAP1 PUSH2 0x1158 JUMP JUMPDEST SWAP1 POP PUSH1 0x0 PUSH20 0xFFFFFFFFFFFFFFFFFFFFFFFFFFFFFFFFFFFFFFFF AND DUP2 PUSH20 0xFFFFFFFFFFFFFFFFFFFFFFFFFFFFFFFFFFFFFFFF AND EQ ISZERO PUSH2 0x2BB JUMPI PUSH32 0x0 PUSH20 0xFFFFFFFFFFFFFFFFFFFFFFFFFFFFFFFFFFFFFFFF AND PUSH4 0x1698EE82 DUP7 PUSH20 0xC02AAA39B223FE8D0A0E5C4F27EAD9083C756CC2 DUP8 PUSH1 0x40 MLOAD DUP5 PUSH4 0xFFFFFFFF AND PUSH1 0xE0 SHL DUP2 MSTORE PUSH1 0x4 ADD PUSH2 0x25C SWAP4 SWAP3 SWAP2 SWAP1 PUSH2 0x1405 JUMP JUMPDEST PUSH1 0x20 PUSH1 0x40 MLOAD DUP1 DUP4 SUB DUP2 DUP7 DUP1 EXTCODESIZE ISZERO DUP1 ISZERO PUSH2 0x274 JUMPI PUSH1 0x0 DUP1 REVERT JUMPDEST POP GAS STATICCALL ISZERO DUP1 ISZERO PUSH2 0x288 JUMPI RETURNDATASIZE PUSH1 0x0 DUP1 RETURNDATACOPY RETURNDATASIZE PUSH1 0x0 REVERT JUMPDEST POP POP POP POP PUSH1 0x40 MLOAD RETURNDATASIZE PUSH1 0x1F NOT PUSH1 0x1F DUP3 ADD AND DUP3 ADD DUP1 PUSH1 0x40 MSTORE POP DUP2 ADD SWAP1 PUSH2 0x2AC SWAP2 SWAP1 PUSH2 0x1158 JUMP JUMPDEST SWAP1 POP DUP1 PUSH1 0x1 SWAP3 POP SWAP3 POP POP PUSH2 0x2C4 JUMP JUMPDEST DUP1 PUSH1 0x0 SWAP3 POP SWAP3 POP POP JUMPDEST SWAP3 POP SWAP3 SWAP1 POP JUMP JUMPDEST PUSH1 0xB4 DUP2 JUMP JUMPDEST PUSH32 0x0 DUP2 JUMP JUMPDEST PUSH1 0x0 DUP1 DUP3 EQ DUP1 PUSH2 0x304 JUMPI POP PUSH1 0x1 DUP3 EQ JUMPDEST PUSH2 0x343 JUMPI PUSH1 0x40 MLOAD PUSH32 0x8C379A000000000000000000000000000000000000000000000000000000000 DUP2 MSTORE PUSH1 0x4 ADD PUSH2 0x33A SWAP1 PUSH2 0x14E2 JUMP JUMPDEST PUSH1 0x40 MLOAD DUP1 SWAP2 SUB SWAP1 REVERT JUMPDEST PUSH1 0x0 DUP4 PUSH20 0xFFFFFFFFFFFFFFFFFFFFFFFFFFFFFFFFFFFFFFFF AND PUSH4 0x313CE567 PUSH1 0x40 MLOAD DUP2 PUSH4 0xFFFFFFFF AND PUSH1 0xE0 SHL DUP2 MSTORE PUSH1 0x4 ADD PUSH1 0x20 PUSH1 0x40 MLOAD DUP1 DUP4 SUB DUP2 DUP7 DUP1 EXTCODESIZE ISZERO DUP1 ISZERO PUSH2 0x38B JUMPI PUSH1 0x0 DUP1 REVERT JUMPDEST POP GAS STATICCALL ISZERO DUP1 ISZERO PUSH2 0x39F JUMPI RETURNDATASIZE PUSH1 0x0 DUP1 RETURNDATACOPY RETURNDATASIZE PUSH1 0x0 REVERT JUMPDEST POP POP POP POP PUSH1 0x40 MLOAD RETURNDATASIZE PUSH1 0x1F NOT PUSH1 0x1F DUP3 ADD AND DUP3 ADD DUP1 PUSH1 0x40 MSTORE POP DUP2 ADD SWAP1 PUSH2 0x3C3 SWAP2 SWAP1 PUSH2 0x1290 JUMP JUMPDEST PUSH1 0x0 SIGNEXTEND SWAP1 POP PUSH1 0x0 DUP2 EQ ISZERO PUSH2 0x3D6 JUMPI PUSH1 0x12 SWAP1 POP JUMPDEST PUSH1 0x0 DUP1 DUP3 SLT ISZERO PUSH2 0x40E JUMPI DUP2 PUSH2 0x3EA SWAP1 PUSH2 0x18E1 JUMP JUMPDEST PUSH1 0xA PUSH2 0x3F6 SWAP2 SWAP1 PUSH2 0x1683 JUMP JUMPDEST PUSH8 0xDE0B6B3A7640000 PUSH2 0x409 SWAP2 SWAP1 PUSH2 0x17A1 JUMP JUMPDEST PUSH2 0x42F JUMP JUMPDEST DUP2 PUSH1 0xA PUSH2 0x41B SWAP2 SWAP1 PUSH2 0x1683 JUMP JUMPDEST PUSH8 0xDE0B6B3A7640000 PUSH2 0x42E SWAP2 SWAP1 PUSH2 0x15FF JUMP JUMPDEST JUMPDEST SWAP1 POP PUSH1 0x0 PUSH2 0x43E DUP8 PUSH1 0xB4 PUSH2 0x666 JUMP JUMPDEST SWAP1 POP PUSH1 0x1 DUP6 EQ PUSH2 0x553 JUMPI PUSH2 0x54E DUP2 DUP4 DUP10 PUSH20 0xFFFFFFFFFFFFFFFFFFFFFFFFFFFFFFFFFFFFFFFF AND PUSH4 0xDFE1681 PUSH1 0x40 MLOAD DUP2 PUSH4 0xFFFFFFFF AND PUSH1 0xE0 SHL DUP2 MSTORE PUSH1 0x4 ADD PUSH1 0x20 PUSH1 0x40 MLOAD DUP1 DUP4 SUB DUP2 DUP7 DUP1 EXTCODESIZE ISZERO DUP1 ISZERO PUSH2 0x493 JUMPI PUSH1 0x0 DUP1 REVERT JUMPDEST POP GAS STATICCALL ISZERO DUP1 ISZERO PUSH2 0x4A7 JUMPI RETURNDATASIZE PUSH1 0x0 DUP1 RETURNDATACOPY RETURNDATASIZE PUSH1 0x0 REVERT JUMPDEST POP POP POP POP PUSH1 0x40 MLOAD RETURNDATASIZE PUSH1 0x1F NOT PUSH1 0x1F DUP3 ADD AND DUP3 ADD DUP1 PUSH1 0x40 MSTORE POP DUP2 ADD SWAP1 PUSH2 0x4CB SWAP2 SWAP1 PUSH2 0x1158 JUMP JUMPDEST DUP11 PUSH20 0xFFFFFFFFFFFFFFFFFFFFFFFFFFFFFFFFFFFFFFFF AND PUSH4 0xD21220A7 PUSH1 0x40 MLOAD DUP2 PUSH4 0xFFFFFFFF AND PUSH1 0xE0 SHL DUP2 MSTORE PUSH1 0x4 ADD PUSH1 0x20 PUSH1 0x40 MLOAD DUP1 DUP4 SUB DUP2 DUP7 DUP1 EXTCODESIZE ISZERO DUP1 ISZERO PUSH2 0x511 JUMPI PUSH1 0x0 DUP1 REVERT JUMPDEST POP GAS STATICCALL ISZERO DUP1 ISZERO PUSH2 0x525 JUMPI RETURNDATASIZE PUSH1 0x0 DUP1 RETURNDATACOPY RETURNDATASIZE PUSH1 0x0 REVERT JUMPDEST POP POP POP POP PUSH1 0x40 MLOAD RETURNDATASIZE PUSH1 0x1F NOT PUSH1 0x1F DUP3 ADD AND DUP3 ADD DUP1 PUSH1 0x40 MSTORE POP DUP2 ADD SWAP1 PUSH2 0x549 SWAP2 SWAP1 PUSH2 0x1158 JUMP JUMPDEST PUSH2 0x898 JUMP JUMPDEST PUSH2 0x65A JUMP JUMPDEST PUSH2 0x659 DUP2 DUP4 DUP10 PUSH20 0xFFFFFFFFFFFFFFFFFFFFFFFFFFFFFFFFFFFFFFFF AND PUSH4 0xD21220A7 PUSH1 0x40 MLOAD DUP2 PUSH4 0xFFFFFFFF AND PUSH1 0xE0 SHL DUP2 MSTORE PUSH1 0x4 ADD PUSH1 0x20 PUSH1 0x40 MLOAD DUP1 DUP4 SUB DUP2 DUP7 DUP1 EXTCODESIZE ISZERO DUP1 ISZERO PUSH2 0x59E JUMPI PUSH1 0x0 DUP1 REVERT JUMPDEST POP GAS STATICCALL ISZERO DUP1 ISZERO PUSH2 0x5B2 JUMPI RETURNDATASIZE PUSH1 0x0 DUP1 RETURNDATACOPY RETURNDATASIZE PUSH1 0x0 REVERT JUMPDEST POP POP POP POP PUSH1 0x40 MLOAD RETURNDATASIZE PUSH1 0x1F NOT PUSH1 0x1F DUP3 ADD AND DUP3 ADD DUP1 PUSH1 0x40 MSTORE POP DUP2 ADD SWAP1 PUSH2 0x5D6 SWAP2 SWAP1 PUSH2 0x1158 JUMP JUMPDEST DUP11 PUSH20 0xFFFFFFFFFFFFFFFFFFFFFFFFFFFFFFFFFFFFFFFF AND PUSH4 0xDFE1681 PUSH1 0x40 MLOAD DUP2 PUSH4 0xFFFFFFFF AND PUSH1 0xE0 SHL DUP2 MSTORE PUSH1 0x4 ADD PUSH1 0x20 PUSH1 0x40 MLOAD DUP1 DUP4 SUB DUP2 DUP7 DUP1 EXTCODESIZE ISZERO DUP1 ISZERO PUSH2 0x61C JUMPI PUSH1 0x0 DUP1 REVERT JUMPDEST POP GAS STATICCALL ISZERO DUP1 ISZERO PUSH2 0x630 JUMPI RETURNDATASIZE PUSH1 0x0 DUP1 RETURNDATACOPY RETURNDATASIZE PUSH1 0x0 REVERT JUMPDEST POP POP POP POP PUSH1 0x40 MLOAD RETURNDATASIZE PUSH1 0x1F NOT PUSH1 0x1F DUP3 ADD AND DUP3 ADD DUP1 PUSH1 0x40 MSTORE POP DUP2 ADD SWAP1 PUSH2 0x654 SWAP2 SWAP1 PUSH2 0x1158 JUMP JUMPDEST PUSH2 0x898 JUMP JUMPDEST JUMPDEST SWAP4 POP POP POP POP SWAP4 SWAP3 POP POP POP JUMP JUMPDEST PUSH1 0x0 DUP1 DUP3 PUSH4 0xFFFFFFFF AND EQ ISZERO PUSH2 0x6B1 JUMPI PUSH1 0x40 MLOAD PUSH32 0x8C379A000000000000000000000000000000000000000000000000000000000 DUP2 MSTORE PUSH1 0x4 ADD PUSH2 0x6A8 SWAP1 PUSH2 0x14A2 JUMP JUMPDEST PUSH1 0x40 MLOAD DUP1 SWAP2 SUB SWAP1 REVERT JUMPDEST PUSH1 0x0 PUSH1 0x2 PUSH8 0xFFFFFFFFFFFFFFFF DUP2 GT ISZERO PUSH2 0x6CE JUMPI PUSH2 0x6CD PUSH2 0x19B7 JUMP JUMPDEST JUMPDEST PUSH1 0x40 MLOAD SWAP1 DUP1 DUP3 MSTORE DUP1 PUSH1 0x20 MUL PUSH1 0x20 ADD DUP3 ADD PUSH1 0x40 MSTORE DUP1 ISZERO PUSH2 0x6FC JUMPI DUP2 PUSH1 0x20 ADD PUSH1 0x20 DUP3 MUL DUP1 CALLDATASIZE DUP4 CALLDATACOPY DUP1 DUP3 ADD SWAP2 POP POP SWAP1 POP JUMPDEST POP SWAP1 POP DUP3 DUP2 PUSH1 0x0 DUP2 MLOAD DUP2 LT PUSH2 0x714 JUMPI PUSH2 0x713 PUSH2 0x1988 JUMP JUMPDEST JUMPDEST PUSH1 0x20 MUL PUSH1 0x20 ADD ADD SWAP1 PUSH4 0xFFFFFFFF AND SWAP1 DUP2 PUSH4 0xFFFFFFFF AND DUP2 MSTORE POP POP PUSH1 0x0 DUP2 PUSH1 0x1 DUP2 MLOAD DUP2 LT PUSH2 0x744 JUMPI PUSH2 0x743 PUSH2 0x1988 JUMP JUMPDEST JUMPDEST PUSH1 0x20 MUL PUSH1 0x20 ADD ADD SWAP1 PUSH4 0xFFFFFFFF AND SWAP1 DUP2 PUSH4 0xFFFFFFFF AND DUP2 MSTORE POP POP PUSH1 0x0 DUP5 PUSH20 0xFFFFFFFFFFFFFFFFFFFFFFFFFFFFFFFFFFFFFFFF AND PUSH4 0x883BDBFD DUP4 PUSH1 0x40 MLOAD DUP3 PUSH4 0xFFFFFFFF AND PUSH1 0xE0 SHL DUP2 MSTORE PUSH1 0x4 ADD PUSH2 0x799 SWAP2 SWAP1 PUSH2 0x1465 JUMP JUMPDEST PUSH1 0x0 PUSH1 0x40 MLOAD DUP1 DUP4 SUB DUP2 DUP7 DUP1 EXTCODESIZE ISZERO DUP1 ISZERO PUSH2 0x7B1 JUMPI PUSH1 0x0 DUP1 REVERT JUMPDEST POP GAS STATICCALL ISZERO DUP1 ISZERO PUSH2 0x7C5 JUMPI RETURNDATASIZE PUSH1 0x0 DUP1 RETURNDATACOPY RETURNDATASIZE PUSH1 0x0 REVERT JUMPDEST POP POP POP POP PUSH1 0x40 MLOAD RETURNDATASIZE PUSH1 0x0 DUP3 RETURNDATACOPY RETURNDATASIZE PUSH1 0x1F NOT PUSH1 0x1F DUP3 ADD AND DUP3 ADD DUP1 PUSH1 0x40 MSTORE POP DUP2 ADD SWAP1 PUSH2 0x7EE SWAP2 SWAP1 PUSH2 0x1218 JUMP JUMPDEST POP SWAP1 POP PUSH1 0x0 DUP2 PUSH1 0x0 DUP2 MLOAD DUP2 LT PUSH2 0x807 JUMPI PUSH2 0x806 PUSH2 0x1988 JUMP JUMPDEST JUMPDEST PUSH1 0x20 MUL PUSH1 0x20 ADD ADD MLOAD DUP3 PUSH1 0x1 DUP2 MLOAD DUP2 LT PUSH2 0x823 JUMPI PUSH2 0x822 PUSH2 0x1988 JUMP JUMPDEST JUMPDEST PUSH1 0x20 MUL PUSH1 0x20 ADD ADD MLOAD SUB SWAP1 POP DUP5 PUSH4 0xFFFFFFFF AND PUSH1 0x6 SIGNEXTEND DUP2 PUSH1 0x6 SIGNEXTEND DUP2 PUSH2 0x84A JUMPI PUSH2 0x849 PUSH2 0x1959 JUMP JUMPDEST JUMPDEST SDIV SWAP4 POP PUSH1 0x0 DUP2 PUSH1 0x6 SIGNEXTEND SLT DUP1 ISZERO PUSH2 0x880 JUMPI POP PUSH1 0x0 DUP6 PUSH4 0xFFFFFFFF AND PUSH1 0x6 SIGNEXTEND DUP3 PUSH1 0x6 SIGNEXTEND DUP2 PUSH2 0x879 JUMPI PUSH2 0x878 PUSH2 0x1959 JUMP JUMPDEST JUMPDEST SMOD PUSH1 0x6 SIGNEXTEND EQ ISZERO JUMPDEST ISZERO PUSH2 0x88F JUMPI DUP4 DUP1 PUSH1 0x1 SWAP1 SUB SWAP5 POP POP JUMPDEST POP POP POP SWAP3 SWAP2 POP POP JUMP JUMPDEST PUSH1 0x0 DUP1 PUSH2 0x8A4 DUP7 PUSH2 0xA9B JUMP JUMPDEST SWAP1 POP PUSH16 0xFFFFFFFFFFFFFFFFFFFFFFFFFFFFFFFF DUP1 AND DUP2 PUSH20 0xFFFFFFFFFFFFFFFFFFFFFFFFFFFFFFFFFFFFFFFF AND GT PUSH2 0x9B5 JUMPI PUSH1 0x0 DUP2 PUSH20 0xFFFFFFFFFFFFFFFFFFFFFFFFFFFFFFFFFFFFFFFF AND DUP3 PUSH20 0xFFFFFFFFFFFFFFFFFFFFFFFFFFFFFFFFFFFFFFFF AND MUL SWAP1 POP DUP4 PUSH20 0xFFFFFFFFFFFFFFFFFFFFFFFFFFFFFFFFFFFFFFFF AND DUP6 PUSH20 0xFFFFFFFFFFFFFFFFFFFFFFFFFFFFFFFFFFFFFFFF AND LT PUSH2 0x976 JUMPI PUSH2 0x971 PUSH25 0x1000000000000000000000000000000000000000000000000 DUP8 PUSH16 0xFFFFFFFFFFFFFFFFFFFFFFFFFFFFFFFF AND DUP4 PUSH2 0xEAE JUMP JUMPDEST PUSH2 0x9AD JUMP JUMPDEST PUSH2 0x9AC DUP2 DUP8 PUSH16 0xFFFFFFFFFFFFFFFFFFFFFFFFFFFFFFFF AND PUSH25 0x1000000000000000000000000000000000000000000000000 PUSH2 0xEAE JUMP JUMPDEST JUMPDEST SWAP3 POP POP PUSH2 0xA92 JUMP JUMPDEST PUSH1 0x0 PUSH2 0x9F7 DUP3 PUSH20 0xFFFFFFFFFFFFFFFFFFFFFFFFFFFFFFFFFFFFFFFF AND DUP4 PUSH20 0xFFFFFFFFFFFFFFFFFFFFFFFFFFFFFFFFFFFFFFFF AND PUSH9 0x10000000000000000 PUSH2 0xEAE JUMP JUMPDEST SWAP1 POP DUP4 PUSH20 0xFFFFFFFFFFFFFFFFFFFFFFFFFFFFFFFFFFFFFFFF AND DUP6 PUSH20 0xFFFFFFFFFFFFFFFFFFFFFFFFFFFFFFFFFFFFFFFF AND LT PUSH2 0xA5F JUMPI PUSH2 0xA5A PUSH17 0x100000000000000000000000000000000 DUP8 PUSH16 0xFFFFFFFFFFFFFFFFFFFFFFFFFFFFFFFF AND DUP4 PUSH2 0xEAE JUMP JUMPDEST PUSH2 0xA8E JUMP JUMPDEST PUSH2 0xA8D DUP2 DUP8 PUSH16 0xFFFFFFFFFFFFFFFFFFFFFFFFFFFFFFFF AND PUSH17 0x100000000000000000000000000000000 PUSH2 0xEAE JUMP JUMPDEST JUMPDEST SWAP3 POP POP JUMPDEST POP SWAP5 SWAP4 POP POP POP POP JUMP JUMPDEST PUSH1 0x0 DUP1 PUSH1 0x0 DUP4 PUSH1 0x2 SIGNEXTEND SLT PUSH2 0xAB2 JUMPI DUP3 PUSH1 0x2 SIGNEXTEND PUSH2 0xABA JUMP JUMPDEST DUP3 PUSH1 0x2 SIGNEXTEND PUSH1 0x0 SUB JUMPDEST SWAP1 POP PUSH32 0xFFFFFFFFFFFFFFFFFFFFFFFFFFFFFFFFFFFFFFFFFFFFFFFFFFFFFFFFFFF27618 PUSH1 0x0 SUB DUP2 GT ISZERO PUSH2 0xB22 JUMPI PUSH1 0x40 MLOAD PUSH32 0x8C379A000000000000000000000000000000000000000000000000000000000 DUP2 MSTORE PUSH1 0x4 ADD PUSH2 0xB19 SWAP1 PUSH2 0x14C2 JUMP JUMPDEST PUSH1 0x40 MLOAD DUP1 SWAP2 SUB SWAP1 REVERT JUMPDEST PUSH1 0x0 DUP1 PUSH1 0x1 DUP4 AND EQ ISZERO PUSH2 0xB46 JUMPI PUSH17 0x100000000000000000000000000000000 PUSH2 0xB58 JUMP JUMPDEST PUSH16 0xFFFCB933BD6FAD37AA2D162D1A594001 JUMPDEST PUSH17 0xFFFFFFFFFFFFFFFFFFFFFFFFFFFFFFFFFF AND SWAP1 POP PUSH1 0x0 PUSH1 0x2 DUP4 AND EQ PUSH2 0xB92 JUMPI PUSH1 0x80 PUSH16 0xFFF97272373D413259A46990580E213A DUP3 MUL SWAP1 SHR SWAP1 POP JUMPDEST PUSH1 0x0 PUSH1 0x4 DUP4 AND EQ PUSH2 0xBB7 JUMPI PUSH1 0x80 PUSH16 0xFFF2E50F5F656932EF12357CF3C7FDCC DUP3 MUL SWAP1 SHR SWAP1 POP JUMPDEST PUSH1 0x0 PUSH1 0x8 DUP4 AND EQ PUSH2 0xBDC JUMPI PUSH1 0x80 PUSH16 0xFFE5CACA7E10E4E61C3624EAA0941CD0 DUP3 MUL SWAP1 SHR SWAP1 POP JUMPDEST PUSH1 0x0 PUSH1 0x10 DUP4 AND EQ PUSH2 0xC01 JUMPI PUSH1 0x80 PUSH16 0xFFCB9843D60F6159C9DB58835C926644 DUP3 MUL SWAP1 SHR SWAP1 POP JUMPDEST PUSH1 0x0 PUSH1 0x20 DUP4 AND EQ PUSH2 0xC26 JUMPI PUSH1 0x80 PUSH16 0xFF973B41FA98C081472E6896DFB254C0 DUP3 MUL SWAP1 SHR SWAP1 POP JUMPDEST PUSH1 0x0 PUSH1 0x40 DUP4 AND EQ PUSH2 0xC4B JUMPI PUSH1 0x80 PUSH16 0xFF2EA16466C96A3843EC78B326B52861 DUP3 MUL SWAP1 SHR SWAP1 POP JUMPDEST PUSH1 0x0 PUSH1 0x80 DUP4 AND EQ PUSH2 0xC70 JUMPI PUSH1 0x80 PUSH16 0xFE5DEE046A99A2A811C461F1969C3053 DUP3 MUL SWAP1 SHR SWAP1 POP JUMPDEST PUSH1 0x0 PUSH2 0x100 DUP4 AND EQ PUSH2 0xC96 JUMPI PUSH1 0x80 PUSH16 0xFCBE86C7900A88AEDCFFC83B479AA3A4 DUP3 MUL SWAP1 SHR SWAP1 POP JUMPDEST PUSH1 0x0 PUSH2 0x200 DUP4 AND EQ PUSH2 0xCBC JUMPI PUSH1 0x80 PUSH16 0xF987A7253AC413176F2B074CF7815E54 DUP3 MUL SWAP1 SHR SWAP1 POP JUMPDEST PUSH1 0x0 PUSH2 0x400 DUP4 AND EQ PUSH2 0xCE2 JUMPI PUSH1 0x80 PUSH16 0xF3392B0822B70005940C7A398E4B70F3 DUP3 MUL SWAP1 SHR SWAP1 POP JUMPDEST PUSH1 0x0 PUSH2 0x800 DUP4 AND EQ PUSH2 0xD08 JUMPI PUSH1 0x80 PUSH16 0xE7159475A2C29B7443B29C7FA6E889D9 DUP3 MUL SWAP1 SHR SWAP1 POP JUMPDEST PUSH1 0x0 PUSH2 0x1000 DUP4 AND EQ PUSH2 0xD2E JUMPI PUSH1 0x80 PUSH16 0xD097F3BDFD2022B8845AD8F792AA5825 DUP3 MUL SWAP1 SHR SWAP1 POP JUMPDEST PUSH1 0x0 PUSH2 0x2000 DUP4 AND EQ PUSH2 0xD54 JUMPI PUSH1 0x80 PUSH16 0xA9F746462D870FDF8A65DC1F90E061E5 DUP3 MUL SWAP1 SHR SWAP1 POP JUMPDEST PUSH1 0x0 PUSH2 0x4000 DUP4 AND EQ PUSH2 0xD7A JUMPI PUSH1 0x80 PUSH16 0x70D869A156D2A1B890BB3DF62BAF32F7 DUP3 MUL SWAP1 SHR SWAP1 POP JUMPDEST PUSH1 0x0 PUSH2 0x8000 DUP4 AND EQ PUSH2 0xDA0 JUMPI PUSH1 0x80 PUSH16 0x31BE135F97D08FD981231505542FCFA6 DUP3 MUL SWAP1 SHR SWAP1 POP JUMPDEST PUSH1 0x0 PUSH3 0x10000 DUP4 AND EQ PUSH2 0xDC7 JUMPI PUSH1 0x80 PUSH16 0x9AA508B5B7A84E1C677DE54F3E99BC9 DUP3 MUL SWAP1 SHR SWAP1 POP JUMPDEST PUSH1 0x0 PUSH3 0x20000 DUP4 AND EQ PUSH2 0xDED JUMPI PUSH1 0x80 PUSH15 0x5D6AF8DEDB81196699C329225EE604 DUP3 MUL SWAP1 SHR SWAP1 POP JUMPDEST PUSH1 0x0 PUSH3 0x40000 DUP4 AND EQ PUSH2 0xE12 JUMPI PUSH1 0x80 PUSH14 0x2216E584F5FA1EA926041BEDFE98 DUP3 MUL SWAP1 SHR SWAP1 POP JUMPDEST PUSH1 0x0 PUSH3 0x80000 DUP4 AND EQ PUSH2 0xE35 JUMPI PUSH1 0x80 PUSH12 0x48A170391F7DC42444E8FA2 DUP3 MUL SWAP1 SHR SWAP1 POP JUMPDEST PUSH1 0x0 DUP5 PUSH1 0x2 SIGNEXTEND SGT ISZERO PUSH2 0xE75 JUMPI DUP1 PUSH32 0xFFFFFFFFFFFFFFFFFFFFFFFFFFFFFFFFFFFFFFFFFFFFFFFFFFFFFFFFFFFFFFFF DUP2 PUSH2 0xE71 JUMPI PUSH2 0xE70 PUSH2 0x1959 JUMP JUMPDEST JUMPDEST DIV SWAP1 POP JUMPDEST PUSH1 0x0 PUSH5 0x100000000 DUP3 DUP2 PUSH2 0xE8C JUMPI PUSH2 0xE8B PUSH2 0x1959 JUMP JUMPDEST JUMPDEST MOD EQ PUSH2 0xE99 JUMPI PUSH1 0x1 PUSH2 0xE9C JUMP JUMPDEST PUSH1 0x0 JUMPDEST PUSH1 0xFF AND PUSH1 0x20 DUP3 SWAP1 SHR ADD SWAP3 POP POP POP SWAP2 SWAP1 POP JUMP JUMPDEST PUSH1 0x0 DUP1 PUSH1 0x0 DUP1 NOT DUP6 DUP8 MULMOD DUP6 DUP8 MUL SWAP3 POP DUP3 DUP2 LT DUP4 DUP3 SUB SUB SWAP2 POP POP PUSH1 0x0 DUP2 EQ ISZERO PUSH2 0xEE9 JUMPI PUSH1 0x0 DUP5 GT PUSH2 0xEDD JUMPI PUSH1 0x0 DUP1 REVERT JUMPDEST DUP4 DUP3 DIV SWAP3 POP POP POP PUSH2 0xF82 JUMP JUMPDEST DUP1 DUP5 GT PUSH2 0xEF5 JUMPI PUSH1 0x0 DUP1 REVERT JUMPDEST PUSH1 0x0 DUP5 DUP7 DUP9 MULMOD SWAP1 POP DUP3 DUP2 GT DUP3 SUB SWAP2 POP DUP1 DUP4 SUB SWAP3 POP PUSH1 0x0 DUP6 PUSH1 0x1 DUP8 NOT ADD AND SWAP1 POP DUP1 DUP7 DIV SWAP6 POP DUP1 DUP5 DIV SWAP4 POP PUSH1 0x1 DUP2 DUP3 PUSH1 0x0 SUB DIV ADD SWAP1 POP DUP1 DUP4 MUL DUP5 OR SWAP4 POP PUSH1 0x0 PUSH1 0x2 DUP8 PUSH1 0x3 MUL XOR SWAP1 POP DUP1 DUP8 MUL PUSH1 0x2 SUB DUP2 MUL SWAP1 POP DUP1 DUP8 MUL PUSH1 0x2 SUB DUP2 MUL SWAP1 POP DUP1 DUP8 MUL PUSH1 0x2 SUB DUP2 MUL SWAP1 POP DUP1 DUP8 MUL PUSH1 0x2 SUB DUP2 MUL SWAP1 POP DUP1 DUP8 MUL PUSH1 0x2 SUB DUP2 MUL SWAP1 POP DUP1 DUP8 MUL PUSH1 0x2 SUB DUP2 MUL SWAP1 POP DUP1 DUP6 MUL SWAP6 POP POP POP POP POP POP JUMPDEST SWAP4 SWAP3 POP POP POP JUMP JUMPDEST PUSH1 0x0 PUSH2 0xF9C PUSH2 0xF97 DUP5 PUSH2 0x155D JUMP JUMPDEST PUSH2 0x1538 JUMP JUMPDEST SWAP1 POP DUP1 DUP4 DUP3 MSTORE PUSH1 0x20 DUP3 ADD SWAP1 POP DUP3 DUP6 PUSH1 0x20 DUP7 MUL DUP3 ADD GT ISZERO PUSH2 0xFBF JUMPI PUSH2 0xFBE PUSH2 0x19EB JUMP JUMPDEST JUMPDEST PUSH1 0x0 JUMPDEST DUP6 DUP2 LT ISZERO PUSH2 0xFEF JUMPI DUP2 PUSH2 0xFD5 DUP9 DUP3 PUSH2 0x10EF JUMP JUMPDEST DUP5 MSTORE PUSH1 0x20 DUP5 ADD SWAP4 POP PUSH1 0x20 DUP4 ADD SWAP3 POP POP PUSH1 0x1 DUP2 ADD SWAP1 POP PUSH2 0xFC2 JUMP JUMPDEST POP POP POP SWAP4 SWAP3 POP POP POP JUMP JUMPDEST PUSH1 0x0 PUSH2 0x100C PUSH2 0x1007 DUP5 PUSH2 0x1589 JUMP JUMPDEST PUSH2 0x1538 JUMP JUMPDEST SWAP1 POP DUP1 DUP4 DUP3 MSTORE PUSH1 0x20 DUP3 ADD SWAP1 POP DUP3 DUP6 PUSH1 0x20 DUP7 MUL DUP3 ADD GT ISZERO PUSH2 0x102F JUMPI PUSH2 0x102E PUSH2 0x19EB JUMP JUMPDEST JUMPDEST PUSH1 0x0 JUMPDEST DUP6 DUP2 LT ISZERO PUSH2 0x105F JUMPI DUP2 PUSH2 0x1045 DUP9 DUP3 PUSH2 0x1104 JUMP JUMPDEST DUP5 MSTORE PUSH1 0x20 DUP5 ADD SWAP4 POP PUSH1 0x20 DUP4 ADD SWAP3 POP POP PUSH1 0x1 DUP2 ADD SWAP1 POP PUSH2 0x1032 JUMP JUMPDEST POP POP POP SWAP4 SWAP3 POP POP POP JUMP JUMPDEST PUSH1 0x0 DUP2 CALLDATALOAD SWAP1 POP PUSH2 0x1078 DUP2 PUSH2 0x1A93 JUMP JUMPDEST SWAP3 SWAP2 POP POP JUMP JUMPDEST PUSH1 0x0 DUP2 MLOAD SWAP1 POP PUSH2 0x108D DUP2 PUSH2 0x1A93 JUMP JUMPDEST SWAP3 SWAP2 POP POP JUMP JUMPDEST PUSH1 0x0 DUP3 PUSH1 0x1F DUP4 ADD SLT PUSH2 0x10A8 JUMPI PUSH2 0x10A7 PUSH2 0x19E6 JUMP JUMPDEST JUMPDEST DUP2 MLOAD PUSH2 0x10B8 DUP5 DUP3 PUSH1 0x20 DUP7 ADD PUSH2 0xF89 JUMP JUMPDEST SWAP2 POP POP SWAP3 SWAP2 POP POP JUMP JUMPDEST PUSH1 0x0 DUP3 PUSH1 0x1F DUP4 ADD SLT PUSH2 0x10D6 JUMPI PUSH2 0x10D5 PUSH2 0x19E6 JUMP JUMPDEST JUMPDEST DUP2 MLOAD PUSH2 0x10E6 DUP5 DUP3 PUSH1 0x20 DUP7 ADD PUSH2 0xFF9 JUMP JUMPDEST SWAP2 POP POP SWAP3 SWAP2 POP POP JUMP JUMPDEST PUSH1 0x0 DUP2 MLOAD SWAP1 POP PUSH2 0x10FE DUP2 PUSH2 0x1AAA JUMP JUMPDEST SWAP3 SWAP2 POP POP JUMP JUMPDEST PUSH1 0x0 DUP2 MLOAD SWAP1 POP PUSH2 0x1113 DUP2 PUSH2 0x1AC1 JUMP JUMPDEST SWAP3 SWAP2 POP POP JUMP JUMPDEST PUSH1 0x0 DUP2 CALLDATALOAD SWAP1 POP PUSH2 0x1128 DUP2 PUSH2 0x1AD8 JUMP JUMPDEST SWAP3 SWAP2 POP POP JUMP JUMPDEST PUSH1 0x0 DUP2 CALLDATALOAD SWAP1 POP PUSH2 0x113D DUP2 PUSH2 0x1AEF JUMP JUMPDEST SWAP3 SWAP2 POP POP JUMP JUMPDEST PUSH1 0x0 DUP2 MLOAD SWAP1 POP PUSH2 0x1152 DUP2 PUSH2 0x1B06 JUMP JUMPDEST SWAP3 SWAP2 POP POP JUMP JUMPDEST PUSH1 0x0 PUSH1 0x20 DUP3 DUP5 SUB SLT ISZERO PUSH2 0x116E JUMPI PUSH2 0x116D PUSH2 0x19F5 JUMP JUMPDEST JUMPDEST PUSH1 0x0 PUSH2 0x117C DUP5 DUP3 DUP6 ADD PUSH2 0x107E JUMP JUMPDEST SWAP2 POP POP SWAP3 SWAP2 POP POP JUMP JUMPDEST PUSH1 0x0 DUP1 PUSH1 0x0 PUSH1 0x60 DUP5 DUP7 SUB SLT ISZERO PUSH2 0x119E JUMPI PUSH2 0x119D PUSH2 0x19F5 JUMP JUMPDEST JUMPDEST PUSH1 0x0 PUSH2 0x11AC DUP7 DUP3 DUP8 ADD PUSH2 0x1069 JUMP JUMPDEST SWAP4 POP POP PUSH1 0x20 PUSH2 0x11BD DUP7 DUP3 DUP8 ADD PUSH2 0x1069 JUMP JUMPDEST SWAP3 POP POP PUSH1 0x40 PUSH2 0x11CE DUP7 DUP3 DUP8 ADD PUSH2 0x112E JUMP JUMPDEST SWAP2 POP POP SWAP3 POP SWAP3 POP SWAP3 JUMP JUMPDEST PUSH1 0x0 DUP1 PUSH1 0x40 DUP4 DUP6 SUB SLT ISZERO PUSH2 0x11EF JUMPI PUSH2 0x11EE PUSH2 0x19F5 JUMP JUMPDEST JUMPDEST PUSH1 0x0 PUSH2 0x11FD DUP6 DUP3 DUP7 ADD PUSH2 0x1069 JUMP JUMPDEST SWAP3 POP POP PUSH1 0x20 PUSH2 0x120E DUP6 DUP3 DUP7 ADD PUSH2 0x1119 JUMP JUMPDEST SWAP2 POP POP SWAP3 POP SWAP3 SWAP1 POP JUMP JUMPDEST PUSH1 0x0 DUP1 PUSH1 0x40 DUP4 DUP6 SUB SLT ISZERO PUSH2 0x122F JUMPI PUSH2 0x122E PUSH2 0x19F5 JUMP JUMPDEST JUMPDEST PUSH1 0x0 DUP4 ADD MLOAD PUSH8 0xFFFFFFFFFFFFFFFF DUP2 GT ISZERO PUSH2 0x124D JUMPI PUSH2 0x124C PUSH2 0x19F0 JUMP JUMPDEST JUMPDEST PUSH2 0x1259 DUP6 DUP3 DUP7 ADD PUSH2 0x1093 JUMP JUMPDEST SWAP3 POP POP PUSH1 0x20 DUP4 ADD MLOAD PUSH8 0xFFFFFFFFFFFFFFFF DUP2 GT ISZERO PUSH2 0x127A JUMPI PUSH2 0x1279 PUSH2 0x19F0 JUMP JUMPDEST JUMPDEST PUSH2 0x1286 DUP6 DUP3 DUP7 ADD PUSH2 0x10C1 JUMP JUMPDEST SWAP2 POP POP SWAP3 POP SWAP3 SWAP1 POP JUMP JUMPDEST PUSH1 0x0 PUSH1 0x20 DUP3 DUP5 SUB SLT ISZERO PUSH2 0x12A6 JUMPI PUSH2 0x12A5 PUSH2 0x19F5 JUMP JUMPDEST JUMPDEST PUSH1 0x0 PUSH2 0x12B4 DUP5 DUP3 DUP6 ADD PUSH2 0x1143 JUMP JUMPDEST SWAP2 POP POP SWAP3 SWAP2 POP POP JUMP JUMPDEST PUSH1 0x0 PUSH2 0x12C9 DUP4 DUP4 PUSH2 0x13D8 JUMP JUMPDEST PUSH1 0x20 DUP4 ADD SWAP1 POP SWAP3 SWAP2 POP POP JUMP JUMPDEST PUSH2 0x12DE DUP2 PUSH2 0x17FB JUMP JUMPDEST DUP3 MSTORE POP POP JUMP JUMPDEST PUSH1 0x0 PUSH2 0x12EF DUP3 PUSH2 0x15C5 JUMP JUMPDEST PUSH2 0x12F9 DUP2 DUP6 PUSH2 0x15DD JUMP JUMPDEST SWAP4 POP PUSH2 0x1304 DUP4 PUSH2 0x15B5 JUMP JUMPDEST DUP1 PUSH1 0x0 JUMPDEST DUP4 DUP2 LT ISZERO PUSH2 0x1335 JUMPI DUP2 MLOAD PUSH2 0x131C DUP9 DUP3 PUSH2 0x12BD JUMP JUMPDEST SWAP8 POP PUSH2 0x1327 DUP4 PUSH2 0x15D0 JUMP JUMPDEST SWAP3 POP POP PUSH1 0x1 DUP2 ADD SWAP1 POP PUSH2 0x1308 JUMP JUMPDEST POP DUP6 SWAP4 POP POP POP POP SWAP3 SWAP2 POP POP JUMP JUMPDEST PUSH2 0x134B DUP2 PUSH2 0x187A JUMP JUMPDEST DUP3 MSTORE POP POP JUMP JUMPDEST PUSH1 0x0 PUSH2 0x135E PUSH1 0x2 DUP4 PUSH2 0x15EE JUMP JUMPDEST SWAP2 POP PUSH2 0x1369 DUP3 PUSH2 0x1A18 JUMP JUMPDEST PUSH1 0x20 DUP3 ADD SWAP1 POP SWAP2 SWAP1 POP JUMP JUMPDEST PUSH1 0x0 PUSH2 0x1381 PUSH1 0x1 DUP4 PUSH2 0x15EE JUMP JUMPDEST SWAP2 POP PUSH2 0x138C DUP3 PUSH2 0x1A41 JUMP JUMPDEST PUSH1 0x20 DUP3 ADD SWAP1 POP SWAP2 SWAP1 POP JUMP JUMPDEST PUSH1 0x0 PUSH2 0x13A4 PUSH1 0x17 DUP4 PUSH2 0x15EE JUMP JUMPDEST SWAP2 POP PUSH2 0x13AF DUP3 PUSH2 0x1A6A JUMP JUMPDEST PUSH1 0x20 DUP3 ADD SWAP1 POP SWAP2 SWAP1 POP JUMP JUMPDEST PUSH2 0x13C3 DUP2 PUSH2 0x1844 JUMP JUMPDEST DUP3 MSTORE POP POP JUMP JUMPDEST PUSH2 0x13D2 DUP2 PUSH2 0x1853 JUMP JUMPDEST DUP3 MSTORE POP POP JUMP JUMPDEST PUSH2 0x13E1 DUP2 PUSH2 0x185D JUMP JUMPDEST DUP3 MSTORE POP POP JUMP JUMPDEST PUSH2 0x13F0 DUP2 PUSH2 0x185D JUMP JUMPDEST DUP3 MSTORE POP POP JUMP JUMPDEST PUSH2 0x13FF DUP2 PUSH2 0x186D JUMP JUMPDEST DUP3 MSTORE POP POP JUMP JUMPDEST PUSH1 0x0 PUSH1 0x60 DUP3 ADD SWAP1 POP PUSH2 0x141A PUSH1 0x0 DUP4 ADD DUP7 PUSH2 0x12D5 JUMP JUMPDEST PUSH2 0x1427 PUSH1 0x20 DUP4 ADD DUP6 PUSH2 0x12D5 JUMP JUMPDEST PUSH2 0x1434 PUSH1 0x40 DUP4 ADD DUP5 PUSH2 0x13BA JUMP JUMPDEST SWAP5 SWAP4 POP POP POP POP JUMP JUMPDEST PUSH1 0x0 PUSH1 0x40 DUP3 ADD SWAP1 POP PUSH2 0x1451 PUSH1 0x0 DUP4 ADD DUP6 PUSH2 0x12D5 JUMP JUMPDEST PUSH2 0x145E PUSH1 0x20 DUP4 ADD DUP5 PUSH2 0x13F6 JUMP JUMPDEST SWAP4 SWAP3 POP POP POP JUMP JUMPDEST PUSH1 0x0 PUSH1 0x20 DUP3 ADD SWAP1 POP DUP2 DUP2 SUB PUSH1 0x0 DUP4 ADD MSTORE PUSH2 0x147F DUP2 DUP5 PUSH2 0x12E4 JUMP JUMPDEST SWAP1 POP SWAP3 SWAP2 POP POP JUMP JUMPDEST PUSH1 0x0 PUSH1 0x20 DUP3 ADD SWAP1 POP PUSH2 0x149C PUSH1 0x0 DUP4 ADD DUP5 PUSH2 0x1342 JUMP JUMPDEST SWAP3 SWAP2 POP POP JUMP JUMPDEST PUSH1 0x0 PUSH1 0x20 DUP3 ADD SWAP1 POP DUP2 DUP2 SUB PUSH1 0x0 DUP4 ADD MSTORE PUSH2 0x14BB DUP2 PUSH2 0x1351 JUMP JUMPDEST SWAP1 POP SWAP2 SWAP1 POP JUMP JUMPDEST PUSH1 0x0 PUSH1 0x20 DUP3 ADD SWAP1 POP DUP2 DUP2 SUB PUSH1 0x0 DUP4 ADD MSTORE PUSH2 0x14DB DUP2 PUSH2 0x1374 JUMP JUMPDEST SWAP1 POP SWAP2 SWAP1 POP JUMP JUMPDEST PUSH1 0x0 PUSH1 0x20 DUP3 ADD SWAP1 POP DUP2 DUP2 SUB PUSH1 0x0 DUP4 ADD MSTORE PUSH2 0x14FB DUP2 PUSH2 0x1397 JUMP JUMPDEST SWAP1 POP SWAP2 SWAP1 POP JUMP JUMPDEST PUSH1 0x0 PUSH1 0x20 DUP3 ADD SWAP1 POP PUSH2 0x1517 PUSH1 0x0 DUP4 ADD DUP5 PUSH2 0x13C9 JUMP JUMPDEST SWAP3 SWAP2 POP POP JUMP JUMPDEST PUSH1 0x0 PUSH1 0x20 DUP3 ADD SWAP1 POP PUSH2 0x1532 PUSH1 0x0 DUP4 ADD DUP5 PUSH2 0x13E7 JUMP JUMPDEST SWAP3 SWAP2 POP POP JUMP JUMPDEST PUSH1 0x0 PUSH2 0x1542 PUSH2 0x1553 JUMP JUMPDEST SWAP1 POP PUSH2 0x154E DUP3 DUP3 PUSH2 0x18B0 JUMP JUMPDEST SWAP2 SWAP1 POP JUMP JUMPDEST PUSH1 0x0 PUSH1 0x40 MLOAD SWAP1 POP SWAP1 JUMP JUMPDEST PUSH1 0x0 PUSH8 0xFFFFFFFFFFFFFFFF DUP3 GT ISZERO PUSH2 0x1578 JUMPI PUSH2 0x1577 PUSH2 0x19B7 JUMP JUMPDEST JUMPDEST PUSH1 0x20 DUP3 MUL SWAP1 POP PUSH1 0x20 DUP2 ADD SWAP1 POP SWAP2 SWAP1 POP JUMP JUMPDEST PUSH1 0x0 PUSH8 0xFFFFFFFFFFFFFFFF DUP3 GT ISZERO PUSH2 0x15A4 JUMPI PUSH2 0x15A3 PUSH2 0x19B7 JUMP JUMPDEST JUMPDEST PUSH1 0x20 DUP3 MUL SWAP1 POP PUSH1 0x20 DUP2 ADD SWAP1 POP SWAP2 SWAP1 POP JUMP JUMPDEST PUSH1 0x0 DUP2 SWAP1 POP PUSH1 0x20 DUP3 ADD SWAP1 POP SWAP2 SWAP1 POP JUMP JUMPDEST PUSH1 0x0 DUP2 MLOAD SWAP1 POP SWAP2 SWAP1 POP JUMP JUMPDEST PUSH1 0x0 PUSH1 0x20 DUP3 ADD SWAP1 POP SWAP2 SWAP1 POP JUMP JUMPDEST PUSH1 0x0 DUP3 DUP3 MSTORE PUSH1 0x20 DUP3 ADD SWAP1 POP SWAP3 SWAP2 POP POP JUMP JUMPDEST PUSH1 0x0 DUP3 DUP3 MSTORE PUSH1 0x20 DUP3 ADD SWAP1 POP SWAP3 SWAP2 POP POP JUMP JUMPDEST PUSH1 0x0 PUSH2 0x160A DUP3 PUSH2 0x1853 JUMP JUMPDEST SWAP2 POP PUSH2 0x1615 DUP4 PUSH2 0x1853 JUMP JUMPDEST SWAP3 POP DUP3 PUSH2 0x1625 JUMPI PUSH2 0x1624 PUSH2 0x1959 JUMP JUMPDEST JUMPDEST DUP3 DUP3 DIV SWAP1 POP SWAP3 SWAP2 POP POP JUMP JUMPDEST PUSH1 0x0 DUP1 DUP3 SWAP2 POP DUP4 SWAP1 POP JUMPDEST PUSH1 0x1 DUP6 GT ISZERO PUSH2 0x167A JUMPI DUP1 DUP7 DIV DUP2 GT ISZERO PUSH2 0x1656 JUMPI PUSH2 0x1655 PUSH2 0x192A JUMP JUMPDEST JUMPDEST PUSH1 0x1 DUP6 AND ISZERO PUSH2 0x1665 JUMPI DUP1 DUP3 MUL SWAP2 POP JUMPDEST DUP1 DUP2 MUL SWAP1 POP PUSH2 0x1673 DUP6 PUSH2 0x1A0B JUMP JUMPDEST SWAP5 POP PUSH2 0x163A JUMP JUMPDEST SWAP5 POP SWAP5 SWAP3 POP POP POP JUMP JUMPDEST PUSH1 0x0 PUSH2 0x168E DUP3 PUSH2 0x1853 JUMP JUMPDEST SWAP2 POP PUSH2 0x1699 DUP4 PUSH2 0x1853 JUMP JUMPDEST SWAP3 POP PUSH2 0x16C6 PUSH32 0xFFFFFFFFFFFFFFFFFFFFFFFFFFFFFFFFFFFFFFFFFFFFFFFFFFFFFFFFFFFFFFFF DUP5 DUP5 PUSH2 0x16CE JUMP JUMPDEST SWAP1 POP SWAP3 SWAP2 POP POP JUMP JUMPDEST PUSH1 0x0 DUP3 PUSH2 0x16DE JUMPI PUSH1 0x1 SWAP1 POP PUSH2 0x179A JUMP JUMPDEST DUP2 PUSH2 0x16EC JUMPI PUSH1 0x0 SWAP1 POP PUSH2 0x179A JUMP JUMPDEST DUP2 PUSH1 0x1 DUP2 EQ PUSH2 0x1702 JUMPI PUSH1 0x2 DUP2 EQ PUSH2 0x170C JUMPI PUSH2 0x173B JUMP JUMPDEST PUSH1 0x1 SWAP2 POP POP PUSH2 0x179A JUMP JUMPDEST PUSH1 0xFF DUP5 GT ISZERO PUSH2 0x171E JUMPI PUSH2 0x171D PUSH2 0x192A JUMP JUMPDEST JUMPDEST DUP4 PUSH1 0x2 EXP SWAP2 POP DUP5 DUP3 GT ISZERO PUSH2 0x1735 JUMPI PUSH2 0x1734 PUSH2 0x192A JUMP JUMPDEST JUMPDEST POP PUSH2 0x179A JUMP JUMPDEST POP PUSH1 0x20 DUP4 LT PUSH2 0x133 DUP4 LT AND PUSH1 0x4E DUP5 LT PUSH1 0xB DUP5 LT AND OR ISZERO PUSH2 0x1770 JUMPI DUP3 DUP3 EXP SWAP1 POP DUP4 DUP2 GT ISZERO PUSH2 0x176B JUMPI PUSH2 0x176A PUSH2 0x192A JUMP JUMPDEST JUMPDEST PUSH2 0x179A JUMP JUMPDEST PUSH2 0x177D DUP5 DUP5 DUP5 PUSH1 0x1 PUSH2 0x1630 JUMP JUMPDEST SWAP3 POP SWAP1 POP DUP2 DUP5 DIV DUP2 GT ISZERO PUSH2 0x1794 JUMPI PUSH2 0x1793 PUSH2 0x192A JUMP JUMPDEST JUMPDEST DUP2 DUP2 MUL SWAP1 POP JUMPDEST SWAP4 SWAP3 POP POP POP JUMP JUMPDEST PUSH1 0x0 PUSH2 0x17AC DUP3 PUSH2 0x1853 JUMP JUMPDEST SWAP2 POP PUSH2 0x17B7 DUP4 PUSH2 0x1853 JUMP JUMPDEST SWAP3 POP DUP2 PUSH32 0xFFFFFFFFFFFFFFFFFFFFFFFFFFFFFFFFFFFFFFFFFFFFFFFFFFFFFFFFFFFFFFFF DIV DUP4 GT DUP3 ISZERO ISZERO AND ISZERO PUSH2 0x17F0 JUMPI PUSH2 0x17EF PUSH2 0x192A JUMP JUMPDEST JUMPDEST DUP3 DUP3 MUL SWAP1 POP SWAP3 SWAP2 POP POP JUMP JUMPDEST PUSH1 0x0 PUSH2 0x1806 DUP3 PUSH2 0x1824 JUMP JUMPDEST SWAP1 POP SWAP2 SWAP1 POP JUMP JUMPDEST PUSH1 0x0 DUP2 SWAP1 POP SWAP2 SWAP1 POP JUMP JUMPDEST PUSH1 0x0 DUP2 PUSH1 0x6 SIGNEXTEND SWAP1 POP SWAP2 SWAP1 POP JUMP JUMPDEST PUSH1 0x0 PUSH20 0xFFFFFFFFFFFFFFFFFFFFFFFFFFFFFFFFFFFFFFFF DUP3 AND SWAP1 POP SWAP2 SWAP1 POP JUMP JUMPDEST PUSH1 0x0 PUSH3 0xFFFFFF DUP3 AND SWAP1 POP SWAP2 SWAP1 POP JUMP JUMPDEST PUSH1 0x0 DUP2 SWAP1 POP SWAP2 SWAP1 POP JUMP JUMPDEST PUSH1 0x0 PUSH4 0xFFFFFFFF DUP3 AND SWAP1 POP SWAP2 SWAP1 POP JUMP JUMPDEST PUSH1 0x0 PUSH1 0xFF DUP3 AND SWAP1 POP SWAP2 SWAP1 POP JUMP JUMPDEST PUSH1 0x0 PUSH2 0x1885 DUP3 PUSH2 0x188C JUMP JUMPDEST SWAP1 POP SWAP2 SWAP1 POP JUMP JUMPDEST PUSH1 0x0 PUSH2 0x1897 DUP3 PUSH2 0x189E JUMP JUMPDEST SWAP1 POP SWAP2 SWAP1 POP JUMP JUMPDEST PUSH1 0x0 PUSH2 0x18A9 DUP3 PUSH2 0x1824 JUMP JUMPDEST SWAP1 POP SWAP2 SWAP1 POP JUMP JUMPDEST PUSH2 0x18B9 DUP3 PUSH2 0x19FA JUMP JUMPDEST DUP2 ADD DUP2 DUP2 LT PUSH8 0xFFFFFFFFFFFFFFFF DUP3 GT OR ISZERO PUSH2 0x18D8 JUMPI PUSH2 0x18D7 PUSH2 0x19B7 JUMP JUMPDEST JUMPDEST DUP1 PUSH1 0x40 MSTORE POP POP POP JUMP JUMPDEST PUSH1 0x0 PUSH2 0x18EC DUP3 PUSH2 0x180D JUMP JUMPDEST SWAP2 POP PUSH32 0x8000000000000000000000000000000000000000000000000000000000000000 DUP3 EQ ISZERO PUSH2 0x191F JUMPI PUSH2 0x191E PUSH2 0x192A JUMP JUMPDEST JUMPDEST DUP2 PUSH1 0x0 SUB SWAP1 POP SWAP2 SWAP1 POP JUMP JUMPDEST PUSH32 0x4E487B7100000000000000000000000000000000000000000000000000000000 PUSH1 0x0 MSTORE PUSH1 0x11 PUSH1 0x4 MSTORE PUSH1 0x24 PUSH1 0x0 REVERT JUMPDEST PUSH32 0x4E487B7100000000000000000000000000000000000000000000000000000000 PUSH1 0x0 MSTORE PUSH1 0x12 PUSH1 0x4 MSTORE PUSH1 0x24 PUSH1 0x0 REVERT JUMPDEST PUSH32 0x4E487B7100000000000000000000000000000000000000000000000000000000 PUSH1 0x0 MSTORE PUSH1 0x32 PUSH1 0x4 MSTORE PUSH1 0x24 PUSH1 0x0 REVERT JUMPDEST PUSH32 0x4E487B7100000000000000000000000000000000000000000000000000000000 PUSH1 0x0 MSTORE PUSH1 0x41 PUSH1 0x4 MSTORE PUSH1 0x24 PUSH1 0x0 REVERT JUMPDEST PUSH1 0x0 DUP1 REVERT JUMPDEST PUSH1 0x0 DUP1 REVERT JUMPDEST PUSH1 0x0 DUP1 REVERT JUMPDEST PUSH1 0x0 DUP1 REVERT JUMPDEST PUSH1 0x0 PUSH1 0x1F NOT PUSH1 0x1F DUP4 ADD AND SWAP1 POP SWAP2 SWAP1 POP JUMP JUMPDEST PUSH1 0x0 DUP2 PUSH1 0x1 SHR SWAP1 POP SWAP2 SWAP1 POP JUMP JUMPDEST PUSH32 0x4250000000000000000000000000000000000000000000000000000000000000 PUSH1 0x0 DUP3 ADD MSTORE POP JUMP JUMPDEST PUSH32 0x5400000000000000000000000000000000000000000000000000000000000000 PUSH1 0x0 DUP3 ADD MSTORE POP JUMP JUMPDEST PUSH32 0x746F6B656E546F5072696365206E6F742030206F722031000000000000000000 PUSH1 0x0 DUP3 ADD MSTORE POP JUMP JUMPDEST PUSH2 0x1A9C DUP2 PUSH2 0x17FB JUMP JUMPDEST DUP2 EQ PUSH2 0x1AA7 JUMPI PUSH1 0x0 DUP1 REVERT JUMPDEST POP JUMP JUMPDEST PUSH2 0x1AB3 DUP2 PUSH2 0x1817 JUMP JUMPDEST DUP2 EQ PUSH2 0x1ABE JUMPI PUSH1 0x0 DUP1 REVERT JUMPDEST POP JUMP JUMPDEST PUSH2 0x1ACA DUP2 PUSH2 0x1824 JUMP JUMPDEST DUP2 EQ PUSH2 0x1AD5 JUMPI PUSH1 0x0 DUP1 REVERT JUMPDEST POP JUMP JUMPDEST PUSH2 0x1AE1 DUP2 PUSH2 0x1844 JUMP JUMPDEST DUP2 EQ PUSH2 0x1AEC JUMPI PUSH1 0x0 DUP1 REVERT JUMPDEST POP JUMP JUMPDEST PUSH2 0x1AF8 DUP2 PUSH2 0x1853 JUMP JUMPDEST DUP2 EQ PUSH2 0x1B03 JUMPI PUSH1 0x0 DUP1 REVERT JUMPDEST POP JUMP JUMPDEST PUSH2 0x1B0F DUP2 PUSH2 0x186D JUMP JUMPDEST DUP2 EQ PUSH2 0x1B1A JUMPI PUSH1 0x0 DUP1 REVERT JUMPDEST POP JUMP INVALID LOG2 PUSH5 0x6970667358 0x22 SLT KECCAK256 PUSH24 0x2A9BAE868A7C59EA1BA0F60BF78CCDF9E7E6692E3F5379D0 PUSH2 0x6D14 PUSH1 0x5D PUSH8 0x6364736F6C634300 ADDMOD SMOD STOP CALLER "
		},
		"gasEstimates": {
			"creation": {
				"codeDepositCost": "1399000",
				"executionCost": "infinite",
				"totalCost": "infinite"
			},
			"external": {
				"TWAP_PERIOD()": "335",
				"getPoolForTWAP(address,uint24)": "infinite",
				"latestPrice(address,address,uint256)": "infinite",
				"uniswapFactory()": "infinite"
			}
		},
		"methodIdentifiers": {
			"TWAP_PERIOD()": "7ca25184",
			"getPoolForTWAP(address,uint24)": "58de3500",
			"latestPrice(address,address,uint256)": "fa0abbaa",
			"uniswapFactory()": "8bdb2afa"
		}
	},
	"abi": [
		{
			"inputs": [
				{
					"internalType": "contract IUniswapV3Factory",
					"name": "factory",
					"type": "address"
				}
			],
			"stateMutability": "nonpayable",
			"type": "constructor"
		},
		{
			"inputs": [],
			"name": "TWAP_PERIOD",
			"outputs": [
				{
					"internalType": "uint32",
					"name": "",
					"type": "uint32"
				}
			],
			"stateMutability": "view",
			"type": "function"
		},
		{
			"inputs": [
				{
					"internalType": "address",
					"name": "tokenA",
					"type": "address"
				},
				{
					"internalType": "uint24",
					"name": "fee",
					"type": "uint24"
				}
			],
			"name": "getPoolForTWAP",
			"outputs": [
				{
					"internalType": "address",
					"name": "",
					"type": "address"
				},
				{
					"internalType": "uint8",
					"name": "",
					"type": "uint8"
				}
			],
			"stateMutability": "view",
			"type": "function"
		},
		{
			"inputs": [
				{
					"internalType": "address",
					"name": "pool",
					"type": "address"
				},
				{
					"internalType": "address",
					"name": "token0",
					"type": "address"
				},
				{
					"internalType": "uint256",
					"name": "tokenToPrice",
					"type": "uint256"
				}
			],
			"name": "latestPrice",
			"outputs": [
				{
					"internalType": "uint256",
					"name": "price",
					"type": "uint256"
				}
			],
			"stateMutability": "view",
			"type": "function"
		},
		{
			"inputs": [],
			"name": "uniswapFactory",
			"outputs": [
				{
					"internalType": "contract IUniswapV3Factory",
					"name": "",
					"type": "address"
				}
			],
			"stateMutability": "view",
			"type": "function"
		}
	]
}